{
	"HealthDataAccess.sol": {
		"HealthDataAccess": {
			"abi": [
				{
					"anonymous": false,
					"inputs": [
						{
							"indexed": true,
							"internalType": "address",
							"name": "granter",
							"type": "address"
						},
						{
							"indexed": true,
							"internalType": "address",
							"name": "requester",
							"type": "address"
						},
						{
							"indexed": true,
							"internalType": "bytes32",
							"name": "dataId",
							"type": "bytes32"
						},
						{
							"indexed": false,
							"internalType": "uint256",
							"name": "expiresAt",
							"type": "uint256"
						}
					],
					"name": "AccessGranted",
					"type": "event"
				},
				{
					"anonymous": false,
					"inputs": [
						{
							"indexed": true,
							"internalType": "address",
							"name": "granter",
							"type": "address"
						},
						{
							"indexed": true,
							"internalType": "address",
							"name": "requester",
							"type": "address"
						},
						{
							"indexed": true,
							"internalType": "bytes32",
							"name": "dataId",
							"type": "bytes32"
						}
					],
					"name": "AccessRevoked",
					"type": "event"
				},
				{
					"anonymous": false,
					"inputs": [
						{
							"indexed": true,
							"internalType": "address",
							"name": "owner",
							"type": "address"
						},
						{
							"indexed": true,
							"internalType": "bytes32",
							"name": "dataId",
							"type": "bytes32"
						},
						{
							"indexed": false,
							"internalType": "enum HealthDataAccess.DataStatus",
							"name": "oldStatus",
							"type": "uint8"
						},
						{
							"indexed": false,
							"internalType": "enum HealthDataAccess.DataStatus",
							"name": "newStatus",
							"type": "uint8"
						},
						{
							"indexed": false,
							"internalType": "uint256",
							"name": "timestamp",
							"type": "uint256"
						}
					],
					"name": "DataStatusChanged",
					"type": "event"
				},
				{
					"anonymous": false,
					"inputs": [
						{
							"indexed": true,
							"internalType": "address",
							"name": "owner",
							"type": "address"
						},
						{
							"indexed": true,
							"internalType": "bytes32",
							"name": "dataId",
							"type": "bytes32"
						},
						{
							"indexed": false,
							"internalType": "string",
							"name": "dataType",
							"type": "string"
						},
						{
							"indexed": false,
							"internalType": "uint256",
							"name": "timestamp",
							"type": "uint256"
						}
					],
					"name": "DataStored",
					"type": "event"
				},
				{
					"anonymous": false,
					"inputs": [
						{
							"indexed": true,
							"internalType": "address",
							"name": "owner",
							"type": "address"
						},
						{
							"indexed": true,
							"internalType": "bytes32",
							"name": "dataId",
							"type": "bytes32"
						},
						{
							"indexed": false,
							"internalType": "uint256",
							"name": "timestamp",
							"type": "uint256"
						}
					],
					"name": "DataUpdated",
					"type": "event"
				},
				{
					"inputs": [
						{
							"internalType": "address",
							"name": "requester",
							"type": "address"
						},
						{
							"internalType": "bytes32[]",
							"name": "dataIds",
							"type": "bytes32[]"
						},
						{
							"internalType": "bool",
							"name": "canRead",
							"type": "bool"
						},
						{
							"internalType": "bool",
							"name": "canWrite",
							"type": "bool"
						},
						{
							"internalType": "uint256",
							"name": "duration",
							"type": "uint256"
						}
					],
					"name": "batchGrantAccess",
					"outputs": [],
					"stateMutability": "nonpayable",
					"type": "function"
				},
				{
					"inputs": [
						{
							"internalType": "address",
							"name": "requester",
							"type": "address"
						},
						{
							"internalType": "bytes32",
							"name": "dataId",
							"type": "bytes32"
						}
					],
					"name": "checkAccess",
					"outputs": [
						{
							"internalType": "bool",
							"name": "",
							"type": "bool"
						}
					],
					"stateMutability": "view",
					"type": "function"
				},
				{
					"inputs": [
						{
							"internalType": "address",
							"name": "requester",
							"type": "address"
						},
						{
							"internalType": "bytes32",
							"name": "dataId",
							"type": "bytes32"
						}
					],
					"name": "checkPermission",
					"outputs": [
						{
							"internalType": "bool",
							"name": "hasPermission",
							"type": "bool"
						},
						{
							"internalType": "bool",
							"name": "canRead",
							"type": "bool"
						},
						{
							"internalType": "bool",
							"name": "canWrite",
							"type": "bool"
						},
						{
							"internalType": "uint256",
							"name": "expiresAt",
							"type": "uint256"
						}
					],
					"stateMutability": "view",
					"type": "function"
				},
				{
					"inputs": [
						{
							"internalType": "bytes32",
							"name": "dataId",
							"type": "bytes32"
						}
					],
					"name": "deleteData",
					"outputs": [],
					"stateMutability": "nonpayable",
					"type": "function"
				},
				{
					"inputs": [],
					"name": "getContractInfo",
					"outputs": [
						{
							"internalType": "uint256",
							"name": "totalRecords",
							"type": "uint256"
						},
						{
							"internalType": "uint256",
							"name": "activeRecords",
							"type": "uint256"
						}
					],
					"stateMutability": "pure",
					"type": "function"
				},
				{
					"inputs": [
						{
							"internalType": "bytes32",
							"name": "dataId",
							"type": "bytes32"
						}
					],
					"name": "getDataStatus",
					"outputs": [
						{
							"internalType": "enum HealthDataAccess.DataStatus",
							"name": "",
							"type": "uint8"
						}
					],
					"stateMutability": "view",
					"type": "function"
				},
				{
					"inputs": [
						{
							"internalType": "bytes32",
							"name": "dataId",
							"type": "bytes32"
						}
					],
					"name": "getHealthData",
					"outputs": [
						{
							"internalType": "bytes32",
							"name": "dataHash",
							"type": "bytes32"
						},
						{
							"internalType": "bytes32",
							"name": "encryptedData",
							"type": "bytes32"
						},
						{
							"internalType": "uint256",
							"name": "timestamp",
							"type": "uint256"
						},
						{
							"internalType": "address",
							"name": "owner",
							"type": "address"
						},
						{
							"internalType": "string",
							"name": "dataType",
							"type": "string"
						}
					],
					"stateMutability": "view",
					"type": "function"
				},
				{
					"inputs": [
						{
							"internalType": "address",
							"name": "user",
							"type": "address"
						}
					],
					"name": "getUserDataCount",
					"outputs": [
						{
							"internalType": "uint256",
							"name": "",
							"type": "uint256"
						}
					],
					"stateMutability": "view",
					"type": "function"
				},
				{
					"inputs": [
						{
							"internalType": "address",
							"name": "user",
							"type": "address"
						}
					],
					"name": "getUserDataIds",
					"outputs": [
						{
							"internalType": "bytes32[]",
							"name": "",
							"type": "bytes32[]"
						}
					],
					"stateMutability": "view",
					"type": "function"
				},
				{
					"inputs": [
						{
							"internalType": "address",
							"name": "requester",
							"type": "address"
						},
						{
							"internalType": "bytes32",
							"name": "dataId",
							"type": "bytes32"
						},
						{
							"internalType": "bool",
							"name": "canRead",
							"type": "bool"
						},
						{
							"internalType": "bool",
							"name": "canWrite",
							"type": "bool"
						},
						{
							"internalType": "uint256",
							"name": "duration",
							"type": "uint256"
						}
					],
					"name": "grantAccess",
					"outputs": [],
					"stateMutability": "nonpayable",
					"type": "function"
				},
				{
					"inputs": [
						{
							"internalType": "bytes32",
							"name": "",
							"type": "bytes32"
						}
					],
					"name": "healthRecords",
					"outputs": [
						{
							"internalType": "bytes32",
							"name": "dataHash",
							"type": "bytes32"
						},
						{
							"internalType": "bytes32",
							"name": "encryptedData",
							"type": "bytes32"
						},
						{
							"internalType": "uint256",
							"name": "timestamp",
							"type": "uint256"
						},
						{
							"internalType": "address",
							"name": "owner",
							"type": "address"
						},
						{
							"internalType": "bool",
							"name": "isActive",
							"type": "bool"
						},
						{
							"internalType": "string",
							"name": "dataType",
							"type": "string"
						},
						{
							"internalType": "enum HealthDataAccess.DataStatus",
							"name": "status",
							"type": "uint8"
						}
					],
					"stateMutability": "view",
					"type": "function"
				},
				{
					"inputs": [
						{
							"internalType": "bytes32",
							"name": "dataId",
							"type": "bytes32"
						}
					],
					"name": "makeDataPrivate",
					"outputs": [],
					"stateMutability": "nonpayable",
					"type": "function"
				},
				{
					"inputs": [
						{
							"internalType": "bytes32",
							"name": "dataId",
							"type": "bytes32"
						}
					],
					"name": "makeDataPublic",
					"outputs": [],
					"stateMutability": "nonpayable",
					"type": "function"
				},
				{
					"inputs": [
						{
							"internalType": "address",
							"name": "",
							"type": "address"
						},
						{
							"internalType": "bytes32",
							"name": "",
							"type": "bytes32"
						}
					],
					"name": "permissions",
					"outputs": [
						{
							"internalType": "address",
							"name": "requester",
							"type": "address"
						},
						{
							"internalType": "bytes32",
							"name": "dataId",
							"type": "bytes32"
						},
						{
							"internalType": "uint256",
							"name": "grantedAt",
							"type": "uint256"
						},
						{
							"internalType": "uint256",
							"name": "expiresAt",
							"type": "uint256"
						},
						{
							"internalType": "bool",
							"name": "canRead",
							"type": "bool"
						},
						{
							"internalType": "bool",
							"name": "canWrite",
							"type": "bool"
						},
						{
							"internalType": "address",
							"name": "granter",
							"type": "address"
						}
					],
					"stateMutability": "view",
					"type": "function"
				},
				{
					"inputs": [
						{
							"internalType": "address",
							"name": "requester",
							"type": "address"
						},
						{
							"internalType": "bytes32",
							"name": "dataId",
							"type": "bytes32"
						}
					],
					"name": "revokeAccess",
					"outputs": [],
					"stateMutability": "nonpayable",
					"type": "function"
				},
				{
					"inputs": [
						{
							"internalType": "bytes32",
							"name": "dataHash",
							"type": "bytes32"
						},
						{
							"internalType": "bytes32",
							"name": "encryptedData",
							"type": "bytes32"
						},
						{
							"internalType": "string",
							"name": "dataType",
							"type": "string"
						}
					],
					"name": "storeHealthData",
					"outputs": [
						{
							"internalType": "bytes32",
							"name": "",
							"type": "bytes32"
						}
					],
					"stateMutability": "nonpayable",
					"type": "function"
				},
				{
					"inputs": [
						{
							"internalType": "bytes32",
							"name": "dataId",
							"type": "bytes32"
						},
						{
							"internalType": "bytes32",
							"name": "newDataHash",
							"type": "bytes32"
						},
						{
							"internalType": "bytes32",
							"name": "newEncryptedData",
							"type": "bytes32"
						}
					],
					"name": "updateHealthData",
					"outputs": [],
					"stateMutability": "nonpayable",
					"type": "function"
				},
				{
					"inputs": [
						{
							"internalType": "address",
							"name": "",
							"type": "address"
						},
						{
							"internalType": "uint256",
							"name": "",
							"type": "uint256"
						}
					],
					"name": "userRecords",
					"outputs": [
						{
							"internalType": "bytes32",
							"name": "",
							"type": "bytes32"
						}
					],
					"stateMutability": "view",
					"type": "function"
				}
			],
			"devdoc": {
				"details": "健康数据存储与访问控制合约 实现数据的去中心化存储、加密和访问权限管理",
				"kind": "dev",
				"methods": {
					"batchGrantAccess(address,bytes32[],bool,bool,uint256)": {
						"details": "批量授权",
						"params": {
							"canRead": "是否可读",
							"canWrite": "是否可写",
							"dataIds": "数据ID数组",
							"duration": "授权时长",
							"requester": "请求者地址"
						}
					},
					"checkAccess(address,bytes32)": {
						"details": "检查某地址是否可读该数据（公开数据直接可读）",
						"params": {
							"dataId": "数据ID",
							"requester": "请求者地址"
						}
					},
					"checkPermission(address,bytes32)": {
						"details": "检查权限状态",
						"params": {
							"dataId": "数据ID",
							"requester": "请求者地址"
						}
					},
					"deleteData(bytes32)": {
						"details": "删除数据（仅所有者）",
						"params": {
							"dataId": "数据ID"
						}
					},
					"getContractInfo()": {
						"details": "获取合约信息"
					},
					"getDataStatus(bytes32)": {
						"details": "获取数据当前状态（0=Private, 1=Public）",
						"params": {
							"dataId": "数据ID"
						}
					},
					"getHealthData(bytes32)": {
						"details": "获取健康数据",
						"params": {
							"dataId": "数据ID"
						}
					},
					"getUserDataCount(address)": {
						"details": "获取数据数量",
						"params": {
							"user": "用户地址"
						}
					},
					"getUserDataIds(address)": {
						"details": "获取用户的所有数据ID",
						"params": {
							"user": "用户地址"
						}
					},
					"grantAccess(address,bytes32,bool,bool,uint256)": {
						"details": "授权访问权限",
						"params": {
							"canRead": "是否可读",
							"canWrite": "是否可写",
							"dataId": "数据ID",
							"duration": "授权时长（秒）",
							"requester": "请求者地址"
						}
					},
					"makeDataPrivate(bytes32)": {
						"details": "将数据改回私密（由所有者执行）",
						"params": {
							"dataId": "数据ID"
						}
					},
					"makeDataPublic(bytes32)": {
						"details": "将数据公开（由所有者执行）",
						"params": {
							"dataId": "数据ID"
						}
					},
					"revokeAccess(address,bytes32)": {
						"details": "撤销访问权限",
						"params": {
							"dataId": "数据ID",
							"requester": "请求者地址"
						}
					},
					"storeHealthData(bytes32,bytes32,string)": {
						"details": "存储健康数据",
						"params": {
							"dataHash": "数据哈希值",
							"dataType": "数据类型",
							"encryptedData": "加密后的数据"
						}
					},
					"updateHealthData(bytes32,bytes32,bytes32)": {
						"details": "更新健康数据",
						"params": {
							"dataId": "数据ID",
							"newDataHash": "新的数据哈希",
							"newEncryptedData": "新的加密数据"
						}
					}
				},
				"title": "HealthDataAccess",
				"version": 1
			},
			"evm": {
				"assembly": "    /* \"HealthDataAccess.sol\":874:13773  contract HealthDataAccess {... */\n  mstore(0x40, 0x80)\n  callvalue\n  dup1\n  iszero\n  tag_1\n  jumpi\n  revert(0x00, 0x00)\ntag_1:\n  pop\n  dataSize(sub_0)\n  dup1\n  dataOffset(sub_0)\n  0x00\n  codecopy\n  0x00\n  return\nstop\n\nsub_0: assembly {\n        /* \"HealthDataAccess.sol\":874:13773  contract HealthDataAccess {... */\n      mstore(0x40, 0x80)\n      callvalue\n      dup1\n      iszero\n      tag_1\n      jumpi\n      revert(0x00, 0x00)\n    tag_1:\n      pop\n      jumpi(tag_2, lt(calldatasize, 0x04))\n      shr(0xe0, calldataload(0x00))\n      dup1\n      0x7cc1f867\n      gt\n      tag_21\n      jumpi\n      dup1\n      0xd6392057\n      gt\n      tag_22\n      jumpi\n      dup1\n      0xd6392057\n      eq\n      tag_16\n      jumpi\n      dup1\n      0xd7ed69c1\n      eq\n      tag_17\n      jumpi\n      dup1\n      0xe189c8b8\n      eq\n      tag_18\n      jumpi\n      dup1\n      0xe85d28b9\n      eq\n      tag_19\n      jumpi\n      dup1\n      0xe9021744\n      eq\n      tag_20\n      jumpi\n      jump(tag_2)\n    tag_22:\n      dup1\n      0x7cc1f867\n      eq\n      tag_12\n      jumpi\n      dup1\n      0x86911cde\n      eq\n      tag_13\n      jumpi\n      dup1\n      0x89c5d346\n      eq\n      tag_14\n      jumpi\n      dup1\n      0xc0e01108\n      eq\n      tag_15\n      jumpi\n      jump(tag_2)\n    tag_21:\n      dup1\n      0x5b225526\n      gt\n      tag_23\n      jumpi\n      dup1\n      0x5b225526\n      eq\n      tag_7\n      jumpi\n      dup1\n      0x647f94a5\n      eq\n      tag_8\n      jumpi\n      dup1\n      0x66792d00\n      eq\n      tag_9\n      jumpi\n      dup1\n      0x73125163\n      eq\n      tag_10\n      jumpi\n      dup1\n      0x7461f24a\n      eq\n      tag_11\n      jumpi\n      jump(tag_2)\n    tag_23:\n      dup1\n      0x06848dcd\n      eq\n      tag_3\n      jumpi\n      dup1\n      0x0a519fe1\n      eq\n      tag_4\n      jumpi\n      dup1\n      0x380b06c0\n      eq\n      tag_5\n      jumpi\n      dup1\n      0x46e036cf\n      eq\n      tag_6\n      jumpi\n    tag_2:\n      revert(0x00, 0x00)\n        /* \"HealthDataAccess.sol\":9326:9851  function makeDataPrivate(bytes32 dataId) public onlyDataOwner(dataId) {... */\n    tag_3:\n      tag_24\n      0x04\n      dup1\n      calldatasize\n      sub\n      dup2\n      add\n      swap1\n      tag_25\n      swap2\n      swap1\n      tag_26\n      jump\t// in\n    tag_25:\n      tag_27\n      jump\t// in\n    tag_24:\n      stop\n        /* \"HealthDataAccess.sol\":5486:6161  function getHealthData(bytes32 dataId)... */\n    tag_4:\n      tag_28\n      0x04\n      dup1\n      calldatasize\n      sub\n      dup2\n      add\n      swap1\n      tag_29\n      swap2\n      swap1\n      tag_26\n      jump\t// in\n    tag_29:\n      tag_30\n      jump\t// in\n    tag_28:\n      mload(0x40)\n      tag_31\n      swap6\n      swap5\n      swap4\n      swap3\n      swap2\n      swap1\n      tag_32\n      jump\t// in\n    tag_31:\n      mload(0x40)\n      dup1\n      swap2\n      sub\n      swap1\n      return\n        /* \"HealthDataAccess.sol\":4326:5399  function storeHealthData(... */\n    tag_5:\n      tag_33\n      0x04\n      dup1\n      calldatasize\n      sub\n      dup2\n      add\n      swap1\n      tag_34\n      swap2\n      swap1\n      tag_35\n      jump\t// in\n    tag_34:\n      tag_36\n      jump\t// in\n    tag_33:\n      mload(0x40)\n      tag_37\n      swap2\n      swap1\n      tag_38\n      jump\t// in\n    tag_37:\n      mload(0x40)\n      dup1\n      swap2\n      sub\n      swap1\n      return\n        /* \"HealthDataAccess.sol\":11861:12094  function getDataStatus(bytes32 dataId) public view returns (DataStatus) {... */\n    tag_6:\n      tag_39\n      0x04\n      dup1\n      calldatasize\n      sub\n      dup2\n      add\n      swap1\n      tag_40\n      swap2\n      swap1\n      tag_26\n      jump\t// in\n    tag_40:\n      tag_41\n      jump\t// in\n    tag_39:\n      mload(0x40)\n      tag_42\n      swap2\n      swap1\n      tag_43\n      jump\t// in\n    tag_42:\n      mload(0x40)\n      dup1\n      swap2\n      sub\n      swap1\n      return\n        /* \"HealthDataAccess.sol\":2067:2142  mapping(address => mapping(bytes32 => AccessPermission)) public permissions */\n    tag_7:\n      tag_44\n      0x04\n      dup1\n      calldatasize\n      sub\n      dup2\n      add\n      swap1\n      tag_45\n      swap2\n      swap1\n      tag_46\n      jump\t// in\n    tag_45:\n      tag_47\n      jump\t// in\n    tag_44:\n      mload(0x40)\n      tag_48\n      swap8\n      swap7\n      swap6\n      swap5\n      swap4\n      swap3\n      swap2\n      swap1\n      tag_49\n      jump\t// in\n    tag_48:\n      mload(0x40)\n      dup1\n      swap2\n      sub\n      swap1\n      return\n        /* \"HealthDataAccess.sol\":10158:10276  function getUserDataCount(address user) public view returns (uint256) {... */\n    tag_8:\n      tag_50\n      0x04\n      dup1\n      calldatasize\n      sub\n      dup2\n      add\n      swap1\n      tag_51\n      swap2\n      swap1\n      tag_52\n      jump\t// in\n    tag_51:\n      tag_53\n      jump\t// in\n    tag_50:\n      mload(0x40)\n      tag_54\n      swap2\n      swap1\n      tag_55\n      jump\t// in\n    tag_54:\n      mload(0x40)\n      dup1\n      swap2\n      sub\n      swap1\n      return\n        /* \"HealthDataAccess.sol\":9951:10069  function getUserDataIds(address user) public view returns (bytes32[] memory) {... */\n    tag_9:\n      tag_56\n      0x04\n      dup1\n      calldatasize\n      sub\n      dup2\n      add\n      swap1\n      tag_57\n      swap2\n      swap1\n      tag_52\n      jump\t// in\n    tag_57:\n      tag_58\n      jump\t// in\n    tag_56:\n      mload(0x40)\n      tag_59\n      swap2\n      swap1\n      tag_60\n      jump\t// in\n    tag_59:\n      mload(0x40)\n      dup1\n      swap2\n      sub\n      swap1\n      return\n        /* \"HealthDataAccess.sol\":8295:8590  function revokeAccess(address requester, bytes32 dataId) ... */\n    tag_10:\n      tag_61\n      0x04\n      dup1\n      calldatasize\n      sub\n      dup2\n      add\n      swap1\n      tag_62\n      swap2\n      swap1\n      tag_46\n      jump\t// in\n    tag_62:\n      tag_63\n      jump\t// in\n    tag_61:\n      stop\n        /* \"HealthDataAccess.sol\":11209:11747  function checkAccess(address requester, bytes32 dataId) public view returns (bool) {... */\n    tag_11:\n      tag_64\n      0x04\n      dup1\n      calldatasize\n      sub\n      dup2\n      add\n      swap1\n      tag_65\n      swap2\n      swap1\n      tag_46\n      jump\t// in\n    tag_65:\n      tag_66\n      jump\t// in\n    tag_64:\n      mload(0x40)\n      tag_67\n      swap2\n      swap1\n      tag_68\n      jump\t// in\n    tag_67:\n      mload(0x40)\n      dup1\n      swap2\n      sub\n      swap1\n      return\n        /* \"HealthDataAccess.sol\":13566:13771  function getContractInfo() public pure returns (... */\n    tag_12:\n      tag_69\n      tag_70\n      jump\t// in\n    tag_69:\n      mload(0x40)\n      tag_71\n      swap3\n      swap2\n      swap1\n      tag_72\n      jump\t// in\n    tag_71:\n      mload(0x40)\n      dup1\n      swap2\n      sub\n      swap1\n      return\n        /* \"HealthDataAccess.sol\":12193:12871  function deleteData(bytes32 dataId) public onlyDataOwner(dataId) {... */\n    tag_13:\n      tag_73\n      0x04\n      dup1\n      calldatasize\n      sub\n      dup2\n      add\n      swap1\n      tag_74\n      swap2\n      swap1\n      tag_26\n      jump\t// in\n    tag_74:\n      tag_75\n      jump\t// in\n    tag_73:\n      stop\n        /* \"HealthDataAccess.sol\":7144:8168  function grantAccess(... */\n    tag_14:\n      tag_76\n      0x04\n      dup1\n      calldatasize\n      sub\n      dup2\n      add\n      swap1\n      tag_77\n      swap2\n      swap1\n      tag_78\n      jump\t// in\n    tag_77:\n      tag_79\n      jump\t// in\n    tag_76:\n      stop\n        /* \"HealthDataAccess.sol\":8694:9216  function makeDataPublic(bytes32 dataId) public onlyDataOwner(dataId) {... */\n    tag_15:\n      tag_80\n      0x04\n      dup1\n      calldatasize\n      sub\n      dup2\n      add\n      swap1\n      tag_81\n      swap2\n      swap1\n      tag_26\n      jump\t// in\n    tag_81:\n      tag_82\n      jump\t// in\n    tag_80:\n      stop\n        /* \"HealthDataAccess.sol\":10403:11038  function checkPermission(address requester, bytes32 dataId) ... */\n    tag_16:\n      tag_83\n      0x04\n      dup1\n      calldatasize\n      sub\n      dup2\n      add\n      swap1\n      tag_84\n      swap2\n      swap1\n      tag_46\n      jump\t// in\n    tag_84:\n      tag_85\n      jump\t// in\n    tag_83:\n      mload(0x40)\n      tag_86\n      swap5\n      swap4\n      swap3\n      swap2\n      swap1\n      tag_87\n      jump\t// in\n    tag_86:\n      mload(0x40)\n      dup1\n      swap2\n      sub\n      swap1\n      return\n        /* \"HealthDataAccess.sol\":6343:6901  function updateHealthData(... */\n    tag_17:\n      tag_88\n      0x04\n      dup1\n      calldatasize\n      sub\n      dup2\n      add\n      swap1\n      tag_89\n      swap2\n      swap1\n      tag_90\n      jump\t// in\n    tag_89:\n      tag_91\n      jump\t// in\n    tag_88:\n      stop\n        /* \"HealthDataAccess.sol\":13106:13509  function batchGrantAccess(... */\n    tag_18:\n      tag_92\n      0x04\n      dup1\n      calldatasize\n      sub\n      dup2\n      add\n      swap1\n      tag_93\n      swap2\n      swap1\n      tag_94\n      jump\t// in\n    tag_93:\n      tag_95\n      jump\t// in\n    tag_92:\n      stop\n        /* \"HealthDataAccess.sol\":2209:2257  mapping(address => bytes32[]) public userRecords */\n    tag_19:\n      tag_96\n      0x04\n      dup1\n      calldatasize\n      sub\n      dup2\n      add\n      swap1\n      tag_97\n      swap2\n      swap1\n      tag_98\n      jump\t// in\n    tag_97:\n      tag_99\n      jump\t// in\n    tag_96:\n      mload(0x40)\n      tag_100\n      swap2\n      swap1\n      tag_38\n      jump\t// in\n    tag_100:\n      mload(0x40)\n      dup1\n      swap2\n      sub\n      swap1\n      return\n        /* \"HealthDataAccess.sol\":1966:2019  mapping(bytes32 => HealthRecord) public healthRecords */\n    tag_20:\n      tag_101\n      0x04\n      dup1\n      calldatasize\n      sub\n      dup2\n      add\n      swap1\n      tag_102\n      swap2\n      swap1\n      tag_26\n      jump\t// in\n    tag_102:\n      tag_103\n      jump\t// in\n    tag_101:\n      mload(0x40)\n      tag_104\n      swap8\n      swap7\n      swap6\n      swap5\n      swap4\n      swap3\n      swap2\n      swap1\n      tag_105\n      jump\t// in\n    tag_104:\n      mload(0x40)\n      dup1\n      swap2\n      sub\n      swap1\n      return\n        /* \"HealthDataAccess.sol\":9326:9851  function makeDataPrivate(bytes32 dataId) public onlyDataOwner(dataId) {... */\n    tag_27:\n        /* \"HealthDataAccess.sol\":9388:9394  dataId */\n      dup1\n        /* \"HealthDataAccess.sol\":3195:3205  msg.sender */\n      caller\n        /* \"HealthDataAccess.sol\":3164:3205  healthRecords[dataId].owner == msg.sender */\n      0xffffffffffffffffffffffffffffffffffffffff\n      and\n        /* \"HealthDataAccess.sol\":3164:3177  healthRecords */\n      0x00\n        /* \"HealthDataAccess.sol\":3164:3185  healthRecords[dataId] */\n      0x00\n        /* \"HealthDataAccess.sol\":3178:3184  dataId */\n      dup4\n        /* \"HealthDataAccess.sol\":3164:3185  healthRecords[dataId] */\n      dup2\n      mstore\n      0x20\n      add\n      swap1\n      dup2\n      mstore\n      0x20\n      add\n      0x00\n      keccak256\n        /* \"HealthDataAccess.sol\":3164:3191  healthRecords[dataId].owner */\n      0x03\n      add\n      0x00\n      swap1\n      sload\n      swap1\n      0x0100\n      exp\n      swap1\n      div\n      0xffffffffffffffffffffffffffffffffffffffff\n      and\n        /* \"HealthDataAccess.sol\":3164:3205  healthRecords[dataId].owner == msg.sender */\n      0xffffffffffffffffffffffffffffffffffffffff\n      and\n      eq\n        /* \"HealthDataAccess.sol\":3156:3224  require(healthRecords[dataId].owner == msg.sender, \"Not data owner\") */\n      tag_107\n      jumpi\n      mload(0x40)\n      0x08c379a000000000000000000000000000000000000000000000000000000000\n      dup2\n      mstore\n      0x04\n      add\n      tag_108\n      swap1\n      tag_109\n      jump\t// in\n    tag_108:\n      mload(0x40)\n      dup1\n      swap2\n      sub\n      swap1\n      revert\n    tag_107:\n        /* \"HealthDataAccess.sol\":9406:9433  HealthRecord storage record */\n      0x00\n        /* \"HealthDataAccess.sol\":9436:9449  healthRecords */\n      0x00\n        /* \"HealthDataAccess.sol\":9436:9457  healthRecords[dataId] */\n      0x00\n        /* \"HealthDataAccess.sol\":9450:9456  dataId */\n      dup5\n        /* \"HealthDataAccess.sol\":9436:9457  healthRecords[dataId] */\n      dup2\n      mstore\n      0x20\n      add\n      swap1\n      dup2\n      mstore\n      0x20\n      add\n      0x00\n      keccak256\n        /* \"HealthDataAccess.sol\":9406:9457  HealthRecord storage record = healthRecords[dataId] */\n      swap1\n      pop\n        /* \"HealthDataAccess.sol\":9475:9481  record */\n      dup1\n        /* \"HealthDataAccess.sol\":9475:9490  record.isActive */\n      0x03\n      add\n      0x14\n      swap1\n      sload\n      swap1\n      0x0100\n      exp\n      swap1\n      div\n      0xff\n      and\n        /* \"HealthDataAccess.sol\":9467:9510  require(record.isActive, \"Data not active\") */\n      tag_111\n      jumpi\n      mload(0x40)\n      0x08c379a000000000000000000000000000000000000000000000000000000000\n      dup2\n      mstore\n      0x04\n      add\n      tag_112\n      swap1\n      tag_113\n      jump\t// in\n    tag_112:\n      mload(0x40)\n      dup1\n      swap2\n      sub\n      swap1\n      revert\n    tag_111:\n        /* \"HealthDataAccess.sol\":9545:9562  DataStatus.Public */\n      0x01\n        /* \"HealthDataAccess.sol\":9528:9562  record.status == DataStatus.Public */\n      dup1\n      dup2\n      gt\n      iszero\n      tag_114\n      jumpi\n      tag_115\n      tag_116\n      jump\t// in\n    tag_115:\n    tag_114:\n        /* \"HealthDataAccess.sol\":9528:9534  record */\n      dup2\n        /* \"HealthDataAccess.sol\":9528:9541  record.status */\n      0x05\n      add\n      0x00\n      swap1\n      sload\n      swap1\n      0x0100\n      exp\n      swap1\n      div\n      0xff\n      and\n        /* \"HealthDataAccess.sol\":9528:9562  record.status == DataStatus.Public */\n      0x01\n      dup2\n      gt\n      iszero\n      tag_117\n      jumpi\n      tag_118\n      tag_116\n      jump\t// in\n    tag_118:\n    tag_117:\n      eq\n        /* \"HealthDataAccess.sol\":9520:9582  require(record.status == DataStatus.Public, \"Already private\") */\n      tag_119\n      jumpi\n      mload(0x40)\n      0x08c379a000000000000000000000000000000000000000000000000000000000\n      dup2\n      mstore\n      0x04\n      add\n      tag_120\n      swap1\n      tag_121\n      jump\t// in\n    tag_120:\n      mload(0x40)\n      dup1\n      swap2\n      sub\n      swap1\n      revert\n    tag_119:\n        /* \"HealthDataAccess.sol\":9593:9613  DataStatus oldStatus */\n      0x00\n        /* \"HealthDataAccess.sol\":9616:9622  record */\n      dup2\n        /* \"HealthDataAccess.sol\":9616:9629  record.status */\n      0x05\n      add\n      0x00\n      swap1\n      sload\n      swap1\n      0x0100\n      exp\n      swap1\n      div\n      0xff\n      and\n        /* \"HealthDataAccess.sol\":9593:9629  DataStatus oldStatus = record.status */\n      swap1\n      pop\n        /* \"HealthDataAccess.sol\":9655:9673  DataStatus.Private */\n      0x00\n        /* \"HealthDataAccess.sol\":9639:9645  record */\n      dup3\n        /* \"HealthDataAccess.sol\":9639:9652  record.status */\n      0x05\n      add\n      0x00\n        /* \"HealthDataAccess.sol\":9639:9673  record.status = DataStatus.Private */\n      0x0100\n      exp\n      dup2\n      sload\n      dup2\n      0xff\n      mul\n      not\n      and\n      swap1\n      dup4\n      0x01\n      dup2\n      gt\n      iszero\n      tag_122\n      jumpi\n      tag_123\n      tag_116\n      jump\t// in\n    tag_123:\n    tag_122:\n      mul\n      or\n      swap1\n      sstore\n      pop\n        /* \"HealthDataAccess.sol\":9744:9750  dataId */\n      dup4\n        /* \"HealthDataAccess.sol\":9720:9730  msg.sender */\n      caller\n        /* \"HealthDataAccess.sol\":9689:9844  DataStatusChanged(... */\n      0xffffffffffffffffffffffffffffffffffffffff\n      and\n      0xd950d63959e5077ffc72c153e9974d7fb3c7b072a0399e683cc9d78f78ec289a\n        /* \"HealthDataAccess.sol\":9764:9773  oldStatus */\n      dup4\n        /* \"HealthDataAccess.sol\":9787:9805  DataStatus.Private */\n      0x00\n        /* \"HealthDataAccess.sol\":9819:9834  block.timestamp */\n      timestamp\n        /* \"HealthDataAccess.sol\":9689:9844  DataStatusChanged(... */\n      mload(0x40)\n      tag_124\n      swap4\n      swap3\n      swap2\n      swap1\n      tag_125\n      jump\t// in\n    tag_124:\n      mload(0x40)\n      dup1\n      swap2\n      sub\n      swap1\n      log3\n        /* \"HealthDataAccess.sol\":9396:9851  {... */\n      pop\n      pop\n        /* \"HealthDataAccess.sol\":9326:9851  function makeDataPrivate(bytes32 dataId) public onlyDataOwner(dataId) {... */\n      pop\n      pop\n      jump\t// out\n        /* \"HealthDataAccess.sol\":5486:6161  function getHealthData(bytes32 dataId)... */\n    tag_30:\n        /* \"HealthDataAccess.sol\":5620:5636  bytes32 dataHash */\n      0x00\n        /* \"HealthDataAccess.sol\":5650:5671  bytes32 encryptedData */\n      0x00\n        /* \"HealthDataAccess.sol\":5685:5702  uint256 timestamp */\n      0x00\n        /* \"HealthDataAccess.sol\":5716:5729  address owner */\n      0x00\n        /* \"HealthDataAccess.sol\":5743:5765  string memory dataType */\n      0x60\n        /* \"HealthDataAccess.sol\":5581:5587  dataId */\n      dup6\n        /* \"HealthDataAccess.sol\":3376:3403  HealthRecord storage record */\n      0x00\n        /* \"HealthDataAccess.sol\":3406:3419  healthRecords */\n      0x00\n        /* \"HealthDataAccess.sol\":3406:3427  healthRecords[dataId] */\n      0x00\n        /* \"HealthDataAccess.sol\":3420:3426  dataId */\n      dup4\n        /* \"HealthDataAccess.sol\":3406:3427  healthRecords[dataId] */\n      dup2\n      mstore\n      0x20\n      add\n      swap1\n      dup2\n      mstore\n      0x20\n      add\n      0x00\n      keccak256\n        /* \"HealthDataAccess.sol\":3376:3427  HealthRecord storage record = healthRecords[dataId] */\n      swap1\n      pop\n        /* \"HealthDataAccess.sol\":3474:3484  msg.sender */\n      caller\n        /* \"HealthDataAccess.sol\":3458:3484  record.owner == msg.sender */\n      0xffffffffffffffffffffffffffffffffffffffff\n      and\n        /* \"HealthDataAccess.sol\":3458:3464  record */\n      dup2\n        /* \"HealthDataAccess.sol\":3458:3470  record.owner */\n      0x03\n      add\n      0x00\n      swap1\n      sload\n      swap1\n      0x0100\n      exp\n      swap1\n      div\n      0xffffffffffffffffffffffffffffffffffffffff\n      and\n        /* \"HealthDataAccess.sol\":3458:3484  record.owner == msg.sender */\n      0xffffffffffffffffffffffffffffffffffffffff\n      and\n      eq\n        /* \"HealthDataAccess.sol\":3458:3555  record.owner == msg.sender ||... */\n      dup1\n      tag_127\n      jumpi\n      pop\n        /* \"HealthDataAccess.sol\":3518:3535  DataStatus.Public */\n      0x01\n        /* \"HealthDataAccess.sol\":3501:3535  record.status == DataStatus.Public */\n      dup1\n      dup2\n      gt\n      iszero\n      tag_128\n      jumpi\n      tag_129\n      tag_116\n      jump\t// in\n    tag_129:\n    tag_128:\n        /* \"HealthDataAccess.sol\":3501:3507  record */\n      dup2\n        /* \"HealthDataAccess.sol\":3501:3514  record.status */\n      0x05\n      add\n      0x00\n      swap1\n      sload\n      swap1\n      0x0100\n      exp\n      swap1\n      div\n      0xff\n      and\n        /* \"HealthDataAccess.sol\":3501:3535  record.status == DataStatus.Public */\n      0x01\n      dup2\n      gt\n      iszero\n      tag_130\n      jumpi\n      tag_131\n      tag_116\n      jump\t// in\n    tag_131:\n    tag_130:\n      eq\n        /* \"HealthDataAccess.sol\":3501:3554  record.status == DataStatus.Public && record.isActive */\n      dup1\n      iszero\n      tag_132\n      jumpi\n      pop\n        /* \"HealthDataAccess.sol\":3539:3545  record */\n      dup1\n        /* \"HealthDataAccess.sol\":3539:3554  record.isActive */\n      0x03\n      add\n      0x14\n      swap1\n      sload\n      swap1\n      0x0100\n      exp\n      swap1\n      div\n      0xff\n      and\n        /* \"HealthDataAccess.sol\":3501:3554  record.status == DataStatus.Public && record.isActive */\n    tag_132:\n        /* \"HealthDataAccess.sol\":3458:3555  record.owner == msg.sender ||... */\n    tag_127:\n        /* \"HealthDataAccess.sol\":3458:3689  record.owner == msg.sender ||... */\n      dup1\n      tag_133\n      jumpi\n      pop\n        /* \"HealthDataAccess.sol\":3572:3583  permissions */\n      0x01\n        /* \"HealthDataAccess.sol\":3572:3595  permissions[msg.sender] */\n      0x00\n        /* \"HealthDataAccess.sol\":3584:3594  msg.sender */\n      caller\n        /* \"HealthDataAccess.sol\":3572:3595  permissions[msg.sender] */\n      0xffffffffffffffffffffffffffffffffffffffff\n      and\n      0xffffffffffffffffffffffffffffffffffffffff\n      and\n      dup2\n      mstore\n      0x20\n      add\n      swap1\n      dup2\n      mstore\n      0x20\n      add\n      0x00\n      keccak256\n        /* \"HealthDataAccess.sol\":3572:3603  permissions[msg.sender][dataId] */\n      0x00\n        /* \"HealthDataAccess.sol\":3596:3602  dataId */\n      dup4\n        /* \"HealthDataAccess.sol\":3572:3603  permissions[msg.sender][dataId] */\n      dup2\n      mstore\n      0x20\n      add\n      swap1\n      dup2\n      mstore\n      0x20\n      add\n      0x00\n      keccak256\n        /* \"HealthDataAccess.sol\":3572:3611  permissions[msg.sender][dataId].canRead */\n      0x04\n      add\n      0x00\n      swap1\n      sload\n      swap1\n      0x0100\n      exp\n      swap1\n      div\n      0xff\n      and\n        /* \"HealthDataAccess.sol\":3572:3688  permissions[msg.sender][dataId].canRead && ... */\n      dup1\n      iszero\n      tag_134\n      jumpi\n      pop\n        /* \"HealthDataAccess.sol\":3647:3658  permissions */\n      0x01\n        /* \"HealthDataAccess.sol\":3647:3670  permissions[msg.sender] */\n      0x00\n        /* \"HealthDataAccess.sol\":3659:3669  msg.sender */\n      caller\n        /* \"HealthDataAccess.sol\":3647:3670  permissions[msg.sender] */\n      0xffffffffffffffffffffffffffffffffffffffff\n      and\n      0xffffffffffffffffffffffffffffffffffffffff\n      and\n      dup2\n      mstore\n      0x20\n      add\n      swap1\n      dup2\n      mstore\n      0x20\n      add\n      0x00\n      keccak256\n        /* \"HealthDataAccess.sol\":3647:3678  permissions[msg.sender][dataId] */\n      0x00\n        /* \"HealthDataAccess.sol\":3671:3677  dataId */\n      dup4\n        /* \"HealthDataAccess.sol\":3647:3678  permissions[msg.sender][dataId] */\n      dup2\n      mstore\n      0x20\n      add\n      swap1\n      dup2\n      mstore\n      0x20\n      add\n      0x00\n      keccak256\n        /* \"HealthDataAccess.sol\":3647:3688  permissions[msg.sender][dataId].expiresAt */\n      0x03\n      add\n      sload\n        /* \"HealthDataAccess.sol\":3629:3644  block.timestamp */\n      timestamp\n        /* \"HealthDataAccess.sol\":3629:3688  block.timestamp < permissions[msg.sender][dataId].expiresAt */\n      lt\n        /* \"HealthDataAccess.sol\":3572:3688  permissions[msg.sender][dataId].canRead && ... */\n    tag_134:\n        /* \"HealthDataAccess.sol\":3458:3689  record.owner == msg.sender ||... */\n    tag_133:\n        /* \"HealthDataAccess.sol\":3437:3733  require(... */\n      tag_135\n      jumpi\n      mload(0x40)\n      0x08c379a000000000000000000000000000000000000000000000000000000000\n      dup2\n      mstore\n      0x04\n      add\n      tag_136\n      swap1\n      tag_137\n      jump\t// in\n    tag_136:\n      mload(0x40)\n      dup1\n      swap2\n      sub\n      swap1\n      revert\n    tag_135:\n        /* \"HealthDataAccess.sol\":5866:5893  HealthRecord storage record */\n      0x00\n        /* \"HealthDataAccess.sol\":5896:5909  healthRecords */\n      0x00\n        /* \"HealthDataAccess.sol\":5896:5917  healthRecords[dataId] */\n      0x00\n        /* \"HealthDataAccess.sol\":5910:5916  dataId */\n      dup11\n        /* \"HealthDataAccess.sol\":5896:5917  healthRecords[dataId] */\n      dup2\n      mstore\n      0x20\n      add\n      swap1\n      dup2\n      mstore\n      0x20\n      add\n      0x00\n      keccak256\n        /* \"HealthDataAccess.sol\":5866:5917  HealthRecord storage record = healthRecords[dataId] */\n      swap1\n      pop\n        /* \"HealthDataAccess.sol\":5935:5941  record */\n      dup1\n        /* \"HealthDataAccess.sol\":5935:5950  record.isActive */\n      0x03\n      add\n      0x14\n      swap1\n      sload\n      swap1\n      0x0100\n      exp\n      swap1\n      div\n      0xff\n      and\n        /* \"HealthDataAccess.sol\":5927:5970  require(record.isActive, \"Data not active\") */\n      tag_139\n      jumpi\n      mload(0x40)\n      0x08c379a000000000000000000000000000000000000000000000000000000000\n      dup2\n      mstore\n      0x04\n      add\n      tag_140\n      swap1\n      tag_113\n      jump\t// in\n    tag_140:\n      mload(0x40)\n      dup1\n      swap2\n      sub\n      swap1\n      revert\n    tag_139:\n        /* \"HealthDataAccess.sol\":6010:6016  record */\n      dup1\n        /* \"HealthDataAccess.sol\":6010:6025  record.dataHash */\n      0x00\n      add\n      sload\n        /* \"HealthDataAccess.sol\":6039:6045  record */\n      dup2\n        /* \"HealthDataAccess.sol\":6039:6059  record.encryptedData */\n      0x01\n      add\n      sload\n        /* \"HealthDataAccess.sol\":6073:6079  record */\n      dup3\n        /* \"HealthDataAccess.sol\":6073:6089  record.timestamp */\n      0x02\n      add\n      sload\n        /* \"HealthDataAccess.sol\":6103:6109  record */\n      dup4\n        /* \"HealthDataAccess.sol\":6103:6115  record.owner */\n      0x03\n      add\n      0x00\n      swap1\n      sload\n      swap1\n      0x0100\n      exp\n      swap1\n      div\n      0xffffffffffffffffffffffffffffffffffffffff\n      and\n        /* \"HealthDataAccess.sol\":6129:6135  record */\n      dup5\n        /* \"HealthDataAccess.sol\":6129:6144  record.dataType */\n      0x04\n      add\n        /* \"HealthDataAccess.sol\":5989:6154  return (... */\n      dup1\n      dup1\n      sload\n      tag_141\n      swap1\n      tag_142\n      jump\t// in\n    tag_141:\n      dup1\n      0x1f\n      add\n      0x20\n      dup1\n      swap2\n      div\n      mul\n      0x20\n      add\n      mload(0x40)\n      swap1\n      dup2\n      add\n      0x40\n      mstore\n      dup1\n      swap3\n      swap2\n      swap1\n      dup2\n      dup2\n      mstore\n      0x20\n      add\n      dup3\n      dup1\n      sload\n      tag_143\n      swap1\n      tag_142\n      jump\t// in\n    tag_143:\n      dup1\n      iszero\n      tag_144\n      jumpi\n      dup1\n      0x1f\n      lt\n      tag_145\n      jumpi\n      0x0100\n      dup1\n      dup4\n      sload\n      div\n      mul\n      dup4\n      mstore\n      swap2\n      0x20\n      add\n      swap2\n      jump(tag_144)\n    tag_145:\n      dup3\n      add\n      swap2\n      swap1\n      0x00\n      mstore\n      keccak256(0x00, 0x20)\n      swap1\n    tag_146:\n      dup2\n      sload\n      dup2\n      mstore\n      swap1\n      0x01\n      add\n      swap1\n      0x20\n      add\n      dup1\n      dup4\n      gt\n      tag_146\n      jumpi\n      dup3\n      swap1\n      sub\n      0x1f\n      and\n      dup3\n      add\n      swap2\n    tag_144:\n      pop\n      pop\n      pop\n      pop\n      pop\n      swap1\n      pop\n      swap8\n      pop\n      swap8\n      pop\n      swap8\n      pop\n      swap8\n      pop\n      swap8\n      pop\n      pop\n        /* \"HealthDataAccess.sol\":3366:3751  {... */\n      pop\n        /* \"HealthDataAccess.sol\":5486:6161  function getHealthData(bytes32 dataId)... */\n      pop\n      swap2\n      swap4\n      swap6\n      swap1\n      swap3\n      swap5\n      pop\n      jump\t// out\n        /* \"HealthDataAccess.sol\":4326:5399  function storeHealthData(... */\n    tag_36:\n        /* \"HealthDataAccess.sol\":4462:4469  bytes32 */\n      0x00\n        /* \"HealthDataAccess.sol\":4589:4603  bytes32 dataId */\n      0x00\n        /* \"HealthDataAccess.sol\":4646:4656  msg.sender */\n      caller\n        /* \"HealthDataAccess.sol\":4670:4678  dataHash */\n      dup6\n        /* \"HealthDataAccess.sol\":4692:4707  block.timestamp */\n      timestamp\n        /* \"HealthDataAccess.sol\":4616:4717  abi.encodePacked(... */\n      add(0x20, mload(0x40))\n      tag_148\n      swap4\n      swap3\n      swap2\n      swap1\n      tag_149\n      jump\t// in\n    tag_148:\n      mload(0x40)\n      0x20\n      dup2\n      dup4\n      sub\n      sub\n      dup2\n      mstore\n      swap1\n      0x40\n      mstore\n        /* \"HealthDataAccess.sol\":4606:4718  keccak256(abi.encodePacked(... */\n      dup1\n      mload\n      swap1\n      0x20\n      add\n      keccak256\n        /* \"HealthDataAccess.sol\":4589:4718  bytes32 dataId = keccak256(abi.encodePacked(... */\n      swap1\n      pop\n        /* \"HealthDataAccess.sol\":4823:4824  0 */\n      0x00\n        /* \"HealthDataAccess.sol\":4784:4825  healthRecords[dataId].owner == address(0) */\n      0xffffffffffffffffffffffffffffffffffffffff\n      and\n        /* \"HealthDataAccess.sol\":4784:4797  healthRecords */\n      0x00\n        /* \"HealthDataAccess.sol\":4784:4805  healthRecords[dataId] */\n      0x00\n        /* \"HealthDataAccess.sol\":4798:4804  dataId */\n      dup4\n        /* \"HealthDataAccess.sol\":4784:4805  healthRecords[dataId] */\n      dup2\n      mstore\n      0x20\n      add\n      swap1\n      dup2\n      mstore\n      0x20\n      add\n      0x00\n      keccak256\n        /* \"HealthDataAccess.sol\":4784:4811  healthRecords[dataId].owner */\n      0x03\n      add\n      0x00\n      swap1\n      sload\n      swap1\n      0x0100\n      exp\n      swap1\n      div\n      0xffffffffffffffffffffffffffffffffffffffff\n      and\n        /* \"HealthDataAccess.sol\":4784:4825  healthRecords[dataId].owner == address(0) */\n      0xffffffffffffffffffffffffffffffffffffffff\n      and\n      eq\n        /* \"HealthDataAccess.sol\":4776:4849  require(healthRecords[dataId].owner == address(0), \"Data already exists\") */\n      tag_150\n      jumpi\n      mload(0x40)\n      0x08c379a000000000000000000000000000000000000000000000000000000000\n      dup2\n      mstore\n      0x04\n      add\n      tag_151\n      swap1\n      tag_152\n      jump\t// in\n    tag_151:\n      mload(0x40)\n      dup1\n      swap2\n      sub\n      swap1\n      revert\n    tag_150:\n        /* \"HealthDataAccess.sol\":4916:5185  HealthRecord({... */\n      mload(0x40)\n      dup1\n      0xe0\n      add\n      0x40\n      mstore\n      dup1\n        /* \"HealthDataAccess.sol\":4953:4961  dataHash */\n      dup7\n        /* \"HealthDataAccess.sol\":4916:5185  HealthRecord({... */\n      dup2\n      mstore\n      0x20\n      add\n        /* \"HealthDataAccess.sol\":4990:5003  encryptedData */\n      dup6\n        /* \"HealthDataAccess.sol\":4916:5185  HealthRecord({... */\n      dup2\n      mstore\n      0x20\n      add\n        /* \"HealthDataAccess.sol\":5028:5043  block.timestamp */\n      timestamp\n        /* \"HealthDataAccess.sol\":4916:5185  HealthRecord({... */\n      dup2\n      mstore\n      0x20\n      add\n        /* \"HealthDataAccess.sol\":5064:5074  msg.sender */\n      caller\n        /* \"HealthDataAccess.sol\":4916:5185  HealthRecord({... */\n      0xffffffffffffffffffffffffffffffffffffffff\n      and\n      dup2\n      mstore\n      0x20\n      add\n        /* \"HealthDataAccess.sol\":5098:5102  true */\n      0x01\n        /* \"HealthDataAccess.sol\":4916:5185  HealthRecord({... */\n      iszero\n      iszero\n      dup2\n      mstore\n      0x20\n      add\n        /* \"HealthDataAccess.sol\":5126:5134  dataType */\n      dup5\n        /* \"HealthDataAccess.sol\":4916:5185  HealthRecord({... */\n      dup2\n      mstore\n      0x20\n      add\n        /* \"HealthDataAccess.sol\":5156:5174  DataStatus.Private */\n      0x00\n        /* \"HealthDataAccess.sol\":4916:5185  HealthRecord({... */\n      0x01\n      dup2\n      gt\n      iszero\n      tag_153\n      jumpi\n      tag_154\n      tag_116\n      jump\t// in\n    tag_154:\n    tag_153:\n      dup2\n      mstore\n      pop\n        /* \"HealthDataAccess.sol\":4892:4905  healthRecords */\n      0x00\n        /* \"HealthDataAccess.sol\":4892:4913  healthRecords[dataId] */\n      0x00\n        /* \"HealthDataAccess.sol\":4906:4912  dataId */\n      dup4\n        /* \"HealthDataAccess.sol\":4892:4913  healthRecords[dataId] */\n      dup2\n      mstore\n      0x20\n      add\n      swap1\n      dup2\n      mstore\n      0x20\n      add\n      0x00\n      keccak256\n        /* \"HealthDataAccess.sol\":4892:5185  healthRecords[dataId] = HealthRecord({... */\n      0x00\n      dup3\n      add\n      mload\n      dup2\n      0x00\n      add\n      sstore\n      0x20\n      dup3\n      add\n      mload\n      dup2\n      0x01\n      add\n      sstore\n      0x40\n      dup3\n      add\n      mload\n      dup2\n      0x02\n      add\n      sstore\n      0x60\n      dup3\n      add\n      mload\n      dup2\n      0x03\n      add\n      exp(0x0100, 0x00)\n      dup2\n      sload\n      dup2\n      0xffffffffffffffffffffffffffffffffffffffff\n      mul\n      not\n      and\n      swap1\n      dup4\n      0xffffffffffffffffffffffffffffffffffffffff\n      and\n      mul\n      or\n      swap1\n      sstore\n      pop\n      0x80\n      dup3\n      add\n      mload\n      dup2\n      0x03\n      add\n      exp(0x0100, 0x14)\n      dup2\n      sload\n      dup2\n      0xff\n      mul\n      not\n      and\n      swap1\n      dup4\n      iszero\n      iszero\n      mul\n      or\n      swap1\n      sstore\n      pop\n      0xa0\n      dup3\n      add\n      mload\n      dup2\n      0x04\n      add\n      swap1\n      dup2\n      tag_155\n      swap2\n      swap1\n      tag_156\n      jump\t// in\n    tag_155:\n      pop\n      0xc0\n      dup3\n      add\n      mload\n      dup2\n      0x05\n      add\n      exp(0x0100, 0x00)\n      dup2\n      sload\n      dup2\n      0xff\n      mul\n      not\n      and\n      swap1\n      dup4\n      0x01\n      dup2\n      gt\n      iszero\n      tag_157\n      jumpi\n      tag_158\n      tag_116\n      jump\t// in\n    tag_158:\n    tag_157:\n      mul\n      or\n      swap1\n      sstore\n      pop\n      swap1\n      pop\n      pop\n        /* \"HealthDataAccess.sol\":5243:5254  userRecords */\n      0x02\n        /* \"HealthDataAccess.sol\":5243:5266  userRecords[msg.sender] */\n      0x00\n        /* \"HealthDataAccess.sol\":5255:5265  msg.sender */\n      caller\n        /* \"HealthDataAccess.sol\":5243:5266  userRecords[msg.sender] */\n      0xffffffffffffffffffffffffffffffffffffffff\n      and\n      0xffffffffffffffffffffffffffffffffffffffff\n      and\n      dup2\n      mstore\n      0x20\n      add\n      swap1\n      dup2\n      mstore\n      0x20\n      add\n      0x00\n      keccak256\n        /* \"HealthDataAccess.sol\":5272:5278  dataId */\n      dup2\n        /* \"HealthDataAccess.sol\":5243:5279  userRecords[msg.sender].push(dataId) */\n      swap1\n      dup1\n      0x01\n      dup2\n      sload\n      add\n      dup1\n      dup3\n      sstore\n      dup1\n      swap2\n      pop\n      pop\n      0x01\n      swap1\n      sub\n      swap1\n      0x00\n      mstore\n      keccak256(0x00, 0x20)\n      add\n      0x00\n      swap1\n      swap2\n      swap1\n      swap2\n      swap1\n      swap2\n      pop\n      sstore\n        /* \"HealthDataAccess.sol\":5326:5332  dataId */\n      dup1\n        /* \"HealthDataAccess.sol\":5314:5324  msg.sender */\n      caller\n        /* \"HealthDataAccess.sol\":5303:5360  DataStored(msg.sender, dataId, dataType, block.timestamp) */\n      0xffffffffffffffffffffffffffffffffffffffff\n      and\n      0x0e814d30ec22a2f2c39021b7a479700a1d9456c6b6baacbe6d8129b3106c669a\n        /* \"HealthDataAccess.sol\":5334:5342  dataType */\n      dup6\n        /* \"HealthDataAccess.sol\":5344:5359  block.timestamp */\n      timestamp\n        /* \"HealthDataAccess.sol\":5303:5360  DataStored(msg.sender, dataId, dataType, block.timestamp) */\n      mload(0x40)\n      tag_160\n      swap3\n      swap2\n      swap1\n      tag_161\n      jump\t// in\n    tag_160:\n      mload(0x40)\n      dup1\n      swap2\n      sub\n      swap1\n      log3\n        /* \"HealthDataAccess.sol\":5386:5392  dataId */\n      dup1\n        /* \"HealthDataAccess.sol\":5379:5392  return dataId */\n      swap2\n      pop\n      pop\n        /* \"HealthDataAccess.sol\":4326:5399  function storeHealthData(... */\n      swap4\n      swap3\n      pop\n      pop\n      pop\n      jump\t// out\n        /* \"HealthDataAccess.sol\":11861:12094  function getDataStatus(bytes32 dataId) public view returns (DataStatus) {... */\n    tag_41:\n        /* \"HealthDataAccess.sol\":11921:11931  DataStatus */\n      0x00\n        /* \"HealthDataAccess.sol\":11943:11970  HealthRecord storage record */\n      0x00\n        /* \"HealthDataAccess.sol\":11973:11986  healthRecords */\n      0x00\n        /* \"HealthDataAccess.sol\":11973:11994  healthRecords[dataId] */\n      0x00\n        /* \"HealthDataAccess.sol\":11987:11993  dataId */\n      dup5\n        /* \"HealthDataAccess.sol\":11973:11994  healthRecords[dataId] */\n      dup2\n      mstore\n      0x20\n      add\n      swap1\n      dup2\n      mstore\n      0x20\n      add\n      0x00\n      keccak256\n        /* \"HealthDataAccess.sol\":11943:11994  HealthRecord storage record = healthRecords[dataId] */\n      swap1\n      pop\n        /* \"HealthDataAccess.sol\":12036:12037  0 */\n      0x00\n        /* \"HealthDataAccess.sol\":12012:12038  record.owner != address(0) */\n      0xffffffffffffffffffffffffffffffffffffffff\n      and\n        /* \"HealthDataAccess.sol\":12012:12018  record */\n      dup2\n        /* \"HealthDataAccess.sol\":12012:12024  record.owner */\n      0x03\n      add\n      0x00\n      swap1\n      sload\n      swap1\n      0x0100\n      exp\n      swap1\n      div\n      0xffffffffffffffffffffffffffffffffffffffff\n      and\n        /* \"HealthDataAccess.sol\":12012:12038  record.owner != address(0) */\n      0xffffffffffffffffffffffffffffffffffffffff\n      and\n      sub\n        /* \"HealthDataAccess.sol\":12004:12057  require(record.owner != address(0), \"Data not found\") */\n      tag_163\n      jumpi\n      mload(0x40)\n      0x08c379a000000000000000000000000000000000000000000000000000000000\n      dup2\n      mstore\n      0x04\n      add\n      tag_164\n      swap1\n      tag_165\n      jump\t// in\n    tag_164:\n      mload(0x40)\n      dup1\n      swap2\n      sub\n      swap1\n      revert\n    tag_163:\n        /* \"HealthDataAccess.sol\":12074:12080  record */\n      dup1\n        /* \"HealthDataAccess.sol\":12074:12087  record.status */\n      0x05\n      add\n      0x00\n      swap1\n      sload\n      swap1\n      0x0100\n      exp\n      swap1\n      div\n      0xff\n      and\n        /* \"HealthDataAccess.sol\":12067:12087  return record.status */\n      swap2\n      pop\n      pop\n        /* \"HealthDataAccess.sol\":11861:12094  function getDataStatus(bytes32 dataId) public view returns (DataStatus) {... */\n      swap2\n      swap1\n      pop\n      jump\t// out\n        /* \"HealthDataAccess.sol\":2067:2142  mapping(address => mapping(bytes32 => AccessPermission)) public permissions */\n    tag_47:\n      mstore(0x20, 0x01)\n      dup2\n      0x00\n      mstore\n      mstore(0x20, keccak256(0x00, 0x40))\n      dup1\n      0x00\n      mstore\n      keccak256(0x00, 0x40)\n      0x00\n      swap2\n      pop\n      swap2\n      pop\n      pop\n      dup1\n      0x00\n      add\n      0x00\n      swap1\n      sload\n      swap1\n      0x0100\n      exp\n      swap1\n      div\n      0xffffffffffffffffffffffffffffffffffffffff\n      and\n      swap1\n      dup1\n      0x01\n      add\n      sload\n      swap1\n      dup1\n      0x02\n      add\n      sload\n      swap1\n      dup1\n      0x03\n      add\n      sload\n      swap1\n      dup1\n      0x04\n      add\n      0x00\n      swap1\n      sload\n      swap1\n      0x0100\n      exp\n      swap1\n      div\n      0xff\n      and\n      swap1\n      dup1\n      0x04\n      add\n      0x01\n      swap1\n      sload\n      swap1\n      0x0100\n      exp\n      swap1\n      div\n      0xff\n      and\n      swap1\n      dup1\n      0x04\n      add\n      0x02\n      swap1\n      sload\n      swap1\n      0x0100\n      exp\n      swap1\n      div\n      0xffffffffffffffffffffffffffffffffffffffff\n      and\n      swap1\n      pop\n      dup8\n      jump\t// out\n        /* \"HealthDataAccess.sol\":10158:10276  function getUserDataCount(address user) public view returns (uint256) {... */\n    tag_53:\n        /* \"HealthDataAccess.sol\":10219:10226  uint256 */\n      0x00\n        /* \"HealthDataAccess.sol\":10245:10256  userRecords */\n      0x02\n        /* \"HealthDataAccess.sol\":10245:10262  userRecords[user] */\n      0x00\n        /* \"HealthDataAccess.sol\":10257:10261  user */\n      dup4\n        /* \"HealthDataAccess.sol\":10245:10262  userRecords[user] */\n      0xffffffffffffffffffffffffffffffffffffffff\n      and\n      0xffffffffffffffffffffffffffffffffffffffff\n      and\n      dup2\n      mstore\n      0x20\n      add\n      swap1\n      dup2\n      mstore\n      0x20\n      add\n      0x00\n      keccak256\n        /* \"HealthDataAccess.sol\":10245:10269  userRecords[user].length */\n      dup1\n      sload\n      swap1\n      pop\n        /* \"HealthDataAccess.sol\":10238:10269  return userRecords[user].length */\n      swap1\n      pop\n        /* \"HealthDataAccess.sol\":10158:10276  function getUserDataCount(address user) public view returns (uint256) {... */\n      swap2\n      swap1\n      pop\n      jump\t// out\n        /* \"HealthDataAccess.sol\":9951:10069  function getUserDataIds(address user) public view returns (bytes32[] memory) {... */\n    tag_58:\n        /* \"HealthDataAccess.sol\":10010:10026  bytes32[] memory */\n      0x60\n        /* \"HealthDataAccess.sol\":10045:10056  userRecords */\n      0x02\n        /* \"HealthDataAccess.sol\":10045:10062  userRecords[user] */\n      0x00\n        /* \"HealthDataAccess.sol\":10057:10061  user */\n      dup4\n        /* \"HealthDataAccess.sol\":10045:10062  userRecords[user] */\n      0xffffffffffffffffffffffffffffffffffffffff\n      and\n      0xffffffffffffffffffffffffffffffffffffffff\n      and\n      dup2\n      mstore\n      0x20\n      add\n      swap1\n      dup2\n      mstore\n      0x20\n      add\n      0x00\n      keccak256\n        /* \"HealthDataAccess.sol\":10038:10062  return userRecords[user] */\n      dup1\n      sload\n      dup1\n      0x20\n      mul\n      0x20\n      add\n      mload(0x40)\n      swap1\n      dup2\n      add\n      0x40\n      mstore\n      dup1\n      swap3\n      swap2\n      swap1\n      dup2\n      dup2\n      mstore\n      0x20\n      add\n      dup3\n      dup1\n      sload\n      dup1\n      iszero\n      tag_168\n      jumpi\n      0x20\n      mul\n      dup3\n      add\n      swap2\n      swap1\n      0x00\n      mstore\n      keccak256(0x00, 0x20)\n      swap1\n    tag_169:\n      dup2\n      sload\n      dup2\n      mstore\n      0x20\n      add\n      swap1\n      0x01\n      add\n      swap1\n      dup1\n      dup4\n      gt\n      tag_169\n      jumpi\n    tag_168:\n      pop\n      pop\n      pop\n      pop\n      pop\n      swap1\n      pop\n        /* \"HealthDataAccess.sol\":9951:10069  function getUserDataIds(address user) public view returns (bytes32[] memory) {... */\n      swap2\n      swap1\n      pop\n      jump\t// out\n        /* \"HealthDataAccess.sol\":8295:8590  function revokeAccess(address requester, bytes32 dataId) ... */\n    tag_63:\n        /* \"HealthDataAccess.sol\":8391:8397  dataId */\n      dup1\n        /* \"HealthDataAccess.sol\":3195:3205  msg.sender */\n      caller\n        /* \"HealthDataAccess.sol\":3164:3205  healthRecords[dataId].owner == msg.sender */\n      0xffffffffffffffffffffffffffffffffffffffff\n      and\n        /* \"HealthDataAccess.sol\":3164:3177  healthRecords */\n      0x00\n        /* \"HealthDataAccess.sol\":3164:3185  healthRecords[dataId] */\n      0x00\n        /* \"HealthDataAccess.sol\":3178:3184  dataId */\n      dup4\n        /* \"HealthDataAccess.sol\":3164:3185  healthRecords[dataId] */\n      dup2\n      mstore\n      0x20\n      add\n      swap1\n      dup2\n      mstore\n      0x20\n      add\n      0x00\n      keccak256\n        /* \"HealthDataAccess.sol\":3164:3191  healthRecords[dataId].owner */\n      0x03\n      add\n      0x00\n      swap1\n      sload\n      swap1\n      0x0100\n      exp\n      swap1\n      div\n      0xffffffffffffffffffffffffffffffffffffffff\n      and\n        /* \"HealthDataAccess.sol\":3164:3205  healthRecords[dataId].owner == msg.sender */\n      0xffffffffffffffffffffffffffffffffffffffff\n      and\n      eq\n        /* \"HealthDataAccess.sol\":3156:3224  require(healthRecords[dataId].owner == msg.sender, \"Not data owner\") */\n      tag_171\n      jumpi\n      mload(0x40)\n      0x08c379a000000000000000000000000000000000000000000000000000000000\n      dup2\n      mstore\n      0x04\n      add\n      tag_172\n      swap1\n      tag_109\n      jump\t// in\n    tag_172:\n      mload(0x40)\n      dup1\n      swap2\n      sub\n      swap1\n      revert\n    tag_171:\n        /* \"HealthDataAccess.sol\":8494:8505  permissions */\n      0x01\n        /* \"HealthDataAccess.sol\":8494:8516  permissions[requester] */\n      0x00\n        /* \"HealthDataAccess.sol\":8506:8515  requester */\n      dup5\n        /* \"HealthDataAccess.sol\":8494:8516  permissions[requester] */\n      0xffffffffffffffffffffffffffffffffffffffff\n      and\n      0xffffffffffffffffffffffffffffffffffffffff\n      and\n      dup2\n      mstore\n      0x20\n      add\n      swap1\n      dup2\n      mstore\n      0x20\n      add\n      0x00\n      keccak256\n        /* \"HealthDataAccess.sol\":8494:8524  permissions[requester][dataId] */\n      0x00\n        /* \"HealthDataAccess.sol\":8517:8523  dataId */\n      dup4\n        /* \"HealthDataAccess.sol\":8494:8524  permissions[requester][dataId] */\n      dup2\n      mstore\n      0x20\n      add\n      swap1\n      dup2\n      mstore\n      0x20\n      add\n      0x00\n      keccak256\n      0x00\n        /* \"HealthDataAccess.sol\":8487:8524  delete permissions[requester][dataId] */\n      0x00\n      dup3\n      add\n      exp(0x0100, 0x00)\n      dup2\n      sload\n      swap1\n      0xffffffffffffffffffffffffffffffffffffffff\n      mul\n      not\n      and\n      swap1\n      sstore\n      0x01\n      dup3\n      add\n      0x00\n      swap1\n      sstore\n      0x02\n      dup3\n      add\n      0x00\n      swap1\n      sstore\n      0x03\n      dup3\n      add\n      0x00\n      swap1\n      sstore\n      0x04\n      dup3\n      add\n      exp(0x0100, 0x00)\n      dup2\n      sload\n      swap1\n      0xff\n      mul\n      not\n      and\n      swap1\n      sstore\n      0x04\n      dup3\n      add\n      exp(0x0100, 0x01)\n      dup2\n      sload\n      swap1\n      0xff\n      mul\n      not\n      and\n      swap1\n      sstore\n      0x04\n      dup3\n      add\n      exp(0x0100, 0x02)\n      dup2\n      sload\n      swap1\n      0xffffffffffffffffffffffffffffffffffffffff\n      mul\n      not\n      and\n      swap1\n      sstore\n      pop\n      pop\n        /* \"HealthDataAccess.sol\":8576:8582  dataId */\n      dup2\n        /* \"HealthDataAccess.sol\":8565:8574  requester */\n      dup4\n        /* \"HealthDataAccess.sol\":8539:8583  AccessRevoked(msg.sender, requester, dataId) */\n      0xffffffffffffffffffffffffffffffffffffffff\n      and\n        /* \"HealthDataAccess.sol\":8553:8563  msg.sender */\n      caller\n        /* \"HealthDataAccess.sol\":8539:8583  AccessRevoked(msg.sender, requester, dataId) */\n      0xffffffffffffffffffffffffffffffffffffffff\n      and\n      0xb28e9e14a2fbae903397ac018a71f930ae415bcaf8fd57a5c4ea212e4de9daa2\n      mload(0x40)\n      mload(0x40)\n      dup1\n      swap2\n      sub\n      swap1\n      log4\n        /* \"HealthDataAccess.sol\":8295:8590  function revokeAccess(address requester, bytes32 dataId) ... */\n      pop\n      pop\n      pop\n      jump\t// out\n        /* \"HealthDataAccess.sol\":11209:11747  function checkAccess(address requester, bytes32 dataId) public view returns (bool) {... */\n    tag_66:\n        /* \"HealthDataAccess.sol\":11286:11290  bool */\n      0x00\n        /* \"HealthDataAccess.sol\":11302:11329  HealthRecord storage record */\n      0x00\n        /* \"HealthDataAccess.sol\":11332:11345  healthRecords */\n      0x00\n        /* \"HealthDataAccess.sol\":11332:11353  healthRecords[dataId] */\n      0x00\n        /* \"HealthDataAccess.sol\":11346:11352  dataId */\n      dup5\n        /* \"HealthDataAccess.sol\":11332:11353  healthRecords[dataId] */\n      dup2\n      mstore\n      0x20\n      add\n      swap1\n      dup2\n      mstore\n      0x20\n      add\n      0x00\n      keccak256\n        /* \"HealthDataAccess.sol\":11302:11353  HealthRecord storage record = healthRecords[dataId] */\n      swap1\n      pop\n        /* \"HealthDataAccess.sol\":11368:11374  record */\n      dup1\n        /* \"HealthDataAccess.sol\":11368:11383  record.isActive */\n      0x03\n      add\n      0x14\n      swap1\n      sload\n      swap1\n      0x0100\n      exp\n      swap1\n      div\n      0xff\n      and\n        /* \"HealthDataAccess.sol\":11363:11422  if (!record.isActive) {... */\n      tag_175\n      jumpi\n        /* \"HealthDataAccess.sol\":11406:11411  false */\n      0x00\n        /* \"HealthDataAccess.sol\":11399:11411  return false */\n      swap2\n      pop\n      pop\n      jump(tag_174)\n        /* \"HealthDataAccess.sol\":11363:11422  if (!record.isActive) {... */\n    tag_175:\n        /* \"HealthDataAccess.sol\":11452:11461  requester */\n      dup4\n        /* \"HealthDataAccess.sol\":11436:11461  record.owner == requester */\n      0xffffffffffffffffffffffffffffffffffffffff\n      and\n        /* \"HealthDataAccess.sol\":11436:11442  record */\n      dup2\n        /* \"HealthDataAccess.sol\":11436:11448  record.owner */\n      0x03\n      add\n      0x00\n      swap1\n      sload\n      swap1\n      0x0100\n      exp\n      swap1\n      div\n      0xffffffffffffffffffffffffffffffffffffffff\n      and\n        /* \"HealthDataAccess.sol\":11436:11461  record.owner == requester */\n      0xffffffffffffffffffffffffffffffffffffffff\n      and\n      sub\n        /* \"HealthDataAccess.sol\":11432:11499  if (record.owner == requester) {... */\n      tag_176\n      jumpi\n        /* \"HealthDataAccess.sol\":11484:11488  true */\n      0x01\n        /* \"HealthDataAccess.sol\":11477:11488  return true */\n      swap2\n      pop\n      pop\n      jump(tag_174)\n        /* \"HealthDataAccess.sol\":11432:11499  if (record.owner == requester) {... */\n    tag_176:\n        /* \"HealthDataAccess.sol\":11530:11547  DataStatus.Public */\n      0x01\n        /* \"HealthDataAccess.sol\":11513:11547  record.status == DataStatus.Public */\n      dup1\n      dup2\n      gt\n      iszero\n      tag_177\n      jumpi\n      tag_178\n      tag_116\n      jump\t// in\n    tag_178:\n    tag_177:\n        /* \"HealthDataAccess.sol\":11513:11519  record */\n      dup2\n        /* \"HealthDataAccess.sol\":11513:11526  record.status */\n      0x05\n      add\n      0x00\n      swap1\n      sload\n      swap1\n      0x0100\n      exp\n      swap1\n      div\n      0xff\n      and\n        /* \"HealthDataAccess.sol\":11513:11547  record.status == DataStatus.Public */\n      0x01\n      dup2\n      gt\n      iszero\n      tag_179\n      jumpi\n      tag_180\n      tag_116\n      jump\t// in\n    tag_180:\n    tag_179:\n      sub\n        /* \"HealthDataAccess.sol\":11509:11585  if (record.status == DataStatus.Public) {... */\n      tag_181\n      jumpi\n        /* \"HealthDataAccess.sol\":11570:11574  true */\n      0x01\n        /* \"HealthDataAccess.sol\":11563:11574  return true */\n      swap2\n      pop\n      pop\n      jump(tag_174)\n        /* \"HealthDataAccess.sol\":11509:11585  if (record.status == DataStatus.Public) {... */\n    tag_181:\n        /* \"HealthDataAccess.sol\":11595:11630  AccessPermission storage permission */\n      0x00\n        /* \"HealthDataAccess.sol\":11633:11644  permissions */\n      0x01\n        /* \"HealthDataAccess.sol\":11633:11655  permissions[requester] */\n      0x00\n        /* \"HealthDataAccess.sol\":11645:11654  requester */\n      dup7\n        /* \"HealthDataAccess.sol\":11633:11655  permissions[requester] */\n      0xffffffffffffffffffffffffffffffffffffffff\n      and\n      0xffffffffffffffffffffffffffffffffffffffff\n      and\n      dup2\n      mstore\n      0x20\n      add\n      swap1\n      dup2\n      mstore\n      0x20\n      add\n      0x00\n      keccak256\n        /* \"HealthDataAccess.sol\":11633:11663  permissions[requester][dataId] */\n      0x00\n        /* \"HealthDataAccess.sol\":11656:11662  dataId */\n      dup6\n        /* \"HealthDataAccess.sol\":11633:11663  permissions[requester][dataId] */\n      dup2\n      mstore\n      0x20\n      add\n      swap1\n      dup2\n      mstore\n      0x20\n      add\n      0x00\n      keccak256\n        /* \"HealthDataAccess.sol\":11595:11663  AccessPermission storage permission = permissions[requester][dataId] */\n      swap1\n      pop\n        /* \"HealthDataAccess.sol\":11680:11690  permission */\n      dup1\n        /* \"HealthDataAccess.sol\":11680:11698  permission.canRead */\n      0x04\n      add\n      0x00\n      swap1\n      sload\n      swap1\n      0x0100\n      exp\n      swap1\n      div\n      0xff\n      and\n        /* \"HealthDataAccess.sol\":11680:11740  permission.canRead && block.timestamp < permission.expiresAt */\n      dup1\n      iszero\n      tag_182\n      jumpi\n      pop\n        /* \"HealthDataAccess.sol\":11720:11730  permission */\n      dup1\n        /* \"HealthDataAccess.sol\":11720:11740  permission.expiresAt */\n      0x03\n      add\n      sload\n        /* \"HealthDataAccess.sol\":11702:11717  block.timestamp */\n      timestamp\n        /* \"HealthDataAccess.sol\":11702:11740  block.timestamp < permission.expiresAt */\n      lt\n        /* \"HealthDataAccess.sol\":11680:11740  permission.canRead && block.timestamp < permission.expiresAt */\n    tag_182:\n        /* \"HealthDataAccess.sol\":11673:11740  return permission.canRead && block.timestamp < permission.expiresAt */\n      swap3\n      pop\n      pop\n      pop\n        /* \"HealthDataAccess.sol\":11209:11747  function checkAccess(address requester, bytes32 dataId) public view returns (bool) {... */\n    tag_174:\n      swap3\n      swap2\n      pop\n      pop\n      jump\t// out\n        /* \"HealthDataAccess.sol\":13566:13771  function getContractInfo() public pure returns (... */\n    tag_70:\n        /* \"HealthDataAccess.sol\":13623:13643  uint256 totalRecords */\n      0x00\n        /* \"HealthDataAccess.sol\":13653:13674  uint256 activeRecords */\n      0x00\n        /* \"HealthDataAccess.sol\":13759:13760  0 */\n      0x00\n        /* \"HealthDataAccess.sol\":13762:13763  0 */\n      0x00\n        /* \"HealthDataAccess.sol\":13751:13764  return (0, 0) */\n      swap2\n      pop\n      swap2\n      pop\n        /* \"HealthDataAccess.sol\":13566:13771  function getContractInfo() public pure returns (... */\n      swap1\n      swap2\n      jump\t// out\n        /* \"HealthDataAccess.sol\":12193:12871  function deleteData(bytes32 dataId) public onlyDataOwner(dataId) {... */\n    tag_75:\n        /* \"HealthDataAccess.sol\":12250:12256  dataId */\n      dup1\n        /* \"HealthDataAccess.sol\":3195:3205  msg.sender */\n      caller\n        /* \"HealthDataAccess.sol\":3164:3205  healthRecords[dataId].owner == msg.sender */\n      0xffffffffffffffffffffffffffffffffffffffff\n      and\n        /* \"HealthDataAccess.sol\":3164:3177  healthRecords */\n      0x00\n        /* \"HealthDataAccess.sol\":3164:3185  healthRecords[dataId] */\n      0x00\n        /* \"HealthDataAccess.sol\":3178:3184  dataId */\n      dup4\n        /* \"HealthDataAccess.sol\":3164:3185  healthRecords[dataId] */\n      dup2\n      mstore\n      0x20\n      add\n      swap1\n      dup2\n      mstore\n      0x20\n      add\n      0x00\n      keccak256\n        /* \"HealthDataAccess.sol\":3164:3191  healthRecords[dataId].owner */\n      0x03\n      add\n      0x00\n      swap1\n      sload\n      swap1\n      0x0100\n      exp\n      swap1\n      div\n      0xffffffffffffffffffffffffffffffffffffffff\n      and\n        /* \"HealthDataAccess.sol\":3164:3205  healthRecords[dataId].owner == msg.sender */\n      0xffffffffffffffffffffffffffffffffffffffff\n      and\n      eq\n        /* \"HealthDataAccess.sol\":3156:3224  require(healthRecords[dataId].owner == msg.sender, \"Not data owner\") */\n      tag_185\n      jumpi\n      mload(0x40)\n      0x08c379a000000000000000000000000000000000000000000000000000000000\n      dup2\n      mstore\n      0x04\n      add\n      tag_186\n      swap1\n      tag_109\n      jump\t// in\n    tag_186:\n      mload(0x40)\n      dup1\n      swap2\n      sub\n      swap1\n      revert\n    tag_185:\n        /* \"HealthDataAccess.sol\":12362:12389  HealthRecord storage record */\n      0x00\n        /* \"HealthDataAccess.sol\":12392:12405  healthRecords */\n      0x00\n        /* \"HealthDataAccess.sol\":12392:12413  healthRecords[dataId] */\n      0x00\n        /* \"HealthDataAccess.sol\":12406:12412  dataId */\n      dup5\n        /* \"HealthDataAccess.sol\":12392:12413  healthRecords[dataId] */\n      dup2\n      mstore\n      0x20\n      add\n      swap1\n      dup2\n      mstore\n      0x20\n      add\n      0x00\n      keccak256\n        /* \"HealthDataAccess.sol\":12362:12413  HealthRecord storage record = healthRecords[dataId] */\n      swap1\n      pop\n        /* \"HealthDataAccess.sol\":12431:12437  record */\n      dup1\n        /* \"HealthDataAccess.sol\":12431:12446  record.isActive */\n      0x03\n      add\n      0x14\n      swap1\n      sload\n      swap1\n      0x0100\n      exp\n      swap1\n      div\n      0xff\n      and\n        /* \"HealthDataAccess.sol\":12423:12472  require(record.isActive, \"Data already inactive\") */\n      tag_188\n      jumpi\n      mload(0x40)\n      0x08c379a000000000000000000000000000000000000000000000000000000000\n      dup2\n      mstore\n      0x04\n      add\n      tag_189\n      swap1\n      tag_190\n      jump\t// in\n    tag_189:\n      mload(0x40)\n      dup1\n      swap2\n      sub\n      swap1\n      revert\n    tag_188:\n        /* \"HealthDataAccess.sol\":12509:12514  false */\n      0x00\n        /* \"HealthDataAccess.sol\":12491:12497  record */\n      dup2\n        /* \"HealthDataAccess.sol\":12491:12506  record.isActive */\n      0x03\n      add\n      0x14\n        /* \"HealthDataAccess.sol\":12491:12514  record.isActive = false */\n      0x0100\n      exp\n      dup2\n      sload\n      dup2\n      0xff\n      mul\n      not\n      and\n      swap1\n      dup4\n      iszero\n      iszero\n      mul\n      or\n      swap1\n      sstore\n      pop\n        /* \"HealthDataAccess.sol\":12575:12601  bytes32[] storage dataList */\n      0x00\n        /* \"HealthDataAccess.sol\":12604:12615  userRecords */\n      0x02\n        /* \"HealthDataAccess.sol\":12604:12627  userRecords[msg.sender] */\n      0x00\n        /* \"HealthDataAccess.sol\":12616:12626  msg.sender */\n      caller\n        /* \"HealthDataAccess.sol\":12604:12627  userRecords[msg.sender] */\n      0xffffffffffffffffffffffffffffffffffffffff\n      and\n      0xffffffffffffffffffffffffffffffffffffffff\n      and\n      dup2\n      mstore\n      0x20\n      add\n      swap1\n      dup2\n      mstore\n      0x20\n      add\n      0x00\n      keccak256\n        /* \"HealthDataAccess.sol\":12575:12627  bytes32[] storage dataList = userRecords[msg.sender] */\n      swap1\n      pop\n        /* \"HealthDataAccess.sol\":12642:12651  uint256 i */\n      0x00\n        /* \"HealthDataAccess.sol\":12654:12655  0 */\n      0x00\n        /* \"HealthDataAccess.sol\":12642:12655  uint256 i = 0 */\n      swap1\n      pop\n        /* \"HealthDataAccess.sol\":12637:12865  for (uint256 i = 0; i < dataList.length; i++) {... */\n    tag_191:\n        /* \"HealthDataAccess.sol\":12661:12669  dataList */\n      dup2\n        /* \"HealthDataAccess.sol\":12661:12676  dataList.length */\n      dup1\n      sload\n      swap1\n      pop\n        /* \"HealthDataAccess.sol\":12657:12658  i */\n      dup2\n        /* \"HealthDataAccess.sol\":12657:12676  i < dataList.length */\n      lt\n        /* \"HealthDataAccess.sol\":12637:12865  for (uint256 i = 0; i < dataList.length; i++) {... */\n      iszero\n      tag_192\n      jumpi\n        /* \"HealthDataAccess.sol\":12716:12722  dataId */\n      dup5\n        /* \"HealthDataAccess.sol\":12701:12709  dataList */\n      dup3\n        /* \"HealthDataAccess.sol\":12710:12711  i */\n      dup3\n        /* \"HealthDataAccess.sol\":12701:12712  dataList[i] */\n      dup2\n      sload\n      dup2\n      lt\n      tag_194\n      jumpi\n      tag_195\n      tag_196\n      jump\t// in\n    tag_195:\n    tag_194:\n      swap1\n      0x00\n      mstore\n      keccak256(0x00, 0x20)\n      add\n      sload\n        /* \"HealthDataAccess.sol\":12701:12722  dataList[i] == dataId */\n      sub\n        /* \"HealthDataAccess.sol\":12697:12855  if (dataList[i] == dataId) {... */\n      tag_198\n      jumpi\n        /* \"HealthDataAccess.sol\":12756:12764  dataList */\n      dup2\n        /* \"HealthDataAccess.sol\":12783:12784  1 */\n      0x01\n        /* \"HealthDataAccess.sol\":12765:12773  dataList */\n      dup4\n        /* \"HealthDataAccess.sol\":12765:12780  dataList.length */\n      dup1\n      sload\n      swap1\n      pop\n        /* \"HealthDataAccess.sol\":12765:12784  dataList.length - 1 */\n      tag_199\n      swap2\n      swap1\n      tag_200\n      jump\t// in\n    tag_199:\n        /* \"HealthDataAccess.sol\":12756:12785  dataList[dataList.length - 1] */\n      dup2\n      sload\n      dup2\n      lt\n      tag_201\n      jumpi\n      tag_202\n      tag_196\n      jump\t// in\n    tag_202:\n    tag_201:\n      swap1\n      0x00\n      mstore\n      keccak256(0x00, 0x20)\n      add\n      sload\n        /* \"HealthDataAccess.sol\":12742:12750  dataList */\n      dup3\n        /* \"HealthDataAccess.sol\":12751:12752  i */\n      dup3\n        /* \"HealthDataAccess.sol\":12742:12753  dataList[i] */\n      dup2\n      sload\n      dup2\n      lt\n      tag_204\n      jumpi\n      tag_205\n      tag_196\n      jump\t// in\n    tag_205:\n    tag_204:\n      swap1\n      0x00\n      mstore\n      keccak256(0x00, 0x20)\n      add\n        /* \"HealthDataAccess.sol\":12742:12785  dataList[i] = dataList[dataList.length - 1] */\n      dup2\n      swap1\n      sstore\n      pop\n        /* \"HealthDataAccess.sol\":12803:12811  dataList */\n      dup2\n        /* \"HealthDataAccess.sol\":12803:12817  dataList.pop() */\n      dup1\n      sload\n      dup1\n      tag_207\n      jumpi\n      tag_208\n      tag_209\n      jump\t// in\n    tag_208:\n    tag_207:\n      0x01\n      swap1\n      sub\n      dup2\n      dup2\n      swap1\n      0x00\n      mstore\n      keccak256(0x00, 0x20)\n      add\n      0x00\n      swap1\n      sstore\n      swap1\n      sstore\n        /* \"HealthDataAccess.sol\":12835:12840  break */\n      jump(tag_192)\n        /* \"HealthDataAccess.sol\":12697:12855  if (dataList[i] == dataId) {... */\n    tag_198:\n        /* \"HealthDataAccess.sol\":12678:12681  i++ */\n      dup1\n      dup1\n      0x01\n      add\n      swap2\n      pop\n      pop\n        /* \"HealthDataAccess.sol\":12637:12865  for (uint256 i = 0; i < dataList.length; i++) {... */\n      jump(tag_191)\n    tag_192:\n      pop\n        /* \"HealthDataAccess.sol\":12258:12871  {... */\n      pop\n      pop\n        /* \"HealthDataAccess.sol\":12193:12871  function deleteData(bytes32 dataId) public onlyDataOwner(dataId) {... */\n      pop\n      pop\n      jump\t// out\n        /* \"HealthDataAccess.sol\":7144:8168  function grantAccess(... */\n    tag_79:\n        /* \"HealthDataAccess.sol\":7314:7320  dataId */\n      dup4\n        /* \"HealthDataAccess.sol\":3195:3205  msg.sender */\n      caller\n        /* \"HealthDataAccess.sol\":3164:3205  healthRecords[dataId].owner == msg.sender */\n      0xffffffffffffffffffffffffffffffffffffffff\n      and\n        /* \"HealthDataAccess.sol\":3164:3177  healthRecords */\n      0x00\n        /* \"HealthDataAccess.sol\":3164:3185  healthRecords[dataId] */\n      0x00\n        /* \"HealthDataAccess.sol\":3178:3184  dataId */\n      dup4\n        /* \"HealthDataAccess.sol\":3164:3185  healthRecords[dataId] */\n      dup2\n      mstore\n      0x20\n      add\n      swap1\n      dup2\n      mstore\n      0x20\n      add\n      0x00\n      keccak256\n        /* \"HealthDataAccess.sol\":3164:3191  healthRecords[dataId].owner */\n      0x03\n      add\n      0x00\n      swap1\n      sload\n      swap1\n      0x0100\n      exp\n      swap1\n      div\n      0xffffffffffffffffffffffffffffffffffffffff\n      and\n        /* \"HealthDataAccess.sol\":3164:3205  healthRecords[dataId].owner == msg.sender */\n      0xffffffffffffffffffffffffffffffffffffffff\n      and\n      eq\n        /* \"HealthDataAccess.sol\":3156:3224  require(healthRecords[dataId].owner == msg.sender, \"Not data owner\") */\n      tag_212\n      jumpi\n      mload(0x40)\n      0x08c379a000000000000000000000000000000000000000000000000000000000\n      dup2\n      mstore\n      0x04\n      add\n      tag_213\n      swap1\n      tag_109\n      jump\t// in\n    tag_213:\n      mload(0x40)\n      dup1\n      swap2\n      sub\n      swap1\n      revert\n    tag_212:\n        /* \"HealthDataAccess.sol\":7332:7359  HealthRecord storage record */\n      0x00\n        /* \"HealthDataAccess.sol\":7362:7375  healthRecords */\n      0x00\n        /* \"HealthDataAccess.sol\":7362:7383  healthRecords[dataId] */\n      0x00\n        /* \"HealthDataAccess.sol\":7376:7382  dataId */\n      dup8\n        /* \"HealthDataAccess.sol\":7362:7383  healthRecords[dataId] */\n      dup2\n      mstore\n      0x20\n      add\n      swap1\n      dup2\n      mstore\n      0x20\n      add\n      0x00\n      keccak256\n        /* \"HealthDataAccess.sol\":7332:7383  HealthRecord storage record = healthRecords[dataId] */\n      swap1\n      pop\n        /* \"HealthDataAccess.sol\":7489:7490  0 */\n      0x00\n        /* \"HealthDataAccess.sol\":7468:7491  requester != address(0) */\n      0xffffffffffffffffffffffffffffffffffffffff\n      and\n        /* \"HealthDataAccess.sol\":7468:7477  requester */\n      dup8\n        /* \"HealthDataAccess.sol\":7468:7491  requester != address(0) */\n      0xffffffffffffffffffffffffffffffffffffffff\n      and\n      sub\n        /* \"HealthDataAccess.sol\":7460:7513  require(requester != address(0), \"Invalid requester\") */\n      tag_215\n      jumpi\n      mload(0x40)\n      0x08c379a000000000000000000000000000000000000000000000000000000000\n      dup2\n      mstore\n      0x04\n      add\n      tag_216\n      swap1\n      tag_217\n      jump\t// in\n    tag_216:\n      mload(0x40)\n      dup1\n      swap2\n      sub\n      swap1\n      revert\n    tag_215:\n        /* \"HealthDataAccess.sol\":7542:7543  0 */\n      0x00\n        /* \"HealthDataAccess.sol\":7531:7539  duration */\n      dup4\n        /* \"HealthDataAccess.sol\":7531:7543  duration > 0 */\n      gt\n        /* \"HealthDataAccess.sol\":7523:7564  require(duration > 0, \"Invalid duration\") */\n      tag_218\n      jumpi\n      mload(0x40)\n      0x08c379a000000000000000000000000000000000000000000000000000000000\n      dup2\n      mstore\n      0x04\n      add\n      tag_219\n      swap1\n      tag_220\n      jump\t// in\n    tag_219:\n      mload(0x40)\n      dup1\n      swap2\n      sub\n      swap1\n      revert\n    tag_218:\n        /* \"HealthDataAccess.sol\":7582:7588  record */\n      dup1\n        /* \"HealthDataAccess.sol\":7582:7597  record.isActive */\n      0x03\n      add\n      0x14\n      swap1\n      sload\n      swap1\n      0x0100\n      exp\n      swap1\n      div\n      0xff\n      and\n        /* \"HealthDataAccess.sol\":7574:7617  require(record.isActive, \"Data not active\") */\n      tag_221\n      jumpi\n      mload(0x40)\n      0x08c379a000000000000000000000000000000000000000000000000000000000\n      dup2\n      mstore\n      0x04\n      add\n      tag_222\n      swap1\n      tag_113\n      jump\t// in\n    tag_222:\n      mload(0x40)\n      dup1\n      swap2\n      sub\n      swap1\n      revert\n    tag_221:\n        /* \"HealthDataAccess.sol\":7652:7670  DataStatus.Private */\n      0x00\n        /* \"HealthDataAccess.sol\":7635:7670  record.status == DataStatus.Private */\n      0x01\n      dup2\n      gt\n      iszero\n      tag_223\n      jumpi\n      tag_224\n      tag_116\n      jump\t// in\n    tag_224:\n    tag_223:\n        /* \"HealthDataAccess.sol\":7635:7641  record */\n      dup2\n        /* \"HealthDataAccess.sol\":7635:7648  record.status */\n      0x05\n      add\n      0x00\n      swap1\n      sload\n      swap1\n      0x0100\n      exp\n      swap1\n      div\n      0xff\n      and\n        /* \"HealthDataAccess.sol\":7635:7670  record.status == DataStatus.Private */\n      0x01\n      dup2\n      gt\n      iszero\n      tag_225\n      jumpi\n      tag_226\n      tag_116\n      jump\t// in\n    tag_226:\n    tag_225:\n      eq\n        /* \"HealthDataAccess.sol\":7627:7706  require(record.status == DataStatus.Private, \"Public data does not need grant\") */\n      tag_227\n      jumpi\n      mload(0x40)\n      0x08c379a000000000000000000000000000000000000000000000000000000000\n      dup2\n      mstore\n      0x04\n      add\n      tag_228\n      swap1\n      tag_229\n      jump\t// in\n    tag_228:\n      mload(0x40)\n      dup1\n      swap2\n      sub\n      swap1\n      revert\n    tag_227:\n        /* \"HealthDataAccess.sol\":7725:7742  uint256 expiresAt */\n      0x00\n        /* \"HealthDataAccess.sol\":7763:7771  duration */\n      dup4\n        /* \"HealthDataAccess.sol\":7745:7760  block.timestamp */\n      timestamp\n        /* \"HealthDataAccess.sol\":7745:7771  block.timestamp + duration */\n      tag_230\n      swap2\n      swap1\n      tag_231\n      jump\t// in\n    tag_230:\n        /* \"HealthDataAccess.sol\":7725:7771  uint256 expiresAt = block.timestamp + duration */\n      swap1\n      pop\n        /* \"HealthDataAccess.sol\":7823:8082  AccessPermission({... */\n      mload(0x40)\n      dup1\n      0xe0\n      add\n      0x40\n      mstore\n      dup1\n        /* \"HealthDataAccess.sol\":7865:7874  requester */\n      dup10\n        /* \"HealthDataAccess.sol\":7823:8082  AccessPermission({... */\n      0xffffffffffffffffffffffffffffffffffffffff\n      and\n      dup2\n      mstore\n      0x20\n      add\n        /* \"HealthDataAccess.sol\":7896:7902  dataId */\n      dup9\n        /* \"HealthDataAccess.sol\":7823:8082  AccessPermission({... */\n      dup2\n      mstore\n      0x20\n      add\n        /* \"HealthDataAccess.sol\":7927:7942  block.timestamp */\n      timestamp\n        /* \"HealthDataAccess.sol\":7823:8082  AccessPermission({... */\n      dup2\n      mstore\n      0x20\n      add\n        /* \"HealthDataAccess.sol\":7967:7976  expiresAt */\n      dup3\n        /* \"HealthDataAccess.sol\":7823:8082  AccessPermission({... */\n      dup2\n      mstore\n      0x20\n      add\n        /* \"HealthDataAccess.sol\":7999:8006  canRead */\n      dup8\n        /* \"HealthDataAccess.sol\":7823:8082  AccessPermission({... */\n      iszero\n      iszero\n      dup2\n      mstore\n      0x20\n      add\n        /* \"HealthDataAccess.sol\":8030:8038  canWrite */\n      dup7\n        /* \"HealthDataAccess.sol\":7823:8082  AccessPermission({... */\n      iszero\n      iszero\n      dup2\n      mstore\n      0x20\n      add\n        /* \"HealthDataAccess.sol\":8061:8071  msg.sender */\n      caller\n        /* \"HealthDataAccess.sol\":7823:8082  AccessPermission({... */\n      0xffffffffffffffffffffffffffffffffffffffff\n      and\n      dup2\n      mstore\n      pop\n        /* \"HealthDataAccess.sol\":7790:7801  permissions */\n      0x01\n        /* \"HealthDataAccess.sol\":7790:7812  permissions[requester] */\n      0x00\n        /* \"HealthDataAccess.sol\":7802:7811  requester */\n      dup11\n        /* \"HealthDataAccess.sol\":7790:7812  permissions[requester] */\n      0xffffffffffffffffffffffffffffffffffffffff\n      and\n      0xffffffffffffffffffffffffffffffffffffffff\n      and\n      dup2\n      mstore\n      0x20\n      add\n      swap1\n      dup2\n      mstore\n      0x20\n      add\n      0x00\n      keccak256\n        /* \"HealthDataAccess.sol\":7790:7820  permissions[requester][dataId] */\n      0x00\n        /* \"HealthDataAccess.sol\":7813:7819  dataId */\n      dup10\n        /* \"HealthDataAccess.sol\":7790:7820  permissions[requester][dataId] */\n      dup2\n      mstore\n      0x20\n      add\n      swap1\n      dup2\n      mstore\n      0x20\n      add\n      0x00\n      keccak256\n        /* \"HealthDataAccess.sol\":7790:8082  permissions[requester][dataId] = AccessPermission({... */\n      0x00\n      dup3\n      add\n      mload\n      dup2\n      0x00\n      add\n      exp(0x0100, 0x00)\n      dup2\n      sload\n      dup2\n      0xffffffffffffffffffffffffffffffffffffffff\n      mul\n      not\n      and\n      swap1\n      dup4\n      0xffffffffffffffffffffffffffffffffffffffff\n      and\n      mul\n      or\n      swap1\n      sstore\n      pop\n      0x20\n      dup3\n      add\n      mload\n      dup2\n      0x01\n      add\n      sstore\n      0x40\n      dup3\n      add\n      mload\n      dup2\n      0x02\n      add\n      sstore\n      0x60\n      dup3\n      add\n      mload\n      dup2\n      0x03\n      add\n      sstore\n      0x80\n      dup3\n      add\n      mload\n      dup2\n      0x04\n      add\n      exp(0x0100, 0x00)\n      dup2\n      sload\n      dup2\n      0xff\n      mul\n      not\n      and\n      swap1\n      dup4\n      iszero\n      iszero\n      mul\n      or\n      swap1\n      sstore\n      pop\n      0xa0\n      dup3\n      add\n      mload\n      dup2\n      0x04\n      add\n      exp(0x0100, 0x01)\n      dup2\n      sload\n      dup2\n      0xff\n      mul\n      not\n      and\n      swap1\n      dup4\n      iszero\n      iszero\n      mul\n      or\n      swap1\n      sstore\n      pop\n      0xc0\n      dup3\n      add\n      mload\n      dup2\n      0x04\n      add\n      exp(0x0100, 0x02)\n      dup2\n      sload\n      dup2\n      0xffffffffffffffffffffffffffffffffffffffff\n      mul\n      not\n      and\n      swap1\n      dup4\n      0xffffffffffffffffffffffffffffffffffffffff\n      and\n      mul\n      or\n      swap1\n      sstore\n      pop\n      swap1\n      pop\n      pop\n        /* \"HealthDataAccess.sol\":8143:8149  dataId */\n      dup7\n        /* \"HealthDataAccess.sol\":8132:8141  requester */\n      dup9\n        /* \"HealthDataAccess.sol\":8106:8161  AccessGranted(msg.sender, requester, dataId, expiresAt) */\n      0xffffffffffffffffffffffffffffffffffffffff\n      and\n        /* \"HealthDataAccess.sol\":8120:8130  msg.sender */\n      caller\n        /* \"HealthDataAccess.sol\":8106:8161  AccessGranted(msg.sender, requester, dataId, expiresAt) */\n      0xffffffffffffffffffffffffffffffffffffffff\n      and\n      0x34d1ac3ec20b10ecfbb0bf62b7538be273454c43dd4090afd9882b6b32d10142\n        /* \"HealthDataAccess.sol\":8151:8160  expiresAt */\n      dup5\n        /* \"HealthDataAccess.sol\":8106:8161  AccessGranted(msg.sender, requester, dataId, expiresAt) */\n      mload(0x40)\n      tag_232\n      swap2\n      swap1\n      tag_55\n      jump\t// in\n    tag_232:\n      mload(0x40)\n      dup1\n      swap2\n      sub\n      swap1\n      log4\n        /* \"HealthDataAccess.sol\":7322:8168  {... */\n      pop\n      pop\n        /* \"HealthDataAccess.sol\":7144:8168  function grantAccess(... */\n      pop\n      pop\n      pop\n      pop\n      pop\n      pop\n      jump\t// out\n        /* \"HealthDataAccess.sol\":8694:9216  function makeDataPublic(bytes32 dataId) public onlyDataOwner(dataId) {... */\n    tag_82:\n        /* \"HealthDataAccess.sol\":8755:8761  dataId */\n      dup1\n        /* \"HealthDataAccess.sol\":3195:3205  msg.sender */\n      caller\n        /* \"HealthDataAccess.sol\":3164:3205  healthRecords[dataId].owner == msg.sender */\n      0xffffffffffffffffffffffffffffffffffffffff\n      and\n        /* \"HealthDataAccess.sol\":3164:3177  healthRecords */\n      0x00\n        /* \"HealthDataAccess.sol\":3164:3185  healthRecords[dataId] */\n      0x00\n        /* \"HealthDataAccess.sol\":3178:3184  dataId */\n      dup4\n        /* \"HealthDataAccess.sol\":3164:3185  healthRecords[dataId] */\n      dup2\n      mstore\n      0x20\n      add\n      swap1\n      dup2\n      mstore\n      0x20\n      add\n      0x00\n      keccak256\n        /* \"HealthDataAccess.sol\":3164:3191  healthRecords[dataId].owner */\n      0x03\n      add\n      0x00\n      swap1\n      sload\n      swap1\n      0x0100\n      exp\n      swap1\n      div\n      0xffffffffffffffffffffffffffffffffffffffff\n      and\n        /* \"HealthDataAccess.sol\":3164:3205  healthRecords[dataId].owner == msg.sender */\n      0xffffffffffffffffffffffffffffffffffffffff\n      and\n      eq\n        /* \"HealthDataAccess.sol\":3156:3224  require(healthRecords[dataId].owner == msg.sender, \"Not data owner\") */\n      tag_234\n      jumpi\n      mload(0x40)\n      0x08c379a000000000000000000000000000000000000000000000000000000000\n      dup2\n      mstore\n      0x04\n      add\n      tag_235\n      swap1\n      tag_109\n      jump\t// in\n    tag_235:\n      mload(0x40)\n      dup1\n      swap2\n      sub\n      swap1\n      revert\n    tag_234:\n        /* \"HealthDataAccess.sol\":8773:8800  HealthRecord storage record */\n      0x00\n        /* \"HealthDataAccess.sol\":8803:8816  healthRecords */\n      0x00\n        /* \"HealthDataAccess.sol\":8803:8824  healthRecords[dataId] */\n      0x00\n        /* \"HealthDataAccess.sol\":8817:8823  dataId */\n      dup5\n        /* \"HealthDataAccess.sol\":8803:8824  healthRecords[dataId] */\n      dup2\n      mstore\n      0x20\n      add\n      swap1\n      dup2\n      mstore\n      0x20\n      add\n      0x00\n      keccak256\n        /* \"HealthDataAccess.sol\":8773:8824  HealthRecord storage record = healthRecords[dataId] */\n      swap1\n      pop\n        /* \"HealthDataAccess.sol\":8842:8848  record */\n      dup1\n        /* \"HealthDataAccess.sol\":8842:8857  record.isActive */\n      0x03\n      add\n      0x14\n      swap1\n      sload\n      swap1\n      0x0100\n      exp\n      swap1\n      div\n      0xff\n      and\n        /* \"HealthDataAccess.sol\":8834:8877  require(record.isActive, \"Data not active\") */\n      tag_237\n      jumpi\n      mload(0x40)\n      0x08c379a000000000000000000000000000000000000000000000000000000000\n      dup2\n      mstore\n      0x04\n      add\n      tag_238\n      swap1\n      tag_113\n      jump\t// in\n    tag_238:\n      mload(0x40)\n      dup1\n      swap2\n      sub\n      swap1\n      revert\n    tag_237:\n        /* \"HealthDataAccess.sol\":8912:8930  DataStatus.Private */\n      0x00\n        /* \"HealthDataAccess.sol\":8895:8930  record.status == DataStatus.Private */\n      0x01\n      dup2\n      gt\n      iszero\n      tag_239\n      jumpi\n      tag_240\n      tag_116\n      jump\t// in\n    tag_240:\n    tag_239:\n        /* \"HealthDataAccess.sol\":8895:8901  record */\n      dup2\n        /* \"HealthDataAccess.sol\":8895:8908  record.status */\n      0x05\n      add\n      0x00\n      swap1\n      sload\n      swap1\n      0x0100\n      exp\n      swap1\n      div\n      0xff\n      and\n        /* \"HealthDataAccess.sol\":8895:8930  record.status == DataStatus.Private */\n      0x01\n      dup2\n      gt\n      iszero\n      tag_241\n      jumpi\n      tag_242\n      tag_116\n      jump\t// in\n    tag_242:\n    tag_241:\n      eq\n        /* \"HealthDataAccess.sol\":8887:8949  require(record.status == DataStatus.Private, \"Already public\") */\n      tag_243\n      jumpi\n      mload(0x40)\n      0x08c379a000000000000000000000000000000000000000000000000000000000\n      dup2\n      mstore\n      0x04\n      add\n      tag_244\n      swap1\n      tag_245\n      jump\t// in\n    tag_244:\n      mload(0x40)\n      dup1\n      swap2\n      sub\n      swap1\n      revert\n    tag_243:\n        /* \"HealthDataAccess.sol\":8960:8980  DataStatus oldStatus */\n      0x00\n        /* \"HealthDataAccess.sol\":8983:8989  record */\n      dup2\n        /* \"HealthDataAccess.sol\":8983:8996  record.status */\n      0x05\n      add\n      0x00\n      swap1\n      sload\n      swap1\n      0x0100\n      exp\n      swap1\n      div\n      0xff\n      and\n        /* \"HealthDataAccess.sol\":8960:8996  DataStatus oldStatus = record.status */\n      swap1\n      pop\n        /* \"HealthDataAccess.sol\":9022:9039  DataStatus.Public */\n      0x01\n        /* \"HealthDataAccess.sol\":9006:9012  record */\n      dup3\n        /* \"HealthDataAccess.sol\":9006:9019  record.status */\n      0x05\n      add\n      0x00\n        /* \"HealthDataAccess.sol\":9006:9039  record.status = DataStatus.Public */\n      0x0100\n      exp\n      dup2\n      sload\n      dup2\n      0xff\n      mul\n      not\n      and\n      swap1\n      dup4\n      0x01\n      dup2\n      gt\n      iszero\n      tag_246\n      jumpi\n      tag_247\n      tag_116\n      jump\t// in\n    tag_247:\n    tag_246:\n      mul\n      or\n      swap1\n      sstore\n      pop\n        /* \"HealthDataAccess.sol\":9110:9116  dataId */\n      dup4\n        /* \"HealthDataAccess.sol\":9086:9096  msg.sender */\n      caller\n        /* \"HealthDataAccess.sol\":9055:9209  DataStatusChanged(... */\n      0xffffffffffffffffffffffffffffffffffffffff\n      and\n      0xd950d63959e5077ffc72c153e9974d7fb3c7b072a0399e683cc9d78f78ec289a\n        /* \"HealthDataAccess.sol\":9130:9139  oldStatus */\n      dup4\n        /* \"HealthDataAccess.sol\":9153:9170  DataStatus.Public */\n      0x01\n        /* \"HealthDataAccess.sol\":9184:9199  block.timestamp */\n      timestamp\n        /* \"HealthDataAccess.sol\":9055:9209  DataStatusChanged(... */\n      mload(0x40)\n      tag_248\n      swap4\n      swap3\n      swap2\n      swap1\n      tag_125\n      jump\t// in\n    tag_248:\n      mload(0x40)\n      dup1\n      swap2\n      sub\n      swap1\n      log3\n        /* \"HealthDataAccess.sol\":8763:9216  {... */\n      pop\n      pop\n        /* \"HealthDataAccess.sol\":8694:9216  function makeDataPublic(bytes32 dataId) public onlyDataOwner(dataId) {... */\n      pop\n      pop\n      jump\t// out\n        /* \"HealthDataAccess.sol\":10403:11038  function checkPermission(address requester, bytes32 dataId) ... */\n    tag_85:\n        /* \"HealthDataAccess.sol\":10524:10542  bool hasPermission */\n      0x00\n        /* \"HealthDataAccess.sol\":10556:10568  bool canRead */\n      0x00\n        /* \"HealthDataAccess.sol\":10582:10595  bool canWrite */\n      0x00\n        /* \"HealthDataAccess.sol\":10609:10626  uint256 expiresAt */\n      0x00\n        /* \"HealthDataAccess.sol\":10652:10687  AccessPermission storage permission */\n      0x00\n        /* \"HealthDataAccess.sol\":10690:10701  permissions */\n      0x01\n        /* \"HealthDataAccess.sol\":10690:10712  permissions[requester] */\n      0x00\n        /* \"HealthDataAccess.sol\":10702:10711  requester */\n      dup9\n        /* \"HealthDataAccess.sol\":10690:10712  permissions[requester] */\n      0xffffffffffffffffffffffffffffffffffffffff\n      and\n      0xffffffffffffffffffffffffffffffffffffffff\n      and\n      dup2\n      mstore\n      0x20\n      add\n      swap1\n      dup2\n      mstore\n      0x20\n      add\n      0x00\n      keccak256\n        /* \"HealthDataAccess.sol\":10690:10720  permissions[requester][dataId] */\n      0x00\n        /* \"HealthDataAccess.sol\":10713:10719  dataId */\n      dup8\n        /* \"HealthDataAccess.sol\":10690:10720  permissions[requester][dataId] */\n      dup2\n      mstore\n      0x20\n      add\n      swap1\n      dup2\n      mstore\n      0x20\n      add\n      0x00\n      keccak256\n        /* \"HealthDataAccess.sol\":10652:10720  AccessPermission storage permission = permissions[requester][dataId] */\n      swap1\n      pop\n        /* \"HealthDataAccess.sol\":10801:10811  permission */\n      dup1\n        /* \"HealthDataAccess.sol\":10801:10821  permission.expiresAt */\n      0x03\n      add\n      sload\n        /* \"HealthDataAccess.sol\":10782:10797  block.timestamp */\n      timestamp\n        /* \"HealthDataAccess.sol\":10782:10821  block.timestamp >= permission.expiresAt */\n      lt\n        /* \"HealthDataAccess.sol\":10778:10879  if (block.timestamp >= permission.expiresAt) {... */\n      tag_250\n      jumpi\n        /* \"HealthDataAccess.sol\":10845:10850  false */\n      0x00\n        /* \"HealthDataAccess.sol\":10852:10857  false */\n      0x00\n        /* \"HealthDataAccess.sol\":10859:10864  false */\n      0x00\n        /* \"HealthDataAccess.sol\":10866:10867  0 */\n      0x00\n        /* \"HealthDataAccess.sol\":10837:10868  return (false, false, false, 0) */\n      swap5\n      pop\n      swap5\n      pop\n      swap5\n      pop\n      swap5\n      pop\n      pop\n      jump(tag_249)\n        /* \"HealthDataAccess.sol\":10778:10879  if (block.timestamp >= permission.expiresAt) {... */\n    tag_250:\n        /* \"HealthDataAccess.sol\":10918:10922  true */\n      0x01\n        /* \"HealthDataAccess.sol\":10936:10946  permission */\n      dup2\n        /* \"HealthDataAccess.sol\":10936:10954  permission.canRead */\n      0x04\n      add\n      0x00\n      swap1\n      sload\n      swap1\n      0x0100\n      exp\n      swap1\n      div\n      0xff\n      and\n        /* \"HealthDataAccess.sol\":10968:10978  permission */\n      dup3\n        /* \"HealthDataAccess.sol\":10968:10987  permission.canWrite */\n      0x04\n      add\n      0x01\n      swap1\n      sload\n      swap1\n      0x0100\n      exp\n      swap1\n      div\n      0xff\n      and\n        /* \"HealthDataAccess.sol\":11001:11011  permission */\n      dup4\n        /* \"HealthDataAccess.sol\":11001:11021  permission.expiresAt */\n      0x03\n      add\n      sload\n        /* \"HealthDataAccess.sol\":10897:11031  return (... */\n      swap5\n      pop\n      swap5\n      pop\n      swap5\n      pop\n      swap5\n      pop\n      pop\n        /* \"HealthDataAccess.sol\":10403:11038  function checkPermission(address requester, bytes32 dataId) ... */\n    tag_249:\n      swap3\n      swap6\n      swap2\n      swap5\n      pop\n      swap3\n      pop\n      jump\t// out\n        /* \"HealthDataAccess.sol\":6343:6901  function updateHealthData(... */\n    tag_91:\n        /* \"HealthDataAccess.sol\":6488:6494  dataId */\n      dup3\n        /* \"HealthDataAccess.sol\":3938:3948  msg.sender */\n      caller\n        /* \"HealthDataAccess.sol\":3907:3948  healthRecords[dataId].owner == msg.sender */\n      0xffffffffffffffffffffffffffffffffffffffff\n      and\n        /* \"HealthDataAccess.sol\":3907:3920  healthRecords */\n      0x00\n        /* \"HealthDataAccess.sol\":3907:3928  healthRecords[dataId] */\n      0x00\n        /* \"HealthDataAccess.sol\":3921:3927  dataId */\n      dup4\n        /* \"HealthDataAccess.sol\":3907:3928  healthRecords[dataId] */\n      dup2\n      mstore\n      0x20\n      add\n      swap1\n      dup2\n      mstore\n      0x20\n      add\n      0x00\n      keccak256\n        /* \"HealthDataAccess.sol\":3907:3934  healthRecords[dataId].owner */\n      0x03\n      add\n      0x00\n      swap1\n      sload\n      swap1\n      0x0100\n      exp\n      swap1\n      div\n      0xffffffffffffffffffffffffffffffffffffffff\n      and\n        /* \"HealthDataAccess.sol\":3907:3948  healthRecords[dataId].owner == msg.sender */\n      0xffffffffffffffffffffffffffffffffffffffff\n      and\n      eq\n        /* \"HealthDataAccess.sol\":3907:4084  healthRecords[dataId].owner == msg.sender || ... */\n      dup1\n      tag_252\n      jumpi\n      pop\n        /* \"HealthDataAccess.sol\":3966:3977  permissions */\n      0x01\n        /* \"HealthDataAccess.sol\":3966:3989  permissions[msg.sender] */\n      0x00\n        /* \"HealthDataAccess.sol\":3978:3988  msg.sender */\n      caller\n        /* \"HealthDataAccess.sol\":3966:3989  permissions[msg.sender] */\n      0xffffffffffffffffffffffffffffffffffffffff\n      and\n      0xffffffffffffffffffffffffffffffffffffffff\n      and\n      dup2\n      mstore\n      0x20\n      add\n      swap1\n      dup2\n      mstore\n      0x20\n      add\n      0x00\n      keccak256\n        /* \"HealthDataAccess.sol\":3966:3997  permissions[msg.sender][dataId] */\n      0x00\n        /* \"HealthDataAccess.sol\":3990:3996  dataId */\n      dup3\n        /* \"HealthDataAccess.sol\":3966:3997  permissions[msg.sender][dataId] */\n      dup2\n      mstore\n      0x20\n      add\n      swap1\n      dup2\n      mstore\n      0x20\n      add\n      0x00\n      keccak256\n        /* \"HealthDataAccess.sol\":3966:4006  permissions[msg.sender][dataId].canWrite */\n      0x04\n      add\n      0x01\n      swap1\n      sload\n      swap1\n      0x0100\n      exp\n      swap1\n      div\n      0xff\n      and\n        /* \"HealthDataAccess.sol\":3966:4083  permissions[msg.sender][dataId].canWrite && ... */\n      dup1\n      iszero\n      tag_253\n      jumpi\n      pop\n        /* \"HealthDataAccess.sol\":4042:4053  permissions */\n      0x01\n        /* \"HealthDataAccess.sol\":4042:4065  permissions[msg.sender] */\n      0x00\n        /* \"HealthDataAccess.sol\":4054:4064  msg.sender */\n      caller\n        /* \"HealthDataAccess.sol\":4042:4065  permissions[msg.sender] */\n      0xffffffffffffffffffffffffffffffffffffffff\n      and\n      0xffffffffffffffffffffffffffffffffffffffff\n      and\n      dup2\n      mstore\n      0x20\n      add\n      swap1\n      dup2\n      mstore\n      0x20\n      add\n      0x00\n      keccak256\n        /* \"HealthDataAccess.sol\":4042:4073  permissions[msg.sender][dataId] */\n      0x00\n        /* \"HealthDataAccess.sol\":4066:4072  dataId */\n      dup3\n        /* \"HealthDataAccess.sol\":4042:4073  permissions[msg.sender][dataId] */\n      dup2\n      mstore\n      0x20\n      add\n      swap1\n      dup2\n      mstore\n      0x20\n      add\n      0x00\n      keccak256\n        /* \"HealthDataAccess.sol\":4042:4083  permissions[msg.sender][dataId].expiresAt */\n      0x03\n      add\n      sload\n        /* \"HealthDataAccess.sol\":4024:4039  block.timestamp */\n      timestamp\n        /* \"HealthDataAccess.sol\":4024:4083  block.timestamp < permissions[msg.sender][dataId].expiresAt */\n      lt\n        /* \"HealthDataAccess.sol\":3966:4083  permissions[msg.sender][dataId].canWrite && ... */\n    tag_253:\n        /* \"HealthDataAccess.sol\":3907:4084  healthRecords[dataId].owner == msg.sender || ... */\n    tag_252:\n        /* \"HealthDataAccess.sol\":3886:4129  require(... */\n      tag_254\n      jumpi\n      mload(0x40)\n      0x08c379a000000000000000000000000000000000000000000000000000000000\n      dup2\n      mstore\n      0x04\n      add\n      tag_255\n      swap1\n      tag_256\n      jump\t// in\n    tag_255:\n      mload(0x40)\n      dup1\n      swap2\n      sub\n      swap1\n      revert\n    tag_254:\n        /* \"HealthDataAccess.sol\":6575:6602  HealthRecord storage record */\n      0x00\n        /* \"HealthDataAccess.sol\":6605:6618  healthRecords */\n      0x00\n        /* \"HealthDataAccess.sol\":6605:6626  healthRecords[dataId] */\n      0x00\n        /* \"HealthDataAccess.sol\":6619:6625  dataId */\n      dup7\n        /* \"HealthDataAccess.sol\":6605:6626  healthRecords[dataId] */\n      dup2\n      mstore\n      0x20\n      add\n      swap1\n      dup2\n      mstore\n      0x20\n      add\n      0x00\n      keccak256\n        /* \"HealthDataAccess.sol\":6575:6626  HealthRecord storage record = healthRecords[dataId] */\n      swap1\n      pop\n        /* \"HealthDataAccess.sol\":6644:6650  record */\n      dup1\n        /* \"HealthDataAccess.sol\":6644:6659  record.isActive */\n      0x03\n      add\n      0x14\n      swap1\n      sload\n      swap1\n      0x0100\n      exp\n      swap1\n      div\n      0xff\n      and\n        /* \"HealthDataAccess.sol\":6636:6679  require(record.isActive, \"Data not active\") */\n      tag_258\n      jumpi\n      mload(0x40)\n      0x08c379a000000000000000000000000000000000000000000000000000000000\n      dup2\n      mstore\n      0x04\n      add\n      tag_259\n      swap1\n      tag_113\n      jump\t// in\n    tag_259:\n      mload(0x40)\n      dup1\n      swap2\n      sub\n      swap1\n      revert\n    tag_258:\n        /* \"HealthDataAccess.sol\":6716:6727  newDataHash */\n      dup4\n        /* \"HealthDataAccess.sol\":6698:6704  record */\n      dup2\n        /* \"HealthDataAccess.sol\":6698:6713  record.dataHash */\n      0x00\n      add\n        /* \"HealthDataAccess.sol\":6698:6727  record.dataHash = newDataHash */\n      dup2\n      swap1\n      sstore\n      pop\n        /* \"HealthDataAccess.sol\":6760:6776  newEncryptedData */\n      dup3\n        /* \"HealthDataAccess.sol\":6737:6743  record */\n      dup2\n        /* \"HealthDataAccess.sol\":6737:6757  record.encryptedData */\n      0x01\n      add\n        /* \"HealthDataAccess.sol\":6737:6776  record.encryptedData = newEncryptedData */\n      dup2\n      swap1\n      sstore\n      pop\n        /* \"HealthDataAccess.sol\":6805:6820  block.timestamp */\n      timestamp\n        /* \"HealthDataAccess.sol\":6786:6792  record */\n      dup2\n        /* \"HealthDataAccess.sol\":6786:6802  record.timestamp */\n      0x02\n      add\n        /* \"HealthDataAccess.sol\":6786:6820  record.timestamp = block.timestamp */\n      dup2\n      swap1\n      sstore\n      pop\n        /* \"HealthDataAccess.sol\":6870:6876  dataId */\n      dup5\n        /* \"HealthDataAccess.sol\":6856:6862  record */\n      dup2\n        /* \"HealthDataAccess.sol\":6856:6868  record.owner */\n      0x03\n      add\n      0x00\n      swap1\n      sload\n      swap1\n      0x0100\n      exp\n      swap1\n      div\n      0xffffffffffffffffffffffffffffffffffffffff\n      and\n        /* \"HealthDataAccess.sol\":6844:6894  DataUpdated(record.owner, dataId, block.timestamp) */\n      0xffffffffffffffffffffffffffffffffffffffff\n      and\n      0x13f7afaee69a997e8042a73df952599e66eec6f76faa8fe9ed83d73a77279127\n        /* \"HealthDataAccess.sol\":6878:6893  block.timestamp */\n      timestamp\n        /* \"HealthDataAccess.sol\":6844:6894  DataUpdated(record.owner, dataId, block.timestamp) */\n      mload(0x40)\n      tag_260\n      swap2\n      swap1\n      tag_55\n      jump\t// in\n    tag_260:\n      mload(0x40)\n      dup1\n      swap2\n      sub\n      swap1\n      log3\n        /* \"HealthDataAccess.sol\":6496:6901  {... */\n      pop\n        /* \"HealthDataAccess.sol\":6343:6901  function updateHealthData(... */\n      pop\n      pop\n      pop\n      pop\n      jump\t// out\n        /* \"HealthDataAccess.sol\":13106:13509  function batchGrantAccess(... */\n    tag_95:\n        /* \"HealthDataAccess.sol\":13292:13301  uint256 i */\n      0x00\n        /* \"HealthDataAccess.sol\":13304:13305  0 */\n      0x00\n        /* \"HealthDataAccess.sol\":13292:13305  uint256 i = 0 */\n      swap1\n      pop\n        /* \"HealthDataAccess.sol\":13287:13503  for (uint256 i = 0; i < dataIds.length; i++) {... */\n    tag_262:\n        /* \"HealthDataAccess.sol\":13311:13318  dataIds */\n      dup5\n        /* \"HealthDataAccess.sol\":13311:13325  dataIds.length */\n      mload\n        /* \"HealthDataAccess.sol\":13307:13308  i */\n      dup2\n        /* \"HealthDataAccess.sol\":13307:13325  i < dataIds.length */\n      lt\n        /* \"HealthDataAccess.sol\":13287:13503  for (uint256 i = 0; i < dataIds.length; i++) {... */\n      iszero\n      tag_263\n      jumpi\n        /* \"HealthDataAccess.sol\":13385:13395  msg.sender */\n      caller\n        /* \"HealthDataAccess.sol\":13350:13395  healthRecords[dataIds[i]].owner == msg.sender */\n      0xffffffffffffffffffffffffffffffffffffffff\n      and\n        /* \"HealthDataAccess.sol\":13350:13363  healthRecords */\n      0x00\n        /* \"HealthDataAccess.sol\":13350:13375  healthRecords[dataIds[i]] */\n      0x00\n        /* \"HealthDataAccess.sol\":13364:13371  dataIds */\n      dup8\n        /* \"HealthDataAccess.sol\":13372:13373  i */\n      dup5\n        /* \"HealthDataAccess.sol\":13364:13374  dataIds[i] */\n      dup2\n      mload\n      dup2\n      lt\n      tag_265\n      jumpi\n      tag_266\n      tag_196\n      jump\t// in\n    tag_266:\n    tag_265:\n      0x20\n      mul\n      0x20\n      add\n      add\n      mload\n        /* \"HealthDataAccess.sol\":13350:13375  healthRecords[dataIds[i]] */\n      dup2\n      mstore\n      0x20\n      add\n      swap1\n      dup2\n      mstore\n      0x20\n      add\n      0x00\n      keccak256\n        /* \"HealthDataAccess.sol\":13350:13381  healthRecords[dataIds[i]].owner */\n      0x03\n      add\n      0x00\n      swap1\n      sload\n      swap1\n      0x0100\n      exp\n      swap1\n      div\n      0xffffffffffffffffffffffffffffffffffffffff\n      and\n        /* \"HealthDataAccess.sol\":13350:13395  healthRecords[dataIds[i]].owner == msg.sender */\n      0xffffffffffffffffffffffffffffffffffffffff\n      and\n      sub\n        /* \"HealthDataAccess.sol\":13346:13493  if (healthRecords[dataIds[i]].owner == msg.sender) {... */\n      tag_267\n      jumpi\n        /* \"HealthDataAccess.sol\":13415:13478  grantAccess(requester, dataIds[i], canRead, canWrite, duration) */\n      tag_268\n        /* \"HealthDataAccess.sol\":13427:13436  requester */\n      dup7\n        /* \"HealthDataAccess.sol\":13438:13445  dataIds */\n      dup7\n        /* \"HealthDataAccess.sol\":13446:13447  i */\n      dup4\n        /* \"HealthDataAccess.sol\":13438:13448  dataIds[i] */\n      dup2\n      mload\n      dup2\n      lt\n      tag_269\n      jumpi\n      tag_270\n      tag_196\n      jump\t// in\n    tag_270:\n    tag_269:\n      0x20\n      mul\n      0x20\n      add\n      add\n      mload\n        /* \"HealthDataAccess.sol\":13450:13457  canRead */\n      dup7\n        /* \"HealthDataAccess.sol\":13459:13467  canWrite */\n      dup7\n        /* \"HealthDataAccess.sol\":13469:13477  duration */\n      dup7\n        /* \"HealthDataAccess.sol\":13415:13426  grantAccess */\n      tag_79\n        /* \"HealthDataAccess.sol\":13415:13478  grantAccess(requester, dataIds[i], canRead, canWrite, duration) */\n      jump\t// in\n    tag_268:\n        /* \"HealthDataAccess.sol\":13346:13493  if (healthRecords[dataIds[i]].owner == msg.sender) {... */\n    tag_267:\n        /* \"HealthDataAccess.sol\":13327:13330  i++ */\n      dup1\n      dup1\n      0x01\n      add\n      swap2\n      pop\n      pop\n        /* \"HealthDataAccess.sol\":13287:13503  for (uint256 i = 0; i < dataIds.length; i++) {... */\n      jump(tag_262)\n    tag_263:\n      pop\n        /* \"HealthDataAccess.sol\":13106:13509  function batchGrantAccess(... */\n      pop\n      pop\n      pop\n      pop\n      pop\n      jump\t// out\n        /* \"HealthDataAccess.sol\":2209:2257  mapping(address => bytes32[]) public userRecords */\n    tag_99:\n      mstore(0x20, 0x02)\n      dup2\n      0x00\n      mstore\n      keccak256(0x00, 0x40)\n      dup2\n      dup2\n      sload\n      dup2\n      lt\n      tag_271\n      jumpi\n      0x00\n      dup1\n      revert\n    tag_271:\n      swap1\n      0x00\n      mstore\n      keccak256(0x00, 0x20)\n      add\n      0x00\n      swap2\n      pop\n      swap2\n      pop\n      pop\n      sload\n      dup2\n      jump\t// out\n        /* \"HealthDataAccess.sol\":1966:2019  mapping(bytes32 => HealthRecord) public healthRecords */\n    tag_103:\n      mstore(0x20, 0x00)\n      dup1\n      0x00\n      mstore\n      keccak256(0x00, 0x40)\n      0x00\n      swap2\n      pop\n      swap1\n      pop\n      dup1\n      0x00\n      add\n      sload\n      swap1\n      dup1\n      0x01\n      add\n      sload\n      swap1\n      dup1\n      0x02\n      add\n      sload\n      swap1\n      dup1\n      0x03\n      add\n      0x00\n      swap1\n      sload\n      swap1\n      0x0100\n      exp\n      swap1\n      div\n      0xffffffffffffffffffffffffffffffffffffffff\n      and\n      swap1\n      dup1\n      0x03\n      add\n      0x14\n      swap1\n      sload\n      swap1\n      0x0100\n      exp\n      swap1\n      div\n      0xff\n      and\n      swap1\n      dup1\n      0x04\n      add\n      dup1\n      sload\n      tag_273\n      swap1\n      tag_142\n      jump\t// in\n    tag_273:\n      dup1\n      0x1f\n      add\n      0x20\n      dup1\n      swap2\n      div\n      mul\n      0x20\n      add\n      mload(0x40)\n      swap1\n      dup2\n      add\n      0x40\n      mstore\n      dup1\n      swap3\n      swap2\n      swap1\n      dup2\n      dup2\n      mstore\n      0x20\n      add\n      dup3\n      dup1\n      sload\n      tag_274\n      swap1\n      tag_142\n      jump\t// in\n    tag_274:\n      dup1\n      iszero\n      tag_275\n      jumpi\n      dup1\n      0x1f\n      lt\n      tag_276\n      jumpi\n      0x0100\n      dup1\n      dup4\n      sload\n      div\n      mul\n      dup4\n      mstore\n      swap2\n      0x20\n      add\n      swap2\n      jump(tag_275)\n    tag_276:\n      dup3\n      add\n      swap2\n      swap1\n      0x00\n      mstore\n      keccak256(0x00, 0x20)\n      swap1\n    tag_277:\n      dup2\n      sload\n      dup2\n      mstore\n      swap1\n      0x01\n      add\n      swap1\n      0x20\n      add\n      dup1\n      dup4\n      gt\n      tag_277\n      jumpi\n      dup3\n      swap1\n      sub\n      0x1f\n      and\n      dup3\n      add\n      swap2\n    tag_275:\n      pop\n      pop\n      pop\n      pop\n      pop\n      swap1\n      dup1\n      0x05\n      add\n      0x00\n      swap1\n      sload\n      swap1\n      0x0100\n      exp\n      swap1\n      div\n      0xff\n      and\n      swap1\n      pop\n      dup8\n      jump\t// out\n        /* \"#utility.yul\":7:82   */\n    tag_278:\n        /* \"#utility.yul\":40:46   */\n      0x00\n        /* \"#utility.yul\":73:75   */\n      0x40\n        /* \"#utility.yul\":67:76   */\n      mload\n        /* \"#utility.yul\":57:76   */\n      swap1\n      pop\n        /* \"#utility.yul\":7:82   */\n      swap1\n      jump\t// out\n        /* \"#utility.yul\":88:205   */\n    tag_279:\n        /* \"#utility.yul\":197:198   */\n      0x00\n        /* \"#utility.yul\":194:195   */\n      0x00\n        /* \"#utility.yul\":187:199   */\n      revert\n        /* \"#utility.yul\":211:328   */\n    tag_280:\n        /* \"#utility.yul\":320:321   */\n      0x00\n        /* \"#utility.yul\":317:318   */\n      0x00\n        /* \"#utility.yul\":310:322   */\n      revert\n        /* \"#utility.yul\":334:411   */\n    tag_281:\n        /* \"#utility.yul\":371:378   */\n      0x00\n        /* \"#utility.yul\":400:405   */\n      dup2\n        /* \"#utility.yul\":389:405   */\n      swap1\n      pop\n        /* \"#utility.yul\":334:411   */\n      swap2\n      swap1\n      pop\n      jump\t// out\n        /* \"#utility.yul\":417:539   */\n    tag_282:\n        /* \"#utility.yul\":490:514   */\n      tag_382\n        /* \"#utility.yul\":508:513   */\n      dup2\n        /* \"#utility.yul\":490:514   */\n      tag_281\n      jump\t// in\n    tag_382:\n        /* \"#utility.yul\":483:488   */\n      dup2\n        /* \"#utility.yul\":480:515   */\n      eq\n        /* \"#utility.yul\":470:533   */\n      tag_383\n      jumpi\n        /* \"#utility.yul\":529:530   */\n      0x00\n        /* \"#utility.yul\":526:527   */\n      0x00\n        /* \"#utility.yul\":519:531   */\n      revert\n        /* \"#utility.yul\":470:533   */\n    tag_383:\n        /* \"#utility.yul\":417:539   */\n      pop\n      jump\t// out\n        /* \"#utility.yul\":545:684   */\n    tag_283:\n        /* \"#utility.yul\":591:596   */\n      0x00\n        /* \"#utility.yul\":629:635   */\n      dup2\n        /* \"#utility.yul\":616:636   */\n      calldataload\n        /* \"#utility.yul\":607:636   */\n      swap1\n      pop\n        /* \"#utility.yul\":645:678   */\n      tag_385\n        /* \"#utility.yul\":672:677   */\n      dup2\n        /* \"#utility.yul\":645:678   */\n      tag_282\n      jump\t// in\n    tag_385:\n        /* \"#utility.yul\":545:684   */\n      swap3\n      swap2\n      pop\n      pop\n      jump\t// out\n        /* \"#utility.yul\":690:1019   */\n    tag_26:\n        /* \"#utility.yul\":749:755   */\n      0x00\n        /* \"#utility.yul\":798:800   */\n      0x20\n        /* \"#utility.yul\":786:795   */\n      dup3\n        /* \"#utility.yul\":777:784   */\n      dup5\n        /* \"#utility.yul\":773:796   */\n      sub\n        /* \"#utility.yul\":769:801   */\n      slt\n        /* \"#utility.yul\":766:885   */\n      iszero\n      tag_387\n      jumpi\n        /* \"#utility.yul\":804:883   */\n      tag_388\n      tag_279\n      jump\t// in\n    tag_388:\n        /* \"#utility.yul\":766:885   */\n    tag_387:\n        /* \"#utility.yul\":924:925   */\n      0x00\n        /* \"#utility.yul\":949:1002   */\n      tag_389\n        /* \"#utility.yul\":994:1001   */\n      dup5\n        /* \"#utility.yul\":985:991   */\n      dup3\n        /* \"#utility.yul\":974:983   */\n      dup6\n        /* \"#utility.yul\":970:992   */\n      add\n        /* \"#utility.yul\":949:1002   */\n      tag_283\n      jump\t// in\n    tag_389:\n        /* \"#utility.yul\":939:1002   */\n      swap2\n      pop\n        /* \"#utility.yul\":895:1012   */\n      pop\n        /* \"#utility.yul\":690:1019   */\n      swap3\n      swap2\n      pop\n      pop\n      jump\t// out\n        /* \"#utility.yul\":1025:1143   */\n    tag_284:\n        /* \"#utility.yul\":1112:1136   */\n      tag_391\n        /* \"#utility.yul\":1130:1135   */\n      dup2\n        /* \"#utility.yul\":1112:1136   */\n      tag_281\n      jump\t// in\n    tag_391:\n        /* \"#utility.yul\":1107:1110   */\n      dup3\n        /* \"#utility.yul\":1100:1137   */\n      mstore\n        /* \"#utility.yul\":1025:1143   */\n      pop\n      pop\n      jump\t// out\n        /* \"#utility.yul\":1149:1226   */\n    tag_285:\n        /* \"#utility.yul\":1186:1193   */\n      0x00\n        /* \"#utility.yul\":1215:1220   */\n      dup2\n        /* \"#utility.yul\":1204:1220   */\n      swap1\n      pop\n        /* \"#utility.yul\":1149:1226   */\n      swap2\n      swap1\n      pop\n      jump\t// out\n        /* \"#utility.yul\":1232:1350   */\n    tag_286:\n        /* \"#utility.yul\":1319:1343   */\n      tag_394\n        /* \"#utility.yul\":1337:1342   */\n      dup2\n        /* \"#utility.yul\":1319:1343   */\n      tag_285\n      jump\t// in\n    tag_394:\n        /* \"#utility.yul\":1314:1317   */\n      dup3\n        /* \"#utility.yul\":1307:1344   */\n      mstore\n        /* \"#utility.yul\":1232:1350   */\n      pop\n      pop\n      jump\t// out\n        /* \"#utility.yul\":1356:1482   */\n    tag_287:\n        /* \"#utility.yul\":1393:1400   */\n      0x00\n        /* \"#utility.yul\":1433:1475   */\n      0xffffffffffffffffffffffffffffffffffffffff\n        /* \"#utility.yul\":1426:1431   */\n      dup3\n        /* \"#utility.yul\":1422:1476   */\n      and\n        /* \"#utility.yul\":1411:1476   */\n      swap1\n      pop\n        /* \"#utility.yul\":1356:1482   */\n      swap2\n      swap1\n      pop\n      jump\t// out\n        /* \"#utility.yul\":1488:1584   */\n    tag_288:\n        /* \"#utility.yul\":1525:1532   */\n      0x00\n        /* \"#utility.yul\":1554:1578   */\n      tag_397\n        /* \"#utility.yul\":1572:1577   */\n      dup3\n        /* \"#utility.yul\":1554:1578   */\n      tag_287\n      jump\t// in\n    tag_397:\n        /* \"#utility.yul\":1543:1578   */\n      swap1\n      pop\n        /* \"#utility.yul\":1488:1584   */\n      swap2\n      swap1\n      pop\n      jump\t// out\n        /* \"#utility.yul\":1590:1708   */\n    tag_289:\n        /* \"#utility.yul\":1677:1701   */\n      tag_399\n        /* \"#utility.yul\":1695:1700   */\n      dup2\n        /* \"#utility.yul\":1677:1701   */\n      tag_288\n      jump\t// in\n    tag_399:\n        /* \"#utility.yul\":1672:1675   */\n      dup3\n        /* \"#utility.yul\":1665:1702   */\n      mstore\n        /* \"#utility.yul\":1590:1708   */\n      pop\n      pop\n      jump\t// out\n        /* \"#utility.yul\":1714:1813   */\n    tag_290:\n        /* \"#utility.yul\":1766:1772   */\n      0x00\n        /* \"#utility.yul\":1800:1805   */\n      dup2\n        /* \"#utility.yul\":1794:1806   */\n      mload\n        /* \"#utility.yul\":1784:1806   */\n      swap1\n      pop\n        /* \"#utility.yul\":1714:1813   */\n      swap2\n      swap1\n      pop\n      jump\t// out\n        /* \"#utility.yul\":1819:1988   */\n    tag_291:\n        /* \"#utility.yul\":1903:1914   */\n      0x00\n        /* \"#utility.yul\":1937:1943   */\n      dup3\n        /* \"#utility.yul\":1932:1935   */\n      dup3\n        /* \"#utility.yul\":1925:1944   */\n      mstore\n        /* \"#utility.yul\":1977:1981   */\n      0x20\n        /* \"#utility.yul\":1972:1975   */\n      dup3\n        /* \"#utility.yul\":1968:1982   */\n      add\n        /* \"#utility.yul\":1953:1982   */\n      swap1\n      pop\n        /* \"#utility.yul\":1819:1988   */\n      swap3\n      swap2\n      pop\n      pop\n      jump\t// out\n        /* \"#utility.yul\":1994:2133   */\n    tag_292:\n        /* \"#utility.yul\":2083:2089   */\n      dup3\n        /* \"#utility.yul\":2078:2081   */\n      dup2\n        /* \"#utility.yul\":2073:2076   */\n      dup4\n        /* \"#utility.yul\":2067:2090   */\n      mcopy\n        /* \"#utility.yul\":2124:2125   */\n      0x00\n        /* \"#utility.yul\":2115:2121   */\n      dup4\n        /* \"#utility.yul\":2110:2113   */\n      dup4\n        /* \"#utility.yul\":2106:2122   */\n      add\n        /* \"#utility.yul\":2099:2126   */\n      mstore\n        /* \"#utility.yul\":1994:2133   */\n      pop\n      pop\n      pop\n      jump\t// out\n        /* \"#utility.yul\":2139:2241   */\n    tag_293:\n        /* \"#utility.yul\":2180:2186   */\n      0x00\n        /* \"#utility.yul\":2231:2233   */\n      0x1f\n        /* \"#utility.yul\":2227:2234   */\n      not\n        /* \"#utility.yul\":2222:2224   */\n      0x1f\n        /* \"#utility.yul\":2215:2220   */\n      dup4\n        /* \"#utility.yul\":2211:2225   */\n      add\n        /* \"#utility.yul\":2207:2235   */\n      and\n        /* \"#utility.yul\":2197:2235   */\n      swap1\n      pop\n        /* \"#utility.yul\":2139:2241   */\n      swap2\n      swap1\n      pop\n      jump\t// out\n        /* \"#utility.yul\":2247:2624   */\n    tag_294:\n        /* \"#utility.yul\":2335:2338   */\n      0x00\n        /* \"#utility.yul\":2363:2402   */\n      tag_405\n        /* \"#utility.yul\":2396:2401   */\n      dup3\n        /* \"#utility.yul\":2363:2402   */\n      tag_290\n      jump\t// in\n    tag_405:\n        /* \"#utility.yul\":2418:2489   */\n      tag_406\n        /* \"#utility.yul\":2482:2488   */\n      dup2\n        /* \"#utility.yul\":2477:2480   */\n      dup6\n        /* \"#utility.yul\":2418:2489   */\n      tag_291\n      jump\t// in\n    tag_406:\n        /* \"#utility.yul\":2411:2489   */\n      swap4\n      pop\n        /* \"#utility.yul\":2498:2563   */\n      tag_407\n        /* \"#utility.yul\":2556:2562   */\n      dup2\n        /* \"#utility.yul\":2551:2554   */\n      dup6\n        /* \"#utility.yul\":2544:2548   */\n      0x20\n        /* \"#utility.yul\":2537:2542   */\n      dup7\n        /* \"#utility.yul\":2533:2549   */\n      add\n        /* \"#utility.yul\":2498:2563   */\n      tag_292\n      jump\t// in\n    tag_407:\n        /* \"#utility.yul\":2588:2617   */\n      tag_408\n        /* \"#utility.yul\":2610:2616   */\n      dup2\n        /* \"#utility.yul\":2588:2617   */\n      tag_293\n      jump\t// in\n    tag_408:\n        /* \"#utility.yul\":2583:2586   */\n      dup5\n        /* \"#utility.yul\":2579:2618   */\n      add\n        /* \"#utility.yul\":2572:2618   */\n      swap2\n      pop\n        /* \"#utility.yul\":2339:2624   */\n      pop\n        /* \"#utility.yul\":2247:2624   */\n      swap3\n      swap2\n      pop\n      pop\n      jump\t// out\n        /* \"#utility.yul\":2630:3385   */\n    tag_32:\n        /* \"#utility.yul\":2855:2859   */\n      0x00\n        /* \"#utility.yul\":2893:2896   */\n      0xa0\n        /* \"#utility.yul\":2882:2891   */\n      dup3\n        /* \"#utility.yul\":2878:2897   */\n      add\n        /* \"#utility.yul\":2870:2897   */\n      swap1\n      pop\n        /* \"#utility.yul\":2907:2978   */\n      tag_410\n        /* \"#utility.yul\":2975:2976   */\n      0x00\n        /* \"#utility.yul\":2964:2973   */\n      dup4\n        /* \"#utility.yul\":2960:2977   */\n      add\n        /* \"#utility.yul\":2951:2957   */\n      dup9\n        /* \"#utility.yul\":2907:2978   */\n      tag_284\n      jump\t// in\n    tag_410:\n        /* \"#utility.yul\":2988:3060   */\n      tag_411\n        /* \"#utility.yul\":3056:3058   */\n      0x20\n        /* \"#utility.yul\":3045:3054   */\n      dup4\n        /* \"#utility.yul\":3041:3059   */\n      add\n        /* \"#utility.yul\":3032:3038   */\n      dup8\n        /* \"#utility.yul\":2988:3060   */\n      tag_284\n      jump\t// in\n    tag_411:\n        /* \"#utility.yul\":3070:3142   */\n      tag_412\n        /* \"#utility.yul\":3138:3140   */\n      0x40\n        /* \"#utility.yul\":3127:3136   */\n      dup4\n        /* \"#utility.yul\":3123:3141   */\n      add\n        /* \"#utility.yul\":3114:3120   */\n      dup7\n        /* \"#utility.yul\":3070:3142   */\n      tag_286\n      jump\t// in\n    tag_412:\n        /* \"#utility.yul\":3152:3224   */\n      tag_413\n        /* \"#utility.yul\":3220:3222   */\n      0x60\n        /* \"#utility.yul\":3209:3218   */\n      dup4\n        /* \"#utility.yul\":3205:3223   */\n      add\n        /* \"#utility.yul\":3196:3202   */\n      dup6\n        /* \"#utility.yul\":3152:3224   */\n      tag_289\n      jump\t// in\n    tag_413:\n        /* \"#utility.yul\":3272:3281   */\n      dup2\n        /* \"#utility.yul\":3266:3270   */\n      dup2\n        /* \"#utility.yul\":3262:3282   */\n      sub\n        /* \"#utility.yul\":3256:3259   */\n      0x80\n        /* \"#utility.yul\":3245:3254   */\n      dup4\n        /* \"#utility.yul\":3241:3260   */\n      add\n        /* \"#utility.yul\":3234:3283   */\n      mstore\n        /* \"#utility.yul\":3300:3378   */\n      tag_414\n        /* \"#utility.yul\":3373:3377   */\n      dup2\n        /* \"#utility.yul\":3364:3370   */\n      dup5\n        /* \"#utility.yul\":3300:3378   */\n      tag_294\n      jump\t// in\n    tag_414:\n        /* \"#utility.yul\":3292:3378   */\n      swap1\n      pop\n        /* \"#utility.yul\":2630:3385   */\n      swap7\n      swap6\n      pop\n      pop\n      pop\n      pop\n      pop\n      pop\n      jump\t// out\n        /* \"#utility.yul\":3391:3508   */\n    tag_295:\n        /* \"#utility.yul\":3500:3501   */\n      0x00\n        /* \"#utility.yul\":3497:3498   */\n      0x00\n        /* \"#utility.yul\":3490:3502   */\n      revert\n        /* \"#utility.yul\":3514:3631   */\n    tag_296:\n        /* \"#utility.yul\":3623:3624   */\n      0x00\n        /* \"#utility.yul\":3620:3621   */\n      0x00\n        /* \"#utility.yul\":3613:3625   */\n      revert\n        /* \"#utility.yul\":3637:3817   */\n    tag_297:\n        /* \"#utility.yul\":3685:3762   */\n      0x4e487b7100000000000000000000000000000000000000000000000000000000\n        /* \"#utility.yul\":3682:3683   */\n      0x00\n        /* \"#utility.yul\":3675:3763   */\n      mstore\n        /* \"#utility.yul\":3782:3786   */\n      0x41\n        /* \"#utility.yul\":3779:3780   */\n      0x04\n        /* \"#utility.yul\":3772:3787   */\n      mstore\n        /* \"#utility.yul\":3806:3810   */\n      0x24\n        /* \"#utility.yul\":3803:3804   */\n      0x00\n        /* \"#utility.yul\":3796:3811   */\n      revert\n        /* \"#utility.yul\":3823:4104   */\n    tag_298:\n        /* \"#utility.yul\":3906:3933   */\n      tag_419\n        /* \"#utility.yul\":3928:3932   */\n      dup3\n        /* \"#utility.yul\":3906:3933   */\n      tag_293\n      jump\t// in\n    tag_419:\n        /* \"#utility.yul\":3898:3904   */\n      dup2\n        /* \"#utility.yul\":3894:3934   */\n      add\n        /* \"#utility.yul\":4036:4042   */\n      dup2\n        /* \"#utility.yul\":4024:4034   */\n      dup2\n        /* \"#utility.yul\":4021:4043   */\n      lt\n        /* \"#utility.yul\":4000:4018   */\n      0xffffffffffffffff\n        /* \"#utility.yul\":3988:3998   */\n      dup3\n        /* \"#utility.yul\":3985:4019   */\n      gt\n        /* \"#utility.yul\":3982:4044   */\n      or\n        /* \"#utility.yul\":3979:4067   */\n      iszero\n      tag_420\n      jumpi\n        /* \"#utility.yul\":4047:4065   */\n      tag_421\n      tag_297\n      jump\t// in\n    tag_421:\n        /* \"#utility.yul\":3979:4067   */\n    tag_420:\n        /* \"#utility.yul\":4087:4097   */\n      dup1\n        /* \"#utility.yul\":4083:4085   */\n      0x40\n        /* \"#utility.yul\":4076:4098   */\n      mstore\n        /* \"#utility.yul\":3866:4104   */\n      pop\n        /* \"#utility.yul\":3823:4104   */\n      pop\n      pop\n      jump\t// out\n        /* \"#utility.yul\":4110:4239   */\n    tag_299:\n        /* \"#utility.yul\":4144:4150   */\n      0x00\n        /* \"#utility.yul\":4171:4191   */\n      tag_423\n      tag_278\n      jump\t// in\n    tag_423:\n        /* \"#utility.yul\":4161:4191   */\n      swap1\n      pop\n        /* \"#utility.yul\":4200:4233   */\n      tag_424\n        /* \"#utility.yul\":4228:4232   */\n      dup3\n        /* \"#utility.yul\":4220:4226   */\n      dup3\n        /* \"#utility.yul\":4200:4233   */\n      tag_298\n      jump\t// in\n    tag_424:\n        /* \"#utility.yul\":4110:4239   */\n      swap2\n      swap1\n      pop\n      jump\t// out\n        /* \"#utility.yul\":4245:4553   */\n    tag_300:\n        /* \"#utility.yul\":4307:4311   */\n      0x00\n        /* \"#utility.yul\":4397:4415   */\n      0xffffffffffffffff\n        /* \"#utility.yul\":4389:4395   */\n      dup3\n        /* \"#utility.yul\":4386:4416   */\n      gt\n        /* \"#utility.yul\":4383:4439   */\n      iszero\n      tag_426\n      jumpi\n        /* \"#utility.yul\":4419:4437   */\n      tag_427\n      tag_297\n      jump\t// in\n    tag_427:\n        /* \"#utility.yul\":4383:4439   */\n    tag_426:\n        /* \"#utility.yul\":4457:4486   */\n      tag_428\n        /* \"#utility.yul\":4479:4485   */\n      dup3\n        /* \"#utility.yul\":4457:4486   */\n      tag_293\n      jump\t// in\n    tag_428:\n        /* \"#utility.yul\":4449:4486   */\n      swap1\n      pop\n        /* \"#utility.yul\":4541:4545   */\n      0x20\n        /* \"#utility.yul\":4535:4539   */\n      dup2\n        /* \"#utility.yul\":4531:4546   */\n      add\n        /* \"#utility.yul\":4523:4546   */\n      swap1\n      pop\n        /* \"#utility.yul\":4245:4553   */\n      swap2\n      swap1\n      pop\n      jump\t// out\n        /* \"#utility.yul\":4559:4707   */\n    tag_301:\n        /* \"#utility.yul\":4657:4663   */\n      dup3\n        /* \"#utility.yul\":4652:4655   */\n      dup2\n        /* \"#utility.yul\":4647:4650   */\n      dup4\n        /* \"#utility.yul\":4634:4664   */\n      calldatacopy\n        /* \"#utility.yul\":4698:4699   */\n      0x00\n        /* \"#utility.yul\":4689:4695   */\n      dup4\n        /* \"#utility.yul\":4684:4687   */\n      dup4\n        /* \"#utility.yul\":4680:4696   */\n      add\n        /* \"#utility.yul\":4673:4700   */\n      mstore\n        /* \"#utility.yul\":4559:4707   */\n      pop\n      pop\n      pop\n      jump\t// out\n        /* \"#utility.yul\":4713:5138   */\n    tag_302:\n        /* \"#utility.yul\":4791:4796   */\n      0x00\n        /* \"#utility.yul\":4816:4882   */\n      tag_431\n        /* \"#utility.yul\":4832:4881   */\n      tag_432\n        /* \"#utility.yul\":4874:4880   */\n      dup5\n        /* \"#utility.yul\":4832:4881   */\n      tag_300\n      jump\t// in\n    tag_432:\n        /* \"#utility.yul\":4816:4882   */\n      tag_299\n      jump\t// in\n    tag_431:\n        /* \"#utility.yul\":4807:4882   */\n      swap1\n      pop\n        /* \"#utility.yul\":4905:4911   */\n      dup3\n        /* \"#utility.yul\":4898:4903   */\n      dup2\n        /* \"#utility.yul\":4891:4912   */\n      mstore\n        /* \"#utility.yul\":4943:4947   */\n      0x20\n        /* \"#utility.yul\":4936:4941   */\n      dup2\n        /* \"#utility.yul\":4932:4948   */\n      add\n        /* \"#utility.yul\":4981:4984   */\n      dup5\n        /* \"#utility.yul\":4972:4978   */\n      dup5\n        /* \"#utility.yul\":4967:4970   */\n      dup5\n        /* \"#utility.yul\":4963:4979   */\n      add\n        /* \"#utility.yul\":4960:4985   */\n      gt\n        /* \"#utility.yul\":4957:5069   */\n      iszero\n      tag_433\n      jumpi\n        /* \"#utility.yul\":4988:5067   */\n      tag_434\n      tag_296\n      jump\t// in\n    tag_434:\n        /* \"#utility.yul\":4957:5069   */\n    tag_433:\n        /* \"#utility.yul\":5078:5132   */\n      tag_435\n        /* \"#utility.yul\":5125:5131   */\n      dup5\n        /* \"#utility.yul\":5120:5123   */\n      dup3\n        /* \"#utility.yul\":5115:5118   */\n      dup6\n        /* \"#utility.yul\":5078:5132   */\n      tag_301\n      jump\t// in\n    tag_435:\n        /* \"#utility.yul\":4797:5138   */\n      pop\n        /* \"#utility.yul\":4713:5138   */\n      swap4\n      swap3\n      pop\n      pop\n      pop\n      jump\t// out\n        /* \"#utility.yul\":5158:5498   */\n    tag_303:\n        /* \"#utility.yul\":5214:5219   */\n      0x00\n        /* \"#utility.yul\":5263:5266   */\n      dup3\n        /* \"#utility.yul\":5256:5260   */\n      0x1f\n        /* \"#utility.yul\":5248:5254   */\n      dup4\n        /* \"#utility.yul\":5244:5261   */\n      add\n        /* \"#utility.yul\":5240:5267   */\n      slt\n        /* \"#utility.yul\":5230:5352   */\n      tag_437\n      jumpi\n        /* \"#utility.yul\":5271:5350   */\n      tag_438\n      tag_295\n      jump\t// in\n    tag_438:\n        /* \"#utility.yul\":5230:5352   */\n    tag_437:\n        /* \"#utility.yul\":5388:5394   */\n      dup2\n        /* \"#utility.yul\":5375:5395   */\n      calldataload\n        /* \"#utility.yul\":5413:5492   */\n      tag_439\n        /* \"#utility.yul\":5488:5491   */\n      dup5\n        /* \"#utility.yul\":5480:5486   */\n      dup3\n        /* \"#utility.yul\":5473:5477   */\n      0x20\n        /* \"#utility.yul\":5465:5471   */\n      dup7\n        /* \"#utility.yul\":5461:5478   */\n      add\n        /* \"#utility.yul\":5413:5492   */\n      tag_302\n      jump\t// in\n    tag_439:\n        /* \"#utility.yul\":5404:5492   */\n      swap2\n      pop\n        /* \"#utility.yul\":5220:5498   */\n      pop\n        /* \"#utility.yul\":5158:5498   */\n      swap3\n      swap2\n      pop\n      pop\n      jump\t// out\n        /* \"#utility.yul\":5504:6303   */\n    tag_35:\n        /* \"#utility.yul\":5591:5597   */\n      0x00\n        /* \"#utility.yul\":5599:5605   */\n      0x00\n        /* \"#utility.yul\":5607:5613   */\n      0x00\n        /* \"#utility.yul\":5656:5658   */\n      0x60\n        /* \"#utility.yul\":5644:5653   */\n      dup5\n        /* \"#utility.yul\":5635:5642   */\n      dup7\n        /* \"#utility.yul\":5631:5654   */\n      sub\n        /* \"#utility.yul\":5627:5659   */\n      slt\n        /* \"#utility.yul\":5624:5743   */\n      iszero\n      tag_441\n      jumpi\n        /* \"#utility.yul\":5662:5741   */\n      tag_442\n      tag_279\n      jump\t// in\n    tag_442:\n        /* \"#utility.yul\":5624:5743   */\n    tag_441:\n        /* \"#utility.yul\":5782:5783   */\n      0x00\n        /* \"#utility.yul\":5807:5860   */\n      tag_443\n        /* \"#utility.yul\":5852:5859   */\n      dup7\n        /* \"#utility.yul\":5843:5849   */\n      dup3\n        /* \"#utility.yul\":5832:5841   */\n      dup8\n        /* \"#utility.yul\":5828:5850   */\n      add\n        /* \"#utility.yul\":5807:5860   */\n      tag_283\n      jump\t// in\n    tag_443:\n        /* \"#utility.yul\":5797:5860   */\n      swap4\n      pop\n        /* \"#utility.yul\":5753:5870   */\n      pop\n        /* \"#utility.yul\":5909:5911   */\n      0x20\n        /* \"#utility.yul\":5935:5988   */\n      tag_444\n        /* \"#utility.yul\":5980:5987   */\n      dup7\n        /* \"#utility.yul\":5971:5977   */\n      dup3\n        /* \"#utility.yul\":5960:5969   */\n      dup8\n        /* \"#utility.yul\":5956:5978   */\n      add\n        /* \"#utility.yul\":5935:5988   */\n      tag_283\n      jump\t// in\n    tag_444:\n        /* \"#utility.yul\":5925:5988   */\n      swap3\n      pop\n        /* \"#utility.yul\":5880:5998   */\n      pop\n        /* \"#utility.yul\":6065:6067   */\n      0x40\n        /* \"#utility.yul\":6054:6063   */\n      dup5\n        /* \"#utility.yul\":6050:6068   */\n      add\n        /* \"#utility.yul\":6037:6069   */\n      calldataload\n        /* \"#utility.yul\":6096:6114   */\n      0xffffffffffffffff\n        /* \"#utility.yul\":6088:6094   */\n      dup2\n        /* \"#utility.yul\":6085:6115   */\n      gt\n        /* \"#utility.yul\":6082:6199   */\n      iszero\n      tag_445\n      jumpi\n        /* \"#utility.yul\":6118:6197   */\n      tag_446\n      tag_280\n      jump\t// in\n    tag_446:\n        /* \"#utility.yul\":6082:6199   */\n    tag_445:\n        /* \"#utility.yul\":6223:6286   */\n      tag_447\n        /* \"#utility.yul\":6278:6285   */\n      dup7\n        /* \"#utility.yul\":6269:6275   */\n      dup3\n        /* \"#utility.yul\":6258:6267   */\n      dup8\n        /* \"#utility.yul\":6254:6276   */\n      add\n        /* \"#utility.yul\":6223:6286   */\n      tag_303\n      jump\t// in\n    tag_447:\n        /* \"#utility.yul\":6213:6286   */\n      swap2\n      pop\n        /* \"#utility.yul\":6008:6296   */\n      pop\n        /* \"#utility.yul\":5504:6303   */\n      swap3\n      pop\n      swap3\n      pop\n      swap3\n      jump\t// out\n        /* \"#utility.yul\":6309:6531   */\n    tag_38:\n        /* \"#utility.yul\":6402:6406   */\n      0x00\n        /* \"#utility.yul\":6440:6442   */\n      0x20\n        /* \"#utility.yul\":6429:6438   */\n      dup3\n        /* \"#utility.yul\":6425:6443   */\n      add\n        /* \"#utility.yul\":6417:6443   */\n      swap1\n      pop\n        /* \"#utility.yul\":6453:6524   */\n      tag_449\n        /* \"#utility.yul\":6521:6522   */\n      0x00\n        /* \"#utility.yul\":6510:6519   */\n      dup4\n        /* \"#utility.yul\":6506:6523   */\n      add\n        /* \"#utility.yul\":6497:6503   */\n      dup5\n        /* \"#utility.yul\":6453:6524   */\n      tag_284\n      jump\t// in\n    tag_449:\n        /* \"#utility.yul\":6309:6531   */\n      swap3\n      swap2\n      pop\n      pop\n      jump\t// out\n        /* \"#utility.yul\":6537:6717   */\n    tag_116:\n        /* \"#utility.yul\":6585:6662   */\n      0x4e487b7100000000000000000000000000000000000000000000000000000000\n        /* \"#utility.yul\":6582:6583   */\n      0x00\n        /* \"#utility.yul\":6575:6663   */\n      mstore\n        /* \"#utility.yul\":6682:6686   */\n      0x21\n        /* \"#utility.yul\":6679:6680   */\n      0x04\n        /* \"#utility.yul\":6672:6687   */\n      mstore\n        /* \"#utility.yul\":6706:6710   */\n      0x24\n        /* \"#utility.yul\":6703:6704   */\n      0x00\n        /* \"#utility.yul\":6696:6711   */\n      revert\n        /* \"#utility.yul\":6723:6840   */\n    tag_304:\n        /* \"#utility.yul\":6808:6809   */\n      0x02\n        /* \"#utility.yul\":6801:6806   */\n      dup2\n        /* \"#utility.yul\":6798:6810   */\n      lt\n        /* \"#utility.yul\":6788:6834   */\n      tag_452\n      jumpi\n        /* \"#utility.yul\":6814:6832   */\n      tag_453\n      tag_116\n      jump\t// in\n    tag_453:\n        /* \"#utility.yul\":6788:6834   */\n    tag_452:\n        /* \"#utility.yul\":6723:6840   */\n      pop\n      jump\t// out\n        /* \"#utility.yul\":6846:6981   */\n    tag_305:\n        /* \"#utility.yul\":6895:6902   */\n      0x00\n        /* \"#utility.yul\":6924:6929   */\n      dup2\n        /* \"#utility.yul\":6913:6929   */\n      swap1\n      pop\n        /* \"#utility.yul\":6930:6975   */\n      tag_455\n        /* \"#utility.yul\":6969:6974   */\n      dup3\n        /* \"#utility.yul\":6930:6975   */\n      tag_304\n      jump\t// in\n    tag_455:\n        /* \"#utility.yul\":6846:6981   */\n      swap2\n      swap1\n      pop\n      jump\t// out\n        /* \"#utility.yul\":6987:7122   */\n    tag_306:\n        /* \"#utility.yul\":7047:7056   */\n      0x00\n        /* \"#utility.yul\":7080:7116   */\n      tag_457\n        /* \"#utility.yul\":7110:7115   */\n      dup3\n        /* \"#utility.yul\":7080:7116   */\n      tag_305\n      jump\t// in\n    tag_457:\n        /* \"#utility.yul\":7067:7116   */\n      swap1\n      pop\n        /* \"#utility.yul\":6987:7122   */\n      swap2\n      swap1\n      pop\n      jump\t// out\n        /* \"#utility.yul\":7128:7279   */\n    tag_307:\n        /* \"#utility.yul\":7225:7272   */\n      tag_459\n        /* \"#utility.yul\":7266:7271   */\n      dup2\n        /* \"#utility.yul\":7225:7272   */\n      tag_306\n      jump\t// in\n    tag_459:\n        /* \"#utility.yul\":7220:7223   */\n      dup3\n        /* \"#utility.yul\":7213:7273   */\n      mstore\n        /* \"#utility.yul\":7128:7279   */\n      pop\n      pop\n      jump\t// out\n        /* \"#utility.yul\":7285:7527   */\n    tag_43:\n        /* \"#utility.yul\":7388:7392   */\n      0x00\n        /* \"#utility.yul\":7426:7428   */\n      0x20\n        /* \"#utility.yul\":7415:7424   */\n      dup3\n        /* \"#utility.yul\":7411:7429   */\n      add\n        /* \"#utility.yul\":7403:7429   */\n      swap1\n      pop\n        /* \"#utility.yul\":7439:7520   */\n      tag_461\n        /* \"#utility.yul\":7517:7518   */\n      0x00\n        /* \"#utility.yul\":7506:7515   */\n      dup4\n        /* \"#utility.yul\":7502:7519   */\n      add\n        /* \"#utility.yul\":7493:7499   */\n      dup5\n        /* \"#utility.yul\":7439:7520   */\n      tag_307\n      jump\t// in\n    tag_461:\n        /* \"#utility.yul\":7285:7527   */\n      swap3\n      swap2\n      pop\n      pop\n      jump\t// out\n        /* \"#utility.yul\":7533:7655   */\n    tag_308:\n        /* \"#utility.yul\":7606:7630   */\n      tag_463\n        /* \"#utility.yul\":7624:7629   */\n      dup2\n        /* \"#utility.yul\":7606:7630   */\n      tag_288\n      jump\t// in\n    tag_463:\n        /* \"#utility.yul\":7599:7604   */\n      dup2\n        /* \"#utility.yul\":7596:7631   */\n      eq\n        /* \"#utility.yul\":7586:7649   */\n      tag_464\n      jumpi\n        /* \"#utility.yul\":7645:7646   */\n      0x00\n        /* \"#utility.yul\":7642:7643   */\n      0x00\n        /* \"#utility.yul\":7635:7647   */\n      revert\n        /* \"#utility.yul\":7586:7649   */\n    tag_464:\n        /* \"#utility.yul\":7533:7655   */\n      pop\n      jump\t// out\n        /* \"#utility.yul\":7661:7800   */\n    tag_309:\n        /* \"#utility.yul\":7707:7712   */\n      0x00\n        /* \"#utility.yul\":7745:7751   */\n      dup2\n        /* \"#utility.yul\":7732:7752   */\n      calldataload\n        /* \"#utility.yul\":7723:7752   */\n      swap1\n      pop\n        /* \"#utility.yul\":7761:7794   */\n      tag_466\n        /* \"#utility.yul\":7788:7793   */\n      dup2\n        /* \"#utility.yul\":7761:7794   */\n      tag_308\n      jump\t// in\n    tag_466:\n        /* \"#utility.yul\":7661:7800   */\n      swap3\n      swap2\n      pop\n      pop\n      jump\t// out\n        /* \"#utility.yul\":7806:8280   */\n    tag_46:\n        /* \"#utility.yul\":7874:7880   */\n      0x00\n        /* \"#utility.yul\":7882:7888   */\n      0x00\n        /* \"#utility.yul\":7931:7933   */\n      0x40\n        /* \"#utility.yul\":7919:7928   */\n      dup4\n        /* \"#utility.yul\":7910:7917   */\n      dup6\n        /* \"#utility.yul\":7906:7929   */\n      sub\n        /* \"#utility.yul\":7902:7934   */\n      slt\n        /* \"#utility.yul\":7899:8018   */\n      iszero\n      tag_468\n      jumpi\n        /* \"#utility.yul\":7937:8016   */\n      tag_469\n      tag_279\n      jump\t// in\n    tag_469:\n        /* \"#utility.yul\":7899:8018   */\n    tag_468:\n        /* \"#utility.yul\":8057:8058   */\n      0x00\n        /* \"#utility.yul\":8082:8135   */\n      tag_470\n        /* \"#utility.yul\":8127:8134   */\n      dup6\n        /* \"#utility.yul\":8118:8124   */\n      dup3\n        /* \"#utility.yul\":8107:8116   */\n      dup7\n        /* \"#utility.yul\":8103:8125   */\n      add\n        /* \"#utility.yul\":8082:8135   */\n      tag_309\n      jump\t// in\n    tag_470:\n        /* \"#utility.yul\":8072:8135   */\n      swap3\n      pop\n        /* \"#utility.yul\":8028:8145   */\n      pop\n        /* \"#utility.yul\":8184:8186   */\n      0x20\n        /* \"#utility.yul\":8210:8263   */\n      tag_471\n        /* \"#utility.yul\":8255:8262   */\n      dup6\n        /* \"#utility.yul\":8246:8252   */\n      dup3\n        /* \"#utility.yul\":8235:8244   */\n      dup7\n        /* \"#utility.yul\":8231:8253   */\n      add\n        /* \"#utility.yul\":8210:8263   */\n      tag_283\n      jump\t// in\n    tag_471:\n        /* \"#utility.yul\":8200:8263   */\n      swap2\n      pop\n        /* \"#utility.yul\":8155:8273   */\n      pop\n        /* \"#utility.yul\":7806:8280   */\n      swap3\n      pop\n      swap3\n      swap1\n      pop\n      jump\t// out\n        /* \"#utility.yul\":8286:8376   */\n    tag_310:\n        /* \"#utility.yul\":8320:8327   */\n      0x00\n        /* \"#utility.yul\":8363:8368   */\n      dup2\n        /* \"#utility.yul\":8356:8369   */\n      iszero\n        /* \"#utility.yul\":8349:8370   */\n      iszero\n        /* \"#utility.yul\":8338:8370   */\n      swap1\n      pop\n        /* \"#utility.yul\":8286:8376   */\n      swap2\n      swap1\n      pop\n      jump\t// out\n        /* \"#utility.yul\":8382:8491   */\n    tag_311:\n        /* \"#utility.yul\":8463:8484   */\n      tag_474\n        /* \"#utility.yul\":8478:8483   */\n      dup2\n        /* \"#utility.yul\":8463:8484   */\n      tag_310\n      jump\t// in\n    tag_474:\n        /* \"#utility.yul\":8458:8461   */\n      dup3\n        /* \"#utility.yul\":8451:8485   */\n      mstore\n        /* \"#utility.yul\":8382:8491   */\n      pop\n      pop\n      jump\t// out\n        /* \"#utility.yul\":8497:9359   */\n    tag_49:\n        /* \"#utility.yul\":8746:8750   */\n      0x00\n        /* \"#utility.yul\":8784:8787   */\n      0xe0\n        /* \"#utility.yul\":8773:8782   */\n      dup3\n        /* \"#utility.yul\":8769:8788   */\n      add\n        /* \"#utility.yul\":8761:8788   */\n      swap1\n      pop\n        /* \"#utility.yul\":8798:8869   */\n      tag_476\n        /* \"#utility.yul\":8866:8867   */\n      0x00\n        /* \"#utility.yul\":8855:8864   */\n      dup4\n        /* \"#utility.yul\":8851:8868   */\n      add\n        /* \"#utility.yul\":8842:8848   */\n      dup11\n        /* \"#utility.yul\":8798:8869   */\n      tag_289\n      jump\t// in\n    tag_476:\n        /* \"#utility.yul\":8879:8951   */\n      tag_477\n        /* \"#utility.yul\":8947:8949   */\n      0x20\n        /* \"#utility.yul\":8936:8945   */\n      dup4\n        /* \"#utility.yul\":8932:8950   */\n      add\n        /* \"#utility.yul\":8923:8929   */\n      dup10\n        /* \"#utility.yul\":8879:8951   */\n      tag_284\n      jump\t// in\n    tag_477:\n        /* \"#utility.yul\":8961:9033   */\n      tag_478\n        /* \"#utility.yul\":9029:9031   */\n      0x40\n        /* \"#utility.yul\":9018:9027   */\n      dup4\n        /* \"#utility.yul\":9014:9032   */\n      add\n        /* \"#utility.yul\":9005:9011   */\n      dup9\n        /* \"#utility.yul\":8961:9033   */\n      tag_286\n      jump\t// in\n    tag_478:\n        /* \"#utility.yul\":9043:9115   */\n      tag_479\n        /* \"#utility.yul\":9111:9113   */\n      0x60\n        /* \"#utility.yul\":9100:9109   */\n      dup4\n        /* \"#utility.yul\":9096:9114   */\n      add\n        /* \"#utility.yul\":9087:9093   */\n      dup8\n        /* \"#utility.yul\":9043:9115   */\n      tag_286\n      jump\t// in\n    tag_479:\n        /* \"#utility.yul\":9125:9192   */\n      tag_480\n        /* \"#utility.yul\":9187:9190   */\n      0x80\n        /* \"#utility.yul\":9176:9185   */\n      dup4\n        /* \"#utility.yul\":9172:9191   */\n      add\n        /* \"#utility.yul\":9163:9169   */\n      dup7\n        /* \"#utility.yul\":9125:9192   */\n      tag_311\n      jump\t// in\n    tag_480:\n        /* \"#utility.yul\":9202:9269   */\n      tag_481\n        /* \"#utility.yul\":9264:9267   */\n      0xa0\n        /* \"#utility.yul\":9253:9262   */\n      dup4\n        /* \"#utility.yul\":9249:9268   */\n      add\n        /* \"#utility.yul\":9240:9246   */\n      dup6\n        /* \"#utility.yul\":9202:9269   */\n      tag_311\n      jump\t// in\n    tag_481:\n        /* \"#utility.yul\":9279:9352   */\n      tag_482\n        /* \"#utility.yul\":9347:9350   */\n      0xc0\n        /* \"#utility.yul\":9336:9345   */\n      dup4\n        /* \"#utility.yul\":9332:9351   */\n      add\n        /* \"#utility.yul\":9323:9329   */\n      dup5\n        /* \"#utility.yul\":9279:9352   */\n      tag_289\n      jump\t// in\n    tag_482:\n        /* \"#utility.yul\":8497:9359   */\n      swap9\n      swap8\n      pop\n      pop\n      pop\n      pop\n      pop\n      pop\n      pop\n      pop\n      jump\t// out\n        /* \"#utility.yul\":9365:9694   */\n    tag_52:\n        /* \"#utility.yul\":9424:9430   */\n      0x00\n        /* \"#utility.yul\":9473:9475   */\n      0x20\n        /* \"#utility.yul\":9461:9470   */\n      dup3\n        /* \"#utility.yul\":9452:9459   */\n      dup5\n        /* \"#utility.yul\":9448:9471   */\n      sub\n        /* \"#utility.yul\":9444:9476   */\n      slt\n        /* \"#utility.yul\":9441:9560   */\n      iszero\n      tag_484\n      jumpi\n        /* \"#utility.yul\":9479:9558   */\n      tag_485\n      tag_279\n      jump\t// in\n    tag_485:\n        /* \"#utility.yul\":9441:9560   */\n    tag_484:\n        /* \"#utility.yul\":9599:9600   */\n      0x00\n        /* \"#utility.yul\":9624:9677   */\n      tag_486\n        /* \"#utility.yul\":9669:9676   */\n      dup5\n        /* \"#utility.yul\":9660:9666   */\n      dup3\n        /* \"#utility.yul\":9649:9658   */\n      dup6\n        /* \"#utility.yul\":9645:9667   */\n      add\n        /* \"#utility.yul\":9624:9677   */\n      tag_309\n      jump\t// in\n    tag_486:\n        /* \"#utility.yul\":9614:9677   */\n      swap2\n      pop\n        /* \"#utility.yul\":9570:9687   */\n      pop\n        /* \"#utility.yul\":9365:9694   */\n      swap3\n      swap2\n      pop\n      pop\n      jump\t// out\n        /* \"#utility.yul\":9700:9922   */\n    tag_55:\n        /* \"#utility.yul\":9793:9797   */\n      0x00\n        /* \"#utility.yul\":9831:9833   */\n      0x20\n        /* \"#utility.yul\":9820:9829   */\n      dup3\n        /* \"#utility.yul\":9816:9834   */\n      add\n        /* \"#utility.yul\":9808:9834   */\n      swap1\n      pop\n        /* \"#utility.yul\":9844:9915   */\n      tag_488\n        /* \"#utility.yul\":9912:9913   */\n      0x00\n        /* \"#utility.yul\":9901:9910   */\n      dup4\n        /* \"#utility.yul\":9897:9914   */\n      add\n        /* \"#utility.yul\":9888:9894   */\n      dup5\n        /* \"#utility.yul\":9844:9915   */\n      tag_286\n      jump\t// in\n    tag_488:\n        /* \"#utility.yul\":9700:9922   */\n      swap3\n      swap2\n      pop\n      pop\n      jump\t// out\n        /* \"#utility.yul\":9928:10042   */\n    tag_312:\n        /* \"#utility.yul\":9995:10001   */\n      0x00\n        /* \"#utility.yul\":10029:10034   */\n      dup2\n        /* \"#utility.yul\":10023:10035   */\n      mload\n        /* \"#utility.yul\":10013:10035   */\n      swap1\n      pop\n        /* \"#utility.yul\":9928:10042   */\n      swap2\n      swap1\n      pop\n      jump\t// out\n        /* \"#utility.yul\":10048:10232   */\n    tag_313:\n        /* \"#utility.yul\":10147:10158   */\n      0x00\n        /* \"#utility.yul\":10181:10187   */\n      dup3\n        /* \"#utility.yul\":10176:10179   */\n      dup3\n        /* \"#utility.yul\":10169:10188   */\n      mstore\n        /* \"#utility.yul\":10221:10225   */\n      0x20\n        /* \"#utility.yul\":10216:10219   */\n      dup3\n        /* \"#utility.yul\":10212:10226   */\n      add\n        /* \"#utility.yul\":10197:10226   */\n      swap1\n      pop\n        /* \"#utility.yul\":10048:10232   */\n      swap3\n      swap2\n      pop\n      pop\n      jump\t// out\n        /* \"#utility.yul\":10238:10370   */\n    tag_314:\n        /* \"#utility.yul\":10305:10309   */\n      0x00\n        /* \"#utility.yul\":10328:10331   */\n      dup2\n        /* \"#utility.yul\":10320:10331   */\n      swap1\n      pop\n        /* \"#utility.yul\":10358:10362   */\n      0x20\n        /* \"#utility.yul\":10353:10356   */\n      dup3\n        /* \"#utility.yul\":10349:10363   */\n      add\n        /* \"#utility.yul\":10341:10363   */\n      swap1\n      pop\n        /* \"#utility.yul\":10238:10370   */\n      swap2\n      swap1\n      pop\n      jump\t// out\n        /* \"#utility.yul\":10376:10484   */\n    tag_315:\n        /* \"#utility.yul\":10453:10477   */\n      tag_493\n        /* \"#utility.yul\":10471:10476   */\n      dup2\n        /* \"#utility.yul\":10453:10477   */\n      tag_281\n      jump\t// in\n    tag_493:\n        /* \"#utility.yul\":10448:10451   */\n      dup3\n        /* \"#utility.yul\":10441:10478   */\n      mstore\n        /* \"#utility.yul\":10376:10484   */\n      pop\n      pop\n      jump\t// out\n        /* \"#utility.yul\":10490:10669   */\n    tag_316:\n        /* \"#utility.yul\":10559:10569   */\n      0x00\n        /* \"#utility.yul\":10580:10626   */\n      tag_495\n        /* \"#utility.yul\":10622:10625   */\n      dup4\n        /* \"#utility.yul\":10614:10620   */\n      dup4\n        /* \"#utility.yul\":10580:10626   */\n      tag_315\n      jump\t// in\n    tag_495:\n        /* \"#utility.yul\":10658:10662   */\n      0x20\n        /* \"#utility.yul\":10653:10656   */\n      dup4\n        /* \"#utility.yul\":10649:10663   */\n      add\n        /* \"#utility.yul\":10635:10663   */\n      swap1\n      pop\n        /* \"#utility.yul\":10490:10669   */\n      swap3\n      swap2\n      pop\n      pop\n      jump\t// out\n        /* \"#utility.yul\":10675:10788   */\n    tag_317:\n        /* \"#utility.yul\":10745:10749   */\n      0x00\n        /* \"#utility.yul\":10777:10781   */\n      0x20\n        /* \"#utility.yul\":10772:10775   */\n      dup3\n        /* \"#utility.yul\":10768:10782   */\n      add\n        /* \"#utility.yul\":10760:10782   */\n      swap1\n      pop\n        /* \"#utility.yul\":10675:10788   */\n      swap2\n      swap1\n      pop\n      jump\t// out\n        /* \"#utility.yul\":10824:11556   */\n    tag_318:\n        /* \"#utility.yul\":10943:10946   */\n      0x00\n        /* \"#utility.yul\":10972:11026   */\n      tag_498\n        /* \"#utility.yul\":11020:11025   */\n      dup3\n        /* \"#utility.yul\":10972:11026   */\n      tag_312\n      jump\t// in\n    tag_498:\n        /* \"#utility.yul\":11042:11128   */\n      tag_499\n        /* \"#utility.yul\":11121:11127   */\n      dup2\n        /* \"#utility.yul\":11116:11119   */\n      dup6\n        /* \"#utility.yul\":11042:11128   */\n      tag_313\n      jump\t// in\n    tag_499:\n        /* \"#utility.yul\":11035:11128   */\n      swap4\n      pop\n        /* \"#utility.yul\":11152:11208   */\n      tag_500\n        /* \"#utility.yul\":11202:11207   */\n      dup4\n        /* \"#utility.yul\":11152:11208   */\n      tag_314\n      jump\t// in\n    tag_500:\n        /* \"#utility.yul\":11231:11238   */\n      dup1\n        /* \"#utility.yul\":11262:11263   */\n      0x00\n        /* \"#utility.yul\":11247:11531   */\n    tag_501:\n        /* \"#utility.yul\":11272:11278   */\n      dup4\n        /* \"#utility.yul\":11269:11270   */\n      dup2\n        /* \"#utility.yul\":11266:11279   */\n      lt\n        /* \"#utility.yul\":11247:11531   */\n      iszero\n      tag_503\n      jumpi\n        /* \"#utility.yul\":11348:11354   */\n      dup2\n        /* \"#utility.yul\":11342:11355   */\n      mload\n        /* \"#utility.yul\":11375:11438   */\n      tag_504\n        /* \"#utility.yul\":11434:11437   */\n      dup9\n        /* \"#utility.yul\":11419:11432   */\n      dup3\n        /* \"#utility.yul\":11375:11438   */\n      tag_316\n      jump\t// in\n    tag_504:\n        /* \"#utility.yul\":11368:11438   */\n      swap8\n      pop\n        /* \"#utility.yul\":11461:11521   */\n      tag_505\n        /* \"#utility.yul\":11514:11520   */\n      dup4\n        /* \"#utility.yul\":11461:11521   */\n      tag_317\n      jump\t// in\n    tag_505:\n        /* \"#utility.yul\":11451:11521   */\n      swap3\n      pop\n        /* \"#utility.yul\":11307:11531   */\n      pop\n        /* \"#utility.yul\":11294:11295   */\n      0x01\n        /* \"#utility.yul\":11291:11292   */\n      dup2\n        /* \"#utility.yul\":11287:11296   */\n      add\n        /* \"#utility.yul\":11282:11296   */\n      swap1\n      pop\n        /* \"#utility.yul\":11247:11531   */\n      jump(tag_501)\n    tag_503:\n        /* \"#utility.yul\":11251:11265   */\n      pop\n        /* \"#utility.yul\":11547:11550   */\n      dup6\n        /* \"#utility.yul\":11540:11550   */\n      swap4\n      pop\n        /* \"#utility.yul\":10948:11556   */\n      pop\n      pop\n      pop\n        /* \"#utility.yul\":10824:11556   */\n      swap3\n      swap2\n      pop\n      pop\n      jump\t// out\n        /* \"#utility.yul\":11562:11935   */\n    tag_60:\n        /* \"#utility.yul\":11705:11709   */\n      0x00\n        /* \"#utility.yul\":11743:11745   */\n      0x20\n        /* \"#utility.yul\":11732:11741   */\n      dup3\n        /* \"#utility.yul\":11728:11746   */\n      add\n        /* \"#utility.yul\":11720:11746   */\n      swap1\n      pop\n        /* \"#utility.yul\":11792:11801   */\n      dup2\n        /* \"#utility.yul\":11786:11790   */\n      dup2\n        /* \"#utility.yul\":11782:11802   */\n      sub\n        /* \"#utility.yul\":11778:11779   */\n      0x00\n        /* \"#utility.yul\":11767:11776   */\n      dup4\n        /* \"#utility.yul\":11763:11780   */\n      add\n        /* \"#utility.yul\":11756:11803   */\n      mstore\n        /* \"#utility.yul\":11820:11928   */\n      tag_507\n        /* \"#utility.yul\":11923:11927   */\n      dup2\n        /* \"#utility.yul\":11914:11920   */\n      dup5\n        /* \"#utility.yul\":11820:11928   */\n      tag_318\n      jump\t// in\n    tag_507:\n        /* \"#utility.yul\":11812:11928   */\n      swap1\n      pop\n        /* \"#utility.yul\":11562:11935   */\n      swap3\n      swap2\n      pop\n      pop\n      jump\t// out\n        /* \"#utility.yul\":11941:12151   */\n    tag_68:\n        /* \"#utility.yul\":12028:12032   */\n      0x00\n        /* \"#utility.yul\":12066:12068   */\n      0x20\n        /* \"#utility.yul\":12055:12064   */\n      dup3\n        /* \"#utility.yul\":12051:12069   */\n      add\n        /* \"#utility.yul\":12043:12069   */\n      swap1\n      pop\n        /* \"#utility.yul\":12079:12144   */\n      tag_509\n        /* \"#utility.yul\":12141:12142   */\n      0x00\n        /* \"#utility.yul\":12130:12139   */\n      dup4\n        /* \"#utility.yul\":12126:12143   */\n      add\n        /* \"#utility.yul\":12117:12123   */\n      dup5\n        /* \"#utility.yul\":12079:12144   */\n      tag_311\n      jump\t// in\n    tag_509:\n        /* \"#utility.yul\":11941:12151   */\n      swap3\n      swap2\n      pop\n      pop\n      jump\t// out\n        /* \"#utility.yul\":12157:12489   */\n    tag_72:\n        /* \"#utility.yul\":12278:12282   */\n      0x00\n        /* \"#utility.yul\":12316:12318   */\n      0x40\n        /* \"#utility.yul\":12305:12314   */\n      dup3\n        /* \"#utility.yul\":12301:12319   */\n      add\n        /* \"#utility.yul\":12293:12319   */\n      swap1\n      pop\n        /* \"#utility.yul\":12329:12400   */\n      tag_511\n        /* \"#utility.yul\":12397:12398   */\n      0x00\n        /* \"#utility.yul\":12386:12395   */\n      dup4\n        /* \"#utility.yul\":12382:12399   */\n      add\n        /* \"#utility.yul\":12373:12379   */\n      dup6\n        /* \"#utility.yul\":12329:12400   */\n      tag_286\n      jump\t// in\n    tag_511:\n        /* \"#utility.yul\":12410:12482   */\n      tag_512\n        /* \"#utility.yul\":12478:12480   */\n      0x20\n        /* \"#utility.yul\":12467:12476   */\n      dup4\n        /* \"#utility.yul\":12463:12481   */\n      add\n        /* \"#utility.yul\":12454:12460   */\n      dup5\n        /* \"#utility.yul\":12410:12482   */\n      tag_286\n      jump\t// in\n    tag_512:\n        /* \"#utility.yul\":12157:12489   */\n      swap4\n      swap3\n      pop\n      pop\n      pop\n      jump\t// out\n        /* \"#utility.yul\":12495:12611   */\n    tag_319:\n        /* \"#utility.yul\":12565:12586   */\n      tag_514\n        /* \"#utility.yul\":12580:12585   */\n      dup2\n        /* \"#utility.yul\":12565:12586   */\n      tag_310\n      jump\t// in\n    tag_514:\n        /* \"#utility.yul\":12558:12563   */\n      dup2\n        /* \"#utility.yul\":12555:12587   */\n      eq\n        /* \"#utility.yul\":12545:12605   */\n      tag_515\n      jumpi\n        /* \"#utility.yul\":12601:12602   */\n      0x00\n        /* \"#utility.yul\":12598:12599   */\n      0x00\n        /* \"#utility.yul\":12591:12603   */\n      revert\n        /* \"#utility.yul\":12545:12605   */\n    tag_515:\n        /* \"#utility.yul\":12495:12611   */\n      pop\n      jump\t// out\n        /* \"#utility.yul\":12617:12750   */\n    tag_320:\n        /* \"#utility.yul\":12660:12665   */\n      0x00\n        /* \"#utility.yul\":12698:12704   */\n      dup2\n        /* \"#utility.yul\":12685:12705   */\n      calldataload\n        /* \"#utility.yul\":12676:12705   */\n      swap1\n      pop\n        /* \"#utility.yul\":12714:12744   */\n      tag_517\n        /* \"#utility.yul\":12738:12743   */\n      dup2\n        /* \"#utility.yul\":12714:12744   */\n      tag_319\n      jump\t// in\n    tag_517:\n        /* \"#utility.yul\":12617:12750   */\n      swap3\n      swap2\n      pop\n      pop\n      jump\t// out\n        /* \"#utility.yul\":12756:12878   */\n    tag_321:\n        /* \"#utility.yul\":12829:12853   */\n      tag_519\n        /* \"#utility.yul\":12847:12852   */\n      dup2\n        /* \"#utility.yul\":12829:12853   */\n      tag_285\n      jump\t// in\n    tag_519:\n        /* \"#utility.yul\":12822:12827   */\n      dup2\n        /* \"#utility.yul\":12819:12854   */\n      eq\n        /* \"#utility.yul\":12809:12872   */\n      tag_520\n      jumpi\n        /* \"#utility.yul\":12868:12869   */\n      0x00\n        /* \"#utility.yul\":12865:12866   */\n      0x00\n        /* \"#utility.yul\":12858:12870   */\n      revert\n        /* \"#utility.yul\":12809:12872   */\n    tag_520:\n        /* \"#utility.yul\":12756:12878   */\n      pop\n      jump\t// out\n        /* \"#utility.yul\":12884:13023   */\n    tag_322:\n        /* \"#utility.yul\":12930:12935   */\n      0x00\n        /* \"#utility.yul\":12968:12974   */\n      dup2\n        /* \"#utility.yul\":12955:12975   */\n      calldataload\n        /* \"#utility.yul\":12946:12975   */\n      swap1\n      pop\n        /* \"#utility.yul\":12984:13017   */\n      tag_522\n        /* \"#utility.yul\":13011:13016   */\n      dup2\n        /* \"#utility.yul\":12984:13017   */\n      tag_321\n      jump\t// in\n    tag_522:\n        /* \"#utility.yul\":12884:13023   */\n      swap3\n      swap2\n      pop\n      pop\n      jump\t// out\n        /* \"#utility.yul\":13029:13928   */\n    tag_78:\n        /* \"#utility.yul\":13118:13124   */\n      0x00\n        /* \"#utility.yul\":13126:13132   */\n      0x00\n        /* \"#utility.yul\":13134:13140   */\n      0x00\n        /* \"#utility.yul\":13142:13148   */\n      0x00\n        /* \"#utility.yul\":13150:13156   */\n      0x00\n        /* \"#utility.yul\":13199:13202   */\n      0xa0\n        /* \"#utility.yul\":13187:13196   */\n      dup7\n        /* \"#utility.yul\":13178:13185   */\n      dup9\n        /* \"#utility.yul\":13174:13197   */\n      sub\n        /* \"#utility.yul\":13170:13203   */\n      slt\n        /* \"#utility.yul\":13167:13287   */\n      iszero\n      tag_524\n      jumpi\n        /* \"#utility.yul\":13206:13285   */\n      tag_525\n      tag_279\n      jump\t// in\n    tag_525:\n        /* \"#utility.yul\":13167:13287   */\n    tag_524:\n        /* \"#utility.yul\":13326:13327   */\n      0x00\n        /* \"#utility.yul\":13351:13404   */\n      tag_526\n        /* \"#utility.yul\":13396:13403   */\n      dup9\n        /* \"#utility.yul\":13387:13393   */\n      dup3\n        /* \"#utility.yul\":13376:13385   */\n      dup10\n        /* \"#utility.yul\":13372:13394   */\n      add\n        /* \"#utility.yul\":13351:13404   */\n      tag_309\n      jump\t// in\n    tag_526:\n        /* \"#utility.yul\":13341:13404   */\n      swap6\n      pop\n        /* \"#utility.yul\":13297:13414   */\n      pop\n        /* \"#utility.yul\":13453:13455   */\n      0x20\n        /* \"#utility.yul\":13479:13532   */\n      tag_527\n        /* \"#utility.yul\":13524:13531   */\n      dup9\n        /* \"#utility.yul\":13515:13521   */\n      dup3\n        /* \"#utility.yul\":13504:13513   */\n      dup10\n        /* \"#utility.yul\":13500:13522   */\n      add\n        /* \"#utility.yul\":13479:13532   */\n      tag_283\n      jump\t// in\n    tag_527:\n        /* \"#utility.yul\":13469:13532   */\n      swap5\n      pop\n        /* \"#utility.yul\":13424:13542   */\n      pop\n        /* \"#utility.yul\":13581:13583   */\n      0x40\n        /* \"#utility.yul\":13607:13657   */\n      tag_528\n        /* \"#utility.yul\":13649:13656   */\n      dup9\n        /* \"#utility.yul\":13640:13646   */\n      dup3\n        /* \"#utility.yul\":13629:13638   */\n      dup10\n        /* \"#utility.yul\":13625:13647   */\n      add\n        /* \"#utility.yul\":13607:13657   */\n      tag_320\n      jump\t// in\n    tag_528:\n        /* \"#utility.yul\":13597:13657   */\n      swap4\n      pop\n        /* \"#utility.yul\":13552:13667   */\n      pop\n        /* \"#utility.yul\":13706:13708   */\n      0x60\n        /* \"#utility.yul\":13732:13782   */\n      tag_529\n        /* \"#utility.yul\":13774:13781   */\n      dup9\n        /* \"#utility.yul\":13765:13771   */\n      dup3\n        /* \"#utility.yul\":13754:13763   */\n      dup10\n        /* \"#utility.yul\":13750:13772   */\n      add\n        /* \"#utility.yul\":13732:13782   */\n      tag_320\n      jump\t// in\n    tag_529:\n        /* \"#utility.yul\":13722:13782   */\n      swap3\n      pop\n        /* \"#utility.yul\":13677:13792   */\n      pop\n        /* \"#utility.yul\":13831:13834   */\n      0x80\n        /* \"#utility.yul\":13858:13911   */\n      tag_530\n        /* \"#utility.yul\":13903:13910   */\n      dup9\n        /* \"#utility.yul\":13894:13900   */\n      dup3\n        /* \"#utility.yul\":13883:13892   */\n      dup10\n        /* \"#utility.yul\":13879:13901   */\n      add\n        /* \"#utility.yul\":13858:13911   */\n      tag_322\n      jump\t// in\n    tag_530:\n        /* \"#utility.yul\":13848:13911   */\n      swap2\n      pop\n        /* \"#utility.yul\":13802:13921   */\n      pop\n        /* \"#utility.yul\":13029:13928   */\n      swap3\n      swap6\n      pop\n      swap3\n      swap6\n      swap1\n      swap4\n      pop\n      jump\t// out\n        /* \"#utility.yul\":13934:14451   */\n    tag_87:\n        /* \"#utility.yul\":14093:14097   */\n      0x00\n        /* \"#utility.yul\":14131:14134   */\n      0x80\n        /* \"#utility.yul\":14120:14129   */\n      dup3\n        /* \"#utility.yul\":14116:14135   */\n      add\n        /* \"#utility.yul\":14108:14135   */\n      swap1\n      pop\n        /* \"#utility.yul\":14145:14210   */\n      tag_532\n        /* \"#utility.yul\":14207:14208   */\n      0x00\n        /* \"#utility.yul\":14196:14205   */\n      dup4\n        /* \"#utility.yul\":14192:14209   */\n      add\n        /* \"#utility.yul\":14183:14189   */\n      dup8\n        /* \"#utility.yul\":14145:14210   */\n      tag_311\n      jump\t// in\n    tag_532:\n        /* \"#utility.yul\":14220:14286   */\n      tag_533\n        /* \"#utility.yul\":14282:14284   */\n      0x20\n        /* \"#utility.yul\":14271:14280   */\n      dup4\n        /* \"#utility.yul\":14267:14285   */\n      add\n        /* \"#utility.yul\":14258:14264   */\n      dup7\n        /* \"#utility.yul\":14220:14286   */\n      tag_311\n      jump\t// in\n    tag_533:\n        /* \"#utility.yul\":14296:14362   */\n      tag_534\n        /* \"#utility.yul\":14358:14360   */\n      0x40\n        /* \"#utility.yul\":14347:14356   */\n      dup4\n        /* \"#utility.yul\":14343:14361   */\n      add\n        /* \"#utility.yul\":14334:14340   */\n      dup6\n        /* \"#utility.yul\":14296:14362   */\n      tag_311\n      jump\t// in\n    tag_534:\n        /* \"#utility.yul\":14372:14444   */\n      tag_535\n        /* \"#utility.yul\":14440:14442   */\n      0x60\n        /* \"#utility.yul\":14429:14438   */\n      dup4\n        /* \"#utility.yul\":14425:14443   */\n      add\n        /* \"#utility.yul\":14416:14422   */\n      dup5\n        /* \"#utility.yul\":14372:14444   */\n      tag_286\n      jump\t// in\n    tag_535:\n        /* \"#utility.yul\":13934:14451   */\n      swap6\n      swap5\n      pop\n      pop\n      pop\n      pop\n      pop\n      jump\t// out\n        /* \"#utility.yul\":14457:15076   */\n    tag_90:\n        /* \"#utility.yul\":14534:14540   */\n      0x00\n        /* \"#utility.yul\":14542:14548   */\n      0x00\n        /* \"#utility.yul\":14550:14556   */\n      0x00\n        /* \"#utility.yul\":14599:14601   */\n      0x60\n        /* \"#utility.yul\":14587:14596   */\n      dup5\n        /* \"#utility.yul\":14578:14585   */\n      dup7\n        /* \"#utility.yul\":14574:14597   */\n      sub\n        /* \"#utility.yul\":14570:14602   */\n      slt\n        /* \"#utility.yul\":14567:14686   */\n      iszero\n      tag_537\n      jumpi\n        /* \"#utility.yul\":14605:14684   */\n      tag_538\n      tag_279\n      jump\t// in\n    tag_538:\n        /* \"#utility.yul\":14567:14686   */\n    tag_537:\n        /* \"#utility.yul\":14725:14726   */\n      0x00\n        /* \"#utility.yul\":14750:14803   */\n      tag_539\n        /* \"#utility.yul\":14795:14802   */\n      dup7\n        /* \"#utility.yul\":14786:14792   */\n      dup3\n        /* \"#utility.yul\":14775:14784   */\n      dup8\n        /* \"#utility.yul\":14771:14793   */\n      add\n        /* \"#utility.yul\":14750:14803   */\n      tag_283\n      jump\t// in\n    tag_539:\n        /* \"#utility.yul\":14740:14803   */\n      swap4\n      pop\n        /* \"#utility.yul\":14696:14813   */\n      pop\n        /* \"#utility.yul\":14852:14854   */\n      0x20\n        /* \"#utility.yul\":14878:14931   */\n      tag_540\n        /* \"#utility.yul\":14923:14930   */\n      dup7\n        /* \"#utility.yul\":14914:14920   */\n      dup3\n        /* \"#utility.yul\":14903:14912   */\n      dup8\n        /* \"#utility.yul\":14899:14921   */\n      add\n        /* \"#utility.yul\":14878:14931   */\n      tag_283\n      jump\t// in\n    tag_540:\n        /* \"#utility.yul\":14868:14931   */\n      swap3\n      pop\n        /* \"#utility.yul\":14823:14941   */\n      pop\n        /* \"#utility.yul\":14980:14982   */\n      0x40\n        /* \"#utility.yul\":15006:15059   */\n      tag_541\n        /* \"#utility.yul\":15051:15058   */\n      dup7\n        /* \"#utility.yul\":15042:15048   */\n      dup3\n        /* \"#utility.yul\":15031:15040   */\n      dup8\n        /* \"#utility.yul\":15027:15049   */\n      add\n        /* \"#utility.yul\":15006:15059   */\n      tag_283\n      jump\t// in\n    tag_541:\n        /* \"#utility.yul\":14996:15059   */\n      swap2\n      pop\n        /* \"#utility.yul\":14951:15069   */\n      pop\n        /* \"#utility.yul\":14457:15076   */\n      swap3\n      pop\n      swap3\n      pop\n      swap3\n      jump\t// out\n        /* \"#utility.yul\":15082:15393   */\n    tag_323:\n        /* \"#utility.yul\":15159:15163   */\n      0x00\n        /* \"#utility.yul\":15249:15267   */\n      0xffffffffffffffff\n        /* \"#utility.yul\":15241:15247   */\n      dup3\n        /* \"#utility.yul\":15238:15268   */\n      gt\n        /* \"#utility.yul\":15235:15291   */\n      iszero\n      tag_543\n      jumpi\n        /* \"#utility.yul\":15271:15289   */\n      tag_544\n      tag_297\n      jump\t// in\n    tag_544:\n        /* \"#utility.yul\":15235:15291   */\n    tag_543:\n        /* \"#utility.yul\":15321:15325   */\n      0x20\n        /* \"#utility.yul\":15313:15319   */\n      dup3\n        /* \"#utility.yul\":15309:15326   */\n      mul\n        /* \"#utility.yul\":15301:15326   */\n      swap1\n      pop\n        /* \"#utility.yul\":15381:15385   */\n      0x20\n        /* \"#utility.yul\":15375:15379   */\n      dup2\n        /* \"#utility.yul\":15371:15386   */\n      add\n        /* \"#utility.yul\":15363:15386   */\n      swap1\n      pop\n        /* \"#utility.yul\":15082:15393   */\n      swap2\n      swap1\n      pop\n      jump\t// out\n        /* \"#utility.yul\":15399:15516   */\n    tag_324:\n        /* \"#utility.yul\":15508:15509   */\n      0x00\n        /* \"#utility.yul\":15505:15506   */\n      0x00\n        /* \"#utility.yul\":15498:15510   */\n      revert\n        /* \"#utility.yul\":15539:16249   */\n    tag_325:\n        /* \"#utility.yul\":15635:15640   */\n      0x00\n        /* \"#utility.yul\":15660:15741   */\n      tag_547\n        /* \"#utility.yul\":15676:15740   */\n      tag_548\n        /* \"#utility.yul\":15733:15739   */\n      dup5\n        /* \"#utility.yul\":15676:15740   */\n      tag_323\n      jump\t// in\n    tag_548:\n        /* \"#utility.yul\":15660:15741   */\n      tag_299\n      jump\t// in\n    tag_547:\n        /* \"#utility.yul\":15651:15741   */\n      swap1\n      pop\n        /* \"#utility.yul\":15761:15766   */\n      dup1\n        /* \"#utility.yul\":15790:15796   */\n      dup4\n        /* \"#utility.yul\":15783:15788   */\n      dup3\n        /* \"#utility.yul\":15776:15797   */\n      mstore\n        /* \"#utility.yul\":15824:15828   */\n      0x20\n        /* \"#utility.yul\":15817:15822   */\n      dup3\n        /* \"#utility.yul\":15813:15829   */\n      add\n        /* \"#utility.yul\":15806:15829   */\n      swap1\n      pop\n        /* \"#utility.yul\":15877:15881   */\n      0x20\n        /* \"#utility.yul\":15869:15875   */\n      dup5\n        /* \"#utility.yul\":15865:15882   */\n      mul\n        /* \"#utility.yul\":15857:15863   */\n      dup4\n        /* \"#utility.yul\":15853:15883   */\n      add\n        /* \"#utility.yul\":15906:15909   */\n      dup6\n        /* \"#utility.yul\":15898:15904   */\n      dup2\n        /* \"#utility.yul\":15895:15910   */\n      gt\n        /* \"#utility.yul\":15892:16014   */\n      iszero\n      tag_549\n      jumpi\n        /* \"#utility.yul\":15925:16004   */\n      tag_550\n      tag_324\n      jump\t// in\n    tag_550:\n        /* \"#utility.yul\":15892:16014   */\n    tag_549:\n        /* \"#utility.yul\":16040:16046   */\n      dup4\n        /* \"#utility.yul\":16023:16243   */\n    tag_551:\n        /* \"#utility.yul\":16057:16063   */\n      dup2\n        /* \"#utility.yul\":16052:16055   */\n      dup2\n        /* \"#utility.yul\":16049:16064   */\n      lt\n        /* \"#utility.yul\":16023:16243   */\n      iszero\n      tag_553\n      jumpi\n        /* \"#utility.yul\":16132:16135   */\n      dup1\n        /* \"#utility.yul\":16161:16198   */\n      tag_554\n        /* \"#utility.yul\":16194:16197   */\n      dup9\n        /* \"#utility.yul\":16182:16192   */\n      dup3\n        /* \"#utility.yul\":16161:16198   */\n      tag_283\n      jump\t// in\n    tag_554:\n        /* \"#utility.yul\":16156:16159   */\n      dup5\n        /* \"#utility.yul\":16149:16199   */\n      mstore\n        /* \"#utility.yul\":16228:16232   */\n      0x20\n        /* \"#utility.yul\":16223:16226   */\n      dup5\n        /* \"#utility.yul\":16219:16233   */\n      add\n        /* \"#utility.yul\":16212:16233   */\n      swap4\n      pop\n        /* \"#utility.yul\":16099:16243   */\n      pop\n        /* \"#utility.yul\":16083:16087   */\n      0x20\n        /* \"#utility.yul\":16078:16081   */\n      dup2\n        /* \"#utility.yul\":16074:16088   */\n      add\n        /* \"#utility.yul\":16067:16088   */\n      swap1\n      pop\n        /* \"#utility.yul\":16023:16243   */\n      jump(tag_551)\n    tag_553:\n        /* \"#utility.yul\":16027:16048   */\n      pop\n        /* \"#utility.yul\":15641:16249   */\n      pop\n      pop\n        /* \"#utility.yul\":15539:16249   */\n      swap4\n      swap3\n      pop\n      pop\n      pop\n      jump\t// out\n        /* \"#utility.yul\":16272:16642   */\n    tag_326:\n        /* \"#utility.yul\":16343:16348   */\n      0x00\n        /* \"#utility.yul\":16392:16395   */\n      dup3\n        /* \"#utility.yul\":16385:16389   */\n      0x1f\n        /* \"#utility.yul\":16377:16383   */\n      dup4\n        /* \"#utility.yul\":16373:16390   */\n      add\n        /* \"#utility.yul\":16369:16396   */\n      slt\n        /* \"#utility.yul\":16359:16481   */\n      tag_556\n      jumpi\n        /* \"#utility.yul\":16400:16479   */\n      tag_557\n      tag_295\n      jump\t// in\n    tag_557:\n        /* \"#utility.yul\":16359:16481   */\n    tag_556:\n        /* \"#utility.yul\":16517:16523   */\n      dup2\n        /* \"#utility.yul\":16504:16524   */\n      calldataload\n        /* \"#utility.yul\":16542:16636   */\n      tag_558\n        /* \"#utility.yul\":16632:16635   */\n      dup5\n        /* \"#utility.yul\":16624:16630   */\n      dup3\n        /* \"#utility.yul\":16617:16621   */\n      0x20\n        /* \"#utility.yul\":16609:16615   */\n      dup7\n        /* \"#utility.yul\":16605:16622   */\n      add\n        /* \"#utility.yul\":16542:16636   */\n      tag_325\n      jump\t// in\n    tag_558:\n        /* \"#utility.yul\":16533:16636   */\n      swap2\n      pop\n        /* \"#utility.yul\":16349:16642   */\n      pop\n        /* \"#utility.yul\":16272:16642   */\n      swap3\n      swap2\n      pop\n      pop\n      jump\t// out\n        /* \"#utility.yul\":16648:17757   */\n    tag_94:\n        /* \"#utility.yul\":16762:16768   */\n      0x00\n        /* \"#utility.yul\":16770:16776   */\n      0x00\n        /* \"#utility.yul\":16778:16784   */\n      0x00\n        /* \"#utility.yul\":16786:16792   */\n      0x00\n        /* \"#utility.yul\":16794:16800   */\n      0x00\n        /* \"#utility.yul\":16843:16846   */\n      0xa0\n        /* \"#utility.yul\":16831:16840   */\n      dup7\n        /* \"#utility.yul\":16822:16829   */\n      dup9\n        /* \"#utility.yul\":16818:16841   */\n      sub\n        /* \"#utility.yul\":16814:16847   */\n      slt\n        /* \"#utility.yul\":16811:16931   */\n      iszero\n      tag_560\n      jumpi\n        /* \"#utility.yul\":16850:16929   */\n      tag_561\n      tag_279\n      jump\t// in\n    tag_561:\n        /* \"#utility.yul\":16811:16931   */\n    tag_560:\n        /* \"#utility.yul\":16970:16971   */\n      0x00\n        /* \"#utility.yul\":16995:17048   */\n      tag_562\n        /* \"#utility.yul\":17040:17047   */\n      dup9\n        /* \"#utility.yul\":17031:17037   */\n      dup3\n        /* \"#utility.yul\":17020:17029   */\n      dup10\n        /* \"#utility.yul\":17016:17038   */\n      add\n        /* \"#utility.yul\":16995:17048   */\n      tag_309\n      jump\t// in\n    tag_562:\n        /* \"#utility.yul\":16985:17048   */\n      swap6\n      pop\n        /* \"#utility.yul\":16941:17058   */\n      pop\n        /* \"#utility.yul\":17125:17127   */\n      0x20\n        /* \"#utility.yul\":17114:17123   */\n      dup7\n        /* \"#utility.yul\":17110:17128   */\n      add\n        /* \"#utility.yul\":17097:17129   */\n      calldataload\n        /* \"#utility.yul\":17156:17174   */\n      0xffffffffffffffff\n        /* \"#utility.yul\":17148:17154   */\n      dup2\n        /* \"#utility.yul\":17145:17175   */\n      gt\n        /* \"#utility.yul\":17142:17259   */\n      iszero\n      tag_563\n      jumpi\n        /* \"#utility.yul\":17178:17257   */\n      tag_564\n      tag_280\n      jump\t// in\n    tag_564:\n        /* \"#utility.yul\":17142:17259   */\n    tag_563:\n        /* \"#utility.yul\":17283:17361   */\n      tag_565\n        /* \"#utility.yul\":17353:17360   */\n      dup9\n        /* \"#utility.yul\":17344:17350   */\n      dup3\n        /* \"#utility.yul\":17333:17342   */\n      dup10\n        /* \"#utility.yul\":17329:17351   */\n      add\n        /* \"#utility.yul\":17283:17361   */\n      tag_326\n      jump\t// in\n    tag_565:\n        /* \"#utility.yul\":17273:17361   */\n      swap5\n      pop\n        /* \"#utility.yul\":17068:17371   */\n      pop\n        /* \"#utility.yul\":17410:17412   */\n      0x40\n        /* \"#utility.yul\":17436:17486   */\n      tag_566\n        /* \"#utility.yul\":17478:17485   */\n      dup9\n        /* \"#utility.yul\":17469:17475   */\n      dup3\n        /* \"#utility.yul\":17458:17467   */\n      dup10\n        /* \"#utility.yul\":17454:17476   */\n      add\n        /* \"#utility.yul\":17436:17486   */\n      tag_320\n      jump\t// in\n    tag_566:\n        /* \"#utility.yul\":17426:17486   */\n      swap4\n      pop\n        /* \"#utility.yul\":17381:17496   */\n      pop\n        /* \"#utility.yul\":17535:17537   */\n      0x60\n        /* \"#utility.yul\":17561:17611   */\n      tag_567\n        /* \"#utility.yul\":17603:17610   */\n      dup9\n        /* \"#utility.yul\":17594:17600   */\n      dup3\n        /* \"#utility.yul\":17583:17592   */\n      dup10\n        /* \"#utility.yul\":17579:17601   */\n      add\n        /* \"#utility.yul\":17561:17611   */\n      tag_320\n      jump\t// in\n    tag_567:\n        /* \"#utility.yul\":17551:17611   */\n      swap3\n      pop\n        /* \"#utility.yul\":17506:17621   */\n      pop\n        /* \"#utility.yul\":17660:17663   */\n      0x80\n        /* \"#utility.yul\":17687:17740   */\n      tag_568\n        /* \"#utility.yul\":17732:17739   */\n      dup9\n        /* \"#utility.yul\":17723:17729   */\n      dup3\n        /* \"#utility.yul\":17712:17721   */\n      dup10\n        /* \"#utility.yul\":17708:17730   */\n      add\n        /* \"#utility.yul\":17687:17740   */\n      tag_322\n      jump\t// in\n    tag_568:\n        /* \"#utility.yul\":17677:17740   */\n      swap2\n      pop\n        /* \"#utility.yul\":17631:17750   */\n      pop\n        /* \"#utility.yul\":16648:17757   */\n      swap3\n      swap6\n      pop\n      swap3\n      swap6\n      swap1\n      swap4\n      pop\n      jump\t// out\n        /* \"#utility.yul\":17763:18237   */\n    tag_98:\n        /* \"#utility.yul\":17831:17837   */\n      0x00\n        /* \"#utility.yul\":17839:17845   */\n      0x00\n        /* \"#utility.yul\":17888:17890   */\n      0x40\n        /* \"#utility.yul\":17876:17885   */\n      dup4\n        /* \"#utility.yul\":17867:17874   */\n      dup6\n        /* \"#utility.yul\":17863:17886   */\n      sub\n        /* \"#utility.yul\":17859:17891   */\n      slt\n        /* \"#utility.yul\":17856:17975   */\n      iszero\n      tag_570\n      jumpi\n        /* \"#utility.yul\":17894:17973   */\n      tag_571\n      tag_279\n      jump\t// in\n    tag_571:\n        /* \"#utility.yul\":17856:17975   */\n    tag_570:\n        /* \"#utility.yul\":18014:18015   */\n      0x00\n        /* \"#utility.yul\":18039:18092   */\n      tag_572\n        /* \"#utility.yul\":18084:18091   */\n      dup6\n        /* \"#utility.yul\":18075:18081   */\n      dup3\n        /* \"#utility.yul\":18064:18073   */\n      dup7\n        /* \"#utility.yul\":18060:18082   */\n      add\n        /* \"#utility.yul\":18039:18092   */\n      tag_309\n      jump\t// in\n    tag_572:\n        /* \"#utility.yul\":18029:18092   */\n      swap3\n      pop\n        /* \"#utility.yul\":17985:18102   */\n      pop\n        /* \"#utility.yul\":18141:18143   */\n      0x20\n        /* \"#utility.yul\":18167:18220   */\n      tag_573\n        /* \"#utility.yul\":18212:18219   */\n      dup6\n        /* \"#utility.yul\":18203:18209   */\n      dup3\n        /* \"#utility.yul\":18192:18201   */\n      dup7\n        /* \"#utility.yul\":18188:18210   */\n      add\n        /* \"#utility.yul\":18167:18220   */\n      tag_322\n      jump\t// in\n    tag_573:\n        /* \"#utility.yul\":18157:18220   */\n      swap2\n      pop\n        /* \"#utility.yul\":18112:18230   */\n      pop\n        /* \"#utility.yul\":17763:18237   */\n      swap3\n      pop\n      swap3\n      swap1\n      pop\n      jump\t// out\n        /* \"#utility.yul\":18243:19228   */\n    tag_105:\n        /* \"#utility.yul\":18528:18532   */\n      0x00\n        /* \"#utility.yul\":18566:18569   */\n      0xe0\n        /* \"#utility.yul\":18555:18564   */\n      dup3\n        /* \"#utility.yul\":18551:18570   */\n      add\n        /* \"#utility.yul\":18543:18570   */\n      swap1\n      pop\n        /* \"#utility.yul\":18580:18651   */\n      tag_575\n        /* \"#utility.yul\":18648:18649   */\n      0x00\n        /* \"#utility.yul\":18637:18646   */\n      dup4\n        /* \"#utility.yul\":18633:18650   */\n      add\n        /* \"#utility.yul\":18624:18630   */\n      dup11\n        /* \"#utility.yul\":18580:18651   */\n      tag_284\n      jump\t// in\n    tag_575:\n        /* \"#utility.yul\":18661:18733   */\n      tag_576\n        /* \"#utility.yul\":18729:18731   */\n      0x20\n        /* \"#utility.yul\":18718:18727   */\n      dup4\n        /* \"#utility.yul\":18714:18732   */\n      add\n        /* \"#utility.yul\":18705:18711   */\n      dup10\n        /* \"#utility.yul\":18661:18733   */\n      tag_284\n      jump\t// in\n    tag_576:\n        /* \"#utility.yul\":18743:18815   */\n      tag_577\n        /* \"#utility.yul\":18811:18813   */\n      0x40\n        /* \"#utility.yul\":18800:18809   */\n      dup4\n        /* \"#utility.yul\":18796:18814   */\n      add\n        /* \"#utility.yul\":18787:18793   */\n      dup9\n        /* \"#utility.yul\":18743:18815   */\n      tag_286\n      jump\t// in\n    tag_577:\n        /* \"#utility.yul\":18825:18897   */\n      tag_578\n        /* \"#utility.yul\":18893:18895   */\n      0x60\n        /* \"#utility.yul\":18882:18891   */\n      dup4\n        /* \"#utility.yul\":18878:18896   */\n      add\n        /* \"#utility.yul\":18869:18875   */\n      dup8\n        /* \"#utility.yul\":18825:18897   */\n      tag_289\n      jump\t// in\n    tag_578:\n        /* \"#utility.yul\":18907:18974   */\n      tag_579\n        /* \"#utility.yul\":18969:18972   */\n      0x80\n        /* \"#utility.yul\":18958:18967   */\n      dup4\n        /* \"#utility.yul\":18954:18973   */\n      add\n        /* \"#utility.yul\":18945:18951   */\n      dup7\n        /* \"#utility.yul\":18907:18974   */\n      tag_311\n      jump\t// in\n    tag_579:\n        /* \"#utility.yul\":19022:19031   */\n      dup2\n        /* \"#utility.yul\":19016:19020   */\n      dup2\n        /* \"#utility.yul\":19012:19032   */\n      sub\n        /* \"#utility.yul\":19006:19009   */\n      0xa0\n        /* \"#utility.yul\":18995:19004   */\n      dup4\n        /* \"#utility.yul\":18991:19010   */\n      add\n        /* \"#utility.yul\":18984:19033   */\n      mstore\n        /* \"#utility.yul\":19050:19128   */\n      tag_580\n        /* \"#utility.yul\":19123:19127   */\n      dup2\n        /* \"#utility.yul\":19114:19120   */\n      dup6\n        /* \"#utility.yul\":19050:19128   */\n      tag_294\n      jump\t// in\n    tag_580:\n        /* \"#utility.yul\":19042:19128   */\n      swap1\n      pop\n        /* \"#utility.yul\":19138:19221   */\n      tag_581\n        /* \"#utility.yul\":19216:19219   */\n      0xc0\n        /* \"#utility.yul\":19205:19214   */\n      dup4\n        /* \"#utility.yul\":19201:19220   */\n      add\n        /* \"#utility.yul\":19192:19198   */\n      dup5\n        /* \"#utility.yul\":19138:19221   */\n      tag_307\n      jump\t// in\n    tag_581:\n        /* \"#utility.yul\":18243:19228   */\n      swap9\n      swap8\n      pop\n      pop\n      pop\n      pop\n      pop\n      pop\n      pop\n      pop\n      jump\t// out\n        /* \"#utility.yul\":19234:19398   */\n    tag_327:\n        /* \"#utility.yul\":19374:19390   */\n      0x4e6f742064617461206f776e6572000000000000000000000000000000000000\n        /* \"#utility.yul\":19370:19371   */\n      0x00\n        /* \"#utility.yul\":19362:19368   */\n      dup3\n        /* \"#utility.yul\":19358:19372   */\n      add\n        /* \"#utility.yul\":19351:19391   */\n      mstore\n        /* \"#utility.yul\":19234:19398   */\n      pop\n      jump\t// out\n        /* \"#utility.yul\":19404:19770   */\n    tag_328:\n        /* \"#utility.yul\":19546:19549   */\n      0x00\n        /* \"#utility.yul\":19567:19634   */\n      tag_584\n        /* \"#utility.yul\":19631:19633   */\n      0x0e\n        /* \"#utility.yul\":19626:19629   */\n      dup4\n        /* \"#utility.yul\":19567:19634   */\n      tag_291\n      jump\t// in\n    tag_584:\n        /* \"#utility.yul\":19560:19634   */\n      swap2\n      pop\n        /* \"#utility.yul\":19643:19736   */\n      tag_585\n        /* \"#utility.yul\":19732:19735   */\n      dup3\n        /* \"#utility.yul\":19643:19736   */\n      tag_327\n      jump\t// in\n    tag_585:\n        /* \"#utility.yul\":19761:19763   */\n      0x20\n        /* \"#utility.yul\":19756:19759   */\n      dup3\n        /* \"#utility.yul\":19752:19764   */\n      add\n        /* \"#utility.yul\":19745:19764   */\n      swap1\n      pop\n        /* \"#utility.yul\":19404:19770   */\n      swap2\n      swap1\n      pop\n      jump\t// out\n        /* \"#utility.yul\":19776:20195   */\n    tag_109:\n        /* \"#utility.yul\":19942:19946   */\n      0x00\n        /* \"#utility.yul\":19980:19982   */\n      0x20\n        /* \"#utility.yul\":19969:19978   */\n      dup3\n        /* \"#utility.yul\":19965:19983   */\n      add\n        /* \"#utility.yul\":19957:19983   */\n      swap1\n      pop\n        /* \"#utility.yul\":20029:20038   */\n      dup2\n        /* \"#utility.yul\":20023:20027   */\n      dup2\n        /* \"#utility.yul\":20019:20039   */\n      sub\n        /* \"#utility.yul\":20015:20016   */\n      0x00\n        /* \"#utility.yul\":20004:20013   */\n      dup4\n        /* \"#utility.yul\":20000:20017   */\n      add\n        /* \"#utility.yul\":19993:20040   */\n      mstore\n        /* \"#utility.yul\":20057:20188   */\n      tag_587\n        /* \"#utility.yul\":20183:20187   */\n      dup2\n        /* \"#utility.yul\":20057:20188   */\n      tag_328\n      jump\t// in\n    tag_587:\n        /* \"#utility.yul\":20049:20188   */\n      swap1\n      pop\n        /* \"#utility.yul\":19776:20195   */\n      swap2\n      swap1\n      pop\n      jump\t// out\n        /* \"#utility.yul\":20201:20366   */\n    tag_329:\n        /* \"#utility.yul\":20341:20358   */\n      0x44617461206e6f74206163746976650000000000000000000000000000000000\n        /* \"#utility.yul\":20337:20338   */\n      0x00\n        /* \"#utility.yul\":20329:20335   */\n      dup3\n        /* \"#utility.yul\":20325:20339   */\n      add\n        /* \"#utility.yul\":20318:20359   */\n      mstore\n        /* \"#utility.yul\":20201:20366   */\n      pop\n      jump\t// out\n        /* \"#utility.yul\":20372:20738   */\n    tag_330:\n        /* \"#utility.yul\":20514:20517   */\n      0x00\n        /* \"#utility.yul\":20535:20602   */\n      tag_590\n        /* \"#utility.yul\":20599:20601   */\n      0x0f\n        /* \"#utility.yul\":20594:20597   */\n      dup4\n        /* \"#utility.yul\":20535:20602   */\n      tag_291\n      jump\t// in\n    tag_590:\n        /* \"#utility.yul\":20528:20602   */\n      swap2\n      pop\n        /* \"#utility.yul\":20611:20704   */\n      tag_591\n        /* \"#utility.yul\":20700:20703   */\n      dup3\n        /* \"#utility.yul\":20611:20704   */\n      tag_329\n      jump\t// in\n    tag_591:\n        /* \"#utility.yul\":20729:20731   */\n      0x20\n        /* \"#utility.yul\":20724:20727   */\n      dup3\n        /* \"#utility.yul\":20720:20732   */\n      add\n        /* \"#utility.yul\":20713:20732   */\n      swap1\n      pop\n        /* \"#utility.yul\":20372:20738   */\n      swap2\n      swap1\n      pop\n      jump\t// out\n        /* \"#utility.yul\":20744:21163   */\n    tag_113:\n        /* \"#utility.yul\":20910:20914   */\n      0x00\n        /* \"#utility.yul\":20948:20950   */\n      0x20\n        /* \"#utility.yul\":20937:20946   */\n      dup3\n        /* \"#utility.yul\":20933:20951   */\n      add\n        /* \"#utility.yul\":20925:20951   */\n      swap1\n      pop\n        /* \"#utility.yul\":20997:21006   */\n      dup2\n        /* \"#utility.yul\":20991:20995   */\n      dup2\n        /* \"#utility.yul\":20987:21007   */\n      sub\n        /* \"#utility.yul\":20983:20984   */\n      0x00\n        /* \"#utility.yul\":20972:20981   */\n      dup4\n        /* \"#utility.yul\":20968:20985   */\n      add\n        /* \"#utility.yul\":20961:21008   */\n      mstore\n        /* \"#utility.yul\":21025:21156   */\n      tag_593\n        /* \"#utility.yul\":21151:21155   */\n      dup2\n        /* \"#utility.yul\":21025:21156   */\n      tag_330\n      jump\t// in\n    tag_593:\n        /* \"#utility.yul\":21017:21156   */\n      swap1\n      pop\n        /* \"#utility.yul\":20744:21163   */\n      swap2\n      swap1\n      pop\n      jump\t// out\n        /* \"#utility.yul\":21169:21334   */\n    tag_331:\n        /* \"#utility.yul\":21309:21326   */\n      0x416c726561647920707269766174650000000000000000000000000000000000\n        /* \"#utility.yul\":21305:21306   */\n      0x00\n        /* \"#utility.yul\":21297:21303   */\n      dup3\n        /* \"#utility.yul\":21293:21307   */\n      add\n        /* \"#utility.yul\":21286:21327   */\n      mstore\n        /* \"#utility.yul\":21169:21334   */\n      pop\n      jump\t// out\n        /* \"#utility.yul\":21340:21706   */\n    tag_332:\n        /* \"#utility.yul\":21482:21485   */\n      0x00\n        /* \"#utility.yul\":21503:21570   */\n      tag_596\n        /* \"#utility.yul\":21567:21569   */\n      0x0f\n        /* \"#utility.yul\":21562:21565   */\n      dup4\n        /* \"#utility.yul\":21503:21570   */\n      tag_291\n      jump\t// in\n    tag_596:\n        /* \"#utility.yul\":21496:21570   */\n      swap2\n      pop\n        /* \"#utility.yul\":21579:21672   */\n      tag_597\n        /* \"#utility.yul\":21668:21671   */\n      dup3\n        /* \"#utility.yul\":21579:21672   */\n      tag_331\n      jump\t// in\n    tag_597:\n        /* \"#utility.yul\":21697:21699   */\n      0x20\n        /* \"#utility.yul\":21692:21695   */\n      dup3\n        /* \"#utility.yul\":21688:21700   */\n      add\n        /* \"#utility.yul\":21681:21700   */\n      swap1\n      pop\n        /* \"#utility.yul\":21340:21706   */\n      swap2\n      swap1\n      pop\n      jump\t// out\n        /* \"#utility.yul\":21712:22131   */\n    tag_121:\n        /* \"#utility.yul\":21878:21882   */\n      0x00\n        /* \"#utility.yul\":21916:21918   */\n      0x20\n        /* \"#utility.yul\":21905:21914   */\n      dup3\n        /* \"#utility.yul\":21901:21919   */\n      add\n        /* \"#utility.yul\":21893:21919   */\n      swap1\n      pop\n        /* \"#utility.yul\":21965:21974   */\n      dup2\n        /* \"#utility.yul\":21959:21963   */\n      dup2\n        /* \"#utility.yul\":21955:21975   */\n      sub\n        /* \"#utility.yul\":21951:21952   */\n      0x00\n        /* \"#utility.yul\":21940:21949   */\n      dup4\n        /* \"#utility.yul\":21936:21953   */\n      add\n        /* \"#utility.yul\":21929:21976   */\n      mstore\n        /* \"#utility.yul\":21993:22124   */\n      tag_599\n        /* \"#utility.yul\":22119:22123   */\n      dup2\n        /* \"#utility.yul\":21993:22124   */\n      tag_332\n      jump\t// in\n    tag_599:\n        /* \"#utility.yul\":21985:22124   */\n      swap1\n      pop\n        /* \"#utility.yul\":21712:22131   */\n      swap2\n      swap1\n      pop\n      jump\t// out\n        /* \"#utility.yul\":22137:22619   */\n    tag_125:\n        /* \"#utility.yul\":22306:22310   */\n      0x00\n        /* \"#utility.yul\":22344:22346   */\n      0x60\n        /* \"#utility.yul\":22333:22342   */\n      dup3\n        /* \"#utility.yul\":22329:22347   */\n      add\n        /* \"#utility.yul\":22321:22347   */\n      swap1\n      pop\n        /* \"#utility.yul\":22357:22438   */\n      tag_601\n        /* \"#utility.yul\":22435:22436   */\n      0x00\n        /* \"#utility.yul\":22424:22433   */\n      dup4\n        /* \"#utility.yul\":22420:22437   */\n      add\n        /* \"#utility.yul\":22411:22417   */\n      dup7\n        /* \"#utility.yul\":22357:22438   */\n      tag_307\n      jump\t// in\n    tag_601:\n        /* \"#utility.yul\":22448:22530   */\n      tag_602\n        /* \"#utility.yul\":22526:22528   */\n      0x20\n        /* \"#utility.yul\":22515:22524   */\n      dup4\n        /* \"#utility.yul\":22511:22529   */\n      add\n        /* \"#utility.yul\":22502:22508   */\n      dup6\n        /* \"#utility.yul\":22448:22530   */\n      tag_307\n      jump\t// in\n    tag_602:\n        /* \"#utility.yul\":22540:22612   */\n      tag_603\n        /* \"#utility.yul\":22608:22610   */\n      0x40\n        /* \"#utility.yul\":22597:22606   */\n      dup4\n        /* \"#utility.yul\":22593:22611   */\n      add\n        /* \"#utility.yul\":22584:22590   */\n      dup5\n        /* \"#utility.yul\":22540:22612   */\n      tag_286\n      jump\t// in\n    tag_603:\n        /* \"#utility.yul\":22137:22619   */\n      swap5\n      swap4\n      pop\n      pop\n      pop\n      pop\n      jump\t// out\n        /* \"#utility.yul\":22625:22793   */\n    tag_333:\n        /* \"#utility.yul\":22765:22785   */\n      0x4e6f2072656164207065726d697373696f6e0000000000000000000000000000\n        /* \"#utility.yul\":22761:22762   */\n      0x00\n        /* \"#utility.yul\":22753:22759   */\n      dup3\n        /* \"#utility.yul\":22749:22763   */\n      add\n        /* \"#utility.yul\":22742:22786   */\n      mstore\n        /* \"#utility.yul\":22625:22793   */\n      pop\n      jump\t// out\n        /* \"#utility.yul\":22799:23165   */\n    tag_334:\n        /* \"#utility.yul\":22941:22944   */\n      0x00\n        /* \"#utility.yul\":22962:23029   */\n      tag_606\n        /* \"#utility.yul\":23026:23028   */\n      0x12\n        /* \"#utility.yul\":23021:23024   */\n      dup4\n        /* \"#utility.yul\":22962:23029   */\n      tag_291\n      jump\t// in\n    tag_606:\n        /* \"#utility.yul\":22955:23029   */\n      swap2\n      pop\n        /* \"#utility.yul\":23038:23131   */\n      tag_607\n        /* \"#utility.yul\":23127:23130   */\n      dup3\n        /* \"#utility.yul\":23038:23131   */\n      tag_333\n      jump\t// in\n    tag_607:\n        /* \"#utility.yul\":23156:23158   */\n      0x20\n        /* \"#utility.yul\":23151:23154   */\n      dup3\n        /* \"#utility.yul\":23147:23159   */\n      add\n        /* \"#utility.yul\":23140:23159   */\n      swap1\n      pop\n        /* \"#utility.yul\":22799:23165   */\n      swap2\n      swap1\n      pop\n      jump\t// out\n        /* \"#utility.yul\":23171:23590   */\n    tag_137:\n        /* \"#utility.yul\":23337:23341   */\n      0x00\n        /* \"#utility.yul\":23375:23377   */\n      0x20\n        /* \"#utility.yul\":23364:23373   */\n      dup3\n        /* \"#utility.yul\":23360:23378   */\n      add\n        /* \"#utility.yul\":23352:23378   */\n      swap1\n      pop\n        /* \"#utility.yul\":23424:23433   */\n      dup2\n        /* \"#utility.yul\":23418:23422   */\n      dup2\n        /* \"#utility.yul\":23414:23434   */\n      sub\n        /* \"#utility.yul\":23410:23411   */\n      0x00\n        /* \"#utility.yul\":23399:23408   */\n      dup4\n        /* \"#utility.yul\":23395:23412   */\n      add\n        /* \"#utility.yul\":23388:23435   */\n      mstore\n        /* \"#utility.yul\":23452:23583   */\n      tag_609\n        /* \"#utility.yul\":23578:23582   */\n      dup2\n        /* \"#utility.yul\":23452:23583   */\n      tag_334\n      jump\t// in\n    tag_609:\n        /* \"#utility.yul\":23444:23583   */\n      swap1\n      pop\n        /* \"#utility.yul\":23171:23590   */\n      swap2\n      swap1\n      pop\n      jump\t// out\n        /* \"#utility.yul\":23596:23776   */\n    tag_335:\n        /* \"#utility.yul\":23644:23721   */\n      0x4e487b7100000000000000000000000000000000000000000000000000000000\n        /* \"#utility.yul\":23641:23642   */\n      0x00\n        /* \"#utility.yul\":23634:23722   */\n      mstore\n        /* \"#utility.yul\":23741:23745   */\n      0x22\n        /* \"#utility.yul\":23738:23739   */\n      0x04\n        /* \"#utility.yul\":23731:23746   */\n      mstore\n        /* \"#utility.yul\":23765:23769   */\n      0x24\n        /* \"#utility.yul\":23762:23763   */\n      0x00\n        /* \"#utility.yul\":23755:23770   */\n      revert\n        /* \"#utility.yul\":23782:24102   */\n    tag_142:\n        /* \"#utility.yul\":23826:23832   */\n      0x00\n        /* \"#utility.yul\":23863:23864   */\n      0x02\n        /* \"#utility.yul\":23857:23861   */\n      dup3\n        /* \"#utility.yul\":23853:23865   */\n      div\n        /* \"#utility.yul\":23843:23865   */\n      swap1\n      pop\n        /* \"#utility.yul\":23910:23911   */\n      0x01\n        /* \"#utility.yul\":23904:23908   */\n      dup3\n        /* \"#utility.yul\":23900:23912   */\n      and\n        /* \"#utility.yul\":23931:23949   */\n      dup1\n        /* \"#utility.yul\":23921:24002   */\n      tag_612\n      jumpi\n        /* \"#utility.yul\":23987:23991   */\n      0x7f\n        /* \"#utility.yul\":23979:23985   */\n      dup3\n        /* \"#utility.yul\":23975:23992   */\n      and\n        /* \"#utility.yul\":23965:23992   */\n      swap2\n      pop\n        /* \"#utility.yul\":23921:24002   */\n    tag_612:\n        /* \"#utility.yul\":24049:24051   */\n      0x20\n        /* \"#utility.yul\":24041:24047   */\n      dup3\n        /* \"#utility.yul\":24038:24052   */\n      lt\n        /* \"#utility.yul\":24018:24036   */\n      dup2\n        /* \"#utility.yul\":24015:24053   */\n      sub\n        /* \"#utility.yul\":24012:24096   */\n      tag_613\n      jumpi\n        /* \"#utility.yul\":24068:24086   */\n      tag_614\n      tag_335\n      jump\t// in\n    tag_614:\n        /* \"#utility.yul\":24012:24096   */\n    tag_613:\n        /* \"#utility.yul\":23833:24102   */\n      pop\n        /* \"#utility.yul\":23782:24102   */\n      swap2\n      swap1\n      pop\n      jump\t// out\n        /* \"#utility.yul\":24108:24202   */\n    tag_336:\n        /* \"#utility.yul\":24141:24149   */\n      0x00\n        /* \"#utility.yul\":24189:24194   */\n      dup2\n        /* \"#utility.yul\":24185:24187   */\n      0x60\n        /* \"#utility.yul\":24181:24195   */\n      shl\n        /* \"#utility.yul\":24160:24195   */\n      swap1\n      pop\n        /* \"#utility.yul\":24108:24202   */\n      swap2\n      swap1\n      pop\n      jump\t// out\n        /* \"#utility.yul\":24208:24302   */\n    tag_337:\n        /* \"#utility.yul\":24247:24254   */\n      0x00\n        /* \"#utility.yul\":24276:24296   */\n      tag_617\n        /* \"#utility.yul\":24290:24295   */\n      dup3\n        /* \"#utility.yul\":24276:24296   */\n      tag_336\n      jump\t// in\n    tag_617:\n        /* \"#utility.yul\":24265:24296   */\n      swap1\n      pop\n        /* \"#utility.yul\":24208:24302   */\n      swap2\n      swap1\n      pop\n      jump\t// out\n        /* \"#utility.yul\":24308:24408   */\n    tag_338:\n        /* \"#utility.yul\":24347:24354   */\n      0x00\n        /* \"#utility.yul\":24376:24402   */\n      tag_619\n        /* \"#utility.yul\":24396:24401   */\n      dup3\n        /* \"#utility.yul\":24376:24402   */\n      tag_337\n      jump\t// in\n    tag_619:\n        /* \"#utility.yul\":24365:24402   */\n      swap1\n      pop\n        /* \"#utility.yul\":24308:24408   */\n      swap2\n      swap1\n      pop\n      jump\t// out\n        /* \"#utility.yul\":24414:24571   */\n    tag_339:\n        /* \"#utility.yul\":24519:24564   */\n      tag_621\n        /* \"#utility.yul\":24539:24563   */\n      tag_622\n        /* \"#utility.yul\":24557:24562   */\n      dup3\n        /* \"#utility.yul\":24539:24563   */\n      tag_288\n      jump\t// in\n    tag_622:\n        /* \"#utility.yul\":24519:24564   */\n      tag_338\n      jump\t// in\n    tag_621:\n        /* \"#utility.yul\":24514:24517   */\n      dup3\n        /* \"#utility.yul\":24507:24565   */\n      mstore\n        /* \"#utility.yul\":24414:24571   */\n      pop\n      pop\n      jump\t// out\n        /* \"#utility.yul\":24577:24656   */\n    tag_340:\n        /* \"#utility.yul\":24616:24623   */\n      0x00\n        /* \"#utility.yul\":24645:24650   */\n      dup2\n        /* \"#utility.yul\":24634:24650   */\n      swap1\n      pop\n        /* \"#utility.yul\":24577:24656   */\n      swap2\n      swap1\n      pop\n      jump\t// out\n        /* \"#utility.yul\":24662:24819   */\n    tag_341:\n        /* \"#utility.yul\":24767:24812   */\n      tag_625\n        /* \"#utility.yul\":24787:24811   */\n      tag_626\n        /* \"#utility.yul\":24805:24810   */\n      dup3\n        /* \"#utility.yul\":24787:24811   */\n      tag_281\n      jump\t// in\n    tag_626:\n        /* \"#utility.yul\":24767:24812   */\n      tag_340\n      jump\t// in\n    tag_625:\n        /* \"#utility.yul\":24762:24765   */\n      dup3\n        /* \"#utility.yul\":24755:24813   */\n      mstore\n        /* \"#utility.yul\":24662:24819   */\n      pop\n      pop\n      jump\t// out\n        /* \"#utility.yul\":24825:24904   */\n    tag_342:\n        /* \"#utility.yul\":24864:24871   */\n      0x00\n        /* \"#utility.yul\":24893:24898   */\n      dup2\n        /* \"#utility.yul\":24882:24898   */\n      swap1\n      pop\n        /* \"#utility.yul\":24825:24904   */\n      swap2\n      swap1\n      pop\n      jump\t// out\n        /* \"#utility.yul\":24910:25067   */\n    tag_343:\n        /* \"#utility.yul\":25015:25060   */\n      tag_629\n        /* \"#utility.yul\":25035:25059   */\n      tag_630\n        /* \"#utility.yul\":25053:25058   */\n      dup3\n        /* \"#utility.yul\":25035:25059   */\n      tag_285\n      jump\t// in\n    tag_630:\n        /* \"#utility.yul\":25015:25060   */\n      tag_342\n      jump\t// in\n    tag_629:\n        /* \"#utility.yul\":25010:25013   */\n      dup3\n        /* \"#utility.yul\":25003:25061   */\n      mstore\n        /* \"#utility.yul\":24910:25067   */\n      pop\n      pop\n      jump\t// out\n        /* \"#utility.yul\":25073:25611   */\n    tag_149:\n        /* \"#utility.yul\":25241:25244   */\n      0x00\n        /* \"#utility.yul\":25256:25331   */\n      tag_632\n        /* \"#utility.yul\":25327:25330   */\n      dup3\n        /* \"#utility.yul\":25318:25324   */\n      dup7\n        /* \"#utility.yul\":25256:25331   */\n      tag_339\n      jump\t// in\n    tag_632:\n        /* \"#utility.yul\":25356:25358   */\n      0x14\n        /* \"#utility.yul\":25351:25354   */\n      dup3\n        /* \"#utility.yul\":25347:25359   */\n      add\n        /* \"#utility.yul\":25340:25359   */\n      swap2\n      pop\n        /* \"#utility.yul\":25369:25444   */\n      tag_633\n        /* \"#utility.yul\":25440:25443   */\n      dup3\n        /* \"#utility.yul\":25431:25437   */\n      dup6\n        /* \"#utility.yul\":25369:25444   */\n      tag_341\n      jump\t// in\n    tag_633:\n        /* \"#utility.yul\":25469:25471   */\n      0x20\n        /* \"#utility.yul\":25464:25467   */\n      dup3\n        /* \"#utility.yul\":25460:25472   */\n      add\n        /* \"#utility.yul\":25453:25472   */\n      swap2\n      pop\n        /* \"#utility.yul\":25482:25557   */\n      tag_634\n        /* \"#utility.yul\":25553:25556   */\n      dup3\n        /* \"#utility.yul\":25544:25550   */\n      dup5\n        /* \"#utility.yul\":25482:25557   */\n      tag_343\n      jump\t// in\n    tag_634:\n        /* \"#utility.yul\":25582:25584   */\n      0x20\n        /* \"#utility.yul\":25577:25580   */\n      dup3\n        /* \"#utility.yul\":25573:25585   */\n      add\n        /* \"#utility.yul\":25566:25585   */\n      swap2\n      pop\n        /* \"#utility.yul\":25602:25605   */\n      dup2\n        /* \"#utility.yul\":25595:25605   */\n      swap1\n      pop\n        /* \"#utility.yul\":25073:25611   */\n      swap5\n      swap4\n      pop\n      pop\n      pop\n      pop\n      jump\t// out\n        /* \"#utility.yul\":25617:25786   */\n    tag_344:\n        /* \"#utility.yul\":25757:25778   */\n      0x4461746120616c72656164792065786973747300000000000000000000000000\n        /* \"#utility.yul\":25753:25754   */\n      0x00\n        /* \"#utility.yul\":25745:25751   */\n      dup3\n        /* \"#utility.yul\":25741:25755   */\n      add\n        /* \"#utility.yul\":25734:25779   */\n      mstore\n        /* \"#utility.yul\":25617:25786   */\n      pop\n      jump\t// out\n        /* \"#utility.yul\":25792:26158   */\n    tag_345:\n        /* \"#utility.yul\":25934:25937   */\n      0x00\n        /* \"#utility.yul\":25955:26022   */\n      tag_637\n        /* \"#utility.yul\":26019:26021   */\n      0x13\n        /* \"#utility.yul\":26014:26017   */\n      dup4\n        /* \"#utility.yul\":25955:26022   */\n      tag_291\n      jump\t// in\n    tag_637:\n        /* \"#utility.yul\":25948:26022   */\n      swap2\n      pop\n        /* \"#utility.yul\":26031:26124   */\n      tag_638\n        /* \"#utility.yul\":26120:26123   */\n      dup3\n        /* \"#utility.yul\":26031:26124   */\n      tag_344\n      jump\t// in\n    tag_638:\n        /* \"#utility.yul\":26149:26151   */\n      0x20\n        /* \"#utility.yul\":26144:26147   */\n      dup3\n        /* \"#utility.yul\":26140:26152   */\n      add\n        /* \"#utility.yul\":26133:26152   */\n      swap1\n      pop\n        /* \"#utility.yul\":25792:26158   */\n      swap2\n      swap1\n      pop\n      jump\t// out\n        /* \"#utility.yul\":26164:26583   */\n    tag_152:\n        /* \"#utility.yul\":26330:26334   */\n      0x00\n        /* \"#utility.yul\":26368:26370   */\n      0x20\n        /* \"#utility.yul\":26357:26366   */\n      dup3\n        /* \"#utility.yul\":26353:26371   */\n      add\n        /* \"#utility.yul\":26345:26371   */\n      swap1\n      pop\n        /* \"#utility.yul\":26417:26426   */\n      dup2\n        /* \"#utility.yul\":26411:26415   */\n      dup2\n        /* \"#utility.yul\":26407:26427   */\n      sub\n        /* \"#utility.yul\":26403:26404   */\n      0x00\n        /* \"#utility.yul\":26392:26401   */\n      dup4\n        /* \"#utility.yul\":26388:26405   */\n      add\n        /* \"#utility.yul\":26381:26428   */\n      mstore\n        /* \"#utility.yul\":26445:26576   */\n      tag_640\n        /* \"#utility.yul\":26571:26575   */\n      dup2\n        /* \"#utility.yul\":26445:26576   */\n      tag_345\n      jump\t// in\n    tag_640:\n        /* \"#utility.yul\":26437:26576   */\n      swap1\n      pop\n        /* \"#utility.yul\":26164:26583   */\n      swap2\n      swap1\n      pop\n      jump\t// out\n        /* \"#utility.yul\":26589:26730   */\n    tag_346:\n        /* \"#utility.yul\":26638:26642   */\n      0x00\n        /* \"#utility.yul\":26661:26664   */\n      dup2\n        /* \"#utility.yul\":26653:26664   */\n      swap1\n      pop\n        /* \"#utility.yul\":26684:26687   */\n      dup2\n        /* \"#utility.yul\":26681:26682   */\n      0x00\n        /* \"#utility.yul\":26674:26688   */\n      mstore\n        /* \"#utility.yul\":26718:26722   */\n      0x20\n        /* \"#utility.yul\":26715:26716   */\n      0x00\n        /* \"#utility.yul\":26705:26723   */\n      keccak256\n        /* \"#utility.yul\":26697:26723   */\n      swap1\n      pop\n        /* \"#utility.yul\":26589:26730   */\n      swap2\n      swap1\n      pop\n      jump\t// out\n        /* \"#utility.yul\":26736:26829   */\n    tag_347:\n        /* \"#utility.yul\":26773:26779   */\n      0x00\n        /* \"#utility.yul\":26820:26822   */\n      0x20\n        /* \"#utility.yul\":26815:26817   */\n      0x1f\n        /* \"#utility.yul\":26808:26813   */\n      dup4\n        /* \"#utility.yul\":26804:26818   */\n      add\n        /* \"#utility.yul\":26800:26823   */\n      div\n        /* \"#utility.yul\":26790:26823   */\n      swap1\n      pop\n        /* \"#utility.yul\":26736:26829   */\n      swap2\n      swap1\n      pop\n      jump\t// out\n        /* \"#utility.yul\":26835:26942   */\n    tag_348:\n        /* \"#utility.yul\":26879:26887   */\n      0x00\n        /* \"#utility.yul\":26929:26934   */\n      dup3\n        /* \"#utility.yul\":26923:26927   */\n      dup3\n        /* \"#utility.yul\":26919:26935   */\n      shl\n        /* \"#utility.yul\":26898:26935   */\n      swap1\n      pop\n        /* \"#utility.yul\":26835:26942   */\n      swap3\n      swap2\n      pop\n      pop\n      jump\t// out\n        /* \"#utility.yul\":26948:27341   */\n    tag_349:\n        /* \"#utility.yul\":27017:27023   */\n      0x00\n        /* \"#utility.yul\":27067:27068   */\n      0x08\n        /* \"#utility.yul\":27055:27065   */\n      dup4\n        /* \"#utility.yul\":27051:27069   */\n      mul\n        /* \"#utility.yul\":27090:27187   */\n      tag_645\n        /* \"#utility.yul\":27120:27186   */\n      0xffffffffffffffffffffffffffffffffffffffffffffffffffffffffffffffff\n        /* \"#utility.yul\":27109:27118   */\n      dup3\n        /* \"#utility.yul\":27090:27187   */\n      tag_348\n      jump\t// in\n    tag_645:\n        /* \"#utility.yul\":27208:27247   */\n      tag_646\n        /* \"#utility.yul\":27238:27246   */\n      dup7\n        /* \"#utility.yul\":27227:27236   */\n      dup4\n        /* \"#utility.yul\":27208:27247   */\n      tag_348\n      jump\t// in\n    tag_646:\n        /* \"#utility.yul\":27196:27247   */\n      swap6\n      pop\n        /* \"#utility.yul\":27280:27284   */\n      dup1\n        /* \"#utility.yul\":27276:27285   */\n      not\n        /* \"#utility.yul\":27269:27274   */\n      dup5\n        /* \"#utility.yul\":27265:27286   */\n      and\n        /* \"#utility.yul\":27256:27286   */\n      swap4\n      pop\n        /* \"#utility.yul\":27329:27333   */\n      dup1\n        /* \"#utility.yul\":27319:27327   */\n      dup7\n        /* \"#utility.yul\":27315:27334   */\n      and\n        /* \"#utility.yul\":27308:27313   */\n      dup5\n        /* \"#utility.yul\":27305:27335   */\n      or\n        /* \"#utility.yul\":27295:27335   */\n      swap3\n      pop\n        /* \"#utility.yul\":27024:27341   */\n      pop\n      pop\n        /* \"#utility.yul\":26948:27341   */\n      swap4\n      swap3\n      pop\n      pop\n      pop\n      jump\t// out\n        /* \"#utility.yul\":27347:27407   */\n    tag_350:\n        /* \"#utility.yul\":27375:27378   */\n      0x00\n        /* \"#utility.yul\":27396:27401   */\n      dup2\n        /* \"#utility.yul\":27389:27401   */\n      swap1\n      pop\n        /* \"#utility.yul\":27347:27407   */\n      swap2\n      swap1\n      pop\n      jump\t// out\n        /* \"#utility.yul\":27413:27555   */\n    tag_351:\n        /* \"#utility.yul\":27463:27472   */\n      0x00\n        /* \"#utility.yul\":27496:27549   */\n      tag_649\n        /* \"#utility.yul\":27514:27548   */\n      tag_650\n        /* \"#utility.yul\":27523:27547   */\n      tag_651\n        /* \"#utility.yul\":27541:27546   */\n      dup5\n        /* \"#utility.yul\":27523:27547   */\n      tag_285\n      jump\t// in\n    tag_651:\n        /* \"#utility.yul\":27514:27548   */\n      tag_350\n      jump\t// in\n    tag_650:\n        /* \"#utility.yul\":27496:27549   */\n      tag_285\n      jump\t// in\n    tag_649:\n        /* \"#utility.yul\":27483:27549   */\n      swap1\n      pop\n        /* \"#utility.yul\":27413:27555   */\n      swap2\n      swap1\n      pop\n      jump\t// out\n        /* \"#utility.yul\":27561:27636   */\n    tag_352:\n        /* \"#utility.yul\":27604:27607   */\n      0x00\n        /* \"#utility.yul\":27625:27630   */\n      dup2\n        /* \"#utility.yul\":27618:27630   */\n      swap1\n      pop\n        /* \"#utility.yul\":27561:27636   */\n      swap2\n      swap1\n      pop\n      jump\t// out\n        /* \"#utility.yul\":27642:27911   */\n    tag_353:\n        /* \"#utility.yul\":27752:27791   */\n      tag_654\n        /* \"#utility.yul\":27783:27790   */\n      dup4\n        /* \"#utility.yul\":27752:27791   */\n      tag_351\n      jump\t// in\n    tag_654:\n        /* \"#utility.yul\":27813:27904   */\n      tag_655\n        /* \"#utility.yul\":27862:27903   */\n      tag_656\n        /* \"#utility.yul\":27886:27902   */\n      dup3\n        /* \"#utility.yul\":27862:27903   */\n      tag_352\n      jump\t// in\n    tag_656:\n        /* \"#utility.yul\":27854:27860   */\n      dup5\n        /* \"#utility.yul\":27847:27851   */\n      dup5\n        /* \"#utility.yul\":27841:27852   */\n      sload\n        /* \"#utility.yul\":27813:27904   */\n      tag_349\n      jump\t// in\n    tag_655:\n        /* \"#utility.yul\":27807:27811   */\n      dup3\n        /* \"#utility.yul\":27800:27905   */\n      sstore\n        /* \"#utility.yul\":27718:27911   */\n      pop\n        /* \"#utility.yul\":27642:27911   */\n      pop\n      pop\n      pop\n      jump\t// out\n        /* \"#utility.yul\":27917:27990   */\n    tag_354:\n        /* \"#utility.yul\":27962:27965   */\n      0x00\n        /* \"#utility.yul\":27983:27984   */\n      0x00\n        /* \"#utility.yul\":27976:27984   */\n      swap1\n      pop\n        /* \"#utility.yul\":27917:27990   */\n      swap1\n      jump\t// out\n        /* \"#utility.yul\":27996:28185   */\n    tag_355:\n        /* \"#utility.yul\":28073:28105   */\n      tag_659\n      tag_354\n      jump\t// in\n    tag_659:\n        /* \"#utility.yul\":28114:28179   */\n      tag_660\n        /* \"#utility.yul\":28172:28178   */\n      dup2\n        /* \"#utility.yul\":28164:28170   */\n      dup5\n        /* \"#utility.yul\":28158:28162   */\n      dup5\n        /* \"#utility.yul\":28114:28179   */\n      tag_353\n      jump\t// in\n    tag_660:\n        /* \"#utility.yul\":28049:28185   */\n      pop\n        /* \"#utility.yul\":27996:28185   */\n      pop\n      pop\n      jump\t// out\n        /* \"#utility.yul\":28191:28377   */\n    tag_356:\n        /* \"#utility.yul\":28251:28371   */\n    tag_662:\n        /* \"#utility.yul\":28268:28271   */\n      dup2\n        /* \"#utility.yul\":28261:28266   */\n      dup2\n        /* \"#utility.yul\":28258:28272   */\n      lt\n        /* \"#utility.yul\":28251:28371   */\n      iszero\n      tag_664\n      jumpi\n        /* \"#utility.yul\":28322:28361   */\n      tag_665\n        /* \"#utility.yul\":28359:28360   */\n      0x00\n        /* \"#utility.yul\":28352:28357   */\n      dup3\n        /* \"#utility.yul\":28322:28361   */\n      tag_355\n      jump\t// in\n    tag_665:\n        /* \"#utility.yul\":28295:28296   */\n      0x01\n        /* \"#utility.yul\":28288:28293   */\n      dup2\n        /* \"#utility.yul\":28284:28297   */\n      add\n        /* \"#utility.yul\":28275:28297   */\n      swap1\n      pop\n        /* \"#utility.yul\":28251:28371   */\n      jump(tag_662)\n    tag_664:\n        /* \"#utility.yul\":28191:28377   */\n      pop\n      pop\n      jump\t// out\n        /* \"#utility.yul\":28383:28926   */\n    tag_357:\n        /* \"#utility.yul\":28484:28486   */\n      0x1f\n        /* \"#utility.yul\":28479:28482   */\n      dup3\n        /* \"#utility.yul\":28476:28487   */\n      gt\n        /* \"#utility.yul\":28473:28919   */\n      iszero\n      tag_667\n      jumpi\n        /* \"#utility.yul\":28518:28556   */\n      tag_668\n        /* \"#utility.yul\":28550:28555   */\n      dup2\n        /* \"#utility.yul\":28518:28556   */\n      tag_346\n      jump\t// in\n    tag_668:\n        /* \"#utility.yul\":28602:28631   */\n      tag_669\n        /* \"#utility.yul\":28620:28630   */\n      dup5\n        /* \"#utility.yul\":28602:28631   */\n      tag_347\n      jump\t// in\n    tag_669:\n        /* \"#utility.yul\":28592:28600   */\n      dup2\n        /* \"#utility.yul\":28588:28632   */\n      add\n        /* \"#utility.yul\":28785:28787   */\n      0x20\n        /* \"#utility.yul\":28773:28783   */\n      dup6\n        /* \"#utility.yul\":28770:28788   */\n      lt\n        /* \"#utility.yul\":28767:28816   */\n      iszero\n      tag_670\n      jumpi\n        /* \"#utility.yul\":28806:28814   */\n      dup2\n        /* \"#utility.yul\":28791:28814   */\n      swap1\n      pop\n        /* \"#utility.yul\":28767:28816   */\n    tag_670:\n        /* \"#utility.yul\":28829:28909   */\n      tag_671\n        /* \"#utility.yul\":28885:28907   */\n      tag_672\n        /* \"#utility.yul\":28903:28906   */\n      dup6\n        /* \"#utility.yul\":28885:28907   */\n      tag_347\n      jump\t// in\n    tag_672:\n        /* \"#utility.yul\":28875:28883   */\n      dup4\n        /* \"#utility.yul\":28871:28908   */\n      add\n        /* \"#utility.yul\":28858:28869   */\n      dup3\n        /* \"#utility.yul\":28829:28909   */\n      tag_356\n      jump\t// in\n    tag_671:\n        /* \"#utility.yul\":28488:28919   */\n      pop\n      pop\n        /* \"#utility.yul\":28473:28919   */\n    tag_667:\n        /* \"#utility.yul\":28383:28926   */\n      pop\n      pop\n      pop\n      jump\t// out\n        /* \"#utility.yul\":28932:29049   */\n    tag_358:\n        /* \"#utility.yul\":28986:28994   */\n      0x00\n        /* \"#utility.yul\":29036:29041   */\n      dup3\n        /* \"#utility.yul\":29030:29034   */\n      dup3\n        /* \"#utility.yul\":29026:29042   */\n      shr\n        /* \"#utility.yul\":29005:29042   */\n      swap1\n      pop\n        /* \"#utility.yul\":28932:29049   */\n      swap3\n      swap2\n      pop\n      pop\n      jump\t// out\n        /* \"#utility.yul\":29055:29224   */\n    tag_359:\n        /* \"#utility.yul\":29099:29105   */\n      0x00\n        /* \"#utility.yul\":29132:29183   */\n      tag_675\n        /* \"#utility.yul\":29180:29181   */\n      0x00\n        /* \"#utility.yul\":29176:29182   */\n      not\n        /* \"#utility.yul\":29168:29173   */\n      dup5\n        /* \"#utility.yul\":29165:29166   */\n      0x08\n        /* \"#utility.yul\":29161:29174   */\n      mul\n        /* \"#utility.yul\":29132:29183   */\n      tag_358\n      jump\t// in\n    tag_675:\n        /* \"#utility.yul\":29128:29184   */\n      not\n        /* \"#utility.yul\":29213:29217   */\n      dup1\n        /* \"#utility.yul\":29207:29211   */\n      dup4\n        /* \"#utility.yul\":29203:29218   */\n      and\n        /* \"#utility.yul\":29193:29218   */\n      swap2\n      pop\n        /* \"#utility.yul\":29106:29224   */\n      pop\n        /* \"#utility.yul\":29055:29224   */\n      swap3\n      swap2\n      pop\n      pop\n      jump\t// out\n        /* \"#utility.yul\":29229:29524   */\n    tag_360:\n        /* \"#utility.yul\":29305:29309   */\n      0x00\n        /* \"#utility.yul\":29451:29480   */\n      tag_677\n        /* \"#utility.yul\":29476:29479   */\n      dup4\n        /* \"#utility.yul\":29470:29474   */\n      dup4\n        /* \"#utility.yul\":29451:29480   */\n      tag_359\n      jump\t// in\n    tag_677:\n        /* \"#utility.yul\":29443:29480   */\n      swap2\n      pop\n        /* \"#utility.yul\":29513:29516   */\n      dup3\n        /* \"#utility.yul\":29510:29511   */\n      0x02\n        /* \"#utility.yul\":29506:29517   */\n      mul\n        /* \"#utility.yul\":29500:29504   */\n      dup3\n        /* \"#utility.yul\":29497:29518   */\n      or\n        /* \"#utility.yul\":29489:29518   */\n      swap1\n      pop\n        /* \"#utility.yul\":29229:29524   */\n      swap3\n      swap2\n      pop\n      pop\n      jump\t// out\n        /* \"#utility.yul\":29529:30924   */\n    tag_156:\n        /* \"#utility.yul\":29646:29683   */\n      tag_679\n        /* \"#utility.yul\":29679:29682   */\n      dup3\n        /* \"#utility.yul\":29646:29683   */\n      tag_290\n      jump\t// in\n    tag_679:\n        /* \"#utility.yul\":29748:29766   */\n      0xffffffffffffffff\n        /* \"#utility.yul\":29740:29746   */\n      dup2\n        /* \"#utility.yul\":29737:29767   */\n      gt\n        /* \"#utility.yul\":29734:29790   */\n      iszero\n      tag_680\n      jumpi\n        /* \"#utility.yul\":29770:29788   */\n      tag_681\n      tag_297\n      jump\t// in\n    tag_681:\n        /* \"#utility.yul\":29734:29790   */\n    tag_680:\n        /* \"#utility.yul\":29814:29852   */\n      tag_682\n        /* \"#utility.yul\":29846:29850   */\n      dup3\n        /* \"#utility.yul\":29840:29851   */\n      sload\n        /* \"#utility.yul\":29814:29852   */\n      tag_142\n      jump\t// in\n    tag_682:\n        /* \"#utility.yul\":29899:29966   */\n      tag_683\n        /* \"#utility.yul\":29959:29965   */\n      dup3\n        /* \"#utility.yul\":29951:29957   */\n      dup3\n        /* \"#utility.yul\":29945:29949   */\n      dup6\n        /* \"#utility.yul\":29899:29966   */\n      tag_357\n      jump\t// in\n    tag_683:\n        /* \"#utility.yul\":29993:29994   */\n      0x00\n        /* \"#utility.yul\":30017:30021   */\n      0x20\n        /* \"#utility.yul\":30004:30021   */\n      swap1\n      pop\n        /* \"#utility.yul\":30049:30051   */\n      0x1f\n        /* \"#utility.yul\":30041:30047   */\n      dup4\n        /* \"#utility.yul\":30038:30052   */\n      gt\n        /* \"#utility.yul\":30066:30067   */\n      0x01\n        /* \"#utility.yul\":30061:30679   */\n      dup2\n      eq\n      tag_685\n      jumpi\n        /* \"#utility.yul\":30723:30724   */\n      0x00\n        /* \"#utility.yul\":30740:30746   */\n      dup5\n        /* \"#utility.yul\":30737:30814   */\n      iszero\n      tag_686\n      jumpi\n        /* \"#utility.yul\":30789:30798   */\n      dup3\n        /* \"#utility.yul\":30784:30787   */\n      dup8\n        /* \"#utility.yul\":30780:30799   */\n      add\n        /* \"#utility.yul\":30774:30800   */\n      mload\n        /* \"#utility.yul\":30765:30800   */\n      swap1\n      pop\n        /* \"#utility.yul\":30737:30814   */\n    tag_686:\n        /* \"#utility.yul\":30840:30907   */\n      tag_687\n        /* \"#utility.yul\":30900:30906   */\n      dup6\n        /* \"#utility.yul\":30893:30898   */\n      dup3\n        /* \"#utility.yul\":30840:30907   */\n      tag_360\n      jump\t// in\n    tag_687:\n        /* \"#utility.yul\":30834:30838   */\n      dup7\n        /* \"#utility.yul\":30827:30908   */\n      sstore\n        /* \"#utility.yul\":30696:30918   */\n      pop\n        /* \"#utility.yul\":30031:30918   */\n      jump(tag_684)\n        /* \"#utility.yul\":30061:30679   */\n    tag_685:\n        /* \"#utility.yul\":30113:30117   */\n      0x1f\n        /* \"#utility.yul\":30109:30118   */\n      not\n        /* \"#utility.yul\":30101:30107   */\n      dup5\n        /* \"#utility.yul\":30097:30119   */\n      and\n        /* \"#utility.yul\":30147:30184   */\n      tag_688\n        /* \"#utility.yul\":30179:30183   */\n      dup7\n        /* \"#utility.yul\":30147:30184   */\n      tag_346\n      jump\t// in\n    tag_688:\n        /* \"#utility.yul\":30206:30207   */\n      0x00\n        /* \"#utility.yul\":30220:30428   */\n    tag_689:\n        /* \"#utility.yul\":30234:30241   */\n      dup3\n        /* \"#utility.yul\":30231:30232   */\n      dup2\n        /* \"#utility.yul\":30228:30242   */\n      lt\n        /* \"#utility.yul\":30220:30428   */\n      iszero\n      tag_691\n      jumpi\n        /* \"#utility.yul\":30313:30322   */\n      dup5\n        /* \"#utility.yul\":30308:30311   */\n      dup10\n        /* \"#utility.yul\":30304:30323   */\n      add\n        /* \"#utility.yul\":30298:30324   */\n      mload\n        /* \"#utility.yul\":30290:30296   */\n      dup3\n        /* \"#utility.yul\":30283:30325   */\n      sstore\n        /* \"#utility.yul\":30364:30365   */\n      0x01\n        /* \"#utility.yul\":30356:30362   */\n      dup3\n        /* \"#utility.yul\":30352:30366   */\n      add\n        /* \"#utility.yul\":30342:30366   */\n      swap2\n      pop\n        /* \"#utility.yul\":30411:30413   */\n      0x20\n        /* \"#utility.yul\":30400:30409   */\n      dup6\n        /* \"#utility.yul\":30396:30414   */\n      add\n        /* \"#utility.yul\":30383:30414   */\n      swap5\n      pop\n        /* \"#utility.yul\":30257:30261   */\n      0x20\n        /* \"#utility.yul\":30254:30255   */\n      dup2\n        /* \"#utility.yul\":30250:30262   */\n      add\n        /* \"#utility.yul\":30245:30262   */\n      swap1\n      pop\n        /* \"#utility.yul\":30220:30428   */\n      jump(tag_689)\n    tag_691:\n        /* \"#utility.yul\":30456:30462   */\n      dup7\n        /* \"#utility.yul\":30447:30454   */\n      dup4\n        /* \"#utility.yul\":30444:30463   */\n      lt\n        /* \"#utility.yul\":30441:30620   */\n      iszero\n      tag_692\n      jumpi\n        /* \"#utility.yul\":30514:30523   */\n      dup5\n        /* \"#utility.yul\":30509:30512   */\n      dup10\n        /* \"#utility.yul\":30505:30524   */\n      add\n        /* \"#utility.yul\":30499:30525   */\n      mload\n        /* \"#utility.yul\":30557:30605   */\n      tag_693\n        /* \"#utility.yul\":30599:30603   */\n      0x1f\n        /* \"#utility.yul\":30591:30597   */\n      dup10\n        /* \"#utility.yul\":30587:30604   */\n      and\n        /* \"#utility.yul\":30576:30585   */\n      dup3\n        /* \"#utility.yul\":30557:30605   */\n      tag_359\n      jump\t// in\n    tag_693:\n        /* \"#utility.yul\":30549:30555   */\n      dup4\n        /* \"#utility.yul\":30542:30606   */\n      sstore\n        /* \"#utility.yul\":30464:30620   */\n      pop\n        /* \"#utility.yul\":30441:30620   */\n    tag_692:\n        /* \"#utility.yul\":30666:30667   */\n      0x01\n        /* \"#utility.yul\":30662:30663   */\n      0x02\n        /* \"#utility.yul\":30654:30660   */\n      dup9\n        /* \"#utility.yul\":30650:30664   */\n      mul\n        /* \"#utility.yul\":30646:30668   */\n      add\n        /* \"#utility.yul\":30640:30644   */\n      dup9\n        /* \"#utility.yul\":30633:30669   */\n      sstore\n        /* \"#utility.yul\":30068:30679   */\n      pop\n      pop\n      pop\n        /* \"#utility.yul\":30031:30918   */\n    tag_684:\n      pop\n        /* \"#utility.yul\":29621:30924   */\n      pop\n      pop\n      pop\n        /* \"#utility.yul\":29529:30924   */\n      pop\n      pop\n      jump\t// out\n        /* \"#utility.yul\":30930:31353   */\n    tag_161:\n        /* \"#utility.yul\":31071:31075   */\n      0x00\n        /* \"#utility.yul\":31109:31111   */\n      0x40\n        /* \"#utility.yul\":31098:31107   */\n      dup3\n        /* \"#utility.yul\":31094:31112   */\n      add\n        /* \"#utility.yul\":31086:31112   */\n      swap1\n      pop\n        /* \"#utility.yul\":31158:31167   */\n      dup2\n        /* \"#utility.yul\":31152:31156   */\n      dup2\n        /* \"#utility.yul\":31148:31168   */\n      sub\n        /* \"#utility.yul\":31144:31145   */\n      0x00\n        /* \"#utility.yul\":31133:31142   */\n      dup4\n        /* \"#utility.yul\":31129:31146   */\n      add\n        /* \"#utility.yul\":31122:31169   */\n      mstore\n        /* \"#utility.yul\":31186:31264   */\n      tag_695\n        /* \"#utility.yul\":31259:31263   */\n      dup2\n        /* \"#utility.yul\":31250:31256   */\n      dup6\n        /* \"#utility.yul\":31186:31264   */\n      tag_294\n      jump\t// in\n    tag_695:\n        /* \"#utility.yul\":31178:31264   */\n      swap1\n      pop\n        /* \"#utility.yul\":31274:31346   */\n      tag_696\n        /* \"#utility.yul\":31342:31344   */\n      0x20\n        /* \"#utility.yul\":31331:31340   */\n      dup4\n        /* \"#utility.yul\":31327:31345   */\n      add\n        /* \"#utility.yul\":31318:31324   */\n      dup5\n        /* \"#utility.yul\":31274:31346   */\n      tag_286\n      jump\t// in\n    tag_696:\n        /* \"#utility.yul\":30930:31353   */\n      swap4\n      swap3\n      pop\n      pop\n      pop\n      jump\t// out\n        /* \"#utility.yul\":31359:31523   */\n    tag_361:\n        /* \"#utility.yul\":31499:31515   */\n      0x44617461206e6f7420666f756e64000000000000000000000000000000000000\n        /* \"#utility.yul\":31495:31496   */\n      0x00\n        /* \"#utility.yul\":31487:31493   */\n      dup3\n        /* \"#utility.yul\":31483:31497   */\n      add\n        /* \"#utility.yul\":31476:31516   */\n      mstore\n        /* \"#utility.yul\":31359:31523   */\n      pop\n      jump\t// out\n        /* \"#utility.yul\":31529:31895   */\n    tag_362:\n        /* \"#utility.yul\":31671:31674   */\n      0x00\n        /* \"#utility.yul\":31692:31759   */\n      tag_699\n        /* \"#utility.yul\":31756:31758   */\n      0x0e\n        /* \"#utility.yul\":31751:31754   */\n      dup4\n        /* \"#utility.yul\":31692:31759   */\n      tag_291\n      jump\t// in\n    tag_699:\n        /* \"#utility.yul\":31685:31759   */\n      swap2\n      pop\n        /* \"#utility.yul\":31768:31861   */\n      tag_700\n        /* \"#utility.yul\":31857:31860   */\n      dup3\n        /* \"#utility.yul\":31768:31861   */\n      tag_361\n      jump\t// in\n    tag_700:\n        /* \"#utility.yul\":31886:31888   */\n      0x20\n        /* \"#utility.yul\":31881:31884   */\n      dup3\n        /* \"#utility.yul\":31877:31889   */\n      add\n        /* \"#utility.yul\":31870:31889   */\n      swap1\n      pop\n        /* \"#utility.yul\":31529:31895   */\n      swap2\n      swap1\n      pop\n      jump\t// out\n        /* \"#utility.yul\":31901:32320   */\n    tag_165:\n        /* \"#utility.yul\":32067:32071   */\n      0x00\n        /* \"#utility.yul\":32105:32107   */\n      0x20\n        /* \"#utility.yul\":32094:32103   */\n      dup3\n        /* \"#utility.yul\":32090:32108   */\n      add\n        /* \"#utility.yul\":32082:32108   */\n      swap1\n      pop\n        /* \"#utility.yul\":32154:32163   */\n      dup2\n        /* \"#utility.yul\":32148:32152   */\n      dup2\n        /* \"#utility.yul\":32144:32164   */\n      sub\n        /* \"#utility.yul\":32140:32141   */\n      0x00\n        /* \"#utility.yul\":32129:32138   */\n      dup4\n        /* \"#utility.yul\":32125:32142   */\n      add\n        /* \"#utility.yul\":32118:32165   */\n      mstore\n        /* \"#utility.yul\":32182:32313   */\n      tag_702\n        /* \"#utility.yul\":32308:32312   */\n      dup2\n        /* \"#utility.yul\":32182:32313   */\n      tag_362\n      jump\t// in\n    tag_702:\n        /* \"#utility.yul\":32174:32313   */\n      swap1\n      pop\n        /* \"#utility.yul\":31901:32320   */\n      swap2\n      swap1\n      pop\n      jump\t// out\n        /* \"#utility.yul\":32326:32497   */\n    tag_363:\n        /* \"#utility.yul\":32466:32489   */\n      0x4461746120616c726561647920696e6163746976650000000000000000000000\n        /* \"#utility.yul\":32462:32463   */\n      0x00\n        /* \"#utility.yul\":32454:32460   */\n      dup3\n        /* \"#utility.yul\":32450:32464   */\n      add\n        /* \"#utility.yul\":32443:32490   */\n      mstore\n        /* \"#utility.yul\":32326:32497   */\n      pop\n      jump\t// out\n        /* \"#utility.yul\":32503:32869   */\n    tag_364:\n        /* \"#utility.yul\":32645:32648   */\n      0x00\n        /* \"#utility.yul\":32666:32733   */\n      tag_705\n        /* \"#utility.yul\":32730:32732   */\n      0x15\n        /* \"#utility.yul\":32725:32728   */\n      dup4\n        /* \"#utility.yul\":32666:32733   */\n      tag_291\n      jump\t// in\n    tag_705:\n        /* \"#utility.yul\":32659:32733   */\n      swap2\n      pop\n        /* \"#utility.yul\":32742:32835   */\n      tag_706\n        /* \"#utility.yul\":32831:32834   */\n      dup3\n        /* \"#utility.yul\":32742:32835   */\n      tag_363\n      jump\t// in\n    tag_706:\n        /* \"#utility.yul\":32860:32862   */\n      0x20\n        /* \"#utility.yul\":32855:32858   */\n      dup3\n        /* \"#utility.yul\":32851:32863   */\n      add\n        /* \"#utility.yul\":32844:32863   */\n      swap1\n      pop\n        /* \"#utility.yul\":32503:32869   */\n      swap2\n      swap1\n      pop\n      jump\t// out\n        /* \"#utility.yul\":32875:33294   */\n    tag_190:\n        /* \"#utility.yul\":33041:33045   */\n      0x00\n        /* \"#utility.yul\":33079:33081   */\n      0x20\n        /* \"#utility.yul\":33068:33077   */\n      dup3\n        /* \"#utility.yul\":33064:33082   */\n      add\n        /* \"#utility.yul\":33056:33082   */\n      swap1\n      pop\n        /* \"#utility.yul\":33128:33137   */\n      dup2\n        /* \"#utility.yul\":33122:33126   */\n      dup2\n        /* \"#utility.yul\":33118:33138   */\n      sub\n        /* \"#utility.yul\":33114:33115   */\n      0x00\n        /* \"#utility.yul\":33103:33112   */\n      dup4\n        /* \"#utility.yul\":33099:33116   */\n      add\n        /* \"#utility.yul\":33092:33139   */\n      mstore\n        /* \"#utility.yul\":33156:33287   */\n      tag_708\n        /* \"#utility.yul\":33282:33286   */\n      dup2\n        /* \"#utility.yul\":33156:33287   */\n      tag_364\n      jump\t// in\n    tag_708:\n        /* \"#utility.yul\":33148:33287   */\n      swap1\n      pop\n        /* \"#utility.yul\":32875:33294   */\n      swap2\n      swap1\n      pop\n      jump\t// out\n        /* \"#utility.yul\":33300:33480   */\n    tag_196:\n        /* \"#utility.yul\":33348:33425   */\n      0x4e487b7100000000000000000000000000000000000000000000000000000000\n        /* \"#utility.yul\":33345:33346   */\n      0x00\n        /* \"#utility.yul\":33338:33426   */\n      mstore\n        /* \"#utility.yul\":33445:33449   */\n      0x32\n        /* \"#utility.yul\":33442:33443   */\n      0x04\n        /* \"#utility.yul\":33435:33450   */\n      mstore\n        /* \"#utility.yul\":33469:33473   */\n      0x24\n        /* \"#utility.yul\":33466:33467   */\n      0x00\n        /* \"#utility.yul\":33459:33474   */\n      revert\n        /* \"#utility.yul\":33486:33666   */\n    tag_365:\n        /* \"#utility.yul\":33534:33611   */\n      0x4e487b7100000000000000000000000000000000000000000000000000000000\n        /* \"#utility.yul\":33531:33532   */\n      0x00\n        /* \"#utility.yul\":33524:33612   */\n      mstore\n        /* \"#utility.yul\":33631:33635   */\n      0x11\n        /* \"#utility.yul\":33628:33629   */\n      0x04\n        /* \"#utility.yul\":33621:33636   */\n      mstore\n        /* \"#utility.yul\":33655:33659   */\n      0x24\n        /* \"#utility.yul\":33652:33653   */\n      0x00\n        /* \"#utility.yul\":33645:33660   */\n      revert\n        /* \"#utility.yul\":33672:33866   */\n    tag_200:\n        /* \"#utility.yul\":33712:33716   */\n      0x00\n        /* \"#utility.yul\":33732:33752   */\n      tag_712\n        /* \"#utility.yul\":33750:33751   */\n      dup3\n        /* \"#utility.yul\":33732:33752   */\n      tag_285\n      jump\t// in\n    tag_712:\n        /* \"#utility.yul\":33727:33752   */\n      swap2\n      pop\n        /* \"#utility.yul\":33766:33786   */\n      tag_713\n        /* \"#utility.yul\":33784:33785   */\n      dup4\n        /* \"#utility.yul\":33766:33786   */\n      tag_285\n      jump\t// in\n    tag_713:\n        /* \"#utility.yul\":33761:33786   */\n      swap3\n      pop\n        /* \"#utility.yul\":33810:33811   */\n      dup3\n        /* \"#utility.yul\":33807:33808   */\n      dup3\n        /* \"#utility.yul\":33803:33812   */\n      sub\n        /* \"#utility.yul\":33795:33812   */\n      swap1\n      pop\n        /* \"#utility.yul\":33834:33835   */\n      dup2\n        /* \"#utility.yul\":33828:33832   */\n      dup2\n        /* \"#utility.yul\":33825:33836   */\n      gt\n        /* \"#utility.yul\":33822:33859   */\n      iszero\n      tag_714\n      jumpi\n        /* \"#utility.yul\":33839:33857   */\n      tag_715\n      tag_365\n      jump\t// in\n    tag_715:\n        /* \"#utility.yul\":33822:33859   */\n    tag_714:\n        /* \"#utility.yul\":33672:33866   */\n      swap3\n      swap2\n      pop\n      pop\n      jump\t// out\n        /* \"#utility.yul\":33872:34052   */\n    tag_209:\n        /* \"#utility.yul\":33920:33997   */\n      0x4e487b7100000000000000000000000000000000000000000000000000000000\n        /* \"#utility.yul\":33917:33918   */\n      0x00\n        /* \"#utility.yul\":33910:33998   */\n      mstore\n        /* \"#utility.yul\":34017:34021   */\n      0x31\n        /* \"#utility.yul\":34014:34015   */\n      0x04\n        /* \"#utility.yul\":34007:34022   */\n      mstore\n        /* \"#utility.yul\":34041:34045   */\n      0x24\n        /* \"#utility.yul\":34038:34039   */\n      0x00\n        /* \"#utility.yul\":34031:34046   */\n      revert\n        /* \"#utility.yul\":34058:34225   */\n    tag_366:\n        /* \"#utility.yul\":34198:34217   */\n      0x496e76616c696420726571756573746572000000000000000000000000000000\n        /* \"#utility.yul\":34194:34195   */\n      0x00\n        /* \"#utility.yul\":34186:34192   */\n      dup3\n        /* \"#utility.yul\":34182:34196   */\n      add\n        /* \"#utility.yul\":34175:34218   */\n      mstore\n        /* \"#utility.yul\":34058:34225   */\n      pop\n      jump\t// out\n        /* \"#utility.yul\":34231:34597   */\n    tag_367:\n        /* \"#utility.yul\":34373:34376   */\n      0x00\n        /* \"#utility.yul\":34394:34461   */\n      tag_719\n        /* \"#utility.yul\":34458:34460   */\n      0x11\n        /* \"#utility.yul\":34453:34456   */\n      dup4\n        /* \"#utility.yul\":34394:34461   */\n      tag_291\n      jump\t// in\n    tag_719:\n        /* \"#utility.yul\":34387:34461   */\n      swap2\n      pop\n        /* \"#utility.yul\":34470:34563   */\n      tag_720\n        /* \"#utility.yul\":34559:34562   */\n      dup3\n        /* \"#utility.yul\":34470:34563   */\n      tag_366\n      jump\t// in\n    tag_720:\n        /* \"#utility.yul\":34588:34590   */\n      0x20\n        /* \"#utility.yul\":34583:34586   */\n      dup3\n        /* \"#utility.yul\":34579:34591   */\n      add\n        /* \"#utility.yul\":34572:34591   */\n      swap1\n      pop\n        /* \"#utility.yul\":34231:34597   */\n      swap2\n      swap1\n      pop\n      jump\t// out\n        /* \"#utility.yul\":34603:35022   */\n    tag_217:\n        /* \"#utility.yul\":34769:34773   */\n      0x00\n        /* \"#utility.yul\":34807:34809   */\n      0x20\n        /* \"#utility.yul\":34796:34805   */\n      dup3\n        /* \"#utility.yul\":34792:34810   */\n      add\n        /* \"#utility.yul\":34784:34810   */\n      swap1\n      pop\n        /* \"#utility.yul\":34856:34865   */\n      dup2\n        /* \"#utility.yul\":34850:34854   */\n      dup2\n        /* \"#utility.yul\":34846:34866   */\n      sub\n        /* \"#utility.yul\":34842:34843   */\n      0x00\n        /* \"#utility.yul\":34831:34840   */\n      dup4\n        /* \"#utility.yul\":34827:34844   */\n      add\n        /* \"#utility.yul\":34820:34867   */\n      mstore\n        /* \"#utility.yul\":34884:35015   */\n      tag_722\n        /* \"#utility.yul\":35010:35014   */\n      dup2\n        /* \"#utility.yul\":34884:35015   */\n      tag_367\n      jump\t// in\n    tag_722:\n        /* \"#utility.yul\":34876:35015   */\n      swap1\n      pop\n        /* \"#utility.yul\":34603:35022   */\n      swap2\n      swap1\n      pop\n      jump\t// out\n        /* \"#utility.yul\":35028:35194   */\n    tag_368:\n        /* \"#utility.yul\":35168:35186   */\n      0x496e76616c6964206475726174696f6e00000000000000000000000000000000\n        /* \"#utility.yul\":35164:35165   */\n      0x00\n        /* \"#utility.yul\":35156:35162   */\n      dup3\n        /* \"#utility.yul\":35152:35166   */\n      add\n        /* \"#utility.yul\":35145:35187   */\n      mstore\n        /* \"#utility.yul\":35028:35194   */\n      pop\n      jump\t// out\n        /* \"#utility.yul\":35200:35566   */\n    tag_369:\n        /* \"#utility.yul\":35342:35345   */\n      0x00\n        /* \"#utility.yul\":35363:35430   */\n      tag_725\n        /* \"#utility.yul\":35427:35429   */\n      0x10\n        /* \"#utility.yul\":35422:35425   */\n      dup4\n        /* \"#utility.yul\":35363:35430   */\n      tag_291\n      jump\t// in\n    tag_725:\n        /* \"#utility.yul\":35356:35430   */\n      swap2\n      pop\n        /* \"#utility.yul\":35439:35532   */\n      tag_726\n        /* \"#utility.yul\":35528:35531   */\n      dup3\n        /* \"#utility.yul\":35439:35532   */\n      tag_368\n      jump\t// in\n    tag_726:\n        /* \"#utility.yul\":35557:35559   */\n      0x20\n        /* \"#utility.yul\":35552:35555   */\n      dup3\n        /* \"#utility.yul\":35548:35560   */\n      add\n        /* \"#utility.yul\":35541:35560   */\n      swap1\n      pop\n        /* \"#utility.yul\":35200:35566   */\n      swap2\n      swap1\n      pop\n      jump\t// out\n        /* \"#utility.yul\":35572:35991   */\n    tag_220:\n        /* \"#utility.yul\":35738:35742   */\n      0x00\n        /* \"#utility.yul\":35776:35778   */\n      0x20\n        /* \"#utility.yul\":35765:35774   */\n      dup3\n        /* \"#utility.yul\":35761:35779   */\n      add\n        /* \"#utility.yul\":35753:35779   */\n      swap1\n      pop\n        /* \"#utility.yul\":35825:35834   */\n      dup2\n        /* \"#utility.yul\":35819:35823   */\n      dup2\n        /* \"#utility.yul\":35815:35835   */\n      sub\n        /* \"#utility.yul\":35811:35812   */\n      0x00\n        /* \"#utility.yul\":35800:35809   */\n      dup4\n        /* \"#utility.yul\":35796:35813   */\n      add\n        /* \"#utility.yul\":35789:35836   */\n      mstore\n        /* \"#utility.yul\":35853:35984   */\n      tag_728\n        /* \"#utility.yul\":35979:35983   */\n      dup2\n        /* \"#utility.yul\":35853:35984   */\n      tag_369\n      jump\t// in\n    tag_728:\n        /* \"#utility.yul\":35845:35984   */\n      swap1\n      pop\n        /* \"#utility.yul\":35572:35991   */\n      swap2\n      swap1\n      pop\n      jump\t// out\n        /* \"#utility.yul\":35997:36178   */\n    tag_370:\n        /* \"#utility.yul\":36137:36170   */\n      0x5075626c6963206461746120646f6573206e6f74206e656564206772616e7400\n        /* \"#utility.yul\":36133:36134   */\n      0x00\n        /* \"#utility.yul\":36125:36131   */\n      dup3\n        /* \"#utility.yul\":36121:36135   */\n      add\n        /* \"#utility.yul\":36114:36171   */\n      mstore\n        /* \"#utility.yul\":35997:36178   */\n      pop\n      jump\t// out\n        /* \"#utility.yul\":36184:36550   */\n    tag_371:\n        /* \"#utility.yul\":36326:36329   */\n      0x00\n        /* \"#utility.yul\":36347:36414   */\n      tag_731\n        /* \"#utility.yul\":36411:36413   */\n      0x1f\n        /* \"#utility.yul\":36406:36409   */\n      dup4\n        /* \"#utility.yul\":36347:36414   */\n      tag_291\n      jump\t// in\n    tag_731:\n        /* \"#utility.yul\":36340:36414   */\n      swap2\n      pop\n        /* \"#utility.yul\":36423:36516   */\n      tag_732\n        /* \"#utility.yul\":36512:36515   */\n      dup3\n        /* \"#utility.yul\":36423:36516   */\n      tag_370\n      jump\t// in\n    tag_732:\n        /* \"#utility.yul\":36541:36543   */\n      0x20\n        /* \"#utility.yul\":36536:36539   */\n      dup3\n        /* \"#utility.yul\":36532:36544   */\n      add\n        /* \"#utility.yul\":36525:36544   */\n      swap1\n      pop\n        /* \"#utility.yul\":36184:36550   */\n      swap2\n      swap1\n      pop\n      jump\t// out\n        /* \"#utility.yul\":36556:36975   */\n    tag_229:\n        /* \"#utility.yul\":36722:36726   */\n      0x00\n        /* \"#utility.yul\":36760:36762   */\n      0x20\n        /* \"#utility.yul\":36749:36758   */\n      dup3\n        /* \"#utility.yul\":36745:36763   */\n      add\n        /* \"#utility.yul\":36737:36763   */\n      swap1\n      pop\n        /* \"#utility.yul\":36809:36818   */\n      dup2\n        /* \"#utility.yul\":36803:36807   */\n      dup2\n        /* \"#utility.yul\":36799:36819   */\n      sub\n        /* \"#utility.yul\":36795:36796   */\n      0x00\n        /* \"#utility.yul\":36784:36793   */\n      dup4\n        /* \"#utility.yul\":36780:36797   */\n      add\n        /* \"#utility.yul\":36773:36820   */\n      mstore\n        /* \"#utility.yul\":36837:36968   */\n      tag_734\n        /* \"#utility.yul\":36963:36967   */\n      dup2\n        /* \"#utility.yul\":36837:36968   */\n      tag_371\n      jump\t// in\n    tag_734:\n        /* \"#utility.yul\":36829:36968   */\n      swap1\n      pop\n        /* \"#utility.yul\":36556:36975   */\n      swap2\n      swap1\n      pop\n      jump\t// out\n        /* \"#utility.yul\":36981:37172   */\n    tag_231:\n        /* \"#utility.yul\":37021:37024   */\n      0x00\n        /* \"#utility.yul\":37040:37060   */\n      tag_736\n        /* \"#utility.yul\":37058:37059   */\n      dup3\n        /* \"#utility.yul\":37040:37060   */\n      tag_285\n      jump\t// in\n    tag_736:\n        /* \"#utility.yul\":37035:37060   */\n      swap2\n      pop\n        /* \"#utility.yul\":37074:37094   */\n      tag_737\n        /* \"#utility.yul\":37092:37093   */\n      dup4\n        /* \"#utility.yul\":37074:37094   */\n      tag_285\n      jump\t// in\n    tag_737:\n        /* \"#utility.yul\":37069:37094   */\n      swap3\n      pop\n        /* \"#utility.yul\":37117:37118   */\n      dup3\n        /* \"#utility.yul\":37114:37115   */\n      dup3\n        /* \"#utility.yul\":37110:37119   */\n      add\n        /* \"#utility.yul\":37103:37119   */\n      swap1\n      pop\n        /* \"#utility.yul\":37138:37141   */\n      dup1\n        /* \"#utility.yul\":37135:37136   */\n      dup3\n        /* \"#utility.yul\":37132:37142   */\n      gt\n        /* \"#utility.yul\":37129:37165   */\n      iszero\n      tag_738\n      jumpi\n        /* \"#utility.yul\":37145:37163   */\n      tag_739\n      tag_365\n      jump\t// in\n    tag_739:\n        /* \"#utility.yul\":37129:37165   */\n    tag_738:\n        /* \"#utility.yul\":36981:37172   */\n      swap3\n      swap2\n      pop\n      pop\n      jump\t// out\n        /* \"#utility.yul\":37178:37342   */\n    tag_372:\n        /* \"#utility.yul\":37318:37334   */\n      0x416c7265616479207075626c6963000000000000000000000000000000000000\n        /* \"#utility.yul\":37314:37315   */\n      0x00\n        /* \"#utility.yul\":37306:37312   */\n      dup3\n        /* \"#utility.yul\":37302:37316   */\n      add\n        /* \"#utility.yul\":37295:37335   */\n      mstore\n        /* \"#utility.yul\":37178:37342   */\n      pop\n      jump\t// out\n        /* \"#utility.yul\":37348:37714   */\n    tag_373:\n        /* \"#utility.yul\":37490:37493   */\n      0x00\n        /* \"#utility.yul\":37511:37578   */\n      tag_742\n        /* \"#utility.yul\":37575:37577   */\n      0x0e\n        /* \"#utility.yul\":37570:37573   */\n      dup4\n        /* \"#utility.yul\":37511:37578   */\n      tag_291\n      jump\t// in\n    tag_742:\n        /* \"#utility.yul\":37504:37578   */\n      swap2\n      pop\n        /* \"#utility.yul\":37587:37680   */\n      tag_743\n        /* \"#utility.yul\":37676:37679   */\n      dup3\n        /* \"#utility.yul\":37587:37680   */\n      tag_372\n      jump\t// in\n    tag_743:\n        /* \"#utility.yul\":37705:37707   */\n      0x20\n        /* \"#utility.yul\":37700:37703   */\n      dup3\n        /* \"#utility.yul\":37696:37708   */\n      add\n        /* \"#utility.yul\":37689:37708   */\n      swap1\n      pop\n        /* \"#utility.yul\":37348:37714   */\n      swap2\n      swap1\n      pop\n      jump\t// out\n        /* \"#utility.yul\":37720:38139   */\n    tag_245:\n        /* \"#utility.yul\":37886:37890   */\n      0x00\n        /* \"#utility.yul\":37924:37926   */\n      0x20\n        /* \"#utility.yul\":37913:37922   */\n      dup3\n        /* \"#utility.yul\":37909:37927   */\n      add\n        /* \"#utility.yul\":37901:37927   */\n      swap1\n      pop\n        /* \"#utility.yul\":37973:37982   */\n      dup2\n        /* \"#utility.yul\":37967:37971   */\n      dup2\n        /* \"#utility.yul\":37963:37983   */\n      sub\n        /* \"#utility.yul\":37959:37960   */\n      0x00\n        /* \"#utility.yul\":37948:37957   */\n      dup4\n        /* \"#utility.yul\":37944:37961   */\n      add\n        /* \"#utility.yul\":37937:37984   */\n      mstore\n        /* \"#utility.yul\":38001:38132   */\n      tag_745\n        /* \"#utility.yul\":38127:38131   */\n      dup2\n        /* \"#utility.yul\":38001:38132   */\n      tag_373\n      jump\t// in\n    tag_745:\n        /* \"#utility.yul\":37993:38132   */\n      swap1\n      pop\n        /* \"#utility.yul\":37720:38139   */\n      swap2\n      swap1\n      pop\n      jump\t// out\n        /* \"#utility.yul\":38145:38314   */\n    tag_374:\n        /* \"#utility.yul\":38285:38306   */\n      0x4e6f207772697465207065726d697373696f6e00000000000000000000000000\n        /* \"#utility.yul\":38281:38282   */\n      0x00\n        /* \"#utility.yul\":38273:38279   */\n      dup3\n        /* \"#utility.yul\":38269:38283   */\n      add\n        /* \"#utility.yul\":38262:38307   */\n      mstore\n        /* \"#utility.yul\":38145:38314   */\n      pop\n      jump\t// out\n        /* \"#utility.yul\":38320:38686   */\n    tag_375:\n        /* \"#utility.yul\":38462:38465   */\n      0x00\n        /* \"#utility.yul\":38483:38550   */\n      tag_748\n        /* \"#utility.yul\":38547:38549   */\n      0x13\n        /* \"#utility.yul\":38542:38545   */\n      dup4\n        /* \"#utility.yul\":38483:38550   */\n      tag_291\n      jump\t// in\n    tag_748:\n        /* \"#utility.yul\":38476:38550   */\n      swap2\n      pop\n        /* \"#utility.yul\":38559:38652   */\n      tag_749\n        /* \"#utility.yul\":38648:38651   */\n      dup3\n        /* \"#utility.yul\":38559:38652   */\n      tag_374\n      jump\t// in\n    tag_749:\n        /* \"#utility.yul\":38677:38679   */\n      0x20\n        /* \"#utility.yul\":38672:38675   */\n      dup3\n        /* \"#utility.yul\":38668:38680   */\n      add\n        /* \"#utility.yul\":38661:38680   */\n      swap1\n      pop\n        /* \"#utility.yul\":38320:38686   */\n      swap2\n      swap1\n      pop\n      jump\t// out\n        /* \"#utility.yul\":38692:39111   */\n    tag_256:\n        /* \"#utility.yul\":38858:38862   */\n      0x00\n        /* \"#utility.yul\":38896:38898   */\n      0x20\n        /* \"#utility.yul\":38885:38894   */\n      dup3\n        /* \"#utility.yul\":38881:38899   */\n      add\n        /* \"#utility.yul\":38873:38899   */\n      swap1\n      pop\n        /* \"#utility.yul\":38945:38954   */\n      dup2\n        /* \"#utility.yul\":38939:38943   */\n      dup2\n        /* \"#utility.yul\":38935:38955   */\n      sub\n        /* \"#utility.yul\":38931:38932   */\n      0x00\n        /* \"#utility.yul\":38920:38929   */\n      dup4\n        /* \"#utility.yul\":38916:38933   */\n      add\n        /* \"#utility.yul\":38909:38956   */\n      mstore\n        /* \"#utility.yul\":38973:39104   */\n      tag_751\n        /* \"#utility.yul\":39099:39103   */\n      dup2\n        /* \"#utility.yul\":38973:39104   */\n      tag_375\n      jump\t// in\n    tag_751:\n        /* \"#utility.yul\":38965:39104   */\n      swap1\n      pop\n        /* \"#utility.yul\":38692:39111   */\n      swap2\n      swap1\n      pop\n      jump\t// out\n\n    auxdata: 0xa26469706673582212201da9a2305159d3e5e37fcc3ee2d38266df6bcff645b74aee89ac07b0a0da729a64736f6c634300081e0033\n}\n",
				"bytecode": {
					"linkReferences": {},
					"object": "6080604052348015600e575f5ffd5b506132168061001c5f395ff3fe608060405234801561000f575f5ffd5b5060043610610114575f3560e01c80637cc1f867116100a0578063d63920571161006f578063d63920571461031d578063d7ed69c114610350578063e189c8b81461036c578063e85d28b914610388578063e9021744146103b857610114565b80637cc1f867146102aa57806386911cde146102c957806389c5d346146102e5578063c0e011081461030157610114565b80635b225526116100e75780635b225526146101c8578063647f94a5146101fe57806366792d001461022e578063731251631461025e5780637461f24a1461027a57610114565b806306848dcd146101185780630a519fe114610134578063380b06c01461016857806346e036cf14610198575b5f5ffd5b610132600480360381019061012d9190611edc565b6103ee565b005b61014e60048036038101906101499190611edc565b610601565b60405161015f959493929190611fdd565b60405180910390f35b610182600480360381019061017d9190612161565b6108fb565b60405161018f91906121cd565b60405180910390f35b6101b260048036038101906101ad9190611edc565b610bbf565b6040516101bf9190612259565b60405180910390f35b6101e260048036038101906101dd919061229c565b610c7d565b6040516101f597969594939291906122f4565b60405180910390f35b61021860048036038101906102139190612361565b610d1e565b604051610225919061238c565b60405180910390f35b61024860048036038101906102439190612361565b610d67565b604051610255919061245c565b60405180910390f35b6102786004803603810190610273919061229c565b610dfa565b005b610294600480360381019061028f919061229c565b610fd2565b6040516102a1919061247c565b60405180910390f35b6102b2611124565b6040516102c0929190612495565b60405180910390f35b6102e360048036038101906102de9190611edc565b611130565b005b6102ff60048036038101906102fa9190612510565b61134c565b005b61031b60048036038101906103169190611edc565b611790565b005b6103376004803603810190610332919061229c565b6119a5565b6040516103479493929190612587565b60405180910390f35b61036a600480360381019061036591906125ca565b611a52565b005b610386600480360381019061038191906126de565b611ca8565b005b6103a2600480360381019061039d9190612771565b611d72565b6040516103af91906121cd565b60405180910390f35b6103d260048036038101906103cd9190611edc565b611d9d565b6040516103e597969594939291906127af565b60405180910390f35b803373ffffffffffffffffffffffffffffffffffffffff165f5f8381526020019081526020015f206003015f9054906101000a900473ffffffffffffffffffffffffffffffffffffffff1673ffffffffffffffffffffffffffffffffffffffff161461048f576040517f08c379a00000000000000000000000000000000000000000000000000000000081526004016104869061286d565b60405180910390fd5b5f5f5f8481526020019081526020015f2090508060030160149054906101000a900460ff166104f3576040517f08c379a00000000000000000000000000000000000000000000000000000000081526004016104ea906128d5565b60405180910390fd5b600180811115610506576105056121e6565b5b816005015f9054906101000a900460ff166001811115610529576105286121e6565b5b14610569576040517f08c379a00000000000000000000000000000000000000000000000000000000081526004016105609061293d565b60405180910390fd5b5f816005015f9054906101000a900460ff1690505f826005015f6101000a81548160ff021916908360018111156105a3576105a26121e6565b5b0217905550833373ffffffffffffffffffffffffffffffffffffffff167fd950d63959e5077ffc72c153e9974d7fb3c7b072a0399e683cc9d78f78ec289a835f426040516105f39392919061295b565b60405180910390a350505050565b5f5f5f5f6060855f5f5f8381526020019081526020015f2090503373ffffffffffffffffffffffffffffffffffffffff16816003015f9054906101000a900473ffffffffffffffffffffffffffffffffffffffff1673ffffffffffffffffffffffffffffffffffffffff1614806106c55750600180811115610686576106856121e6565b5b816005015f9054906101000a900460ff1660018111156106a9576106a86121e6565b5b1480156106c457508060030160149054906101000a900460ff165b5b80610782575060015f3373ffffffffffffffffffffffffffffffffffffffff1673ffffffffffffffffffffffffffffffffffffffff1681526020019081526020015f205f8381526020019081526020015f206004015f9054906101000a900460ff168015610781575060015f3373ffffffffffffffffffffffffffffffffffffffff1673ffffffffffffffffffffffffffffffffffffffff1681526020019081526020015f205f8381526020019081526020015f206003015442105b5b6107c1576040517f08c379a00000000000000000000000000000000000000000000000000000000081526004016107b8906129da565b60405180910390fd5b5f5f5f8a81526020019081526020015f2090508060030160149054906101000a900460ff16610825576040517f08c379a000000000000000000000000000000000000000000000000000000000815260040161081c906128d5565b60405180910390fd5b805f015481600101548260020154836003015f9054906101000a900473ffffffffffffffffffffffffffffffffffffffff168460040180805461086790612a25565b80601f016020809104026020016040519081016040528092919081815260200182805461089390612a25565b80156108de5780601f106108b5576101008083540402835291602001916108de565b820191905f5260205f20905b8154815290600101906020018083116108c157829003601f168201915b505050505090509750975097509750975050505091939590929450565b5f5f33854260405160200161091293929190612ada565b6040516020818303038152906040528051906020012090505f73ffffffffffffffffffffffffffffffffffffffff165f5f8381526020019081526020015f206003015f9054906101000a900473ffffffffffffffffffffffffffffffffffffffff1673ffffffffffffffffffffffffffffffffffffffff16146109ca576040517f08c379a00000000000000000000000000000000000000000000000000000000081526004016109c190612b60565b60405180910390fd5b6040518060e001604052808681526020018581526020014281526020013373ffffffffffffffffffffffffffffffffffffffff1681526020016001151581526020018481526020015f6001811115610a2557610a246121e6565b5b8152505f5f8381526020019081526020015f205f820151815f015560208201518160010155604082015181600201556060820151816003015f6101000a81548173ffffffffffffffffffffffffffffffffffffffff021916908373ffffffffffffffffffffffffffffffffffffffff16021790555060808201518160030160146101000a81548160ff02191690831515021790555060a0820151816004019081610acf9190612d1e565b5060c0820151816005015f6101000a81548160ff02191690836001811115610afa57610af96121e6565b5b021790555090505060025f3373ffffffffffffffffffffffffffffffffffffffff1673ffffffffffffffffffffffffffffffffffffffff1681526020019081526020015f2081908060018154018082558091505060019003905f5260205f20015f9091909190915055803373ffffffffffffffffffffffffffffffffffffffff167f0e814d30ec22a2f2c39021b7a479700a1d9456c6b6baacbe6d8129b3106c669a8542604051610bac929190612ded565b60405180910390a3809150509392505050565b5f5f5f5f8481526020019081526020015f2090505f73ffffffffffffffffffffffffffffffffffffffff16816003015f9054906101000a900473ffffffffffffffffffffffffffffffffffffffff1673ffffffffffffffffffffffffffffffffffffffff1603610c64576040517f08c379a0000000000000000000000000000000000000000000000000000000008152600401610c5b90612e65565b60405180910390fd5b806005015f9054906101000a900460ff16915050919050565b6001602052815f5260405f20602052805f5260405f205f9150915050805f015f9054906101000a900473ffffffffffffffffffffffffffffffffffffffff1690806001015490806002015490806003015490806004015f9054906101000a900460ff16908060040160019054906101000a900460ff16908060040160029054906101000a900473ffffffffffffffffffffffffffffffffffffffff16905087565b5f60025f8373ffffffffffffffffffffffffffffffffffffffff1673ffffffffffffffffffffffffffffffffffffffff1681526020019081526020015f20805490509050919050565b606060025f8373ffffffffffffffffffffffffffffffffffffffff1673ffffffffffffffffffffffffffffffffffffffff1681526020019081526020015f20805480602002602001604051908101604052809291908181526020018280548015610dee57602002820191905f5260205f20905b815481526020019060010190808311610dda575b50505050509050919050565b803373ffffffffffffffffffffffffffffffffffffffff165f5f8381526020019081526020015f206003015f9054906101000a900473ffffffffffffffffffffffffffffffffffffffff1673ffffffffffffffffffffffffffffffffffffffff1614610e9b576040517f08c379a0000000000000000000000000000000000000000000000000000000008152600401610e929061286d565b60405180910390fd5b60015f8473ffffffffffffffffffffffffffffffffffffffff1673ffffffffffffffffffffffffffffffffffffffff1681526020019081526020015f205f8381526020019081526020015f205f5f82015f6101000a81549073ffffffffffffffffffffffffffffffffffffffff0219169055600182015f9055600282015f9055600382015f9055600482015f6101000a81549060ff02191690556004820160016101000a81549060ff02191690556004820160026101000a81549073ffffffffffffffffffffffffffffffffffffffff02191690555050818373ffffffffffffffffffffffffffffffffffffffff163373ffffffffffffffffffffffffffffffffffffffff167fb28e9e14a2fbae903397ac018a71f930ae415bcaf8fd57a5c4ea212e4de9daa260405160405180910390a4505050565b5f5f5f5f8481526020019081526020015f2090508060030160149054906101000a900460ff16611005575f91505061111e565b8373ffffffffffffffffffffffffffffffffffffffff16816003015f9054906101000a900473ffffffffffffffffffffffffffffffffffffffff1673ffffffffffffffffffffffffffffffffffffffff160361106557600191505061111e565b600180811115611078576110776121e6565b5b816005015f9054906101000a900460ff16600181111561109b5761109a6121e6565b5b036110aa57600191505061111e565b5f60015f8673ffffffffffffffffffffffffffffffffffffffff1673ffffffffffffffffffffffffffffffffffffffff1681526020019081526020015f205f8581526020019081526020015f209050806004015f9054906101000a900460ff1680156111195750806003015442105b925050505b92915050565b5f5f5f5f915091509091565b803373ffffffffffffffffffffffffffffffffffffffff165f5f8381526020019081526020015f206003015f9054906101000a900473ffffffffffffffffffffffffffffffffffffffff1673ffffffffffffffffffffffffffffffffffffffff16146111d1576040517f08c379a00000000000000000000000000000000000000000000000000000000081526004016111c89061286d565b60405180910390fd5b5f5f5f8481526020019081526020015f2090508060030160149054906101000a900460ff16611235576040517f08c379a000000000000000000000000000000000000000000000000000000000815260040161122c90612ecd565b60405180910390fd5b5f8160030160146101000a81548160ff0219169083151502179055505f60025f3373ffffffffffffffffffffffffffffffffffffffff1673ffffffffffffffffffffffffffffffffffffffff1681526020019081526020015f2090505f5f90505b818054905081101561134557848282815481106112b6576112b5612eeb565b5b905f5260205f200154036113385781600183805490506112d69190612f45565b815481106112e7576112e6612eeb565b5b905f5260205f20015482828154811061130357611302612eeb565b5b905f5260205f200181905550818054806113205761131f612f78565b5b600190038181905f5260205f20015f90559055611345565b8080600101915050611296565b5050505050565b833373ffffffffffffffffffffffffffffffffffffffff165f5f8381526020019081526020015f206003015f9054906101000a900473ffffffffffffffffffffffffffffffffffffffff1673ffffffffffffffffffffffffffffffffffffffff16146113ed576040517f08c379a00000000000000000000000000000000000000000000000000000000081526004016113e49061286d565b60405180910390fd5b5f5f5f8781526020019081526020015f2090505f73ffffffffffffffffffffffffffffffffffffffff168773ffffffffffffffffffffffffffffffffffffffff160361146e576040517f08c379a000000000000000000000000000000000000000000000000000000000815260040161146590612fef565b60405180910390fd5b5f83116114b0576040517f08c379a00000000000000000000000000000000000000000000000000000000081526004016114a790613057565b60405180910390fd5b8060030160149054906101000a900460ff16611501576040517f08c379a00000000000000000000000000000000000000000000000000000000081526004016114f8906128d5565b60405180910390fd5b5f6001811115611514576115136121e6565b5b816005015f9054906101000a900460ff166001811115611537576115366121e6565b5b14611577576040517f08c379a000000000000000000000000000000000000000000000000000000000815260040161156e906130bf565b60405180910390fd5b5f834261158491906130dd565b90506040518060e001604052808973ffffffffffffffffffffffffffffffffffffffff168152602001888152602001428152602001828152602001871515815260200186151581526020013373ffffffffffffffffffffffffffffffffffffffff1681525060015f8a73ffffffffffffffffffffffffffffffffffffffff1673ffffffffffffffffffffffffffffffffffffffff1681526020019081526020015f205f8981526020019081526020015f205f820151815f015f6101000a81548173ffffffffffffffffffffffffffffffffffffffff021916908373ffffffffffffffffffffffffffffffffffffffff1602179055506020820151816001015560408201518160020155606082015181600301556080820151816004015f6101000a81548160ff02191690831515021790555060a08201518160040160016101000a81548160ff02191690831515021790555060c08201518160040160026101000a81548173ffffffffffffffffffffffffffffffffffffffff021916908373ffffffffffffffffffffffffffffffffffffffff160217905550905050868873ffffffffffffffffffffffffffffffffffffffff163373ffffffffffffffffffffffffffffffffffffffff167f34d1ac3ec20b10ecfbb0bf62b7538be273454c43dd4090afd9882b6b32d101428460405161177e919061238c565b60405180910390a45050505050505050565b803373ffffffffffffffffffffffffffffffffffffffff165f5f8381526020019081526020015f206003015f9054906101000a900473ffffffffffffffffffffffffffffffffffffffff1673ffffffffffffffffffffffffffffffffffffffff1614611831576040517f08c379a00000000000000000000000000000000000000000000000000000000081526004016118289061286d565b60405180910390fd5b5f5f5f8481526020019081526020015f2090508060030160149054906101000a900460ff16611895576040517f08c379a000000000000000000000000000000000000000000000000000000000815260040161188c906128d5565b60405180910390fd5b5f60018111156118a8576118a76121e6565b5b816005015f9054906101000a900460ff1660018111156118cb576118ca6121e6565b5b1461190b576040517f08c379a00000000000000000000000000000000000000000000000000000000081526004016119029061315a565b60405180910390fd5b5f816005015f9054906101000a900460ff1690506001826005015f6101000a81548160ff02191690836001811115611946576119456121e6565b5b0217905550833373ffffffffffffffffffffffffffffffffffffffff167fd950d63959e5077ffc72c153e9974d7fb3c7b072a0399e683cc9d78f78ec289a836001426040516119979392919061295b565b60405180910390a350505050565b5f5f5f5f5f60015f8873ffffffffffffffffffffffffffffffffffffffff1673ffffffffffffffffffffffffffffffffffffffff1681526020019081526020015f205f8781526020019081526020015f20905080600301544210611a15575f5f5f5f945094509450945050611a49565b6001816004015f9054906101000a900460ff168260040160019054906101000a900460ff1683600301549450945094509450505b92959194509250565b823373ffffffffffffffffffffffffffffffffffffffff165f5f8381526020019081526020015f206003015f9054906101000a900473ffffffffffffffffffffffffffffffffffffffff1673ffffffffffffffffffffffffffffffffffffffff161480611b72575060015f3373ffffffffffffffffffffffffffffffffffffffff1673ffffffffffffffffffffffffffffffffffffffff1681526020019081526020015f205f8281526020019081526020015f2060040160019054906101000a900460ff168015611b71575060015f3373ffffffffffffffffffffffffffffffffffffffff1673ffffffffffffffffffffffffffffffffffffffff1681526020019081526020015f205f8281526020019081526020015f206003015442105b5b611bb1576040517f08c379a0000000000000000000000000000000000000000000000000000000008152600401611ba8906131c2565b60405180910390fd5b5f5f5f8681526020019081526020015f2090508060030160149054906101000a900460ff16611c15576040517f08c379a0000000000000000000000000000000000000000000000000000000008152600401611c0c906128d5565b60405180910390fd5b83815f018190555082816001018190555042816002018190555084816003015f9054906101000a900473ffffffffffffffffffffffffffffffffffffffff1673ffffffffffffffffffffffffffffffffffffffff167f13f7afaee69a997e8042a73df952599e66eec6f76faa8fe9ed83d73a7727912742604051611c99919061238c565b60405180910390a35050505050565b5f5f90505b8451811015611d6a573373ffffffffffffffffffffffffffffffffffffffff165f5f878481518110611ce257611ce1612eeb565b5b602002602001015181526020019081526020015f206003015f9054906101000a900473ffffffffffffffffffffffffffffffffffffffff1673ffffffffffffffffffffffffffffffffffffffff1603611d5d57611d5c86868381518110611d4c57611d4b612eeb565b5b602002602001015186868661134c565b5b8080600101915050611cad565b505050505050565b6002602052815f5260405f208181548110611d8b575f80fd5b905f5260205f20015f91509150505481565b5f602052805f5260405f205f91509050805f015490806001015490806002015490806003015f9054906101000a900473ffffffffffffffffffffffffffffffffffffffff16908060030160149054906101000a900460ff1690806004018054611e0590612a25565b80601f0160208091040260200160405190810160405280929190818152602001828054611e3190612a25565b8015611e7c5780601f10611e5357610100808354040283529160200191611e7c565b820191905f5260205f20905b815481529060010190602001808311611e5f57829003601f168201915b505050505090806005015f9054906101000a900460ff16905087565b5f604051905090565b5f5ffd5b5f5ffd5b5f819050919050565b611ebb81611ea9565b8114611ec5575f5ffd5b50565b5f81359050611ed681611eb2565b92915050565b5f60208284031215611ef157611ef0611ea1565b5b5f611efe84828501611ec8565b91505092915050565b611f1081611ea9565b82525050565b5f819050919050565b611f2881611f16565b82525050565b5f73ffffffffffffffffffffffffffffffffffffffff82169050919050565b5f611f5782611f2e565b9050919050565b611f6781611f4d565b82525050565b5f81519050919050565b5f82825260208201905092915050565b8281835e5f83830152505050565b5f601f19601f8301169050919050565b5f611faf82611f6d565b611fb98185611f77565b9350611fc9818560208601611f87565b611fd281611f95565b840191505092915050565b5f60a082019050611ff05f830188611f07565b611ffd6020830187611f07565b61200a6040830186611f1f565b6120176060830185611f5e565b81810360808301526120298184611fa5565b90509695505050505050565b5f5ffd5b5f5ffd5b7f4e487b71000000000000000000000000000000000000000000000000000000005f52604160045260245ffd5b61207382611f95565b810181811067ffffffffffffffff821117156120925761209161203d565b5b80604052505050565b5f6120a4611e98565b90506120b0828261206a565b919050565b5f67ffffffffffffffff8211156120cf576120ce61203d565b5b6120d882611f95565b9050602081019050919050565b828183375f83830152505050565b5f612105612100846120b5565b61209b565b90508281526020810184848401111561212157612120612039565b5b61212c8482856120e5565b509392505050565b5f82601f83011261214857612147612035565b5b81356121588482602086016120f3565b91505092915050565b5f5f5f6060848603121561217857612177611ea1565b5b5f61218586828701611ec8565b935050602061219686828701611ec8565b925050604084013567ffffffffffffffff8111156121b7576121b6611ea5565b5b6121c386828701612134565b9150509250925092565b5f6020820190506121e05f830184611f07565b92915050565b7f4e487b71000000000000000000000000000000000000000000000000000000005f52602160045260245ffd5b60028110612224576122236121e6565b5b50565b5f81905061223482612213565b919050565b5f61224382612227565b9050919050565b61225381612239565b82525050565b5f60208201905061226c5f83018461224a565b92915050565b61227b81611f4d565b8114612285575f5ffd5b50565b5f8135905061229681612272565b92915050565b5f5f604083850312156122b2576122b1611ea1565b5b5f6122bf85828601612288565b92505060206122d085828601611ec8565b9150509250929050565b5f8115159050919050565b6122ee816122da565b82525050565b5f60e0820190506123075f83018a611f5e565b6123146020830189611f07565b6123216040830188611f1f565b61232e6060830187611f1f565b61233b60808301866122e5565b61234860a08301856122e5565b61235560c0830184611f5e565b98975050505050505050565b5f6020828403121561237657612375611ea1565b5b5f61238384828501612288565b91505092915050565b5f60208201905061239f5f830184611f1f565b92915050565b5f81519050919050565b5f82825260208201905092915050565b5f819050602082019050919050565b6123d781611ea9565b82525050565b5f6123e883836123ce565b60208301905092915050565b5f602082019050919050565b5f61240a826123a5565b61241481856123af565b935061241f836123bf565b805f5b8381101561244f57815161243688826123dd565b9750612441836123f4565b925050600181019050612422565b5085935050505092915050565b5f6020820190508181035f8301526124748184612400565b905092915050565b5f60208201905061248f5f8301846122e5565b92915050565b5f6040820190506124a85f830185611f1f565b6124b56020830184611f1f565b9392505050565b6124c5816122da565b81146124cf575f5ffd5b50565b5f813590506124e0816124bc565b92915050565b6124ef81611f16565b81146124f9575f5ffd5b50565b5f8135905061250a816124e6565b92915050565b5f5f5f5f5f60a0868803121561252957612528611ea1565b5b5f61253688828901612288565b955050602061254788828901611ec8565b9450506040612558888289016124d2565b9350506060612569888289016124d2565b925050608061257a888289016124fc565b9150509295509295909350565b5f60808201905061259a5f8301876122e5565b6125a760208301866122e5565b6125b460408301856122e5565b6125c16060830184611f1f565b95945050505050565b5f5f5f606084860312156125e1576125e0611ea1565b5b5f6125ee86828701611ec8565b93505060206125ff86828701611ec8565b925050604061261086828701611ec8565b9150509250925092565b5f67ffffffffffffffff8211156126345761263361203d565b5b602082029050602081019050919050565b5f5ffd5b5f61265b6126568461261a565b61209b565b9050808382526020820190506020840283018581111561267e5761267d612645565b5b835b818110156126a757806126938882611ec8565b845260208401935050602081019050612680565b5050509392505050565b5f82601f8301126126c5576126c4612035565b5b81356126d5848260208601612649565b91505092915050565b5f5f5f5f5f60a086880312156126f7576126f6611ea1565b5b5f61270488828901612288565b955050602086013567ffffffffffffffff81111561272557612724611ea5565b5b612731888289016126b1565b9450506040612742888289016124d2565b9350506060612753888289016124d2565b9250506080612764888289016124fc565b9150509295509295909350565b5f5f6040838503121561278757612786611ea1565b5b5f61279485828601612288565b92505060206127a5858286016124fc565b9150509250929050565b5f60e0820190506127c25f83018a611f07565b6127cf6020830189611f07565b6127dc6040830188611f1f565b6127e96060830187611f5e565b6127f660808301866122e5565b81810360a08301526128088185611fa5565b905061281760c083018461224a565b98975050505050505050565b7f4e6f742064617461206f776e65720000000000000000000000000000000000005f82015250565b5f612857600e83611f77565b915061286282612823565b602082019050919050565b5f6020820190508181035f8301526128848161284b565b9050919050565b7f44617461206e6f742061637469766500000000000000000000000000000000005f82015250565b5f6128bf600f83611f77565b91506128ca8261288b565b602082019050919050565b5f6020820190508181035f8301526128ec816128b3565b9050919050565b7f416c7265616479207072697661746500000000000000000000000000000000005f82015250565b5f612927600f83611f77565b9150612932826128f3565b602082019050919050565b5f6020820190508181035f8301526129548161291b565b9050919050565b5f60608201905061296e5f83018661224a565b61297b602083018561224a565b6129886040830184611f1f565b949350505050565b7f4e6f2072656164207065726d697373696f6e00000000000000000000000000005f82015250565b5f6129c4601283611f77565b91506129cf82612990565b602082019050919050565b5f6020820190508181035f8301526129f1816129b8565b9050919050565b7f4e487b71000000000000000000000000000000000000000000000000000000005f52602260045260245ffd5b5f6002820490506001821680612a3c57607f821691505b602082108103612a4f57612a4e6129f8565b5b50919050565b5f8160601b9050919050565b5f612a6b82612a55565b9050919050565b5f612a7c82612a61565b9050919050565b612a94612a8f82611f4d565b612a72565b82525050565b5f819050919050565b612ab4612aaf82611ea9565b612a9a565b82525050565b5f819050919050565b612ad4612acf82611f16565b612aba565b82525050565b5f612ae58286612a83565b601482019150612af58285612aa3565b602082019150612b058284612ac3565b602082019150819050949350505050565b7f4461746120616c726561647920657869737473000000000000000000000000005f82015250565b5f612b4a601383611f77565b9150612b5582612b16565b602082019050919050565b5f6020820190508181035f830152612b7781612b3e565b9050919050565b5f819050815f5260205f209050919050565b5f6020601f8301049050919050565b5f82821b905092915050565b5f60088302612bda7fffffffffffffffffffffffffffffffffffffffffffffffffffffffffffffffff82612b9f565b612be48683612b9f565b95508019841693508086168417925050509392505050565b5f819050919050565b5f612c1f612c1a612c1584611f16565b612bfc565b611f16565b9050919050565b5f819050919050565b612c3883612c05565b612c4c612c4482612c26565b848454612bab565b825550505050565b5f5f905090565b612c63612c54565b612c6e818484612c2f565b505050565b5b81811015612c9157612c865f82612c5b565b600181019050612c74565b5050565b601f821115612cd657612ca781612b7e565b612cb084612b90565b81016020851015612cbf578190505b612cd3612ccb85612b90565b830182612c73565b50505b505050565b5f82821c905092915050565b5f612cf65f1984600802612cdb565b1980831691505092915050565b5f612d0e8383612ce7565b9150826002028217905092915050565b612d2782611f6d565b67ffffffffffffffff811115612d4057612d3f61203d565b5b612d4a8254612a25565b612d55828285612c95565b5f60209050601f831160018114612d86575f8415612d74578287015190505b612d7e8582612d03565b865550612de5565b601f198416612d9486612b7e565b5f5b82811015612dbb57848901518255600182019150602085019450602081019050612d96565b86831015612dd85784890151612dd4601f891682612ce7565b8355505b6001600288020188555050505b505050505050565b5f6040820190508181035f830152612e058185611fa5565b9050612e146020830184611f1f565b9392505050565b7f44617461206e6f7420666f756e640000000000000000000000000000000000005f82015250565b5f612e4f600e83611f77565b9150612e5a82612e1b565b602082019050919050565b5f6020820190508181035f830152612e7c81612e43565b9050919050565b7f4461746120616c726561647920696e61637469766500000000000000000000005f82015250565b5f612eb7601583611f77565b9150612ec282612e83565b602082019050919050565b5f6020820190508181035f830152612ee481612eab565b9050919050565b7f4e487b71000000000000000000000000000000000000000000000000000000005f52603260045260245ffd5b7f4e487b71000000000000000000000000000000000000000000000000000000005f52601160045260245ffd5b5f612f4f82611f16565b9150612f5a83611f16565b9250828203905081811115612f7257612f71612f18565b5b92915050565b7f4e487b71000000000000000000000000000000000000000000000000000000005f52603160045260245ffd5b7f496e76616c6964207265717565737465720000000000000000000000000000005f82015250565b5f612fd9601183611f77565b9150612fe482612fa5565b602082019050919050565b5f6020820190508181035f83015261300681612fcd565b9050919050565b7f496e76616c6964206475726174696f6e000000000000000000000000000000005f82015250565b5f613041601083611f77565b915061304c8261300d565b602082019050919050565b5f6020820190508181035f83015261306e81613035565b9050919050565b7f5075626c6963206461746120646f6573206e6f74206e656564206772616e74005f82015250565b5f6130a9601f83611f77565b91506130b482613075565b602082019050919050565b5f6020820190508181035f8301526130d68161309d565b9050919050565b5f6130e782611f16565b91506130f283611f16565b925082820190508082111561310a57613109612f18565b5b92915050565b7f416c7265616479207075626c69630000000000000000000000000000000000005f82015250565b5f613144600e83611f77565b915061314f82613110565b602082019050919050565b5f6020820190508181035f83015261317181613138565b9050919050565b7f4e6f207772697465207065726d697373696f6e000000000000000000000000005f82015250565b5f6131ac601383611f77565b91506131b782613178565b602082019050919050565b5f6020820190508181035f8301526131d9816131a0565b905091905056fea26469706673582212201da9a2305159d3e5e37fcc3ee2d38266df6bcff645b74aee89ac07b0a0da729a64736f6c634300081e0033",
					"opcodes": "PUSH1 0x80 PUSH1 0x40 MSTORE CALLVALUE DUP1 ISZERO PUSH1 0xE JUMPI PUSH0 PUSH0 REVERT JUMPDEST POP PUSH2 0x3216 DUP1 PUSH2 0x1C PUSH0 CODECOPY PUSH0 RETURN INVALID PUSH1 0x80 PUSH1 0x40 MSTORE CALLVALUE DUP1 ISZERO PUSH2 0xF JUMPI PUSH0 PUSH0 REVERT JUMPDEST POP PUSH1 0x4 CALLDATASIZE LT PUSH2 0x114 JUMPI PUSH0 CALLDATALOAD PUSH1 0xE0 SHR DUP1 PUSH4 0x7CC1F867 GT PUSH2 0xA0 JUMPI DUP1 PUSH4 0xD6392057 GT PUSH2 0x6F JUMPI DUP1 PUSH4 0xD6392057 EQ PUSH2 0x31D JUMPI DUP1 PUSH4 0xD7ED69C1 EQ PUSH2 0x350 JUMPI DUP1 PUSH4 0xE189C8B8 EQ PUSH2 0x36C JUMPI DUP1 PUSH4 0xE85D28B9 EQ PUSH2 0x388 JUMPI DUP1 PUSH4 0xE9021744 EQ PUSH2 0x3B8 JUMPI PUSH2 0x114 JUMP JUMPDEST DUP1 PUSH4 0x7CC1F867 EQ PUSH2 0x2AA JUMPI DUP1 PUSH4 0x86911CDE EQ PUSH2 0x2C9 JUMPI DUP1 PUSH4 0x89C5D346 EQ PUSH2 0x2E5 JUMPI DUP1 PUSH4 0xC0E01108 EQ PUSH2 0x301 JUMPI PUSH2 0x114 JUMP JUMPDEST DUP1 PUSH4 0x5B225526 GT PUSH2 0xE7 JUMPI DUP1 PUSH4 0x5B225526 EQ PUSH2 0x1C8 JUMPI DUP1 PUSH4 0x647F94A5 EQ PUSH2 0x1FE JUMPI DUP1 PUSH4 0x66792D00 EQ PUSH2 0x22E JUMPI DUP1 PUSH4 0x73125163 EQ PUSH2 0x25E JUMPI DUP1 PUSH4 0x7461F24A EQ PUSH2 0x27A JUMPI PUSH2 0x114 JUMP JUMPDEST DUP1 PUSH4 0x6848DCD EQ PUSH2 0x118 JUMPI DUP1 PUSH4 0xA519FE1 EQ PUSH2 0x134 JUMPI DUP1 PUSH4 0x380B06C0 EQ PUSH2 0x168 JUMPI DUP1 PUSH4 0x46E036CF EQ PUSH2 0x198 JUMPI JUMPDEST PUSH0 PUSH0 REVERT JUMPDEST PUSH2 0x132 PUSH1 0x4 DUP1 CALLDATASIZE SUB DUP2 ADD SWAP1 PUSH2 0x12D SWAP2 SWAP1 PUSH2 0x1EDC JUMP JUMPDEST PUSH2 0x3EE JUMP JUMPDEST STOP JUMPDEST PUSH2 0x14E PUSH1 0x4 DUP1 CALLDATASIZE SUB DUP2 ADD SWAP1 PUSH2 0x149 SWAP2 SWAP1 PUSH2 0x1EDC JUMP JUMPDEST PUSH2 0x601 JUMP JUMPDEST PUSH1 0x40 MLOAD PUSH2 0x15F SWAP6 SWAP5 SWAP4 SWAP3 SWAP2 SWAP1 PUSH2 0x1FDD JUMP JUMPDEST PUSH1 0x40 MLOAD DUP1 SWAP2 SUB SWAP1 RETURN JUMPDEST PUSH2 0x182 PUSH1 0x4 DUP1 CALLDATASIZE SUB DUP2 ADD SWAP1 PUSH2 0x17D SWAP2 SWAP1 PUSH2 0x2161 JUMP JUMPDEST PUSH2 0x8FB JUMP JUMPDEST PUSH1 0x40 MLOAD PUSH2 0x18F SWAP2 SWAP1 PUSH2 0x21CD JUMP JUMPDEST PUSH1 0x40 MLOAD DUP1 SWAP2 SUB SWAP1 RETURN JUMPDEST PUSH2 0x1B2 PUSH1 0x4 DUP1 CALLDATASIZE SUB DUP2 ADD SWAP1 PUSH2 0x1AD SWAP2 SWAP1 PUSH2 0x1EDC JUMP JUMPDEST PUSH2 0xBBF JUMP JUMPDEST PUSH1 0x40 MLOAD PUSH2 0x1BF SWAP2 SWAP1 PUSH2 0x2259 JUMP JUMPDEST PUSH1 0x40 MLOAD DUP1 SWAP2 SUB SWAP1 RETURN JUMPDEST PUSH2 0x1E2 PUSH1 0x4 DUP1 CALLDATASIZE SUB DUP2 ADD SWAP1 PUSH2 0x1DD SWAP2 SWAP1 PUSH2 0x229C JUMP JUMPDEST PUSH2 0xC7D JUMP JUMPDEST PUSH1 0x40 MLOAD PUSH2 0x1F5 SWAP8 SWAP7 SWAP6 SWAP5 SWAP4 SWAP3 SWAP2 SWAP1 PUSH2 0x22F4 JUMP JUMPDEST PUSH1 0x40 MLOAD DUP1 SWAP2 SUB SWAP1 RETURN JUMPDEST PUSH2 0x218 PUSH1 0x4 DUP1 CALLDATASIZE SUB DUP2 ADD SWAP1 PUSH2 0x213 SWAP2 SWAP1 PUSH2 0x2361 JUMP JUMPDEST PUSH2 0xD1E JUMP JUMPDEST PUSH1 0x40 MLOAD PUSH2 0x225 SWAP2 SWAP1 PUSH2 0x238C JUMP JUMPDEST PUSH1 0x40 MLOAD DUP1 SWAP2 SUB SWAP1 RETURN JUMPDEST PUSH2 0x248 PUSH1 0x4 DUP1 CALLDATASIZE SUB DUP2 ADD SWAP1 PUSH2 0x243 SWAP2 SWAP1 PUSH2 0x2361 JUMP JUMPDEST PUSH2 0xD67 JUMP JUMPDEST PUSH1 0x40 MLOAD PUSH2 0x255 SWAP2 SWAP1 PUSH2 0x245C JUMP JUMPDEST PUSH1 0x40 MLOAD DUP1 SWAP2 SUB SWAP1 RETURN JUMPDEST PUSH2 0x278 PUSH1 0x4 DUP1 CALLDATASIZE SUB DUP2 ADD SWAP1 PUSH2 0x273 SWAP2 SWAP1 PUSH2 0x229C JUMP JUMPDEST PUSH2 0xDFA JUMP JUMPDEST STOP JUMPDEST PUSH2 0x294 PUSH1 0x4 DUP1 CALLDATASIZE SUB DUP2 ADD SWAP1 PUSH2 0x28F SWAP2 SWAP1 PUSH2 0x229C JUMP JUMPDEST PUSH2 0xFD2 JUMP JUMPDEST PUSH1 0x40 MLOAD PUSH2 0x2A1 SWAP2 SWAP1 PUSH2 0x247C JUMP JUMPDEST PUSH1 0x40 MLOAD DUP1 SWAP2 SUB SWAP1 RETURN JUMPDEST PUSH2 0x2B2 PUSH2 0x1124 JUMP JUMPDEST PUSH1 0x40 MLOAD PUSH2 0x2C0 SWAP3 SWAP2 SWAP1 PUSH2 0x2495 JUMP JUMPDEST PUSH1 0x40 MLOAD DUP1 SWAP2 SUB SWAP1 RETURN JUMPDEST PUSH2 0x2E3 PUSH1 0x4 DUP1 CALLDATASIZE SUB DUP2 ADD SWAP1 PUSH2 0x2DE SWAP2 SWAP1 PUSH2 0x1EDC JUMP JUMPDEST PUSH2 0x1130 JUMP JUMPDEST STOP JUMPDEST PUSH2 0x2FF PUSH1 0x4 DUP1 CALLDATASIZE SUB DUP2 ADD SWAP1 PUSH2 0x2FA SWAP2 SWAP1 PUSH2 0x2510 JUMP JUMPDEST PUSH2 0x134C JUMP JUMPDEST STOP JUMPDEST PUSH2 0x31B PUSH1 0x4 DUP1 CALLDATASIZE SUB DUP2 ADD SWAP1 PUSH2 0x316 SWAP2 SWAP1 PUSH2 0x1EDC JUMP JUMPDEST PUSH2 0x1790 JUMP JUMPDEST STOP JUMPDEST PUSH2 0x337 PUSH1 0x4 DUP1 CALLDATASIZE SUB DUP2 ADD SWAP1 PUSH2 0x332 SWAP2 SWAP1 PUSH2 0x229C JUMP JUMPDEST PUSH2 0x19A5 JUMP JUMPDEST PUSH1 0x40 MLOAD PUSH2 0x347 SWAP5 SWAP4 SWAP3 SWAP2 SWAP1 PUSH2 0x2587 JUMP JUMPDEST PUSH1 0x40 MLOAD DUP1 SWAP2 SUB SWAP1 RETURN JUMPDEST PUSH2 0x36A PUSH1 0x4 DUP1 CALLDATASIZE SUB DUP2 ADD SWAP1 PUSH2 0x365 SWAP2 SWAP1 PUSH2 0x25CA JUMP JUMPDEST PUSH2 0x1A52 JUMP JUMPDEST STOP JUMPDEST PUSH2 0x386 PUSH1 0x4 DUP1 CALLDATASIZE SUB DUP2 ADD SWAP1 PUSH2 0x381 SWAP2 SWAP1 PUSH2 0x26DE JUMP JUMPDEST PUSH2 0x1CA8 JUMP JUMPDEST STOP JUMPDEST PUSH2 0x3A2 PUSH1 0x4 DUP1 CALLDATASIZE SUB DUP2 ADD SWAP1 PUSH2 0x39D SWAP2 SWAP1 PUSH2 0x2771 JUMP JUMPDEST PUSH2 0x1D72 JUMP JUMPDEST PUSH1 0x40 MLOAD PUSH2 0x3AF SWAP2 SWAP1 PUSH2 0x21CD JUMP JUMPDEST PUSH1 0x40 MLOAD DUP1 SWAP2 SUB SWAP1 RETURN JUMPDEST PUSH2 0x3D2 PUSH1 0x4 DUP1 CALLDATASIZE SUB DUP2 ADD SWAP1 PUSH2 0x3CD SWAP2 SWAP1 PUSH2 0x1EDC JUMP JUMPDEST PUSH2 0x1D9D JUMP JUMPDEST PUSH1 0x40 MLOAD PUSH2 0x3E5 SWAP8 SWAP7 SWAP6 SWAP5 SWAP4 SWAP3 SWAP2 SWAP1 PUSH2 0x27AF JUMP JUMPDEST PUSH1 0x40 MLOAD DUP1 SWAP2 SUB SWAP1 RETURN JUMPDEST DUP1 CALLER PUSH20 0xFFFFFFFFFFFFFFFFFFFFFFFFFFFFFFFFFFFFFFFF AND PUSH0 PUSH0 DUP4 DUP2 MSTORE PUSH1 0x20 ADD SWAP1 DUP2 MSTORE PUSH1 0x20 ADD PUSH0 KECCAK256 PUSH1 0x3 ADD PUSH0 SWAP1 SLOAD SWAP1 PUSH2 0x100 EXP SWAP1 DIV PUSH20 0xFFFFFFFFFFFFFFFFFFFFFFFFFFFFFFFFFFFFFFFF AND PUSH20 0xFFFFFFFFFFFFFFFFFFFFFFFFFFFFFFFFFFFFFFFF AND EQ PUSH2 0x48F JUMPI PUSH1 0x40 MLOAD PUSH32 0x8C379A000000000000000000000000000000000000000000000000000000000 DUP2 MSTORE PUSH1 0x4 ADD PUSH2 0x486 SWAP1 PUSH2 0x286D JUMP JUMPDEST PUSH1 0x40 MLOAD DUP1 SWAP2 SUB SWAP1 REVERT JUMPDEST PUSH0 PUSH0 PUSH0 DUP5 DUP2 MSTORE PUSH1 0x20 ADD SWAP1 DUP2 MSTORE PUSH1 0x20 ADD PUSH0 KECCAK256 SWAP1 POP DUP1 PUSH1 0x3 ADD PUSH1 0x14 SWAP1 SLOAD SWAP1 PUSH2 0x100 EXP SWAP1 DIV PUSH1 0xFF AND PUSH2 0x4F3 JUMPI PUSH1 0x40 MLOAD PUSH32 0x8C379A000000000000000000000000000000000000000000000000000000000 DUP2 MSTORE PUSH1 0x4 ADD PUSH2 0x4EA SWAP1 PUSH2 0x28D5 JUMP JUMPDEST PUSH1 0x40 MLOAD DUP1 SWAP2 SUB SWAP1 REVERT JUMPDEST PUSH1 0x1 DUP1 DUP2 GT ISZERO PUSH2 0x506 JUMPI PUSH2 0x505 PUSH2 0x21E6 JUMP JUMPDEST JUMPDEST DUP2 PUSH1 0x5 ADD PUSH0 SWAP1 SLOAD SWAP1 PUSH2 0x100 EXP SWAP1 DIV PUSH1 0xFF AND PUSH1 0x1 DUP2 GT ISZERO PUSH2 0x529 JUMPI PUSH2 0x528 PUSH2 0x21E6 JUMP JUMPDEST JUMPDEST EQ PUSH2 0x569 JUMPI PUSH1 0x40 MLOAD PUSH32 0x8C379A000000000000000000000000000000000000000000000000000000000 DUP2 MSTORE PUSH1 0x4 ADD PUSH2 0x560 SWAP1 PUSH2 0x293D JUMP JUMPDEST PUSH1 0x40 MLOAD DUP1 SWAP2 SUB SWAP1 REVERT JUMPDEST PUSH0 DUP2 PUSH1 0x5 ADD PUSH0 SWAP1 SLOAD SWAP1 PUSH2 0x100 EXP SWAP1 DIV PUSH1 0xFF AND SWAP1 POP PUSH0 DUP3 PUSH1 0x5 ADD PUSH0 PUSH2 0x100 EXP DUP2 SLOAD DUP2 PUSH1 0xFF MUL NOT AND SWAP1 DUP4 PUSH1 0x1 DUP2 GT ISZERO PUSH2 0x5A3 JUMPI PUSH2 0x5A2 PUSH2 0x21E6 JUMP JUMPDEST JUMPDEST MUL OR SWAP1 SSTORE POP DUP4 CALLER PUSH20 0xFFFFFFFFFFFFFFFFFFFFFFFFFFFFFFFFFFFFFFFF AND PUSH32 0xD950D63959E5077FFC72C153E9974D7FB3C7B072A0399E683CC9D78F78EC289A DUP4 PUSH0 TIMESTAMP PUSH1 0x40 MLOAD PUSH2 0x5F3 SWAP4 SWAP3 SWAP2 SWAP1 PUSH2 0x295B JUMP JUMPDEST PUSH1 0x40 MLOAD DUP1 SWAP2 SUB SWAP1 LOG3 POP POP POP POP JUMP JUMPDEST PUSH0 PUSH0 PUSH0 PUSH0 PUSH1 0x60 DUP6 PUSH0 PUSH0 PUSH0 DUP4 DUP2 MSTORE PUSH1 0x20 ADD SWAP1 DUP2 MSTORE PUSH1 0x20 ADD PUSH0 KECCAK256 SWAP1 POP CALLER PUSH20 0xFFFFFFFFFFFFFFFFFFFFFFFFFFFFFFFFFFFFFFFF AND DUP2 PUSH1 0x3 ADD PUSH0 SWAP1 SLOAD SWAP1 PUSH2 0x100 EXP SWAP1 DIV PUSH20 0xFFFFFFFFFFFFFFFFFFFFFFFFFFFFFFFFFFFFFFFF AND PUSH20 0xFFFFFFFFFFFFFFFFFFFFFFFFFFFFFFFFFFFFFFFF AND EQ DUP1 PUSH2 0x6C5 JUMPI POP PUSH1 0x1 DUP1 DUP2 GT ISZERO PUSH2 0x686 JUMPI PUSH2 0x685 PUSH2 0x21E6 JUMP JUMPDEST JUMPDEST DUP2 PUSH1 0x5 ADD PUSH0 SWAP1 SLOAD SWAP1 PUSH2 0x100 EXP SWAP1 DIV PUSH1 0xFF AND PUSH1 0x1 DUP2 GT ISZERO PUSH2 0x6A9 JUMPI PUSH2 0x6A8 PUSH2 0x21E6 JUMP JUMPDEST JUMPDEST EQ DUP1 ISZERO PUSH2 0x6C4 JUMPI POP DUP1 PUSH1 0x3 ADD PUSH1 0x14 SWAP1 SLOAD SWAP1 PUSH2 0x100 EXP SWAP1 DIV PUSH1 0xFF AND JUMPDEST JUMPDEST DUP1 PUSH2 0x782 JUMPI POP PUSH1 0x1 PUSH0 CALLER PUSH20 0xFFFFFFFFFFFFFFFFFFFFFFFFFFFFFFFFFFFFFFFF AND PUSH20 0xFFFFFFFFFFFFFFFFFFFFFFFFFFFFFFFFFFFFFFFF AND DUP2 MSTORE PUSH1 0x20 ADD SWAP1 DUP2 MSTORE PUSH1 0x20 ADD PUSH0 KECCAK256 PUSH0 DUP4 DUP2 MSTORE PUSH1 0x20 ADD SWAP1 DUP2 MSTORE PUSH1 0x20 ADD PUSH0 KECCAK256 PUSH1 0x4 ADD PUSH0 SWAP1 SLOAD SWAP1 PUSH2 0x100 EXP SWAP1 DIV PUSH1 0xFF AND DUP1 ISZERO PUSH2 0x781 JUMPI POP PUSH1 0x1 PUSH0 CALLER PUSH20 0xFFFFFFFFFFFFFFFFFFFFFFFFFFFFFFFFFFFFFFFF AND PUSH20 0xFFFFFFFFFFFFFFFFFFFFFFFFFFFFFFFFFFFFFFFF AND DUP2 MSTORE PUSH1 0x20 ADD SWAP1 DUP2 MSTORE PUSH1 0x20 ADD PUSH0 KECCAK256 PUSH0 DUP4 DUP2 MSTORE PUSH1 0x20 ADD SWAP1 DUP2 MSTORE PUSH1 0x20 ADD PUSH0 KECCAK256 PUSH1 0x3 ADD SLOAD TIMESTAMP LT JUMPDEST JUMPDEST PUSH2 0x7C1 JUMPI PUSH1 0x40 MLOAD PUSH32 0x8C379A000000000000000000000000000000000000000000000000000000000 DUP2 MSTORE PUSH1 0x4 ADD PUSH2 0x7B8 SWAP1 PUSH2 0x29DA JUMP JUMPDEST PUSH1 0x40 MLOAD DUP1 SWAP2 SUB SWAP1 REVERT JUMPDEST PUSH0 PUSH0 PUSH0 DUP11 DUP2 MSTORE PUSH1 0x20 ADD SWAP1 DUP2 MSTORE PUSH1 0x20 ADD PUSH0 KECCAK256 SWAP1 POP DUP1 PUSH1 0x3 ADD PUSH1 0x14 SWAP1 SLOAD SWAP1 PUSH2 0x100 EXP SWAP1 DIV PUSH1 0xFF AND PUSH2 0x825 JUMPI PUSH1 0x40 MLOAD PUSH32 0x8C379A000000000000000000000000000000000000000000000000000000000 DUP2 MSTORE PUSH1 0x4 ADD PUSH2 0x81C SWAP1 PUSH2 0x28D5 JUMP JUMPDEST PUSH1 0x40 MLOAD DUP1 SWAP2 SUB SWAP1 REVERT JUMPDEST DUP1 PUSH0 ADD SLOAD DUP2 PUSH1 0x1 ADD SLOAD DUP3 PUSH1 0x2 ADD SLOAD DUP4 PUSH1 0x3 ADD PUSH0 SWAP1 SLOAD SWAP1 PUSH2 0x100 EXP SWAP1 DIV PUSH20 0xFFFFFFFFFFFFFFFFFFFFFFFFFFFFFFFFFFFFFFFF AND DUP5 PUSH1 0x4 ADD DUP1 DUP1 SLOAD PUSH2 0x867 SWAP1 PUSH2 0x2A25 JUMP JUMPDEST DUP1 PUSH1 0x1F ADD PUSH1 0x20 DUP1 SWAP2 DIV MUL PUSH1 0x20 ADD PUSH1 0x40 MLOAD SWAP1 DUP2 ADD PUSH1 0x40 MSTORE DUP1 SWAP3 SWAP2 SWAP1 DUP2 DUP2 MSTORE PUSH1 0x20 ADD DUP3 DUP1 SLOAD PUSH2 0x893 SWAP1 PUSH2 0x2A25 JUMP JUMPDEST DUP1 ISZERO PUSH2 0x8DE JUMPI DUP1 PUSH1 0x1F LT PUSH2 0x8B5 JUMPI PUSH2 0x100 DUP1 DUP4 SLOAD DIV MUL DUP4 MSTORE SWAP2 PUSH1 0x20 ADD SWAP2 PUSH2 0x8DE JUMP JUMPDEST DUP3 ADD SWAP2 SWAP1 PUSH0 MSTORE PUSH1 0x20 PUSH0 KECCAK256 SWAP1 JUMPDEST DUP2 SLOAD DUP2 MSTORE SWAP1 PUSH1 0x1 ADD SWAP1 PUSH1 0x20 ADD DUP1 DUP4 GT PUSH2 0x8C1 JUMPI DUP3 SWAP1 SUB PUSH1 0x1F AND DUP3 ADD SWAP2 JUMPDEST POP POP POP POP POP SWAP1 POP SWAP8 POP SWAP8 POP SWAP8 POP SWAP8 POP SWAP8 POP POP POP POP SWAP2 SWAP4 SWAP6 SWAP1 SWAP3 SWAP5 POP JUMP JUMPDEST PUSH0 PUSH0 CALLER DUP6 TIMESTAMP PUSH1 0x40 MLOAD PUSH1 0x20 ADD PUSH2 0x912 SWAP4 SWAP3 SWAP2 SWAP1 PUSH2 0x2ADA JUMP JUMPDEST PUSH1 0x40 MLOAD PUSH1 0x20 DUP2 DUP4 SUB SUB DUP2 MSTORE SWAP1 PUSH1 0x40 MSTORE DUP1 MLOAD SWAP1 PUSH1 0x20 ADD KECCAK256 SWAP1 POP PUSH0 PUSH20 0xFFFFFFFFFFFFFFFFFFFFFFFFFFFFFFFFFFFFFFFF AND PUSH0 PUSH0 DUP4 DUP2 MSTORE PUSH1 0x20 ADD SWAP1 DUP2 MSTORE PUSH1 0x20 ADD PUSH0 KECCAK256 PUSH1 0x3 ADD PUSH0 SWAP1 SLOAD SWAP1 PUSH2 0x100 EXP SWAP1 DIV PUSH20 0xFFFFFFFFFFFFFFFFFFFFFFFFFFFFFFFFFFFFFFFF AND PUSH20 0xFFFFFFFFFFFFFFFFFFFFFFFFFFFFFFFFFFFFFFFF AND EQ PUSH2 0x9CA JUMPI PUSH1 0x40 MLOAD PUSH32 0x8C379A000000000000000000000000000000000000000000000000000000000 DUP2 MSTORE PUSH1 0x4 ADD PUSH2 0x9C1 SWAP1 PUSH2 0x2B60 JUMP JUMPDEST PUSH1 0x40 MLOAD DUP1 SWAP2 SUB SWAP1 REVERT JUMPDEST PUSH1 0x40 MLOAD DUP1 PUSH1 0xE0 ADD PUSH1 0x40 MSTORE DUP1 DUP7 DUP2 MSTORE PUSH1 0x20 ADD DUP6 DUP2 MSTORE PUSH1 0x20 ADD TIMESTAMP DUP2 MSTORE PUSH1 0x20 ADD CALLER PUSH20 0xFFFFFFFFFFFFFFFFFFFFFFFFFFFFFFFFFFFFFFFF AND DUP2 MSTORE PUSH1 0x20 ADD PUSH1 0x1 ISZERO ISZERO DUP2 MSTORE PUSH1 0x20 ADD DUP5 DUP2 MSTORE PUSH1 0x20 ADD PUSH0 PUSH1 0x1 DUP2 GT ISZERO PUSH2 0xA25 JUMPI PUSH2 0xA24 PUSH2 0x21E6 JUMP JUMPDEST JUMPDEST DUP2 MSTORE POP PUSH0 PUSH0 DUP4 DUP2 MSTORE PUSH1 0x20 ADD SWAP1 DUP2 MSTORE PUSH1 0x20 ADD PUSH0 KECCAK256 PUSH0 DUP3 ADD MLOAD DUP2 PUSH0 ADD SSTORE PUSH1 0x20 DUP3 ADD MLOAD DUP2 PUSH1 0x1 ADD SSTORE PUSH1 0x40 DUP3 ADD MLOAD DUP2 PUSH1 0x2 ADD SSTORE PUSH1 0x60 DUP3 ADD MLOAD DUP2 PUSH1 0x3 ADD PUSH0 PUSH2 0x100 EXP DUP2 SLOAD DUP2 PUSH20 0xFFFFFFFFFFFFFFFFFFFFFFFFFFFFFFFFFFFFFFFF MUL NOT AND SWAP1 DUP4 PUSH20 0xFFFFFFFFFFFFFFFFFFFFFFFFFFFFFFFFFFFFFFFF AND MUL OR SWAP1 SSTORE POP PUSH1 0x80 DUP3 ADD MLOAD DUP2 PUSH1 0x3 ADD PUSH1 0x14 PUSH2 0x100 EXP DUP2 SLOAD DUP2 PUSH1 0xFF MUL NOT AND SWAP1 DUP4 ISZERO ISZERO MUL OR SWAP1 SSTORE POP PUSH1 0xA0 DUP3 ADD MLOAD DUP2 PUSH1 0x4 ADD SWAP1 DUP2 PUSH2 0xACF SWAP2 SWAP1 PUSH2 0x2D1E JUMP JUMPDEST POP PUSH1 0xC0 DUP3 ADD MLOAD DUP2 PUSH1 0x5 ADD PUSH0 PUSH2 0x100 EXP DUP2 SLOAD DUP2 PUSH1 0xFF MUL NOT AND SWAP1 DUP4 PUSH1 0x1 DUP2 GT ISZERO PUSH2 0xAFA JUMPI PUSH2 0xAF9 PUSH2 0x21E6 JUMP JUMPDEST JUMPDEST MUL OR SWAP1 SSTORE POP SWAP1 POP POP PUSH1 0x2 PUSH0 CALLER PUSH20 0xFFFFFFFFFFFFFFFFFFFFFFFFFFFFFFFFFFFFFFFF AND PUSH20 0xFFFFFFFFFFFFFFFFFFFFFFFFFFFFFFFFFFFFFFFF AND DUP2 MSTORE PUSH1 0x20 ADD SWAP1 DUP2 MSTORE PUSH1 0x20 ADD PUSH0 KECCAK256 DUP2 SWAP1 DUP1 PUSH1 0x1 DUP2 SLOAD ADD DUP1 DUP3 SSTORE DUP1 SWAP2 POP POP PUSH1 0x1 SWAP1 SUB SWAP1 PUSH0 MSTORE PUSH1 0x20 PUSH0 KECCAK256 ADD PUSH0 SWAP1 SWAP2 SWAP1 SWAP2 SWAP1 SWAP2 POP SSTORE DUP1 CALLER PUSH20 0xFFFFFFFFFFFFFFFFFFFFFFFFFFFFFFFFFFFFFFFF AND PUSH32 0xE814D30EC22A2F2C39021B7A479700A1D9456C6B6BAACBE6D8129B3106C669A DUP6 TIMESTAMP PUSH1 0x40 MLOAD PUSH2 0xBAC SWAP3 SWAP2 SWAP1 PUSH2 0x2DED JUMP JUMPDEST PUSH1 0x40 MLOAD DUP1 SWAP2 SUB SWAP1 LOG3 DUP1 SWAP2 POP POP SWAP4 SWAP3 POP POP POP JUMP JUMPDEST PUSH0 PUSH0 PUSH0 PUSH0 DUP5 DUP2 MSTORE PUSH1 0x20 ADD SWAP1 DUP2 MSTORE PUSH1 0x20 ADD PUSH0 KECCAK256 SWAP1 POP PUSH0 PUSH20 0xFFFFFFFFFFFFFFFFFFFFFFFFFFFFFFFFFFFFFFFF AND DUP2 PUSH1 0x3 ADD PUSH0 SWAP1 SLOAD SWAP1 PUSH2 0x100 EXP SWAP1 DIV PUSH20 0xFFFFFFFFFFFFFFFFFFFFFFFFFFFFFFFFFFFFFFFF AND PUSH20 0xFFFFFFFFFFFFFFFFFFFFFFFFFFFFFFFFFFFFFFFF AND SUB PUSH2 0xC64 JUMPI PUSH1 0x40 MLOAD PUSH32 0x8C379A000000000000000000000000000000000000000000000000000000000 DUP2 MSTORE PUSH1 0x4 ADD PUSH2 0xC5B SWAP1 PUSH2 0x2E65 JUMP JUMPDEST PUSH1 0x40 MLOAD DUP1 SWAP2 SUB SWAP1 REVERT JUMPDEST DUP1 PUSH1 0x5 ADD PUSH0 SWAP1 SLOAD SWAP1 PUSH2 0x100 EXP SWAP1 DIV PUSH1 0xFF AND SWAP2 POP POP SWAP2 SWAP1 POP JUMP JUMPDEST PUSH1 0x1 PUSH1 0x20 MSTORE DUP2 PUSH0 MSTORE PUSH1 0x40 PUSH0 KECCAK256 PUSH1 0x20 MSTORE DUP1 PUSH0 MSTORE PUSH1 0x40 PUSH0 KECCAK256 PUSH0 SWAP2 POP SWAP2 POP POP DUP1 PUSH0 ADD PUSH0 SWAP1 SLOAD SWAP1 PUSH2 0x100 EXP SWAP1 DIV PUSH20 0xFFFFFFFFFFFFFFFFFFFFFFFFFFFFFFFFFFFFFFFF AND SWAP1 DUP1 PUSH1 0x1 ADD SLOAD SWAP1 DUP1 PUSH1 0x2 ADD SLOAD SWAP1 DUP1 PUSH1 0x3 ADD SLOAD SWAP1 DUP1 PUSH1 0x4 ADD PUSH0 SWAP1 SLOAD SWAP1 PUSH2 0x100 EXP SWAP1 DIV PUSH1 0xFF AND SWAP1 DUP1 PUSH1 0x4 ADD PUSH1 0x1 SWAP1 SLOAD SWAP1 PUSH2 0x100 EXP SWAP1 DIV PUSH1 0xFF AND SWAP1 DUP1 PUSH1 0x4 ADD PUSH1 0x2 SWAP1 SLOAD SWAP1 PUSH2 0x100 EXP SWAP1 DIV PUSH20 0xFFFFFFFFFFFFFFFFFFFFFFFFFFFFFFFFFFFFFFFF AND SWAP1 POP DUP8 JUMP JUMPDEST PUSH0 PUSH1 0x2 PUSH0 DUP4 PUSH20 0xFFFFFFFFFFFFFFFFFFFFFFFFFFFFFFFFFFFFFFFF AND PUSH20 0xFFFFFFFFFFFFFFFFFFFFFFFFFFFFFFFFFFFFFFFF AND DUP2 MSTORE PUSH1 0x20 ADD SWAP1 DUP2 MSTORE PUSH1 0x20 ADD PUSH0 KECCAK256 DUP1 SLOAD SWAP1 POP SWAP1 POP SWAP2 SWAP1 POP JUMP JUMPDEST PUSH1 0x60 PUSH1 0x2 PUSH0 DUP4 PUSH20 0xFFFFFFFFFFFFFFFFFFFFFFFFFFFFFFFFFFFFFFFF AND PUSH20 0xFFFFFFFFFFFFFFFFFFFFFFFFFFFFFFFFFFFFFFFF AND DUP2 MSTORE PUSH1 0x20 ADD SWAP1 DUP2 MSTORE PUSH1 0x20 ADD PUSH0 KECCAK256 DUP1 SLOAD DUP1 PUSH1 0x20 MUL PUSH1 0x20 ADD PUSH1 0x40 MLOAD SWAP1 DUP2 ADD PUSH1 0x40 MSTORE DUP1 SWAP3 SWAP2 SWAP1 DUP2 DUP2 MSTORE PUSH1 0x20 ADD DUP3 DUP1 SLOAD DUP1 ISZERO PUSH2 0xDEE JUMPI PUSH1 0x20 MUL DUP3 ADD SWAP2 SWAP1 PUSH0 MSTORE PUSH1 0x20 PUSH0 KECCAK256 SWAP1 JUMPDEST DUP2 SLOAD DUP2 MSTORE PUSH1 0x20 ADD SWAP1 PUSH1 0x1 ADD SWAP1 DUP1 DUP4 GT PUSH2 0xDDA JUMPI JUMPDEST POP POP POP POP POP SWAP1 POP SWAP2 SWAP1 POP JUMP JUMPDEST DUP1 CALLER PUSH20 0xFFFFFFFFFFFFFFFFFFFFFFFFFFFFFFFFFFFFFFFF AND PUSH0 PUSH0 DUP4 DUP2 MSTORE PUSH1 0x20 ADD SWAP1 DUP2 MSTORE PUSH1 0x20 ADD PUSH0 KECCAK256 PUSH1 0x3 ADD PUSH0 SWAP1 SLOAD SWAP1 PUSH2 0x100 EXP SWAP1 DIV PUSH20 0xFFFFFFFFFFFFFFFFFFFFFFFFFFFFFFFFFFFFFFFF AND PUSH20 0xFFFFFFFFFFFFFFFFFFFFFFFFFFFFFFFFFFFFFFFF AND EQ PUSH2 0xE9B JUMPI PUSH1 0x40 MLOAD PUSH32 0x8C379A000000000000000000000000000000000000000000000000000000000 DUP2 MSTORE PUSH1 0x4 ADD PUSH2 0xE92 SWAP1 PUSH2 0x286D JUMP JUMPDEST PUSH1 0x40 MLOAD DUP1 SWAP2 SUB SWAP1 REVERT JUMPDEST PUSH1 0x1 PUSH0 DUP5 PUSH20 0xFFFFFFFFFFFFFFFFFFFFFFFFFFFFFFFFFFFFFFFF AND PUSH20 0xFFFFFFFFFFFFFFFFFFFFFFFFFFFFFFFFFFFFFFFF AND DUP2 MSTORE PUSH1 0x20 ADD SWAP1 DUP2 MSTORE PUSH1 0x20 ADD PUSH0 KECCAK256 PUSH0 DUP4 DUP2 MSTORE PUSH1 0x20 ADD SWAP1 DUP2 MSTORE PUSH1 0x20 ADD PUSH0 KECCAK256 PUSH0 PUSH0 DUP3 ADD PUSH0 PUSH2 0x100 EXP DUP2 SLOAD SWAP1 PUSH20 0xFFFFFFFFFFFFFFFFFFFFFFFFFFFFFFFFFFFFFFFF MUL NOT AND SWAP1 SSTORE PUSH1 0x1 DUP3 ADD PUSH0 SWAP1 SSTORE PUSH1 0x2 DUP3 ADD PUSH0 SWAP1 SSTORE PUSH1 0x3 DUP3 ADD PUSH0 SWAP1 SSTORE PUSH1 0x4 DUP3 ADD PUSH0 PUSH2 0x100 EXP DUP2 SLOAD SWAP1 PUSH1 0xFF MUL NOT AND SWAP1 SSTORE PUSH1 0x4 DUP3 ADD PUSH1 0x1 PUSH2 0x100 EXP DUP2 SLOAD SWAP1 PUSH1 0xFF MUL NOT AND SWAP1 SSTORE PUSH1 0x4 DUP3 ADD PUSH1 0x2 PUSH2 0x100 EXP DUP2 SLOAD SWAP1 PUSH20 0xFFFFFFFFFFFFFFFFFFFFFFFFFFFFFFFFFFFFFFFF MUL NOT AND SWAP1 SSTORE POP POP DUP2 DUP4 PUSH20 0xFFFFFFFFFFFFFFFFFFFFFFFFFFFFFFFFFFFFFFFF AND CALLER PUSH20 0xFFFFFFFFFFFFFFFFFFFFFFFFFFFFFFFFFFFFFFFF AND PUSH32 0xB28E9E14A2FBAE903397AC018A71F930AE415BCAF8FD57A5C4EA212E4DE9DAA2 PUSH1 0x40 MLOAD PUSH1 0x40 MLOAD DUP1 SWAP2 SUB SWAP1 LOG4 POP POP POP JUMP JUMPDEST PUSH0 PUSH0 PUSH0 PUSH0 DUP5 DUP2 MSTORE PUSH1 0x20 ADD SWAP1 DUP2 MSTORE PUSH1 0x20 ADD PUSH0 KECCAK256 SWAP1 POP DUP1 PUSH1 0x3 ADD PUSH1 0x14 SWAP1 SLOAD SWAP1 PUSH2 0x100 EXP SWAP1 DIV PUSH1 0xFF AND PUSH2 0x1005 JUMPI PUSH0 SWAP2 POP POP PUSH2 0x111E JUMP JUMPDEST DUP4 PUSH20 0xFFFFFFFFFFFFFFFFFFFFFFFFFFFFFFFFFFFFFFFF AND DUP2 PUSH1 0x3 ADD PUSH0 SWAP1 SLOAD SWAP1 PUSH2 0x100 EXP SWAP1 DIV PUSH20 0xFFFFFFFFFFFFFFFFFFFFFFFFFFFFFFFFFFFFFFFF AND PUSH20 0xFFFFFFFFFFFFFFFFFFFFFFFFFFFFFFFFFFFFFFFF AND SUB PUSH2 0x1065 JUMPI PUSH1 0x1 SWAP2 POP POP PUSH2 0x111E JUMP JUMPDEST PUSH1 0x1 DUP1 DUP2 GT ISZERO PUSH2 0x1078 JUMPI PUSH2 0x1077 PUSH2 0x21E6 JUMP JUMPDEST JUMPDEST DUP2 PUSH1 0x5 ADD PUSH0 SWAP1 SLOAD SWAP1 PUSH2 0x100 EXP SWAP1 DIV PUSH1 0xFF AND PUSH1 0x1 DUP2 GT ISZERO PUSH2 0x109B JUMPI PUSH2 0x109A PUSH2 0x21E6 JUMP JUMPDEST JUMPDEST SUB PUSH2 0x10AA JUMPI PUSH1 0x1 SWAP2 POP POP PUSH2 0x111E JUMP JUMPDEST PUSH0 PUSH1 0x1 PUSH0 DUP7 PUSH20 0xFFFFFFFFFFFFFFFFFFFFFFFFFFFFFFFFFFFFFFFF AND PUSH20 0xFFFFFFFFFFFFFFFFFFFFFFFFFFFFFFFFFFFFFFFF AND DUP2 MSTORE PUSH1 0x20 ADD SWAP1 DUP2 MSTORE PUSH1 0x20 ADD PUSH0 KECCAK256 PUSH0 DUP6 DUP2 MSTORE PUSH1 0x20 ADD SWAP1 DUP2 MSTORE PUSH1 0x20 ADD PUSH0 KECCAK256 SWAP1 POP DUP1 PUSH1 0x4 ADD PUSH0 SWAP1 SLOAD SWAP1 PUSH2 0x100 EXP SWAP1 DIV PUSH1 0xFF AND DUP1 ISZERO PUSH2 0x1119 JUMPI POP DUP1 PUSH1 0x3 ADD SLOAD TIMESTAMP LT JUMPDEST SWAP3 POP POP POP JUMPDEST SWAP3 SWAP2 POP POP JUMP JUMPDEST PUSH0 PUSH0 PUSH0 PUSH0 SWAP2 POP SWAP2 POP SWAP1 SWAP2 JUMP JUMPDEST DUP1 CALLER PUSH20 0xFFFFFFFFFFFFFFFFFFFFFFFFFFFFFFFFFFFFFFFF AND PUSH0 PUSH0 DUP4 DUP2 MSTORE PUSH1 0x20 ADD SWAP1 DUP2 MSTORE PUSH1 0x20 ADD PUSH0 KECCAK256 PUSH1 0x3 ADD PUSH0 SWAP1 SLOAD SWAP1 PUSH2 0x100 EXP SWAP1 DIV PUSH20 0xFFFFFFFFFFFFFFFFFFFFFFFFFFFFFFFFFFFFFFFF AND PUSH20 0xFFFFFFFFFFFFFFFFFFFFFFFFFFFFFFFFFFFFFFFF AND EQ PUSH2 0x11D1 JUMPI PUSH1 0x40 MLOAD PUSH32 0x8C379A000000000000000000000000000000000000000000000000000000000 DUP2 MSTORE PUSH1 0x4 ADD PUSH2 0x11C8 SWAP1 PUSH2 0x286D JUMP JUMPDEST PUSH1 0x40 MLOAD DUP1 SWAP2 SUB SWAP1 REVERT JUMPDEST PUSH0 PUSH0 PUSH0 DUP5 DUP2 MSTORE PUSH1 0x20 ADD SWAP1 DUP2 MSTORE PUSH1 0x20 ADD PUSH0 KECCAK256 SWAP1 POP DUP1 PUSH1 0x3 ADD PUSH1 0x14 SWAP1 SLOAD SWAP1 PUSH2 0x100 EXP SWAP1 DIV PUSH1 0xFF AND PUSH2 0x1235 JUMPI PUSH1 0x40 MLOAD PUSH32 0x8C379A000000000000000000000000000000000000000000000000000000000 DUP2 MSTORE PUSH1 0x4 ADD PUSH2 0x122C SWAP1 PUSH2 0x2ECD JUMP JUMPDEST PUSH1 0x40 MLOAD DUP1 SWAP2 SUB SWAP1 REVERT JUMPDEST PUSH0 DUP2 PUSH1 0x3 ADD PUSH1 0x14 PUSH2 0x100 EXP DUP2 SLOAD DUP2 PUSH1 0xFF MUL NOT AND SWAP1 DUP4 ISZERO ISZERO MUL OR SWAP1 SSTORE POP PUSH0 PUSH1 0x2 PUSH0 CALLER PUSH20 0xFFFFFFFFFFFFFFFFFFFFFFFFFFFFFFFFFFFFFFFF AND PUSH20 0xFFFFFFFFFFFFFFFFFFFFFFFFFFFFFFFFFFFFFFFF AND DUP2 MSTORE PUSH1 0x20 ADD SWAP1 DUP2 MSTORE PUSH1 0x20 ADD PUSH0 KECCAK256 SWAP1 POP PUSH0 PUSH0 SWAP1 POP JUMPDEST DUP2 DUP1 SLOAD SWAP1 POP DUP2 LT ISZERO PUSH2 0x1345 JUMPI DUP5 DUP3 DUP3 DUP2 SLOAD DUP2 LT PUSH2 0x12B6 JUMPI PUSH2 0x12B5 PUSH2 0x2EEB JUMP JUMPDEST JUMPDEST SWAP1 PUSH0 MSTORE PUSH1 0x20 PUSH0 KECCAK256 ADD SLOAD SUB PUSH2 0x1338 JUMPI DUP2 PUSH1 0x1 DUP4 DUP1 SLOAD SWAP1 POP PUSH2 0x12D6 SWAP2 SWAP1 PUSH2 0x2F45 JUMP JUMPDEST DUP2 SLOAD DUP2 LT PUSH2 0x12E7 JUMPI PUSH2 0x12E6 PUSH2 0x2EEB JUMP JUMPDEST JUMPDEST SWAP1 PUSH0 MSTORE PUSH1 0x20 PUSH0 KECCAK256 ADD SLOAD DUP3 DUP3 DUP2 SLOAD DUP2 LT PUSH2 0x1303 JUMPI PUSH2 0x1302 PUSH2 0x2EEB JUMP JUMPDEST JUMPDEST SWAP1 PUSH0 MSTORE PUSH1 0x20 PUSH0 KECCAK256 ADD DUP2 SWAP1 SSTORE POP DUP2 DUP1 SLOAD DUP1 PUSH2 0x1320 JUMPI PUSH2 0x131F PUSH2 0x2F78 JUMP JUMPDEST JUMPDEST PUSH1 0x1 SWAP1 SUB DUP2 DUP2 SWAP1 PUSH0 MSTORE PUSH1 0x20 PUSH0 KECCAK256 ADD PUSH0 SWAP1 SSTORE SWAP1 SSTORE PUSH2 0x1345 JUMP JUMPDEST DUP1 DUP1 PUSH1 0x1 ADD SWAP2 POP POP PUSH2 0x1296 JUMP JUMPDEST POP POP POP POP POP JUMP JUMPDEST DUP4 CALLER PUSH20 0xFFFFFFFFFFFFFFFFFFFFFFFFFFFFFFFFFFFFFFFF AND PUSH0 PUSH0 DUP4 DUP2 MSTORE PUSH1 0x20 ADD SWAP1 DUP2 MSTORE PUSH1 0x20 ADD PUSH0 KECCAK256 PUSH1 0x3 ADD PUSH0 SWAP1 SLOAD SWAP1 PUSH2 0x100 EXP SWAP1 DIV PUSH20 0xFFFFFFFFFFFFFFFFFFFFFFFFFFFFFFFFFFFFFFFF AND PUSH20 0xFFFFFFFFFFFFFFFFFFFFFFFFFFFFFFFFFFFFFFFF AND EQ PUSH2 0x13ED JUMPI PUSH1 0x40 MLOAD PUSH32 0x8C379A000000000000000000000000000000000000000000000000000000000 DUP2 MSTORE PUSH1 0x4 ADD PUSH2 0x13E4 SWAP1 PUSH2 0x286D JUMP JUMPDEST PUSH1 0x40 MLOAD DUP1 SWAP2 SUB SWAP1 REVERT JUMPDEST PUSH0 PUSH0 PUSH0 DUP8 DUP2 MSTORE PUSH1 0x20 ADD SWAP1 DUP2 MSTORE PUSH1 0x20 ADD PUSH0 KECCAK256 SWAP1 POP PUSH0 PUSH20 0xFFFFFFFFFFFFFFFFFFFFFFFFFFFFFFFFFFFFFFFF AND DUP8 PUSH20 0xFFFFFFFFFFFFFFFFFFFFFFFFFFFFFFFFFFFFFFFF AND SUB PUSH2 0x146E JUMPI PUSH1 0x40 MLOAD PUSH32 0x8C379A000000000000000000000000000000000000000000000000000000000 DUP2 MSTORE PUSH1 0x4 ADD PUSH2 0x1465 SWAP1 PUSH2 0x2FEF JUMP JUMPDEST PUSH1 0x40 MLOAD DUP1 SWAP2 SUB SWAP1 REVERT JUMPDEST PUSH0 DUP4 GT PUSH2 0x14B0 JUMPI PUSH1 0x40 MLOAD PUSH32 0x8C379A000000000000000000000000000000000000000000000000000000000 DUP2 MSTORE PUSH1 0x4 ADD PUSH2 0x14A7 SWAP1 PUSH2 0x3057 JUMP JUMPDEST PUSH1 0x40 MLOAD DUP1 SWAP2 SUB SWAP1 REVERT JUMPDEST DUP1 PUSH1 0x3 ADD PUSH1 0x14 SWAP1 SLOAD SWAP1 PUSH2 0x100 EXP SWAP1 DIV PUSH1 0xFF AND PUSH2 0x1501 JUMPI PUSH1 0x40 MLOAD PUSH32 0x8C379A000000000000000000000000000000000000000000000000000000000 DUP2 MSTORE PUSH1 0x4 ADD PUSH2 0x14F8 SWAP1 PUSH2 0x28D5 JUMP JUMPDEST PUSH1 0x40 MLOAD DUP1 SWAP2 SUB SWAP1 REVERT JUMPDEST PUSH0 PUSH1 0x1 DUP2 GT ISZERO PUSH2 0x1514 JUMPI PUSH2 0x1513 PUSH2 0x21E6 JUMP JUMPDEST JUMPDEST DUP2 PUSH1 0x5 ADD PUSH0 SWAP1 SLOAD SWAP1 PUSH2 0x100 EXP SWAP1 DIV PUSH1 0xFF AND PUSH1 0x1 DUP2 GT ISZERO PUSH2 0x1537 JUMPI PUSH2 0x1536 PUSH2 0x21E6 JUMP JUMPDEST JUMPDEST EQ PUSH2 0x1577 JUMPI PUSH1 0x40 MLOAD PUSH32 0x8C379A000000000000000000000000000000000000000000000000000000000 DUP2 MSTORE PUSH1 0x4 ADD PUSH2 0x156E SWAP1 PUSH2 0x30BF JUMP JUMPDEST PUSH1 0x40 MLOAD DUP1 SWAP2 SUB SWAP1 REVERT JUMPDEST PUSH0 DUP4 TIMESTAMP PUSH2 0x1584 SWAP2 SWAP1 PUSH2 0x30DD JUMP JUMPDEST SWAP1 POP PUSH1 0x40 MLOAD DUP1 PUSH1 0xE0 ADD PUSH1 0x40 MSTORE DUP1 DUP10 PUSH20 0xFFFFFFFFFFFFFFFFFFFFFFFFFFFFFFFFFFFFFFFF AND DUP2 MSTORE PUSH1 0x20 ADD DUP9 DUP2 MSTORE PUSH1 0x20 ADD TIMESTAMP DUP2 MSTORE PUSH1 0x20 ADD DUP3 DUP2 MSTORE PUSH1 0x20 ADD DUP8 ISZERO ISZERO DUP2 MSTORE PUSH1 0x20 ADD DUP7 ISZERO ISZERO DUP2 MSTORE PUSH1 0x20 ADD CALLER PUSH20 0xFFFFFFFFFFFFFFFFFFFFFFFFFFFFFFFFFFFFFFFF AND DUP2 MSTORE POP PUSH1 0x1 PUSH0 DUP11 PUSH20 0xFFFFFFFFFFFFFFFFFFFFFFFFFFFFFFFFFFFFFFFF AND PUSH20 0xFFFFFFFFFFFFFFFFFFFFFFFFFFFFFFFFFFFFFFFF AND DUP2 MSTORE PUSH1 0x20 ADD SWAP1 DUP2 MSTORE PUSH1 0x20 ADD PUSH0 KECCAK256 PUSH0 DUP10 DUP2 MSTORE PUSH1 0x20 ADD SWAP1 DUP2 MSTORE PUSH1 0x20 ADD PUSH0 KECCAK256 PUSH0 DUP3 ADD MLOAD DUP2 PUSH0 ADD PUSH0 PUSH2 0x100 EXP DUP2 SLOAD DUP2 PUSH20 0xFFFFFFFFFFFFFFFFFFFFFFFFFFFFFFFFFFFFFFFF MUL NOT AND SWAP1 DUP4 PUSH20 0xFFFFFFFFFFFFFFFFFFFFFFFFFFFFFFFFFFFFFFFF AND MUL OR SWAP1 SSTORE POP PUSH1 0x20 DUP3 ADD MLOAD DUP2 PUSH1 0x1 ADD SSTORE PUSH1 0x40 DUP3 ADD MLOAD DUP2 PUSH1 0x2 ADD SSTORE PUSH1 0x60 DUP3 ADD MLOAD DUP2 PUSH1 0x3 ADD SSTORE PUSH1 0x80 DUP3 ADD MLOAD DUP2 PUSH1 0x4 ADD PUSH0 PUSH2 0x100 EXP DUP2 SLOAD DUP2 PUSH1 0xFF MUL NOT AND SWAP1 DUP4 ISZERO ISZERO MUL OR SWAP1 SSTORE POP PUSH1 0xA0 DUP3 ADD MLOAD DUP2 PUSH1 0x4 ADD PUSH1 0x1 PUSH2 0x100 EXP DUP2 SLOAD DUP2 PUSH1 0xFF MUL NOT AND SWAP1 DUP4 ISZERO ISZERO MUL OR SWAP1 SSTORE POP PUSH1 0xC0 DUP3 ADD MLOAD DUP2 PUSH1 0x4 ADD PUSH1 0x2 PUSH2 0x100 EXP DUP2 SLOAD DUP2 PUSH20 0xFFFFFFFFFFFFFFFFFFFFFFFFFFFFFFFFFFFFFFFF MUL NOT AND SWAP1 DUP4 PUSH20 0xFFFFFFFFFFFFFFFFFFFFFFFFFFFFFFFFFFFFFFFF AND MUL OR SWAP1 SSTORE POP SWAP1 POP POP DUP7 DUP9 PUSH20 0xFFFFFFFFFFFFFFFFFFFFFFFFFFFFFFFFFFFFFFFF AND CALLER PUSH20 0xFFFFFFFFFFFFFFFFFFFFFFFFFFFFFFFFFFFFFFFF AND PUSH32 0x34D1AC3EC20B10ECFBB0BF62B7538BE273454C43DD4090AFD9882B6B32D10142 DUP5 PUSH1 0x40 MLOAD PUSH2 0x177E SWAP2 SWAP1 PUSH2 0x238C JUMP JUMPDEST PUSH1 0x40 MLOAD DUP1 SWAP2 SUB SWAP1 LOG4 POP POP POP POP POP POP POP POP JUMP JUMPDEST DUP1 CALLER PUSH20 0xFFFFFFFFFFFFFFFFFFFFFFFFFFFFFFFFFFFFFFFF AND PUSH0 PUSH0 DUP4 DUP2 MSTORE PUSH1 0x20 ADD SWAP1 DUP2 MSTORE PUSH1 0x20 ADD PUSH0 KECCAK256 PUSH1 0x3 ADD PUSH0 SWAP1 SLOAD SWAP1 PUSH2 0x100 EXP SWAP1 DIV PUSH20 0xFFFFFFFFFFFFFFFFFFFFFFFFFFFFFFFFFFFFFFFF AND PUSH20 0xFFFFFFFFFFFFFFFFFFFFFFFFFFFFFFFFFFFFFFFF AND EQ PUSH2 0x1831 JUMPI PUSH1 0x40 MLOAD PUSH32 0x8C379A000000000000000000000000000000000000000000000000000000000 DUP2 MSTORE PUSH1 0x4 ADD PUSH2 0x1828 SWAP1 PUSH2 0x286D JUMP JUMPDEST PUSH1 0x40 MLOAD DUP1 SWAP2 SUB SWAP1 REVERT JUMPDEST PUSH0 PUSH0 PUSH0 DUP5 DUP2 MSTORE PUSH1 0x20 ADD SWAP1 DUP2 MSTORE PUSH1 0x20 ADD PUSH0 KECCAK256 SWAP1 POP DUP1 PUSH1 0x3 ADD PUSH1 0x14 SWAP1 SLOAD SWAP1 PUSH2 0x100 EXP SWAP1 DIV PUSH1 0xFF AND PUSH2 0x1895 JUMPI PUSH1 0x40 MLOAD PUSH32 0x8C379A000000000000000000000000000000000000000000000000000000000 DUP2 MSTORE PUSH1 0x4 ADD PUSH2 0x188C SWAP1 PUSH2 0x28D5 JUMP JUMPDEST PUSH1 0x40 MLOAD DUP1 SWAP2 SUB SWAP1 REVERT JUMPDEST PUSH0 PUSH1 0x1 DUP2 GT ISZERO PUSH2 0x18A8 JUMPI PUSH2 0x18A7 PUSH2 0x21E6 JUMP JUMPDEST JUMPDEST DUP2 PUSH1 0x5 ADD PUSH0 SWAP1 SLOAD SWAP1 PUSH2 0x100 EXP SWAP1 DIV PUSH1 0xFF AND PUSH1 0x1 DUP2 GT ISZERO PUSH2 0x18CB JUMPI PUSH2 0x18CA PUSH2 0x21E6 JUMP JUMPDEST JUMPDEST EQ PUSH2 0x190B JUMPI PUSH1 0x40 MLOAD PUSH32 0x8C379A000000000000000000000000000000000000000000000000000000000 DUP2 MSTORE PUSH1 0x4 ADD PUSH2 0x1902 SWAP1 PUSH2 0x315A JUMP JUMPDEST PUSH1 0x40 MLOAD DUP1 SWAP2 SUB SWAP1 REVERT JUMPDEST PUSH0 DUP2 PUSH1 0x5 ADD PUSH0 SWAP1 SLOAD SWAP1 PUSH2 0x100 EXP SWAP1 DIV PUSH1 0xFF AND SWAP1 POP PUSH1 0x1 DUP3 PUSH1 0x5 ADD PUSH0 PUSH2 0x100 EXP DUP2 SLOAD DUP2 PUSH1 0xFF MUL NOT AND SWAP1 DUP4 PUSH1 0x1 DUP2 GT ISZERO PUSH2 0x1946 JUMPI PUSH2 0x1945 PUSH2 0x21E6 JUMP JUMPDEST JUMPDEST MUL OR SWAP1 SSTORE POP DUP4 CALLER PUSH20 0xFFFFFFFFFFFFFFFFFFFFFFFFFFFFFFFFFFFFFFFF AND PUSH32 0xD950D63959E5077FFC72C153E9974D7FB3C7B072A0399E683CC9D78F78EC289A DUP4 PUSH1 0x1 TIMESTAMP PUSH1 0x40 MLOAD PUSH2 0x1997 SWAP4 SWAP3 SWAP2 SWAP1 PUSH2 0x295B JUMP JUMPDEST PUSH1 0x40 MLOAD DUP1 SWAP2 SUB SWAP1 LOG3 POP POP POP POP JUMP JUMPDEST PUSH0 PUSH0 PUSH0 PUSH0 PUSH0 PUSH1 0x1 PUSH0 DUP9 PUSH20 0xFFFFFFFFFFFFFFFFFFFFFFFFFFFFFFFFFFFFFFFF AND PUSH20 0xFFFFFFFFFFFFFFFFFFFFFFFFFFFFFFFFFFFFFFFF AND DUP2 MSTORE PUSH1 0x20 ADD SWAP1 DUP2 MSTORE PUSH1 0x20 ADD PUSH0 KECCAK256 PUSH0 DUP8 DUP2 MSTORE PUSH1 0x20 ADD SWAP1 DUP2 MSTORE PUSH1 0x20 ADD PUSH0 KECCAK256 SWAP1 POP DUP1 PUSH1 0x3 ADD SLOAD TIMESTAMP LT PUSH2 0x1A15 JUMPI PUSH0 PUSH0 PUSH0 PUSH0 SWAP5 POP SWAP5 POP SWAP5 POP SWAP5 POP POP PUSH2 0x1A49 JUMP JUMPDEST PUSH1 0x1 DUP2 PUSH1 0x4 ADD PUSH0 SWAP1 SLOAD SWAP1 PUSH2 0x100 EXP SWAP1 DIV PUSH1 0xFF AND DUP3 PUSH1 0x4 ADD PUSH1 0x1 SWAP1 SLOAD SWAP1 PUSH2 0x100 EXP SWAP1 DIV PUSH1 0xFF AND DUP4 PUSH1 0x3 ADD SLOAD SWAP5 POP SWAP5 POP SWAP5 POP SWAP5 POP POP JUMPDEST SWAP3 SWAP6 SWAP2 SWAP5 POP SWAP3 POP JUMP JUMPDEST DUP3 CALLER PUSH20 0xFFFFFFFFFFFFFFFFFFFFFFFFFFFFFFFFFFFFFFFF AND PUSH0 PUSH0 DUP4 DUP2 MSTORE PUSH1 0x20 ADD SWAP1 DUP2 MSTORE PUSH1 0x20 ADD PUSH0 KECCAK256 PUSH1 0x3 ADD PUSH0 SWAP1 SLOAD SWAP1 PUSH2 0x100 EXP SWAP1 DIV PUSH20 0xFFFFFFFFFFFFFFFFFFFFFFFFFFFFFFFFFFFFFFFF AND PUSH20 0xFFFFFFFFFFFFFFFFFFFFFFFFFFFFFFFFFFFFFFFF AND EQ DUP1 PUSH2 0x1B72 JUMPI POP PUSH1 0x1 PUSH0 CALLER PUSH20 0xFFFFFFFFFFFFFFFFFFFFFFFFFFFFFFFFFFFFFFFF AND PUSH20 0xFFFFFFFFFFFFFFFFFFFFFFFFFFFFFFFFFFFFFFFF AND DUP2 MSTORE PUSH1 0x20 ADD SWAP1 DUP2 MSTORE PUSH1 0x20 ADD PUSH0 KECCAK256 PUSH0 DUP3 DUP2 MSTORE PUSH1 0x20 ADD SWAP1 DUP2 MSTORE PUSH1 0x20 ADD PUSH0 KECCAK256 PUSH1 0x4 ADD PUSH1 0x1 SWAP1 SLOAD SWAP1 PUSH2 0x100 EXP SWAP1 DIV PUSH1 0xFF AND DUP1 ISZERO PUSH2 0x1B71 JUMPI POP PUSH1 0x1 PUSH0 CALLER PUSH20 0xFFFFFFFFFFFFFFFFFFFFFFFFFFFFFFFFFFFFFFFF AND PUSH20 0xFFFFFFFFFFFFFFFFFFFFFFFFFFFFFFFFFFFFFFFF AND DUP2 MSTORE PUSH1 0x20 ADD SWAP1 DUP2 MSTORE PUSH1 0x20 ADD PUSH0 KECCAK256 PUSH0 DUP3 DUP2 MSTORE PUSH1 0x20 ADD SWAP1 DUP2 MSTORE PUSH1 0x20 ADD PUSH0 KECCAK256 PUSH1 0x3 ADD SLOAD TIMESTAMP LT JUMPDEST JUMPDEST PUSH2 0x1BB1 JUMPI PUSH1 0x40 MLOAD PUSH32 0x8C379A000000000000000000000000000000000000000000000000000000000 DUP2 MSTORE PUSH1 0x4 ADD PUSH2 0x1BA8 SWAP1 PUSH2 0x31C2 JUMP JUMPDEST PUSH1 0x40 MLOAD DUP1 SWAP2 SUB SWAP1 REVERT JUMPDEST PUSH0 PUSH0 PUSH0 DUP7 DUP2 MSTORE PUSH1 0x20 ADD SWAP1 DUP2 MSTORE PUSH1 0x20 ADD PUSH0 KECCAK256 SWAP1 POP DUP1 PUSH1 0x3 ADD PUSH1 0x14 SWAP1 SLOAD SWAP1 PUSH2 0x100 EXP SWAP1 DIV PUSH1 0xFF AND PUSH2 0x1C15 JUMPI PUSH1 0x40 MLOAD PUSH32 0x8C379A000000000000000000000000000000000000000000000000000000000 DUP2 MSTORE PUSH1 0x4 ADD PUSH2 0x1C0C SWAP1 PUSH2 0x28D5 JUMP JUMPDEST PUSH1 0x40 MLOAD DUP1 SWAP2 SUB SWAP1 REVERT JUMPDEST DUP4 DUP2 PUSH0 ADD DUP2 SWAP1 SSTORE POP DUP3 DUP2 PUSH1 0x1 ADD DUP2 SWAP1 SSTORE POP TIMESTAMP DUP2 PUSH1 0x2 ADD DUP2 SWAP1 SSTORE POP DUP5 DUP2 PUSH1 0x3 ADD PUSH0 SWAP1 SLOAD SWAP1 PUSH2 0x100 EXP SWAP1 DIV PUSH20 0xFFFFFFFFFFFFFFFFFFFFFFFFFFFFFFFFFFFFFFFF AND PUSH20 0xFFFFFFFFFFFFFFFFFFFFFFFFFFFFFFFFFFFFFFFF AND PUSH32 0x13F7AFAEE69A997E8042A73DF952599E66EEC6F76FAA8FE9ED83D73A77279127 TIMESTAMP PUSH1 0x40 MLOAD PUSH2 0x1C99 SWAP2 SWAP1 PUSH2 0x238C JUMP JUMPDEST PUSH1 0x40 MLOAD DUP1 SWAP2 SUB SWAP1 LOG3 POP POP POP POP POP JUMP JUMPDEST PUSH0 PUSH0 SWAP1 POP JUMPDEST DUP5 MLOAD DUP2 LT ISZERO PUSH2 0x1D6A JUMPI CALLER PUSH20 0xFFFFFFFFFFFFFFFFFFFFFFFFFFFFFFFFFFFFFFFF AND PUSH0 PUSH0 DUP8 DUP5 DUP2 MLOAD DUP2 LT PUSH2 0x1CE2 JUMPI PUSH2 0x1CE1 PUSH2 0x2EEB JUMP JUMPDEST JUMPDEST PUSH1 0x20 MUL PUSH1 0x20 ADD ADD MLOAD DUP2 MSTORE PUSH1 0x20 ADD SWAP1 DUP2 MSTORE PUSH1 0x20 ADD PUSH0 KECCAK256 PUSH1 0x3 ADD PUSH0 SWAP1 SLOAD SWAP1 PUSH2 0x100 EXP SWAP1 DIV PUSH20 0xFFFFFFFFFFFFFFFFFFFFFFFFFFFFFFFFFFFFFFFF AND PUSH20 0xFFFFFFFFFFFFFFFFFFFFFFFFFFFFFFFFFFFFFFFF AND SUB PUSH2 0x1D5D JUMPI PUSH2 0x1D5C DUP7 DUP7 DUP4 DUP2 MLOAD DUP2 LT PUSH2 0x1D4C JUMPI PUSH2 0x1D4B PUSH2 0x2EEB JUMP JUMPDEST JUMPDEST PUSH1 0x20 MUL PUSH1 0x20 ADD ADD MLOAD DUP7 DUP7 DUP7 PUSH2 0x134C JUMP JUMPDEST JUMPDEST DUP1 DUP1 PUSH1 0x1 ADD SWAP2 POP POP PUSH2 0x1CAD JUMP JUMPDEST POP POP POP POP POP POP JUMP JUMPDEST PUSH1 0x2 PUSH1 0x20 MSTORE DUP2 PUSH0 MSTORE PUSH1 0x40 PUSH0 KECCAK256 DUP2 DUP2 SLOAD DUP2 LT PUSH2 0x1D8B JUMPI PUSH0 DUP1 REVERT JUMPDEST SWAP1 PUSH0 MSTORE PUSH1 0x20 PUSH0 KECCAK256 ADD PUSH0 SWAP2 POP SWAP2 POP POP SLOAD DUP2 JUMP JUMPDEST PUSH0 PUSH1 0x20 MSTORE DUP1 PUSH0 MSTORE PUSH1 0x40 PUSH0 KECCAK256 PUSH0 SWAP2 POP SWAP1 POP DUP1 PUSH0 ADD SLOAD SWAP1 DUP1 PUSH1 0x1 ADD SLOAD SWAP1 DUP1 PUSH1 0x2 ADD SLOAD SWAP1 DUP1 PUSH1 0x3 ADD PUSH0 SWAP1 SLOAD SWAP1 PUSH2 0x100 EXP SWAP1 DIV PUSH20 0xFFFFFFFFFFFFFFFFFFFFFFFFFFFFFFFFFFFFFFFF AND SWAP1 DUP1 PUSH1 0x3 ADD PUSH1 0x14 SWAP1 SLOAD SWAP1 PUSH2 0x100 EXP SWAP1 DIV PUSH1 0xFF AND SWAP1 DUP1 PUSH1 0x4 ADD DUP1 SLOAD PUSH2 0x1E05 SWAP1 PUSH2 0x2A25 JUMP JUMPDEST DUP1 PUSH1 0x1F ADD PUSH1 0x20 DUP1 SWAP2 DIV MUL PUSH1 0x20 ADD PUSH1 0x40 MLOAD SWAP1 DUP2 ADD PUSH1 0x40 MSTORE DUP1 SWAP3 SWAP2 SWAP1 DUP2 DUP2 MSTORE PUSH1 0x20 ADD DUP3 DUP1 SLOAD PUSH2 0x1E31 SWAP1 PUSH2 0x2A25 JUMP JUMPDEST DUP1 ISZERO PUSH2 0x1E7C JUMPI DUP1 PUSH1 0x1F LT PUSH2 0x1E53 JUMPI PUSH2 0x100 DUP1 DUP4 SLOAD DIV MUL DUP4 MSTORE SWAP2 PUSH1 0x20 ADD SWAP2 PUSH2 0x1E7C JUMP JUMPDEST DUP3 ADD SWAP2 SWAP1 PUSH0 MSTORE PUSH1 0x20 PUSH0 KECCAK256 SWAP1 JUMPDEST DUP2 SLOAD DUP2 MSTORE SWAP1 PUSH1 0x1 ADD SWAP1 PUSH1 0x20 ADD DUP1 DUP4 GT PUSH2 0x1E5F JUMPI DUP3 SWAP1 SUB PUSH1 0x1F AND DUP3 ADD SWAP2 JUMPDEST POP POP POP POP POP SWAP1 DUP1 PUSH1 0x5 ADD PUSH0 SWAP1 SLOAD SWAP1 PUSH2 0x100 EXP SWAP1 DIV PUSH1 0xFF AND SWAP1 POP DUP8 JUMP JUMPDEST PUSH0 PUSH1 0x40 MLOAD SWAP1 POP SWAP1 JUMP JUMPDEST PUSH0 PUSH0 REVERT JUMPDEST PUSH0 PUSH0 REVERT JUMPDEST PUSH0 DUP2 SWAP1 POP SWAP2 SWAP1 POP JUMP JUMPDEST PUSH2 0x1EBB DUP2 PUSH2 0x1EA9 JUMP JUMPDEST DUP2 EQ PUSH2 0x1EC5 JUMPI PUSH0 PUSH0 REVERT JUMPDEST POP JUMP JUMPDEST PUSH0 DUP2 CALLDATALOAD SWAP1 POP PUSH2 0x1ED6 DUP2 PUSH2 0x1EB2 JUMP JUMPDEST SWAP3 SWAP2 POP POP JUMP JUMPDEST PUSH0 PUSH1 0x20 DUP3 DUP5 SUB SLT ISZERO PUSH2 0x1EF1 JUMPI PUSH2 0x1EF0 PUSH2 0x1EA1 JUMP JUMPDEST JUMPDEST PUSH0 PUSH2 0x1EFE DUP5 DUP3 DUP6 ADD PUSH2 0x1EC8 JUMP JUMPDEST SWAP2 POP POP SWAP3 SWAP2 POP POP JUMP JUMPDEST PUSH2 0x1F10 DUP2 PUSH2 0x1EA9 JUMP JUMPDEST DUP3 MSTORE POP POP JUMP JUMPDEST PUSH0 DUP2 SWAP1 POP SWAP2 SWAP1 POP JUMP JUMPDEST PUSH2 0x1F28 DUP2 PUSH2 0x1F16 JUMP JUMPDEST DUP3 MSTORE POP POP JUMP JUMPDEST PUSH0 PUSH20 0xFFFFFFFFFFFFFFFFFFFFFFFFFFFFFFFFFFFFFFFF DUP3 AND SWAP1 POP SWAP2 SWAP1 POP JUMP JUMPDEST PUSH0 PUSH2 0x1F57 DUP3 PUSH2 0x1F2E JUMP JUMPDEST SWAP1 POP SWAP2 SWAP1 POP JUMP JUMPDEST PUSH2 0x1F67 DUP2 PUSH2 0x1F4D JUMP JUMPDEST DUP3 MSTORE POP POP JUMP JUMPDEST PUSH0 DUP2 MLOAD SWAP1 POP SWAP2 SWAP1 POP JUMP JUMPDEST PUSH0 DUP3 DUP3 MSTORE PUSH1 0x20 DUP3 ADD SWAP1 POP SWAP3 SWAP2 POP POP JUMP JUMPDEST DUP3 DUP2 DUP4 MCOPY PUSH0 DUP4 DUP4 ADD MSTORE POP POP POP JUMP JUMPDEST PUSH0 PUSH1 0x1F NOT PUSH1 0x1F DUP4 ADD AND SWAP1 POP SWAP2 SWAP1 POP JUMP JUMPDEST PUSH0 PUSH2 0x1FAF DUP3 PUSH2 0x1F6D JUMP JUMPDEST PUSH2 0x1FB9 DUP2 DUP6 PUSH2 0x1F77 JUMP JUMPDEST SWAP4 POP PUSH2 0x1FC9 DUP2 DUP6 PUSH1 0x20 DUP7 ADD PUSH2 0x1F87 JUMP JUMPDEST PUSH2 0x1FD2 DUP2 PUSH2 0x1F95 JUMP JUMPDEST DUP5 ADD SWAP2 POP POP SWAP3 SWAP2 POP POP JUMP JUMPDEST PUSH0 PUSH1 0xA0 DUP3 ADD SWAP1 POP PUSH2 0x1FF0 PUSH0 DUP4 ADD DUP9 PUSH2 0x1F07 JUMP JUMPDEST PUSH2 0x1FFD PUSH1 0x20 DUP4 ADD DUP8 PUSH2 0x1F07 JUMP JUMPDEST PUSH2 0x200A PUSH1 0x40 DUP4 ADD DUP7 PUSH2 0x1F1F JUMP JUMPDEST PUSH2 0x2017 PUSH1 0x60 DUP4 ADD DUP6 PUSH2 0x1F5E JUMP JUMPDEST DUP2 DUP2 SUB PUSH1 0x80 DUP4 ADD MSTORE PUSH2 0x2029 DUP2 DUP5 PUSH2 0x1FA5 JUMP JUMPDEST SWAP1 POP SWAP7 SWAP6 POP POP POP POP POP POP JUMP JUMPDEST PUSH0 PUSH0 REVERT JUMPDEST PUSH0 PUSH0 REVERT JUMPDEST PUSH32 0x4E487B7100000000000000000000000000000000000000000000000000000000 PUSH0 MSTORE PUSH1 0x41 PUSH1 0x4 MSTORE PUSH1 0x24 PUSH0 REVERT JUMPDEST PUSH2 0x2073 DUP3 PUSH2 0x1F95 JUMP JUMPDEST DUP2 ADD DUP2 DUP2 LT PUSH8 0xFFFFFFFFFFFFFFFF DUP3 GT OR ISZERO PUSH2 0x2092 JUMPI PUSH2 0x2091 PUSH2 0x203D JUMP JUMPDEST JUMPDEST DUP1 PUSH1 0x40 MSTORE POP POP POP JUMP JUMPDEST PUSH0 PUSH2 0x20A4 PUSH2 0x1E98 JUMP JUMPDEST SWAP1 POP PUSH2 0x20B0 DUP3 DUP3 PUSH2 0x206A JUMP JUMPDEST SWAP2 SWAP1 POP JUMP JUMPDEST PUSH0 PUSH8 0xFFFFFFFFFFFFFFFF DUP3 GT ISZERO PUSH2 0x20CF JUMPI PUSH2 0x20CE PUSH2 0x203D JUMP JUMPDEST JUMPDEST PUSH2 0x20D8 DUP3 PUSH2 0x1F95 JUMP JUMPDEST SWAP1 POP PUSH1 0x20 DUP2 ADD SWAP1 POP SWAP2 SWAP1 POP JUMP JUMPDEST DUP3 DUP2 DUP4 CALLDATACOPY PUSH0 DUP4 DUP4 ADD MSTORE POP POP POP JUMP JUMPDEST PUSH0 PUSH2 0x2105 PUSH2 0x2100 DUP5 PUSH2 0x20B5 JUMP JUMPDEST PUSH2 0x209B JUMP JUMPDEST SWAP1 POP DUP3 DUP2 MSTORE PUSH1 0x20 DUP2 ADD DUP5 DUP5 DUP5 ADD GT ISZERO PUSH2 0x2121 JUMPI PUSH2 0x2120 PUSH2 0x2039 JUMP JUMPDEST JUMPDEST PUSH2 0x212C DUP5 DUP3 DUP6 PUSH2 0x20E5 JUMP JUMPDEST POP SWAP4 SWAP3 POP POP POP JUMP JUMPDEST PUSH0 DUP3 PUSH1 0x1F DUP4 ADD SLT PUSH2 0x2148 JUMPI PUSH2 0x2147 PUSH2 0x2035 JUMP JUMPDEST JUMPDEST DUP2 CALLDATALOAD PUSH2 0x2158 DUP5 DUP3 PUSH1 0x20 DUP7 ADD PUSH2 0x20F3 JUMP JUMPDEST SWAP2 POP POP SWAP3 SWAP2 POP POP JUMP JUMPDEST PUSH0 PUSH0 PUSH0 PUSH1 0x60 DUP5 DUP7 SUB SLT ISZERO PUSH2 0x2178 JUMPI PUSH2 0x2177 PUSH2 0x1EA1 JUMP JUMPDEST JUMPDEST PUSH0 PUSH2 0x2185 DUP7 DUP3 DUP8 ADD PUSH2 0x1EC8 JUMP JUMPDEST SWAP4 POP POP PUSH1 0x20 PUSH2 0x2196 DUP7 DUP3 DUP8 ADD PUSH2 0x1EC8 JUMP JUMPDEST SWAP3 POP POP PUSH1 0x40 DUP5 ADD CALLDATALOAD PUSH8 0xFFFFFFFFFFFFFFFF DUP2 GT ISZERO PUSH2 0x21B7 JUMPI PUSH2 0x21B6 PUSH2 0x1EA5 JUMP JUMPDEST JUMPDEST PUSH2 0x21C3 DUP7 DUP3 DUP8 ADD PUSH2 0x2134 JUMP JUMPDEST SWAP2 POP POP SWAP3 POP SWAP3 POP SWAP3 JUMP JUMPDEST PUSH0 PUSH1 0x20 DUP3 ADD SWAP1 POP PUSH2 0x21E0 PUSH0 DUP4 ADD DUP5 PUSH2 0x1F07 JUMP JUMPDEST SWAP3 SWAP2 POP POP JUMP JUMPDEST PUSH32 0x4E487B7100000000000000000000000000000000000000000000000000000000 PUSH0 MSTORE PUSH1 0x21 PUSH1 0x4 MSTORE PUSH1 0x24 PUSH0 REVERT JUMPDEST PUSH1 0x2 DUP2 LT PUSH2 0x2224 JUMPI PUSH2 0x2223 PUSH2 0x21E6 JUMP JUMPDEST JUMPDEST POP JUMP JUMPDEST PUSH0 DUP2 SWAP1 POP PUSH2 0x2234 DUP3 PUSH2 0x2213 JUMP JUMPDEST SWAP2 SWAP1 POP JUMP JUMPDEST PUSH0 PUSH2 0x2243 DUP3 PUSH2 0x2227 JUMP JUMPDEST SWAP1 POP SWAP2 SWAP1 POP JUMP JUMPDEST PUSH2 0x2253 DUP2 PUSH2 0x2239 JUMP JUMPDEST DUP3 MSTORE POP POP JUMP JUMPDEST PUSH0 PUSH1 0x20 DUP3 ADD SWAP1 POP PUSH2 0x226C PUSH0 DUP4 ADD DUP5 PUSH2 0x224A JUMP JUMPDEST SWAP3 SWAP2 POP POP JUMP JUMPDEST PUSH2 0x227B DUP2 PUSH2 0x1F4D JUMP JUMPDEST DUP2 EQ PUSH2 0x2285 JUMPI PUSH0 PUSH0 REVERT JUMPDEST POP JUMP JUMPDEST PUSH0 DUP2 CALLDATALOAD SWAP1 POP PUSH2 0x2296 DUP2 PUSH2 0x2272 JUMP JUMPDEST SWAP3 SWAP2 POP POP JUMP JUMPDEST PUSH0 PUSH0 PUSH1 0x40 DUP4 DUP6 SUB SLT ISZERO PUSH2 0x22B2 JUMPI PUSH2 0x22B1 PUSH2 0x1EA1 JUMP JUMPDEST JUMPDEST PUSH0 PUSH2 0x22BF DUP6 DUP3 DUP7 ADD PUSH2 0x2288 JUMP JUMPDEST SWAP3 POP POP PUSH1 0x20 PUSH2 0x22D0 DUP6 DUP3 DUP7 ADD PUSH2 0x1EC8 JUMP JUMPDEST SWAP2 POP POP SWAP3 POP SWAP3 SWAP1 POP JUMP JUMPDEST PUSH0 DUP2 ISZERO ISZERO SWAP1 POP SWAP2 SWAP1 POP JUMP JUMPDEST PUSH2 0x22EE DUP2 PUSH2 0x22DA JUMP JUMPDEST DUP3 MSTORE POP POP JUMP JUMPDEST PUSH0 PUSH1 0xE0 DUP3 ADD SWAP1 POP PUSH2 0x2307 PUSH0 DUP4 ADD DUP11 PUSH2 0x1F5E JUMP JUMPDEST PUSH2 0x2314 PUSH1 0x20 DUP4 ADD DUP10 PUSH2 0x1F07 JUMP JUMPDEST PUSH2 0x2321 PUSH1 0x40 DUP4 ADD DUP9 PUSH2 0x1F1F JUMP JUMPDEST PUSH2 0x232E PUSH1 0x60 DUP4 ADD DUP8 PUSH2 0x1F1F JUMP JUMPDEST PUSH2 0x233B PUSH1 0x80 DUP4 ADD DUP7 PUSH2 0x22E5 JUMP JUMPDEST PUSH2 0x2348 PUSH1 0xA0 DUP4 ADD DUP6 PUSH2 0x22E5 JUMP JUMPDEST PUSH2 0x2355 PUSH1 0xC0 DUP4 ADD DUP5 PUSH2 0x1F5E JUMP JUMPDEST SWAP9 SWAP8 POP POP POP POP POP POP POP POP JUMP JUMPDEST PUSH0 PUSH1 0x20 DUP3 DUP5 SUB SLT ISZERO PUSH2 0x2376 JUMPI PUSH2 0x2375 PUSH2 0x1EA1 JUMP JUMPDEST JUMPDEST PUSH0 PUSH2 0x2383 DUP5 DUP3 DUP6 ADD PUSH2 0x2288 JUMP JUMPDEST SWAP2 POP POP SWAP3 SWAP2 POP POP JUMP JUMPDEST PUSH0 PUSH1 0x20 DUP3 ADD SWAP1 POP PUSH2 0x239F PUSH0 DUP4 ADD DUP5 PUSH2 0x1F1F JUMP JUMPDEST SWAP3 SWAP2 POP POP JUMP JUMPDEST PUSH0 DUP2 MLOAD SWAP1 POP SWAP2 SWAP1 POP JUMP JUMPDEST PUSH0 DUP3 DUP3 MSTORE PUSH1 0x20 DUP3 ADD SWAP1 POP SWAP3 SWAP2 POP POP JUMP JUMPDEST PUSH0 DUP2 SWAP1 POP PUSH1 0x20 DUP3 ADD SWAP1 POP SWAP2 SWAP1 POP JUMP JUMPDEST PUSH2 0x23D7 DUP2 PUSH2 0x1EA9 JUMP JUMPDEST DUP3 MSTORE POP POP JUMP JUMPDEST PUSH0 PUSH2 0x23E8 DUP4 DUP4 PUSH2 0x23CE JUMP JUMPDEST PUSH1 0x20 DUP4 ADD SWAP1 POP SWAP3 SWAP2 POP POP JUMP JUMPDEST PUSH0 PUSH1 0x20 DUP3 ADD SWAP1 POP SWAP2 SWAP1 POP JUMP JUMPDEST PUSH0 PUSH2 0x240A DUP3 PUSH2 0x23A5 JUMP JUMPDEST PUSH2 0x2414 DUP2 DUP6 PUSH2 0x23AF JUMP JUMPDEST SWAP4 POP PUSH2 0x241F DUP4 PUSH2 0x23BF JUMP JUMPDEST DUP1 PUSH0 JUMPDEST DUP4 DUP2 LT ISZERO PUSH2 0x244F JUMPI DUP2 MLOAD PUSH2 0x2436 DUP9 DUP3 PUSH2 0x23DD JUMP JUMPDEST SWAP8 POP PUSH2 0x2441 DUP4 PUSH2 0x23F4 JUMP JUMPDEST SWAP3 POP POP PUSH1 0x1 DUP2 ADD SWAP1 POP PUSH2 0x2422 JUMP JUMPDEST POP DUP6 SWAP4 POP POP POP POP SWAP3 SWAP2 POP POP JUMP JUMPDEST PUSH0 PUSH1 0x20 DUP3 ADD SWAP1 POP DUP2 DUP2 SUB PUSH0 DUP4 ADD MSTORE PUSH2 0x2474 DUP2 DUP5 PUSH2 0x2400 JUMP JUMPDEST SWAP1 POP SWAP3 SWAP2 POP POP JUMP JUMPDEST PUSH0 PUSH1 0x20 DUP3 ADD SWAP1 POP PUSH2 0x248F PUSH0 DUP4 ADD DUP5 PUSH2 0x22E5 JUMP JUMPDEST SWAP3 SWAP2 POP POP JUMP JUMPDEST PUSH0 PUSH1 0x40 DUP3 ADD SWAP1 POP PUSH2 0x24A8 PUSH0 DUP4 ADD DUP6 PUSH2 0x1F1F JUMP JUMPDEST PUSH2 0x24B5 PUSH1 0x20 DUP4 ADD DUP5 PUSH2 0x1F1F JUMP JUMPDEST SWAP4 SWAP3 POP POP POP JUMP JUMPDEST PUSH2 0x24C5 DUP2 PUSH2 0x22DA JUMP JUMPDEST DUP2 EQ PUSH2 0x24CF JUMPI PUSH0 PUSH0 REVERT JUMPDEST POP JUMP JUMPDEST PUSH0 DUP2 CALLDATALOAD SWAP1 POP PUSH2 0x24E0 DUP2 PUSH2 0x24BC JUMP JUMPDEST SWAP3 SWAP2 POP POP JUMP JUMPDEST PUSH2 0x24EF DUP2 PUSH2 0x1F16 JUMP JUMPDEST DUP2 EQ PUSH2 0x24F9 JUMPI PUSH0 PUSH0 REVERT JUMPDEST POP JUMP JUMPDEST PUSH0 DUP2 CALLDATALOAD SWAP1 POP PUSH2 0x250A DUP2 PUSH2 0x24E6 JUMP JUMPDEST SWAP3 SWAP2 POP POP JUMP JUMPDEST PUSH0 PUSH0 PUSH0 PUSH0 PUSH0 PUSH1 0xA0 DUP7 DUP9 SUB SLT ISZERO PUSH2 0x2529 JUMPI PUSH2 0x2528 PUSH2 0x1EA1 JUMP JUMPDEST JUMPDEST PUSH0 PUSH2 0x2536 DUP9 DUP3 DUP10 ADD PUSH2 0x2288 JUMP JUMPDEST SWAP6 POP POP PUSH1 0x20 PUSH2 0x2547 DUP9 DUP3 DUP10 ADD PUSH2 0x1EC8 JUMP JUMPDEST SWAP5 POP POP PUSH1 0x40 PUSH2 0x2558 DUP9 DUP3 DUP10 ADD PUSH2 0x24D2 JUMP JUMPDEST SWAP4 POP POP PUSH1 0x60 PUSH2 0x2569 DUP9 DUP3 DUP10 ADD PUSH2 0x24D2 JUMP JUMPDEST SWAP3 POP POP PUSH1 0x80 PUSH2 0x257A DUP9 DUP3 DUP10 ADD PUSH2 0x24FC JUMP JUMPDEST SWAP2 POP POP SWAP3 SWAP6 POP SWAP3 SWAP6 SWAP1 SWAP4 POP JUMP JUMPDEST PUSH0 PUSH1 0x80 DUP3 ADD SWAP1 POP PUSH2 0x259A PUSH0 DUP4 ADD DUP8 PUSH2 0x22E5 JUMP JUMPDEST PUSH2 0x25A7 PUSH1 0x20 DUP4 ADD DUP7 PUSH2 0x22E5 JUMP JUMPDEST PUSH2 0x25B4 PUSH1 0x40 DUP4 ADD DUP6 PUSH2 0x22E5 JUMP JUMPDEST PUSH2 0x25C1 PUSH1 0x60 DUP4 ADD DUP5 PUSH2 0x1F1F JUMP JUMPDEST SWAP6 SWAP5 POP POP POP POP POP JUMP JUMPDEST PUSH0 PUSH0 PUSH0 PUSH1 0x60 DUP5 DUP7 SUB SLT ISZERO PUSH2 0x25E1 JUMPI PUSH2 0x25E0 PUSH2 0x1EA1 JUMP JUMPDEST JUMPDEST PUSH0 PUSH2 0x25EE DUP7 DUP3 DUP8 ADD PUSH2 0x1EC8 JUMP JUMPDEST SWAP4 POP POP PUSH1 0x20 PUSH2 0x25FF DUP7 DUP3 DUP8 ADD PUSH2 0x1EC8 JUMP JUMPDEST SWAP3 POP POP PUSH1 0x40 PUSH2 0x2610 DUP7 DUP3 DUP8 ADD PUSH2 0x1EC8 JUMP JUMPDEST SWAP2 POP POP SWAP3 POP SWAP3 POP SWAP3 JUMP JUMPDEST PUSH0 PUSH8 0xFFFFFFFFFFFFFFFF DUP3 GT ISZERO PUSH2 0x2634 JUMPI PUSH2 0x2633 PUSH2 0x203D JUMP JUMPDEST JUMPDEST PUSH1 0x20 DUP3 MUL SWAP1 POP PUSH1 0x20 DUP2 ADD SWAP1 POP SWAP2 SWAP1 POP JUMP JUMPDEST PUSH0 PUSH0 REVERT JUMPDEST PUSH0 PUSH2 0x265B PUSH2 0x2656 DUP5 PUSH2 0x261A JUMP JUMPDEST PUSH2 0x209B JUMP JUMPDEST SWAP1 POP DUP1 DUP4 DUP3 MSTORE PUSH1 0x20 DUP3 ADD SWAP1 POP PUSH1 0x20 DUP5 MUL DUP4 ADD DUP6 DUP2 GT ISZERO PUSH2 0x267E JUMPI PUSH2 0x267D PUSH2 0x2645 JUMP JUMPDEST JUMPDEST DUP4 JUMPDEST DUP2 DUP2 LT ISZERO PUSH2 0x26A7 JUMPI DUP1 PUSH2 0x2693 DUP9 DUP3 PUSH2 0x1EC8 JUMP JUMPDEST DUP5 MSTORE PUSH1 0x20 DUP5 ADD SWAP4 POP POP PUSH1 0x20 DUP2 ADD SWAP1 POP PUSH2 0x2680 JUMP JUMPDEST POP POP POP SWAP4 SWAP3 POP POP POP JUMP JUMPDEST PUSH0 DUP3 PUSH1 0x1F DUP4 ADD SLT PUSH2 0x26C5 JUMPI PUSH2 0x26C4 PUSH2 0x2035 JUMP JUMPDEST JUMPDEST DUP2 CALLDATALOAD PUSH2 0x26D5 DUP5 DUP3 PUSH1 0x20 DUP7 ADD PUSH2 0x2649 JUMP JUMPDEST SWAP2 POP POP SWAP3 SWAP2 POP POP JUMP JUMPDEST PUSH0 PUSH0 PUSH0 PUSH0 PUSH0 PUSH1 0xA0 DUP7 DUP9 SUB SLT ISZERO PUSH2 0x26F7 JUMPI PUSH2 0x26F6 PUSH2 0x1EA1 JUMP JUMPDEST JUMPDEST PUSH0 PUSH2 0x2704 DUP9 DUP3 DUP10 ADD PUSH2 0x2288 JUMP JUMPDEST SWAP6 POP POP PUSH1 0x20 DUP7 ADD CALLDATALOAD PUSH8 0xFFFFFFFFFFFFFFFF DUP2 GT ISZERO PUSH2 0x2725 JUMPI PUSH2 0x2724 PUSH2 0x1EA5 JUMP JUMPDEST JUMPDEST PUSH2 0x2731 DUP9 DUP3 DUP10 ADD PUSH2 0x26B1 JUMP JUMPDEST SWAP5 POP POP PUSH1 0x40 PUSH2 0x2742 DUP9 DUP3 DUP10 ADD PUSH2 0x24D2 JUMP JUMPDEST SWAP4 POP POP PUSH1 0x60 PUSH2 0x2753 DUP9 DUP3 DUP10 ADD PUSH2 0x24D2 JUMP JUMPDEST SWAP3 POP POP PUSH1 0x80 PUSH2 0x2764 DUP9 DUP3 DUP10 ADD PUSH2 0x24FC JUMP JUMPDEST SWAP2 POP POP SWAP3 SWAP6 POP SWAP3 SWAP6 SWAP1 SWAP4 POP JUMP JUMPDEST PUSH0 PUSH0 PUSH1 0x40 DUP4 DUP6 SUB SLT ISZERO PUSH2 0x2787 JUMPI PUSH2 0x2786 PUSH2 0x1EA1 JUMP JUMPDEST JUMPDEST PUSH0 PUSH2 0x2794 DUP6 DUP3 DUP7 ADD PUSH2 0x2288 JUMP JUMPDEST SWAP3 POP POP PUSH1 0x20 PUSH2 0x27A5 DUP6 DUP3 DUP7 ADD PUSH2 0x24FC JUMP JUMPDEST SWAP2 POP POP SWAP3 POP SWAP3 SWAP1 POP JUMP JUMPDEST PUSH0 PUSH1 0xE0 DUP3 ADD SWAP1 POP PUSH2 0x27C2 PUSH0 DUP4 ADD DUP11 PUSH2 0x1F07 JUMP JUMPDEST PUSH2 0x27CF PUSH1 0x20 DUP4 ADD DUP10 PUSH2 0x1F07 JUMP JUMPDEST PUSH2 0x27DC PUSH1 0x40 DUP4 ADD DUP9 PUSH2 0x1F1F JUMP JUMPDEST PUSH2 0x27E9 PUSH1 0x60 DUP4 ADD DUP8 PUSH2 0x1F5E JUMP JUMPDEST PUSH2 0x27F6 PUSH1 0x80 DUP4 ADD DUP7 PUSH2 0x22E5 JUMP JUMPDEST DUP2 DUP2 SUB PUSH1 0xA0 DUP4 ADD MSTORE PUSH2 0x2808 DUP2 DUP6 PUSH2 0x1FA5 JUMP JUMPDEST SWAP1 POP PUSH2 0x2817 PUSH1 0xC0 DUP4 ADD DUP5 PUSH2 0x224A JUMP JUMPDEST SWAP9 SWAP8 POP POP POP POP POP POP POP POP JUMP JUMPDEST PUSH32 0x4E6F742064617461206F776E6572000000000000000000000000000000000000 PUSH0 DUP3 ADD MSTORE POP JUMP JUMPDEST PUSH0 PUSH2 0x2857 PUSH1 0xE DUP4 PUSH2 0x1F77 JUMP JUMPDEST SWAP2 POP PUSH2 0x2862 DUP3 PUSH2 0x2823 JUMP JUMPDEST PUSH1 0x20 DUP3 ADD SWAP1 POP SWAP2 SWAP1 POP JUMP JUMPDEST PUSH0 PUSH1 0x20 DUP3 ADD SWAP1 POP DUP2 DUP2 SUB PUSH0 DUP4 ADD MSTORE PUSH2 0x2884 DUP2 PUSH2 0x284B JUMP JUMPDEST SWAP1 POP SWAP2 SWAP1 POP JUMP JUMPDEST PUSH32 0x44617461206E6F74206163746976650000000000000000000000000000000000 PUSH0 DUP3 ADD MSTORE POP JUMP JUMPDEST PUSH0 PUSH2 0x28BF PUSH1 0xF DUP4 PUSH2 0x1F77 JUMP JUMPDEST SWAP2 POP PUSH2 0x28CA DUP3 PUSH2 0x288B JUMP JUMPDEST PUSH1 0x20 DUP3 ADD SWAP1 POP SWAP2 SWAP1 POP JUMP JUMPDEST PUSH0 PUSH1 0x20 DUP3 ADD SWAP1 POP DUP2 DUP2 SUB PUSH0 DUP4 ADD MSTORE PUSH2 0x28EC DUP2 PUSH2 0x28B3 JUMP JUMPDEST SWAP1 POP SWAP2 SWAP1 POP JUMP JUMPDEST PUSH32 0x416C726561647920707269766174650000000000000000000000000000000000 PUSH0 DUP3 ADD MSTORE POP JUMP JUMPDEST PUSH0 PUSH2 0x2927 PUSH1 0xF DUP4 PUSH2 0x1F77 JUMP JUMPDEST SWAP2 POP PUSH2 0x2932 DUP3 PUSH2 0x28F3 JUMP JUMPDEST PUSH1 0x20 DUP3 ADD SWAP1 POP SWAP2 SWAP1 POP JUMP JUMPDEST PUSH0 PUSH1 0x20 DUP3 ADD SWAP1 POP DUP2 DUP2 SUB PUSH0 DUP4 ADD MSTORE PUSH2 0x2954 DUP2 PUSH2 0x291B JUMP JUMPDEST SWAP1 POP SWAP2 SWAP1 POP JUMP JUMPDEST PUSH0 PUSH1 0x60 DUP3 ADD SWAP1 POP PUSH2 0x296E PUSH0 DUP4 ADD DUP7 PUSH2 0x224A JUMP JUMPDEST PUSH2 0x297B PUSH1 0x20 DUP4 ADD DUP6 PUSH2 0x224A JUMP JUMPDEST PUSH2 0x2988 PUSH1 0x40 DUP4 ADD DUP5 PUSH2 0x1F1F JUMP JUMPDEST SWAP5 SWAP4 POP POP POP POP JUMP JUMPDEST PUSH32 0x4E6F2072656164207065726D697373696F6E0000000000000000000000000000 PUSH0 DUP3 ADD MSTORE POP JUMP JUMPDEST PUSH0 PUSH2 0x29C4 PUSH1 0x12 DUP4 PUSH2 0x1F77 JUMP JUMPDEST SWAP2 POP PUSH2 0x29CF DUP3 PUSH2 0x2990 JUMP JUMPDEST PUSH1 0x20 DUP3 ADD SWAP1 POP SWAP2 SWAP1 POP JUMP JUMPDEST PUSH0 PUSH1 0x20 DUP3 ADD SWAP1 POP DUP2 DUP2 SUB PUSH0 DUP4 ADD MSTORE PUSH2 0x29F1 DUP2 PUSH2 0x29B8 JUMP JUMPDEST SWAP1 POP SWAP2 SWAP1 POP JUMP JUMPDEST PUSH32 0x4E487B7100000000000000000000000000000000000000000000000000000000 PUSH0 MSTORE PUSH1 0x22 PUSH1 0x4 MSTORE PUSH1 0x24 PUSH0 REVERT JUMPDEST PUSH0 PUSH1 0x2 DUP3 DIV SWAP1 POP PUSH1 0x1 DUP3 AND DUP1 PUSH2 0x2A3C JUMPI PUSH1 0x7F DUP3 AND SWAP2 POP JUMPDEST PUSH1 0x20 DUP3 LT DUP2 SUB PUSH2 0x2A4F JUMPI PUSH2 0x2A4E PUSH2 0x29F8 JUMP JUMPDEST JUMPDEST POP SWAP2 SWAP1 POP JUMP JUMPDEST PUSH0 DUP2 PUSH1 0x60 SHL SWAP1 POP SWAP2 SWAP1 POP JUMP JUMPDEST PUSH0 PUSH2 0x2A6B DUP3 PUSH2 0x2A55 JUMP JUMPDEST SWAP1 POP SWAP2 SWAP1 POP JUMP JUMPDEST PUSH0 PUSH2 0x2A7C DUP3 PUSH2 0x2A61 JUMP JUMPDEST SWAP1 POP SWAP2 SWAP1 POP JUMP JUMPDEST PUSH2 0x2A94 PUSH2 0x2A8F DUP3 PUSH2 0x1F4D JUMP JUMPDEST PUSH2 0x2A72 JUMP JUMPDEST DUP3 MSTORE POP POP JUMP JUMPDEST PUSH0 DUP2 SWAP1 POP SWAP2 SWAP1 POP JUMP JUMPDEST PUSH2 0x2AB4 PUSH2 0x2AAF DUP3 PUSH2 0x1EA9 JUMP JUMPDEST PUSH2 0x2A9A JUMP JUMPDEST DUP3 MSTORE POP POP JUMP JUMPDEST PUSH0 DUP2 SWAP1 POP SWAP2 SWAP1 POP JUMP JUMPDEST PUSH2 0x2AD4 PUSH2 0x2ACF DUP3 PUSH2 0x1F16 JUMP JUMPDEST PUSH2 0x2ABA JUMP JUMPDEST DUP3 MSTORE POP POP JUMP JUMPDEST PUSH0 PUSH2 0x2AE5 DUP3 DUP7 PUSH2 0x2A83 JUMP JUMPDEST PUSH1 0x14 DUP3 ADD SWAP2 POP PUSH2 0x2AF5 DUP3 DUP6 PUSH2 0x2AA3 JUMP JUMPDEST PUSH1 0x20 DUP3 ADD SWAP2 POP PUSH2 0x2B05 DUP3 DUP5 PUSH2 0x2AC3 JUMP JUMPDEST PUSH1 0x20 DUP3 ADD SWAP2 POP DUP2 SWAP1 POP SWAP5 SWAP4 POP POP POP POP JUMP JUMPDEST PUSH32 0x4461746120616C72656164792065786973747300000000000000000000000000 PUSH0 DUP3 ADD MSTORE POP JUMP JUMPDEST PUSH0 PUSH2 0x2B4A PUSH1 0x13 DUP4 PUSH2 0x1F77 JUMP JUMPDEST SWAP2 POP PUSH2 0x2B55 DUP3 PUSH2 0x2B16 JUMP JUMPDEST PUSH1 0x20 DUP3 ADD SWAP1 POP SWAP2 SWAP1 POP JUMP JUMPDEST PUSH0 PUSH1 0x20 DUP3 ADD SWAP1 POP DUP2 DUP2 SUB PUSH0 DUP4 ADD MSTORE PUSH2 0x2B77 DUP2 PUSH2 0x2B3E JUMP JUMPDEST SWAP1 POP SWAP2 SWAP1 POP JUMP JUMPDEST PUSH0 DUP2 SWAP1 POP DUP2 PUSH0 MSTORE PUSH1 0x20 PUSH0 KECCAK256 SWAP1 POP SWAP2 SWAP1 POP JUMP JUMPDEST PUSH0 PUSH1 0x20 PUSH1 0x1F DUP4 ADD DIV SWAP1 POP SWAP2 SWAP1 POP JUMP JUMPDEST PUSH0 DUP3 DUP3 SHL SWAP1 POP SWAP3 SWAP2 POP POP JUMP JUMPDEST PUSH0 PUSH1 0x8 DUP4 MUL PUSH2 0x2BDA PUSH32 0xFFFFFFFFFFFFFFFFFFFFFFFFFFFFFFFFFFFFFFFFFFFFFFFFFFFFFFFFFFFFFFFF DUP3 PUSH2 0x2B9F JUMP JUMPDEST PUSH2 0x2BE4 DUP7 DUP4 PUSH2 0x2B9F JUMP JUMPDEST SWAP6 POP DUP1 NOT DUP5 AND SWAP4 POP DUP1 DUP7 AND DUP5 OR SWAP3 POP POP POP SWAP4 SWAP3 POP POP POP JUMP JUMPDEST PUSH0 DUP2 SWAP1 POP SWAP2 SWAP1 POP JUMP JUMPDEST PUSH0 PUSH2 0x2C1F PUSH2 0x2C1A PUSH2 0x2C15 DUP5 PUSH2 0x1F16 JUMP JUMPDEST PUSH2 0x2BFC JUMP JUMPDEST PUSH2 0x1F16 JUMP JUMPDEST SWAP1 POP SWAP2 SWAP1 POP JUMP JUMPDEST PUSH0 DUP2 SWAP1 POP SWAP2 SWAP1 POP JUMP JUMPDEST PUSH2 0x2C38 DUP4 PUSH2 0x2C05 JUMP JUMPDEST PUSH2 0x2C4C PUSH2 0x2C44 DUP3 PUSH2 0x2C26 JUMP JUMPDEST DUP5 DUP5 SLOAD PUSH2 0x2BAB JUMP JUMPDEST DUP3 SSTORE POP POP POP POP JUMP JUMPDEST PUSH0 PUSH0 SWAP1 POP SWAP1 JUMP JUMPDEST PUSH2 0x2C63 PUSH2 0x2C54 JUMP JUMPDEST PUSH2 0x2C6E DUP2 DUP5 DUP5 PUSH2 0x2C2F JUMP JUMPDEST POP POP POP JUMP JUMPDEST JUMPDEST DUP2 DUP2 LT ISZERO PUSH2 0x2C91 JUMPI PUSH2 0x2C86 PUSH0 DUP3 PUSH2 0x2C5B JUMP JUMPDEST PUSH1 0x1 DUP2 ADD SWAP1 POP PUSH2 0x2C74 JUMP JUMPDEST POP POP JUMP JUMPDEST PUSH1 0x1F DUP3 GT ISZERO PUSH2 0x2CD6 JUMPI PUSH2 0x2CA7 DUP2 PUSH2 0x2B7E JUMP JUMPDEST PUSH2 0x2CB0 DUP5 PUSH2 0x2B90 JUMP JUMPDEST DUP2 ADD PUSH1 0x20 DUP6 LT ISZERO PUSH2 0x2CBF JUMPI DUP2 SWAP1 POP JUMPDEST PUSH2 0x2CD3 PUSH2 0x2CCB DUP6 PUSH2 0x2B90 JUMP JUMPDEST DUP4 ADD DUP3 PUSH2 0x2C73 JUMP JUMPDEST POP POP JUMPDEST POP POP POP JUMP JUMPDEST PUSH0 DUP3 DUP3 SHR SWAP1 POP SWAP3 SWAP2 POP POP JUMP JUMPDEST PUSH0 PUSH2 0x2CF6 PUSH0 NOT DUP5 PUSH1 0x8 MUL PUSH2 0x2CDB JUMP JUMPDEST NOT DUP1 DUP4 AND SWAP2 POP POP SWAP3 SWAP2 POP POP JUMP JUMPDEST PUSH0 PUSH2 0x2D0E DUP4 DUP4 PUSH2 0x2CE7 JUMP JUMPDEST SWAP2 POP DUP3 PUSH1 0x2 MUL DUP3 OR SWAP1 POP SWAP3 SWAP2 POP POP JUMP JUMPDEST PUSH2 0x2D27 DUP3 PUSH2 0x1F6D JUMP JUMPDEST PUSH8 0xFFFFFFFFFFFFFFFF DUP2 GT ISZERO PUSH2 0x2D40 JUMPI PUSH2 0x2D3F PUSH2 0x203D JUMP JUMPDEST JUMPDEST PUSH2 0x2D4A DUP3 SLOAD PUSH2 0x2A25 JUMP JUMPDEST PUSH2 0x2D55 DUP3 DUP3 DUP6 PUSH2 0x2C95 JUMP JUMPDEST PUSH0 PUSH1 0x20 SWAP1 POP PUSH1 0x1F DUP4 GT PUSH1 0x1 DUP2 EQ PUSH2 0x2D86 JUMPI PUSH0 DUP5 ISZERO PUSH2 0x2D74 JUMPI DUP3 DUP8 ADD MLOAD SWAP1 POP JUMPDEST PUSH2 0x2D7E DUP6 DUP3 PUSH2 0x2D03 JUMP JUMPDEST DUP7 SSTORE POP PUSH2 0x2DE5 JUMP JUMPDEST PUSH1 0x1F NOT DUP5 AND PUSH2 0x2D94 DUP7 PUSH2 0x2B7E JUMP JUMPDEST PUSH0 JUMPDEST DUP3 DUP2 LT ISZERO PUSH2 0x2DBB JUMPI DUP5 DUP10 ADD MLOAD DUP3 SSTORE PUSH1 0x1 DUP3 ADD SWAP2 POP PUSH1 0x20 DUP6 ADD SWAP5 POP PUSH1 0x20 DUP2 ADD SWAP1 POP PUSH2 0x2D96 JUMP JUMPDEST DUP7 DUP4 LT ISZERO PUSH2 0x2DD8 JUMPI DUP5 DUP10 ADD MLOAD PUSH2 0x2DD4 PUSH1 0x1F DUP10 AND DUP3 PUSH2 0x2CE7 JUMP JUMPDEST DUP4 SSTORE POP JUMPDEST PUSH1 0x1 PUSH1 0x2 DUP9 MUL ADD DUP9 SSTORE POP POP POP JUMPDEST POP POP POP POP POP POP JUMP JUMPDEST PUSH0 PUSH1 0x40 DUP3 ADD SWAP1 POP DUP2 DUP2 SUB PUSH0 DUP4 ADD MSTORE PUSH2 0x2E05 DUP2 DUP6 PUSH2 0x1FA5 JUMP JUMPDEST SWAP1 POP PUSH2 0x2E14 PUSH1 0x20 DUP4 ADD DUP5 PUSH2 0x1F1F JUMP JUMPDEST SWAP4 SWAP3 POP POP POP JUMP JUMPDEST PUSH32 0x44617461206E6F7420666F756E64000000000000000000000000000000000000 PUSH0 DUP3 ADD MSTORE POP JUMP JUMPDEST PUSH0 PUSH2 0x2E4F PUSH1 0xE DUP4 PUSH2 0x1F77 JUMP JUMPDEST SWAP2 POP PUSH2 0x2E5A DUP3 PUSH2 0x2E1B JUMP JUMPDEST PUSH1 0x20 DUP3 ADD SWAP1 POP SWAP2 SWAP1 POP JUMP JUMPDEST PUSH0 PUSH1 0x20 DUP3 ADD SWAP1 POP DUP2 DUP2 SUB PUSH0 DUP4 ADD MSTORE PUSH2 0x2E7C DUP2 PUSH2 0x2E43 JUMP JUMPDEST SWAP1 POP SWAP2 SWAP1 POP JUMP JUMPDEST PUSH32 0x4461746120616C726561647920696E6163746976650000000000000000000000 PUSH0 DUP3 ADD MSTORE POP JUMP JUMPDEST PUSH0 PUSH2 0x2EB7 PUSH1 0x15 DUP4 PUSH2 0x1F77 JUMP JUMPDEST SWAP2 POP PUSH2 0x2EC2 DUP3 PUSH2 0x2E83 JUMP JUMPDEST PUSH1 0x20 DUP3 ADD SWAP1 POP SWAP2 SWAP1 POP JUMP JUMPDEST PUSH0 PUSH1 0x20 DUP3 ADD SWAP1 POP DUP2 DUP2 SUB PUSH0 DUP4 ADD MSTORE PUSH2 0x2EE4 DUP2 PUSH2 0x2EAB JUMP JUMPDEST SWAP1 POP SWAP2 SWAP1 POP JUMP JUMPDEST PUSH32 0x4E487B7100000000000000000000000000000000000000000000000000000000 PUSH0 MSTORE PUSH1 0x32 PUSH1 0x4 MSTORE PUSH1 0x24 PUSH0 REVERT JUMPDEST PUSH32 0x4E487B7100000000000000000000000000000000000000000000000000000000 PUSH0 MSTORE PUSH1 0x11 PUSH1 0x4 MSTORE PUSH1 0x24 PUSH0 REVERT JUMPDEST PUSH0 PUSH2 0x2F4F DUP3 PUSH2 0x1F16 JUMP JUMPDEST SWAP2 POP PUSH2 0x2F5A DUP4 PUSH2 0x1F16 JUMP JUMPDEST SWAP3 POP DUP3 DUP3 SUB SWAP1 POP DUP2 DUP2 GT ISZERO PUSH2 0x2F72 JUMPI PUSH2 0x2F71 PUSH2 0x2F18 JUMP JUMPDEST JUMPDEST SWAP3 SWAP2 POP POP JUMP JUMPDEST PUSH32 0x4E487B7100000000000000000000000000000000000000000000000000000000 PUSH0 MSTORE PUSH1 0x31 PUSH1 0x4 MSTORE PUSH1 0x24 PUSH0 REVERT JUMPDEST PUSH32 0x496E76616C696420726571756573746572000000000000000000000000000000 PUSH0 DUP3 ADD MSTORE POP JUMP JUMPDEST PUSH0 PUSH2 0x2FD9 PUSH1 0x11 DUP4 PUSH2 0x1F77 JUMP JUMPDEST SWAP2 POP PUSH2 0x2FE4 DUP3 PUSH2 0x2FA5 JUMP JUMPDEST PUSH1 0x20 DUP3 ADD SWAP1 POP SWAP2 SWAP1 POP JUMP JUMPDEST PUSH0 PUSH1 0x20 DUP3 ADD SWAP1 POP DUP2 DUP2 SUB PUSH0 DUP4 ADD MSTORE PUSH2 0x3006 DUP2 PUSH2 0x2FCD JUMP JUMPDEST SWAP1 POP SWAP2 SWAP1 POP JUMP JUMPDEST PUSH32 0x496E76616C6964206475726174696F6E00000000000000000000000000000000 PUSH0 DUP3 ADD MSTORE POP JUMP JUMPDEST PUSH0 PUSH2 0x3041 PUSH1 0x10 DUP4 PUSH2 0x1F77 JUMP JUMPDEST SWAP2 POP PUSH2 0x304C DUP3 PUSH2 0x300D JUMP JUMPDEST PUSH1 0x20 DUP3 ADD SWAP1 POP SWAP2 SWAP1 POP JUMP JUMPDEST PUSH0 PUSH1 0x20 DUP3 ADD SWAP1 POP DUP2 DUP2 SUB PUSH0 DUP4 ADD MSTORE PUSH2 0x306E DUP2 PUSH2 0x3035 JUMP JUMPDEST SWAP1 POP SWAP2 SWAP1 POP JUMP JUMPDEST PUSH32 0x5075626C6963206461746120646F6573206E6F74206E656564206772616E7400 PUSH0 DUP3 ADD MSTORE POP JUMP JUMPDEST PUSH0 PUSH2 0x30A9 PUSH1 0x1F DUP4 PUSH2 0x1F77 JUMP JUMPDEST SWAP2 POP PUSH2 0x30B4 DUP3 PUSH2 0x3075 JUMP JUMPDEST PUSH1 0x20 DUP3 ADD SWAP1 POP SWAP2 SWAP1 POP JUMP JUMPDEST PUSH0 PUSH1 0x20 DUP3 ADD SWAP1 POP DUP2 DUP2 SUB PUSH0 DUP4 ADD MSTORE PUSH2 0x30D6 DUP2 PUSH2 0x309D JUMP JUMPDEST SWAP1 POP SWAP2 SWAP1 POP JUMP JUMPDEST PUSH0 PUSH2 0x30E7 DUP3 PUSH2 0x1F16 JUMP JUMPDEST SWAP2 POP PUSH2 0x30F2 DUP4 PUSH2 0x1F16 JUMP JUMPDEST SWAP3 POP DUP3 DUP3 ADD SWAP1 POP DUP1 DUP3 GT ISZERO PUSH2 0x310A JUMPI PUSH2 0x3109 PUSH2 0x2F18 JUMP JUMPDEST JUMPDEST SWAP3 SWAP2 POP POP JUMP JUMPDEST PUSH32 0x416C7265616479207075626C6963000000000000000000000000000000000000 PUSH0 DUP3 ADD MSTORE POP JUMP JUMPDEST PUSH0 PUSH2 0x3144 PUSH1 0xE DUP4 PUSH2 0x1F77 JUMP JUMPDEST SWAP2 POP PUSH2 0x314F DUP3 PUSH2 0x3110 JUMP JUMPDEST PUSH1 0x20 DUP3 ADD SWAP1 POP SWAP2 SWAP1 POP JUMP JUMPDEST PUSH0 PUSH1 0x20 DUP3 ADD SWAP1 POP DUP2 DUP2 SUB PUSH0 DUP4 ADD MSTORE PUSH2 0x3171 DUP2 PUSH2 0x3138 JUMP JUMPDEST SWAP1 POP SWAP2 SWAP1 POP JUMP JUMPDEST PUSH32 0x4E6F207772697465207065726D697373696F6E00000000000000000000000000 PUSH0 DUP3 ADD MSTORE POP JUMP JUMPDEST PUSH0 PUSH2 0x31AC PUSH1 0x13 DUP4 PUSH2 0x1F77 JUMP JUMPDEST SWAP2 POP PUSH2 0x31B7 DUP3 PUSH2 0x3178 JUMP JUMPDEST PUSH1 0x20 DUP3 ADD SWAP1 POP SWAP2 SWAP1 POP JUMP JUMPDEST PUSH0 PUSH1 0x20 DUP3 ADD SWAP1 POP DUP2 DUP2 SUB PUSH0 DUP4 ADD MSTORE PUSH2 0x31D9 DUP2 PUSH2 0x31A0 JUMP JUMPDEST SWAP1 POP SWAP2 SWAP1 POP JUMP INVALID LOG2 PUSH5 0x6970667358 0x22 SLT KECCAK256 SAR 0xA9 LOG2 ADDRESS MLOAD MSIZE 0xD3 JUMPF 0xE37F 0xCC RETURNDATACOPY 0xE2 0xD3 DUP3 PUSH7 0xDF6BCFF645B74A RETURNCONTRACT 0x89 0xAC SMOD 0xB0 LOG0 0xDA PUSH19 0x9A64736F6C634300081E003300000000000000 "
				},
				"gasEstimates": {
					"creation": {
						"codeDepositCost": "2564400",
						"executionCost": "2769",
						"totalCost": "2567169"
					},
					"external": {
						"batchGrantAccess(address,bytes32[],bool,bool,uint256)": "infinite",
						"checkAccess(address,bytes32)": "12070",
						"checkPermission(address,bytes32)": "infinite",
						"deleteData(bytes32)": "infinite",
						"getContractInfo()": "infinite",
						"getDataStatus(bytes32)": "5180",
						"getHealthData(bytes32)": "infinite",
						"getUserDataCount(address)": "2882",
						"getUserDataIds(address)": "infinite",
						"grantAccess(address,bytes32,bool,bool,uint256)": "infinite",
						"healthRecords(bytes32)": "infinite",
						"makeDataPrivate(bytes32)": "infinite",
						"makeDataPublic(bytes32)": "infinite",
						"permissions(address,bytes32)": "infinite",
						"revokeAccess(address,bytes32)": "117189",
						"storeHealthData(bytes32,bytes32,string)": "infinite",
						"updateHealthData(bytes32,bytes32,bytes32)": "infinite",
						"userRecords(address,uint256)": "5238"
					}
				},
				"methodIdentifiers": {
					"batchGrantAccess(address,bytes32[],bool,bool,uint256)": "e189c8b8",
					"checkAccess(address,bytes32)": "7461f24a",
					"checkPermission(address,bytes32)": "d6392057",
					"deleteData(bytes32)": "86911cde",
					"getContractInfo()": "7cc1f867",
					"getDataStatus(bytes32)": "46e036cf",
					"getHealthData(bytes32)": "0a519fe1",
					"getUserDataCount(address)": "647f94a5",
					"getUserDataIds(address)": "66792d00",
					"grantAccess(address,bytes32,bool,bool,uint256)": "89c5d346",
					"healthRecords(bytes32)": "e9021744",
					"makeDataPrivate(bytes32)": "06848dcd",
					"makeDataPublic(bytes32)": "c0e01108",
					"permissions(address,bytes32)": "5b225526",
					"revokeAccess(address,bytes32)": "73125163",
					"storeHealthData(bytes32,bytes32,string)": "380b06c0",
					"updateHealthData(bytes32,bytes32,bytes32)": "d7ed69c1",
					"userRecords(address,uint256)": "e85d28b9"
				}
			},
			"storageLayout": {
				"storage": [
					{
						"astId": 41,
						"contract": "HealthDataAccess.sol:HealthDataAccess",
						"label": "healthRecords",
						"offset": 0,
						"slot": "0",
						"type": "t_mapping(t_bytes32,t_struct(HealthRecord)21_storage)"
					},
					{
						"astId": 48,
						"contract": "HealthDataAccess.sol:HealthDataAccess",
						"label": "permissions",
						"offset": 0,
						"slot": "1",
						"type": "t_mapping(t_address,t_mapping(t_bytes32,t_struct(AccessPermission)36_storage))"
					},
					{
						"astId": 53,
						"contract": "HealthDataAccess.sol:HealthDataAccess",
						"label": "userRecords",
						"offset": 0,
						"slot": "2",
						"type": "t_mapping(t_address,t_array(t_bytes32)dyn_storage)"
					}
				],
				"types": {
					"t_address": {
						"encoding": "inplace",
						"label": "address",
						"numberOfBytes": "20"
					},
					"t_array(t_bytes32)dyn_storage": {
						"base": "t_bytes32",
						"encoding": "dynamic_array",
						"label": "bytes32[]",
						"numberOfBytes": "32"
					},
					"t_bool": {
						"encoding": "inplace",
						"label": "bool",
						"numberOfBytes": "1"
					},
					"t_bytes32": {
						"encoding": "inplace",
						"label": "bytes32",
						"numberOfBytes": "32"
					},
					"t_enum(DataStatus)5": {
						"encoding": "inplace",
						"label": "enum HealthDataAccess.DataStatus",
						"numberOfBytes": "1"
					},
					"t_mapping(t_address,t_array(t_bytes32)dyn_storage)": {
						"encoding": "mapping",
						"key": "t_address",
						"label": "mapping(address => bytes32[])",
						"numberOfBytes": "32",
						"value": "t_array(t_bytes32)dyn_storage"
					},
					"t_mapping(t_address,t_mapping(t_bytes32,t_struct(AccessPermission)36_storage))": {
						"encoding": "mapping",
						"key": "t_address",
						"label": "mapping(address => mapping(bytes32 => struct HealthDataAccess.AccessPermission))",
						"numberOfBytes": "32",
						"value": "t_mapping(t_bytes32,t_struct(AccessPermission)36_storage)"
					},
					"t_mapping(t_bytes32,t_struct(AccessPermission)36_storage)": {
						"encoding": "mapping",
						"key": "t_bytes32",
						"label": "mapping(bytes32 => struct HealthDataAccess.AccessPermission)",
						"numberOfBytes": "32",
						"value": "t_struct(AccessPermission)36_storage"
					},
					"t_mapping(t_bytes32,t_struct(HealthRecord)21_storage)": {
						"encoding": "mapping",
						"key": "t_bytes32",
						"label": "mapping(bytes32 => struct HealthDataAccess.HealthRecord)",
						"numberOfBytes": "32",
						"value": "t_struct(HealthRecord)21_storage"
					},
					"t_string_storage": {
						"encoding": "bytes",
						"label": "string",
						"numberOfBytes": "32"
					},
					"t_struct(AccessPermission)36_storage": {
						"encoding": "inplace",
						"label": "struct HealthDataAccess.AccessPermission",
						"members": [
							{
								"astId": 23,
								"contract": "HealthDataAccess.sol:HealthDataAccess",
								"label": "requester",
								"offset": 0,
								"slot": "0",
								"type": "t_address"
							},
							{
								"astId": 25,
								"contract": "HealthDataAccess.sol:HealthDataAccess",
								"label": "dataId",
								"offset": 0,
								"slot": "1",
								"type": "t_bytes32"
							},
							{
								"astId": 27,
								"contract": "HealthDataAccess.sol:HealthDataAccess",
								"label": "grantedAt",
								"offset": 0,
								"slot": "2",
								"type": "t_uint256"
							},
							{
								"astId": 29,
								"contract": "HealthDataAccess.sol:HealthDataAccess",
								"label": "expiresAt",
								"offset": 0,
								"slot": "3",
								"type": "t_uint256"
							},
							{
								"astId": 31,
								"contract": "HealthDataAccess.sol:HealthDataAccess",
								"label": "canRead",
								"offset": 0,
								"slot": "4",
								"type": "t_bool"
							},
							{
								"astId": 33,
								"contract": "HealthDataAccess.sol:HealthDataAccess",
								"label": "canWrite",
								"offset": 1,
								"slot": "4",
								"type": "t_bool"
							},
							{
								"astId": 35,
								"contract": "HealthDataAccess.sol:HealthDataAccess",
								"label": "granter",
								"offset": 2,
								"slot": "4",
								"type": "t_address"
							}
						],
						"numberOfBytes": "160"
					},
					"t_struct(HealthRecord)21_storage": {
						"encoding": "inplace",
						"label": "struct HealthDataAccess.HealthRecord",
						"members": [
							{
								"astId": 7,
								"contract": "HealthDataAccess.sol:HealthDataAccess",
								"label": "dataHash",
								"offset": 0,
								"slot": "0",
								"type": "t_bytes32"
							},
							{
								"astId": 9,
								"contract": "HealthDataAccess.sol:HealthDataAccess",
								"label": "encryptedData",
								"offset": 0,
								"slot": "1",
								"type": "t_bytes32"
							},
							{
								"astId": 11,
								"contract": "HealthDataAccess.sol:HealthDataAccess",
								"label": "timestamp",
								"offset": 0,
								"slot": "2",
								"type": "t_uint256"
							},
							{
								"astId": 13,
								"contract": "HealthDataAccess.sol:HealthDataAccess",
								"label": "owner",
								"offset": 0,
								"slot": "3",
								"type": "t_address"
							},
							{
								"astId": 15,
								"contract": "HealthDataAccess.sol:HealthDataAccess",
								"label": "isActive",
								"offset": 20,
								"slot": "3",
								"type": "t_bool"
							},
							{
								"astId": 17,
								"contract": "HealthDataAccess.sol:HealthDataAccess",
								"label": "dataType",
								"offset": 0,
								"slot": "4",
								"type": "t_string_storage"
							},
							{
								"astId": 20,
								"contract": "HealthDataAccess.sol:HealthDataAccess",
								"label": "status",
								"offset": 0,
								"slot": "5",
								"type": "t_enum(DataStatus)5"
							}
						],
						"numberOfBytes": "192"
					},
					"t_uint256": {
						"encoding": "inplace",
						"label": "uint256",
						"numberOfBytes": "32"
					}
				}
			},
			"userdoc": {
				"kind": "user",
				"methods": {},
				"version": 1
			}
		}
	}
}