{
	"SimpleUserFlow.sol": {
		"SimpleUserFlow": {
			"abi": [
				{
					"anonymous": false,
					"inputs": [
						{
							"indexed": true,
							"internalType": "address",
							"name": "user",
							"type": "address"
						},
						{
							"indexed": false,
							"internalType": "string",
							"name": "oldNickname",
							"type": "string"
						},
						{
							"indexed": false,
							"internalType": "string",
							"name": "newNickname",
							"type": "string"
						},
						{
							"indexed": false,
							"internalType": "uint256",
							"name": "timestamp",
							"type": "uint256"
						}
					],
					"name": "NicknameUpdated",
					"type": "event"
				},
				{
					"anonymous": false,
					"inputs": [
						{
							"indexed": true,
							"internalType": "address",
							"name": "user",
							"type": "address"
						},
						{
							"indexed": false,
							"internalType": "string",
							"name": "nickname",
							"type": "string"
						},
						{
							"indexed": false,
							"internalType": "uint256",
							"name": "timestamp",
							"type": "uint256"
						}
					],
					"name": "UserRegistered",
					"type": "event"
				},
				{
					"inputs": [],
					"name": "getMyProfile",
					"outputs": [
						{
							"internalType": "string",
							"name": "nickname",
							"type": "string"
						},
						{
							"internalType": "uint256",
							"name": "createdAt",
							"type": "uint256"
						},
						{
							"internalType": "bool",
							"name": "exists",
							"type": "bool"
						}
					],
					"stateMutability": "view",
					"type": "function"
				},
				{
					"inputs": [
						{
							"internalType": "address",
							"name": "userAddress",
							"type": "address"
						}
					],
					"name": "isRegistered",
					"outputs": [
						{
							"internalType": "bool",
							"name": "",
							"type": "bool"
						}
					],
					"stateMutability": "view",
					"type": "function"
				},
				{
					"inputs": [
						{
							"internalType": "string",
							"name": "nickname",
							"type": "string"
						}
					],
					"name": "register",
					"outputs": [],
					"stateMutability": "nonpayable",
					"type": "function"
				},
				{
					"inputs": [
						{
							"internalType": "string",
							"name": "newNickname",
							"type": "string"
						}
					],
					"name": "updateNickname",
					"outputs": [],
					"stateMutability": "nonpayable",
					"type": "function"
				}
			],
			"devdoc": {
				"details": "最小化用户注册流程示例（学习版） 目的：帮助你快速理解“注册 -> 更新资料 -> 查询”的完整链上调用流程",
				"kind": "dev",
				"methods": {
					"getMyProfile()": {
						"details": "查询自己的资料"
					},
					"isRegistered(address)": {
						"details": "查询任意地址是否已注册（用于演示）"
					},
					"register(string)": {
						"details": "注册 要求：当前地址未注册，昵称非空"
					},
					"updateNickname(string)": {
						"details": "更新昵称"
					}
				},
				"title": "SimpleUserFlow",
				"version": 1
			},
			"evm": {
				"assembly": "    /* \"SimpleUserFlow.sol\":247:2338  contract SimpleUserFlow {... */\n  mstore(0x40, 0x80)\n  callvalue\n  dup1\n  iszero\n  tag_1\n  jumpi\n  0x00\n  dup1\n  revert\ntag_1:\n  pop\n  dataSize(sub_0)\n  dup1\n  dataOffset(sub_0)\n  0x00\n  codecopy\n  0x00\n  return\nstop\n\nsub_0: assembly {\n        /* \"SimpleUserFlow.sol\":247:2338  contract SimpleUserFlow {... */\n      mstore(0x40, 0x80)\n      callvalue\n      dup1\n      iszero\n      tag_1\n      jumpi\n      0x00\n      dup1\n      revert\n    tag_1:\n      pop\n      jumpi(tag_2, lt(calldatasize, 0x04))\n      shr(0xe0, calldataload(0x00))\n      dup1\n      0x21527e50\n      eq\n      tag_3\n      jumpi\n      dup1\n      0xbd2e3b17\n      eq\n      tag_4\n      jumpi\n      dup1\n      0xc3c5a547\n      eq\n      tag_5\n      jumpi\n      dup1\n      0xf2c298be\n      eq\n      tag_6\n      jumpi\n    tag_2:\n      0x00\n      dup1\n      revert\n        /* \"SimpleUserFlow.sol\":1830:2129  function getMyProfile()... */\n    tag_3:\n      tag_7\n      tag_8\n      jump\t// in\n    tag_7:\n      mload(0x40)\n      tag_9\n      swap4\n      swap3\n      swap2\n      swap1\n      tag_10\n      jump\t// in\n    tag_9:\n      mload(0x40)\n      dup1\n      swap2\n      sub\n      swap1\n      return\n        /* \"SimpleUserFlow.sol\":1369:1774  function updateNickname(string memory newNickname) external {... */\n    tag_4:\n      tag_11\n      0x04\n      dup1\n      calldatasize\n      sub\n      dup2\n      add\n      swap1\n      tag_12\n      swap2\n      swap1\n      tag_13\n      jump\t// in\n    tag_12:\n      tag_14\n      jump\t// in\n    tag_11:\n      stop\n        /* \"SimpleUserFlow.sol\":2215:2336  function isRegistered(address userAddress) external view returns (bool) {... */\n    tag_5:\n      tag_15\n      0x04\n      dup1\n      calldatasize\n      sub\n      dup2\n      add\n      swap1\n      tag_16\n      swap2\n      swap1\n      tag_17\n      jump\t// in\n    tag_16:\n      tag_18\n      jump\t// in\n    tag_15:\n      mload(0x40)\n      tag_19\n      swap2\n      swap1\n      tag_20\n      jump\t// in\n    tag_19:\n      mload(0x40)\n      dup1\n      swap2\n      sub\n      swap1\n      return\n        /* \"SimpleUserFlow.sol\":904:1322  function register(string memory nickname) external {... */\n    tag_6:\n      tag_21\n      0x04\n      dup1\n      calldatasize\n      sub\n      dup2\n      add\n      swap1\n      tag_22\n      swap2\n      swap1\n      tag_13\n      jump\t// in\n    tag_22:\n      tag_23\n      jump\t// in\n    tag_21:\n      stop\n        /* \"SimpleUserFlow.sol\":1830:2129  function getMyProfile()... */\n    tag_8:\n        /* \"SimpleUserFlow.sol\":1914:1936  string memory nickname */\n      0x60\n        /* \"SimpleUserFlow.sol\":1950:1967  uint256 createdAt */\n      0x00\n        /* \"SimpleUserFlow.sol\":1981:1992  bool exists */\n      dup1\n        /* \"SimpleUserFlow.sol\":2017:2041  UserProfile storage user */\n      0x00\n        /* \"SimpleUserFlow.sol\":2044:2049  users */\n      dup1\n        /* \"SimpleUserFlow.sol\":2044:2061  users[msg.sender] */\n      0x00\n        /* \"SimpleUserFlow.sol\":2050:2060  msg.sender */\n      caller\n        /* \"SimpleUserFlow.sol\":2044:2061  users[msg.sender] */\n      0xffffffffffffffffffffffffffffffffffffffff\n      and\n      0xffffffffffffffffffffffffffffffffffffffff\n      and\n      dup2\n      mstore\n      0x20\n      add\n      swap1\n      dup2\n      mstore\n      0x20\n      add\n      0x00\n      keccak256\n        /* \"SimpleUserFlow.sol\":2017:2061  UserProfile storage user = users[msg.sender] */\n      swap1\n      pop\n        /* \"SimpleUserFlow.sol\":2079:2083  user */\n      dup1\n        /* \"SimpleUserFlow.sol\":2079:2092  user.nickname */\n      0x00\n      add\n        /* \"SimpleUserFlow.sol\":2094:2098  user */\n      dup2\n        /* \"SimpleUserFlow.sol\":2094:2108  user.createdAt */\n      0x01\n      add\n      sload\n        /* \"SimpleUserFlow.sol\":2110:2114  user */\n      dup3\n        /* \"SimpleUserFlow.sol\":2110:2121  user.exists */\n      0x02\n      add\n      0x00\n      swap1\n      sload\n      swap1\n      0x0100\n      exp\n      swap1\n      div\n      0xff\n      and\n        /* \"SimpleUserFlow.sol\":2071:2122  return (user.nickname, user.createdAt, user.exists) */\n      dup3\n      dup1\n      sload\n      tag_25\n      swap1\n      tag_26\n      jump\t// in\n    tag_25:\n      dup1\n      0x1f\n      add\n      0x20\n      dup1\n      swap2\n      div\n      mul\n      0x20\n      add\n      mload(0x40)\n      swap1\n      dup2\n      add\n      0x40\n      mstore\n      dup1\n      swap3\n      swap2\n      swap1\n      dup2\n      dup2\n      mstore\n      0x20\n      add\n      dup3\n      dup1\n      sload\n      tag_27\n      swap1\n      tag_26\n      jump\t// in\n    tag_27:\n      dup1\n      iszero\n      tag_28\n      jumpi\n      dup1\n      0x1f\n      lt\n      tag_29\n      jumpi\n      0x0100\n      dup1\n      dup4\n      sload\n      div\n      mul\n      dup4\n      mstore\n      swap2\n      0x20\n      add\n      swap2\n      jump(tag_28)\n    tag_29:\n      dup3\n      add\n      swap2\n      swap1\n      0x00\n      mstore\n      keccak256(0x00, 0x20)\n      swap1\n    tag_30:\n      dup2\n      sload\n      dup2\n      mstore\n      swap1\n      0x01\n      add\n      swap1\n      0x20\n      add\n      dup1\n      dup4\n      gt\n      tag_30\n      jumpi\n      dup3\n      swap1\n      sub\n      0x1f\n      and\n      dup3\n      add\n      swap2\n    tag_28:\n      pop\n      pop\n      pop\n      pop\n      pop\n      swap3\n      pop\n      swap4\n      pop\n      swap4\n      pop\n      swap4\n      pop\n      pop\n        /* \"SimpleUserFlow.sol\":1830:2129  function getMyProfile()... */\n      swap1\n      swap2\n      swap3\n      jump\t// out\n        /* \"SimpleUserFlow.sol\":1369:1774  function updateNickname(string memory newNickname) external {... */\n    tag_14:\n        /* \"SimpleUserFlow.sol\":1447:1452  users */\n      0x00\n        /* \"SimpleUserFlow.sol\":1447:1464  users[msg.sender] */\n      dup1\n        /* \"SimpleUserFlow.sol\":1453:1463  msg.sender */\n      caller\n        /* \"SimpleUserFlow.sol\":1447:1464  users[msg.sender] */\n      0xffffffffffffffffffffffffffffffffffffffff\n      and\n      0xffffffffffffffffffffffffffffffffffffffff\n      and\n      dup2\n      mstore\n      0x20\n      add\n      swap1\n      dup2\n      mstore\n      0x20\n      add\n      0x00\n      keccak256\n        /* \"SimpleUserFlow.sol\":1447:1471  users[msg.sender].exists */\n      0x02\n      add\n      0x00\n      swap1\n      sload\n      swap1\n      0x0100\n      exp\n      swap1\n      div\n      0xff\n      and\n        /* \"SimpleUserFlow.sol\":1439:1490  require(users[msg.sender].exists, \"Not registered\") */\n      tag_32\n      jumpi\n      mload(0x40)\n      0x08c379a000000000000000000000000000000000000000000000000000000000\n      dup2\n      mstore\n      0x04\n      add\n      tag_33\n      swap1\n      tag_34\n      jump\t// in\n    tag_33:\n      mload(0x40)\n      dup1\n      swap2\n      sub\n      swap1\n      revert\n    tag_32:\n        /* \"SimpleUserFlow.sol\":1536:1537  0 */\n      0x00\n        /* \"SimpleUserFlow.sol\":1514:1525  newNickname */\n      dup2\n        /* \"SimpleUserFlow.sol\":1508:1533  bytes(newNickname).length */\n      mload\n        /* \"SimpleUserFlow.sol\":1508:1537  bytes(newNickname).length > 0 */\n      gt\n        /* \"SimpleUserFlow.sol\":1500:1566  require(bytes(newNickname).length > 0, \"Nickname cannot be empty\") */\n      tag_35\n      jumpi\n      mload(0x40)\n      0x08c379a000000000000000000000000000000000000000000000000000000000\n      dup2\n      mstore\n      0x04\n      add\n      tag_36\n      swap1\n      tag_37\n      jump\t// in\n    tag_36:\n      mload(0x40)\n      dup1\n      swap2\n      sub\n      swap1\n      revert\n    tag_35:\n        /* \"SimpleUserFlow.sol\":1577:1602  string memory oldNickname */\n      0x00\n        /* \"SimpleUserFlow.sol\":1605:1610  users */\n      dup1\n        /* \"SimpleUserFlow.sol\":1605:1622  users[msg.sender] */\n      0x00\n        /* \"SimpleUserFlow.sol\":1611:1621  msg.sender */\n      caller\n        /* \"SimpleUserFlow.sol\":1605:1622  users[msg.sender] */\n      0xffffffffffffffffffffffffffffffffffffffff\n      and\n      0xffffffffffffffffffffffffffffffffffffffff\n      and\n      dup2\n      mstore\n      0x20\n      add\n      swap1\n      dup2\n      mstore\n      0x20\n      add\n      0x00\n      keccak256\n        /* \"SimpleUserFlow.sol\":1605:1631  users[msg.sender].nickname */\n      0x00\n      add\n        /* \"SimpleUserFlow.sol\":1577:1631  string memory oldNickname = users[msg.sender].nickname */\n      dup1\n      sload\n      tag_38\n      swap1\n      tag_26\n      jump\t// in\n    tag_38:\n      dup1\n      0x1f\n      add\n      0x20\n      dup1\n      swap2\n      div\n      mul\n      0x20\n      add\n      mload(0x40)\n      swap1\n      dup2\n      add\n      0x40\n      mstore\n      dup1\n      swap3\n      swap2\n      swap1\n      dup2\n      dup2\n      mstore\n      0x20\n      add\n      dup3\n      dup1\n      sload\n      tag_39\n      swap1\n      tag_26\n      jump\t// in\n    tag_39:\n      dup1\n      iszero\n      tag_40\n      jumpi\n      dup1\n      0x1f\n      lt\n      tag_41\n      jumpi\n      0x0100\n      dup1\n      dup4\n      sload\n      div\n      mul\n      dup4\n      mstore\n      swap2\n      0x20\n      add\n      swap2\n      jump(tag_40)\n    tag_41:\n      dup3\n      add\n      swap2\n      swap1\n      0x00\n      mstore\n      keccak256(0x00, 0x20)\n      swap1\n    tag_42:\n      dup2\n      sload\n      dup2\n      mstore\n      swap1\n      0x01\n      add\n      swap1\n      0x20\n      add\n      dup1\n      dup4\n      gt\n      tag_42\n      jumpi\n      dup3\n      swap1\n      sub\n      0x1f\n      and\n      dup3\n      add\n      swap2\n    tag_40:\n      pop\n      pop\n      pop\n      pop\n      pop\n      swap1\n      pop\n        /* \"SimpleUserFlow.sol\":1670:1681  newNickname */\n      dup2\n        /* \"SimpleUserFlow.sol\":1641:1646  users */\n      0x00\n        /* \"SimpleUserFlow.sol\":1641:1658  users[msg.sender] */\n      dup1\n        /* \"SimpleUserFlow.sol\":1647:1657  msg.sender */\n      caller\n        /* \"SimpleUserFlow.sol\":1641:1658  users[msg.sender] */\n      0xffffffffffffffffffffffffffffffffffffffff\n      and\n      0xffffffffffffffffffffffffffffffffffffffff\n      and\n      dup2\n      mstore\n      0x20\n      add\n      swap1\n      dup2\n      mstore\n      0x20\n      add\n      0x00\n      keccak256\n        /* \"SimpleUserFlow.sol\":1641:1667  users[msg.sender].nickname */\n      0x00\n      add\n        /* \"SimpleUserFlow.sol\":1641:1681  users[msg.sender].nickname = newNickname */\n      swap1\n      dup2\n      tag_43\n      swap2\n      swap1\n      tag_44\n      jump\t// in\n    tag_43:\n      pop\n        /* \"SimpleUserFlow.sol\":1713:1723  msg.sender */\n      caller\n        /* \"SimpleUserFlow.sol\":1697:1767  NicknameUpdated(msg.sender, oldNickname, newNickname, block.timestamp) */\n      0xffffffffffffffffffffffffffffffffffffffff\n      and\n      0x6f1b9466fa0c89f0ed7c7e08de95274883c61b68531abc2ec360f3bacda002c0\n        /* \"SimpleUserFlow.sol\":1725:1736  oldNickname */\n      dup3\n        /* \"SimpleUserFlow.sol\":1738:1749  newNickname */\n      dup5\n        /* \"SimpleUserFlow.sol\":1751:1766  block.timestamp */\n      timestamp\n        /* \"SimpleUserFlow.sol\":1697:1767  NicknameUpdated(msg.sender, oldNickname, newNickname, block.timestamp) */\n      mload(0x40)\n      tag_45\n      swap4\n      swap3\n      swap2\n      swap1\n      tag_46\n      jump\t// in\n    tag_45:\n      mload(0x40)\n      dup1\n      swap2\n      sub\n      swap1\n      log2\n        /* \"SimpleUserFlow.sol\":1429:1774  {... */\n      pop\n        /* \"SimpleUserFlow.sol\":1369:1774  function updateNickname(string memory newNickname) external {... */\n      pop\n      jump\t// out\n        /* \"SimpleUserFlow.sol\":2215:2336  function isRegistered(address userAddress) external view returns (bool) {... */\n    tag_18:\n        /* \"SimpleUserFlow.sol\":2281:2285  bool */\n      0x00\n        /* \"SimpleUserFlow.sol\":2304:2309  users */\n      dup1\n        /* \"SimpleUserFlow.sol\":2304:2322  users[userAddress] */\n      0x00\n        /* \"SimpleUserFlow.sol\":2310:2321  userAddress */\n      dup4\n        /* \"SimpleUserFlow.sol\":2304:2322  users[userAddress] */\n      0xffffffffffffffffffffffffffffffffffffffff\n      and\n      0xffffffffffffffffffffffffffffffffffffffff\n      and\n      dup2\n      mstore\n      0x20\n      add\n      swap1\n      dup2\n      mstore\n      0x20\n      add\n      0x00\n      keccak256\n        /* \"SimpleUserFlow.sol\":2304:2329  users[userAddress].exists */\n      0x02\n      add\n      0x00\n      swap1\n      sload\n      swap1\n      0x0100\n      exp\n      swap1\n      div\n      0xff\n      and\n        /* \"SimpleUserFlow.sol\":2297:2329  return users[userAddress].exists */\n      swap1\n      pop\n        /* \"SimpleUserFlow.sol\":2215:2336  function isRegistered(address userAddress) external view returns (bool) {... */\n      swap2\n      swap1\n      pop\n      jump\t// out\n        /* \"SimpleUserFlow.sol\":904:1322  function register(string memory nickname) external {... */\n    tag_23:\n        /* \"SimpleUserFlow.sol\":974:979  users */\n      0x00\n        /* \"SimpleUserFlow.sol\":974:991  users[msg.sender] */\n      dup1\n        /* \"SimpleUserFlow.sol\":980:990  msg.sender */\n      caller\n        /* \"SimpleUserFlow.sol\":974:991  users[msg.sender] */\n      0xffffffffffffffffffffffffffffffffffffffff\n      and\n      0xffffffffffffffffffffffffffffffffffffffff\n      and\n      dup2\n      mstore\n      0x20\n      add\n      swap1\n      dup2\n      mstore\n      0x20\n      add\n      0x00\n      keccak256\n        /* \"SimpleUserFlow.sol\":974:998  users[msg.sender].exists */\n      0x02\n      add\n      0x00\n      swap1\n      sload\n      swap1\n      0x0100\n      exp\n      swap1\n      div\n      0xff\n      and\n        /* \"SimpleUserFlow.sol\":973:998  !users[msg.sender].exists */\n      iszero\n        /* \"SimpleUserFlow.sol\":965:1021  require(!users[msg.sender].exists, \"Already registered\") */\n      tag_49\n      jumpi\n      mload(0x40)\n      0x08c379a000000000000000000000000000000000000000000000000000000000\n      dup2\n      mstore\n      0x04\n      add\n      tag_50\n      swap1\n      tag_51\n      jump\t// in\n    tag_50:\n      mload(0x40)\n      dup1\n      swap2\n      sub\n      swap1\n      revert\n    tag_49:\n        /* \"SimpleUserFlow.sol\":1064:1065  0 */\n      0x00\n        /* \"SimpleUserFlow.sol\":1045:1053  nickname */\n      dup2\n        /* \"SimpleUserFlow.sol\":1039:1061  bytes(nickname).length */\n      mload\n        /* \"SimpleUserFlow.sol\":1039:1065  bytes(nickname).length > 0 */\n      gt\n        /* \"SimpleUserFlow.sol\":1031:1094  require(bytes(nickname).length > 0, \"Nickname cannot be empty\") */\n      tag_52\n      jumpi\n      mload(0x40)\n      0x08c379a000000000000000000000000000000000000000000000000000000000\n      dup2\n      mstore\n      0x04\n      add\n      tag_53\n      swap1\n      tag_37\n      jump\t// in\n    tag_53:\n      mload(0x40)\n      dup1\n      swap2\n      sub\n      swap1\n      revert\n    tag_52:\n        /* \"SimpleUserFlow.sol\":1125:1246  UserProfile({... */\n      mload(0x40)\n      dup1\n      0x60\n      add\n      0x40\n      mstore\n      dup1\n        /* \"SimpleUserFlow.sol\":1161:1169  nickname */\n      dup3\n        /* \"SimpleUserFlow.sol\":1125:1246  UserProfile({... */\n      dup2\n      mstore\n      0x20\n      add\n        /* \"SimpleUserFlow.sol\":1194:1209  block.timestamp */\n      timestamp\n        /* \"SimpleUserFlow.sol\":1125:1246  UserProfile({... */\n      dup2\n      mstore\n      0x20\n      add\n        /* \"SimpleUserFlow.sol\":1231:1235  true */\n      0x01\n        /* \"SimpleUserFlow.sol\":1125:1246  UserProfile({... */\n      iszero\n      iszero\n      dup2\n      mstore\n      pop\n        /* \"SimpleUserFlow.sol\":1105:1110  users */\n      0x00\n        /* \"SimpleUserFlow.sol\":1105:1122  users[msg.sender] */\n      dup1\n        /* \"SimpleUserFlow.sol\":1111:1121  msg.sender */\n      caller\n        /* \"SimpleUserFlow.sol\":1105:1122  users[msg.sender] */\n      0xffffffffffffffffffffffffffffffffffffffff\n      and\n      0xffffffffffffffffffffffffffffffffffffffff\n      and\n      dup2\n      mstore\n      0x20\n      add\n      swap1\n      dup2\n      mstore\n      0x20\n      add\n      0x00\n      keccak256\n        /* \"SimpleUserFlow.sol\":1105:1246  users[msg.sender] = UserProfile({... */\n      0x00\n      dup3\n      add\n      mload\n      dup2\n      0x00\n      add\n      swap1\n      dup2\n      tag_54\n      swap2\n      swap1\n      tag_44\n      jump\t// in\n    tag_54:\n      pop\n      0x20\n      dup3\n      add\n      mload\n      dup2\n      0x01\n      add\n      sstore\n      0x40\n      dup3\n      add\n      mload\n      dup2\n      0x02\n      add\n      exp(0x0100, 0x00)\n      dup2\n      sload\n      dup2\n      0xff\n      mul\n      not\n      and\n      swap1\n      dup4\n      iszero\n      iszero\n      mul\n      or\n      swap1\n      sstore\n      pop\n      swap1\n      pop\n      pop\n        /* \"SimpleUserFlow.sol\":1277:1287  msg.sender */\n      caller\n        /* \"SimpleUserFlow.sol\":1262:1315  UserRegistered(msg.sender, nickname, block.timestamp) */\n      0xffffffffffffffffffffffffffffffffffffffff\n      and\n      0x89105a1c6a3c2fbd471255c66a31ccab604af5697f67d7e2e9a0028c5e4dbd91\n        /* \"SimpleUserFlow.sol\":1289:1297  nickname */\n      dup3\n        /* \"SimpleUserFlow.sol\":1299:1314  block.timestamp */\n      timestamp\n        /* \"SimpleUserFlow.sol\":1262:1315  UserRegistered(msg.sender, nickname, block.timestamp) */\n      mload(0x40)\n      tag_55\n      swap3\n      swap2\n      swap1\n      tag_56\n      jump\t// in\n    tag_55:\n      mload(0x40)\n      dup1\n      swap2\n      sub\n      swap1\n      log2\n        /* \"SimpleUserFlow.sol\":904:1322  function register(string memory nickname) external {... */\n      pop\n      jump\t// out\n        /* \"#utility.yul\":7:106   */\n    tag_57:\n        /* \"#utility.yul\":59:65   */\n      0x00\n        /* \"#utility.yul\":93:98   */\n      dup2\n        /* \"#utility.yul\":87:99   */\n      mload\n        /* \"#utility.yul\":77:99   */\n      swap1\n      pop\n        /* \"#utility.yul\":7:106   */\n      swap2\n      swap1\n      pop\n      jump\t// out\n        /* \"#utility.yul\":112:281   */\n    tag_58:\n        /* \"#utility.yul\":196:207   */\n      0x00\n        /* \"#utility.yul\":230:236   */\n      dup3\n        /* \"#utility.yul\":225:228   */\n      dup3\n        /* \"#utility.yul\":218:237   */\n      mstore\n        /* \"#utility.yul\":270:274   */\n      0x20\n        /* \"#utility.yul\":265:268   */\n      dup3\n        /* \"#utility.yul\":261:275   */\n      add\n        /* \"#utility.yul\":246:275   */\n      swap1\n      pop\n        /* \"#utility.yul\":112:281   */\n      swap3\n      swap2\n      pop\n      pop\n      jump\t// out\n        /* \"#utility.yul\":287:533   */\n    tag_59:\n        /* \"#utility.yul\":368:369   */\n      0x00\n        /* \"#utility.yul\":378:491   */\n    tag_108:\n        /* \"#utility.yul\":392:398   */\n      dup4\n        /* \"#utility.yul\":389:390   */\n      dup2\n        /* \"#utility.yul\":386:399   */\n      lt\n        /* \"#utility.yul\":378:491   */\n      iszero\n      tag_110\n      jumpi\n        /* \"#utility.yul\":477:478   */\n      dup1\n        /* \"#utility.yul\":472:475   */\n      dup3\n        /* \"#utility.yul\":468:479   */\n      add\n        /* \"#utility.yul\":462:480   */\n      mload\n        /* \"#utility.yul\":458:459   */\n      dup2\n        /* \"#utility.yul\":453:456   */\n      dup5\n        /* \"#utility.yul\":449:460   */\n      add\n        /* \"#utility.yul\":442:481   */\n      mstore\n        /* \"#utility.yul\":414:416   */\n      0x20\n        /* \"#utility.yul\":411:412   */\n      dup2\n        /* \"#utility.yul\":407:417   */\n      add\n        /* \"#utility.yul\":402:417   */\n      swap1\n      pop\n        /* \"#utility.yul\":378:491   */\n      jump(tag_108)\n    tag_110:\n        /* \"#utility.yul\":525:526   */\n      0x00\n        /* \"#utility.yul\":516:522   */\n      dup5\n        /* \"#utility.yul\":511:514   */\n      dup5\n        /* \"#utility.yul\":507:523   */\n      add\n        /* \"#utility.yul\":500:527   */\n      mstore\n        /* \"#utility.yul\":349:533   */\n      pop\n        /* \"#utility.yul\":287:533   */\n      pop\n      pop\n      pop\n      jump\t// out\n        /* \"#utility.yul\":539:641   */\n    tag_60:\n        /* \"#utility.yul\":580:586   */\n      0x00\n        /* \"#utility.yul\":631:633   */\n      0x1f\n        /* \"#utility.yul\":627:634   */\n      not\n        /* \"#utility.yul\":622:624   */\n      0x1f\n        /* \"#utility.yul\":615:620   */\n      dup4\n        /* \"#utility.yul\":611:625   */\n      add\n        /* \"#utility.yul\":607:635   */\n      and\n        /* \"#utility.yul\":597:635   */\n      swap1\n      pop\n        /* \"#utility.yul\":539:641   */\n      swap2\n      swap1\n      pop\n      jump\t// out\n        /* \"#utility.yul\":647:1024   */\n    tag_61:\n        /* \"#utility.yul\":735:738   */\n      0x00\n        /* \"#utility.yul\":763:802   */\n      tag_113\n        /* \"#utility.yul\":796:801   */\n      dup3\n        /* \"#utility.yul\":763:802   */\n      tag_57\n      jump\t// in\n    tag_113:\n        /* \"#utility.yul\":818:889   */\n      tag_114\n        /* \"#utility.yul\":882:888   */\n      dup2\n        /* \"#utility.yul\":877:880   */\n      dup6\n        /* \"#utility.yul\":818:889   */\n      tag_58\n      jump\t// in\n    tag_114:\n        /* \"#utility.yul\":811:889   */\n      swap4\n      pop\n        /* \"#utility.yul\":898:963   */\n      tag_115\n        /* \"#utility.yul\":956:962   */\n      dup2\n        /* \"#utility.yul\":951:954   */\n      dup6\n        /* \"#utility.yul\":944:948   */\n      0x20\n        /* \"#utility.yul\":937:942   */\n      dup7\n        /* \"#utility.yul\":933:949   */\n      add\n        /* \"#utility.yul\":898:963   */\n      tag_59\n      jump\t// in\n    tag_115:\n        /* \"#utility.yul\":988:1017   */\n      tag_116\n        /* \"#utility.yul\":1010:1016   */\n      dup2\n        /* \"#utility.yul\":988:1017   */\n      tag_60\n      jump\t// in\n    tag_116:\n        /* \"#utility.yul\":983:986   */\n      dup5\n        /* \"#utility.yul\":979:1018   */\n      add\n        /* \"#utility.yul\":972:1018   */\n      swap2\n      pop\n        /* \"#utility.yul\":739:1024   */\n      pop\n        /* \"#utility.yul\":647:1024   */\n      swap3\n      swap2\n      pop\n      pop\n      jump\t// out\n        /* \"#utility.yul\":1030:1107   */\n    tag_62:\n        /* \"#utility.yul\":1067:1074   */\n      0x00\n        /* \"#utility.yul\":1096:1101   */\n      dup2\n        /* \"#utility.yul\":1085:1101   */\n      swap1\n      pop\n        /* \"#utility.yul\":1030:1107   */\n      swap2\n      swap1\n      pop\n      jump\t// out\n        /* \"#utility.yul\":1113:1231   */\n    tag_63:\n        /* \"#utility.yul\":1200:1224   */\n      tag_119\n        /* \"#utility.yul\":1218:1223   */\n      dup2\n        /* \"#utility.yul\":1200:1224   */\n      tag_62\n      jump\t// in\n    tag_119:\n        /* \"#utility.yul\":1195:1198   */\n      dup3\n        /* \"#utility.yul\":1188:1225   */\n      mstore\n        /* \"#utility.yul\":1113:1231   */\n      pop\n      pop\n      jump\t// out\n        /* \"#utility.yul\":1237:1327   */\n    tag_64:\n        /* \"#utility.yul\":1271:1278   */\n      0x00\n        /* \"#utility.yul\":1314:1319   */\n      dup2\n        /* \"#utility.yul\":1307:1320   */\n      iszero\n        /* \"#utility.yul\":1300:1321   */\n      iszero\n        /* \"#utility.yul\":1289:1321   */\n      swap1\n      pop\n        /* \"#utility.yul\":1237:1327   */\n      swap2\n      swap1\n      pop\n      jump\t// out\n        /* \"#utility.yul\":1333:1442   */\n    tag_65:\n        /* \"#utility.yul\":1414:1435   */\n      tag_122\n        /* \"#utility.yul\":1429:1434   */\n      dup2\n        /* \"#utility.yul\":1414:1435   */\n      tag_64\n      jump\t// in\n    tag_122:\n        /* \"#utility.yul\":1409:1412   */\n      dup3\n        /* \"#utility.yul\":1402:1436   */\n      mstore\n        /* \"#utility.yul\":1333:1442   */\n      pop\n      pop\n      jump\t// out\n        /* \"#utility.yul\":1448:1969   */\n    tag_10:\n        /* \"#utility.yul\":1611:1615   */\n      0x00\n        /* \"#utility.yul\":1649:1651   */\n      0x60\n        /* \"#utility.yul\":1638:1647   */\n      dup3\n        /* \"#utility.yul\":1634:1652   */\n      add\n        /* \"#utility.yul\":1626:1652   */\n      swap1\n      pop\n        /* \"#utility.yul\":1698:1707   */\n      dup2\n        /* \"#utility.yul\":1692:1696   */\n      dup2\n        /* \"#utility.yul\":1688:1708   */\n      sub\n        /* \"#utility.yul\":1684:1685   */\n      0x00\n        /* \"#utility.yul\":1673:1682   */\n      dup4\n        /* \"#utility.yul\":1669:1686   */\n      add\n        /* \"#utility.yul\":1662:1709   */\n      mstore\n        /* \"#utility.yul\":1726:1804   */\n      tag_124\n        /* \"#utility.yul\":1799:1803   */\n      dup2\n        /* \"#utility.yul\":1790:1796   */\n      dup7\n        /* \"#utility.yul\":1726:1804   */\n      tag_61\n      jump\t// in\n    tag_124:\n        /* \"#utility.yul\":1718:1804   */\n      swap1\n      pop\n        /* \"#utility.yul\":1814:1886   */\n      tag_125\n        /* \"#utility.yul\":1882:1884   */\n      0x20\n        /* \"#utility.yul\":1871:1880   */\n      dup4\n        /* \"#utility.yul\":1867:1885   */\n      add\n        /* \"#utility.yul\":1858:1864   */\n      dup6\n        /* \"#utility.yul\":1814:1886   */\n      tag_63\n      jump\t// in\n    tag_125:\n        /* \"#utility.yul\":1896:1962   */\n      tag_126\n        /* \"#utility.yul\":1958:1960   */\n      0x40\n        /* \"#utility.yul\":1947:1956   */\n      dup4\n        /* \"#utility.yul\":1943:1961   */\n      add\n        /* \"#utility.yul\":1934:1940   */\n      dup5\n        /* \"#utility.yul\":1896:1962   */\n      tag_65\n      jump\t// in\n    tag_126:\n        /* \"#utility.yul\":1448:1969   */\n      swap5\n      swap4\n      pop\n      pop\n      pop\n      pop\n      jump\t// out\n        /* \"#utility.yul\":1975:2050   */\n    tag_66:\n        /* \"#utility.yul\":2008:2014   */\n      0x00\n        /* \"#utility.yul\":2041:2043   */\n      0x40\n        /* \"#utility.yul\":2035:2044   */\n      mload\n        /* \"#utility.yul\":2025:2044   */\n      swap1\n      pop\n        /* \"#utility.yul\":1975:2050   */\n      swap1\n      jump\t// out\n        /* \"#utility.yul\":2056:2173   */\n    tag_67:\n        /* \"#utility.yul\":2165:2166   */\n      0x00\n        /* \"#utility.yul\":2162:2163   */\n      dup1\n        /* \"#utility.yul\":2155:2167   */\n      revert\n        /* \"#utility.yul\":2179:2296   */\n    tag_68:\n        /* \"#utility.yul\":2288:2289   */\n      0x00\n        /* \"#utility.yul\":2285:2286   */\n      dup1\n        /* \"#utility.yul\":2278:2290   */\n      revert\n        /* \"#utility.yul\":2302:2419   */\n    tag_69:\n        /* \"#utility.yul\":2411:2412   */\n      0x00\n        /* \"#utility.yul\":2408:2409   */\n      dup1\n        /* \"#utility.yul\":2401:2413   */\n      revert\n        /* \"#utility.yul\":2425:2542   */\n    tag_70:\n        /* \"#utility.yul\":2534:2535   */\n      0x00\n        /* \"#utility.yul\":2531:2532   */\n      dup1\n        /* \"#utility.yul\":2524:2536   */\n      revert\n        /* \"#utility.yul\":2548:2728   */\n    tag_71:\n        /* \"#utility.yul\":2596:2673   */\n      0x4e487b7100000000000000000000000000000000000000000000000000000000\n        /* \"#utility.yul\":2593:2594   */\n      0x00\n        /* \"#utility.yul\":2586:2674   */\n      mstore\n        /* \"#utility.yul\":2693:2697   */\n      0x41\n        /* \"#utility.yul\":2690:2691   */\n      0x04\n        /* \"#utility.yul\":2683:2698   */\n      mstore\n        /* \"#utility.yul\":2717:2721   */\n      0x24\n        /* \"#utility.yul\":2714:2715   */\n      0x00\n        /* \"#utility.yul\":2707:2722   */\n      revert\n        /* \"#utility.yul\":2734:3015   */\n    tag_72:\n        /* \"#utility.yul\":2817:2844   */\n      tag_134\n        /* \"#utility.yul\":2839:2843   */\n      dup3\n        /* \"#utility.yul\":2817:2844   */\n      tag_60\n      jump\t// in\n    tag_134:\n        /* \"#utility.yul\":2809:2815   */\n      dup2\n        /* \"#utility.yul\":2805:2845   */\n      add\n        /* \"#utility.yul\":2947:2953   */\n      dup2\n        /* \"#utility.yul\":2935:2945   */\n      dup2\n        /* \"#utility.yul\":2932:2954   */\n      lt\n        /* \"#utility.yul\":2911:2929   */\n      0xffffffffffffffff\n        /* \"#utility.yul\":2899:2909   */\n      dup3\n        /* \"#utility.yul\":2896:2930   */\n      gt\n        /* \"#utility.yul\":2893:2955   */\n      or\n        /* \"#utility.yul\":2890:2978   */\n      iszero\n      tag_135\n      jumpi\n        /* \"#utility.yul\":2958:2976   */\n      tag_136\n      tag_71\n      jump\t// in\n    tag_136:\n        /* \"#utility.yul\":2890:2978   */\n    tag_135:\n        /* \"#utility.yul\":2998:3008   */\n      dup1\n        /* \"#utility.yul\":2994:2996   */\n      0x40\n        /* \"#utility.yul\":2987:3009   */\n      mstore\n        /* \"#utility.yul\":2777:3015   */\n      pop\n        /* \"#utility.yul\":2734:3015   */\n      pop\n      pop\n      jump\t// out\n        /* \"#utility.yul\":3021:3150   */\n    tag_73:\n        /* \"#utility.yul\":3055:3061   */\n      0x00\n        /* \"#utility.yul\":3082:3102   */\n      tag_138\n      tag_66\n      jump\t// in\n    tag_138:\n        /* \"#utility.yul\":3072:3102   */\n      swap1\n      pop\n        /* \"#utility.yul\":3111:3144   */\n      tag_139\n        /* \"#utility.yul\":3139:3143   */\n      dup3\n        /* \"#utility.yul\":3131:3137   */\n      dup3\n        /* \"#utility.yul\":3111:3144   */\n      tag_72\n      jump\t// in\n    tag_139:\n        /* \"#utility.yul\":3021:3150   */\n      swap2\n      swap1\n      pop\n      jump\t// out\n        /* \"#utility.yul\":3156:3464   */\n    tag_74:\n        /* \"#utility.yul\":3218:3222   */\n      0x00\n        /* \"#utility.yul\":3308:3326   */\n      0xffffffffffffffff\n        /* \"#utility.yul\":3300:3306   */\n      dup3\n        /* \"#utility.yul\":3297:3327   */\n      gt\n        /* \"#utility.yul\":3294:3350   */\n      iszero\n      tag_141\n      jumpi\n        /* \"#utility.yul\":3330:3348   */\n      tag_142\n      tag_71\n      jump\t// in\n    tag_142:\n        /* \"#utility.yul\":3294:3350   */\n    tag_141:\n        /* \"#utility.yul\":3368:3397   */\n      tag_143\n        /* \"#utility.yul\":3390:3396   */\n      dup3\n        /* \"#utility.yul\":3368:3397   */\n      tag_60\n      jump\t// in\n    tag_143:\n        /* \"#utility.yul\":3360:3397   */\n      swap1\n      pop\n        /* \"#utility.yul\":3452:3456   */\n      0x20\n        /* \"#utility.yul\":3446:3450   */\n      dup2\n        /* \"#utility.yul\":3442:3457   */\n      add\n        /* \"#utility.yul\":3434:3457   */\n      swap1\n      pop\n        /* \"#utility.yul\":3156:3464   */\n      swap2\n      swap1\n      pop\n      jump\t// out\n        /* \"#utility.yul\":3470:3616   */\n    tag_75:\n        /* \"#utility.yul\":3567:3573   */\n      dup3\n        /* \"#utility.yul\":3562:3565   */\n      dup2\n        /* \"#utility.yul\":3557:3560   */\n      dup4\n        /* \"#utility.yul\":3544:3574   */\n      calldatacopy\n        /* \"#utility.yul\":3608:3609   */\n      0x00\n        /* \"#utility.yul\":3599:3605   */\n      dup4\n        /* \"#utility.yul\":3594:3597   */\n      dup4\n        /* \"#utility.yul\":3590:3606   */\n      add\n        /* \"#utility.yul\":3583:3610   */\n      mstore\n        /* \"#utility.yul\":3470:3616   */\n      pop\n      pop\n      pop\n      jump\t// out\n        /* \"#utility.yul\":3622:4047   */\n    tag_76:\n        /* \"#utility.yul\":3700:3705   */\n      0x00\n        /* \"#utility.yul\":3725:3791   */\n      tag_146\n        /* \"#utility.yul\":3741:3790   */\n      tag_147\n        /* \"#utility.yul\":3783:3789   */\n      dup5\n        /* \"#utility.yul\":3741:3790   */\n      tag_74\n      jump\t// in\n    tag_147:\n        /* \"#utility.yul\":3725:3791   */\n      tag_73\n      jump\t// in\n    tag_146:\n        /* \"#utility.yul\":3716:3791   */\n      swap1\n      pop\n        /* \"#utility.yul\":3814:3820   */\n      dup3\n        /* \"#utility.yul\":3807:3812   */\n      dup2\n        /* \"#utility.yul\":3800:3821   */\n      mstore\n        /* \"#utility.yul\":3852:3856   */\n      0x20\n        /* \"#utility.yul\":3845:3850   */\n      dup2\n        /* \"#utility.yul\":3841:3857   */\n      add\n        /* \"#utility.yul\":3890:3893   */\n      dup5\n        /* \"#utility.yul\":3881:3887   */\n      dup5\n        /* \"#utility.yul\":3876:3879   */\n      dup5\n        /* \"#utility.yul\":3872:3888   */\n      add\n        /* \"#utility.yul\":3869:3894   */\n      gt\n        /* \"#utility.yul\":3866:3978   */\n      iszero\n      tag_148\n      jumpi\n        /* \"#utility.yul\":3897:3976   */\n      tag_149\n      tag_70\n      jump\t// in\n    tag_149:\n        /* \"#utility.yul\":3866:3978   */\n    tag_148:\n        /* \"#utility.yul\":3987:4041   */\n      tag_150\n        /* \"#utility.yul\":4034:4040   */\n      dup5\n        /* \"#utility.yul\":4029:4032   */\n      dup3\n        /* \"#utility.yul\":4024:4027   */\n      dup6\n        /* \"#utility.yul\":3987:4041   */\n      tag_75\n      jump\t// in\n    tag_150:\n        /* \"#utility.yul\":3706:4047   */\n      pop\n        /* \"#utility.yul\":3622:4047   */\n      swap4\n      swap3\n      pop\n      pop\n      pop\n      jump\t// out\n        /* \"#utility.yul\":4067:4407   */\n    tag_77:\n        /* \"#utility.yul\":4123:4128   */\n      0x00\n        /* \"#utility.yul\":4172:4175   */\n      dup3\n        /* \"#utility.yul\":4165:4169   */\n      0x1f\n        /* \"#utility.yul\":4157:4163   */\n      dup4\n        /* \"#utility.yul\":4153:4170   */\n      add\n        /* \"#utility.yul\":4149:4176   */\n      slt\n        /* \"#utility.yul\":4139:4261   */\n      tag_152\n      jumpi\n        /* \"#utility.yul\":4180:4259   */\n      tag_153\n      tag_69\n      jump\t// in\n    tag_153:\n        /* \"#utility.yul\":4139:4261   */\n    tag_152:\n        /* \"#utility.yul\":4297:4303   */\n      dup2\n        /* \"#utility.yul\":4284:4304   */\n      calldataload\n        /* \"#utility.yul\":4322:4401   */\n      tag_154\n        /* \"#utility.yul\":4397:4400   */\n      dup5\n        /* \"#utility.yul\":4389:4395   */\n      dup3\n        /* \"#utility.yul\":4382:4386   */\n      0x20\n        /* \"#utility.yul\":4374:4380   */\n      dup7\n        /* \"#utility.yul\":4370:4387   */\n      add\n        /* \"#utility.yul\":4322:4401   */\n      tag_76\n      jump\t// in\n    tag_154:\n        /* \"#utility.yul\":4313:4401   */\n      swap2\n      pop\n        /* \"#utility.yul\":4129:4407   */\n      pop\n        /* \"#utility.yul\":4067:4407   */\n      swap3\n      swap2\n      pop\n      pop\n      jump\t// out\n        /* \"#utility.yul\":4413:4922   */\n    tag_13:\n        /* \"#utility.yul\":4482:4488   */\n      0x00\n        /* \"#utility.yul\":4531:4533   */\n      0x20\n        /* \"#utility.yul\":4519:4528   */\n      dup3\n        /* \"#utility.yul\":4510:4517   */\n      dup5\n        /* \"#utility.yul\":4506:4529   */\n      sub\n        /* \"#utility.yul\":4502:4534   */\n      slt\n        /* \"#utility.yul\":4499:4618   */\n      iszero\n      tag_156\n      jumpi\n        /* \"#utility.yul\":4537:4616   */\n      tag_157\n      tag_67\n      jump\t// in\n    tag_157:\n        /* \"#utility.yul\":4499:4618   */\n    tag_156:\n        /* \"#utility.yul\":4685:4686   */\n      0x00\n        /* \"#utility.yul\":4674:4683   */\n      dup3\n        /* \"#utility.yul\":4670:4687   */\n      add\n        /* \"#utility.yul\":4657:4688   */\n      calldataload\n        /* \"#utility.yul\":4715:4733   */\n      0xffffffffffffffff\n        /* \"#utility.yul\":4707:4713   */\n      dup2\n        /* \"#utility.yul\":4704:4734   */\n      gt\n        /* \"#utility.yul\":4701:4818   */\n      iszero\n      tag_158\n      jumpi\n        /* \"#utility.yul\":4737:4816   */\n      tag_159\n      tag_68\n      jump\t// in\n    tag_159:\n        /* \"#utility.yul\":4701:4818   */\n    tag_158:\n        /* \"#utility.yul\":4842:4905   */\n      tag_160\n        /* \"#utility.yul\":4897:4904   */\n      dup5\n        /* \"#utility.yul\":4888:4894   */\n      dup3\n        /* \"#utility.yul\":4877:4886   */\n      dup6\n        /* \"#utility.yul\":4873:4895   */\n      add\n        /* \"#utility.yul\":4842:4905   */\n      tag_77\n      jump\t// in\n    tag_160:\n        /* \"#utility.yul\":4832:4905   */\n      swap2\n      pop\n        /* \"#utility.yul\":4628:4915   */\n      pop\n        /* \"#utility.yul\":4413:4922   */\n      swap3\n      swap2\n      pop\n      pop\n      jump\t// out\n        /* \"#utility.yul\":4928:5054   */\n    tag_78:\n        /* \"#utility.yul\":4965:4972   */\n      0x00\n        /* \"#utility.yul\":5005:5047   */\n      0xffffffffffffffffffffffffffffffffffffffff\n        /* \"#utility.yul\":4998:5003   */\n      dup3\n        /* \"#utility.yul\":4994:5048   */\n      and\n        /* \"#utility.yul\":4983:5048   */\n      swap1\n      pop\n        /* \"#utility.yul\":4928:5054   */\n      swap2\n      swap1\n      pop\n      jump\t// out\n        /* \"#utility.yul\":5060:5156   */\n    tag_79:\n        /* \"#utility.yul\":5097:5104   */\n      0x00\n        /* \"#utility.yul\":5126:5150   */\n      tag_163\n        /* \"#utility.yul\":5144:5149   */\n      dup3\n        /* \"#utility.yul\":5126:5150   */\n      tag_78\n      jump\t// in\n    tag_163:\n        /* \"#utility.yul\":5115:5150   */\n      swap1\n      pop\n        /* \"#utility.yul\":5060:5156   */\n      swap2\n      swap1\n      pop\n      jump\t// out\n        /* \"#utility.yul\":5162:5284   */\n    tag_80:\n        /* \"#utility.yul\":5235:5259   */\n      tag_165\n        /* \"#utility.yul\":5253:5258   */\n      dup2\n        /* \"#utility.yul\":5235:5259   */\n      tag_79\n      jump\t// in\n    tag_165:\n        /* \"#utility.yul\":5228:5233   */\n      dup2\n        /* \"#utility.yul\":5225:5260   */\n      eq\n        /* \"#utility.yul\":5215:5278   */\n      tag_166\n      jumpi\n        /* \"#utility.yul\":5274:5275   */\n      0x00\n        /* \"#utility.yul\":5271:5272   */\n      dup1\n        /* \"#utility.yul\":5264:5276   */\n      revert\n        /* \"#utility.yul\":5215:5278   */\n    tag_166:\n        /* \"#utility.yul\":5162:5284   */\n      pop\n      jump\t// out\n        /* \"#utility.yul\":5290:5429   */\n    tag_81:\n        /* \"#utility.yul\":5336:5341   */\n      0x00\n        /* \"#utility.yul\":5374:5380   */\n      dup2\n        /* \"#utility.yul\":5361:5381   */\n      calldataload\n        /* \"#utility.yul\":5352:5381   */\n      swap1\n      pop\n        /* \"#utility.yul\":5390:5423   */\n      tag_168\n        /* \"#utility.yul\":5417:5422   */\n      dup2\n        /* \"#utility.yul\":5390:5423   */\n      tag_80\n      jump\t// in\n    tag_168:\n        /* \"#utility.yul\":5290:5429   */\n      swap3\n      swap2\n      pop\n      pop\n      jump\t// out\n        /* \"#utility.yul\":5435:5764   */\n    tag_17:\n        /* \"#utility.yul\":5494:5500   */\n      0x00\n        /* \"#utility.yul\":5543:5545   */\n      0x20\n        /* \"#utility.yul\":5531:5540   */\n      dup3\n        /* \"#utility.yul\":5522:5529   */\n      dup5\n        /* \"#utility.yul\":5518:5541   */\n      sub\n        /* \"#utility.yul\":5514:5546   */\n      slt\n        /* \"#utility.yul\":5511:5630   */\n      iszero\n      tag_170\n      jumpi\n        /* \"#utility.yul\":5549:5628   */\n      tag_171\n      tag_67\n      jump\t// in\n    tag_171:\n        /* \"#utility.yul\":5511:5630   */\n    tag_170:\n        /* \"#utility.yul\":5669:5670   */\n      0x00\n        /* \"#utility.yul\":5694:5747   */\n      tag_172\n        /* \"#utility.yul\":5739:5746   */\n      dup5\n        /* \"#utility.yul\":5730:5736   */\n      dup3\n        /* \"#utility.yul\":5719:5728   */\n      dup6\n        /* \"#utility.yul\":5715:5737   */\n      add\n        /* \"#utility.yul\":5694:5747   */\n      tag_81\n      jump\t// in\n    tag_172:\n        /* \"#utility.yul\":5684:5747   */\n      swap2\n      pop\n        /* \"#utility.yul\":5640:5757   */\n      pop\n        /* \"#utility.yul\":5435:5764   */\n      swap3\n      swap2\n      pop\n      pop\n      jump\t// out\n        /* \"#utility.yul\":5770:5980   */\n    tag_20:\n        /* \"#utility.yul\":5857:5861   */\n      0x00\n        /* \"#utility.yul\":5895:5897   */\n      0x20\n        /* \"#utility.yul\":5884:5893   */\n      dup3\n        /* \"#utility.yul\":5880:5898   */\n      add\n        /* \"#utility.yul\":5872:5898   */\n      swap1\n      pop\n        /* \"#utility.yul\":5908:5973   */\n      tag_174\n        /* \"#utility.yul\":5970:5971   */\n      0x00\n        /* \"#utility.yul\":5959:5968   */\n      dup4\n        /* \"#utility.yul\":5955:5972   */\n      add\n        /* \"#utility.yul\":5946:5952   */\n      dup5\n        /* \"#utility.yul\":5908:5973   */\n      tag_65\n      jump\t// in\n    tag_174:\n        /* \"#utility.yul\":5770:5980   */\n      swap3\n      swap2\n      pop\n      pop\n      jump\t// out\n        /* \"#utility.yul\":5986:6166   */\n    tag_82:\n        /* \"#utility.yul\":6034:6111   */\n      0x4e487b7100000000000000000000000000000000000000000000000000000000\n        /* \"#utility.yul\":6031:6032   */\n      0x00\n        /* \"#utility.yul\":6024:6112   */\n      mstore\n        /* \"#utility.yul\":6131:6135   */\n      0x22\n        /* \"#utility.yul\":6128:6129   */\n      0x04\n        /* \"#utility.yul\":6121:6136   */\n      mstore\n        /* \"#utility.yul\":6155:6159   */\n      0x24\n        /* \"#utility.yul\":6152:6153   */\n      0x00\n        /* \"#utility.yul\":6145:6160   */\n      revert\n        /* \"#utility.yul\":6172:6492   */\n    tag_26:\n        /* \"#utility.yul\":6216:6222   */\n      0x00\n        /* \"#utility.yul\":6253:6254   */\n      0x02\n        /* \"#utility.yul\":6247:6251   */\n      dup3\n        /* \"#utility.yul\":6243:6255   */\n      div\n        /* \"#utility.yul\":6233:6255   */\n      swap1\n      pop\n        /* \"#utility.yul\":6300:6301   */\n      0x01\n        /* \"#utility.yul\":6294:6298   */\n      dup3\n        /* \"#utility.yul\":6290:6302   */\n      and\n        /* \"#utility.yul\":6321:6339   */\n      dup1\n        /* \"#utility.yul\":6311:6392   */\n      tag_177\n      jumpi\n        /* \"#utility.yul\":6377:6381   */\n      0x7f\n        /* \"#utility.yul\":6369:6375   */\n      dup3\n        /* \"#utility.yul\":6365:6382   */\n      and\n        /* \"#utility.yul\":6355:6382   */\n      swap2\n      pop\n        /* \"#utility.yul\":6311:6392   */\n    tag_177:\n        /* \"#utility.yul\":6439:6441   */\n      0x20\n        /* \"#utility.yul\":6431:6437   */\n      dup3\n        /* \"#utility.yul\":6428:6442   */\n      lt\n        /* \"#utility.yul\":6408:6426   */\n      dup2\n        /* \"#utility.yul\":6405:6443   */\n      sub\n        /* \"#utility.yul\":6402:6486   */\n      tag_178\n      jumpi\n        /* \"#utility.yul\":6458:6476   */\n      tag_179\n      tag_82\n      jump\t// in\n    tag_179:\n        /* \"#utility.yul\":6402:6486   */\n    tag_178:\n        /* \"#utility.yul\":6223:6492   */\n      pop\n        /* \"#utility.yul\":6172:6492   */\n      swap2\n      swap1\n      pop\n      jump\t// out\n        /* \"#utility.yul\":6498:6662   */\n    tag_83:\n        /* \"#utility.yul\":6638:6654   */\n      0x4e6f742072656769737465726564000000000000000000000000000000000000\n        /* \"#utility.yul\":6634:6635   */\n      0x00\n        /* \"#utility.yul\":6626:6632   */\n      dup3\n        /* \"#utility.yul\":6622:6636   */\n      add\n        /* \"#utility.yul\":6615:6655   */\n      mstore\n        /* \"#utility.yul\":6498:6662   */\n      pop\n      jump\t// out\n        /* \"#utility.yul\":6668:7034   */\n    tag_84:\n        /* \"#utility.yul\":6810:6813   */\n      0x00\n        /* \"#utility.yul\":6831:6898   */\n      tag_182\n        /* \"#utility.yul\":6895:6897   */\n      0x0e\n        /* \"#utility.yul\":6890:6893   */\n      dup4\n        /* \"#utility.yul\":6831:6898   */\n      tag_58\n      jump\t// in\n    tag_182:\n        /* \"#utility.yul\":6824:6898   */\n      swap2\n      pop\n        /* \"#utility.yul\":6907:7000   */\n      tag_183\n        /* \"#utility.yul\":6996:6999   */\n      dup3\n        /* \"#utility.yul\":6907:7000   */\n      tag_83\n      jump\t// in\n    tag_183:\n        /* \"#utility.yul\":7025:7027   */\n      0x20\n        /* \"#utility.yul\":7020:7023   */\n      dup3\n        /* \"#utility.yul\":7016:7028   */\n      add\n        /* \"#utility.yul\":7009:7028   */\n      swap1\n      pop\n        /* \"#utility.yul\":6668:7034   */\n      swap2\n      swap1\n      pop\n      jump\t// out\n        /* \"#utility.yul\":7040:7459   */\n    tag_34:\n        /* \"#utility.yul\":7206:7210   */\n      0x00\n        /* \"#utility.yul\":7244:7246   */\n      0x20\n        /* \"#utility.yul\":7233:7242   */\n      dup3\n        /* \"#utility.yul\":7229:7247   */\n      add\n        /* \"#utility.yul\":7221:7247   */\n      swap1\n      pop\n        /* \"#utility.yul\":7293:7302   */\n      dup2\n        /* \"#utility.yul\":7287:7291   */\n      dup2\n        /* \"#utility.yul\":7283:7303   */\n      sub\n        /* \"#utility.yul\":7279:7280   */\n      0x00\n        /* \"#utility.yul\":7268:7277   */\n      dup4\n        /* \"#utility.yul\":7264:7281   */\n      add\n        /* \"#utility.yul\":7257:7304   */\n      mstore\n        /* \"#utility.yul\":7321:7452   */\n      tag_185\n        /* \"#utility.yul\":7447:7451   */\n      dup2\n        /* \"#utility.yul\":7321:7452   */\n      tag_84\n      jump\t// in\n    tag_185:\n        /* \"#utility.yul\":7313:7452   */\n      swap1\n      pop\n        /* \"#utility.yul\":7040:7459   */\n      swap2\n      swap1\n      pop\n      jump\t// out\n        /* \"#utility.yul\":7465:7639   */\n    tag_85:\n        /* \"#utility.yul\":7605:7631   */\n      0x4e69636b6e616d652063616e6e6f7420626520656d7074790000000000000000\n        /* \"#utility.yul\":7601:7602   */\n      0x00\n        /* \"#utility.yul\":7593:7599   */\n      dup3\n        /* \"#utility.yul\":7589:7603   */\n      add\n        /* \"#utility.yul\":7582:7632   */\n      mstore\n        /* \"#utility.yul\":7465:7639   */\n      pop\n      jump\t// out\n        /* \"#utility.yul\":7645:8011   */\n    tag_86:\n        /* \"#utility.yul\":7787:7790   */\n      0x00\n        /* \"#utility.yul\":7808:7875   */\n      tag_188\n        /* \"#utility.yul\":7872:7874   */\n      0x18\n        /* \"#utility.yul\":7867:7870   */\n      dup4\n        /* \"#utility.yul\":7808:7875   */\n      tag_58\n      jump\t// in\n    tag_188:\n        /* \"#utility.yul\":7801:7875   */\n      swap2\n      pop\n        /* \"#utility.yul\":7884:7977   */\n      tag_189\n        /* \"#utility.yul\":7973:7976   */\n      dup3\n        /* \"#utility.yul\":7884:7977   */\n      tag_85\n      jump\t// in\n    tag_189:\n        /* \"#utility.yul\":8002:8004   */\n      0x20\n        /* \"#utility.yul\":7997:8000   */\n      dup3\n        /* \"#utility.yul\":7993:8005   */\n      add\n        /* \"#utility.yul\":7986:8005   */\n      swap1\n      pop\n        /* \"#utility.yul\":7645:8011   */\n      swap2\n      swap1\n      pop\n      jump\t// out\n        /* \"#utility.yul\":8017:8436   */\n    tag_37:\n        /* \"#utility.yul\":8183:8187   */\n      0x00\n        /* \"#utility.yul\":8221:8223   */\n      0x20\n        /* \"#utility.yul\":8210:8219   */\n      dup3\n        /* \"#utility.yul\":8206:8224   */\n      add\n        /* \"#utility.yul\":8198:8224   */\n      swap1\n      pop\n        /* \"#utility.yul\":8270:8279   */\n      dup2\n        /* \"#utility.yul\":8264:8268   */\n      dup2\n        /* \"#utility.yul\":8260:8280   */\n      sub\n        /* \"#utility.yul\":8256:8257   */\n      0x00\n        /* \"#utility.yul\":8245:8254   */\n      dup4\n        /* \"#utility.yul\":8241:8258   */\n      add\n        /* \"#utility.yul\":8234:8281   */\n      mstore\n        /* \"#utility.yul\":8298:8429   */\n      tag_191\n        /* \"#utility.yul\":8424:8428   */\n      dup2\n        /* \"#utility.yul\":8298:8429   */\n      tag_86\n      jump\t// in\n    tag_191:\n        /* \"#utility.yul\":8290:8429   */\n      swap1\n      pop\n        /* \"#utility.yul\":8017:8436   */\n      swap2\n      swap1\n      pop\n      jump\t// out\n        /* \"#utility.yul\":8442:8583   */\n    tag_87:\n        /* \"#utility.yul\":8491:8495   */\n      0x00\n        /* \"#utility.yul\":8514:8517   */\n      dup2\n        /* \"#utility.yul\":8506:8517   */\n      swap1\n      pop\n        /* \"#utility.yul\":8537:8540   */\n      dup2\n        /* \"#utility.yul\":8534:8535   */\n      0x00\n        /* \"#utility.yul\":8527:8541   */\n      mstore\n        /* \"#utility.yul\":8571:8575   */\n      0x20\n        /* \"#utility.yul\":8568:8569   */\n      0x00\n        /* \"#utility.yul\":8558:8576   */\n      keccak256\n        /* \"#utility.yul\":8550:8576   */\n      swap1\n      pop\n        /* \"#utility.yul\":8442:8583   */\n      swap2\n      swap1\n      pop\n      jump\t// out\n        /* \"#utility.yul\":8589:8682   */\n    tag_88:\n        /* \"#utility.yul\":8626:8632   */\n      0x00\n        /* \"#utility.yul\":8673:8675   */\n      0x20\n        /* \"#utility.yul\":8668:8670   */\n      0x1f\n        /* \"#utility.yul\":8661:8666   */\n      dup4\n        /* \"#utility.yul\":8657:8671   */\n      add\n        /* \"#utility.yul\":8653:8676   */\n      div\n        /* \"#utility.yul\":8643:8676   */\n      swap1\n      pop\n        /* \"#utility.yul\":8589:8682   */\n      swap2\n      swap1\n      pop\n      jump\t// out\n        /* \"#utility.yul\":8688:8795   */\n    tag_89:\n        /* \"#utility.yul\":8732:8740   */\n      0x00\n        /* \"#utility.yul\":8782:8787   */\n      dup3\n        /* \"#utility.yul\":8776:8780   */\n      dup3\n        /* \"#utility.yul\":8772:8788   */\n      shl\n        /* \"#utility.yul\":8751:8788   */\n      swap1\n      pop\n        /* \"#utility.yul\":8688:8795   */\n      swap3\n      swap2\n      pop\n      pop\n      jump\t// out\n        /* \"#utility.yul\":8801:9194   */\n    tag_90:\n        /* \"#utility.yul\":8870:8876   */\n      0x00\n        /* \"#utility.yul\":8920:8921   */\n      0x08\n        /* \"#utility.yul\":8908:8918   */\n      dup4\n        /* \"#utility.yul\":8904:8922   */\n      mul\n        /* \"#utility.yul\":8943:9040   */\n      tag_196\n        /* \"#utility.yul\":8973:9039   */\n      0xffffffffffffffffffffffffffffffffffffffffffffffffffffffffffffffff\n        /* \"#utility.yul\":8962:8971   */\n      dup3\n        /* \"#utility.yul\":8943:9040   */\n      tag_89\n      jump\t// in\n    tag_196:\n        /* \"#utility.yul\":9061:9100   */\n      tag_197\n        /* \"#utility.yul\":9091:9099   */\n      dup7\n        /* \"#utility.yul\":9080:9089   */\n      dup4\n        /* \"#utility.yul\":9061:9100   */\n      tag_89\n      jump\t// in\n    tag_197:\n        /* \"#utility.yul\":9049:9100   */\n      swap6\n      pop\n        /* \"#utility.yul\":9133:9137   */\n      dup1\n        /* \"#utility.yul\":9129:9138   */\n      not\n        /* \"#utility.yul\":9122:9127   */\n      dup5\n        /* \"#utility.yul\":9118:9139   */\n      and\n        /* \"#utility.yul\":9109:9139   */\n      swap4\n      pop\n        /* \"#utility.yul\":9182:9186   */\n      dup1\n        /* \"#utility.yul\":9172:9180   */\n      dup7\n        /* \"#utility.yul\":9168:9187   */\n      and\n        /* \"#utility.yul\":9161:9166   */\n      dup5\n        /* \"#utility.yul\":9158:9188   */\n      or\n        /* \"#utility.yul\":9148:9188   */\n      swap3\n      pop\n        /* \"#utility.yul\":8877:9194   */\n      pop\n      pop\n        /* \"#utility.yul\":8801:9194   */\n      swap4\n      swap3\n      pop\n      pop\n      pop\n      jump\t// out\n        /* \"#utility.yul\":9200:9260   */\n    tag_91:\n        /* \"#utility.yul\":9228:9231   */\n      0x00\n        /* \"#utility.yul\":9249:9254   */\n      dup2\n        /* \"#utility.yul\":9242:9254   */\n      swap1\n      pop\n        /* \"#utility.yul\":9200:9260   */\n      swap2\n      swap1\n      pop\n      jump\t// out\n        /* \"#utility.yul\":9266:9408   */\n    tag_92:\n        /* \"#utility.yul\":9316:9325   */\n      0x00\n        /* \"#utility.yul\":9349:9402   */\n      tag_200\n        /* \"#utility.yul\":9367:9401   */\n      tag_201\n        /* \"#utility.yul\":9376:9400   */\n      tag_202\n        /* \"#utility.yul\":9394:9399   */\n      dup5\n        /* \"#utility.yul\":9376:9400   */\n      tag_62\n      jump\t// in\n    tag_202:\n        /* \"#utility.yul\":9367:9401   */\n      tag_91\n      jump\t// in\n    tag_201:\n        /* \"#utility.yul\":9349:9402   */\n      tag_62\n      jump\t// in\n    tag_200:\n        /* \"#utility.yul\":9336:9402   */\n      swap1\n      pop\n        /* \"#utility.yul\":9266:9408   */\n      swap2\n      swap1\n      pop\n      jump\t// out\n        /* \"#utility.yul\":9414:9489   */\n    tag_93:\n        /* \"#utility.yul\":9457:9460   */\n      0x00\n        /* \"#utility.yul\":9478:9483   */\n      dup2\n        /* \"#utility.yul\":9471:9483   */\n      swap1\n      pop\n        /* \"#utility.yul\":9414:9489   */\n      swap2\n      swap1\n      pop\n      jump\t// out\n        /* \"#utility.yul\":9495:9764   */\n    tag_94:\n        /* \"#utility.yul\":9605:9644   */\n      tag_205\n        /* \"#utility.yul\":9636:9643   */\n      dup4\n        /* \"#utility.yul\":9605:9644   */\n      tag_92\n      jump\t// in\n    tag_205:\n        /* \"#utility.yul\":9666:9757   */\n      tag_206\n        /* \"#utility.yul\":9715:9756   */\n      tag_207\n        /* \"#utility.yul\":9739:9755   */\n      dup3\n        /* \"#utility.yul\":9715:9756   */\n      tag_93\n      jump\t// in\n    tag_207:\n        /* \"#utility.yul\":9707:9713   */\n      dup5\n        /* \"#utility.yul\":9700:9704   */\n      dup5\n        /* \"#utility.yul\":9694:9705   */\n      sload\n        /* \"#utility.yul\":9666:9757   */\n      tag_90\n      jump\t// in\n    tag_206:\n        /* \"#utility.yul\":9660:9664   */\n      dup3\n        /* \"#utility.yul\":9653:9758   */\n      sstore\n        /* \"#utility.yul\":9571:9764   */\n      pop\n        /* \"#utility.yul\":9495:9764   */\n      pop\n      pop\n      pop\n      jump\t// out\n        /* \"#utility.yul\":9770:9843   */\n    tag_95:\n        /* \"#utility.yul\":9815:9818   */\n      0x00\n        /* \"#utility.yul\":9770:9843   */\n      swap1\n      jump\t// out\n        /* \"#utility.yul\":9849:10038   */\n    tag_96:\n        /* \"#utility.yul\":9926:9958   */\n      tag_210\n      tag_95\n      jump\t// in\n    tag_210:\n        /* \"#utility.yul\":9967:10032   */\n      tag_211\n        /* \"#utility.yul\":10025:10031   */\n      dup2\n        /* \"#utility.yul\":10017:10023   */\n      dup5\n        /* \"#utility.yul\":10011:10015   */\n      dup5\n        /* \"#utility.yul\":9967:10032   */\n      tag_94\n      jump\t// in\n    tag_211:\n        /* \"#utility.yul\":9902:10038   */\n      pop\n        /* \"#utility.yul\":9849:10038   */\n      pop\n      pop\n      jump\t// out\n        /* \"#utility.yul\":10044:10230   */\n    tag_97:\n        /* \"#utility.yul\":10104:10224   */\n    tag_213:\n        /* \"#utility.yul\":10121:10124   */\n      dup2\n        /* \"#utility.yul\":10114:10119   */\n      dup2\n        /* \"#utility.yul\":10111:10125   */\n      lt\n        /* \"#utility.yul\":10104:10224   */\n      iszero\n      tag_215\n      jumpi\n        /* \"#utility.yul\":10175:10214   */\n      tag_216\n        /* \"#utility.yul\":10212:10213   */\n      0x00\n        /* \"#utility.yul\":10205:10210   */\n      dup3\n        /* \"#utility.yul\":10175:10214   */\n      tag_96\n      jump\t// in\n    tag_216:\n        /* \"#utility.yul\":10148:10149   */\n      0x01\n        /* \"#utility.yul\":10141:10146   */\n      dup2\n        /* \"#utility.yul\":10137:10150   */\n      add\n        /* \"#utility.yul\":10128:10150   */\n      swap1\n      pop\n        /* \"#utility.yul\":10104:10224   */\n      jump(tag_213)\n    tag_215:\n        /* \"#utility.yul\":10044:10230   */\n      pop\n      pop\n      jump\t// out\n        /* \"#utility.yul\":10236:10779   */\n    tag_98:\n        /* \"#utility.yul\":10337:10339   */\n      0x1f\n        /* \"#utility.yul\":10332:10335   */\n      dup3\n        /* \"#utility.yul\":10329:10340   */\n      gt\n        /* \"#utility.yul\":10326:10772   */\n      iszero\n      tag_218\n      jumpi\n        /* \"#utility.yul\":10371:10409   */\n      tag_219\n        /* \"#utility.yul\":10403:10408   */\n      dup2\n        /* \"#utility.yul\":10371:10409   */\n      tag_87\n      jump\t// in\n    tag_219:\n        /* \"#utility.yul\":10455:10484   */\n      tag_220\n        /* \"#utility.yul\":10473:10483   */\n      dup5\n        /* \"#utility.yul\":10455:10484   */\n      tag_88\n      jump\t// in\n    tag_220:\n        /* \"#utility.yul\":10445:10453   */\n      dup2\n        /* \"#utility.yul\":10441:10485   */\n      add\n        /* \"#utility.yul\":10638:10640   */\n      0x20\n        /* \"#utility.yul\":10626:10636   */\n      dup6\n        /* \"#utility.yul\":10623:10641   */\n      lt\n        /* \"#utility.yul\":10620:10669   */\n      iszero\n      tag_221\n      jumpi\n        /* \"#utility.yul\":10659:10667   */\n      dup2\n        /* \"#utility.yul\":10644:10667   */\n      swap1\n      pop\n        /* \"#utility.yul\":10620:10669   */\n    tag_221:\n        /* \"#utility.yul\":10682:10762   */\n      tag_222\n        /* \"#utility.yul\":10738:10760   */\n      tag_223\n        /* \"#utility.yul\":10756:10759   */\n      dup6\n        /* \"#utility.yul\":10738:10760   */\n      tag_88\n      jump\t// in\n    tag_223:\n        /* \"#utility.yul\":10728:10736   */\n      dup4\n        /* \"#utility.yul\":10724:10761   */\n      add\n        /* \"#utility.yul\":10711:10722   */\n      dup3\n        /* \"#utility.yul\":10682:10762   */\n      tag_97\n      jump\t// in\n    tag_222:\n        /* \"#utility.yul\":10341:10772   */\n      pop\n      pop\n        /* \"#utility.yul\":10326:10772   */\n    tag_218:\n        /* \"#utility.yul\":10236:10779   */\n      pop\n      pop\n      pop\n      jump\t// out\n        /* \"#utility.yul\":10785:10902   */\n    tag_99:\n        /* \"#utility.yul\":10839:10847   */\n      0x00\n        /* \"#utility.yul\":10889:10894   */\n      dup3\n        /* \"#utility.yul\":10883:10887   */\n      dup3\n        /* \"#utility.yul\":10879:10895   */\n      shr\n        /* \"#utility.yul\":10858:10895   */\n      swap1\n      pop\n        /* \"#utility.yul\":10785:10902   */\n      swap3\n      swap2\n      pop\n      pop\n      jump\t// out\n        /* \"#utility.yul\":10908:11077   */\n    tag_100:\n        /* \"#utility.yul\":10952:10958   */\n      0x00\n        /* \"#utility.yul\":10985:11036   */\n      tag_226\n        /* \"#utility.yul\":11033:11034   */\n      0x00\n        /* \"#utility.yul\":11029:11035   */\n      not\n        /* \"#utility.yul\":11021:11026   */\n      dup5\n        /* \"#utility.yul\":11018:11019   */\n      0x08\n        /* \"#utility.yul\":11014:11027   */\n      mul\n        /* \"#utility.yul\":10985:11036   */\n      tag_99\n      jump\t// in\n    tag_226:\n        /* \"#utility.yul\":10981:11037   */\n      not\n        /* \"#utility.yul\":11066:11070   */\n      dup1\n        /* \"#utility.yul\":11060:11064   */\n      dup4\n        /* \"#utility.yul\":11056:11071   */\n      and\n        /* \"#utility.yul\":11046:11071   */\n      swap2\n      pop\n        /* \"#utility.yul\":10959:11077   */\n      pop\n        /* \"#utility.yul\":10908:11077   */\n      swap3\n      swap2\n      pop\n      pop\n      jump\t// out\n        /* \"#utility.yul\":11082:11377   */\n    tag_101:\n        /* \"#utility.yul\":11158:11162   */\n      0x00\n        /* \"#utility.yul\":11304:11333   */\n      tag_228\n        /* \"#utility.yul\":11329:11332   */\n      dup4\n        /* \"#utility.yul\":11323:11327   */\n      dup4\n        /* \"#utility.yul\":11304:11333   */\n      tag_100\n      jump\t// in\n    tag_228:\n        /* \"#utility.yul\":11296:11333   */\n      swap2\n      pop\n        /* \"#utility.yul\":11366:11369   */\n      dup3\n        /* \"#utility.yul\":11363:11364   */\n      0x02\n        /* \"#utility.yul\":11359:11370   */\n      mul\n        /* \"#utility.yul\":11353:11357   */\n      dup3\n        /* \"#utility.yul\":11350:11371   */\n      or\n        /* \"#utility.yul\":11342:11371   */\n      swap1\n      pop\n        /* \"#utility.yul\":11082:11377   */\n      swap3\n      swap2\n      pop\n      pop\n      jump\t// out\n        /* \"#utility.yul\":11382:12777   */\n    tag_44:\n        /* \"#utility.yul\":11499:11536   */\n      tag_230\n        /* \"#utility.yul\":11532:11535   */\n      dup3\n        /* \"#utility.yul\":11499:11536   */\n      tag_57\n      jump\t// in\n    tag_230:\n        /* \"#utility.yul\":11601:11619   */\n      0xffffffffffffffff\n        /* \"#utility.yul\":11593:11599   */\n      dup2\n        /* \"#utility.yul\":11590:11620   */\n      gt\n        /* \"#utility.yul\":11587:11643   */\n      iszero\n      tag_231\n      jumpi\n        /* \"#utility.yul\":11623:11641   */\n      tag_232\n      tag_71\n      jump\t// in\n    tag_232:\n        /* \"#utility.yul\":11587:11643   */\n    tag_231:\n        /* \"#utility.yul\":11667:11705   */\n      tag_233\n        /* \"#utility.yul\":11699:11703   */\n      dup3\n        /* \"#utility.yul\":11693:11704   */\n      sload\n        /* \"#utility.yul\":11667:11705   */\n      tag_26\n      jump\t// in\n    tag_233:\n        /* \"#utility.yul\":11752:11819   */\n      tag_234\n        /* \"#utility.yul\":11812:11818   */\n      dup3\n        /* \"#utility.yul\":11804:11810   */\n      dup3\n        /* \"#utility.yul\":11798:11802   */\n      dup6\n        /* \"#utility.yul\":11752:11819   */\n      tag_98\n      jump\t// in\n    tag_234:\n        /* \"#utility.yul\":11846:11847   */\n      0x00\n        /* \"#utility.yul\":11870:11874   */\n      0x20\n        /* \"#utility.yul\":11857:11874   */\n      swap1\n      pop\n        /* \"#utility.yul\":11902:11904   */\n      0x1f\n        /* \"#utility.yul\":11894:11900   */\n      dup4\n        /* \"#utility.yul\":11891:11905   */\n      gt\n        /* \"#utility.yul\":11919:11920   */\n      0x01\n        /* \"#utility.yul\":11914:12532   */\n      dup2\n      eq\n      tag_236\n      jumpi\n        /* \"#utility.yul\":12576:12577   */\n      0x00\n        /* \"#utility.yul\":12593:12599   */\n      dup5\n        /* \"#utility.yul\":12590:12667   */\n      iszero\n      tag_237\n      jumpi\n        /* \"#utility.yul\":12642:12651   */\n      dup3\n        /* \"#utility.yul\":12637:12640   */\n      dup8\n        /* \"#utility.yul\":12633:12652   */\n      add\n        /* \"#utility.yul\":12627:12653   */\n      mload\n        /* \"#utility.yul\":12618:12653   */\n      swap1\n      pop\n        /* \"#utility.yul\":12590:12667   */\n    tag_237:\n        /* \"#utility.yul\":12693:12760   */\n      tag_238\n        /* \"#utility.yul\":12753:12759   */\n      dup6\n        /* \"#utility.yul\":12746:12751   */\n      dup3\n        /* \"#utility.yul\":12693:12760   */\n      tag_101\n      jump\t// in\n    tag_238:\n        /* \"#utility.yul\":12687:12691   */\n      dup7\n        /* \"#utility.yul\":12680:12761   */\n      sstore\n        /* \"#utility.yul\":12549:12771   */\n      pop\n        /* \"#utility.yul\":11884:12771   */\n      jump(tag_235)\n        /* \"#utility.yul\":11914:12532   */\n    tag_236:\n        /* \"#utility.yul\":11966:11970   */\n      0x1f\n        /* \"#utility.yul\":11962:11971   */\n      not\n        /* \"#utility.yul\":11954:11960   */\n      dup5\n        /* \"#utility.yul\":11950:11972   */\n      and\n        /* \"#utility.yul\":12000:12037   */\n      tag_239\n        /* \"#utility.yul\":12032:12036   */\n      dup7\n        /* \"#utility.yul\":12000:12037   */\n      tag_87\n      jump\t// in\n    tag_239:\n        /* \"#utility.yul\":12059:12060   */\n      0x00\n        /* \"#utility.yul\":12073:12281   */\n    tag_240:\n        /* \"#utility.yul\":12087:12094   */\n      dup3\n        /* \"#utility.yul\":12084:12085   */\n      dup2\n        /* \"#utility.yul\":12081:12095   */\n      lt\n        /* \"#utility.yul\":12073:12281   */\n      iszero\n      tag_242\n      jumpi\n        /* \"#utility.yul\":12166:12175   */\n      dup5\n        /* \"#utility.yul\":12161:12164   */\n      dup10\n        /* \"#utility.yul\":12157:12176   */\n      add\n        /* \"#utility.yul\":12151:12177   */\n      mload\n        /* \"#utility.yul\":12143:12149   */\n      dup3\n        /* \"#utility.yul\":12136:12178   */\n      sstore\n        /* \"#utility.yul\":12217:12218   */\n      0x01\n        /* \"#utility.yul\":12209:12215   */\n      dup3\n        /* \"#utility.yul\":12205:12219   */\n      add\n        /* \"#utility.yul\":12195:12219   */\n      swap2\n      pop\n        /* \"#utility.yul\":12264:12266   */\n      0x20\n        /* \"#utility.yul\":12253:12262   */\n      dup6\n        /* \"#utility.yul\":12249:12267   */\n      add\n        /* \"#utility.yul\":12236:12267   */\n      swap5\n      pop\n        /* \"#utility.yul\":12110:12114   */\n      0x20\n        /* \"#utility.yul\":12107:12108   */\n      dup2\n        /* \"#utility.yul\":12103:12115   */\n      add\n        /* \"#utility.yul\":12098:12115   */\n      swap1\n      pop\n        /* \"#utility.yul\":12073:12281   */\n      jump(tag_240)\n    tag_242:\n        /* \"#utility.yul\":12309:12315   */\n      dup7\n        /* \"#utility.yul\":12300:12307   */\n      dup4\n        /* \"#utility.yul\":12297:12316   */\n      lt\n        /* \"#utility.yul\":12294:12473   */\n      iszero\n      tag_243\n      jumpi\n        /* \"#utility.yul\":12367:12376   */\n      dup5\n        /* \"#utility.yul\":12362:12365   */\n      dup10\n        /* \"#utility.yul\":12358:12377   */\n      add\n        /* \"#utility.yul\":12352:12378   */\n      mload\n        /* \"#utility.yul\":12410:12458   */\n      tag_244\n        /* \"#utility.yul\":12452:12456   */\n      0x1f\n        /* \"#utility.yul\":12444:12450   */\n      dup10\n        /* \"#utility.yul\":12440:12457   */\n      and\n        /* \"#utility.yul\":12429:12438   */\n      dup3\n        /* \"#utility.yul\":12410:12458   */\n      tag_100\n      jump\t// in\n    tag_244:\n        /* \"#utility.yul\":12402:12408   */\n      dup4\n        /* \"#utility.yul\":12395:12459   */\n      sstore\n        /* \"#utility.yul\":12317:12473   */\n      pop\n        /* \"#utility.yul\":12294:12473   */\n    tag_243:\n        /* \"#utility.yul\":12519:12520   */\n      0x01\n        /* \"#utility.yul\":12515:12516   */\n      0x02\n        /* \"#utility.yul\":12507:12513   */\n      dup9\n        /* \"#utility.yul\":12503:12517   */\n      mul\n        /* \"#utility.yul\":12499:12521   */\n      add\n        /* \"#utility.yul\":12493:12497   */\n      dup9\n        /* \"#utility.yul\":12486:12522   */\n      sstore\n        /* \"#utility.yul\":11921:12532   */\n      pop\n      pop\n      pop\n        /* \"#utility.yul\":11884:12771   */\n    tag_235:\n      pop\n        /* \"#utility.yul\":11474:12777   */\n      pop\n      pop\n      pop\n        /* \"#utility.yul\":11382:12777   */\n      pop\n      pop\n      jump\t// out\n        /* \"#utility.yul\":12783:13407   */\n    tag_46:\n        /* \"#utility.yul\":12972:12976   */\n      0x00\n        /* \"#utility.yul\":13010:13012   */\n      0x60\n        /* \"#utility.yul\":12999:13008   */\n      dup3\n        /* \"#utility.yul\":12995:13013   */\n      add\n        /* \"#utility.yul\":12987:13013   */\n      swap1\n      pop\n        /* \"#utility.yul\":13059:13068   */\n      dup2\n        /* \"#utility.yul\":13053:13057   */\n      dup2\n        /* \"#utility.yul\":13049:13069   */\n      sub\n        /* \"#utility.yul\":13045:13046   */\n      0x00\n        /* \"#utility.yul\":13034:13043   */\n      dup4\n        /* \"#utility.yul\":13030:13047   */\n      add\n        /* \"#utility.yul\":13023:13070   */\n      mstore\n        /* \"#utility.yul\":13087:13165   */\n      tag_246\n        /* \"#utility.yul\":13160:13164   */\n      dup2\n        /* \"#utility.yul\":13151:13157   */\n      dup7\n        /* \"#utility.yul\":13087:13165   */\n      tag_61\n      jump\t// in\n    tag_246:\n        /* \"#utility.yul\":13079:13165   */\n      swap1\n      pop\n        /* \"#utility.yul\":13212:13221   */\n      dup2\n        /* \"#utility.yul\":13206:13210   */\n      dup2\n        /* \"#utility.yul\":13202:13222   */\n      sub\n        /* \"#utility.yul\":13197:13199   */\n      0x20\n        /* \"#utility.yul\":13186:13195   */\n      dup4\n        /* \"#utility.yul\":13182:13200   */\n      add\n        /* \"#utility.yul\":13175:13223   */\n      mstore\n        /* \"#utility.yul\":13240:13318   */\n      tag_247\n        /* \"#utility.yul\":13313:13317   */\n      dup2\n        /* \"#utility.yul\":13304:13310   */\n      dup6\n        /* \"#utility.yul\":13240:13318   */\n      tag_61\n      jump\t// in\n    tag_247:\n        /* \"#utility.yul\":13232:13318   */\n      swap1\n      pop\n        /* \"#utility.yul\":13328:13400   */\n      tag_248\n        /* \"#utility.yul\":13396:13398   */\n      0x40\n        /* \"#utility.yul\":13385:13394   */\n      dup4\n        /* \"#utility.yul\":13381:13399   */\n      add\n        /* \"#utility.yul\":13372:13378   */\n      dup5\n        /* \"#utility.yul\":13328:13400   */\n      tag_63\n      jump\t// in\n    tag_248:\n        /* \"#utility.yul\":12783:13407   */\n      swap5\n      swap4\n      pop\n      pop\n      pop\n      pop\n      jump\t// out\n        /* \"#utility.yul\":13413:13581   */\n    tag_102:\n        /* \"#utility.yul\":13553:13573   */\n      0x416c726561647920726567697374657265640000000000000000000000000000\n        /* \"#utility.yul\":13549:13550   */\n      0x00\n        /* \"#utility.yul\":13541:13547   */\n      dup3\n        /* \"#utility.yul\":13537:13551   */\n      add\n        /* \"#utility.yul\":13530:13574   */\n      mstore\n        /* \"#utility.yul\":13413:13581   */\n      pop\n      jump\t// out\n        /* \"#utility.yul\":13587:13953   */\n    tag_103:\n        /* \"#utility.yul\":13729:13732   */\n      0x00\n        /* \"#utility.yul\":13750:13817   */\n      tag_251\n        /* \"#utility.yul\":13814:13816   */\n      0x12\n        /* \"#utility.yul\":13809:13812   */\n      dup4\n        /* \"#utility.yul\":13750:13817   */\n      tag_58\n      jump\t// in\n    tag_251:\n        /* \"#utility.yul\":13743:13817   */\n      swap2\n      pop\n        /* \"#utility.yul\":13826:13919   */\n      tag_252\n        /* \"#utility.yul\":13915:13918   */\n      dup3\n        /* \"#utility.yul\":13826:13919   */\n      tag_102\n      jump\t// in\n    tag_252:\n        /* \"#utility.yul\":13944:13946   */\n      0x20\n        /* \"#utility.yul\":13939:13942   */\n      dup3\n        /* \"#utility.yul\":13935:13947   */\n      add\n        /* \"#utility.yul\":13928:13947   */\n      swap1\n      pop\n        /* \"#utility.yul\":13587:13953   */\n      swap2\n      swap1\n      pop\n      jump\t// out\n        /* \"#utility.yul\":13959:14378   */\n    tag_51:\n        /* \"#utility.yul\":14125:14129   */\n      0x00\n        /* \"#utility.yul\":14163:14165   */\n      0x20\n        /* \"#utility.yul\":14152:14161   */\n      dup3\n        /* \"#utility.yul\":14148:14166   */\n      add\n        /* \"#utility.yul\":14140:14166   */\n      swap1\n      pop\n        /* \"#utility.yul\":14212:14221   */\n      dup2\n        /* \"#utility.yul\":14206:14210   */\n      dup2\n        /* \"#utility.yul\":14202:14222   */\n      sub\n        /* \"#utility.yul\":14198:14199   */\n      0x00\n        /* \"#utility.yul\":14187:14196   */\n      dup4\n        /* \"#utility.yul\":14183:14200   */\n      add\n        /* \"#utility.yul\":14176:14223   */\n      mstore\n        /* \"#utility.yul\":14240:14371   */\n      tag_254\n        /* \"#utility.yul\":14366:14370   */\n      dup2\n        /* \"#utility.yul\":14240:14371   */\n      tag_103\n      jump\t// in\n    tag_254:\n        /* \"#utility.yul\":14232:14371   */\n      swap1\n      pop\n        /* \"#utility.yul\":13959:14378   */\n      swap2\n      swap1\n      pop\n      jump\t// out\n        /* \"#utility.yul\":14384:14807   */\n    tag_56:\n        /* \"#utility.yul\":14525:14529   */\n      0x00\n        /* \"#utility.yul\":14563:14565   */\n      0x40\n        /* \"#utility.yul\":14552:14561   */\n      dup3\n        /* \"#utility.yul\":14548:14566   */\n      add\n        /* \"#utility.yul\":14540:14566   */\n      swap1\n      pop\n        /* \"#utility.yul\":14612:14621   */\n      dup2\n        /* \"#utility.yul\":14606:14610   */\n      dup2\n        /* \"#utility.yul\":14602:14622   */\n      sub\n        /* \"#utility.yul\":14598:14599   */\n      0x00\n        /* \"#utility.yul\":14587:14596   */\n      dup4\n        /* \"#utility.yul\":14583:14600   */\n      add\n        /* \"#utility.yul\":14576:14623   */\n      mstore\n        /* \"#utility.yul\":14640:14718   */\n      tag_256\n        /* \"#utility.yul\":14713:14717   */\n      dup2\n        /* \"#utility.yul\":14704:14710   */\n      dup6\n        /* \"#utility.yul\":14640:14718   */\n      tag_61\n      jump\t// in\n    tag_256:\n        /* \"#utility.yul\":14632:14718   */\n      swap1\n      pop\n        /* \"#utility.yul\":14728:14800   */\n      tag_257\n        /* \"#utility.yul\":14796:14798   */\n      0x20\n        /* \"#utility.yul\":14785:14794   */\n      dup4\n        /* \"#utility.yul\":14781:14799   */\n      add\n        /* \"#utility.yul\":14772:14778   */\n      dup5\n        /* \"#utility.yul\":14728:14800   */\n      tag_63\n      jump\t// in\n    tag_257:\n        /* \"#utility.yul\":14384:14807   */\n      swap4\n      swap3\n      pop\n      pop\n      pop\n      jump\t// out\n\n    auxdata: 0xa264697066735822122084d9435914baac587a17fb63d363473cf35c9538540590180968983213940f8464736f6c63430008130033\n}\n",
				"bytecode": {
					"linkReferences": {},
					"object": "608060405234801561001057600080fd5b50610e3c806100206000396000f3fe608060405234801561001057600080fd5b506004361061004c5760003560e01c806321527e5014610051578063bd2e3b1714610071578063c3c5a5471461008d578063f2c298be146100bd575b600080fd5b6100596100d9565b604051610068939291906106f9565b60405180910390f35b61008b60048036038101906100869190610880565b6101d3565b005b6100a760048036038101906100a29190610927565b610418565b6040516100b49190610954565b60405180910390f35b6100d760048036038101906100d29190610880565b610470565b005b606060008060008060003373ffffffffffffffffffffffffffffffffffffffff1673ffffffffffffffffffffffffffffffffffffffff16815260200190815260200160002090508060000181600101548260020160009054906101000a900460ff168280546101479061099e565b80601f01602080910402602001604051908101604052809291908181526020018280546101739061099e565b80156101c05780601f10610195576101008083540402835291602001916101c0565b820191906000526020600020905b8154815290600101906020018083116101a357829003601f168201915b5050505050925093509350935050909192565b6000803373ffffffffffffffffffffffffffffffffffffffff1673ffffffffffffffffffffffffffffffffffffffff16815260200190815260200160002060020160009054906101000a900460ff16610261576040517f08c379a000000000000000000000000000000000000000000000000000000000815260040161025890610a1b565b60405180910390fd5b60008151116102a5576040517f08c379a000000000000000000000000000000000000000000000000000000000815260040161029c90610a87565b60405180910390fd5b60008060003373ffffffffffffffffffffffffffffffffffffffff1673ffffffffffffffffffffffffffffffffffffffff16815260200190815260200160002060000180546102f39061099e565b80601f016020809104026020016040519081016040528092919081815260200182805461031f9061099e565b801561036c5780601f106103415761010080835404028352916020019161036c565b820191906000526020600020905b81548152906001019060200180831161034f57829003601f168201915b50505050509050816000803373ffffffffffffffffffffffffffffffffffffffff1673ffffffffffffffffffffffffffffffffffffffff16815260200190815260200160002060000190816103c19190610c53565b503373ffffffffffffffffffffffffffffffffffffffff167f6f1b9466fa0c89f0ed7c7e08de95274883c61b68531abc2ec360f3bacda002c082844260405161040c93929190610d25565b60405180910390a25050565b60008060008373ffffffffffffffffffffffffffffffffffffffff1673ffffffffffffffffffffffffffffffffffffffff16815260200190815260200160002060020160009054906101000a900460ff169050919050565b6000803373ffffffffffffffffffffffffffffffffffffffff1673ffffffffffffffffffffffffffffffffffffffff16815260200190815260200160002060020160009054906101000a900460ff16156104ff576040517f08c379a00000000000000000000000000000000000000000000000000000000081526004016104f690610db6565b60405180910390fd5b6000815111610543576040517f08c379a000000000000000000000000000000000000000000000000000000000815260040161053a90610a87565b60405180910390fd5b6040518060600160405280828152602001428152602001600115158152506000803373ffffffffffffffffffffffffffffffffffffffff1673ffffffffffffffffffffffffffffffffffffffff16815260200190815260200160002060008201518160000190816105b49190610c53565b506020820151816001015560408201518160020160006101000a81548160ff0219169083151502179055509050503373ffffffffffffffffffffffffffffffffffffffff167f89105a1c6a3c2fbd471255c66a31ccab604af5697f67d7e2e9a0028c5e4dbd91824260405161062a929190610dd6565b60405180910390a250565b600081519050919050565b600082825260208201905092915050565b60005b8381101561066f578082015181840152602081019050610654565b60008484015250505050565b6000601f19601f8301169050919050565b600061069782610635565b6106a18185610640565b93506106b1818560208601610651565b6106ba8161067b565b840191505092915050565b6000819050919050565b6106d8816106c5565b82525050565b60008115159050919050565b6106f3816106de565b82525050565b60006060820190508181036000830152610713818661068c565b905061072260208301856106cf565b61072f60408301846106ea565b949350505050565b6000604051905090565b600080fd5b600080fd5b600080fd5b600080fd5b7f4e487b7100000000000000000000000000000000000000000000000000000000600052604160045260246000fd5b61078d8261067b565b810181811067ffffffffffffffff821117156107ac576107ab610755565b5b80604052505050565b60006107bf610737565b90506107cb8282610784565b919050565b600067ffffffffffffffff8211156107eb576107ea610755565b5b6107f48261067b565b9050602081019050919050565b82818337600083830152505050565b600061082361081e846107d0565b6107b5565b90508281526020810184848401111561083f5761083e610750565b5b61084a848285610801565b509392505050565b600082601f8301126108675761086661074b565b5b8135610877848260208601610810565b91505092915050565b60006020828403121561089657610895610741565b5b600082013567ffffffffffffffff8111156108b4576108b3610746565b5b6108c084828501610852565b91505092915050565b600073ffffffffffffffffffffffffffffffffffffffff82169050919050565b60006108f4826108c9565b9050919050565b610904816108e9565b811461090f57600080fd5b50565b600081359050610921816108fb565b92915050565b60006020828403121561093d5761093c610741565b5b600061094b84828501610912565b91505092915050565b600060208201905061096960008301846106ea565b92915050565b7f4e487b7100000000000000000000000000000000000000000000000000000000600052602260045260246000fd5b600060028204905060018216806109b657607f821691505b6020821081036109c9576109c861096f565b5b50919050565b7f4e6f742072656769737465726564000000000000000000000000000000000000600082015250565b6000610a05600e83610640565b9150610a10826109cf565b602082019050919050565b60006020820190508181036000830152610a34816109f8565b9050919050565b7f4e69636b6e616d652063616e6e6f7420626520656d7074790000000000000000600082015250565b6000610a71601883610640565b9150610a7c82610a3b565b602082019050919050565b60006020820190508181036000830152610aa081610a64565b9050919050565b60008190508160005260206000209050919050565b60006020601f8301049050919050565b600082821b905092915050565b600060088302610b097fffffffffffffffffffffffffffffffffffffffffffffffffffffffffffffffff82610acc565b610b138683610acc565b95508019841693508086168417925050509392505050565b6000819050919050565b6000610b50610b4b610b46846106c5565b610b2b565b6106c5565b9050919050565b6000819050919050565b610b6a83610b35565b610b7e610b7682610b57565b848454610ad9565b825550505050565b600090565b610b93610b86565b610b9e818484610b61565b505050565b5b81811015610bc257610bb7600082610b8b565b600181019050610ba4565b5050565b601f821115610c0757610bd881610aa7565b610be184610abc565b81016020851015610bf0578190505b610c04610bfc85610abc565b830182610ba3565b50505b505050565b600082821c905092915050565b6000610c2a60001984600802610c0c565b1980831691505092915050565b6000610c438383610c19565b9150826002028217905092915050565b610c5c82610635565b67ffffffffffffffff811115610c7557610c74610755565b5b610c7f825461099e565b610c8a828285610bc6565b600060209050601f831160018114610cbd5760008415610cab578287015190505b610cb58582610c37565b865550610d1d565b601f198416610ccb86610aa7565b60005b82811015610cf357848901518255600182019150602085019450602081019050610cce565b86831015610d105784890151610d0c601f891682610c19565b8355505b6001600288020188555050505b505050505050565b60006060820190508181036000830152610d3f818661068c565b90508181036020830152610d53818561068c565b9050610d6260408301846106cf565b949350505050565b7f416c726561647920726567697374657265640000000000000000000000000000600082015250565b6000610da0601283610640565b9150610dab82610d6a565b602082019050919050565b60006020820190508181036000830152610dcf81610d93565b9050919050565b60006040820190508181036000830152610df0818561068c565b9050610dff60208301846106cf565b939250505056fea264697066735822122084d9435914baac587a17fb63d363473cf35c9538540590180968983213940f8464736f6c63430008130033",
					"opcodes": "PUSH1 0x80 PUSH1 0x40 MSTORE CALLVALUE DUP1 ISZERO PUSH2 0x10 JUMPI PUSH1 0x0 DUP1 REVERT JUMPDEST POP PUSH2 0xE3C DUP1 PUSH2 0x20 PUSH1 0x0 CODECOPY PUSH1 0x0 RETURN INVALID PUSH1 0x80 PUSH1 0x40 MSTORE CALLVALUE DUP1 ISZERO PUSH2 0x10 JUMPI PUSH1 0x0 DUP1 REVERT JUMPDEST POP PUSH1 0x4 CALLDATASIZE LT PUSH2 0x4C JUMPI PUSH1 0x0 CALLDATALOAD PUSH1 0xE0 SHR DUP1 PUSH4 0x21527E50 EQ PUSH2 0x51 JUMPI DUP1 PUSH4 0xBD2E3B17 EQ PUSH2 0x71 JUMPI DUP1 PUSH4 0xC3C5A547 EQ PUSH2 0x8D JUMPI DUP1 PUSH4 0xF2C298BE EQ PUSH2 0xBD JUMPI JUMPDEST PUSH1 0x0 DUP1 REVERT JUMPDEST PUSH2 0x59 PUSH2 0xD9 JUMP JUMPDEST PUSH1 0x40 MLOAD PUSH2 0x68 SWAP4 SWAP3 SWAP2 SWAP1 PUSH2 0x6F9 JUMP JUMPDEST PUSH1 0x40 MLOAD DUP1 SWAP2 SUB SWAP1 RETURN JUMPDEST PUSH2 0x8B PUSH1 0x4 DUP1 CALLDATASIZE SUB DUP2 ADD SWAP1 PUSH2 0x86 SWAP2 SWAP1 PUSH2 0x880 JUMP JUMPDEST PUSH2 0x1D3 JUMP JUMPDEST STOP JUMPDEST PUSH2 0xA7 PUSH1 0x4 DUP1 CALLDATASIZE SUB DUP2 ADD SWAP1 PUSH2 0xA2 SWAP2 SWAP1 PUSH2 0x927 JUMP JUMPDEST PUSH2 0x418 JUMP JUMPDEST PUSH1 0x40 MLOAD PUSH2 0xB4 SWAP2 SWAP1 PUSH2 0x954 JUMP JUMPDEST PUSH1 0x40 MLOAD DUP1 SWAP2 SUB SWAP1 RETURN JUMPDEST PUSH2 0xD7 PUSH1 0x4 DUP1 CALLDATASIZE SUB DUP2 ADD SWAP1 PUSH2 0xD2 SWAP2 SWAP1 PUSH2 0x880 JUMP JUMPDEST PUSH2 0x470 JUMP JUMPDEST STOP JUMPDEST PUSH1 0x60 PUSH1 0x0 DUP1 PUSH1 0x0 DUP1 PUSH1 0x0 CALLER PUSH20 0xFFFFFFFFFFFFFFFFFFFFFFFFFFFFFFFFFFFFFFFF AND PUSH20 0xFFFFFFFFFFFFFFFFFFFFFFFFFFFFFFFFFFFFFFFF AND DUP2 MSTORE PUSH1 0x20 ADD SWAP1 DUP2 MSTORE PUSH1 0x20 ADD PUSH1 0x0 KECCAK256 SWAP1 POP DUP1 PUSH1 0x0 ADD DUP2 PUSH1 0x1 ADD SLOAD DUP3 PUSH1 0x2 ADD PUSH1 0x0 SWAP1 SLOAD SWAP1 PUSH2 0x100 EXP SWAP1 DIV PUSH1 0xFF AND DUP3 DUP1 SLOAD PUSH2 0x147 SWAP1 PUSH2 0x99E JUMP JUMPDEST DUP1 PUSH1 0x1F ADD PUSH1 0x20 DUP1 SWAP2 DIV MUL PUSH1 0x20 ADD PUSH1 0x40 MLOAD SWAP1 DUP2 ADD PUSH1 0x40 MSTORE DUP1 SWAP3 SWAP2 SWAP1 DUP2 DUP2 MSTORE PUSH1 0x20 ADD DUP3 DUP1 SLOAD PUSH2 0x173 SWAP1 PUSH2 0x99E JUMP JUMPDEST DUP1 ISZERO PUSH2 0x1C0 JUMPI DUP1 PUSH1 0x1F LT PUSH2 0x195 JUMPI PUSH2 0x100 DUP1 DUP4 SLOAD DIV MUL DUP4 MSTORE SWAP2 PUSH1 0x20 ADD SWAP2 PUSH2 0x1C0 JUMP JUMPDEST DUP3 ADD SWAP2 SWAP1 PUSH1 0x0 MSTORE PUSH1 0x20 PUSH1 0x0 KECCAK256 SWAP1 JUMPDEST DUP2 SLOAD DUP2 MSTORE SWAP1 PUSH1 0x1 ADD SWAP1 PUSH1 0x20 ADD DUP1 DUP4 GT PUSH2 0x1A3 JUMPI DUP3 SWAP1 SUB PUSH1 0x1F AND DUP3 ADD SWAP2 JUMPDEST POP POP POP POP POP SWAP3 POP SWAP4 POP SWAP4 POP SWAP4 POP POP SWAP1 SWAP2 SWAP3 JUMP JUMPDEST PUSH1 0x0 DUP1 CALLER PUSH20 0xFFFFFFFFFFFFFFFFFFFFFFFFFFFFFFFFFFFFFFFF AND PUSH20 0xFFFFFFFFFFFFFFFFFFFFFFFFFFFFFFFFFFFFFFFF AND DUP2 MSTORE PUSH1 0x20 ADD SWAP1 DUP2 MSTORE PUSH1 0x20 ADD PUSH1 0x0 KECCAK256 PUSH1 0x2 ADD PUSH1 0x0 SWAP1 SLOAD SWAP1 PUSH2 0x100 EXP SWAP1 DIV PUSH1 0xFF AND PUSH2 0x261 JUMPI PUSH1 0x40 MLOAD PUSH32 0x8C379A000000000000000000000000000000000000000000000000000000000 DUP2 MSTORE PUSH1 0x4 ADD PUSH2 0x258 SWAP1 PUSH2 0xA1B JUMP JUMPDEST PUSH1 0x40 MLOAD DUP1 SWAP2 SUB SWAP1 REVERT JUMPDEST PUSH1 0x0 DUP2 MLOAD GT PUSH2 0x2A5 JUMPI PUSH1 0x40 MLOAD PUSH32 0x8C379A000000000000000000000000000000000000000000000000000000000 DUP2 MSTORE PUSH1 0x4 ADD PUSH2 0x29C SWAP1 PUSH2 0xA87 JUMP JUMPDEST PUSH1 0x40 MLOAD DUP1 SWAP2 SUB SWAP1 REVERT JUMPDEST PUSH1 0x0 DUP1 PUSH1 0x0 CALLER PUSH20 0xFFFFFFFFFFFFFFFFFFFFFFFFFFFFFFFFFFFFFFFF AND PUSH20 0xFFFFFFFFFFFFFFFFFFFFFFFFFFFFFFFFFFFFFFFF AND DUP2 MSTORE PUSH1 0x20 ADD SWAP1 DUP2 MSTORE PUSH1 0x20 ADD PUSH1 0x0 KECCAK256 PUSH1 0x0 ADD DUP1 SLOAD PUSH2 0x2F3 SWAP1 PUSH2 0x99E JUMP JUMPDEST DUP1 PUSH1 0x1F ADD PUSH1 0x20 DUP1 SWAP2 DIV MUL PUSH1 0x20 ADD PUSH1 0x40 MLOAD SWAP1 DUP2 ADD PUSH1 0x40 MSTORE DUP1 SWAP3 SWAP2 SWAP1 DUP2 DUP2 MSTORE PUSH1 0x20 ADD DUP3 DUP1 SLOAD PUSH2 0x31F SWAP1 PUSH2 0x99E JUMP JUMPDEST DUP1 ISZERO PUSH2 0x36C JUMPI DUP1 PUSH1 0x1F LT PUSH2 0x341 JUMPI PUSH2 0x100 DUP1 DUP4 SLOAD DIV MUL DUP4 MSTORE SWAP2 PUSH1 0x20 ADD SWAP2 PUSH2 0x36C JUMP JUMPDEST DUP3 ADD SWAP2 SWAP1 PUSH1 0x0 MSTORE PUSH1 0x20 PUSH1 0x0 KECCAK256 SWAP1 JUMPDEST DUP2 SLOAD DUP2 MSTORE SWAP1 PUSH1 0x1 ADD SWAP1 PUSH1 0x20 ADD DUP1 DUP4 GT PUSH2 0x34F JUMPI DUP3 SWAP1 SUB PUSH1 0x1F AND DUP3 ADD SWAP2 JUMPDEST POP POP POP POP POP SWAP1 POP DUP2 PUSH1 0x0 DUP1 CALLER PUSH20 0xFFFFFFFFFFFFFFFFFFFFFFFFFFFFFFFFFFFFFFFF AND PUSH20 0xFFFFFFFFFFFFFFFFFFFFFFFFFFFFFFFFFFFFFFFF AND DUP2 MSTORE PUSH1 0x20 ADD SWAP1 DUP2 MSTORE PUSH1 0x20 ADD PUSH1 0x0 KECCAK256 PUSH1 0x0 ADD SWAP1 DUP2 PUSH2 0x3C1 SWAP2 SWAP1 PUSH2 0xC53 JUMP JUMPDEST POP CALLER PUSH20 0xFFFFFFFFFFFFFFFFFFFFFFFFFFFFFFFFFFFFFFFF AND PUSH32 0x6F1B9466FA0C89F0ED7C7E08DE95274883C61B68531ABC2EC360F3BACDA002C0 DUP3 DUP5 TIMESTAMP PUSH1 0x40 MLOAD PUSH2 0x40C SWAP4 SWAP3 SWAP2 SWAP1 PUSH2 0xD25 JUMP JUMPDEST PUSH1 0x40 MLOAD DUP1 SWAP2 SUB SWAP1 LOG2 POP POP JUMP JUMPDEST PUSH1 0x0 DUP1 PUSH1 0x0 DUP4 PUSH20 0xFFFFFFFFFFFFFFFFFFFFFFFFFFFFFFFFFFFFFFFF AND PUSH20 0xFFFFFFFFFFFFFFFFFFFFFFFFFFFFFFFFFFFFFFFF AND DUP2 MSTORE PUSH1 0x20 ADD SWAP1 DUP2 MSTORE PUSH1 0x20 ADD PUSH1 0x0 KECCAK256 PUSH1 0x2 ADD PUSH1 0x0 SWAP1 SLOAD SWAP1 PUSH2 0x100 EXP SWAP1 DIV PUSH1 0xFF AND SWAP1 POP SWAP2 SWAP1 POP JUMP JUMPDEST PUSH1 0x0 DUP1 CALLER PUSH20 0xFFFFFFFFFFFFFFFFFFFFFFFFFFFFFFFFFFFFFFFF AND PUSH20 0xFFFFFFFFFFFFFFFFFFFFFFFFFFFFFFFFFFFFFFFF AND DUP2 MSTORE PUSH1 0x20 ADD SWAP1 DUP2 MSTORE PUSH1 0x20 ADD PUSH1 0x0 KECCAK256 PUSH1 0x2 ADD PUSH1 0x0 SWAP1 SLOAD SWAP1 PUSH2 0x100 EXP SWAP1 DIV PUSH1 0xFF AND ISZERO PUSH2 0x4FF JUMPI PUSH1 0x40 MLOAD PUSH32 0x8C379A000000000000000000000000000000000000000000000000000000000 DUP2 MSTORE PUSH1 0x4 ADD PUSH2 0x4F6 SWAP1 PUSH2 0xDB6 JUMP JUMPDEST PUSH1 0x40 MLOAD DUP1 SWAP2 SUB SWAP1 REVERT JUMPDEST PUSH1 0x0 DUP2 MLOAD GT PUSH2 0x543 JUMPI PUSH1 0x40 MLOAD PUSH32 0x8C379A000000000000000000000000000000000000000000000000000000000 DUP2 MSTORE PUSH1 0x4 ADD PUSH2 0x53A SWAP1 PUSH2 0xA87 JUMP JUMPDEST PUSH1 0x40 MLOAD DUP1 SWAP2 SUB SWAP1 REVERT JUMPDEST PUSH1 0x40 MLOAD DUP1 PUSH1 0x60 ADD PUSH1 0x40 MSTORE DUP1 DUP3 DUP2 MSTORE PUSH1 0x20 ADD TIMESTAMP DUP2 MSTORE PUSH1 0x20 ADD PUSH1 0x1 ISZERO ISZERO DUP2 MSTORE POP PUSH1 0x0 DUP1 CALLER PUSH20 0xFFFFFFFFFFFFFFFFFFFFFFFFFFFFFFFFFFFFFFFF AND PUSH20 0xFFFFFFFFFFFFFFFFFFFFFFFFFFFFFFFFFFFFFFFF AND DUP2 MSTORE PUSH1 0x20 ADD SWAP1 DUP2 MSTORE PUSH1 0x20 ADD PUSH1 0x0 KECCAK256 PUSH1 0x0 DUP3 ADD MLOAD DUP2 PUSH1 0x0 ADD SWAP1 DUP2 PUSH2 0x5B4 SWAP2 SWAP1 PUSH2 0xC53 JUMP JUMPDEST POP PUSH1 0x20 DUP3 ADD MLOAD DUP2 PUSH1 0x1 ADD SSTORE PUSH1 0x40 DUP3 ADD MLOAD DUP2 PUSH1 0x2 ADD PUSH1 0x0 PUSH2 0x100 EXP DUP2 SLOAD DUP2 PUSH1 0xFF MUL NOT AND SWAP1 DUP4 ISZERO ISZERO MUL OR SWAP1 SSTORE POP SWAP1 POP POP CALLER PUSH20 0xFFFFFFFFFFFFFFFFFFFFFFFFFFFFFFFFFFFFFFFF AND PUSH32 0x89105A1C6A3C2FBD471255C66A31CCAB604AF5697F67D7E2E9A0028C5E4DBD91 DUP3 TIMESTAMP PUSH1 0x40 MLOAD PUSH2 0x62A SWAP3 SWAP2 SWAP1 PUSH2 0xDD6 JUMP JUMPDEST PUSH1 0x40 MLOAD DUP1 SWAP2 SUB SWAP1 LOG2 POP JUMP JUMPDEST PUSH1 0x0 DUP2 MLOAD SWAP1 POP SWAP2 SWAP1 POP JUMP JUMPDEST PUSH1 0x0 DUP3 DUP3 MSTORE PUSH1 0x20 DUP3 ADD SWAP1 POP SWAP3 SWAP2 POP POP JUMP JUMPDEST PUSH1 0x0 JUMPDEST DUP4 DUP2 LT ISZERO PUSH2 0x66F JUMPI DUP1 DUP3 ADD MLOAD DUP2 DUP5 ADD MSTORE PUSH1 0x20 DUP2 ADD SWAP1 POP PUSH2 0x654 JUMP JUMPDEST PUSH1 0x0 DUP5 DUP5 ADD MSTORE POP POP POP POP JUMP JUMPDEST PUSH1 0x0 PUSH1 0x1F NOT PUSH1 0x1F DUP4 ADD AND SWAP1 POP SWAP2 SWAP1 POP JUMP JUMPDEST PUSH1 0x0 PUSH2 0x697 DUP3 PUSH2 0x635 JUMP JUMPDEST PUSH2 0x6A1 DUP2 DUP6 PUSH2 0x640 JUMP JUMPDEST SWAP4 POP PUSH2 0x6B1 DUP2 DUP6 PUSH1 0x20 DUP7 ADD PUSH2 0x651 JUMP JUMPDEST PUSH2 0x6BA DUP2 PUSH2 0x67B JUMP JUMPDEST DUP5 ADD SWAP2 POP POP SWAP3 SWAP2 POP POP JUMP JUMPDEST PUSH1 0x0 DUP2 SWAP1 POP SWAP2 SWAP1 POP JUMP JUMPDEST PUSH2 0x6D8 DUP2 PUSH2 0x6C5 JUMP JUMPDEST DUP3 MSTORE POP POP JUMP JUMPDEST PUSH1 0x0 DUP2 ISZERO ISZERO SWAP1 POP SWAP2 SWAP1 POP JUMP JUMPDEST PUSH2 0x6F3 DUP2 PUSH2 0x6DE JUMP JUMPDEST DUP3 MSTORE POP POP JUMP JUMPDEST PUSH1 0x0 PUSH1 0x60 DUP3 ADD SWAP1 POP DUP2 DUP2 SUB PUSH1 0x0 DUP4 ADD MSTORE PUSH2 0x713 DUP2 DUP7 PUSH2 0x68C JUMP JUMPDEST SWAP1 POP PUSH2 0x722 PUSH1 0x20 DUP4 ADD DUP6 PUSH2 0x6CF JUMP JUMPDEST PUSH2 0x72F PUSH1 0x40 DUP4 ADD DUP5 PUSH2 0x6EA JUMP JUMPDEST SWAP5 SWAP4 POP POP POP POP JUMP JUMPDEST PUSH1 0x0 PUSH1 0x40 MLOAD SWAP1 POP SWAP1 JUMP JUMPDEST PUSH1 0x0 DUP1 REVERT JUMPDEST PUSH1 0x0 DUP1 REVERT JUMPDEST PUSH1 0x0 DUP1 REVERT JUMPDEST PUSH1 0x0 DUP1 REVERT JUMPDEST PUSH32 0x4E487B7100000000000000000000000000000000000000000000000000000000 PUSH1 0x0 MSTORE PUSH1 0x41 PUSH1 0x4 MSTORE PUSH1 0x24 PUSH1 0x0 REVERT JUMPDEST PUSH2 0x78D DUP3 PUSH2 0x67B JUMP JUMPDEST DUP2 ADD DUP2 DUP2 LT PUSH8 0xFFFFFFFFFFFFFFFF DUP3 GT OR ISZERO PUSH2 0x7AC JUMPI PUSH2 0x7AB PUSH2 0x755 JUMP JUMPDEST JUMPDEST DUP1 PUSH1 0x40 MSTORE POP POP POP JUMP JUMPDEST PUSH1 0x0 PUSH2 0x7BF PUSH2 0x737 JUMP JUMPDEST SWAP1 POP PUSH2 0x7CB DUP3 DUP3 PUSH2 0x784 JUMP JUMPDEST SWAP2 SWAP1 POP JUMP JUMPDEST PUSH1 0x0 PUSH8 0xFFFFFFFFFFFFFFFF DUP3 GT ISZERO PUSH2 0x7EB JUMPI PUSH2 0x7EA PUSH2 0x755 JUMP JUMPDEST JUMPDEST PUSH2 0x7F4 DUP3 PUSH2 0x67B JUMP JUMPDEST SWAP1 POP PUSH1 0x20 DUP2 ADD SWAP1 POP SWAP2 SWAP1 POP JUMP JUMPDEST DUP3 DUP2 DUP4 CALLDATACOPY PUSH1 0x0 DUP4 DUP4 ADD MSTORE POP POP POP JUMP JUMPDEST PUSH1 0x0 PUSH2 0x823 PUSH2 0x81E DUP5 PUSH2 0x7D0 JUMP JUMPDEST PUSH2 0x7B5 JUMP JUMPDEST SWAP1 POP DUP3 DUP2 MSTORE PUSH1 0x20 DUP2 ADD DUP5 DUP5 DUP5 ADD GT ISZERO PUSH2 0x83F JUMPI PUSH2 0x83E PUSH2 0x750 JUMP JUMPDEST JUMPDEST PUSH2 0x84A DUP5 DUP3 DUP6 PUSH2 0x801 JUMP JUMPDEST POP SWAP4 SWAP3 POP POP POP JUMP JUMPDEST PUSH1 0x0 DUP3 PUSH1 0x1F DUP4 ADD SLT PUSH2 0x867 JUMPI PUSH2 0x866 PUSH2 0x74B JUMP JUMPDEST JUMPDEST DUP2 CALLDATALOAD PUSH2 0x877 DUP5 DUP3 PUSH1 0x20 DUP7 ADD PUSH2 0x810 JUMP JUMPDEST SWAP2 POP POP SWAP3 SWAP2 POP POP JUMP JUMPDEST PUSH1 0x0 PUSH1 0x20 DUP3 DUP5 SUB SLT ISZERO PUSH2 0x896 JUMPI PUSH2 0x895 PUSH2 0x741 JUMP JUMPDEST JUMPDEST PUSH1 0x0 DUP3 ADD CALLDATALOAD PUSH8 0xFFFFFFFFFFFFFFFF DUP2 GT ISZERO PUSH2 0x8B4 JUMPI PUSH2 0x8B3 PUSH2 0x746 JUMP JUMPDEST JUMPDEST PUSH2 0x8C0 DUP5 DUP3 DUP6 ADD PUSH2 0x852 JUMP JUMPDEST SWAP2 POP POP SWAP3 SWAP2 POP POP JUMP JUMPDEST PUSH1 0x0 PUSH20 0xFFFFFFFFFFFFFFFFFFFFFFFFFFFFFFFFFFFFFFFF DUP3 AND SWAP1 POP SWAP2 SWAP1 POP JUMP JUMPDEST PUSH1 0x0 PUSH2 0x8F4 DUP3 PUSH2 0x8C9 JUMP JUMPDEST SWAP1 POP SWAP2 SWAP1 POP JUMP JUMPDEST PUSH2 0x904 DUP2 PUSH2 0x8E9 JUMP JUMPDEST DUP2 EQ PUSH2 0x90F JUMPI PUSH1 0x0 DUP1 REVERT JUMPDEST POP JUMP JUMPDEST PUSH1 0x0 DUP2 CALLDATALOAD SWAP1 POP PUSH2 0x921 DUP2 PUSH2 0x8FB JUMP JUMPDEST SWAP3 SWAP2 POP POP JUMP JUMPDEST PUSH1 0x0 PUSH1 0x20 DUP3 DUP5 SUB SLT ISZERO PUSH2 0x93D JUMPI PUSH2 0x93C PUSH2 0x741 JUMP JUMPDEST JUMPDEST PUSH1 0x0 PUSH2 0x94B DUP5 DUP3 DUP6 ADD PUSH2 0x912 JUMP JUMPDEST SWAP2 POP POP SWAP3 SWAP2 POP POP JUMP JUMPDEST PUSH1 0x0 PUSH1 0x20 DUP3 ADD SWAP1 POP PUSH2 0x969 PUSH1 0x0 DUP4 ADD DUP5 PUSH2 0x6EA JUMP JUMPDEST SWAP3 SWAP2 POP POP JUMP JUMPDEST PUSH32 0x4E487B7100000000000000000000000000000000000000000000000000000000 PUSH1 0x0 MSTORE PUSH1 0x22 PUSH1 0x4 MSTORE PUSH1 0x24 PUSH1 0x0 REVERT JUMPDEST PUSH1 0x0 PUSH1 0x2 DUP3 DIV SWAP1 POP PUSH1 0x1 DUP3 AND DUP1 PUSH2 0x9B6 JUMPI PUSH1 0x7F DUP3 AND SWAP2 POP JUMPDEST PUSH1 0x20 DUP3 LT DUP2 SUB PUSH2 0x9C9 JUMPI PUSH2 0x9C8 PUSH2 0x96F JUMP JUMPDEST JUMPDEST POP SWAP2 SWAP1 POP JUMP JUMPDEST PUSH32 0x4E6F742072656769737465726564000000000000000000000000000000000000 PUSH1 0x0 DUP3 ADD MSTORE POP JUMP JUMPDEST PUSH1 0x0 PUSH2 0xA05 PUSH1 0xE DUP4 PUSH2 0x640 JUMP JUMPDEST SWAP2 POP PUSH2 0xA10 DUP3 PUSH2 0x9CF JUMP JUMPDEST PUSH1 0x20 DUP3 ADD SWAP1 POP SWAP2 SWAP1 POP JUMP JUMPDEST PUSH1 0x0 PUSH1 0x20 DUP3 ADD SWAP1 POP DUP2 DUP2 SUB PUSH1 0x0 DUP4 ADD MSTORE PUSH2 0xA34 DUP2 PUSH2 0x9F8 JUMP JUMPDEST SWAP1 POP SWAP2 SWAP1 POP JUMP JUMPDEST PUSH32 0x4E69636B6E616D652063616E6E6F7420626520656D7074790000000000000000 PUSH1 0x0 DUP3 ADD MSTORE POP JUMP JUMPDEST PUSH1 0x0 PUSH2 0xA71 PUSH1 0x18 DUP4 PUSH2 0x640 JUMP JUMPDEST SWAP2 POP PUSH2 0xA7C DUP3 PUSH2 0xA3B JUMP JUMPDEST PUSH1 0x20 DUP3 ADD SWAP1 POP SWAP2 SWAP1 POP JUMP JUMPDEST PUSH1 0x0 PUSH1 0x20 DUP3 ADD SWAP1 POP DUP2 DUP2 SUB PUSH1 0x0 DUP4 ADD MSTORE PUSH2 0xAA0 DUP2 PUSH2 0xA64 JUMP JUMPDEST SWAP1 POP SWAP2 SWAP1 POP JUMP JUMPDEST PUSH1 0x0 DUP2 SWAP1 POP DUP2 PUSH1 0x0 MSTORE PUSH1 0x20 PUSH1 0x0 KECCAK256 SWAP1 POP SWAP2 SWAP1 POP JUMP JUMPDEST PUSH1 0x0 PUSH1 0x20 PUSH1 0x1F DUP4 ADD DIV SWAP1 POP SWAP2 SWAP1 POP JUMP JUMPDEST PUSH1 0x0 DUP3 DUP3 SHL SWAP1 POP SWAP3 SWAP2 POP POP JUMP JUMPDEST PUSH1 0x0 PUSH1 0x8 DUP4 MUL PUSH2 0xB09 PUSH32 0xFFFFFFFFFFFFFFFFFFFFFFFFFFFFFFFFFFFFFFFFFFFFFFFFFFFFFFFFFFFFFFFF DUP3 PUSH2 0xACC JUMP JUMPDEST PUSH2 0xB13 DUP7 DUP4 PUSH2 0xACC JUMP JUMPDEST SWAP6 POP DUP1 NOT DUP5 AND SWAP4 POP DUP1 DUP7 AND DUP5 OR SWAP3 POP POP POP SWAP4 SWAP3 POP POP POP JUMP JUMPDEST PUSH1 0x0 DUP2 SWAP1 POP SWAP2 SWAP1 POP JUMP JUMPDEST PUSH1 0x0 PUSH2 0xB50 PUSH2 0xB4B PUSH2 0xB46 DUP5 PUSH2 0x6C5 JUMP JUMPDEST PUSH2 0xB2B JUMP JUMPDEST PUSH2 0x6C5 JUMP JUMPDEST SWAP1 POP SWAP2 SWAP1 POP JUMP JUMPDEST PUSH1 0x0 DUP2 SWAP1 POP SWAP2 SWAP1 POP JUMP JUMPDEST PUSH2 0xB6A DUP4 PUSH2 0xB35 JUMP JUMPDEST PUSH2 0xB7E PUSH2 0xB76 DUP3 PUSH2 0xB57 JUMP JUMPDEST DUP5 DUP5 SLOAD PUSH2 0xAD9 JUMP JUMPDEST DUP3 SSTORE POP POP POP POP JUMP JUMPDEST PUSH1 0x0 SWAP1 JUMP JUMPDEST PUSH2 0xB93 PUSH2 0xB86 JUMP JUMPDEST PUSH2 0xB9E DUP2 DUP5 DUP5 PUSH2 0xB61 JUMP JUMPDEST POP POP POP JUMP JUMPDEST JUMPDEST DUP2 DUP2 LT ISZERO PUSH2 0xBC2 JUMPI PUSH2 0xBB7 PUSH1 0x0 DUP3 PUSH2 0xB8B JUMP JUMPDEST PUSH1 0x1 DUP2 ADD SWAP1 POP PUSH2 0xBA4 JUMP JUMPDEST POP POP JUMP JUMPDEST PUSH1 0x1F DUP3 GT ISZERO PUSH2 0xC07 JUMPI PUSH2 0xBD8 DUP2 PUSH2 0xAA7 JUMP JUMPDEST PUSH2 0xBE1 DUP5 PUSH2 0xABC JUMP JUMPDEST DUP2 ADD PUSH1 0x20 DUP6 LT ISZERO PUSH2 0xBF0 JUMPI DUP2 SWAP1 POP JUMPDEST PUSH2 0xC04 PUSH2 0xBFC DUP6 PUSH2 0xABC JUMP JUMPDEST DUP4 ADD DUP3 PUSH2 0xBA3 JUMP JUMPDEST POP POP JUMPDEST POP POP POP JUMP JUMPDEST PUSH1 0x0 DUP3 DUP3 SHR SWAP1 POP SWAP3 SWAP2 POP POP JUMP JUMPDEST PUSH1 0x0 PUSH2 0xC2A PUSH1 0x0 NOT DUP5 PUSH1 0x8 MUL PUSH2 0xC0C JUMP JUMPDEST NOT DUP1 DUP4 AND SWAP2 POP POP SWAP3 SWAP2 POP POP JUMP JUMPDEST PUSH1 0x0 PUSH2 0xC43 DUP4 DUP4 PUSH2 0xC19 JUMP JUMPDEST SWAP2 POP DUP3 PUSH1 0x2 MUL DUP3 OR SWAP1 POP SWAP3 SWAP2 POP POP JUMP JUMPDEST PUSH2 0xC5C DUP3 PUSH2 0x635 JUMP JUMPDEST PUSH8 0xFFFFFFFFFFFFFFFF DUP2 GT ISZERO PUSH2 0xC75 JUMPI PUSH2 0xC74 PUSH2 0x755 JUMP JUMPDEST JUMPDEST PUSH2 0xC7F DUP3 SLOAD PUSH2 0x99E JUMP JUMPDEST PUSH2 0xC8A DUP3 DUP3 DUP6 PUSH2 0xBC6 JUMP JUMPDEST PUSH1 0x0 PUSH1 0x20 SWAP1 POP PUSH1 0x1F DUP4 GT PUSH1 0x1 DUP2 EQ PUSH2 0xCBD JUMPI PUSH1 0x0 DUP5 ISZERO PUSH2 0xCAB JUMPI DUP3 DUP8 ADD MLOAD SWAP1 POP JUMPDEST PUSH2 0xCB5 DUP6 DUP3 PUSH2 0xC37 JUMP JUMPDEST DUP7 SSTORE POP PUSH2 0xD1D JUMP JUMPDEST PUSH1 0x1F NOT DUP5 AND PUSH2 0xCCB DUP7 PUSH2 0xAA7 JUMP JUMPDEST PUSH1 0x0 JUMPDEST DUP3 DUP2 LT ISZERO PUSH2 0xCF3 JUMPI DUP5 DUP10 ADD MLOAD DUP3 SSTORE PUSH1 0x1 DUP3 ADD SWAP2 POP PUSH1 0x20 DUP6 ADD SWAP5 POP PUSH1 0x20 DUP2 ADD SWAP1 POP PUSH2 0xCCE JUMP JUMPDEST DUP7 DUP4 LT ISZERO PUSH2 0xD10 JUMPI DUP5 DUP10 ADD MLOAD PUSH2 0xD0C PUSH1 0x1F DUP10 AND DUP3 PUSH2 0xC19 JUMP JUMPDEST DUP4 SSTORE POP JUMPDEST PUSH1 0x1 PUSH1 0x2 DUP9 MUL ADD DUP9 SSTORE POP POP POP JUMPDEST POP POP POP POP POP POP JUMP JUMPDEST PUSH1 0x0 PUSH1 0x60 DUP3 ADD SWAP1 POP DUP2 DUP2 SUB PUSH1 0x0 DUP4 ADD MSTORE PUSH2 0xD3F DUP2 DUP7 PUSH2 0x68C JUMP JUMPDEST SWAP1 POP DUP2 DUP2 SUB PUSH1 0x20 DUP4 ADD MSTORE PUSH2 0xD53 DUP2 DUP6 PUSH2 0x68C JUMP JUMPDEST SWAP1 POP PUSH2 0xD62 PUSH1 0x40 DUP4 ADD DUP5 PUSH2 0x6CF JUMP JUMPDEST SWAP5 SWAP4 POP POP POP POP JUMP JUMPDEST PUSH32 0x416C726561647920726567697374657265640000000000000000000000000000 PUSH1 0x0 DUP3 ADD MSTORE POP JUMP JUMPDEST PUSH1 0x0 PUSH2 0xDA0 PUSH1 0x12 DUP4 PUSH2 0x640 JUMP JUMPDEST SWAP2 POP PUSH2 0xDAB DUP3 PUSH2 0xD6A JUMP JUMPDEST PUSH1 0x20 DUP3 ADD SWAP1 POP SWAP2 SWAP1 POP JUMP JUMPDEST PUSH1 0x0 PUSH1 0x20 DUP3 ADD SWAP1 POP DUP2 DUP2 SUB PUSH1 0x0 DUP4 ADD MSTORE PUSH2 0xDCF DUP2 PUSH2 0xD93 JUMP JUMPDEST SWAP1 POP SWAP2 SWAP1 POP JUMP JUMPDEST PUSH1 0x0 PUSH1 0x40 DUP3 ADD SWAP1 POP DUP2 DUP2 SUB PUSH1 0x0 DUP4 ADD MSTORE PUSH2 0xDF0 DUP2 DUP6 PUSH2 0x68C JUMP JUMPDEST SWAP1 POP PUSH2 0xDFF PUSH1 0x20 DUP4 ADD DUP5 PUSH2 0x6CF JUMP JUMPDEST SWAP4 SWAP3 POP POP POP JUMP INVALID LOG2 PUSH5 0x6970667358 0x22 SLT KECCAK256 DUP5 0xD9 NUMBER MSIZE EQ 0xBA 0xAC PC PUSH27 0x17FB63D363473CF35C9538540590180968983213940F8464736F6C PUSH4 0x43000813 STOP CALLER "
				},
				"gasEstimates": {
					"creation": {
						"codeDepositCost": "728800",
						"executionCost": "760",
						"totalCost": "729560"
					},
					"external": {
						"getMyProfile()": "infinite",
						"isRegistered(address)": "2911",
						"register(string)": "infinite",
						"updateNickname(string)": "infinite"
					}
				},
				"methodIdentifiers": {
					"getMyProfile()": "21527e50",
					"isRegistered(address)": "c3c5a547",
					"register(string)": "f2c298be",
					"updateNickname(string)": "bd2e3b17"
				}
			},
			"storageLayout": {
				"storage": [
					{
						"astId": 14,
						"contract": "SimpleUserFlow.sol:SimpleUserFlow",
						"label": "users",
						"offset": 0,
						"slot": "0",
						"type": "t_mapping(t_address,t_struct(UserProfile)9_storage)"
					}
				],
				"types": {
					"t_address": {
						"encoding": "inplace",
						"label": "address",
						"numberOfBytes": "20"
					},
					"t_bool": {
						"encoding": "inplace",
						"label": "bool",
						"numberOfBytes": "1"
					},
					"t_mapping(t_address,t_struct(UserProfile)9_storage)": {
						"encoding": "mapping",
						"key": "t_address",
						"label": "mapping(address => struct SimpleUserFlow.UserProfile)",
						"numberOfBytes": "32",
						"value": "t_struct(UserProfile)9_storage"
					},
					"t_string_storage": {
						"encoding": "bytes",
						"label": "string",
						"numberOfBytes": "32"
					},
					"t_struct(UserProfile)9_storage": {
						"encoding": "inplace",
						"label": "struct SimpleUserFlow.UserProfile",
						"members": [
							{
								"astId": 4,
								"contract": "SimpleUserFlow.sol:SimpleUserFlow",
								"label": "nickname",
								"offset": 0,
								"slot": "0",
								"type": "t_string_storage"
							},
							{
								"astId": 6,
								"contract": "SimpleUserFlow.sol:SimpleUserFlow",
								"label": "createdAt",
								"offset": 0,
								"slot": "1",
								"type": "t_uint256"
							},
							{
								"astId": 8,
								"contract": "SimpleUserFlow.sol:SimpleUserFlow",
								"label": "exists",
								"offset": 0,
								"slot": "2",
								"type": "t_bool"
							}
						],
						"numberOfBytes": "96"
					},
					"t_uint256": {
						"encoding": "inplace",
						"label": "uint256",
						"numberOfBytes": "32"
					}
				}
			},
			"userdoc": {
				"kind": "user",
				"methods": {},
				"version": 1
			}
		}
	}
}