{
	"UserAuth.sol": {
		"UserAuth": {
			"abi": [
				{
					"anonymous": false,
					"inputs": [
						{
							"indexed": true,
							"internalType": "address",
							"name": "userAddress",
							"type": "address"
						},
						{
							"indexed": false,
							"internalType": "uint256",
							"name": "timestamp",
							"type": "uint256"
						}
					],
					"name": "PasswordUpdated",
					"type": "event"
				},
				{
					"anonymous": false,
					"inputs": [
						{
							"indexed": true,
							"internalType": "address",
							"name": "userAddress",
							"type": "address"
						},
						{
							"indexed": false,
							"internalType": "uint256",
							"name": "timestamp",
							"type": "uint256"
						}
					],
					"name": "UserDeactivated",
					"type": "event"
				},
				{
					"anonymous": false,
					"inputs": [
						{
							"indexed": true,
							"internalType": "address",
							"name": "userAddress",
							"type": "address"
						},
						{
							"indexed": false,
							"internalType": "uint256",
							"name": "timestamp",
							"type": "uint256"
						}
					],
					"name": "UserLoggedIn",
					"type": "event"
				},
				{
					"anonymous": false,
					"inputs": [
						{
							"indexed": true,
							"internalType": "address",
							"name": "userAddress",
							"type": "address"
						},
						{
							"indexed": false,
							"internalType": "enum UserAuth.ProfileStatus",
							"name": "oldStatus",
							"type": "uint8"
						},
						{
							"indexed": false,
							"internalType": "enum UserAuth.ProfileStatus",
							"name": "newStatus",
							"type": "uint8"
						},
						{
							"indexed": false,
							"internalType": "uint256",
							"name": "timestamp",
							"type": "uint256"
						}
					],
					"name": "UserProfileStatusChanged",
					"type": "event"
				},
				{
					"anonymous": false,
					"inputs": [
						{
							"indexed": true,
							"internalType": "address",
							"name": "userAddress",
							"type": "address"
						},
						{
							"indexed": false,
							"internalType": "bytes32",
							"name": "profileDataHash",
							"type": "bytes32"
						},
						{
							"indexed": false,
							"internalType": "bytes32",
							"name": "publicKeyHash",
							"type": "bytes32"
						},
						{
							"indexed": false,
							"internalType": "uint256",
							"name": "timestamp",
							"type": "uint256"
						}
					],
					"name": "UserProfileUpdated",
					"type": "event"
				},
				{
					"anonymous": false,
					"inputs": [
						{
							"indexed": true,
							"internalType": "address",
							"name": "userAddress",
							"type": "address"
						},
						{
							"indexed": true,
							"internalType": "bytes32",
							"name": "usernameHash",
							"type": "bytes32"
						},
						{
							"indexed": false,
							"internalType": "uint256",
							"name": "timestamp",
							"type": "uint256"
						}
					],
					"name": "UserRegistered",
					"type": "event"
				},
				{
					"inputs": [
						{
							"internalType": "address",
							"name": "requester",
							"type": "address"
						},
						{
							"internalType": "address",
							"name": "userAddress",
							"type": "address"
						}
					],
					"name": "checkUserDataAccess",
					"outputs": [
						{
							"internalType": "bool",
							"name": "",
							"type": "bool"
						}
					],
					"stateMutability": "view",
					"type": "function"
				},
				{
					"inputs": [],
					"name": "deactivateAccount",
					"outputs": [],
					"stateMutability": "nonpayable",
					"type": "function"
				},
				{
					"inputs": [],
					"name": "getActiveUsers",
					"outputs": [
						{
							"internalType": "uint256",
							"name": "count",
							"type": "uint256"
						}
					],
					"stateMutability": "view",
					"type": "function"
				},
				{
					"inputs": [],
					"name": "getMyProfileInfo",
					"outputs": [
						{
							"internalType": "bytes32",
							"name": "usernameHash",
							"type": "bytes32"
						},
						{
							"internalType": "uint256",
							"name": "createdAt",
							"type": "uint256"
						},
						{
							"internalType": "bool",
							"name": "isActive",
							"type": "bool"
						},
						{
							"internalType": "bytes32",
							"name": "profileDataHash",
							"type": "bytes32"
						},
						{
							"internalType": "bytes32",
							"name": "publicKeyHash",
							"type": "bytes32"
						},
						{
							"internalType": "enum UserAuth.ProfileStatus",
							"name": "profileStatus",
							"type": "uint8"
						}
					],
					"stateMutability": "view",
					"type": "function"
				},
				{
					"inputs": [
						{
							"internalType": "address",
							"name": "userAddress",
							"type": "address"
						}
					],
					"name": "getPublicUserProfile",
					"outputs": [
						{
							"internalType": "bytes32",
							"name": "usernameHash",
							"type": "bytes32"
						},
						{
							"internalType": "bytes32",
							"name": "profileDataHash",
							"type": "bytes32"
						},
						{
							"internalType": "bytes32",
							"name": "publicKeyHash",
							"type": "bytes32"
						},
						{
							"internalType": "uint256",
							"name": "createdAt",
							"type": "uint256"
						}
					],
					"stateMutability": "view",
					"type": "function"
				},
				{
					"inputs": [],
					"name": "getTotalUsers",
					"outputs": [
						{
							"internalType": "uint256",
							"name": "count",
							"type": "uint256"
						}
					],
					"stateMutability": "view",
					"type": "function"
				},
				{
					"inputs": [],
					"name": "getUserInfo",
					"outputs": [
						{
							"internalType": "bytes32",
							"name": "usernameHash",
							"type": "bytes32"
						},
						{
							"internalType": "uint256",
							"name": "createdAt",
							"type": "uint256"
						},
						{
							"internalType": "bool",
							"name": "isActive",
							"type": "bool"
						}
					],
					"stateMutability": "view",
					"type": "function"
				},
				{
					"inputs": [
						{
							"internalType": "address",
							"name": "userAddress",
							"type": "address"
						}
					],
					"name": "isUserActive",
					"outputs": [
						{
							"internalType": "bool",
							"name": "",
							"type": "bool"
						}
					],
					"stateMutability": "view",
					"type": "function"
				},
				{
					"inputs": [
						{
							"internalType": "string",
							"name": "username",
							"type": "string"
						}
					],
					"name": "isUsernameAvailable",
					"outputs": [
						{
							"internalType": "bool",
							"name": "available",
							"type": "bool"
						}
					],
					"stateMutability": "view",
					"type": "function"
				},
				{
					"inputs": [
						{
							"internalType": "string",
							"name": "username",
							"type": "string"
						},
						{
							"internalType": "string",
							"name": "password",
							"type": "string"
						}
					],
					"name": "login",
					"outputs": [
						{
							"internalType": "bool",
							"name": "success",
							"type": "bool"
						}
					],
					"stateMutability": "view",
					"type": "function"
				},
				{
					"inputs": [],
					"name": "makeProfilePrivate",
					"outputs": [],
					"stateMutability": "nonpayable",
					"type": "function"
				},
				{
					"inputs": [],
					"name": "makeProfilePublic",
					"outputs": [],
					"stateMutability": "nonpayable",
					"type": "function"
				},
				{
					"inputs": [
						{
							"internalType": "string",
							"name": "username",
							"type": "string"
						},
						{
							"internalType": "string",
							"name": "password",
							"type": "string"
						}
					],
					"name": "register",
					"outputs": [],
					"stateMutability": "nonpayable",
					"type": "function"
				},
				{
					"inputs": [
						{
							"internalType": "string",
							"name": "username",
							"type": "string"
						},
						{
							"internalType": "string",
							"name": "password",
							"type": "string"
						},
						{
							"internalType": "bytes32",
							"name": "profileDataHash",
							"type": "bytes32"
						},
						{
							"internalType": "bytes32",
							"name": "publicKeyHash",
							"type": "bytes32"
						}
					],
					"name": "registerWithProfile",
					"outputs": [],
					"stateMutability": "nonpayable",
					"type": "function"
				},
				{
					"inputs": [
						{
							"internalType": "string",
							"name": "oldPassword",
							"type": "string"
						},
						{
							"internalType": "string",
							"name": "newPassword",
							"type": "string"
						}
					],
					"name": "updatePassword",
					"outputs": [],
					"stateMutability": "nonpayable",
					"type": "function"
				},
				{
					"inputs": [
						{
							"internalType": "bytes32",
							"name": "profileDataHash",
							"type": "bytes32"
						},
						{
							"internalType": "bytes32",
							"name": "publicKeyHash",
							"type": "bytes32"
						}
					],
					"name": "updateUserProfile",
					"outputs": [],
					"stateMutability": "nonpayable",
					"type": "function"
				},
				{
					"inputs": [
						{
							"internalType": "bytes32",
							"name": "",
							"type": "bytes32"
						}
					],
					"name": "usernameToAddress",
					"outputs": [
						{
							"internalType": "address",
							"name": "",
							"type": "address"
						}
					],
					"stateMutability": "view",
					"type": "function"
				},
				{
					"inputs": [
						{
							"internalType": "address",
							"name": "",
							"type": "address"
						}
					],
					"name": "users",
					"outputs": [
						{
							"internalType": "bytes32",
							"name": "usernameHash",
							"type": "bytes32"
						},
						{
							"internalType": "bytes32",
							"name": "passwordHash",
							"type": "bytes32"
						},
						{
							"internalType": "uint256",
							"name": "createdAt",
							"type": "uint256"
						},
						{
							"internalType": "bool",
							"name": "isActive",
							"type": "bool"
						},
						{
							"internalType": "bytes32",
							"name": "profileDataHash",
							"type": "bytes32"
						},
						{
							"internalType": "bytes32",
							"name": "publicKeyHash",
							"type": "bytes32"
						},
						{
							"internalType": "enum UserAuth.ProfileStatus",
							"name": "profileStatus",
							"type": "uint8"
						}
					],
					"stateMutability": "view",
					"type": "function"
				}
			],
			"devdoc": {
				"details": "智能合约用于安全存储用户认证信息 注意：在实际生产环境中，不应该在区块链上存储明文密码 这里仅作为演示，实际应用应该使用密码哈希值",
				"kind": "dev",
				"methods": {
					"checkUserDataAccess(address,address)": {
						"details": "检查 requester 是否可访问 userAddress 的资料"
					},
					"deactivateAccount()": {
						"details": "停用用户账户"
					},
					"getActiveUsers()": {
						"details": "获取激活状态用户数量"
					},
					"getMyProfileInfo()": {
						"details": "获取当前用户完整资料信息"
					},
					"getPublicUserProfile(address)": {
						"details": "读取公开用户资料（仅在用户激活且资料为公开时可读）",
						"params": {
							"userAddress": "目标用户地址"
						}
					},
					"getTotalUsers()": {
						"details": "获取注册用户总数",
						"returns": {
							"count": "用户总数"
						}
					},
					"getUserInfo()": {
						"details": "获取用户信息（不包含敏感数据）",
						"returns": {
							"createdAt": "创建时间",
							"isActive": "是否激活",
							"usernameHash": "用户名哈希"
						}
					},
					"isUserActive(address)": {
						"details": "检查地址是否注册且激活"
					},
					"isUsernameAvailable(string)": {
						"details": "检查用户名是否可用",
						"params": {
							"username": "用户名（明文）"
						},
						"returns": {
							"available": "是否可用"
						}
					},
					"login(string,string)": {
						"details": "用户登录验证",
						"params": {
							"password": "密码（明文）",
							"username": "用户名（明文）"
						},
						"returns": {
							"success": "登录是否成功"
						}
					},
					"makeProfilePrivate()": {
						"details": "将用户资料设为私密"
					},
					"makeProfilePublic()": {
						"details": "将用户资料设为公开"
					},
					"register(string,string)": {
						"details": "注册新用户",
						"params": {
							"password": "密码（明文）",
							"username": "用户名（明文）"
						}
					},
					"registerWithProfile(string,string,bytes32,bytes32)": {
						"details": "注册用户并附带资料哈希与公钥哈希",
						"params": {
							"password": "密码（明文）",
							"profileDataHash": "用户资料哈希",
							"publicKeyHash": "用户公钥哈希",
							"username": "用户名（明文）"
						}
					},
					"updatePassword(string,string)": {
						"details": "更新密码",
						"params": {
							"newPassword": "新密码（明文）",
							"oldPassword": "旧密码（明文）"
						}
					},
					"updateUserProfile(bytes32,bytes32)": {
						"details": "更新用户资料哈希和公钥哈希",
						"params": {
							"profileDataHash": "用户资料哈希",
							"publicKeyHash": "用户公钥哈希"
						}
					}
				},
				"title": "UserAuth",
				"version": 1
			},
			"evm": {
				"assembly": "    /* \"UserAuth.sol\":889:11456  contract UserAuth {... */\n  mstore(0x40, 0x80)\n  callvalue\n  dup1\n  iszero\n  tag_1\n  jumpi\n  revert(0x00, 0x00)\ntag_1:\n  pop\n  dataSize(sub_0)\n  dup1\n  dataOffset(sub_0)\n  0x00\n  codecopy\n  0x00\n  return\nstop\n\nsub_0: assembly {\n        /* \"UserAuth.sol\":889:11456  contract UserAuth {... */\n      mstore(0x40, 0x80)\n      callvalue\n      dup1\n      iszero\n      tag_1\n      jumpi\n      revert(0x00, 0x00)\n    tag_1:\n      pop\n      jumpi(tag_2, lt(calldatasize, 0x04))\n      shr(0xe0, calldataload(0x00))\n      dup1\n      0x9be572f6\n      gt\n      tag_21\n      jumpi\n      dup1\n      0xcdfbb351\n      gt\n      tag_22\n      jumpi\n      dup1\n      0xcdfbb351\n      eq\n      tag_16\n      jumpi\n      dup1\n      0xe040e9a0\n      eq\n      tag_17\n      jumpi\n      dup1\n      0xf5593607\n      eq\n      tag_18\n      jumpi\n      dup1\n      0xf69c6dec\n      eq\n      tag_19\n      jumpi\n      dup1\n      0xfab208ca\n      eq\n      tag_20\n      jumpi\n      jump(tag_2)\n    tag_22:\n      dup1\n      0x9be572f6\n      eq\n      tag_12\n      jumpi\n      dup1\n      0x9ee20b15\n      eq\n      tag_13\n      jumpi\n      dup1\n      0xa87430ba\n      eq\n      tag_14\n      jumpi\n      dup1\n      0xa876f952\n      eq\n      tag_15\n      jumpi\n      jump(tag_2)\n    tag_21:\n      dup1\n      0x523435c8\n      gt\n      tag_23\n      jumpi\n      dup1\n      0x523435c8\n      eq\n      tag_7\n      jumpi\n      dup1\n      0x58467dbc\n      eq\n      tag_8\n      jumpi\n      dup1\n      0x5d8d1585\n      eq\n      tag_9\n      jumpi\n      dup1\n      0x65171072\n      eq\n      tag_10\n      jumpi\n      dup1\n      0x7e9a1f2c\n      eq\n      tag_11\n      jumpi\n      jump(tag_2)\n    tag_23:\n      dup1\n      0x2fdf15d5\n      eq\n      tag_3\n      jumpi\n      dup1\n      0x3265b453\n      eq\n      tag_4\n      jumpi\n      dup1\n      0x3df60461\n      eq\n      tag_5\n      jumpi\n      dup1\n      0x3ffbd47f\n      eq\n      tag_6\n      jumpi\n    tag_2:\n      revert(0x00, 0x00)\n        /* \"UserAuth.sol\":1754:1806  mapping(bytes32 => address) public usernameToAddress */\n    tag_3:\n      tag_24\n      0x04\n      dup1\n      calldatasize\n      sub\n      dup2\n      add\n      swap1\n      tag_25\n      swap2\n      swap1\n      tag_26\n      jump\t// in\n    tag_25:\n      tag_27\n      jump\t// in\n    tag_24:\n      mload(0x40)\n      tag_28\n      swap2\n      swap1\n      tag_29\n      jump\t// in\n    tag_28:\n      mload(0x40)\n      dup1\n      swap2\n      sub\n      swap1\n      return\n        /* \"UserAuth.sol\":9190:9732  function getPublicUserProfile(address userAddress)... */\n    tag_4:\n      tag_30\n      0x04\n      dup1\n      calldatasize\n      sub\n      dup2\n      add\n      swap1\n      tag_31\n      swap2\n      swap1\n      tag_32\n      jump\t// in\n    tag_31:\n      tag_33\n      jump\t// in\n    tag_30:\n      mload(0x40)\n      tag_34\n      swap5\n      swap4\n      swap3\n      swap2\n      swap1\n      tag_35\n      jump\t// in\n    tag_34:\n      mload(0x40)\n      dup1\n      swap2\n      sub\n      swap1\n      return\n        /* \"UserAuth.sol\":6271:6676  function makeProfilePublic() public onlyRegisteredUser {... */\n    tag_5:\n      tag_36\n      tag_37\n      jump\t// in\n    tag_36:\n      stop\n        /* \"UserAuth.sol\":2842:4146  function register(string memory username, string memory password) public {... */\n    tag_6:\n      tag_38\n      0x04\n      dup1\n      calldatasize\n      sub\n      dup2\n      add\n      swap1\n      tag_39\n      swap2\n      swap1\n      tag_40\n      jump\t// in\n    tag_39:\n      tag_41\n      jump\t// in\n    tag_38:\n      stop\n        /* \"UserAuth.sol\":6738:7146  function makeProfilePrivate() public onlyRegisteredUser {... */\n    tag_7:\n      tag_42\n      tag_43\n      jump\t// in\n    tag_42:\n      stop\n        /* \"UserAuth.sol\":5026:5718  function login(string memory username, string memory password) public view returns (bool success) {... */\n    tag_8:\n      tag_44\n      0x04\n      dup1\n      calldatasize\n      sub\n      dup2\n      add\n      swap1\n      tag_45\n      swap2\n      swap1\n      tag_40\n      jump\t// in\n    tag_45:\n      tag_46\n      jump\t// in\n    tag_44:\n      mload(0x40)\n      tag_47\n      swap2\n      swap1\n      tag_48\n      jump\t// in\n    tag_47:\n      mload(0x40)\n      dup1\n      swap2\n      sub\n      swap1\n      return\n        /* \"UserAuth.sol\":8140:8380  function getUserInfo() public view onlyRegisteredUser returns (bytes32 usernameHash, uint256 createdAt, bool isActive) {... */\n    tag_9:\n      tag_49\n      tag_50\n      jump\t// in\n    tag_49:\n      mload(0x40)\n      tag_51\n      swap4\n      swap3\n      swap2\n      swap1\n      tag_52\n      jump\t// in\n    tag_51:\n      mload(0x40)\n      dup1\n      swap2\n      sub\n      swap1\n      return\n        /* \"UserAuth.sol\":4412:4840  function registerWithProfile(... */\n    tag_10:\n      tag_53\n      0x04\n      dup1\n      calldatasize\n      sub\n      dup2\n      add\n      swap1\n      tag_54\n      swap2\n      swap1\n      tag_55\n      jump\t// in\n    tag_54:\n      tag_56\n      jump\t// in\n    tag_53:\n      stop\n        /* \"UserAuth.sol\":5888:6209  function updateUserProfile(bytes32 profileDataHash, bytes32 publicKeyHash) public onlyRegisteredUser {... */\n    tag_11:\n      tag_57\n      0x04\n      dup1\n      calldatasize\n      sub\n      dup2\n      add\n      swap1\n      tag_58\n      swap2\n      swap1\n      tag_59\n      jump\t// in\n    tag_58:\n      tag_60\n      jump\t// in\n    tag_57:\n      stop\n        /* \"UserAuth.sol\":11008:11103  function getTotalUsers() public view returns (uint256 count) {... */\n    tag_12:\n      tag_61\n      tag_62\n      jump\t// in\n    tag_61:\n      mload(0x40)\n      tag_63\n      swap2\n      swap1\n      tag_64\n      jump\t// in\n    tag_63:\n      mload(0x40)\n      dup1\n      swap2\n      sub\n      swap1\n      return\n        /* \"UserAuth.sol\":11333:11454  function isUserActive(address userAddress) public view returns (bool) {... */\n    tag_13:\n      tag_65\n      0x04\n      dup1\n      calldatasize\n      sub\n      dup2\n      add\n      swap1\n      tag_66\n      swap2\n      swap1\n      tag_32\n      jump\t// in\n    tag_66:\n      tag_67\n      jump\t// in\n    tag_65:\n      mload(0x40)\n      tag_68\n      swap2\n      swap1\n      tag_48\n      jump\t// in\n    tag_68:\n      mload(0x40)\n      dup1\n      swap2\n      sub\n      swap1\n      return\n        /* \"UserAuth.sol\":1634:1671  mapping(address => User) public users */\n    tag_14:\n      tag_69\n      0x04\n      dup1\n      calldatasize\n      sub\n      dup2\n      add\n      swap1\n      tag_70\n      swap2\n      swap1\n      tag_32\n      jump\t// in\n    tag_70:\n      tag_71\n      jump\t// in\n    tag_69:\n      mload(0x40)\n      tag_72\n      swap8\n      swap7\n      swap6\n      swap5\n      swap4\n      swap3\n      swap2\n      swap1\n      tag_73\n      jump\t// in\n    tag_72:\n      mload(0x40)\n      dup1\n      swap2\n      sub\n      swap1\n      return\n        /* \"UserAuth.sol\":9821:10174  function checkUserDataAccess(address requester, address userAddress) public view returns (bool) {... */\n    tag_15:\n      tag_74\n      0x04\n      dup1\n      calldatasize\n      sub\n      dup2\n      add\n      swap1\n      tag_75\n      swap2\n      swap1\n      tag_76\n      jump\t// in\n    tag_75:\n      tag_77\n      jump\t// in\n    tag_74:\n      mload(0x40)\n      tag_78\n      swap2\n      swap1\n      tag_48\n      jump\t// in\n    tag_78:\n      mload(0x40)\n      dup1\n      swap2\n      sub\n      swap1\n      return\n        /* \"UserAuth.sol\":7293:7937  function updatePassword(string memory oldPassword, string memory newPassword) public onlyRegisteredUser {... */\n    tag_16:\n      tag_79\n      0x04\n      dup1\n      calldatasize\n      sub\n      dup2\n      add\n      swap1\n      tag_80\n      swap2\n      swap1\n      tag_40\n      jump\t// in\n    tag_80:\n      tag_81\n      jump\t// in\n    tag_79:\n      stop\n        /* \"UserAuth.sol\":10231:10533  function deactivateAccount() public onlyRegisteredUser {... */\n    tag_17:\n      tag_82\n      tag_83\n      jump\t// in\n    tag_82:\n      stop\n        /* \"UserAuth.sol\":11168:11265  function getActiveUsers() public view returns (uint256 count) {... */\n    tag_18:\n      tag_84\n      tag_85\n      jump\t// in\n    tag_84:\n      mload(0x40)\n      tag_86\n      swap2\n      swap1\n      tag_64\n      jump\t// in\n    tag_86:\n      mload(0x40)\n      dup1\n      swap2\n      sub\n      swap1\n      return\n        /* \"UserAuth.sol\":10682:10911  function isUsernameAvailable(string memory username) public view returns (bool available) {... */\n    tag_19:\n      tag_87\n      0x04\n      dup1\n      calldatasize\n      sub\n      dup2\n      add\n      swap1\n      tag_88\n      swap2\n      swap1\n      tag_89\n      jump\t// in\n    tag_88:\n      tag_90\n      jump\t// in\n    tag_87:\n      mload(0x40)\n      tag_91\n      swap2\n      swap1\n      tag_48\n      jump\t// in\n    tag_91:\n      mload(0x40)\n      dup1\n      swap2\n      sub\n      swap1\n      return\n        /* \"UserAuth.sol\":8451:9035  function getMyProfileInfo()... */\n    tag_20:\n      tag_92\n      tag_93\n      jump\t// in\n    tag_92:\n      mload(0x40)\n      tag_94\n      swap7\n      swap6\n      swap5\n      swap4\n      swap3\n      swap2\n      swap1\n      tag_95\n      jump\t// in\n    tag_94:\n      mload(0x40)\n      dup1\n      swap2\n      sub\n      swap1\n      return\n        /* \"UserAuth.sol\":1754:1806  mapping(bytes32 => address) public usernameToAddress */\n    tag_27:\n      mstore(0x20, 0x01)\n      dup1\n      0x00\n      mstore\n      keccak256(0x00, 0x40)\n      0x00\n      swap2\n      pop\n      sload\n      swap1\n      0x0100\n      exp\n      swap1\n      div\n      0xffffffffffffffffffffffffffffffffffffffff\n      and\n      dup2\n      jump\t// out\n        /* \"UserAuth.sol\":9190:9732  function getPublicUserProfile(address userAddress)... */\n    tag_33:\n        /* \"UserAuth.sol\":9299:9319  bytes32 usernameHash */\n      0x00\n        /* \"UserAuth.sol\":9333:9356  bytes32 profileDataHash */\n      0x00\n        /* \"UserAuth.sol\":9370:9391  bytes32 publicKeyHash */\n      0x00\n        /* \"UserAuth.sol\":9405:9422  uint256 createdAt */\n      0x00\n        /* \"UserAuth.sol\":9447:9464  User storage user */\n      0x00\n        /* \"UserAuth.sol\":9467:9472  users */\n      0x00\n        /* \"UserAuth.sol\":9467:9485  users[userAddress] */\n      0x00\n        /* \"UserAuth.sol\":9473:9484  userAddress */\n      dup8\n        /* \"UserAuth.sol\":9467:9485  users[userAddress] */\n      0xffffffffffffffffffffffffffffffffffffffff\n      and\n      0xffffffffffffffffffffffffffffffffffffffff\n      and\n      dup2\n      mstore\n      0x20\n      add\n      swap1\n      dup2\n      mstore\n      0x20\n      add\n      0x00\n      keccak256\n        /* \"UserAuth.sol\":9447:9485  User storage user = users[userAddress] */\n      swap1\n      pop\n        /* \"UserAuth.sol\":9503:9507  user */\n      dup1\n        /* \"UserAuth.sol\":9503:9516  user.isActive */\n      0x03\n      add\n      0x00\n      swap1\n      sload\n      swap1\n      0x0100\n      exp\n      swap1\n      div\n      0xff\n      and\n        /* \"UserAuth.sol\":9495:9547  require(user.isActive, \"User inactive or not found\") */\n      tag_97\n      jumpi\n      mload(0x40)\n      0x08c379a000000000000000000000000000000000000000000000000000000000\n      dup2\n      mstore\n      0x04\n      add\n      tag_98\n      swap1\n      tag_99\n      jump\t// in\n    tag_98:\n      mload(0x40)\n      dup1\n      swap2\n      sub\n      swap1\n      revert\n    tag_97:\n        /* \"UserAuth.sol\":9587:9607  ProfileStatus.Public */\n      0x01\n        /* \"UserAuth.sol\":9565:9607  user.profileStatus == ProfileStatus.Public */\n      dup1\n      dup2\n      gt\n      iszero\n      tag_100\n      jumpi\n      tag_101\n      tag_102\n      jump\t// in\n    tag_101:\n    tag_100:\n        /* \"UserAuth.sol\":9565:9569  user */\n      dup2\n        /* \"UserAuth.sol\":9565:9583  user.profileStatus */\n      0x06\n      add\n      0x00\n      swap1\n      sload\n      swap1\n      0x0100\n      exp\n      swap1\n      div\n      0xff\n      and\n        /* \"UserAuth.sol\":9565:9607  user.profileStatus == ProfileStatus.Public */\n      0x01\n      dup2\n      gt\n      iszero\n      tag_103\n      jumpi\n      tag_104\n      tag_102\n      jump\t// in\n    tag_104:\n    tag_103:\n      eq\n        /* \"UserAuth.sol\":9557:9630  require(user.profileStatus == ProfileStatus.Public, \"Profile is private\") */\n      tag_105\n      jumpi\n      mload(0x40)\n      0x08c379a000000000000000000000000000000000000000000000000000000000\n      dup2\n      mstore\n      0x04\n      add\n      tag_106\n      swap1\n      tag_107\n      jump\t// in\n    tag_106:\n      mload(0x40)\n      dup1\n      swap2\n      sub\n      swap1\n      revert\n    tag_105:\n        /* \"UserAuth.sol\":9649:9653  user */\n      dup1\n        /* \"UserAuth.sol\":9649:9666  user.usernameHash */\n      0x00\n      add\n      sload\n        /* \"UserAuth.sol\":9668:9672  user */\n      dup2\n        /* \"UserAuth.sol\":9668:9688  user.profileDataHash */\n      0x04\n      add\n      sload\n        /* \"UserAuth.sol\":9690:9694  user */\n      dup3\n        /* \"UserAuth.sol\":9690:9708  user.publicKeyHash */\n      0x05\n      add\n      sload\n        /* \"UserAuth.sol\":9710:9714  user */\n      dup4\n        /* \"UserAuth.sol\":9710:9724  user.createdAt */\n      0x02\n      add\n      sload\n        /* \"UserAuth.sol\":9641:9725  return (user.usernameHash, user.profileDataHash, user.publicKeyHash, user.createdAt) */\n      swap5\n      pop\n      swap5\n      pop\n      swap5\n      pop\n      swap5\n      pop\n      pop\n        /* \"UserAuth.sol\":9190:9732  function getPublicUserProfile(address userAddress)... */\n      swap2\n      swap4\n      pop\n      swap2\n      swap4\n      jump\t// out\n        /* \"UserAuth.sol\":6271:6676  function makeProfilePublic() public onlyRegisteredUser {... */\n    tag_37:\n        /* \"UserAuth.sol\":2621:2626  users */\n      0x00\n        /* \"UserAuth.sol\":2621:2638  users[msg.sender] */\n      0x00\n        /* \"UserAuth.sol\":2627:2637  msg.sender */\n      caller\n        /* \"UserAuth.sol\":2621:2638  users[msg.sender] */\n      0xffffffffffffffffffffffffffffffffffffffff\n      and\n      0xffffffffffffffffffffffffffffffffffffffff\n      and\n      dup2\n      mstore\n      0x20\n      add\n      swap1\n      dup2\n      mstore\n      0x20\n      add\n      0x00\n      keccak256\n        /* \"UserAuth.sol\":2621:2647  users[msg.sender].isActive */\n      0x03\n      add\n      0x00\n      swap1\n      sload\n      swap1\n      0x0100\n      exp\n      swap1\n      div\n      0xff\n      and\n        /* \"UserAuth.sol\":2613:2683  require(users[msg.sender].isActive, \"User not registered or inactive\") */\n      tag_109\n      jumpi\n      mload(0x40)\n      0x08c379a000000000000000000000000000000000000000000000000000000000\n      dup2\n      mstore\n      0x04\n      add\n      tag_110\n      swap1\n      tag_111\n      jump\t// in\n    tag_110:\n      mload(0x40)\n      dup1\n      swap2\n      sub\n      swap1\n      revert\n    tag_109:\n        /* \"UserAuth.sol\":6336:6353  User storage user */\n      0x00\n        /* \"UserAuth.sol\":6356:6361  users */\n      0x00\n        /* \"UserAuth.sol\":6356:6373  users[msg.sender] */\n      0x00\n        /* \"UserAuth.sol\":6362:6372  msg.sender */\n      caller\n        /* \"UserAuth.sol\":6356:6373  users[msg.sender] */\n      0xffffffffffffffffffffffffffffffffffffffff\n      and\n      0xffffffffffffffffffffffffffffffffffffffff\n      and\n      dup2\n      mstore\n      0x20\n      add\n      swap1\n      dup2\n      mstore\n      0x20\n      add\n      0x00\n      keccak256\n        /* \"UserAuth.sol\":6336:6373  User storage user = users[msg.sender] */\n      swap1\n      pop\n        /* \"UserAuth.sol\":6413:6434  ProfileStatus.Private */\n      0x00\n        /* \"UserAuth.sol\":6391:6434  user.profileStatus == ProfileStatus.Private */\n      0x01\n      dup2\n      gt\n      iszero\n      tag_113\n      jumpi\n      tag_114\n      tag_102\n      jump\t// in\n    tag_114:\n    tag_113:\n        /* \"UserAuth.sol\":6391:6395  user */\n      dup2\n        /* \"UserAuth.sol\":6391:6409  user.profileStatus */\n      0x06\n      add\n      0x00\n      swap1\n      sload\n      swap1\n      0x0100\n      exp\n      swap1\n      div\n      0xff\n      and\n        /* \"UserAuth.sol\":6391:6434  user.profileStatus == ProfileStatus.Private */\n      0x01\n      dup2\n      gt\n      iszero\n      tag_115\n      jumpi\n      tag_116\n      tag_102\n      jump\t// in\n    tag_116:\n    tag_115:\n      eq\n        /* \"UserAuth.sol\":6383:6461  require(user.profileStatus == ProfileStatus.Private, \"Profile already public\") */\n      tag_117\n      jumpi\n      mload(0x40)\n      0x08c379a000000000000000000000000000000000000000000000000000000000\n      dup2\n      mstore\n      0x04\n      add\n      tag_118\n      swap1\n      tag_119\n      jump\t// in\n    tag_118:\n      mload(0x40)\n      dup1\n      swap2\n      sub\n      swap1\n      revert\n    tag_117:\n        /* \"UserAuth.sol\":6472:6495  ProfileStatus oldStatus */\n      0x00\n        /* \"UserAuth.sol\":6498:6502  user */\n      dup2\n        /* \"UserAuth.sol\":6498:6516  user.profileStatus */\n      0x06\n      add\n      0x00\n      swap1\n      sload\n      swap1\n      0x0100\n      exp\n      swap1\n      div\n      0xff\n      and\n        /* \"UserAuth.sol\":6472:6516  ProfileStatus oldStatus = user.profileStatus */\n      swap1\n      pop\n        /* \"UserAuth.sol\":6547:6567  ProfileStatus.Public */\n      0x01\n        /* \"UserAuth.sol\":6526:6530  user */\n      dup3\n        /* \"UserAuth.sol\":6526:6544  user.profileStatus */\n      0x06\n      add\n      0x00\n        /* \"UserAuth.sol\":6526:6567  user.profileStatus = ProfileStatus.Public */\n      0x0100\n      exp\n      dup2\n      sload\n      dup2\n      0xff\n      mul\n      not\n      and\n      swap1\n      dup4\n      0x01\n      dup2\n      gt\n      iszero\n      tag_120\n      jumpi\n      tag_121\n      tag_102\n      jump\t// in\n    tag_121:\n    tag_120:\n      mul\n      or\n      swap1\n      sstore\n      pop\n        /* \"UserAuth.sol\":6608:6618  msg.sender */\n      caller\n        /* \"UserAuth.sol\":6583:6669  UserProfileStatusChanged(msg.sender, oldStatus, ProfileStatus.Public, block.timestamp) */\n      0xffffffffffffffffffffffffffffffffffffffff\n      and\n      0xe4af6a8baf93b009d9448cca7ed6797e55063d93424cd1fe6568340203e1173d\n        /* \"UserAuth.sol\":6620:6629  oldStatus */\n      dup3\n        /* \"UserAuth.sol\":6631:6651  ProfileStatus.Public */\n      0x01\n        /* \"UserAuth.sol\":6653:6668  block.timestamp */\n      timestamp\n        /* \"UserAuth.sol\":6583:6669  UserProfileStatusChanged(msg.sender, oldStatus, ProfileStatus.Public, block.timestamp) */\n      mload(0x40)\n      tag_122\n      swap4\n      swap3\n      swap2\n      swap1\n      tag_123\n      jump\t// in\n    tag_122:\n      mload(0x40)\n      dup1\n      swap2\n      sub\n      swap1\n      log2\n        /* \"UserAuth.sol\":6326:6676  {... */\n      pop\n      pop\n        /* \"UserAuth.sol\":6271:6676  function makeProfilePublic() public onlyRegisteredUser {... */\n      jump\t// out\n        /* \"UserAuth.sol\":2842:4146  function register(string memory username, string memory password) public {... */\n    tag_41:\n        /* \"UserAuth.sol\":2958:2959  0 */\n      0x00\n        /* \"UserAuth.sol\":2939:2947  username */\n      dup3\n        /* \"UserAuth.sol\":2933:2955  bytes(username).length */\n      mload\n        /* \"UserAuth.sol\":2933:2959  bytes(username).length > 0 */\n      gt\n        /* \"UserAuth.sol\":2925:2988  require(bytes(username).length > 0, \"Username cannot be empty\") */\n      tag_125\n      jumpi\n      mload(0x40)\n      0x08c379a000000000000000000000000000000000000000000000000000000000\n      dup2\n      mstore\n      0x04\n      add\n      tag_126\n      swap1\n      tag_127\n      jump\t// in\n    tag_126:\n      mload(0x40)\n      dup1\n      swap2\n      sub\n      swap1\n      revert\n    tag_125:\n        /* \"UserAuth.sol\":3031:3032  0 */\n      0x00\n        /* \"UserAuth.sol\":3012:3020  password */\n      dup2\n        /* \"UserAuth.sol\":3006:3028  bytes(password).length */\n      mload\n        /* \"UserAuth.sol\":3006:3032  bytes(password).length > 0 */\n      gt\n        /* \"UserAuth.sol\":2998:3061  require(bytes(password).length > 0, \"Password cannot be empty\") */\n      tag_128\n      jumpi\n      mload(0x40)\n      0x08c379a000000000000000000000000000000000000000000000000000000000\n      dup2\n      mstore\n      0x04\n      add\n      tag_129\n      swap1\n      tag_130\n      jump\t// in\n    tag_129:\n      mload(0x40)\n      dup1\n      swap2\n      sub\n      swap1\n      revert\n    tag_128:\n        /* \"UserAuth.sol\":3080:3085  users */\n      0x00\n        /* \"UserAuth.sol\":3080:3097  users[msg.sender] */\n      0x00\n        /* \"UserAuth.sol\":3086:3096  msg.sender */\n      caller\n        /* \"UserAuth.sol\":3080:3097  users[msg.sender] */\n      0xffffffffffffffffffffffffffffffffffffffff\n      and\n      0xffffffffffffffffffffffffffffffffffffffff\n      and\n      dup2\n      mstore\n      0x20\n      add\n      swap1\n      dup2\n      mstore\n      0x20\n      add\n      0x00\n      keccak256\n        /* \"UserAuth.sol\":3080:3106  users[msg.sender].isActive */\n      0x03\n      add\n      0x00\n      swap1\n      sload\n      swap1\n      0x0100\n      exp\n      swap1\n      div\n      0xff\n      and\n        /* \"UserAuth.sol\":3079:3106  !users[msg.sender].isActive */\n      iszero\n        /* \"UserAuth.sol\":3071:3134  require(!users[msg.sender].isActive, \"User already registered\") */\n      tag_131\n      jumpi\n      mload(0x40)\n      0x08c379a000000000000000000000000000000000000000000000000000000000\n      dup2\n      mstore\n      0x04\n      add\n      tag_132\n      swap1\n      tag_133\n      jump\t// in\n    tag_132:\n      mload(0x40)\n      dup1\n      swap2\n      sub\n      swap1\n      revert\n    tag_131:\n        /* \"UserAuth.sol\":3219:3239  bytes32 usernameHash */\n      0x00\n        /* \"UserAuth.sol\":3269:3277  username */\n      dup3\n        /* \"UserAuth.sol\":3252:3278  abi.encodePacked(username) */\n      add(0x20, mload(0x40))\n      tag_134\n      swap2\n      swap1\n      tag_135\n      jump\t// in\n    tag_134:\n      mload(0x40)\n      0x20\n      dup2\n      dup4\n      sub\n      sub\n      dup2\n      mstore\n      swap1\n      0x40\n      mstore\n        /* \"UserAuth.sol\":3242:3279  keccak256(abi.encodePacked(username)) */\n      dup1\n      mload\n      swap1\n      0x20\n      add\n      keccak256\n        /* \"UserAuth.sol\":3219:3279  bytes32 usernameHash = keccak256(abi.encodePacked(username)) */\n      swap1\n      pop\n        /* \"UserAuth.sol\":3289:3309  bytes32 passwordHash */\n      0x00\n        /* \"UserAuth.sol\":3339:3347  password */\n      dup3\n        /* \"UserAuth.sol\":3322:3348  abi.encodePacked(password) */\n      add(0x20, mload(0x40))\n      tag_136\n      swap2\n      swap1\n      tag_135\n      jump\t// in\n    tag_136:\n      mload(0x40)\n      0x20\n      dup2\n      dup4\n      sub\n      sub\n      dup2\n      mstore\n      swap1\n      0x40\n      mstore\n        /* \"UserAuth.sol\":3312:3349  keccak256(abi.encodePacked(password)) */\n      dup1\n      mload\n      swap1\n      0x20\n      add\n      keccak256\n        /* \"UserAuth.sol\":3289:3349  bytes32 passwordHash = keccak256(abi.encodePacked(password)) */\n      swap1\n      pop\n        /* \"UserAuth.sol\":3461:3462  0 */\n      0x00\n        /* \"UserAuth.sol\":3418:3463  usernameToAddress[usernameHash] == address(0) */\n      0xffffffffffffffffffffffffffffffffffffffff\n      and\n        /* \"UserAuth.sol\":3418:3435  usernameToAddress */\n      0x01\n        /* \"UserAuth.sol\":3418:3449  usernameToAddress[usernameHash] */\n      0x00\n        /* \"UserAuth.sol\":3436:3448  usernameHash */\n      dup5\n        /* \"UserAuth.sol\":3418:3449  usernameToAddress[usernameHash] */\n      dup2\n      mstore\n      0x20\n      add\n      swap1\n      dup2\n      mstore\n      0x20\n      add\n      0x00\n      keccak256\n      0x00\n      swap1\n      sload\n      swap1\n      0x0100\n      exp\n      swap1\n      div\n      0xffffffffffffffffffffffffffffffffffffffff\n      and\n        /* \"UserAuth.sol\":3418:3463  usernameToAddress[usernameHash] == address(0) */\n      0xffffffffffffffffffffffffffffffffffffffff\n      and\n      eq\n        /* \"UserAuth.sol\":3410:3490  require(usernameToAddress[usernameHash] == address(0), \"Username already taken\") */\n      tag_137\n      jumpi\n      mload(0x40)\n      0x08c379a000000000000000000000000000000000000000000000000000000000\n      dup2\n      mstore\n      0x04\n      add\n      tag_138\n      swap1\n      tag_139\n      jump\t// in\n    tag_138:\n      mload(0x40)\n      dup1\n      swap2\n      sub\n      swap1\n      revert\n    tag_137:\n        /* \"UserAuth.sol\":3559:3853  User({... */\n      mload(0x40)\n      dup1\n      0xe0\n      add\n      0x40\n      mstore\n      dup1\n        /* \"UserAuth.sol\":3592:3604  usernameHash */\n      dup4\n        /* \"UserAuth.sol\":3559:3853  User({... */\n      dup2\n      mstore\n      0x20\n      add\n        /* \"UserAuth.sol\":3632:3644  passwordHash */\n      dup3\n        /* \"UserAuth.sol\":3559:3853  User({... */\n      dup2\n      mstore\n      0x20\n      add\n        /* \"UserAuth.sol\":3669:3684  block.timestamp */\n      timestamp\n        /* \"UserAuth.sol\":3559:3853  User({... */\n      dup2\n      mstore\n      0x20\n      add\n        /* \"UserAuth.sol\":3708:3712  true */\n      0x01\n        /* \"UserAuth.sol\":3559:3853  User({... */\n      iszero\n      iszero\n      dup2\n      mstore\n      0x20\n      add\n        /* \"UserAuth.sol\":3751:3752  0 */\n      0x00\n        /* \"UserAuth.sol\":3743:3753  bytes32(0) */\n      0x00\n      shl\n        /* \"UserAuth.sol\":3559:3853  User({... */\n      dup2\n      mstore\n      0x20\n      add\n        /* \"UserAuth.sol\":3790:3791  0 */\n      0x00\n        /* \"UserAuth.sol\":3782:3792  bytes32(0) */\n      0x00\n      shl\n        /* \"UserAuth.sol\":3559:3853  User({... */\n      dup2\n      mstore\n      0x20\n      add\n        /* \"UserAuth.sol\":3821:3842  ProfileStatus.Private */\n      0x00\n        /* \"UserAuth.sol\":3559:3853  User({... */\n      0x01\n      dup2\n      gt\n      iszero\n      tag_140\n      jumpi\n      tag_141\n      tag_102\n      jump\t// in\n    tag_141:\n    tag_140:\n      dup2\n      mstore\n      pop\n        /* \"UserAuth.sol\":3539:3544  users */\n      0x00\n        /* \"UserAuth.sol\":3539:3556  users[msg.sender] */\n      0x00\n        /* \"UserAuth.sol\":3545:3555  msg.sender */\n      caller\n        /* \"UserAuth.sol\":3539:3556  users[msg.sender] */\n      0xffffffffffffffffffffffffffffffffffffffff\n      and\n      0xffffffffffffffffffffffffffffffffffffffff\n      and\n      dup2\n      mstore\n      0x20\n      add\n      swap1\n      dup2\n      mstore\n      0x20\n      add\n      0x00\n      keccak256\n        /* \"UserAuth.sol\":3539:3853  users[msg.sender] = User({... */\n      0x00\n      dup3\n      add\n      mload\n      dup2\n      0x00\n      add\n      sstore\n      0x20\n      dup3\n      add\n      mload\n      dup2\n      0x01\n      add\n      sstore\n      0x40\n      dup3\n      add\n      mload\n      dup2\n      0x02\n      add\n      sstore\n      0x60\n      dup3\n      add\n      mload\n      dup2\n      0x03\n      add\n      exp(0x0100, 0x00)\n      dup2\n      sload\n      dup2\n      0xff\n      mul\n      not\n      and\n      swap1\n      dup4\n      iszero\n      iszero\n      mul\n      or\n      swap1\n      sstore\n      pop\n      0x80\n      dup3\n      add\n      mload\n      dup2\n      0x04\n      add\n      sstore\n      0xa0\n      dup3\n      add\n      mload\n      dup2\n      0x05\n      add\n      sstore\n      0xc0\n      dup3\n      add\n      mload\n      dup2\n      0x06\n      add\n      exp(0x0100, 0x00)\n      dup2\n      sload\n      dup2\n      0xff\n      mul\n      not\n      and\n      swap1\n      dup4\n      0x01\n      dup2\n      gt\n      iszero\n      tag_142\n      jumpi\n      tag_143\n      tag_102\n      jump\t// in\n    tag_143:\n    tag_142:\n      mul\n      or\n      swap1\n      sstore\n      pop\n      swap1\n      pop\n      pop\n        /* \"UserAuth.sol\":3996:4006  msg.sender */\n      caller\n        /* \"UserAuth.sol\":3962:3979  usernameToAddress */\n      0x01\n        /* \"UserAuth.sol\":3962:3993  usernameToAddress[usernameHash] */\n      0x00\n        /* \"UserAuth.sol\":3980:3992  usernameHash */\n      dup5\n        /* \"UserAuth.sol\":3962:3993  usernameToAddress[usernameHash] */\n      dup2\n      mstore\n      0x20\n      add\n      swap1\n      dup2\n      mstore\n      0x20\n      add\n      0x00\n      keccak256\n      0x00\n        /* \"UserAuth.sol\":3962:4006  usernameToAddress[usernameHash] = msg.sender */\n      0x0100\n      exp\n      dup2\n      sload\n      dup2\n      0xffffffffffffffffffffffffffffffffffffffff\n      mul\n      not\n      and\n      swap1\n      dup4\n      0xffffffffffffffffffffffffffffffffffffffff\n      and\n      mul\n      or\n      swap1\n      sstore\n      pop\n        /* \"UserAuth.sol\":4031:4032  1 */\n      0x01\n        /* \"UserAuth.sol\":4017:4027  totalUsers */\n      0x02\n      0x00\n        /* \"UserAuth.sol\":4017:4032  totalUsers += 1 */\n      dup3\n      dup3\n      sload\n      tag_144\n      swap2\n      swap1\n      tag_145\n      jump\t// in\n    tag_144:\n      swap3\n      pop\n      pop\n      dup2\n      swap1\n      sstore\n      pop\n        /* \"UserAuth.sol\":4057:4058  1 */\n      0x01\n        /* \"UserAuth.sol\":4042:4053  activeUsers */\n      0x03\n      0x00\n        /* \"UserAuth.sol\":4042:4058  activeUsers += 1 */\n      dup3\n      dup3\n      sload\n      tag_146\n      swap2\n      swap1\n      tag_145\n      jump\t// in\n    tag_146:\n      swap3\n      pop\n      pop\n      dup2\n      swap1\n      sstore\n      pop\n        /* \"UserAuth.sol\":4109:4121  usernameHash */\n      dup2\n        /* \"UserAuth.sol\":4097:4107  msg.sender */\n      caller\n        /* \"UserAuth.sol\":4082:4139  UserRegistered(msg.sender, usernameHash, block.timestamp) */\n      0xffffffffffffffffffffffffffffffffffffffff\n      and\n      0xe932b8f225535323212b28055402c985d3c06bca70a0c4aaa52ee2bf155dc2ac\n        /* \"UserAuth.sol\":4123:4138  block.timestamp */\n      timestamp\n        /* \"UserAuth.sol\":4082:4139  UserRegistered(msg.sender, usernameHash, block.timestamp) */\n      mload(0x40)\n      tag_147\n      swap2\n      swap1\n      tag_64\n      jump\t// in\n    tag_147:\n      mload(0x40)\n      dup1\n      swap2\n      sub\n      swap1\n      log3\n        /* \"UserAuth.sol\":2915:4146  {... */\n      pop\n      pop\n        /* \"UserAuth.sol\":2842:4146  function register(string memory username, string memory password) public {... */\n      pop\n      pop\n      jump\t// out\n        /* \"UserAuth.sol\":6738:7146  function makeProfilePrivate() public onlyRegisteredUser {... */\n    tag_43:\n        /* \"UserAuth.sol\":2621:2626  users */\n      0x00\n        /* \"UserAuth.sol\":2621:2638  users[msg.sender] */\n      0x00\n        /* \"UserAuth.sol\":2627:2637  msg.sender */\n      caller\n        /* \"UserAuth.sol\":2621:2638  users[msg.sender] */\n      0xffffffffffffffffffffffffffffffffffffffff\n      and\n      0xffffffffffffffffffffffffffffffffffffffff\n      and\n      dup2\n      mstore\n      0x20\n      add\n      swap1\n      dup2\n      mstore\n      0x20\n      add\n      0x00\n      keccak256\n        /* \"UserAuth.sol\":2621:2647  users[msg.sender].isActive */\n      0x03\n      add\n      0x00\n      swap1\n      sload\n      swap1\n      0x0100\n      exp\n      swap1\n      div\n      0xff\n      and\n        /* \"UserAuth.sol\":2613:2683  require(users[msg.sender].isActive, \"User not registered or inactive\") */\n      tag_149\n      jumpi\n      mload(0x40)\n      0x08c379a000000000000000000000000000000000000000000000000000000000\n      dup2\n      mstore\n      0x04\n      add\n      tag_150\n      swap1\n      tag_111\n      jump\t// in\n    tag_150:\n      mload(0x40)\n      dup1\n      swap2\n      sub\n      swap1\n      revert\n    tag_149:\n        /* \"UserAuth.sol\":6804:6821  User storage user */\n      0x00\n        /* \"UserAuth.sol\":6824:6829  users */\n      0x00\n        /* \"UserAuth.sol\":6824:6841  users[msg.sender] */\n      0x00\n        /* \"UserAuth.sol\":6830:6840  msg.sender */\n      caller\n        /* \"UserAuth.sol\":6824:6841  users[msg.sender] */\n      0xffffffffffffffffffffffffffffffffffffffff\n      and\n      0xffffffffffffffffffffffffffffffffffffffff\n      and\n      dup2\n      mstore\n      0x20\n      add\n      swap1\n      dup2\n      mstore\n      0x20\n      add\n      0x00\n      keccak256\n        /* \"UserAuth.sol\":6804:6841  User storage user = users[msg.sender] */\n      swap1\n      pop\n        /* \"UserAuth.sol\":6881:6901  ProfileStatus.Public */\n      0x01\n        /* \"UserAuth.sol\":6859:6901  user.profileStatus == ProfileStatus.Public */\n      dup1\n      dup2\n      gt\n      iszero\n      tag_152\n      jumpi\n      tag_153\n      tag_102\n      jump\t// in\n    tag_153:\n    tag_152:\n        /* \"UserAuth.sol\":6859:6863  user */\n      dup2\n        /* \"UserAuth.sol\":6859:6877  user.profileStatus */\n      0x06\n      add\n      0x00\n      swap1\n      sload\n      swap1\n      0x0100\n      exp\n      swap1\n      div\n      0xff\n      and\n        /* \"UserAuth.sol\":6859:6901  user.profileStatus == ProfileStatus.Public */\n      0x01\n      dup2\n      gt\n      iszero\n      tag_154\n      jumpi\n      tag_155\n      tag_102\n      jump\t// in\n    tag_155:\n    tag_154:\n      eq\n        /* \"UserAuth.sol\":6851:6929  require(user.profileStatus == ProfileStatus.Public, \"Profile already private\") */\n      tag_156\n      jumpi\n      mload(0x40)\n      0x08c379a000000000000000000000000000000000000000000000000000000000\n      dup2\n      mstore\n      0x04\n      add\n      tag_157\n      swap1\n      tag_158\n      jump\t// in\n    tag_157:\n      mload(0x40)\n      dup1\n      swap2\n      sub\n      swap1\n      revert\n    tag_156:\n        /* \"UserAuth.sol\":6940:6963  ProfileStatus oldStatus */\n      0x00\n        /* \"UserAuth.sol\":6966:6970  user */\n      dup2\n        /* \"UserAuth.sol\":6966:6984  user.profileStatus */\n      0x06\n      add\n      0x00\n      swap1\n      sload\n      swap1\n      0x0100\n      exp\n      swap1\n      div\n      0xff\n      and\n        /* \"UserAuth.sol\":6940:6984  ProfileStatus oldStatus = user.profileStatus */\n      swap1\n      pop\n        /* \"UserAuth.sol\":7015:7036  ProfileStatus.Private */\n      0x00\n        /* \"UserAuth.sol\":6994:6998  user */\n      dup3\n        /* \"UserAuth.sol\":6994:7012  user.profileStatus */\n      0x06\n      add\n      0x00\n        /* \"UserAuth.sol\":6994:7036  user.profileStatus = ProfileStatus.Private */\n      0x0100\n      exp\n      dup2\n      sload\n      dup2\n      0xff\n      mul\n      not\n      and\n      swap1\n      dup4\n      0x01\n      dup2\n      gt\n      iszero\n      tag_159\n      jumpi\n      tag_160\n      tag_102\n      jump\t// in\n    tag_160:\n    tag_159:\n      mul\n      or\n      swap1\n      sstore\n      pop\n        /* \"UserAuth.sol\":7077:7087  msg.sender */\n      caller\n        /* \"UserAuth.sol\":7052:7139  UserProfileStatusChanged(msg.sender, oldStatus, ProfileStatus.Private, block.timestamp) */\n      0xffffffffffffffffffffffffffffffffffffffff\n      and\n      0xe4af6a8baf93b009d9448cca7ed6797e55063d93424cd1fe6568340203e1173d\n        /* \"UserAuth.sol\":7089:7098  oldStatus */\n      dup3\n        /* \"UserAuth.sol\":7100:7121  ProfileStatus.Private */\n      0x00\n        /* \"UserAuth.sol\":7123:7138  block.timestamp */\n      timestamp\n        /* \"UserAuth.sol\":7052:7139  UserProfileStatusChanged(msg.sender, oldStatus, ProfileStatus.Private, block.timestamp) */\n      mload(0x40)\n      tag_161\n      swap4\n      swap3\n      swap2\n      swap1\n      tag_123\n      jump\t// in\n    tag_161:\n      mload(0x40)\n      dup1\n      swap2\n      sub\n      swap1\n      log2\n        /* \"UserAuth.sol\":6794:7146  {... */\n      pop\n      pop\n        /* \"UserAuth.sol\":6738:7146  function makeProfilePrivate() public onlyRegisteredUser {... */\n      jump\t// out\n        /* \"UserAuth.sol\":5026:5718  function login(string memory username, string memory password) public view returns (bool success) {... */\n    tag_46:\n        /* \"UserAuth.sol\":5110:5122  bool success */\n      0x00\n        /* \"UserAuth.sol\":5202:5222  bytes32 usernameHash */\n      0x00\n        /* \"UserAuth.sol\":5252:5260  username */\n      dup4\n        /* \"UserAuth.sol\":5235:5261  abi.encodePacked(username) */\n      add(0x20, mload(0x40))\n      tag_163\n      swap2\n      swap1\n      tag_135\n      jump\t// in\n    tag_163:\n      mload(0x40)\n      0x20\n      dup2\n      dup4\n      sub\n      sub\n      dup2\n      mstore\n      swap1\n      0x40\n      mstore\n        /* \"UserAuth.sol\":5225:5262  keccak256(abi.encodePacked(username)) */\n      dup1\n      mload\n      swap1\n      0x20\n      add\n      keccak256\n        /* \"UserAuth.sol\":5202:5262  bytes32 usernameHash = keccak256(abi.encodePacked(username)) */\n      swap1\n      pop\n        /* \"UserAuth.sol\":5272:5291  address userAddress */\n      0x00\n        /* \"UserAuth.sol\":5294:5311  usernameToAddress */\n      0x01\n        /* \"UserAuth.sol\":5294:5325  usernameToAddress[usernameHash] */\n      0x00\n        /* \"UserAuth.sol\":5312:5324  usernameHash */\n      dup4\n        /* \"UserAuth.sol\":5294:5325  usernameToAddress[usernameHash] */\n      dup2\n      mstore\n      0x20\n      add\n      swap1\n      dup2\n      mstore\n      0x20\n      add\n      0x00\n      keccak256\n      0x00\n      swap1\n      sload\n      swap1\n      0x0100\n      exp\n      swap1\n      div\n      0xffffffffffffffffffffffffffffffffffffffff\n      and\n        /* \"UserAuth.sol\":5272:5325  address userAddress = usernameToAddress[usernameHash] */\n      swap1\n      pop\n        /* \"UserAuth.sol\":5371:5372  0 */\n      0x00\n        /* \"UserAuth.sol\":5348:5373  userAddress == address(0) */\n      0xffffffffffffffffffffffffffffffffffffffff\n      and\n        /* \"UserAuth.sol\":5348:5359  userAddress */\n      dup2\n        /* \"UserAuth.sol\":5348:5373  userAddress == address(0) */\n      0xffffffffffffffffffffffffffffffffffffffff\n      and\n      sub\n        /* \"UserAuth.sol\":5344:5431  if (userAddress == address(0)) {... */\n      tag_164\n      jumpi\n        /* \"UserAuth.sol\":5396:5401  false */\n      0x00\n        /* \"UserAuth.sol\":5389:5401  return false */\n      swap3\n      pop\n      pop\n      pop\n      jump(tag_162)\n        /* \"UserAuth.sol\":5344:5431  if (userAddress == address(0)) {... */\n    tag_164:\n        /* \"UserAuth.sol\":5449:5466  User storage user */\n      0x00\n        /* \"UserAuth.sol\":5469:5474  users */\n      0x00\n        /* \"UserAuth.sol\":5469:5487  users[userAddress] */\n      0x00\n        /* \"UserAuth.sol\":5475:5486  userAddress */\n      dup4\n        /* \"UserAuth.sol\":5469:5487  users[userAddress] */\n      0xffffffffffffffffffffffffffffffffffffffff\n      and\n      0xffffffffffffffffffffffffffffffffffffffff\n      and\n      dup2\n      mstore\n      0x20\n      add\n      swap1\n      dup2\n      mstore\n      0x20\n      add\n      0x00\n      keccak256\n        /* \"UserAuth.sol\":5449:5487  User storage user = users[userAddress] */\n      swap1\n      pop\n        /* \"UserAuth.sol\":5502:5506  user */\n      dup1\n        /* \"UserAuth.sol\":5502:5515  user.isActive */\n      0x03\n      add\n      0x00\n      swap1\n      sload\n      swap1\n      0x0100\n      exp\n      swap1\n      div\n      0xff\n      and\n        /* \"UserAuth.sol\":5497:5573  if (!user.isActive) {... */\n      tag_165\n      jumpi\n        /* \"UserAuth.sol\":5538:5543  false */\n      0x00\n        /* \"UserAuth.sol\":5531:5543  return false */\n      swap4\n      pop\n      pop\n      pop\n      pop\n      jump(tag_162)\n        /* \"UserAuth.sol\":5497:5573  if (!user.isActive) {... */\n    tag_165:\n        /* \"UserAuth.sol\":5591:5616  bytes32 inputPasswordHash */\n      0x00\n        /* \"UserAuth.sol\":5646:5654  password */\n      dup6\n        /* \"UserAuth.sol\":5629:5655  abi.encodePacked(password) */\n      add(0x20, mload(0x40))\n      tag_166\n      swap2\n      swap1\n      tag_135\n      jump\t// in\n    tag_166:\n      mload(0x40)\n      0x20\n      dup2\n      dup4\n      sub\n      sub\n      dup2\n      mstore\n      swap1\n      0x40\n      mstore\n        /* \"UserAuth.sol\":5619:5656  keccak256(abi.encodePacked(password)) */\n      dup1\n      mload\n      swap1\n      0x20\n      add\n      keccak256\n        /* \"UserAuth.sol\":5591:5656  bytes32 inputPasswordHash = keccak256(abi.encodePacked(password)) */\n      swap1\n      pop\n        /* \"UserAuth.sol\":5694:5711  inputPasswordHash */\n      dup1\n        /* \"UserAuth.sol\":5673:5677  user */\n      dup3\n        /* \"UserAuth.sol\":5673:5690  user.passwordHash */\n      0x01\n      add\n      sload\n        /* \"UserAuth.sol\":5673:5711  user.passwordHash == inputPasswordHash */\n      eq\n        /* \"UserAuth.sol\":5666:5711  return user.passwordHash == inputPasswordHash */\n      swap5\n      pop\n      pop\n      pop\n      pop\n      pop\n        /* \"UserAuth.sol\":5026:5718  function login(string memory username, string memory password) public view returns (bool success) {... */\n    tag_162:\n      swap3\n      swap2\n      pop\n      pop\n      jump\t// out\n        /* \"UserAuth.sol\":8140:8380  function getUserInfo() public view onlyRegisteredUser returns (bytes32 usernameHash, uint256 createdAt, bool isActive) {... */\n    tag_50:\n        /* \"UserAuth.sol\":8203:8223  bytes32 usernameHash */\n      0x00\n        /* \"UserAuth.sol\":8225:8242  uint256 createdAt */\n      0x00\n        /* \"UserAuth.sol\":8244:8257  bool isActive */\n      0x00\n        /* \"UserAuth.sol\":2621:2626  users */\n      0x00\n        /* \"UserAuth.sol\":2621:2638  users[msg.sender] */\n      0x00\n        /* \"UserAuth.sol\":2627:2637  msg.sender */\n      caller\n        /* \"UserAuth.sol\":2621:2638  users[msg.sender] */\n      0xffffffffffffffffffffffffffffffffffffffff\n      and\n      0xffffffffffffffffffffffffffffffffffffffff\n      and\n      dup2\n      mstore\n      0x20\n      add\n      swap1\n      dup2\n      mstore\n      0x20\n      add\n      0x00\n      keccak256\n        /* \"UserAuth.sol\":2621:2647  users[msg.sender].isActive */\n      0x03\n      add\n      0x00\n      swap1\n      sload\n      swap1\n      0x0100\n      exp\n      swap1\n      div\n      0xff\n      and\n        /* \"UserAuth.sol\":2613:2683  require(users[msg.sender].isActive, \"User not registered or inactive\") */\n      tag_168\n      jumpi\n      mload(0x40)\n      0x08c379a000000000000000000000000000000000000000000000000000000000\n      dup2\n      mstore\n      0x04\n      add\n      tag_169\n      swap1\n      tag_111\n      jump\t// in\n    tag_169:\n      mload(0x40)\n      dup1\n      swap2\n      sub\n      swap1\n      revert\n    tag_168:\n        /* \"UserAuth.sol\":8269:8286  User storage user */\n      0x00\n        /* \"UserAuth.sol\":8289:8294  users */\n      0x00\n        /* \"UserAuth.sol\":8289:8306  users[msg.sender] */\n      0x00\n        /* \"UserAuth.sol\":8295:8305  msg.sender */\n      caller\n        /* \"UserAuth.sol\":8289:8306  users[msg.sender] */\n      0xffffffffffffffffffffffffffffffffffffffff\n      and\n      0xffffffffffffffffffffffffffffffffffffffff\n      and\n      dup2\n      mstore\n      0x20\n      add\n      swap1\n      dup2\n      mstore\n      0x20\n      add\n      0x00\n      keccak256\n        /* \"UserAuth.sol\":8269:8306  User storage user = users[msg.sender] */\n      swap1\n      pop\n        /* \"UserAuth.sol\":8324:8328  user */\n      dup1\n        /* \"UserAuth.sol\":8324:8341  user.usernameHash */\n      0x00\n      add\n      sload\n        /* \"UserAuth.sol\":8343:8347  user */\n      dup2\n        /* \"UserAuth.sol\":8343:8357  user.createdAt */\n      0x02\n      add\n      sload\n        /* \"UserAuth.sol\":8359:8363  user */\n      dup3\n        /* \"UserAuth.sol\":8359:8372  user.isActive */\n      0x03\n      add\n      0x00\n      swap1\n      sload\n      swap1\n      0x0100\n      exp\n      swap1\n      div\n      0xff\n      and\n        /* \"UserAuth.sol\":8316:8373  return (user.usernameHash, user.createdAt, user.isActive) */\n      swap4\n      pop\n      swap4\n      pop\n      swap4\n      pop\n      pop\n        /* \"UserAuth.sol\":8140:8380  function getUserInfo() public view onlyRegisteredUser returns (bytes32 usernameHash, uint256 createdAt, bool isActive) {... */\n      swap1\n      swap2\n      swap3\n      jump\t// out\n        /* \"UserAuth.sol\":4412:4840  function registerWithProfile(... */\n    tag_56:\n        /* \"UserAuth.sol\":4592:4620  register(username, password) */\n      tag_172\n        /* \"UserAuth.sol\":4601:4609  username */\n      dup5\n        /* \"UserAuth.sol\":4611:4619  password */\n      dup5\n        /* \"UserAuth.sol\":4592:4600  register */\n      tag_41\n        /* \"UserAuth.sol\":4592:4620  register(username, password) */\n      jump\t// in\n    tag_172:\n        /* \"UserAuth.sol\":4666:4681  profileDataHash */\n      dup2\n        /* \"UserAuth.sol\":4630:4635  users */\n      0x00\n        /* \"UserAuth.sol\":4630:4647  users[msg.sender] */\n      0x00\n        /* \"UserAuth.sol\":4636:4646  msg.sender */\n      caller\n        /* \"UserAuth.sol\":4630:4647  users[msg.sender] */\n      0xffffffffffffffffffffffffffffffffffffffff\n      and\n      0xffffffffffffffffffffffffffffffffffffffff\n      and\n      dup2\n      mstore\n      0x20\n      add\n      swap1\n      dup2\n      mstore\n      0x20\n      add\n      0x00\n      keccak256\n        /* \"UserAuth.sol\":4630:4663  users[msg.sender].profileDataHash */\n      0x04\n      add\n        /* \"UserAuth.sol\":4630:4681  users[msg.sender].profileDataHash = profileDataHash */\n      dup2\n      swap1\n      sstore\n      pop\n        /* \"UserAuth.sol\":4725:4738  publicKeyHash */\n      dup1\n        /* \"UserAuth.sol\":4691:4696  users */\n      0x00\n        /* \"UserAuth.sol\":4691:4708  users[msg.sender] */\n      0x00\n        /* \"UserAuth.sol\":4697:4707  msg.sender */\n      caller\n        /* \"UserAuth.sol\":4691:4708  users[msg.sender] */\n      0xffffffffffffffffffffffffffffffffffffffff\n      and\n      0xffffffffffffffffffffffffffffffffffffffff\n      and\n      dup2\n      mstore\n      0x20\n      add\n      swap1\n      dup2\n      mstore\n      0x20\n      add\n      0x00\n      keccak256\n        /* \"UserAuth.sol\":4691:4722  users[msg.sender].publicKeyHash */\n      0x05\n      add\n        /* \"UserAuth.sol\":4691:4738  users[msg.sender].publicKeyHash = publicKeyHash */\n      dup2\n      swap1\n      sstore\n      pop\n        /* \"UserAuth.sol\":4773:4783  msg.sender */\n      caller\n        /* \"UserAuth.sol\":4754:4833  UserProfileUpdated(msg.sender, profileDataHash, publicKeyHash, block.timestamp) */\n      0xffffffffffffffffffffffffffffffffffffffff\n      and\n      0x0fe89ec3aa84bab96e6d076a5072554cca1061e5b1d75ce167cf60698b0696b1\n        /* \"UserAuth.sol\":4785:4800  profileDataHash */\n      dup4\n        /* \"UserAuth.sol\":4802:4815  publicKeyHash */\n      dup4\n        /* \"UserAuth.sol\":4817:4832  block.timestamp */\n      timestamp\n        /* \"UserAuth.sol\":4754:4833  UserProfileUpdated(msg.sender, profileDataHash, publicKeyHash, block.timestamp) */\n      mload(0x40)\n      tag_173\n      swap4\n      swap3\n      swap2\n      swap1\n      tag_174\n      jump\t// in\n    tag_173:\n      mload(0x40)\n      dup1\n      swap2\n      sub\n      swap1\n      log2\n        /* \"UserAuth.sol\":4412:4840  function registerWithProfile(... */\n      pop\n      pop\n      pop\n      pop\n      jump\t// out\n        /* \"UserAuth.sol\":5888:6209  function updateUserProfile(bytes32 profileDataHash, bytes32 publicKeyHash) public onlyRegisteredUser {... */\n    tag_60:\n        /* \"UserAuth.sol\":2621:2626  users */\n      0x00\n        /* \"UserAuth.sol\":2621:2638  users[msg.sender] */\n      0x00\n        /* \"UserAuth.sol\":2627:2637  msg.sender */\n      caller\n        /* \"UserAuth.sol\":2621:2638  users[msg.sender] */\n      0xffffffffffffffffffffffffffffffffffffffff\n      and\n      0xffffffffffffffffffffffffffffffffffffffff\n      and\n      dup2\n      mstore\n      0x20\n      add\n      swap1\n      dup2\n      mstore\n      0x20\n      add\n      0x00\n      keccak256\n        /* \"UserAuth.sol\":2621:2647  users[msg.sender].isActive */\n      0x03\n      add\n      0x00\n      swap1\n      sload\n      swap1\n      0x0100\n      exp\n      swap1\n      div\n      0xff\n      and\n        /* \"UserAuth.sol\":2613:2683  require(users[msg.sender].isActive, \"User not registered or inactive\") */\n      tag_176\n      jumpi\n      mload(0x40)\n      0x08c379a000000000000000000000000000000000000000000000000000000000\n      dup2\n      mstore\n      0x04\n      add\n      tag_177\n      swap1\n      tag_111\n      jump\t// in\n    tag_177:\n      mload(0x40)\n      dup1\n      swap2\n      sub\n      swap1\n      revert\n    tag_176:\n        /* \"UserAuth.sol\":6035:6050  profileDataHash */\n      dup2\n        /* \"UserAuth.sol\":5999:6004  users */\n      0x00\n        /* \"UserAuth.sol\":5999:6016  users[msg.sender] */\n      0x00\n        /* \"UserAuth.sol\":6005:6015  msg.sender */\n      caller\n        /* \"UserAuth.sol\":5999:6016  users[msg.sender] */\n      0xffffffffffffffffffffffffffffffffffffffff\n      and\n      0xffffffffffffffffffffffffffffffffffffffff\n      and\n      dup2\n      mstore\n      0x20\n      add\n      swap1\n      dup2\n      mstore\n      0x20\n      add\n      0x00\n      keccak256\n        /* \"UserAuth.sol\":5999:6032  users[msg.sender].profileDataHash */\n      0x04\n      add\n        /* \"UserAuth.sol\":5999:6050  users[msg.sender].profileDataHash = profileDataHash */\n      dup2\n      swap1\n      sstore\n      pop\n        /* \"UserAuth.sol\":6094:6107  publicKeyHash */\n      dup1\n        /* \"UserAuth.sol\":6060:6065  users */\n      0x00\n        /* \"UserAuth.sol\":6060:6077  users[msg.sender] */\n      0x00\n        /* \"UserAuth.sol\":6066:6076  msg.sender */\n      caller\n        /* \"UserAuth.sol\":6060:6077  users[msg.sender] */\n      0xffffffffffffffffffffffffffffffffffffffff\n      and\n      0xffffffffffffffffffffffffffffffffffffffff\n      and\n      dup2\n      mstore\n      0x20\n      add\n      swap1\n      dup2\n      mstore\n      0x20\n      add\n      0x00\n      keccak256\n        /* \"UserAuth.sol\":6060:6091  users[msg.sender].publicKeyHash */\n      0x05\n      add\n        /* \"UserAuth.sol\":6060:6107  users[msg.sender].publicKeyHash = publicKeyHash */\n      dup2\n      swap1\n      sstore\n      pop\n        /* \"UserAuth.sol\":6142:6152  msg.sender */\n      caller\n        /* \"UserAuth.sol\":6123:6202  UserProfileUpdated(msg.sender, profileDataHash, publicKeyHash, block.timestamp) */\n      0xffffffffffffffffffffffffffffffffffffffff\n      and\n      0x0fe89ec3aa84bab96e6d076a5072554cca1061e5b1d75ce167cf60698b0696b1\n        /* \"UserAuth.sol\":6154:6169  profileDataHash */\n      dup4\n        /* \"UserAuth.sol\":6171:6184  publicKeyHash */\n      dup4\n        /* \"UserAuth.sol\":6186:6201  block.timestamp */\n      timestamp\n        /* \"UserAuth.sol\":6123:6202  UserProfileUpdated(msg.sender, profileDataHash, publicKeyHash, block.timestamp) */\n      mload(0x40)\n      tag_179\n      swap4\n      swap3\n      swap2\n      swap1\n      tag_174\n      jump\t// in\n    tag_179:\n      mload(0x40)\n      dup1\n      swap2\n      sub\n      swap1\n      log2\n        /* \"UserAuth.sol\":5888:6209  function updateUserProfile(bytes32 profileDataHash, bytes32 publicKeyHash) public onlyRegisteredUser {... */\n      pop\n      pop\n      jump\t// out\n        /* \"UserAuth.sol\":11008:11103  function getTotalUsers() public view returns (uint256 count) {... */\n    tag_62:\n        /* \"UserAuth.sol\":11054:11067  uint256 count */\n      0x00\n        /* \"UserAuth.sol\":11086:11096  totalUsers */\n      sload(0x02)\n        /* \"UserAuth.sol\":11079:11096  return totalUsers */\n      swap1\n      pop\n        /* \"UserAuth.sol\":11008:11103  function getTotalUsers() public view returns (uint256 count) {... */\n      swap1\n      jump\t// out\n        /* \"UserAuth.sol\":11333:11454  function isUserActive(address userAddress) public view returns (bool) {... */\n    tag_67:\n        /* \"UserAuth.sol\":11397:11401  bool */\n      0x00\n        /* \"UserAuth.sol\":11420:11425  users */\n      0x00\n        /* \"UserAuth.sol\":11420:11438  users[userAddress] */\n      0x00\n        /* \"UserAuth.sol\":11426:11437  userAddress */\n      dup4\n        /* \"UserAuth.sol\":11420:11438  users[userAddress] */\n      0xffffffffffffffffffffffffffffffffffffffff\n      and\n      0xffffffffffffffffffffffffffffffffffffffff\n      and\n      dup2\n      mstore\n      0x20\n      add\n      swap1\n      dup2\n      mstore\n      0x20\n      add\n      0x00\n      keccak256\n        /* \"UserAuth.sol\":11420:11447  users[userAddress].isActive */\n      0x03\n      add\n      0x00\n      swap1\n      sload\n      swap1\n      0x0100\n      exp\n      swap1\n      div\n      0xff\n      and\n        /* \"UserAuth.sol\":11413:11447  return users[userAddress].isActive */\n      swap1\n      pop\n        /* \"UserAuth.sol\":11333:11454  function isUserActive(address userAddress) public view returns (bool) {... */\n      swap2\n      swap1\n      pop\n      jump\t// out\n        /* \"UserAuth.sol\":1634:1671  mapping(address => User) public users */\n    tag_71:\n      mstore(0x20, 0x00)\n      dup1\n      0x00\n      mstore\n      keccak256(0x00, 0x40)\n      0x00\n      swap2\n      pop\n      swap1\n      pop\n      dup1\n      0x00\n      add\n      sload\n      swap1\n      dup1\n      0x01\n      add\n      sload\n      swap1\n      dup1\n      0x02\n      add\n      sload\n      swap1\n      dup1\n      0x03\n      add\n      0x00\n      swap1\n      sload\n      swap1\n      0x0100\n      exp\n      swap1\n      div\n      0xff\n      and\n      swap1\n      dup1\n      0x04\n      add\n      sload\n      swap1\n      dup1\n      0x05\n      add\n      sload\n      swap1\n      dup1\n      0x06\n      add\n      0x00\n      swap1\n      sload\n      swap1\n      0x0100\n      exp\n      swap1\n      div\n      0xff\n      and\n      swap1\n      pop\n      dup8\n      jump\t// out\n        /* \"UserAuth.sol\":9821:10174  function checkUserDataAccess(address requester, address userAddress) public view returns (bool) {... */\n    tag_77:\n        /* \"UserAuth.sol\":9911:9915  bool */\n      0x00\n        /* \"UserAuth.sol\":9927:9944  User storage user */\n      0x00\n        /* \"UserAuth.sol\":9947:9952  users */\n      0x00\n        /* \"UserAuth.sol\":9947:9965  users[userAddress] */\n      0x00\n        /* \"UserAuth.sol\":9953:9964  userAddress */\n      dup5\n        /* \"UserAuth.sol\":9947:9965  users[userAddress] */\n      0xffffffffffffffffffffffffffffffffffffffff\n      and\n      0xffffffffffffffffffffffffffffffffffffffff\n      and\n      dup2\n      mstore\n      0x20\n      add\n      swap1\n      dup2\n      mstore\n      0x20\n      add\n      0x00\n      keccak256\n        /* \"UserAuth.sol\":9927:9965  User storage user = users[userAddress] */\n      swap1\n      pop\n        /* \"UserAuth.sol\":9980:9984  user */\n      dup1\n        /* \"UserAuth.sol\":9980:9993  user.isActive */\n      0x03\n      add\n      0x00\n      swap1\n      sload\n      swap1\n      0x0100\n      exp\n      swap1\n      div\n      0xff\n      and\n        /* \"UserAuth.sol\":9975:10032  if (!user.isActive) {... */\n      tag_183\n      jumpi\n        /* \"UserAuth.sol\":10016:10021  false */\n      0x00\n        /* \"UserAuth.sol\":10009:10021  return false */\n      swap2\n      pop\n      pop\n      jump(tag_182)\n        /* \"UserAuth.sol\":9975:10032  if (!user.isActive) {... */\n    tag_183:\n        /* \"UserAuth.sol\":10059:10070  userAddress */\n      dup3\n        /* \"UserAuth.sol\":10046:10070  requester == userAddress */\n      0xffffffffffffffffffffffffffffffffffffffff\n      and\n        /* \"UserAuth.sol\":10046:10055  requester */\n      dup5\n        /* \"UserAuth.sol\":10046:10070  requester == userAddress */\n      0xffffffffffffffffffffffffffffffffffffffff\n      and\n      sub\n        /* \"UserAuth.sol\":10042:10108  if (requester == userAddress) {... */\n      tag_184\n      jumpi\n        /* \"UserAuth.sol\":10093:10097  true */\n      0x01\n        /* \"UserAuth.sol\":10086:10097  return true */\n      swap2\n      pop\n      pop\n      jump(tag_182)\n        /* \"UserAuth.sol\":10042:10108  if (requester == userAddress) {... */\n    tag_184:\n        /* \"UserAuth.sol\":10147:10167  ProfileStatus.Public */\n      0x01\n        /* \"UserAuth.sol\":10125:10167  user.profileStatus == ProfileStatus.Public */\n      dup1\n      dup2\n      gt\n      iszero\n      tag_185\n      jumpi\n      tag_186\n      tag_102\n      jump\t// in\n    tag_186:\n    tag_185:\n        /* \"UserAuth.sol\":10125:10129  user */\n      dup2\n        /* \"UserAuth.sol\":10125:10143  user.profileStatus */\n      0x06\n      add\n      0x00\n      swap1\n      sload\n      swap1\n      0x0100\n      exp\n      swap1\n      div\n      0xff\n      and\n        /* \"UserAuth.sol\":10125:10167  user.profileStatus == ProfileStatus.Public */\n      0x01\n      dup2\n      gt\n      iszero\n      tag_187\n      jumpi\n      tag_188\n      tag_102\n      jump\t// in\n    tag_188:\n    tag_187:\n      eq\n        /* \"UserAuth.sol\":10118:10167  return user.profileStatus == ProfileStatus.Public */\n      swap2\n      pop\n      pop\n        /* \"UserAuth.sol\":9821:10174  function checkUserDataAccess(address requester, address userAddress) public view returns (bool) {... */\n    tag_182:\n      swap3\n      swap2\n      pop\n      pop\n      jump\t// out\n        /* \"UserAuth.sol\":7293:7937  function updatePassword(string memory oldPassword, string memory newPassword) public onlyRegisteredUser {... */\n    tag_81:\n        /* \"UserAuth.sol\":2621:2626  users */\n      0x00\n        /* \"UserAuth.sol\":2621:2638  users[msg.sender] */\n      0x00\n        /* \"UserAuth.sol\":2627:2637  msg.sender */\n      caller\n        /* \"UserAuth.sol\":2621:2638  users[msg.sender] */\n      0xffffffffffffffffffffffffffffffffffffffff\n      and\n      0xffffffffffffffffffffffffffffffffffffffff\n      and\n      dup2\n      mstore\n      0x20\n      add\n      swap1\n      dup2\n      mstore\n      0x20\n      add\n      0x00\n      keccak256\n        /* \"UserAuth.sol\":2621:2647  users[msg.sender].isActive */\n      0x03\n      add\n      0x00\n      swap1\n      sload\n      swap1\n      0x0100\n      exp\n      swap1\n      div\n      0xff\n      and\n        /* \"UserAuth.sol\":2613:2683  require(users[msg.sender].isActive, \"User not registered or inactive\") */\n      tag_190\n      jumpi\n      mload(0x40)\n      0x08c379a000000000000000000000000000000000000000000000000000000000\n      dup2\n      mstore\n      0x04\n      add\n      tag_191\n      swap1\n      tag_111\n      jump\t// in\n    tag_191:\n      mload(0x40)\n      dup1\n      swap2\n      sub\n      swap1\n      revert\n    tag_190:\n        /* \"UserAuth.sol\":7443:7444  0 */\n      0x00\n        /* \"UserAuth.sol\":7421:7432  newPassword */\n      dup2\n        /* \"UserAuth.sol\":7415:7440  bytes(newPassword).length */\n      mload\n        /* \"UserAuth.sol\":7415:7444  bytes(newPassword).length > 0 */\n      gt\n        /* \"UserAuth.sol\":7407:7477  require(bytes(newPassword).length > 0, \"New password cannot be empty\") */\n      tag_193\n      jumpi\n      mload(0x40)\n      0x08c379a000000000000000000000000000000000000000000000000000000000\n      dup2\n      mstore\n      0x04\n      add\n      tag_194\n      swap1\n      tag_195\n      jump\t// in\n    tag_194:\n      mload(0x40)\n      dup1\n      swap2\n      sub\n      swap1\n      revert\n    tag_193:\n        /* \"UserAuth.sol\":7559:7582  bytes32 oldPasswordHash */\n      0x00\n        /* \"UserAuth.sol\":7612:7623  oldPassword */\n      dup3\n        /* \"UserAuth.sol\":7595:7624  abi.encodePacked(oldPassword) */\n      add(0x20, mload(0x40))\n      tag_196\n      swap2\n      swap1\n      tag_135\n      jump\t// in\n    tag_196:\n      mload(0x40)\n      0x20\n      dup2\n      dup4\n      sub\n      sub\n      dup2\n      mstore\n      swap1\n      0x40\n      mstore\n        /* \"UserAuth.sol\":7585:7625  keccak256(abi.encodePacked(oldPassword)) */\n      dup1\n      mload\n      swap1\n      0x20\n      add\n      keccak256\n        /* \"UserAuth.sol\":7559:7625  bytes32 oldPasswordHash = keccak256(abi.encodePacked(oldPassword)) */\n      swap1\n      pop\n        /* \"UserAuth.sol\":7677:7692  oldPasswordHash */\n      dup1\n        /* \"UserAuth.sol\":7643:7648  users */\n      0x00\n        /* \"UserAuth.sol\":7643:7660  users[msg.sender] */\n      0x00\n        /* \"UserAuth.sol\":7649:7659  msg.sender */\n      caller\n        /* \"UserAuth.sol\":7643:7660  users[msg.sender] */\n      0xffffffffffffffffffffffffffffffffffffffff\n      and\n      0xffffffffffffffffffffffffffffffffffffffff\n      and\n      dup2\n      mstore\n      0x20\n      add\n      swap1\n      dup2\n      mstore\n      0x20\n      add\n      0x00\n      keccak256\n        /* \"UserAuth.sol\":7643:7673  users[msg.sender].passwordHash */\n      0x01\n      add\n      sload\n        /* \"UserAuth.sol\":7643:7692  users[msg.sender].passwordHash == oldPasswordHash */\n      eq\n        /* \"UserAuth.sol\":7635:7719  require(users[msg.sender].passwordHash == oldPasswordHash, \"Old password incorrect\") */\n      tag_197\n      jumpi\n      mload(0x40)\n      0x08c379a000000000000000000000000000000000000000000000000000000000\n      dup2\n      mstore\n      0x04\n      add\n      tag_198\n      swap1\n      tag_199\n      jump\t// in\n    tag_198:\n      mload(0x40)\n      dup1\n      swap2\n      sub\n      swap1\n      revert\n    tag_197:\n        /* \"UserAuth.sol\":7738:7761  bytes32 newPasswordHash */\n      0x00\n        /* \"UserAuth.sol\":7791:7802  newPassword */\n      dup3\n        /* \"UserAuth.sol\":7774:7803  abi.encodePacked(newPassword) */\n      add(0x20, mload(0x40))\n      tag_200\n      swap2\n      swap1\n      tag_135\n      jump\t// in\n    tag_200:\n      mload(0x40)\n      0x20\n      dup2\n      dup4\n      sub\n      sub\n      dup2\n      mstore\n      swap1\n      0x40\n      mstore\n        /* \"UserAuth.sol\":7764:7804  keccak256(abi.encodePacked(newPassword)) */\n      dup1\n      mload\n      swap1\n      0x20\n      add\n      keccak256\n        /* \"UserAuth.sol\":7738:7804  bytes32 newPasswordHash = keccak256(abi.encodePacked(newPassword)) */\n      swap1\n      pop\n        /* \"UserAuth.sol\":7847:7862  newPasswordHash */\n      dup1\n        /* \"UserAuth.sol\":7814:7819  users */\n      0x00\n        /* \"UserAuth.sol\":7814:7831  users[msg.sender] */\n      0x00\n        /* \"UserAuth.sol\":7820:7830  msg.sender */\n      caller\n        /* \"UserAuth.sol\":7814:7831  users[msg.sender] */\n      0xffffffffffffffffffffffffffffffffffffffff\n      and\n      0xffffffffffffffffffffffffffffffffffffffff\n      and\n      dup2\n      mstore\n      0x20\n      add\n      swap1\n      dup2\n      mstore\n      0x20\n      add\n      0x00\n      keccak256\n        /* \"UserAuth.sol\":7814:7844  users[msg.sender].passwordHash */\n      0x01\n      add\n        /* \"UserAuth.sol\":7814:7862  users[msg.sender].passwordHash = newPasswordHash */\n      dup2\n      swap1\n      sstore\n      pop\n        /* \"UserAuth.sol\":7902:7912  msg.sender */\n      caller\n        /* \"UserAuth.sol\":7886:7930  PasswordUpdated(msg.sender, block.timestamp) */\n      0xffffffffffffffffffffffffffffffffffffffff\n      and\n      0x6d1969aab140cccffa4fcfa0eb229c78c80c6603b497d441aca82c6899af6be1\n        /* \"UserAuth.sol\":7914:7929  block.timestamp */\n      timestamp\n        /* \"UserAuth.sol\":7886:7930  PasswordUpdated(msg.sender, block.timestamp) */\n      mload(0x40)\n      tag_201\n      swap2\n      swap1\n      tag_64\n      jump\t// in\n    tag_201:\n      mload(0x40)\n      dup1\n      swap2\n      sub\n      swap1\n      log2\n        /* \"UserAuth.sol\":7397:7937  {... */\n      pop\n      pop\n        /* \"UserAuth.sol\":7293:7937  function updatePassword(string memory oldPassword, string memory newPassword) public onlyRegisteredUser {... */\n      pop\n      pop\n      jump\t// out\n        /* \"UserAuth.sol\":10231:10533  function deactivateAccount() public onlyRegisteredUser {... */\n    tag_83:\n        /* \"UserAuth.sol\":2621:2626  users */\n      0x00\n        /* \"UserAuth.sol\":2621:2638  users[msg.sender] */\n      0x00\n        /* \"UserAuth.sol\":2627:2637  msg.sender */\n      caller\n        /* \"UserAuth.sol\":2621:2638  users[msg.sender] */\n      0xffffffffffffffffffffffffffffffffffffffff\n      and\n      0xffffffffffffffffffffffffffffffffffffffff\n      and\n      dup2\n      mstore\n      0x20\n      add\n      swap1\n      dup2\n      mstore\n      0x20\n      add\n      0x00\n      keccak256\n        /* \"UserAuth.sol\":2621:2647  users[msg.sender].isActive */\n      0x03\n      add\n      0x00\n      swap1\n      sload\n      swap1\n      0x0100\n      exp\n      swap1\n      div\n      0xff\n      and\n        /* \"UserAuth.sol\":2613:2683  require(users[msg.sender].isActive, \"User not registered or inactive\") */\n      tag_203\n      jumpi\n      mload(0x40)\n      0x08c379a000000000000000000000000000000000000000000000000000000000\n      dup2\n      mstore\n      0x04\n      add\n      tag_204\n      swap1\n      tag_111\n      jump\t// in\n    tag_204:\n      mload(0x40)\n      dup1\n      swap2\n      sub\n      swap1\n      revert\n    tag_203:\n        /* \"UserAuth.sol\":10391:10396  false */\n      0x00\n        /* \"UserAuth.sol\":10362:10367  users */\n      0x00\n        /* \"UserAuth.sol\":10362:10379  users[msg.sender] */\n      0x00\n        /* \"UserAuth.sol\":10368:10378  msg.sender */\n      caller\n        /* \"UserAuth.sol\":10362:10379  users[msg.sender] */\n      0xffffffffffffffffffffffffffffffffffffffff\n      and\n      0xffffffffffffffffffffffffffffffffffffffff\n      and\n      dup2\n      mstore\n      0x20\n      add\n      swap1\n      dup2\n      mstore\n      0x20\n      add\n      0x00\n      keccak256\n        /* \"UserAuth.sol\":10362:10388  users[msg.sender].isActive */\n      0x03\n      add\n      0x00\n        /* \"UserAuth.sol\":10362:10396  users[msg.sender].isActive = false */\n      0x0100\n      exp\n      dup2\n      sload\n      dup2\n      0xff\n      mul\n      not\n      and\n      swap1\n      dup4\n      iszero\n      iszero\n      mul\n      or\n      swap1\n      sstore\n      pop\n        /* \"UserAuth.sol\":10424:10425  0 */\n      0x00\n        /* \"UserAuth.sol\":10410:10421  activeUsers */\n      sload(0x03)\n        /* \"UserAuth.sol\":10410:10425  activeUsers > 0 */\n      gt\n        /* \"UserAuth.sol\":10406:10468  if (activeUsers > 0) {... */\n      iszero\n      tag_206\n      jumpi\n        /* \"UserAuth.sol\":10456:10457  1 */\n      0x01\n        /* \"UserAuth.sol\":10441:10452  activeUsers */\n      0x03\n      0x00\n        /* \"UserAuth.sol\":10441:10457  activeUsers -= 1 */\n      dup3\n      dup3\n      sload\n      tag_207\n      swap2\n      swap1\n      tag_208\n      jump\t// in\n    tag_207:\n      swap3\n      pop\n      pop\n      dup2\n      swap1\n      sstore\n      pop\n        /* \"UserAuth.sol\":10406:10468  if (activeUsers > 0) {... */\n    tag_206:\n        /* \"UserAuth.sol\":10498:10508  msg.sender */\n      caller\n        /* \"UserAuth.sol\":10482:10526  UserDeactivated(msg.sender, block.timestamp) */\n      0xffffffffffffffffffffffffffffffffffffffff\n      and\n      0x0a3c4dd3ee5277d6eada470cf9b47a480953120ecafcbbdc14bde6f8a6248930\n        /* \"UserAuth.sol\":10510:10525  block.timestamp */\n      timestamp\n        /* \"UserAuth.sol\":10482:10526  UserDeactivated(msg.sender, block.timestamp) */\n      mload(0x40)\n      tag_209\n      swap2\n      swap1\n      tag_64\n      jump\t// in\n    tag_209:\n      mload(0x40)\n      dup1\n      swap2\n      sub\n      swap1\n      log2\n        /* \"UserAuth.sol\":10231:10533  function deactivateAccount() public onlyRegisteredUser {... */\n      jump\t// out\n        /* \"UserAuth.sol\":11168:11265  function getActiveUsers() public view returns (uint256 count) {... */\n    tag_85:\n        /* \"UserAuth.sol\":11215:11228  uint256 count */\n      0x00\n        /* \"UserAuth.sol\":11247:11258  activeUsers */\n      sload(0x03)\n        /* \"UserAuth.sol\":11240:11258  return activeUsers */\n      swap1\n      pop\n        /* \"UserAuth.sol\":11168:11265  function getActiveUsers() public view returns (uint256 count) {... */\n      swap1\n      jump\t// out\n        /* \"UserAuth.sol\":10682:10911  function isUsernameAvailable(string memory username) public view returns (bool available) {... */\n    tag_90:\n        /* \"UserAuth.sol\":10756:10770  bool available */\n      0x00\n        /* \"UserAuth.sol\":10782:10802  bytes32 usernameHash */\n      0x00\n        /* \"UserAuth.sol\":10832:10840  username */\n      dup3\n        /* \"UserAuth.sol\":10815:10841  abi.encodePacked(username) */\n      add(0x20, mload(0x40))\n      tag_212\n      swap2\n      swap1\n      tag_135\n      jump\t// in\n    tag_212:\n      mload(0x40)\n      0x20\n      dup2\n      dup4\n      sub\n      sub\n      dup2\n      mstore\n      swap1\n      0x40\n      mstore\n        /* \"UserAuth.sol\":10805:10842  keccak256(abi.encodePacked(username)) */\n      dup1\n      mload\n      swap1\n      0x20\n      add\n      keccak256\n        /* \"UserAuth.sol\":10782:10842  bytes32 usernameHash = keccak256(abi.encodePacked(username)) */\n      swap1\n      pop\n        /* \"UserAuth.sol\":10902:10903  0 */\n      0x00\n        /* \"UserAuth.sol\":10859:10904  usernameToAddress[usernameHash] == address(0) */\n      0xffffffffffffffffffffffffffffffffffffffff\n      and\n        /* \"UserAuth.sol\":10859:10876  usernameToAddress */\n      0x01\n        /* \"UserAuth.sol\":10859:10890  usernameToAddress[usernameHash] */\n      0x00\n        /* \"UserAuth.sol\":10877:10889  usernameHash */\n      dup4\n        /* \"UserAuth.sol\":10859:10890  usernameToAddress[usernameHash] */\n      dup2\n      mstore\n      0x20\n      add\n      swap1\n      dup2\n      mstore\n      0x20\n      add\n      0x00\n      keccak256\n      0x00\n      swap1\n      sload\n      swap1\n      0x0100\n      exp\n      swap1\n      div\n      0xffffffffffffffffffffffffffffffffffffffff\n      and\n        /* \"UserAuth.sol\":10859:10904  usernameToAddress[usernameHash] == address(0) */\n      0xffffffffffffffffffffffffffffffffffffffff\n      and\n      eq\n        /* \"UserAuth.sol\":10852:10904  return usernameToAddress[usernameHash] == address(0) */\n      swap2\n      pop\n      pop\n        /* \"UserAuth.sol\":10682:10911  function isUsernameAvailable(string memory username) public view returns (bool available) {... */\n      swap2\n      swap1\n      pop\n      jump\t// out\n        /* \"UserAuth.sol\":8451:9035  function getMyProfileInfo()... */\n    tag_93:\n        /* \"UserAuth.sol\":8564:8584  bytes32 usernameHash */\n      0x00\n        /* \"UserAuth.sol\":8598:8615  uint256 createdAt */\n      0x00\n        /* \"UserAuth.sol\":8629:8642  bool isActive */\n      0x00\n        /* \"UserAuth.sol\":8656:8679  bytes32 profileDataHash */\n      0x00\n        /* \"UserAuth.sol\":8693:8714  bytes32 publicKeyHash */\n      0x00\n        /* \"UserAuth.sol\":8728:8755  ProfileStatus profileStatus */\n      0x00\n        /* \"UserAuth.sol\":2621:2626  users */\n      0x00\n        /* \"UserAuth.sol\":2621:2638  users[msg.sender] */\n      0x00\n        /* \"UserAuth.sol\":2627:2637  msg.sender */\n      caller\n        /* \"UserAuth.sol\":2621:2638  users[msg.sender] */\n      0xffffffffffffffffffffffffffffffffffffffff\n      and\n      0xffffffffffffffffffffffffffffffffffffffff\n      and\n      dup2\n      mstore\n      0x20\n      add\n      swap1\n      dup2\n      mstore\n      0x20\n      add\n      0x00\n      keccak256\n        /* \"UserAuth.sol\":2621:2647  users[msg.sender].isActive */\n      0x03\n      add\n      0x00\n      swap1\n      sload\n      swap1\n      0x0100\n      exp\n      swap1\n      div\n      0xff\n      and\n        /* \"UserAuth.sol\":2613:2683  require(users[msg.sender].isActive, \"User not registered or inactive\") */\n      tag_214\n      jumpi\n      mload(0x40)\n      0x08c379a000000000000000000000000000000000000000000000000000000000\n      dup2\n      mstore\n      0x04\n      add\n      tag_215\n      swap1\n      tag_111\n      jump\t// in\n    tag_215:\n      mload(0x40)\n      dup1\n      swap2\n      sub\n      swap1\n      revert\n    tag_214:\n        /* \"UserAuth.sol\":8780:8797  User storage user */\n      0x00\n        /* \"UserAuth.sol\":8800:8805  users */\n      0x00\n        /* \"UserAuth.sol\":8800:8817  users[msg.sender] */\n      0x00\n        /* \"UserAuth.sol\":8806:8816  msg.sender */\n      caller\n        /* \"UserAuth.sol\":8800:8817  users[msg.sender] */\n      0xffffffffffffffffffffffffffffffffffffffff\n      and\n      0xffffffffffffffffffffffffffffffffffffffff\n      and\n      dup2\n      mstore\n      0x20\n      add\n      swap1\n      dup2\n      mstore\n      0x20\n      add\n      0x00\n      keccak256\n        /* \"UserAuth.sol\":8780:8817  User storage user = users[msg.sender] */\n      swap1\n      pop\n        /* \"UserAuth.sol\":8848:8852  user */\n      dup1\n        /* \"UserAuth.sol\":8848:8865  user.usernameHash */\n      0x00\n      add\n      sload\n        /* \"UserAuth.sol\":8879:8883  user */\n      dup2\n        /* \"UserAuth.sol\":8879:8893  user.createdAt */\n      0x02\n      add\n      sload\n        /* \"UserAuth.sol\":8907:8911  user */\n      dup3\n        /* \"UserAuth.sol\":8907:8920  user.isActive */\n      0x03\n      add\n      0x00\n      swap1\n      sload\n      swap1\n      0x0100\n      exp\n      swap1\n      div\n      0xff\n      and\n        /* \"UserAuth.sol\":8934:8938  user */\n      dup4\n        /* \"UserAuth.sol\":8934:8954  user.profileDataHash */\n      0x04\n      add\n      sload\n        /* \"UserAuth.sol\":8968:8972  user */\n      dup5\n        /* \"UserAuth.sol\":8968:8986  user.publicKeyHash */\n      0x05\n      add\n      sload\n        /* \"UserAuth.sol\":9000:9004  user */\n      dup6\n        /* \"UserAuth.sol\":9000:9018  user.profileStatus */\n      0x06\n      add\n      0x00\n      swap1\n      sload\n      swap1\n      0x0100\n      exp\n      swap1\n      div\n      0xff\n      and\n        /* \"UserAuth.sol\":8827:9028  return (... */\n      swap7\n      pop\n      swap7\n      pop\n      swap7\n      pop\n      swap7\n      pop\n      swap7\n      pop\n      swap7\n      pop\n      pop\n        /* \"UserAuth.sol\":8451:9035  function getMyProfileInfo()... */\n      swap1\n      swap2\n      swap3\n      swap4\n      swap5\n      swap6\n      jump\t// out\n        /* \"#utility.yul\":7:82   */\n    tag_217:\n        /* \"#utility.yul\":40:46   */\n      0x00\n        /* \"#utility.yul\":73:75   */\n      0x40\n        /* \"#utility.yul\":67:76   */\n      mload\n        /* \"#utility.yul\":57:76   */\n      swap1\n      pop\n        /* \"#utility.yul\":7:82   */\n      swap1\n      jump\t// out\n        /* \"#utility.yul\":88:205   */\n    tag_218:\n        /* \"#utility.yul\":197:198   */\n      0x00\n        /* \"#utility.yul\":194:195   */\n      0x00\n        /* \"#utility.yul\":187:199   */\n      revert\n        /* \"#utility.yul\":211:328   */\n    tag_219:\n        /* \"#utility.yul\":320:321   */\n      0x00\n        /* \"#utility.yul\":317:318   */\n      0x00\n        /* \"#utility.yul\":310:322   */\n      revert\n        /* \"#utility.yul\":334:411   */\n    tag_220:\n        /* \"#utility.yul\":371:378   */\n      0x00\n        /* \"#utility.yul\":400:405   */\n      dup2\n        /* \"#utility.yul\":389:405   */\n      swap1\n      pop\n        /* \"#utility.yul\":334:411   */\n      swap2\n      swap1\n      pop\n      jump\t// out\n        /* \"#utility.yul\":417:539   */\n    tag_221:\n        /* \"#utility.yul\":490:514   */\n      tag_281\n        /* \"#utility.yul\":508:513   */\n      dup2\n        /* \"#utility.yul\":490:514   */\n      tag_220\n      jump\t// in\n    tag_281:\n        /* \"#utility.yul\":483:488   */\n      dup2\n        /* \"#utility.yul\":480:515   */\n      eq\n        /* \"#utility.yul\":470:533   */\n      tag_282\n      jumpi\n        /* \"#utility.yul\":529:530   */\n      0x00\n        /* \"#utility.yul\":526:527   */\n      0x00\n        /* \"#utility.yul\":519:531   */\n      revert\n        /* \"#utility.yul\":470:533   */\n    tag_282:\n        /* \"#utility.yul\":417:539   */\n      pop\n      jump\t// out\n        /* \"#utility.yul\":545:684   */\n    tag_222:\n        /* \"#utility.yul\":591:596   */\n      0x00\n        /* \"#utility.yul\":629:635   */\n      dup2\n        /* \"#utility.yul\":616:636   */\n      calldataload\n        /* \"#utility.yul\":607:636   */\n      swap1\n      pop\n        /* \"#utility.yul\":645:678   */\n      tag_284\n        /* \"#utility.yul\":672:677   */\n      dup2\n        /* \"#utility.yul\":645:678   */\n      tag_221\n      jump\t// in\n    tag_284:\n        /* \"#utility.yul\":545:684   */\n      swap3\n      swap2\n      pop\n      pop\n      jump\t// out\n        /* \"#utility.yul\":690:1019   */\n    tag_26:\n        /* \"#utility.yul\":749:755   */\n      0x00\n        /* \"#utility.yul\":798:800   */\n      0x20\n        /* \"#utility.yul\":786:795   */\n      dup3\n        /* \"#utility.yul\":777:784   */\n      dup5\n        /* \"#utility.yul\":773:796   */\n      sub\n        /* \"#utility.yul\":769:801   */\n      slt\n        /* \"#utility.yul\":766:885   */\n      iszero\n      tag_286\n      jumpi\n        /* \"#utility.yul\":804:883   */\n      tag_287\n      tag_218\n      jump\t// in\n    tag_287:\n        /* \"#utility.yul\":766:885   */\n    tag_286:\n        /* \"#utility.yul\":924:925   */\n      0x00\n        /* \"#utility.yul\":949:1002   */\n      tag_288\n        /* \"#utility.yul\":994:1001   */\n      dup5\n        /* \"#utility.yul\":985:991   */\n      dup3\n        /* \"#utility.yul\":974:983   */\n      dup6\n        /* \"#utility.yul\":970:992   */\n      add\n        /* \"#utility.yul\":949:1002   */\n      tag_222\n      jump\t// in\n    tag_288:\n        /* \"#utility.yul\":939:1002   */\n      swap2\n      pop\n        /* \"#utility.yul\":895:1012   */\n      pop\n        /* \"#utility.yul\":690:1019   */\n      swap3\n      swap2\n      pop\n      pop\n      jump\t// out\n        /* \"#utility.yul\":1025:1151   */\n    tag_223:\n        /* \"#utility.yul\":1062:1069   */\n      0x00\n        /* \"#utility.yul\":1102:1144   */\n      0xffffffffffffffffffffffffffffffffffffffff\n        /* \"#utility.yul\":1095:1100   */\n      dup3\n        /* \"#utility.yul\":1091:1145   */\n      and\n        /* \"#utility.yul\":1080:1145   */\n      swap1\n      pop\n        /* \"#utility.yul\":1025:1151   */\n      swap2\n      swap1\n      pop\n      jump\t// out\n        /* \"#utility.yul\":1157:1253   */\n    tag_224:\n        /* \"#utility.yul\":1194:1201   */\n      0x00\n        /* \"#utility.yul\":1223:1247   */\n      tag_291\n        /* \"#utility.yul\":1241:1246   */\n      dup3\n        /* \"#utility.yul\":1223:1247   */\n      tag_223\n      jump\t// in\n    tag_291:\n        /* \"#utility.yul\":1212:1247   */\n      swap1\n      pop\n        /* \"#utility.yul\":1157:1253   */\n      swap2\n      swap1\n      pop\n      jump\t// out\n        /* \"#utility.yul\":1259:1377   */\n    tag_225:\n        /* \"#utility.yul\":1346:1370   */\n      tag_293\n        /* \"#utility.yul\":1364:1369   */\n      dup2\n        /* \"#utility.yul\":1346:1370   */\n      tag_224\n      jump\t// in\n    tag_293:\n        /* \"#utility.yul\":1341:1344   */\n      dup3\n        /* \"#utility.yul\":1334:1371   */\n      mstore\n        /* \"#utility.yul\":1259:1377   */\n      pop\n      pop\n      jump\t// out\n        /* \"#utility.yul\":1383:1605   */\n    tag_29:\n        /* \"#utility.yul\":1476:1480   */\n      0x00\n        /* \"#utility.yul\":1514:1516   */\n      0x20\n        /* \"#utility.yul\":1503:1512   */\n      dup3\n        /* \"#utility.yul\":1499:1517   */\n      add\n        /* \"#utility.yul\":1491:1517   */\n      swap1\n      pop\n        /* \"#utility.yul\":1527:1598   */\n      tag_295\n        /* \"#utility.yul\":1595:1596   */\n      0x00\n        /* \"#utility.yul\":1584:1593   */\n      dup4\n        /* \"#utility.yul\":1580:1597   */\n      add\n        /* \"#utility.yul\":1571:1577   */\n      dup5\n        /* \"#utility.yul\":1527:1598   */\n      tag_225\n      jump\t// in\n    tag_295:\n        /* \"#utility.yul\":1383:1605   */\n      swap3\n      swap2\n      pop\n      pop\n      jump\t// out\n        /* \"#utility.yul\":1611:1733   */\n    tag_226:\n        /* \"#utility.yul\":1684:1708   */\n      tag_297\n        /* \"#utility.yul\":1702:1707   */\n      dup2\n        /* \"#utility.yul\":1684:1708   */\n      tag_224\n      jump\t// in\n    tag_297:\n        /* \"#utility.yul\":1677:1682   */\n      dup2\n        /* \"#utility.yul\":1674:1709   */\n      eq\n        /* \"#utility.yul\":1664:1727   */\n      tag_298\n      jumpi\n        /* \"#utility.yul\":1723:1724   */\n      0x00\n        /* \"#utility.yul\":1720:1721   */\n      0x00\n        /* \"#utility.yul\":1713:1725   */\n      revert\n        /* \"#utility.yul\":1664:1727   */\n    tag_298:\n        /* \"#utility.yul\":1611:1733   */\n      pop\n      jump\t// out\n        /* \"#utility.yul\":1739:1878   */\n    tag_227:\n        /* \"#utility.yul\":1785:1790   */\n      0x00\n        /* \"#utility.yul\":1823:1829   */\n      dup2\n        /* \"#utility.yul\":1810:1830   */\n      calldataload\n        /* \"#utility.yul\":1801:1830   */\n      swap1\n      pop\n        /* \"#utility.yul\":1839:1872   */\n      tag_300\n        /* \"#utility.yul\":1866:1871   */\n      dup2\n        /* \"#utility.yul\":1839:1872   */\n      tag_226\n      jump\t// in\n    tag_300:\n        /* \"#utility.yul\":1739:1878   */\n      swap3\n      swap2\n      pop\n      pop\n      jump\t// out\n        /* \"#utility.yul\":1884:2213   */\n    tag_32:\n        /* \"#utility.yul\":1943:1949   */\n      0x00\n        /* \"#utility.yul\":1992:1994   */\n      0x20\n        /* \"#utility.yul\":1980:1989   */\n      dup3\n        /* \"#utility.yul\":1971:1978   */\n      dup5\n        /* \"#utility.yul\":1967:1990   */\n      sub\n        /* \"#utility.yul\":1963:1995   */\n      slt\n        /* \"#utility.yul\":1960:2079   */\n      iszero\n      tag_302\n      jumpi\n        /* \"#utility.yul\":1998:2077   */\n      tag_303\n      tag_218\n      jump\t// in\n    tag_303:\n        /* \"#utility.yul\":1960:2079   */\n    tag_302:\n        /* \"#utility.yul\":2118:2119   */\n      0x00\n        /* \"#utility.yul\":2143:2196   */\n      tag_304\n        /* \"#utility.yul\":2188:2195   */\n      dup5\n        /* \"#utility.yul\":2179:2185   */\n      dup3\n        /* \"#utility.yul\":2168:2177   */\n      dup6\n        /* \"#utility.yul\":2164:2186   */\n      add\n        /* \"#utility.yul\":2143:2196   */\n      tag_227\n      jump\t// in\n    tag_304:\n        /* \"#utility.yul\":2133:2196   */\n      swap2\n      pop\n        /* \"#utility.yul\":2089:2206   */\n      pop\n        /* \"#utility.yul\":1884:2213   */\n      swap3\n      swap2\n      pop\n      pop\n      jump\t// out\n        /* \"#utility.yul\":2219:2337   */\n    tag_228:\n        /* \"#utility.yul\":2306:2330   */\n      tag_306\n        /* \"#utility.yul\":2324:2329   */\n      dup2\n        /* \"#utility.yul\":2306:2330   */\n      tag_220\n      jump\t// in\n    tag_306:\n        /* \"#utility.yul\":2301:2304   */\n      dup3\n        /* \"#utility.yul\":2294:2331   */\n      mstore\n        /* \"#utility.yul\":2219:2337   */\n      pop\n      pop\n      jump\t// out\n        /* \"#utility.yul\":2343:2420   */\n    tag_229:\n        /* \"#utility.yul\":2380:2387   */\n      0x00\n        /* \"#utility.yul\":2409:2414   */\n      dup2\n        /* \"#utility.yul\":2398:2414   */\n      swap1\n      pop\n        /* \"#utility.yul\":2343:2420   */\n      swap2\n      swap1\n      pop\n      jump\t// out\n        /* \"#utility.yul\":2426:2544   */\n    tag_230:\n        /* \"#utility.yul\":2513:2537   */\n      tag_309\n        /* \"#utility.yul\":2531:2536   */\n      dup2\n        /* \"#utility.yul\":2513:2537   */\n      tag_229\n      jump\t// in\n    tag_309:\n        /* \"#utility.yul\":2508:2511   */\n      dup3\n        /* \"#utility.yul\":2501:2538   */\n      mstore\n        /* \"#utility.yul\":2426:2544   */\n      pop\n      pop\n      jump\t// out\n        /* \"#utility.yul\":2550:3103   */\n    tag_35:\n        /* \"#utility.yul\":2727:2731   */\n      0x00\n        /* \"#utility.yul\":2765:2768   */\n      0x80\n        /* \"#utility.yul\":2754:2763   */\n      dup3\n        /* \"#utility.yul\":2750:2769   */\n      add\n        /* \"#utility.yul\":2742:2769   */\n      swap1\n      pop\n        /* \"#utility.yul\":2779:2850   */\n      tag_311\n        /* \"#utility.yul\":2847:2848   */\n      0x00\n        /* \"#utility.yul\":2836:2845   */\n      dup4\n        /* \"#utility.yul\":2832:2849   */\n      add\n        /* \"#utility.yul\":2823:2829   */\n      dup8\n        /* \"#utility.yul\":2779:2850   */\n      tag_228\n      jump\t// in\n    tag_311:\n        /* \"#utility.yul\":2860:2932   */\n      tag_312\n        /* \"#utility.yul\":2928:2930   */\n      0x20\n        /* \"#utility.yul\":2917:2926   */\n      dup4\n        /* \"#utility.yul\":2913:2931   */\n      add\n        /* \"#utility.yul\":2904:2910   */\n      dup7\n        /* \"#utility.yul\":2860:2932   */\n      tag_228\n      jump\t// in\n    tag_312:\n        /* \"#utility.yul\":2942:3014   */\n      tag_313\n        /* \"#utility.yul\":3010:3012   */\n      0x40\n        /* \"#utility.yul\":2999:3008   */\n      dup4\n        /* \"#utility.yul\":2995:3013   */\n      add\n        /* \"#utility.yul\":2986:2992   */\n      dup6\n        /* \"#utility.yul\":2942:3014   */\n      tag_228\n      jump\t// in\n    tag_313:\n        /* \"#utility.yul\":3024:3096   */\n      tag_314\n        /* \"#utility.yul\":3092:3094   */\n      0x60\n        /* \"#utility.yul\":3081:3090   */\n      dup4\n        /* \"#utility.yul\":3077:3095   */\n      add\n        /* \"#utility.yul\":3068:3074   */\n      dup5\n        /* \"#utility.yul\":3024:3096   */\n      tag_230\n      jump\t// in\n    tag_314:\n        /* \"#utility.yul\":2550:3103   */\n      swap6\n      swap5\n      pop\n      pop\n      pop\n      pop\n      pop\n      jump\t// out\n        /* \"#utility.yul\":3109:3226   */\n    tag_231:\n        /* \"#utility.yul\":3218:3219   */\n      0x00\n        /* \"#utility.yul\":3215:3216   */\n      0x00\n        /* \"#utility.yul\":3208:3220   */\n      revert\n        /* \"#utility.yul\":3232:3349   */\n    tag_232:\n        /* \"#utility.yul\":3341:3342   */\n      0x00\n        /* \"#utility.yul\":3338:3339   */\n      0x00\n        /* \"#utility.yul\":3331:3343   */\n      revert\n        /* \"#utility.yul\":3355:3457   */\n    tag_233:\n        /* \"#utility.yul\":3396:3402   */\n      0x00\n        /* \"#utility.yul\":3447:3449   */\n      0x1f\n        /* \"#utility.yul\":3443:3450   */\n      not\n        /* \"#utility.yul\":3438:3440   */\n      0x1f\n        /* \"#utility.yul\":3431:3436   */\n      dup4\n        /* \"#utility.yul\":3427:3441   */\n      add\n        /* \"#utility.yul\":3423:3451   */\n      and\n        /* \"#utility.yul\":3413:3451   */\n      swap1\n      pop\n        /* \"#utility.yul\":3355:3457   */\n      swap2\n      swap1\n      pop\n      jump\t// out\n        /* \"#utility.yul\":3463:3643   */\n    tag_234:\n        /* \"#utility.yul\":3511:3588   */\n      0x4e487b7100000000000000000000000000000000000000000000000000000000\n        /* \"#utility.yul\":3508:3509   */\n      0x00\n        /* \"#utility.yul\":3501:3589   */\n      mstore\n        /* \"#utility.yul\":3608:3612   */\n      0x41\n        /* \"#utility.yul\":3605:3606   */\n      0x04\n        /* \"#utility.yul\":3598:3613   */\n      mstore\n        /* \"#utility.yul\":3632:3636   */\n      0x24\n        /* \"#utility.yul\":3629:3630   */\n      0x00\n        /* \"#utility.yul\":3622:3637   */\n      revert\n        /* \"#utility.yul\":3649:3930   */\n    tag_235:\n        /* \"#utility.yul\":3732:3759   */\n      tag_320\n        /* \"#utility.yul\":3754:3758   */\n      dup3\n        /* \"#utility.yul\":3732:3759   */\n      tag_233\n      jump\t// in\n    tag_320:\n        /* \"#utility.yul\":3724:3730   */\n      dup2\n        /* \"#utility.yul\":3720:3760   */\n      add\n        /* \"#utility.yul\":3862:3868   */\n      dup2\n        /* \"#utility.yul\":3850:3860   */\n      dup2\n        /* \"#utility.yul\":3847:3869   */\n      lt\n        /* \"#utility.yul\":3826:3844   */\n      0xffffffffffffffff\n        /* \"#utility.yul\":3814:3824   */\n      dup3\n        /* \"#utility.yul\":3811:3845   */\n      gt\n        /* \"#utility.yul\":3808:3870   */\n      or\n        /* \"#utility.yul\":3805:3893   */\n      iszero\n      tag_321\n      jumpi\n        /* \"#utility.yul\":3873:3891   */\n      tag_322\n      tag_234\n      jump\t// in\n    tag_322:\n        /* \"#utility.yul\":3805:3893   */\n    tag_321:\n        /* \"#utility.yul\":3913:3923   */\n      dup1\n        /* \"#utility.yul\":3909:3911   */\n      0x40\n        /* \"#utility.yul\":3902:3924   */\n      mstore\n        /* \"#utility.yul\":3692:3930   */\n      pop\n        /* \"#utility.yul\":3649:3930   */\n      pop\n      pop\n      jump\t// out\n        /* \"#utility.yul\":3936:4065   */\n    tag_236:\n        /* \"#utility.yul\":3970:3976   */\n      0x00\n        /* \"#utility.yul\":3997:4017   */\n      tag_324\n      tag_217\n      jump\t// in\n    tag_324:\n        /* \"#utility.yul\":3987:4017   */\n      swap1\n      pop\n        /* \"#utility.yul\":4026:4059   */\n      tag_325\n        /* \"#utility.yul\":4054:4058   */\n      dup3\n        /* \"#utility.yul\":4046:4052   */\n      dup3\n        /* \"#utility.yul\":4026:4059   */\n      tag_235\n      jump\t// in\n    tag_325:\n        /* \"#utility.yul\":3936:4065   */\n      swap2\n      swap1\n      pop\n      jump\t// out\n        /* \"#utility.yul\":4071:4379   */\n    tag_237:\n        /* \"#utility.yul\":4133:4137   */\n      0x00\n        /* \"#utility.yul\":4223:4241   */\n      0xffffffffffffffff\n        /* \"#utility.yul\":4215:4221   */\n      dup3\n        /* \"#utility.yul\":4212:4242   */\n      gt\n        /* \"#utility.yul\":4209:4265   */\n      iszero\n      tag_327\n      jumpi\n        /* \"#utility.yul\":4245:4263   */\n      tag_328\n      tag_234\n      jump\t// in\n    tag_328:\n        /* \"#utility.yul\":4209:4265   */\n    tag_327:\n        /* \"#utility.yul\":4283:4312   */\n      tag_329\n        /* \"#utility.yul\":4305:4311   */\n      dup3\n        /* \"#utility.yul\":4283:4312   */\n      tag_233\n      jump\t// in\n    tag_329:\n        /* \"#utility.yul\":4275:4312   */\n      swap1\n      pop\n        /* \"#utility.yul\":4367:4371   */\n      0x20\n        /* \"#utility.yul\":4361:4365   */\n      dup2\n        /* \"#utility.yul\":4357:4372   */\n      add\n        /* \"#utility.yul\":4349:4372   */\n      swap1\n      pop\n        /* \"#utility.yul\":4071:4379   */\n      swap2\n      swap1\n      pop\n      jump\t// out\n        /* \"#utility.yul\":4385:4533   */\n    tag_238:\n        /* \"#utility.yul\":4483:4489   */\n      dup3\n        /* \"#utility.yul\":4478:4481   */\n      dup2\n        /* \"#utility.yul\":4473:4476   */\n      dup4\n        /* \"#utility.yul\":4460:4490   */\n      calldatacopy\n        /* \"#utility.yul\":4524:4525   */\n      0x00\n        /* \"#utility.yul\":4515:4521   */\n      dup4\n        /* \"#utility.yul\":4510:4513   */\n      dup4\n        /* \"#utility.yul\":4506:4522   */\n      add\n        /* \"#utility.yul\":4499:4526   */\n      mstore\n        /* \"#utility.yul\":4385:4533   */\n      pop\n      pop\n      pop\n      jump\t// out\n        /* \"#utility.yul\":4539:4964   */\n    tag_239:\n        /* \"#utility.yul\":4617:4622   */\n      0x00\n        /* \"#utility.yul\":4642:4708   */\n      tag_332\n        /* \"#utility.yul\":4658:4707   */\n      tag_333\n        /* \"#utility.yul\":4700:4706   */\n      dup5\n        /* \"#utility.yul\":4658:4707   */\n      tag_237\n      jump\t// in\n    tag_333:\n        /* \"#utility.yul\":4642:4708   */\n      tag_236\n      jump\t// in\n    tag_332:\n        /* \"#utility.yul\":4633:4708   */\n      swap1\n      pop\n        /* \"#utility.yul\":4731:4737   */\n      dup3\n        /* \"#utility.yul\":4724:4729   */\n      dup2\n        /* \"#utility.yul\":4717:4738   */\n      mstore\n        /* \"#utility.yul\":4769:4773   */\n      0x20\n        /* \"#utility.yul\":4762:4767   */\n      dup2\n        /* \"#utility.yul\":4758:4774   */\n      add\n        /* \"#utility.yul\":4807:4810   */\n      dup5\n        /* \"#utility.yul\":4798:4804   */\n      dup5\n        /* \"#utility.yul\":4793:4796   */\n      dup5\n        /* \"#utility.yul\":4789:4805   */\n      add\n        /* \"#utility.yul\":4786:4811   */\n      gt\n        /* \"#utility.yul\":4783:4895   */\n      iszero\n      tag_334\n      jumpi\n        /* \"#utility.yul\":4814:4893   */\n      tag_335\n      tag_232\n      jump\t// in\n    tag_335:\n        /* \"#utility.yul\":4783:4895   */\n    tag_334:\n        /* \"#utility.yul\":4904:4958   */\n      tag_336\n        /* \"#utility.yul\":4951:4957   */\n      dup5\n        /* \"#utility.yul\":4946:4949   */\n      dup3\n        /* \"#utility.yul\":4941:4944   */\n      dup6\n        /* \"#utility.yul\":4904:4958   */\n      tag_238\n      jump\t// in\n    tag_336:\n        /* \"#utility.yul\":4623:4964   */\n      pop\n        /* \"#utility.yul\":4539:4964   */\n      swap4\n      swap3\n      pop\n      pop\n      pop\n      jump\t// out\n        /* \"#utility.yul\":4984:5324   */\n    tag_240:\n        /* \"#utility.yul\":5040:5045   */\n      0x00\n        /* \"#utility.yul\":5089:5092   */\n      dup3\n        /* \"#utility.yul\":5082:5086   */\n      0x1f\n        /* \"#utility.yul\":5074:5080   */\n      dup4\n        /* \"#utility.yul\":5070:5087   */\n      add\n        /* \"#utility.yul\":5066:5093   */\n      slt\n        /* \"#utility.yul\":5056:5178   */\n      tag_338\n      jumpi\n        /* \"#utility.yul\":5097:5176   */\n      tag_339\n      tag_231\n      jump\t// in\n    tag_339:\n        /* \"#utility.yul\":5056:5178   */\n    tag_338:\n        /* \"#utility.yul\":5214:5220   */\n      dup2\n        /* \"#utility.yul\":5201:5221   */\n      calldataload\n        /* \"#utility.yul\":5239:5318   */\n      tag_340\n        /* \"#utility.yul\":5314:5317   */\n      dup5\n        /* \"#utility.yul\":5306:5312   */\n      dup3\n        /* \"#utility.yul\":5299:5303   */\n      0x20\n        /* \"#utility.yul\":5291:5297   */\n      dup7\n        /* \"#utility.yul\":5287:5304   */\n      add\n        /* \"#utility.yul\":5239:5318   */\n      tag_239\n      jump\t// in\n    tag_340:\n        /* \"#utility.yul\":5230:5318   */\n      swap2\n      pop\n        /* \"#utility.yul\":5046:5324   */\n      pop\n        /* \"#utility.yul\":4984:5324   */\n      swap3\n      swap2\n      pop\n      pop\n      jump\t// out\n        /* \"#utility.yul\":5330:6164   */\n    tag_40:\n        /* \"#utility.yul\":5418:5424   */\n      0x00\n        /* \"#utility.yul\":5426:5432   */\n      0x00\n        /* \"#utility.yul\":5475:5477   */\n      0x40\n        /* \"#utility.yul\":5463:5472   */\n      dup4\n        /* \"#utility.yul\":5454:5461   */\n      dup6\n        /* \"#utility.yul\":5450:5473   */\n      sub\n        /* \"#utility.yul\":5446:5478   */\n      slt\n        /* \"#utility.yul\":5443:5562   */\n      iszero\n      tag_342\n      jumpi\n        /* \"#utility.yul\":5481:5560   */\n      tag_343\n      tag_218\n      jump\t// in\n    tag_343:\n        /* \"#utility.yul\":5443:5562   */\n    tag_342:\n        /* \"#utility.yul\":5629:5630   */\n      0x00\n        /* \"#utility.yul\":5618:5627   */\n      dup4\n        /* \"#utility.yul\":5614:5631   */\n      add\n        /* \"#utility.yul\":5601:5632   */\n      calldataload\n        /* \"#utility.yul\":5659:5677   */\n      0xffffffffffffffff\n        /* \"#utility.yul\":5651:5657   */\n      dup2\n        /* \"#utility.yul\":5648:5678   */\n      gt\n        /* \"#utility.yul\":5645:5762   */\n      iszero\n      tag_344\n      jumpi\n        /* \"#utility.yul\":5681:5760   */\n      tag_345\n      tag_219\n      jump\t// in\n    tag_345:\n        /* \"#utility.yul\":5645:5762   */\n    tag_344:\n        /* \"#utility.yul\":5786:5849   */\n      tag_346\n        /* \"#utility.yul\":5841:5848   */\n      dup6\n        /* \"#utility.yul\":5832:5838   */\n      dup3\n        /* \"#utility.yul\":5821:5830   */\n      dup7\n        /* \"#utility.yul\":5817:5839   */\n      add\n        /* \"#utility.yul\":5786:5849   */\n      tag_240\n      jump\t// in\n    tag_346:\n        /* \"#utility.yul\":5776:5849   */\n      swap3\n      pop\n        /* \"#utility.yul\":5572:5859   */\n      pop\n        /* \"#utility.yul\":5926:5928   */\n      0x20\n        /* \"#utility.yul\":5915:5924   */\n      dup4\n        /* \"#utility.yul\":5911:5929   */\n      add\n        /* \"#utility.yul\":5898:5930   */\n      calldataload\n        /* \"#utility.yul\":5957:5975   */\n      0xffffffffffffffff\n        /* \"#utility.yul\":5949:5955   */\n      dup2\n        /* \"#utility.yul\":5946:5976   */\n      gt\n        /* \"#utility.yul\":5943:6060   */\n      iszero\n      tag_347\n      jumpi\n        /* \"#utility.yul\":5979:6058   */\n      tag_348\n      tag_219\n      jump\t// in\n    tag_348:\n        /* \"#utility.yul\":5943:6060   */\n    tag_347:\n        /* \"#utility.yul\":6084:6147   */\n      tag_349\n        /* \"#utility.yul\":6139:6146   */\n      dup6\n        /* \"#utility.yul\":6130:6136   */\n      dup3\n        /* \"#utility.yul\":6119:6128   */\n      dup7\n        /* \"#utility.yul\":6115:6137   */\n      add\n        /* \"#utility.yul\":6084:6147   */\n      tag_240\n      jump\t// in\n    tag_349:\n        /* \"#utility.yul\":6074:6147   */\n      swap2\n      pop\n        /* \"#utility.yul\":5869:6157   */\n      pop\n        /* \"#utility.yul\":5330:6164   */\n      swap3\n      pop\n      swap3\n      swap1\n      pop\n      jump\t// out\n        /* \"#utility.yul\":6170:6260   */\n    tag_241:\n        /* \"#utility.yul\":6204:6211   */\n      0x00\n        /* \"#utility.yul\":6247:6252   */\n      dup2\n        /* \"#utility.yul\":6240:6253   */\n      iszero\n        /* \"#utility.yul\":6233:6254   */\n      iszero\n        /* \"#utility.yul\":6222:6254   */\n      swap1\n      pop\n        /* \"#utility.yul\":6170:6260   */\n      swap2\n      swap1\n      pop\n      jump\t// out\n        /* \"#utility.yul\":6266:6375   */\n    tag_242:\n        /* \"#utility.yul\":6347:6368   */\n      tag_352\n        /* \"#utility.yul\":6362:6367   */\n      dup2\n        /* \"#utility.yul\":6347:6368   */\n      tag_241\n      jump\t// in\n    tag_352:\n        /* \"#utility.yul\":6342:6345   */\n      dup3\n        /* \"#utility.yul\":6335:6369   */\n      mstore\n        /* \"#utility.yul\":6266:6375   */\n      pop\n      pop\n      jump\t// out\n        /* \"#utility.yul\":6381:6591   */\n    tag_48:\n        /* \"#utility.yul\":6468:6472   */\n      0x00\n        /* \"#utility.yul\":6506:6508   */\n      0x20\n        /* \"#utility.yul\":6495:6504   */\n      dup3\n        /* \"#utility.yul\":6491:6509   */\n      add\n        /* \"#utility.yul\":6483:6509   */\n      swap1\n      pop\n        /* \"#utility.yul\":6519:6584   */\n      tag_354\n        /* \"#utility.yul\":6581:6582   */\n      0x00\n        /* \"#utility.yul\":6570:6579   */\n      dup4\n        /* \"#utility.yul\":6566:6583   */\n      add\n        /* \"#utility.yul\":6557:6563   */\n      dup5\n        /* \"#utility.yul\":6519:6584   */\n      tag_242\n      jump\t// in\n    tag_354:\n        /* \"#utility.yul\":6381:6591   */\n      swap3\n      swap2\n      pop\n      pop\n      jump\t// out\n        /* \"#utility.yul\":6597:7027   */\n    tag_52:\n        /* \"#utility.yul\":6740:6744   */\n      0x00\n        /* \"#utility.yul\":6778:6780   */\n      0x60\n        /* \"#utility.yul\":6767:6776   */\n      dup3\n        /* \"#utility.yul\":6763:6781   */\n      add\n        /* \"#utility.yul\":6755:6781   */\n      swap1\n      pop\n        /* \"#utility.yul\":6791:6862   */\n      tag_356\n        /* \"#utility.yul\":6859:6860   */\n      0x00\n        /* \"#utility.yul\":6848:6857   */\n      dup4\n        /* \"#utility.yul\":6844:6861   */\n      add\n        /* \"#utility.yul\":6835:6841   */\n      dup7\n        /* \"#utility.yul\":6791:6862   */\n      tag_228\n      jump\t// in\n    tag_356:\n        /* \"#utility.yul\":6872:6944   */\n      tag_357\n        /* \"#utility.yul\":6940:6942   */\n      0x20\n        /* \"#utility.yul\":6929:6938   */\n      dup4\n        /* \"#utility.yul\":6925:6943   */\n      add\n        /* \"#utility.yul\":6916:6922   */\n      dup6\n        /* \"#utility.yul\":6872:6944   */\n      tag_230\n      jump\t// in\n    tag_357:\n        /* \"#utility.yul\":6954:7020   */\n      tag_358\n        /* \"#utility.yul\":7016:7018   */\n      0x40\n        /* \"#utility.yul\":7005:7014   */\n      dup4\n        /* \"#utility.yul\":7001:7019   */\n      add\n        /* \"#utility.yul\":6992:6998   */\n      dup5\n        /* \"#utility.yul\":6954:7020   */\n      tag_242\n      jump\t// in\n    tag_358:\n        /* \"#utility.yul\":6597:7027   */\n      swap5\n      swap4\n      pop\n      pop\n      pop\n      pop\n      jump\t// out\n        /* \"#utility.yul\":7033:8158   */\n    tag_55:\n        /* \"#utility.yul\":7139:7145   */\n      0x00\n        /* \"#utility.yul\":7147:7153   */\n      0x00\n        /* \"#utility.yul\":7155:7161   */\n      0x00\n        /* \"#utility.yul\":7163:7169   */\n      0x00\n        /* \"#utility.yul\":7212:7215   */\n      0x80\n        /* \"#utility.yul\":7200:7209   */\n      dup6\n        /* \"#utility.yul\":7191:7198   */\n      dup8\n        /* \"#utility.yul\":7187:7210   */\n      sub\n        /* \"#utility.yul\":7183:7216   */\n      slt\n        /* \"#utility.yul\":7180:7300   */\n      iszero\n      tag_360\n      jumpi\n        /* \"#utility.yul\":7219:7298   */\n      tag_361\n      tag_218\n      jump\t// in\n    tag_361:\n        /* \"#utility.yul\":7180:7300   */\n    tag_360:\n        /* \"#utility.yul\":7367:7368   */\n      0x00\n        /* \"#utility.yul\":7356:7365   */\n      dup6\n        /* \"#utility.yul\":7352:7369   */\n      add\n        /* \"#utility.yul\":7339:7370   */\n      calldataload\n        /* \"#utility.yul\":7397:7415   */\n      0xffffffffffffffff\n        /* \"#utility.yul\":7389:7395   */\n      dup2\n        /* \"#utility.yul\":7386:7416   */\n      gt\n        /* \"#utility.yul\":7383:7500   */\n      iszero\n      tag_362\n      jumpi\n        /* \"#utility.yul\":7419:7498   */\n      tag_363\n      tag_219\n      jump\t// in\n    tag_363:\n        /* \"#utility.yul\":7383:7500   */\n    tag_362:\n        /* \"#utility.yul\":7524:7587   */\n      tag_364\n        /* \"#utility.yul\":7579:7586   */\n      dup8\n        /* \"#utility.yul\":7570:7576   */\n      dup3\n        /* \"#utility.yul\":7559:7568   */\n      dup9\n        /* \"#utility.yul\":7555:7577   */\n      add\n        /* \"#utility.yul\":7524:7587   */\n      tag_240\n      jump\t// in\n    tag_364:\n        /* \"#utility.yul\":7514:7587   */\n      swap5\n      pop\n        /* \"#utility.yul\":7310:7597   */\n      pop\n        /* \"#utility.yul\":7664:7666   */\n      0x20\n        /* \"#utility.yul\":7653:7662   */\n      dup6\n        /* \"#utility.yul\":7649:7667   */\n      add\n        /* \"#utility.yul\":7636:7668   */\n      calldataload\n        /* \"#utility.yul\":7695:7713   */\n      0xffffffffffffffff\n        /* \"#utility.yul\":7687:7693   */\n      dup2\n        /* \"#utility.yul\":7684:7714   */\n      gt\n        /* \"#utility.yul\":7681:7798   */\n      iszero\n      tag_365\n      jumpi\n        /* \"#utility.yul\":7717:7796   */\n      tag_366\n      tag_219\n      jump\t// in\n    tag_366:\n        /* \"#utility.yul\":7681:7798   */\n    tag_365:\n        /* \"#utility.yul\":7822:7885   */\n      tag_367\n        /* \"#utility.yul\":7877:7884   */\n      dup8\n        /* \"#utility.yul\":7868:7874   */\n      dup3\n        /* \"#utility.yul\":7857:7866   */\n      dup9\n        /* \"#utility.yul\":7853:7875   */\n      add\n        /* \"#utility.yul\":7822:7885   */\n      tag_240\n      jump\t// in\n    tag_367:\n        /* \"#utility.yul\":7812:7885   */\n      swap4\n      pop\n        /* \"#utility.yul\":7607:7895   */\n      pop\n        /* \"#utility.yul\":7934:7936   */\n      0x40\n        /* \"#utility.yul\":7960:8013   */\n      tag_368\n        /* \"#utility.yul\":8005:8012   */\n      dup8\n        /* \"#utility.yul\":7996:8002   */\n      dup3\n        /* \"#utility.yul\":7985:7994   */\n      dup9\n        /* \"#utility.yul\":7981:8003   */\n      add\n        /* \"#utility.yul\":7960:8013   */\n      tag_222\n      jump\t// in\n    tag_368:\n        /* \"#utility.yul\":7950:8013   */\n      swap3\n      pop\n        /* \"#utility.yul\":7905:8023   */\n      pop\n        /* \"#utility.yul\":8062:8064   */\n      0x60\n        /* \"#utility.yul\":8088:8141   */\n      tag_369\n        /* \"#utility.yul\":8133:8140   */\n      dup8\n        /* \"#utility.yul\":8124:8130   */\n      dup3\n        /* \"#utility.yul\":8113:8122   */\n      dup9\n        /* \"#utility.yul\":8109:8131   */\n      add\n        /* \"#utility.yul\":8088:8141   */\n      tag_222\n      jump\t// in\n    tag_369:\n        /* \"#utility.yul\":8078:8141   */\n      swap2\n      pop\n        /* \"#utility.yul\":8033:8151   */\n      pop\n        /* \"#utility.yul\":7033:8158   */\n      swap3\n      swap6\n      swap2\n      swap5\n      pop\n      swap3\n      pop\n      jump\t// out\n        /* \"#utility.yul\":8164:8638   */\n    tag_59:\n        /* \"#utility.yul\":8232:8238   */\n      0x00\n        /* \"#utility.yul\":8240:8246   */\n      0x00\n        /* \"#utility.yul\":8289:8291   */\n      0x40\n        /* \"#utility.yul\":8277:8286   */\n      dup4\n        /* \"#utility.yul\":8268:8275   */\n      dup6\n        /* \"#utility.yul\":8264:8287   */\n      sub\n        /* \"#utility.yul\":8260:8292   */\n      slt\n        /* \"#utility.yul\":8257:8376   */\n      iszero\n      tag_371\n      jumpi\n        /* \"#utility.yul\":8295:8374   */\n      tag_372\n      tag_218\n      jump\t// in\n    tag_372:\n        /* \"#utility.yul\":8257:8376   */\n    tag_371:\n        /* \"#utility.yul\":8415:8416   */\n      0x00\n        /* \"#utility.yul\":8440:8493   */\n      tag_373\n        /* \"#utility.yul\":8485:8492   */\n      dup6\n        /* \"#utility.yul\":8476:8482   */\n      dup3\n        /* \"#utility.yul\":8465:8474   */\n      dup7\n        /* \"#utility.yul\":8461:8483   */\n      add\n        /* \"#utility.yul\":8440:8493   */\n      tag_222\n      jump\t// in\n    tag_373:\n        /* \"#utility.yul\":8430:8493   */\n      swap3\n      pop\n        /* \"#utility.yul\":8386:8503   */\n      pop\n        /* \"#utility.yul\":8542:8544   */\n      0x20\n        /* \"#utility.yul\":8568:8621   */\n      tag_374\n        /* \"#utility.yul\":8613:8620   */\n      dup6\n        /* \"#utility.yul\":8604:8610   */\n      dup3\n        /* \"#utility.yul\":8593:8602   */\n      dup7\n        /* \"#utility.yul\":8589:8611   */\n      add\n        /* \"#utility.yul\":8568:8621   */\n      tag_222\n      jump\t// in\n    tag_374:\n        /* \"#utility.yul\":8558:8621   */\n      swap2\n      pop\n        /* \"#utility.yul\":8513:8631   */\n      pop\n        /* \"#utility.yul\":8164:8638   */\n      swap3\n      pop\n      swap3\n      swap1\n      pop\n      jump\t// out\n        /* \"#utility.yul\":8644:8866   */\n    tag_64:\n        /* \"#utility.yul\":8737:8741   */\n      0x00\n        /* \"#utility.yul\":8775:8777   */\n      0x20\n        /* \"#utility.yul\":8764:8773   */\n      dup3\n        /* \"#utility.yul\":8760:8778   */\n      add\n        /* \"#utility.yul\":8752:8778   */\n      swap1\n      pop\n        /* \"#utility.yul\":8788:8859   */\n      tag_376\n        /* \"#utility.yul\":8856:8857   */\n      0x00\n        /* \"#utility.yul\":8845:8854   */\n      dup4\n        /* \"#utility.yul\":8841:8858   */\n      add\n        /* \"#utility.yul\":8832:8838   */\n      dup5\n        /* \"#utility.yul\":8788:8859   */\n      tag_230\n      jump\t// in\n    tag_376:\n        /* \"#utility.yul\":8644:8866   */\n      swap3\n      swap2\n      pop\n      pop\n      jump\t// out\n        /* \"#utility.yul\":8872:9052   */\n    tag_102:\n        /* \"#utility.yul\":8920:8997   */\n      0x4e487b7100000000000000000000000000000000000000000000000000000000\n        /* \"#utility.yul\":8917:8918   */\n      0x00\n        /* \"#utility.yul\":8910:8998   */\n      mstore\n        /* \"#utility.yul\":9017:9021   */\n      0x21\n        /* \"#utility.yul\":9014:9015   */\n      0x04\n        /* \"#utility.yul\":9007:9022   */\n      mstore\n        /* \"#utility.yul\":9041:9045   */\n      0x24\n        /* \"#utility.yul\":9038:9039   */\n      0x00\n        /* \"#utility.yul\":9031:9046   */\n      revert\n        /* \"#utility.yul\":9058:9178   */\n    tag_243:\n        /* \"#utility.yul\":9146:9147   */\n      0x02\n        /* \"#utility.yul\":9139:9144   */\n      dup2\n        /* \"#utility.yul\":9136:9148   */\n      lt\n        /* \"#utility.yul\":9126:9172   */\n      tag_379\n      jumpi\n        /* \"#utility.yul\":9152:9170   */\n      tag_380\n      tag_102\n      jump\t// in\n    tag_380:\n        /* \"#utility.yul\":9126:9172   */\n    tag_379:\n        /* \"#utility.yul\":9058:9178   */\n      pop\n      jump\t// out\n        /* \"#utility.yul\":9184:9325   */\n    tag_244:\n        /* \"#utility.yul\":9236:9243   */\n      0x00\n        /* \"#utility.yul\":9265:9270   */\n      dup2\n        /* \"#utility.yul\":9254:9270   */\n      swap1\n      pop\n        /* \"#utility.yul\":9271:9319   */\n      tag_382\n        /* \"#utility.yul\":9313:9318   */\n      dup3\n        /* \"#utility.yul\":9271:9319   */\n      tag_243\n      jump\t// in\n    tag_382:\n        /* \"#utility.yul\":9184:9325   */\n      swap2\n      swap1\n      pop\n      jump\t// out\n        /* \"#utility.yul\":9331:9472   */\n    tag_245:\n        /* \"#utility.yul\":9394:9403   */\n      0x00\n        /* \"#utility.yul\":9427:9466   */\n      tag_384\n        /* \"#utility.yul\":9460:9465   */\n      dup3\n        /* \"#utility.yul\":9427:9466   */\n      tag_244\n      jump\t// in\n    tag_384:\n        /* \"#utility.yul\":9414:9466   */\n      swap1\n      pop\n        /* \"#utility.yul\":9331:9472   */\n      swap2\n      swap1\n      pop\n      jump\t// out\n        /* \"#utility.yul\":9478:9635   */\n    tag_246:\n        /* \"#utility.yul\":9578:9628   */\n      tag_386\n        /* \"#utility.yul\":9622:9627   */\n      dup2\n        /* \"#utility.yul\":9578:9628   */\n      tag_245\n      jump\t// in\n    tag_386:\n        /* \"#utility.yul\":9573:9576   */\n      dup3\n        /* \"#utility.yul\":9566:9629   */\n      mstore\n        /* \"#utility.yul\":9478:9635   */\n      pop\n      pop\n      jump\t// out\n        /* \"#utility.yul\":9641:10541   */\n    tag_73:\n        /* \"#utility.yul\":9909:9913   */\n      0x00\n        /* \"#utility.yul\":9947:9950   */\n      0xe0\n        /* \"#utility.yul\":9936:9945   */\n      dup3\n        /* \"#utility.yul\":9932:9951   */\n      add\n        /* \"#utility.yul\":9924:9951   */\n      swap1\n      pop\n        /* \"#utility.yul\":9961:10032   */\n      tag_388\n        /* \"#utility.yul\":10029:10030   */\n      0x00\n        /* \"#utility.yul\":10018:10027   */\n      dup4\n        /* \"#utility.yul\":10014:10031   */\n      add\n        /* \"#utility.yul\":10005:10011   */\n      dup11\n        /* \"#utility.yul\":9961:10032   */\n      tag_228\n      jump\t// in\n    tag_388:\n        /* \"#utility.yul\":10042:10114   */\n      tag_389\n        /* \"#utility.yul\":10110:10112   */\n      0x20\n        /* \"#utility.yul\":10099:10108   */\n      dup4\n        /* \"#utility.yul\":10095:10113   */\n      add\n        /* \"#utility.yul\":10086:10092   */\n      dup10\n        /* \"#utility.yul\":10042:10114   */\n      tag_228\n      jump\t// in\n    tag_389:\n        /* \"#utility.yul\":10124:10196   */\n      tag_390\n        /* \"#utility.yul\":10192:10194   */\n      0x40\n        /* \"#utility.yul\":10181:10190   */\n      dup4\n        /* \"#utility.yul\":10177:10195   */\n      add\n        /* \"#utility.yul\":10168:10174   */\n      dup9\n        /* \"#utility.yul\":10124:10196   */\n      tag_230\n      jump\t// in\n    tag_390:\n        /* \"#utility.yul\":10206:10272   */\n      tag_391\n        /* \"#utility.yul\":10268:10270   */\n      0x60\n        /* \"#utility.yul\":10257:10266   */\n      dup4\n        /* \"#utility.yul\":10253:10271   */\n      add\n        /* \"#utility.yul\":10244:10250   */\n      dup8\n        /* \"#utility.yul\":10206:10272   */\n      tag_242\n      jump\t// in\n    tag_391:\n        /* \"#utility.yul\":10282:10355   */\n      tag_392\n        /* \"#utility.yul\":10350:10353   */\n      0x80\n        /* \"#utility.yul\":10339:10348   */\n      dup4\n        /* \"#utility.yul\":10335:10354   */\n      add\n        /* \"#utility.yul\":10326:10332   */\n      dup7\n        /* \"#utility.yul\":10282:10355   */\n      tag_228\n      jump\t// in\n    tag_392:\n        /* \"#utility.yul\":10365:10438   */\n      tag_393\n        /* \"#utility.yul\":10433:10436   */\n      0xa0\n        /* \"#utility.yul\":10422:10431   */\n      dup4\n        /* \"#utility.yul\":10418:10437   */\n      add\n        /* \"#utility.yul\":10409:10415   */\n      dup6\n        /* \"#utility.yul\":10365:10438   */\n      tag_228\n      jump\t// in\n    tag_393:\n        /* \"#utility.yul\":10448:10534   */\n      tag_394\n        /* \"#utility.yul\":10529:10532   */\n      0xc0\n        /* \"#utility.yul\":10518:10527   */\n      dup4\n        /* \"#utility.yul\":10514:10533   */\n      add\n        /* \"#utility.yul\":10505:10511   */\n      dup5\n        /* \"#utility.yul\":10448:10534   */\n      tag_246\n      jump\t// in\n    tag_394:\n        /* \"#utility.yul\":9641:10541   */\n      swap9\n      swap8\n      pop\n      pop\n      pop\n      pop\n      pop\n      pop\n      pop\n      pop\n      jump\t// out\n        /* \"#utility.yul\":10547:11021   */\n    tag_76:\n        /* \"#utility.yul\":10615:10621   */\n      0x00\n        /* \"#utility.yul\":10623:10629   */\n      0x00\n        /* \"#utility.yul\":10672:10674   */\n      0x40\n        /* \"#utility.yul\":10660:10669   */\n      dup4\n        /* \"#utility.yul\":10651:10658   */\n      dup6\n        /* \"#utility.yul\":10647:10670   */\n      sub\n        /* \"#utility.yul\":10643:10675   */\n      slt\n        /* \"#utility.yul\":10640:10759   */\n      iszero\n      tag_396\n      jumpi\n        /* \"#utility.yul\":10678:10757   */\n      tag_397\n      tag_218\n      jump\t// in\n    tag_397:\n        /* \"#utility.yul\":10640:10759   */\n    tag_396:\n        /* \"#utility.yul\":10798:10799   */\n      0x00\n        /* \"#utility.yul\":10823:10876   */\n      tag_398\n        /* \"#utility.yul\":10868:10875   */\n      dup6\n        /* \"#utility.yul\":10859:10865   */\n      dup3\n        /* \"#utility.yul\":10848:10857   */\n      dup7\n        /* \"#utility.yul\":10844:10866   */\n      add\n        /* \"#utility.yul\":10823:10876   */\n      tag_227\n      jump\t// in\n    tag_398:\n        /* \"#utility.yul\":10813:10876   */\n      swap3\n      pop\n        /* \"#utility.yul\":10769:10886   */\n      pop\n        /* \"#utility.yul\":10925:10927   */\n      0x20\n        /* \"#utility.yul\":10951:11004   */\n      tag_399\n        /* \"#utility.yul\":10996:11003   */\n      dup6\n        /* \"#utility.yul\":10987:10993   */\n      dup3\n        /* \"#utility.yul\":10976:10985   */\n      dup7\n        /* \"#utility.yul\":10972:10994   */\n      add\n        /* \"#utility.yul\":10951:11004   */\n      tag_227\n      jump\t// in\n    tag_399:\n        /* \"#utility.yul\":10941:11004   */\n      swap2\n      pop\n        /* \"#utility.yul\":10896:11014   */\n      pop\n        /* \"#utility.yul\":10547:11021   */\n      swap3\n      pop\n      swap3\n      swap1\n      pop\n      jump\t// out\n        /* \"#utility.yul\":11027:11536   */\n    tag_89:\n        /* \"#utility.yul\":11096:11102   */\n      0x00\n        /* \"#utility.yul\":11145:11147   */\n      0x20\n        /* \"#utility.yul\":11133:11142   */\n      dup3\n        /* \"#utility.yul\":11124:11131   */\n      dup5\n        /* \"#utility.yul\":11120:11143   */\n      sub\n        /* \"#utility.yul\":11116:11148   */\n      slt\n        /* \"#utility.yul\":11113:11232   */\n      iszero\n      tag_401\n      jumpi\n        /* \"#utility.yul\":11151:11230   */\n      tag_402\n      tag_218\n      jump\t// in\n    tag_402:\n        /* \"#utility.yul\":11113:11232   */\n    tag_401:\n        /* \"#utility.yul\":11299:11300   */\n      0x00\n        /* \"#utility.yul\":11288:11297   */\n      dup3\n        /* \"#utility.yul\":11284:11301   */\n      add\n        /* \"#utility.yul\":11271:11302   */\n      calldataload\n        /* \"#utility.yul\":11329:11347   */\n      0xffffffffffffffff\n        /* \"#utility.yul\":11321:11327   */\n      dup2\n        /* \"#utility.yul\":11318:11348   */\n      gt\n        /* \"#utility.yul\":11315:11432   */\n      iszero\n      tag_403\n      jumpi\n        /* \"#utility.yul\":11351:11430   */\n      tag_404\n      tag_219\n      jump\t// in\n    tag_404:\n        /* \"#utility.yul\":11315:11432   */\n    tag_403:\n        /* \"#utility.yul\":11456:11519   */\n      tag_405\n        /* \"#utility.yul\":11511:11518   */\n      dup5\n        /* \"#utility.yul\":11502:11508   */\n      dup3\n        /* \"#utility.yul\":11491:11500   */\n      dup6\n        /* \"#utility.yul\":11487:11509   */\n      add\n        /* \"#utility.yul\":11456:11519   */\n      tag_240\n      jump\t// in\n    tag_405:\n        /* \"#utility.yul\":11446:11519   */\n      swap2\n      pop\n        /* \"#utility.yul\":11242:11529   */\n      pop\n        /* \"#utility.yul\":11027:11536   */\n      swap3\n      swap2\n      pop\n      pop\n      jump\t// out\n        /* \"#utility.yul\":11542:12331   */\n    tag_95:\n        /* \"#utility.yul\":11782:11786   */\n      0x00\n        /* \"#utility.yul\":11820:11823   */\n      0xc0\n        /* \"#utility.yul\":11809:11818   */\n      dup3\n        /* \"#utility.yul\":11805:11824   */\n      add\n        /* \"#utility.yul\":11797:11824   */\n      swap1\n      pop\n        /* \"#utility.yul\":11834:11905   */\n      tag_407\n        /* \"#utility.yul\":11902:11903   */\n      0x00\n        /* \"#utility.yul\":11891:11900   */\n      dup4\n        /* \"#utility.yul\":11887:11904   */\n      add\n        /* \"#utility.yul\":11878:11884   */\n      dup10\n        /* \"#utility.yul\":11834:11905   */\n      tag_228\n      jump\t// in\n    tag_407:\n        /* \"#utility.yul\":11915:11987   */\n      tag_408\n        /* \"#utility.yul\":11983:11985   */\n      0x20\n        /* \"#utility.yul\":11972:11981   */\n      dup4\n        /* \"#utility.yul\":11968:11986   */\n      add\n        /* \"#utility.yul\":11959:11965   */\n      dup9\n        /* \"#utility.yul\":11915:11987   */\n      tag_230\n      jump\t// in\n    tag_408:\n        /* \"#utility.yul\":11997:12063   */\n      tag_409\n        /* \"#utility.yul\":12059:12061   */\n      0x40\n        /* \"#utility.yul\":12048:12057   */\n      dup4\n        /* \"#utility.yul\":12044:12062   */\n      add\n        /* \"#utility.yul\":12035:12041   */\n      dup8\n        /* \"#utility.yul\":11997:12063   */\n      tag_242\n      jump\t// in\n    tag_409:\n        /* \"#utility.yul\":12073:12145   */\n      tag_410\n        /* \"#utility.yul\":12141:12143   */\n      0x60\n        /* \"#utility.yul\":12130:12139   */\n      dup4\n        /* \"#utility.yul\":12126:12144   */\n      add\n        /* \"#utility.yul\":12117:12123   */\n      dup7\n        /* \"#utility.yul\":12073:12145   */\n      tag_228\n      jump\t// in\n    tag_410:\n        /* \"#utility.yul\":12155:12228   */\n      tag_411\n        /* \"#utility.yul\":12223:12226   */\n      0x80\n        /* \"#utility.yul\":12212:12221   */\n      dup4\n        /* \"#utility.yul\":12208:12227   */\n      add\n        /* \"#utility.yul\":12199:12205   */\n      dup6\n        /* \"#utility.yul\":12155:12228   */\n      tag_228\n      jump\t// in\n    tag_411:\n        /* \"#utility.yul\":12238:12324   */\n      tag_412\n        /* \"#utility.yul\":12319:12322   */\n      0xa0\n        /* \"#utility.yul\":12308:12317   */\n      dup4\n        /* \"#utility.yul\":12304:12323   */\n      add\n        /* \"#utility.yul\":12295:12301   */\n      dup5\n        /* \"#utility.yul\":12238:12324   */\n      tag_246\n      jump\t// in\n    tag_412:\n        /* \"#utility.yul\":11542:12331   */\n      swap8\n      swap7\n      pop\n      pop\n      pop\n      pop\n      pop\n      pop\n      pop\n      jump\t// out\n        /* \"#utility.yul\":12337:12506   */\n    tag_247:\n        /* \"#utility.yul\":12421:12432   */\n      0x00\n        /* \"#utility.yul\":12455:12461   */\n      dup3\n        /* \"#utility.yul\":12450:12453   */\n      dup3\n        /* \"#utility.yul\":12443:12462   */\n      mstore\n        /* \"#utility.yul\":12495:12499   */\n      0x20\n        /* \"#utility.yul\":12490:12493   */\n      dup3\n        /* \"#utility.yul\":12486:12500   */\n      add\n        /* \"#utility.yul\":12471:12500   */\n      swap1\n      pop\n        /* \"#utility.yul\":12337:12506   */\n      swap3\n      swap2\n      pop\n      pop\n      jump\t// out\n        /* \"#utility.yul\":12512:12688   */\n    tag_248:\n        /* \"#utility.yul\":12652:12680   */\n      0x5573657220696e616374697665206f72206e6f7420666f756e64000000000000\n        /* \"#utility.yul\":12648:12649   */\n      0x00\n        /* \"#utility.yul\":12640:12646   */\n      dup3\n        /* \"#utility.yul\":12636:12650   */\n      add\n        /* \"#utility.yul\":12629:12681   */\n      mstore\n        /* \"#utility.yul\":12512:12688   */\n      pop\n      jump\t// out\n        /* \"#utility.yul\":12694:13060   */\n    tag_249:\n        /* \"#utility.yul\":12836:12839   */\n      0x00\n        /* \"#utility.yul\":12857:12924   */\n      tag_416\n        /* \"#utility.yul\":12921:12923   */\n      0x1a\n        /* \"#utility.yul\":12916:12919   */\n      dup4\n        /* \"#utility.yul\":12857:12924   */\n      tag_247\n      jump\t// in\n    tag_416:\n        /* \"#utility.yul\":12850:12924   */\n      swap2\n      pop\n        /* \"#utility.yul\":12933:13026   */\n      tag_417\n        /* \"#utility.yul\":13022:13025   */\n      dup3\n        /* \"#utility.yul\":12933:13026   */\n      tag_248\n      jump\t// in\n    tag_417:\n        /* \"#utility.yul\":13051:13053   */\n      0x20\n        /* \"#utility.yul\":13046:13049   */\n      dup3\n        /* \"#utility.yul\":13042:13054   */\n      add\n        /* \"#utility.yul\":13035:13054   */\n      swap1\n      pop\n        /* \"#utility.yul\":12694:13060   */\n      swap2\n      swap1\n      pop\n      jump\t// out\n        /* \"#utility.yul\":13066:13485   */\n    tag_99:\n        /* \"#utility.yul\":13232:13236   */\n      0x00\n        /* \"#utility.yul\":13270:13272   */\n      0x20\n        /* \"#utility.yul\":13259:13268   */\n      dup3\n        /* \"#utility.yul\":13255:13273   */\n      add\n        /* \"#utility.yul\":13247:13273   */\n      swap1\n      pop\n        /* \"#utility.yul\":13319:13328   */\n      dup2\n        /* \"#utility.yul\":13313:13317   */\n      dup2\n        /* \"#utility.yul\":13309:13329   */\n      sub\n        /* \"#utility.yul\":13305:13306   */\n      0x00\n        /* \"#utility.yul\":13294:13303   */\n      dup4\n        /* \"#utility.yul\":13290:13307   */\n      add\n        /* \"#utility.yul\":13283:13330   */\n      mstore\n        /* \"#utility.yul\":13347:13478   */\n      tag_419\n        /* \"#utility.yul\":13473:13477   */\n      dup2\n        /* \"#utility.yul\":13347:13478   */\n      tag_249\n      jump\t// in\n    tag_419:\n        /* \"#utility.yul\":13339:13478   */\n      swap1\n      pop\n        /* \"#utility.yul\":13066:13485   */\n      swap2\n      swap1\n      pop\n      jump\t// out\n        /* \"#utility.yul\":13491:13659   */\n    tag_250:\n        /* \"#utility.yul\":13631:13651   */\n      0x50726f66696c6520697320707269766174650000000000000000000000000000\n        /* \"#utility.yul\":13627:13628   */\n      0x00\n        /* \"#utility.yul\":13619:13625   */\n      dup3\n        /* \"#utility.yul\":13615:13629   */\n      add\n        /* \"#utility.yul\":13608:13652   */\n      mstore\n        /* \"#utility.yul\":13491:13659   */\n      pop\n      jump\t// out\n        /* \"#utility.yul\":13665:14031   */\n    tag_251:\n        /* \"#utility.yul\":13807:13810   */\n      0x00\n        /* \"#utility.yul\":13828:13895   */\n      tag_422\n        /* \"#utility.yul\":13892:13894   */\n      0x12\n        /* \"#utility.yul\":13887:13890   */\n      dup4\n        /* \"#utility.yul\":13828:13895   */\n      tag_247\n      jump\t// in\n    tag_422:\n        /* \"#utility.yul\":13821:13895   */\n      swap2\n      pop\n        /* \"#utility.yul\":13904:13997   */\n      tag_423\n        /* \"#utility.yul\":13993:13996   */\n      dup3\n        /* \"#utility.yul\":13904:13997   */\n      tag_250\n      jump\t// in\n    tag_423:\n        /* \"#utility.yul\":14022:14024   */\n      0x20\n        /* \"#utility.yul\":14017:14020   */\n      dup3\n        /* \"#utility.yul\":14013:14025   */\n      add\n        /* \"#utility.yul\":14006:14025   */\n      swap1\n      pop\n        /* \"#utility.yul\":13665:14031   */\n      swap2\n      swap1\n      pop\n      jump\t// out\n        /* \"#utility.yul\":14037:14456   */\n    tag_107:\n        /* \"#utility.yul\":14203:14207   */\n      0x00\n        /* \"#utility.yul\":14241:14243   */\n      0x20\n        /* \"#utility.yul\":14230:14239   */\n      dup3\n        /* \"#utility.yul\":14226:14244   */\n      add\n        /* \"#utility.yul\":14218:14244   */\n      swap1\n      pop\n        /* \"#utility.yul\":14290:14299   */\n      dup2\n        /* \"#utility.yul\":14284:14288   */\n      dup2\n        /* \"#utility.yul\":14280:14300   */\n      sub\n        /* \"#utility.yul\":14276:14277   */\n      0x00\n        /* \"#utility.yul\":14265:14274   */\n      dup4\n        /* \"#utility.yul\":14261:14278   */\n      add\n        /* \"#utility.yul\":14254:14301   */\n      mstore\n        /* \"#utility.yul\":14318:14449   */\n      tag_425\n        /* \"#utility.yul\":14444:14448   */\n      dup2\n        /* \"#utility.yul\":14318:14449   */\n      tag_251\n      jump\t// in\n    tag_425:\n        /* \"#utility.yul\":14310:14449   */\n      swap1\n      pop\n        /* \"#utility.yul\":14037:14456   */\n      swap2\n      swap1\n      pop\n      jump\t// out\n        /* \"#utility.yul\":14462:14643   */\n    tag_252:\n        /* \"#utility.yul\":14602:14635   */\n      0x55736572206e6f742072656769737465726564206f7220696e61637469766500\n        /* \"#utility.yul\":14598:14599   */\n      0x00\n        /* \"#utility.yul\":14590:14596   */\n      dup3\n        /* \"#utility.yul\":14586:14600   */\n      add\n        /* \"#utility.yul\":14579:14636   */\n      mstore\n        /* \"#utility.yul\":14462:14643   */\n      pop\n      jump\t// out\n        /* \"#utility.yul\":14649:15015   */\n    tag_253:\n        /* \"#utility.yul\":14791:14794   */\n      0x00\n        /* \"#utility.yul\":14812:14879   */\n      tag_428\n        /* \"#utility.yul\":14876:14878   */\n      0x1f\n        /* \"#utility.yul\":14871:14874   */\n      dup4\n        /* \"#utility.yul\":14812:14879   */\n      tag_247\n      jump\t// in\n    tag_428:\n        /* \"#utility.yul\":14805:14879   */\n      swap2\n      pop\n        /* \"#utility.yul\":14888:14981   */\n      tag_429\n        /* \"#utility.yul\":14977:14980   */\n      dup3\n        /* \"#utility.yul\":14888:14981   */\n      tag_252\n      jump\t// in\n    tag_429:\n        /* \"#utility.yul\":15006:15008   */\n      0x20\n        /* \"#utility.yul\":15001:15004   */\n      dup3\n        /* \"#utility.yul\":14997:15009   */\n      add\n        /* \"#utility.yul\":14990:15009   */\n      swap1\n      pop\n        /* \"#utility.yul\":14649:15015   */\n      swap2\n      swap1\n      pop\n      jump\t// out\n        /* \"#utility.yul\":15021:15440   */\n    tag_111:\n        /* \"#utility.yul\":15187:15191   */\n      0x00\n        /* \"#utility.yul\":15225:15227   */\n      0x20\n        /* \"#utility.yul\":15214:15223   */\n      dup3\n        /* \"#utility.yul\":15210:15228   */\n      add\n        /* \"#utility.yul\":15202:15228   */\n      swap1\n      pop\n        /* \"#utility.yul\":15274:15283   */\n      dup2\n        /* \"#utility.yul\":15268:15272   */\n      dup2\n        /* \"#utility.yul\":15264:15284   */\n      sub\n        /* \"#utility.yul\":15260:15261   */\n      0x00\n        /* \"#utility.yul\":15249:15258   */\n      dup4\n        /* \"#utility.yul\":15245:15262   */\n      add\n        /* \"#utility.yul\":15238:15285   */\n      mstore\n        /* \"#utility.yul\":15302:15433   */\n      tag_431\n        /* \"#utility.yul\":15428:15432   */\n      dup2\n        /* \"#utility.yul\":15302:15433   */\n      tag_253\n      jump\t// in\n    tag_431:\n        /* \"#utility.yul\":15294:15433   */\n      swap1\n      pop\n        /* \"#utility.yul\":15021:15440   */\n      swap2\n      swap1\n      pop\n      jump\t// out\n        /* \"#utility.yul\":15446:15618   */\n    tag_254:\n        /* \"#utility.yul\":15586:15610   */\n      0x50726f66696c6520616c7265616479207075626c696300000000000000000000\n        /* \"#utility.yul\":15582:15583   */\n      0x00\n        /* \"#utility.yul\":15574:15580   */\n      dup3\n        /* \"#utility.yul\":15570:15584   */\n      add\n        /* \"#utility.yul\":15563:15611   */\n      mstore\n        /* \"#utility.yul\":15446:15618   */\n      pop\n      jump\t// out\n        /* \"#utility.yul\":15624:15990   */\n    tag_255:\n        /* \"#utility.yul\":15766:15769   */\n      0x00\n        /* \"#utility.yul\":15787:15854   */\n      tag_434\n        /* \"#utility.yul\":15851:15853   */\n      0x16\n        /* \"#utility.yul\":15846:15849   */\n      dup4\n        /* \"#utility.yul\":15787:15854   */\n      tag_247\n      jump\t// in\n    tag_434:\n        /* \"#utility.yul\":15780:15854   */\n      swap2\n      pop\n        /* \"#utility.yul\":15863:15956   */\n      tag_435\n        /* \"#utility.yul\":15952:15955   */\n      dup3\n        /* \"#utility.yul\":15863:15956   */\n      tag_254\n      jump\t// in\n    tag_435:\n        /* \"#utility.yul\":15981:15983   */\n      0x20\n        /* \"#utility.yul\":15976:15979   */\n      dup3\n        /* \"#utility.yul\":15972:15984   */\n      add\n        /* \"#utility.yul\":15965:15984   */\n      swap1\n      pop\n        /* \"#utility.yul\":15624:15990   */\n      swap2\n      swap1\n      pop\n      jump\t// out\n        /* \"#utility.yul\":15996:16415   */\n    tag_119:\n        /* \"#utility.yul\":16162:16166   */\n      0x00\n        /* \"#utility.yul\":16200:16202   */\n      0x20\n        /* \"#utility.yul\":16189:16198   */\n      dup3\n        /* \"#utility.yul\":16185:16203   */\n      add\n        /* \"#utility.yul\":16177:16203   */\n      swap1\n      pop\n        /* \"#utility.yul\":16249:16258   */\n      dup2\n        /* \"#utility.yul\":16243:16247   */\n      dup2\n        /* \"#utility.yul\":16239:16259   */\n      sub\n        /* \"#utility.yul\":16235:16236   */\n      0x00\n        /* \"#utility.yul\":16224:16233   */\n      dup4\n        /* \"#utility.yul\":16220:16237   */\n      add\n        /* \"#utility.yul\":16213:16260   */\n      mstore\n        /* \"#utility.yul\":16277:16408   */\n      tag_437\n        /* \"#utility.yul\":16403:16407   */\n      dup2\n        /* \"#utility.yul\":16277:16408   */\n      tag_255\n      jump\t// in\n    tag_437:\n        /* \"#utility.yul\":16269:16408   */\n      swap1\n      pop\n        /* \"#utility.yul\":15996:16415   */\n      swap2\n      swap1\n      pop\n      jump\t// out\n        /* \"#utility.yul\":16421:16915   */\n    tag_123:\n        /* \"#utility.yul\":16596:16600   */\n      0x00\n        /* \"#utility.yul\":16634:16636   */\n      0x60\n        /* \"#utility.yul\":16623:16632   */\n      dup3\n        /* \"#utility.yul\":16619:16637   */\n      add\n        /* \"#utility.yul\":16611:16637   */\n      swap1\n      pop\n        /* \"#utility.yul\":16647:16731   */\n      tag_439\n        /* \"#utility.yul\":16728:16729   */\n      0x00\n        /* \"#utility.yul\":16717:16726   */\n      dup4\n        /* \"#utility.yul\":16713:16730   */\n      add\n        /* \"#utility.yul\":16704:16710   */\n      dup7\n        /* \"#utility.yul\":16647:16731   */\n      tag_246\n      jump\t// in\n    tag_439:\n        /* \"#utility.yul\":16741:16826   */\n      tag_440\n        /* \"#utility.yul\":16822:16824   */\n      0x20\n        /* \"#utility.yul\":16811:16820   */\n      dup4\n        /* \"#utility.yul\":16807:16825   */\n      add\n        /* \"#utility.yul\":16798:16804   */\n      dup6\n        /* \"#utility.yul\":16741:16826   */\n      tag_246\n      jump\t// in\n    tag_440:\n        /* \"#utility.yul\":16836:16908   */\n      tag_441\n        /* \"#utility.yul\":16904:16906   */\n      0x40\n        /* \"#utility.yul\":16893:16902   */\n      dup4\n        /* \"#utility.yul\":16889:16907   */\n      add\n        /* \"#utility.yul\":16880:16886   */\n      dup5\n        /* \"#utility.yul\":16836:16908   */\n      tag_230\n      jump\t// in\n    tag_441:\n        /* \"#utility.yul\":16421:16915   */\n      swap5\n      swap4\n      pop\n      pop\n      pop\n      pop\n      jump\t// out\n        /* \"#utility.yul\":16921:17095   */\n    tag_256:\n        /* \"#utility.yul\":17061:17087   */\n      0x557365726e616d652063616e6e6f7420626520656d7074790000000000000000\n        /* \"#utility.yul\":17057:17058   */\n      0x00\n        /* \"#utility.yul\":17049:17055   */\n      dup3\n        /* \"#utility.yul\":17045:17059   */\n      add\n        /* \"#utility.yul\":17038:17088   */\n      mstore\n        /* \"#utility.yul\":16921:17095   */\n      pop\n      jump\t// out\n        /* \"#utility.yul\":17101:17467   */\n    tag_257:\n        /* \"#utility.yul\":17243:17246   */\n      0x00\n        /* \"#utility.yul\":17264:17331   */\n      tag_444\n        /* \"#utility.yul\":17328:17330   */\n      0x18\n        /* \"#utility.yul\":17323:17326   */\n      dup4\n        /* \"#utility.yul\":17264:17331   */\n      tag_247\n      jump\t// in\n    tag_444:\n        /* \"#utility.yul\":17257:17331   */\n      swap2\n      pop\n        /* \"#utility.yul\":17340:17433   */\n      tag_445\n        /* \"#utility.yul\":17429:17432   */\n      dup3\n        /* \"#utility.yul\":17340:17433   */\n      tag_256\n      jump\t// in\n    tag_445:\n        /* \"#utility.yul\":17458:17460   */\n      0x20\n        /* \"#utility.yul\":17453:17456   */\n      dup3\n        /* \"#utility.yul\":17449:17461   */\n      add\n        /* \"#utility.yul\":17442:17461   */\n      swap1\n      pop\n        /* \"#utility.yul\":17101:17467   */\n      swap2\n      swap1\n      pop\n      jump\t// out\n        /* \"#utility.yul\":17473:17892   */\n    tag_127:\n        /* \"#utility.yul\":17639:17643   */\n      0x00\n        /* \"#utility.yul\":17677:17679   */\n      0x20\n        /* \"#utility.yul\":17666:17675   */\n      dup3\n        /* \"#utility.yul\":17662:17680   */\n      add\n        /* \"#utility.yul\":17654:17680   */\n      swap1\n      pop\n        /* \"#utility.yul\":17726:17735   */\n      dup2\n        /* \"#utility.yul\":17720:17724   */\n      dup2\n        /* \"#utility.yul\":17716:17736   */\n      sub\n        /* \"#utility.yul\":17712:17713   */\n      0x00\n        /* \"#utility.yul\":17701:17710   */\n      dup4\n        /* \"#utility.yul\":17697:17714   */\n      add\n        /* \"#utility.yul\":17690:17737   */\n      mstore\n        /* \"#utility.yul\":17754:17885   */\n      tag_447\n        /* \"#utility.yul\":17880:17884   */\n      dup2\n        /* \"#utility.yul\":17754:17885   */\n      tag_257\n      jump\t// in\n    tag_447:\n        /* \"#utility.yul\":17746:17885   */\n      swap1\n      pop\n        /* \"#utility.yul\":17473:17892   */\n      swap2\n      swap1\n      pop\n      jump\t// out\n        /* \"#utility.yul\":17898:18072   */\n    tag_258:\n        /* \"#utility.yul\":18038:18064   */\n      0x50617373776f72642063616e6e6f7420626520656d7074790000000000000000\n        /* \"#utility.yul\":18034:18035   */\n      0x00\n        /* \"#utility.yul\":18026:18032   */\n      dup3\n        /* \"#utility.yul\":18022:18036   */\n      add\n        /* \"#utility.yul\":18015:18065   */\n      mstore\n        /* \"#utility.yul\":17898:18072   */\n      pop\n      jump\t// out\n        /* \"#utility.yul\":18078:18444   */\n    tag_259:\n        /* \"#utility.yul\":18220:18223   */\n      0x00\n        /* \"#utility.yul\":18241:18308   */\n      tag_450\n        /* \"#utility.yul\":18305:18307   */\n      0x18\n        /* \"#utility.yul\":18300:18303   */\n      dup4\n        /* \"#utility.yul\":18241:18308   */\n      tag_247\n      jump\t// in\n    tag_450:\n        /* \"#utility.yul\":18234:18308   */\n      swap2\n      pop\n        /* \"#utility.yul\":18317:18410   */\n      tag_451\n        /* \"#utility.yul\":18406:18409   */\n      dup3\n        /* \"#utility.yul\":18317:18410   */\n      tag_258\n      jump\t// in\n    tag_451:\n        /* \"#utility.yul\":18435:18437   */\n      0x20\n        /* \"#utility.yul\":18430:18433   */\n      dup3\n        /* \"#utility.yul\":18426:18438   */\n      add\n        /* \"#utility.yul\":18419:18438   */\n      swap1\n      pop\n        /* \"#utility.yul\":18078:18444   */\n      swap2\n      swap1\n      pop\n      jump\t// out\n        /* \"#utility.yul\":18450:18869   */\n    tag_130:\n        /* \"#utility.yul\":18616:18620   */\n      0x00\n        /* \"#utility.yul\":18654:18656   */\n      0x20\n        /* \"#utility.yul\":18643:18652   */\n      dup3\n        /* \"#utility.yul\":18639:18657   */\n      add\n        /* \"#utility.yul\":18631:18657   */\n      swap1\n      pop\n        /* \"#utility.yul\":18703:18712   */\n      dup2\n        /* \"#utility.yul\":18697:18701   */\n      dup2\n        /* \"#utility.yul\":18693:18713   */\n      sub\n        /* \"#utility.yul\":18689:18690   */\n      0x00\n        /* \"#utility.yul\":18678:18687   */\n      dup4\n        /* \"#utility.yul\":18674:18691   */\n      add\n        /* \"#utility.yul\":18667:18714   */\n      mstore\n        /* \"#utility.yul\":18731:18862   */\n      tag_453\n        /* \"#utility.yul\":18857:18861   */\n      dup2\n        /* \"#utility.yul\":18731:18862   */\n      tag_259\n      jump\t// in\n    tag_453:\n        /* \"#utility.yul\":18723:18862   */\n      swap1\n      pop\n        /* \"#utility.yul\":18450:18869   */\n      swap2\n      swap1\n      pop\n      jump\t// out\n        /* \"#utility.yul\":18875:19048   */\n    tag_260:\n        /* \"#utility.yul\":19015:19040   */\n      0x5573657220616c72656164792072656769737465726564000000000000000000\n        /* \"#utility.yul\":19011:19012   */\n      0x00\n        /* \"#utility.yul\":19003:19009   */\n      dup3\n        /* \"#utility.yul\":18999:19013   */\n      add\n        /* \"#utility.yul\":18992:19041   */\n      mstore\n        /* \"#utility.yul\":18875:19048   */\n      pop\n      jump\t// out\n        /* \"#utility.yul\":19054:19420   */\n    tag_261:\n        /* \"#utility.yul\":19196:19199   */\n      0x00\n        /* \"#utility.yul\":19217:19284   */\n      tag_456\n        /* \"#utility.yul\":19281:19283   */\n      0x17\n        /* \"#utility.yul\":19276:19279   */\n      dup4\n        /* \"#utility.yul\":19217:19284   */\n      tag_247\n      jump\t// in\n    tag_456:\n        /* \"#utility.yul\":19210:19284   */\n      swap2\n      pop\n        /* \"#utility.yul\":19293:19386   */\n      tag_457\n        /* \"#utility.yul\":19382:19385   */\n      dup3\n        /* \"#utility.yul\":19293:19386   */\n      tag_260\n      jump\t// in\n    tag_457:\n        /* \"#utility.yul\":19411:19413   */\n      0x20\n        /* \"#utility.yul\":19406:19409   */\n      dup3\n        /* \"#utility.yul\":19402:19414   */\n      add\n        /* \"#utility.yul\":19395:19414   */\n      swap1\n      pop\n        /* \"#utility.yul\":19054:19420   */\n      swap2\n      swap1\n      pop\n      jump\t// out\n        /* \"#utility.yul\":19426:19845   */\n    tag_133:\n        /* \"#utility.yul\":19592:19596   */\n      0x00\n        /* \"#utility.yul\":19630:19632   */\n      0x20\n        /* \"#utility.yul\":19619:19628   */\n      dup3\n        /* \"#utility.yul\":19615:19633   */\n      add\n        /* \"#utility.yul\":19607:19633   */\n      swap1\n      pop\n        /* \"#utility.yul\":19679:19688   */\n      dup2\n        /* \"#utility.yul\":19673:19677   */\n      dup2\n        /* \"#utility.yul\":19669:19689   */\n      sub\n        /* \"#utility.yul\":19665:19666   */\n      0x00\n        /* \"#utility.yul\":19654:19663   */\n      dup4\n        /* \"#utility.yul\":19650:19667   */\n      add\n        /* \"#utility.yul\":19643:19690   */\n      mstore\n        /* \"#utility.yul\":19707:19838   */\n      tag_459\n        /* \"#utility.yul\":19833:19837   */\n      dup2\n        /* \"#utility.yul\":19707:19838   */\n      tag_261\n      jump\t// in\n    tag_459:\n        /* \"#utility.yul\":19699:19838   */\n      swap1\n      pop\n        /* \"#utility.yul\":19426:19845   */\n      swap2\n      swap1\n      pop\n      jump\t// out\n        /* \"#utility.yul\":19851:19950   */\n    tag_262:\n        /* \"#utility.yul\":19903:19909   */\n      0x00\n        /* \"#utility.yul\":19937:19942   */\n      dup2\n        /* \"#utility.yul\":19931:19943   */\n      mload\n        /* \"#utility.yul\":19921:19943   */\n      swap1\n      pop\n        /* \"#utility.yul\":19851:19950   */\n      swap2\n      swap1\n      pop\n      jump\t// out\n        /* \"#utility.yul\":19956:20104   */\n    tag_263:\n        /* \"#utility.yul\":20058:20069   */\n      0x00\n        /* \"#utility.yul\":20095:20098   */\n      dup2\n        /* \"#utility.yul\":20080:20098   */\n      swap1\n      pop\n        /* \"#utility.yul\":19956:20104   */\n      swap3\n      swap2\n      pop\n      pop\n      jump\t// out\n        /* \"#utility.yul\":20110:20249   */\n    tag_264:\n        /* \"#utility.yul\":20199:20205   */\n      dup3\n        /* \"#utility.yul\":20194:20197   */\n      dup2\n        /* \"#utility.yul\":20189:20192   */\n      dup4\n        /* \"#utility.yul\":20183:20206   */\n      mcopy\n        /* \"#utility.yul\":20240:20241   */\n      0x00\n        /* \"#utility.yul\":20231:20237   */\n      dup4\n        /* \"#utility.yul\":20226:20229   */\n      dup4\n        /* \"#utility.yul\":20222:20238   */\n      add\n        /* \"#utility.yul\":20215:20242   */\n      mstore\n        /* \"#utility.yul\":20110:20249   */\n      pop\n      pop\n      pop\n      jump\t// out\n        /* \"#utility.yul\":20255:20645   */\n    tag_265:\n        /* \"#utility.yul\":20361:20364   */\n      0x00\n        /* \"#utility.yul\":20389:20428   */\n      tag_464\n        /* \"#utility.yul\":20422:20427   */\n      dup3\n        /* \"#utility.yul\":20389:20428   */\n      tag_262\n      jump\t// in\n    tag_464:\n        /* \"#utility.yul\":20444:20533   */\n      tag_465\n        /* \"#utility.yul\":20526:20532   */\n      dup2\n        /* \"#utility.yul\":20521:20524   */\n      dup6\n        /* \"#utility.yul\":20444:20533   */\n      tag_263\n      jump\t// in\n    tag_465:\n        /* \"#utility.yul\":20437:20533   */\n      swap4\n      pop\n        /* \"#utility.yul\":20542:20607   */\n      tag_466\n        /* \"#utility.yul\":20600:20606   */\n      dup2\n        /* \"#utility.yul\":20595:20598   */\n      dup6\n        /* \"#utility.yul\":20588:20592   */\n      0x20\n        /* \"#utility.yul\":20581:20586   */\n      dup7\n        /* \"#utility.yul\":20577:20593   */\n      add\n        /* \"#utility.yul\":20542:20607   */\n      tag_264\n      jump\t// in\n    tag_466:\n        /* \"#utility.yul\":20632:20638   */\n      dup1\n        /* \"#utility.yul\":20627:20630   */\n      dup5\n        /* \"#utility.yul\":20623:20639   */\n      add\n        /* \"#utility.yul\":20616:20639   */\n      swap2\n      pop\n        /* \"#utility.yul\":20365:20645   */\n      pop\n        /* \"#utility.yul\":20255:20645   */\n      swap3\n      swap2\n      pop\n      pop\n      jump\t// out\n        /* \"#utility.yul\":20651:20926   */\n    tag_135:\n        /* \"#utility.yul\":20783:20786   */\n      0x00\n        /* \"#utility.yul\":20805:20900   */\n      tag_468\n        /* \"#utility.yul\":20896:20899   */\n      dup3\n        /* \"#utility.yul\":20887:20893   */\n      dup5\n        /* \"#utility.yul\":20805:20900   */\n      tag_265\n      jump\t// in\n    tag_468:\n        /* \"#utility.yul\":20798:20900   */\n      swap2\n      pop\n        /* \"#utility.yul\":20917:20920   */\n      dup2\n        /* \"#utility.yul\":20910:20920   */\n      swap1\n      pop\n        /* \"#utility.yul\":20651:20926   */\n      swap3\n      swap2\n      pop\n      pop\n      jump\t// out\n        /* \"#utility.yul\":20932:21104   */\n    tag_266:\n        /* \"#utility.yul\":21072:21096   */\n      0x557365726e616d6520616c72656164792074616b656e00000000000000000000\n        /* \"#utility.yul\":21068:21069   */\n      0x00\n        /* \"#utility.yul\":21060:21066   */\n      dup3\n        /* \"#utility.yul\":21056:21070   */\n      add\n        /* \"#utility.yul\":21049:21097   */\n      mstore\n        /* \"#utility.yul\":20932:21104   */\n      pop\n      jump\t// out\n        /* \"#utility.yul\":21110:21476   */\n    tag_267:\n        /* \"#utility.yul\":21252:21255   */\n      0x00\n        /* \"#utility.yul\":21273:21340   */\n      tag_471\n        /* \"#utility.yul\":21337:21339   */\n      0x16\n        /* \"#utility.yul\":21332:21335   */\n      dup4\n        /* \"#utility.yul\":21273:21340   */\n      tag_247\n      jump\t// in\n    tag_471:\n        /* \"#utility.yul\":21266:21340   */\n      swap2\n      pop\n        /* \"#utility.yul\":21349:21442   */\n      tag_472\n        /* \"#utility.yul\":21438:21441   */\n      dup3\n        /* \"#utility.yul\":21349:21442   */\n      tag_266\n      jump\t// in\n    tag_472:\n        /* \"#utility.yul\":21467:21469   */\n      0x20\n        /* \"#utility.yul\":21462:21465   */\n      dup3\n        /* \"#utility.yul\":21458:21470   */\n      add\n        /* \"#utility.yul\":21451:21470   */\n      swap1\n      pop\n        /* \"#utility.yul\":21110:21476   */\n      swap2\n      swap1\n      pop\n      jump\t// out\n        /* \"#utility.yul\":21482:21901   */\n    tag_139:\n        /* \"#utility.yul\":21648:21652   */\n      0x00\n        /* \"#utility.yul\":21686:21688   */\n      0x20\n        /* \"#utility.yul\":21675:21684   */\n      dup3\n        /* \"#utility.yul\":21671:21689   */\n      add\n        /* \"#utility.yul\":21663:21689   */\n      swap1\n      pop\n        /* \"#utility.yul\":21735:21744   */\n      dup2\n        /* \"#utility.yul\":21729:21733   */\n      dup2\n        /* \"#utility.yul\":21725:21745   */\n      sub\n        /* \"#utility.yul\":21721:21722   */\n      0x00\n        /* \"#utility.yul\":21710:21719   */\n      dup4\n        /* \"#utility.yul\":21706:21723   */\n      add\n        /* \"#utility.yul\":21699:21746   */\n      mstore\n        /* \"#utility.yul\":21763:21894   */\n      tag_474\n        /* \"#utility.yul\":21889:21893   */\n      dup2\n        /* \"#utility.yul\":21763:21894   */\n      tag_267\n      jump\t// in\n    tag_474:\n        /* \"#utility.yul\":21755:21894   */\n      swap1\n      pop\n        /* \"#utility.yul\":21482:21901   */\n      swap2\n      swap1\n      pop\n      jump\t// out\n        /* \"#utility.yul\":21907:22087   */\n    tag_268:\n        /* \"#utility.yul\":21955:22032   */\n      0x4e487b7100000000000000000000000000000000000000000000000000000000\n        /* \"#utility.yul\":21952:21953   */\n      0x00\n        /* \"#utility.yul\":21945:22033   */\n      mstore\n        /* \"#utility.yul\":22052:22056   */\n      0x11\n        /* \"#utility.yul\":22049:22050   */\n      0x04\n        /* \"#utility.yul\":22042:22057   */\n      mstore\n        /* \"#utility.yul\":22076:22080   */\n      0x24\n        /* \"#utility.yul\":22073:22074   */\n      0x00\n        /* \"#utility.yul\":22066:22081   */\n      revert\n        /* \"#utility.yul\":22093:22284   */\n    tag_145:\n        /* \"#utility.yul\":22133:22136   */\n      0x00\n        /* \"#utility.yul\":22152:22172   */\n      tag_477\n        /* \"#utility.yul\":22170:22171   */\n      dup3\n        /* \"#utility.yul\":22152:22172   */\n      tag_229\n      jump\t// in\n    tag_477:\n        /* \"#utility.yul\":22147:22172   */\n      swap2\n      pop\n        /* \"#utility.yul\":22186:22206   */\n      tag_478\n        /* \"#utility.yul\":22204:22205   */\n      dup4\n        /* \"#utility.yul\":22186:22206   */\n      tag_229\n      jump\t// in\n    tag_478:\n        /* \"#utility.yul\":22181:22206   */\n      swap3\n      pop\n        /* \"#utility.yul\":22229:22230   */\n      dup3\n        /* \"#utility.yul\":22226:22227   */\n      dup3\n        /* \"#utility.yul\":22222:22231   */\n      add\n        /* \"#utility.yul\":22215:22231   */\n      swap1\n      pop\n        /* \"#utility.yul\":22250:22253   */\n      dup1\n        /* \"#utility.yul\":22247:22248   */\n      dup3\n        /* \"#utility.yul\":22244:22254   */\n      gt\n        /* \"#utility.yul\":22241:22277   */\n      iszero\n      tag_479\n      jumpi\n        /* \"#utility.yul\":22257:22275   */\n      tag_480\n      tag_268\n      jump\t// in\n    tag_480:\n        /* \"#utility.yul\":22241:22277   */\n    tag_479:\n        /* \"#utility.yul\":22093:22284   */\n      swap3\n      swap2\n      pop\n      pop\n      jump\t// out\n        /* \"#utility.yul\":22290:22463   */\n    tag_269:\n        /* \"#utility.yul\":22430:22455   */\n      0x50726f66696c6520616c72656164792070726976617465000000000000000000\n        /* \"#utility.yul\":22426:22427   */\n      0x00\n        /* \"#utility.yul\":22418:22424   */\n      dup3\n        /* \"#utility.yul\":22414:22428   */\n      add\n        /* \"#utility.yul\":22407:22456   */\n      mstore\n        /* \"#utility.yul\":22290:22463   */\n      pop\n      jump\t// out\n        /* \"#utility.yul\":22469:22835   */\n    tag_270:\n        /* \"#utility.yul\":22611:22614   */\n      0x00\n        /* \"#utility.yul\":22632:22699   */\n      tag_483\n        /* \"#utility.yul\":22696:22698   */\n      0x17\n        /* \"#utility.yul\":22691:22694   */\n      dup4\n        /* \"#utility.yul\":22632:22699   */\n      tag_247\n      jump\t// in\n    tag_483:\n        /* \"#utility.yul\":22625:22699   */\n      swap2\n      pop\n        /* \"#utility.yul\":22708:22801   */\n      tag_484\n        /* \"#utility.yul\":22797:22800   */\n      dup3\n        /* \"#utility.yul\":22708:22801   */\n      tag_269\n      jump\t// in\n    tag_484:\n        /* \"#utility.yul\":22826:22828   */\n      0x20\n        /* \"#utility.yul\":22821:22824   */\n      dup3\n        /* \"#utility.yul\":22817:22829   */\n      add\n        /* \"#utility.yul\":22810:22829   */\n      swap1\n      pop\n        /* \"#utility.yul\":22469:22835   */\n      swap2\n      swap1\n      pop\n      jump\t// out\n        /* \"#utility.yul\":22841:23260   */\n    tag_158:\n        /* \"#utility.yul\":23007:23011   */\n      0x00\n        /* \"#utility.yul\":23045:23047   */\n      0x20\n        /* \"#utility.yul\":23034:23043   */\n      dup3\n        /* \"#utility.yul\":23030:23048   */\n      add\n        /* \"#utility.yul\":23022:23048   */\n      swap1\n      pop\n        /* \"#utility.yul\":23094:23103   */\n      dup2\n        /* \"#utility.yul\":23088:23092   */\n      dup2\n        /* \"#utility.yul\":23084:23104   */\n      sub\n        /* \"#utility.yul\":23080:23081   */\n      0x00\n        /* \"#utility.yul\":23069:23078   */\n      dup4\n        /* \"#utility.yul\":23065:23082   */\n      add\n        /* \"#utility.yul\":23058:23105   */\n      mstore\n        /* \"#utility.yul\":23122:23253   */\n      tag_486\n        /* \"#utility.yul\":23248:23252   */\n      dup2\n        /* \"#utility.yul\":23122:23253   */\n      tag_270\n      jump\t// in\n    tag_486:\n        /* \"#utility.yul\":23114:23253   */\n      swap1\n      pop\n        /* \"#utility.yul\":22841:23260   */\n      swap2\n      swap1\n      pop\n      jump\t// out\n        /* \"#utility.yul\":23266:23708   */\n    tag_174:\n        /* \"#utility.yul\":23415:23419   */\n      0x00\n        /* \"#utility.yul\":23453:23455   */\n      0x60\n        /* \"#utility.yul\":23442:23451   */\n      dup3\n        /* \"#utility.yul\":23438:23456   */\n      add\n        /* \"#utility.yul\":23430:23456   */\n      swap1\n      pop\n        /* \"#utility.yul\":23466:23537   */\n      tag_488\n        /* \"#utility.yul\":23534:23535   */\n      0x00\n        /* \"#utility.yul\":23523:23532   */\n      dup4\n        /* \"#utility.yul\":23519:23536   */\n      add\n        /* \"#utility.yul\":23510:23516   */\n      dup7\n        /* \"#utility.yul\":23466:23537   */\n      tag_228\n      jump\t// in\n    tag_488:\n        /* \"#utility.yul\":23547:23619   */\n      tag_489\n        /* \"#utility.yul\":23615:23617   */\n      0x20\n        /* \"#utility.yul\":23604:23613   */\n      dup4\n        /* \"#utility.yul\":23600:23618   */\n      add\n        /* \"#utility.yul\":23591:23597   */\n      dup6\n        /* \"#utility.yul\":23547:23619   */\n      tag_228\n      jump\t// in\n    tag_489:\n        /* \"#utility.yul\":23629:23701   */\n      tag_490\n        /* \"#utility.yul\":23697:23699   */\n      0x40\n        /* \"#utility.yul\":23686:23695   */\n      dup4\n        /* \"#utility.yul\":23682:23700   */\n      add\n        /* \"#utility.yul\":23673:23679   */\n      dup5\n        /* \"#utility.yul\":23629:23701   */\n      tag_230\n      jump\t// in\n    tag_490:\n        /* \"#utility.yul\":23266:23708   */\n      swap5\n      swap4\n      pop\n      pop\n      pop\n      pop\n      jump\t// out\n        /* \"#utility.yul\":23714:23892   */\n    tag_271:\n        /* \"#utility.yul\":23854:23884   */\n      0x4e65772070617373776f72642063616e6e6f7420626520656d70747900000000\n        /* \"#utility.yul\":23850:23851   */\n      0x00\n        /* \"#utility.yul\":23842:23848   */\n      dup3\n        /* \"#utility.yul\":23838:23852   */\n      add\n        /* \"#utility.yul\":23831:23885   */\n      mstore\n        /* \"#utility.yul\":23714:23892   */\n      pop\n      jump\t// out\n        /* \"#utility.yul\":23898:24264   */\n    tag_272:\n        /* \"#utility.yul\":24040:24043   */\n      0x00\n        /* \"#utility.yul\":24061:24128   */\n      tag_493\n        /* \"#utility.yul\":24125:24127   */\n      0x1c\n        /* \"#utility.yul\":24120:24123   */\n      dup4\n        /* \"#utility.yul\":24061:24128   */\n      tag_247\n      jump\t// in\n    tag_493:\n        /* \"#utility.yul\":24054:24128   */\n      swap2\n      pop\n        /* \"#utility.yul\":24137:24230   */\n      tag_494\n        /* \"#utility.yul\":24226:24229   */\n      dup3\n        /* \"#utility.yul\":24137:24230   */\n      tag_271\n      jump\t// in\n    tag_494:\n        /* \"#utility.yul\":24255:24257   */\n      0x20\n        /* \"#utility.yul\":24250:24253   */\n      dup3\n        /* \"#utility.yul\":24246:24258   */\n      add\n        /* \"#utility.yul\":24239:24258   */\n      swap1\n      pop\n        /* \"#utility.yul\":23898:24264   */\n      swap2\n      swap1\n      pop\n      jump\t// out\n        /* \"#utility.yul\":24270:24689   */\n    tag_195:\n        /* \"#utility.yul\":24436:24440   */\n      0x00\n        /* \"#utility.yul\":24474:24476   */\n      0x20\n        /* \"#utility.yul\":24463:24472   */\n      dup3\n        /* \"#utility.yul\":24459:24477   */\n      add\n        /* \"#utility.yul\":24451:24477   */\n      swap1\n      pop\n        /* \"#utility.yul\":24523:24532   */\n      dup2\n        /* \"#utility.yul\":24517:24521   */\n      dup2\n        /* \"#utility.yul\":24513:24533   */\n      sub\n        /* \"#utility.yul\":24509:24510   */\n      0x00\n        /* \"#utility.yul\":24498:24507   */\n      dup4\n        /* \"#utility.yul\":24494:24511   */\n      add\n        /* \"#utility.yul\":24487:24534   */\n      mstore\n        /* \"#utility.yul\":24551:24682   */\n      tag_496\n        /* \"#utility.yul\":24677:24681   */\n      dup2\n        /* \"#utility.yul\":24551:24682   */\n      tag_272\n      jump\t// in\n    tag_496:\n        /* \"#utility.yul\":24543:24682   */\n      swap1\n      pop\n        /* \"#utility.yul\":24270:24689   */\n      swap2\n      swap1\n      pop\n      jump\t// out\n        /* \"#utility.yul\":24695:24867   */\n    tag_273:\n        /* \"#utility.yul\":24835:24859   */\n      0x4f6c642070617373776f726420696e636f727265637400000000000000000000\n        /* \"#utility.yul\":24831:24832   */\n      0x00\n        /* \"#utility.yul\":24823:24829   */\n      dup3\n        /* \"#utility.yul\":24819:24833   */\n      add\n        /* \"#utility.yul\":24812:24860   */\n      mstore\n        /* \"#utility.yul\":24695:24867   */\n      pop\n      jump\t// out\n        /* \"#utility.yul\":24873:25239   */\n    tag_274:\n        /* \"#utility.yul\":25015:25018   */\n      0x00\n        /* \"#utility.yul\":25036:25103   */\n      tag_499\n        /* \"#utility.yul\":25100:25102   */\n      0x16\n        /* \"#utility.yul\":25095:25098   */\n      dup4\n        /* \"#utility.yul\":25036:25103   */\n      tag_247\n      jump\t// in\n    tag_499:\n        /* \"#utility.yul\":25029:25103   */\n      swap2\n      pop\n        /* \"#utility.yul\":25112:25205   */\n      tag_500\n        /* \"#utility.yul\":25201:25204   */\n      dup3\n        /* \"#utility.yul\":25112:25205   */\n      tag_273\n      jump\t// in\n    tag_500:\n        /* \"#utility.yul\":25230:25232   */\n      0x20\n        /* \"#utility.yul\":25225:25228   */\n      dup3\n        /* \"#utility.yul\":25221:25233   */\n      add\n        /* \"#utility.yul\":25214:25233   */\n      swap1\n      pop\n        /* \"#utility.yul\":24873:25239   */\n      swap2\n      swap1\n      pop\n      jump\t// out\n        /* \"#utility.yul\":25245:25664   */\n    tag_199:\n        /* \"#utility.yul\":25411:25415   */\n      0x00\n        /* \"#utility.yul\":25449:25451   */\n      0x20\n        /* \"#utility.yul\":25438:25447   */\n      dup3\n        /* \"#utility.yul\":25434:25452   */\n      add\n        /* \"#utility.yul\":25426:25452   */\n      swap1\n      pop\n        /* \"#utility.yul\":25498:25507   */\n      dup2\n        /* \"#utility.yul\":25492:25496   */\n      dup2\n        /* \"#utility.yul\":25488:25508   */\n      sub\n        /* \"#utility.yul\":25484:25485   */\n      0x00\n        /* \"#utility.yul\":25473:25482   */\n      dup4\n        /* \"#utility.yul\":25469:25486   */\n      add\n        /* \"#utility.yul\":25462:25509   */\n      mstore\n        /* \"#utility.yul\":25526:25657   */\n      tag_502\n        /* \"#utility.yul\":25652:25656   */\n      dup2\n        /* \"#utility.yul\":25526:25657   */\n      tag_274\n      jump\t// in\n    tag_502:\n        /* \"#utility.yul\":25518:25657   */\n      swap1\n      pop\n        /* \"#utility.yul\":25245:25664   */\n      swap2\n      swap1\n      pop\n      jump\t// out\n        /* \"#utility.yul\":25670:25864   */\n    tag_208:\n        /* \"#utility.yul\":25710:25714   */\n      0x00\n        /* \"#utility.yul\":25730:25750   */\n      tag_504\n        /* \"#utility.yul\":25748:25749   */\n      dup3\n        /* \"#utility.yul\":25730:25750   */\n      tag_229\n      jump\t// in\n    tag_504:\n        /* \"#utility.yul\":25725:25750   */\n      swap2\n      pop\n        /* \"#utility.yul\":25764:25784   */\n      tag_505\n        /* \"#utility.yul\":25782:25783   */\n      dup4\n        /* \"#utility.yul\":25764:25784   */\n      tag_229\n      jump\t// in\n    tag_505:\n        /* \"#utility.yul\":25759:25784   */\n      swap3\n      pop\n        /* \"#utility.yul\":25808:25809   */\n      dup3\n        /* \"#utility.yul\":25805:25806   */\n      dup3\n        /* \"#utility.yul\":25801:25810   */\n      sub\n        /* \"#utility.yul\":25793:25810   */\n      swap1\n      pop\n        /* \"#utility.yul\":25832:25833   */\n      dup2\n        /* \"#utility.yul\":25826:25830   */\n      dup2\n        /* \"#utility.yul\":25823:25834   */\n      gt\n        /* \"#utility.yul\":25820:25857   */\n      iszero\n      tag_506\n      jumpi\n        /* \"#utility.yul\":25837:25855   */\n      tag_507\n      tag_268\n      jump\t// in\n    tag_507:\n        /* \"#utility.yul\":25820:25857   */\n    tag_506:\n        /* \"#utility.yul\":25670:25864   */\n      swap3\n      swap2\n      pop\n      pop\n      jump\t// out\n\n    auxdata: 0xa2646970667358221220d3b7fb83f849204944edb61f0b6976fc6a0e68cdeeb01e10b325df2c2fd5be8464736f6c634300081e0033\n}\n",
				"bytecode": {
					"linkReferences": {},
					"object": "6080604052348015600e575f5ffd5b506124358061001c5f395ff3fe608060405234801561000f575f5ffd5b5060043610610114575f3560e01c80639be572f6116100a0578063cdfbb3511161006f578063cdfbb351146102e7578063e040e9a014610303578063f55936071461030d578063f69c6dec1461032b578063fab208ca1461035b57610114565b80639be572f6146102335780639ee20b1514610251578063a87430ba14610281578063a876f952146102b757610114565b8063523435c8116100e7578063523435c8146101a157806358467dbc146101ab5780635d8d1585146101db57806365171072146101fb5780637e9a1f2c1461021757610114565b80632fdf15d5146101185780633265b453146101485780633df604611461017b5780633ffbd47f14610185575b5f5ffd5b610132600480360381019061012d91906117ff565b61037e565b60405161013f9190611869565b60405180910390f35b610162600480360381019061015d91906118ac565b6103ae565b60405161017294939291906118fe565b60405180910390f35b6101836104da565b005b61019f600480360381019061019a9190611a7d565b6106b1565b005b6101a9610a94565b005b6101c560048036038101906101c09190611a7d565b610c69565b6040516101d29190611b0d565b60405180910390f35b6101e3610da2565b6040516101f293929190611b26565b60405180910390f35b61021560048036038101906102109190611b5b565b610e95565b005b610231600480360381019061022c9190611bf7565b610f7f565b005b61023b6110e8565b6040516102489190611c35565b60405180910390f35b61026b600480360381019061026691906118ac565b6110f1565b6040516102789190611b0d565b60405180910390f35b61029b600480360381019061029691906118ac565b611145565b6040516102ae9796959493929190611cc1565b60405180910390f35b6102d160048036038101906102cc9190611d2e565b61119a565b6040516102de9190611b0d565b60405180910390f35b61030160048036038101906102fc9190611a7d565b611276565b005b61030b6114b1565b005b610315611606565b6040516103229190611c35565b60405180910390f35b61034560048036038101906103409190611d6c565b61160f565b6040516103529190611b0d565b60405180910390f35b6103636116a1565b60405161037596959493929190611db3565b60405180910390f35b6001602052805f5260405f205f915054906101000a900473ffffffffffffffffffffffffffffffffffffffff1681565b5f5f5f5f5f5f5f8773ffffffffffffffffffffffffffffffffffffffff1673ffffffffffffffffffffffffffffffffffffffff1681526020019081526020015f209050806003015f9054906101000a900460ff16610441576040517f08c379a000000000000000000000000000000000000000000000000000000000815260040161043890611e6c565b60405180910390fd5b60018081111561045457610453611c4e565b5b816006015f9054906101000a900460ff16600181111561047757610476611c4e565b5b146104b7576040517f08c379a00000000000000000000000000000000000000000000000000000000081526004016104ae90611ed4565b60405180910390fd5b805f01548160040154826005015483600201549450945094509450509193509193565b5f5f3373ffffffffffffffffffffffffffffffffffffffff1673ffffffffffffffffffffffffffffffffffffffff1681526020019081526020015f206003015f9054906101000a900460ff16610565576040517f08c379a000000000000000000000000000000000000000000000000000000000815260040161055c90611f3c565b60405180910390fd5b5f5f5f3373ffffffffffffffffffffffffffffffffffffffff1673ffffffffffffffffffffffffffffffffffffffff1681526020019081526020015f2090505f60018111156105b7576105b6611c4e565b5b816006015f9054906101000a900460ff1660018111156105da576105d9611c4e565b5b1461061a576040517f08c379a000000000000000000000000000000000000000000000000000000000815260040161061190611fa4565b60405180910390fd5b5f816006015f9054906101000a900460ff1690506001826006015f6101000a81548160ff0219169083600181111561065557610654611c4e565b5b02179055503373ffffffffffffffffffffffffffffffffffffffff167fe4af6a8baf93b009d9448cca7ed6797e55063d93424cd1fe6568340203e1173d826001426040516106a593929190611fc2565b60405180910390a25050565b5f8251116106f4576040517f08c379a00000000000000000000000000000000000000000000000000000000081526004016106eb90612041565b60405180910390fd5b5f815111610737576040517f08c379a000000000000000000000000000000000000000000000000000000000815260040161072e906120a9565b60405180910390fd5b5f5f3373ffffffffffffffffffffffffffffffffffffffff1673ffffffffffffffffffffffffffffffffffffffff1681526020019081526020015f206003015f9054906101000a900460ff16156107c3576040517f08c379a00000000000000000000000000000000000000000000000000000000081526004016107ba90612111565b60405180910390fd5b5f826040516020016107d59190612181565b6040516020818303038152906040528051906020012090505f826040516020016107ff9190612181565b6040516020818303038152906040528051906020012090505f73ffffffffffffffffffffffffffffffffffffffff1660015f8481526020019081526020015f205f9054906101000a900473ffffffffffffffffffffffffffffffffffffffff1673ffffffffffffffffffffffffffffffffffffffff16146108b5576040517f08c379a00000000000000000000000000000000000000000000000000000000081526004016108ac906121e1565b60405180910390fd5b6040518060e001604052808381526020018281526020014281526020016001151581526020015f5f1b81526020015f5f1b81526020015f60018111156108fe576108fd611c4e565b5b8152505f5f3373ffffffffffffffffffffffffffffffffffffffff1673ffffffffffffffffffffffffffffffffffffffff1681526020019081526020015f205f820151815f015560208201518160010155604082015181600201556060820151816003015f6101000a81548160ff0219169083151502179055506080820151816004015560a0820151816005015560c0820151816006015f6101000a81548160ff021916908360018111156109b6576109b5611c4e565b5b02179055509050503360015f8481526020019081526020015f205f6101000a81548173ffffffffffffffffffffffffffffffffffffffff021916908373ffffffffffffffffffffffffffffffffffffffff160217905550600160025f828254610a1f919061222c565b92505081905550600160035f828254610a38919061222c565b92505081905550813373ffffffffffffffffffffffffffffffffffffffff167fe932b8f225535323212b28055402c985d3c06bca70a0c4aaa52ee2bf155dc2ac42604051610a869190611c35565b60405180910390a350505050565b5f5f3373ffffffffffffffffffffffffffffffffffffffff1673ffffffffffffffffffffffffffffffffffffffff1681526020019081526020015f206003015f9054906101000a900460ff16610b1f576040517f08c379a0000000000000000000000000000000000000000000000000000000008152600401610b1690611f3c565b60405180910390fd5b5f5f5f3373ffffffffffffffffffffffffffffffffffffffff1673ffffffffffffffffffffffffffffffffffffffff1681526020019081526020015f209050600180811115610b7157610b70611c4e565b5b816006015f9054906101000a900460ff166001811115610b9457610b93611c4e565b5b14610bd4576040517f08c379a0000000000000000000000000000000000000000000000000000000008152600401610bcb906122a9565b60405180910390fd5b5f816006015f9054906101000a900460ff1690505f826006015f6101000a81548160ff02191690836001811115610c0e57610c0d611c4e565b5b02179055503373ffffffffffffffffffffffffffffffffffffffff167fe4af6a8baf93b009d9448cca7ed6797e55063d93424cd1fe6568340203e1173d825f42604051610c5d93929190611fc2565b60405180910390a25050565b5f5f83604051602001610c7c9190612181565b6040516020818303038152906040528051906020012090505f60015f8381526020019081526020015f205f9054906101000a900473ffffffffffffffffffffffffffffffffffffffff1690505f73ffffffffffffffffffffffffffffffffffffffff168173ffffffffffffffffffffffffffffffffffffffff1603610d05575f92505050610d9c565b5f5f5f8373ffffffffffffffffffffffffffffffffffffffff1673ffffffffffffffffffffffffffffffffffffffff1681526020019081526020015f209050806003015f9054906101000a900460ff16610d64575f9350505050610d9c565b5f85604051602001610d769190612181565b604051602081830303815290604052805190602001209050808260010154149450505050505b92915050565b5f5f5f5f5f3373ffffffffffffffffffffffffffffffffffffffff1673ffffffffffffffffffffffffffffffffffffffff1681526020019081526020015f206003015f9054906101000a900460ff16610e30576040517f08c379a0000000000000000000000000000000000000000000000000000000008152600401610e2790611f3c565b60405180910390fd5b5f5f5f3373ffffffffffffffffffffffffffffffffffffffff1673ffffffffffffffffffffffffffffffffffffffff1681526020019081526020015f209050805f01548160020154826003015f9054906101000a900460ff1693509350935050909192565b610e9f84846106b1565b815f5f3373ffffffffffffffffffffffffffffffffffffffff1673ffffffffffffffffffffffffffffffffffffffff1681526020019081526020015f2060040181905550805f5f3373ffffffffffffffffffffffffffffffffffffffff1673ffffffffffffffffffffffffffffffffffffffff1681526020019081526020015f20600501819055503373ffffffffffffffffffffffffffffffffffffffff167f0fe89ec3aa84bab96e6d076a5072554cca1061e5b1d75ce167cf60698b0696b1838342604051610f71939291906122c7565b60405180910390a250505050565b5f5f3373ffffffffffffffffffffffffffffffffffffffff1673ffffffffffffffffffffffffffffffffffffffff1681526020019081526020015f206003015f9054906101000a900460ff1661100a576040517f08c379a000000000000000000000000000000000000000000000000000000000815260040161100190611f3c565b60405180910390fd5b815f5f3373ffffffffffffffffffffffffffffffffffffffff1673ffffffffffffffffffffffffffffffffffffffff1681526020019081526020015f2060040181905550805f5f3373ffffffffffffffffffffffffffffffffffffffff1673ffffffffffffffffffffffffffffffffffffffff1681526020019081526020015f20600501819055503373ffffffffffffffffffffffffffffffffffffffff167f0fe89ec3aa84bab96e6d076a5072554cca1061e5b1d75ce167cf60698b0696b18383426040516110dc939291906122c7565b60405180910390a25050565b5f600254905090565b5f5f5f8373ffffffffffffffffffffffffffffffffffffffff1673ffffffffffffffffffffffffffffffffffffffff1681526020019081526020015f206003015f9054906101000a900460ff169050919050565b5f602052805f5260405f205f91509050805f015490806001015490806002015490806003015f9054906101000a900460ff1690806004015490806005015490806006015f9054906101000a900460ff16905087565b5f5f5f5f8473ffffffffffffffffffffffffffffffffffffffff1673ffffffffffffffffffffffffffffffffffffffff1681526020019081526020015f209050806003015f9054906101000a900460ff166111f8575f915050611270565b8273ffffffffffffffffffffffffffffffffffffffff168473ffffffffffffffffffffffffffffffffffffffff1603611235576001915050611270565b60018081111561124857611247611c4e565b5b816006015f9054906101000a900460ff16600181111561126b5761126a611c4e565b5b149150505b92915050565b5f5f3373ffffffffffffffffffffffffffffffffffffffff1673ffffffffffffffffffffffffffffffffffffffff1681526020019081526020015f206003015f9054906101000a900460ff16611301576040517f08c379a00000000000000000000000000000000000000000000000000000000081526004016112f890611f3c565b60405180910390fd5b5f815111611344576040517f08c379a000000000000000000000000000000000000000000000000000000000815260040161133b90612346565b60405180910390fd5b5f826040516020016113569190612181565b604051602081830303815290604052805190602001209050805f5f3373ffffffffffffffffffffffffffffffffffffffff1673ffffffffffffffffffffffffffffffffffffffff1681526020019081526020015f2060010154146113ef576040517f08c379a00000000000000000000000000000000000000000000000000000000081526004016113e6906123ae565b60405180910390fd5b5f826040516020016114019190612181565b604051602081830303815290604052805190602001209050805f5f3373ffffffffffffffffffffffffffffffffffffffff1673ffffffffffffffffffffffffffffffffffffffff1681526020019081526020015f20600101819055503373ffffffffffffffffffffffffffffffffffffffff167f6d1969aab140cccffa4fcfa0eb229c78c80c6603b497d441aca82c6899af6be1426040516114a39190611c35565b60405180910390a250505050565b5f5f3373ffffffffffffffffffffffffffffffffffffffff1673ffffffffffffffffffffffffffffffffffffffff1681526020019081526020015f206003015f9054906101000a900460ff1661153c576040517f08c379a000000000000000000000000000000000000000000000000000000000815260040161153390611f3c565b60405180910390fd5b5f5f5f3373ffffffffffffffffffffffffffffffffffffffff1673ffffffffffffffffffffffffffffffffffffffff1681526020019081526020015f206003015f6101000a81548160ff0219169083151502179055505f60035411156115b657600160035f8282546115ae91906123cc565b925050819055505b3373ffffffffffffffffffffffffffffffffffffffff167f0a3c4dd3ee5277d6eada470cf9b47a480953120ecafcbbdc14bde6f8a6248930426040516115fc9190611c35565b60405180910390a2565b5f600354905090565b5f5f826040516020016116229190612181565b6040516020818303038152906040528051906020012090505f73ffffffffffffffffffffffffffffffffffffffff1660015f8381526020019081526020015f205f9054906101000a900473ffffffffffffffffffffffffffffffffffffffff1673ffffffffffffffffffffffffffffffffffffffff1614915050919050565b5f5f5f5f5f5f5f5f3373ffffffffffffffffffffffffffffffffffffffff1673ffffffffffffffffffffffffffffffffffffffff1681526020019081526020015f206003015f9054906101000a900460ff16611732576040517f08c379a000000000000000000000000000000000000000000000000000000000815260040161172990611f3c565b60405180910390fd5b5f5f5f3373ffffffffffffffffffffffffffffffffffffffff1673ffffffffffffffffffffffffffffffffffffffff1681526020019081526020015f209050805f01548160020154826003015f9054906101000a900460ff1683600401548460050154856006015f9054906101000a900460ff1696509650965096509650965050909192939495565b5f604051905090565b5f5ffd5b5f5ffd5b5f819050919050565b6117de816117cc565b81146117e8575f5ffd5b50565b5f813590506117f9816117d5565b92915050565b5f60208284031215611814576118136117c4565b5b5f611821848285016117eb565b91505092915050565b5f73ffffffffffffffffffffffffffffffffffffffff82169050919050565b5f6118538261182a565b9050919050565b61186381611849565b82525050565b5f60208201905061187c5f83018461185a565b92915050565b61188b81611849565b8114611895575f5ffd5b50565b5f813590506118a681611882565b92915050565b5f602082840312156118c1576118c06117c4565b5b5f6118ce84828501611898565b91505092915050565b6118e0816117cc565b82525050565b5f819050919050565b6118f8816118e6565b82525050565b5f6080820190506119115f8301876118d7565b61191e60208301866118d7565b61192b60408301856118d7565b61193860608301846118ef565b95945050505050565b5f5ffd5b5f5ffd5b5f601f19601f8301169050919050565b7f4e487b71000000000000000000000000000000000000000000000000000000005f52604160045260245ffd5b61198f82611949565b810181811067ffffffffffffffff821117156119ae576119ad611959565b5b80604052505050565b5f6119c06117bb565b90506119cc8282611986565b919050565b5f67ffffffffffffffff8211156119eb576119ea611959565b5b6119f482611949565b9050602081019050919050565b828183375f83830152505050565b5f611a21611a1c846119d1565b6119b7565b905082815260208101848484011115611a3d57611a3c611945565b5b611a48848285611a01565b509392505050565b5f82601f830112611a6457611a63611941565b5b8135611a74848260208601611a0f565b91505092915050565b5f5f60408385031215611a9357611a926117c4565b5b5f83013567ffffffffffffffff811115611ab057611aaf6117c8565b5b611abc85828601611a50565b925050602083013567ffffffffffffffff811115611add57611adc6117c8565b5b611ae985828601611a50565b9150509250929050565b5f8115159050919050565b611b0781611af3565b82525050565b5f602082019050611b205f830184611afe565b92915050565b5f606082019050611b395f8301866118d7565b611b4660208301856118ef565b611b536040830184611afe565b949350505050565b5f5f5f5f60808587031215611b7357611b726117c4565b5b5f85013567ffffffffffffffff811115611b9057611b8f6117c8565b5b611b9c87828801611a50565b945050602085013567ffffffffffffffff811115611bbd57611bbc6117c8565b5b611bc987828801611a50565b9350506040611bda878288016117eb565b9250506060611beb878288016117eb565b91505092959194509250565b5f5f60408385031215611c0d57611c0c6117c4565b5b5f611c1a858286016117eb565b9250506020611c2b858286016117eb565b9150509250929050565b5f602082019050611c485f8301846118ef565b92915050565b7f4e487b71000000000000000000000000000000000000000000000000000000005f52602160045260245ffd5b60028110611c8c57611c8b611c4e565b5b50565b5f819050611c9c82611c7b565b919050565b5f611cab82611c8f565b9050919050565b611cbb81611ca1565b82525050565b5f60e082019050611cd45f83018a6118d7565b611ce160208301896118d7565b611cee60408301886118ef565b611cfb6060830187611afe565b611d0860808301866118d7565b611d1560a08301856118d7565b611d2260c0830184611cb2565b98975050505050505050565b5f5f60408385031215611d4457611d436117c4565b5b5f611d5185828601611898565b9250506020611d6285828601611898565b9150509250929050565b5f60208284031215611d8157611d806117c4565b5b5f82013567ffffffffffffffff811115611d9e57611d9d6117c8565b5b611daa84828501611a50565b91505092915050565b5f60c082019050611dc65f8301896118d7565b611dd360208301886118ef565b611de06040830187611afe565b611ded60608301866118d7565b611dfa60808301856118d7565b611e0760a0830184611cb2565b979650505050505050565b5f82825260208201905092915050565b7f5573657220696e616374697665206f72206e6f7420666f756e640000000000005f82015250565b5f611e56601a83611e12565b9150611e6182611e22565b602082019050919050565b5f6020820190508181035f830152611e8381611e4a565b9050919050565b7f50726f66696c65206973207072697661746500000000000000000000000000005f82015250565b5f611ebe601283611e12565b9150611ec982611e8a565b602082019050919050565b5f6020820190508181035f830152611eeb81611eb2565b9050919050565b7f55736572206e6f742072656769737465726564206f7220696e616374697665005f82015250565b5f611f26601f83611e12565b9150611f3182611ef2565b602082019050919050565b5f6020820190508181035f830152611f5381611f1a565b9050919050565b7f50726f66696c6520616c7265616479207075626c6963000000000000000000005f82015250565b5f611f8e601683611e12565b9150611f9982611f5a565b602082019050919050565b5f6020820190508181035f830152611fbb81611f82565b9050919050565b5f606082019050611fd55f830186611cb2565b611fe26020830185611cb2565b611fef60408301846118ef565b949350505050565b7f557365726e616d652063616e6e6f7420626520656d70747900000000000000005f82015250565b5f61202b601883611e12565b915061203682611ff7565b602082019050919050565b5f6020820190508181035f8301526120588161201f565b9050919050565b7f50617373776f72642063616e6e6f7420626520656d70747900000000000000005f82015250565b5f612093601883611e12565b915061209e8261205f565b602082019050919050565b5f6020820190508181035f8301526120c081612087565b9050919050565b7f5573657220616c726561647920726567697374657265640000000000000000005f82015250565b5f6120fb601783611e12565b9150612106826120c7565b602082019050919050565b5f6020820190508181035f830152612128816120ef565b9050919050565b5f81519050919050565b5f81905092915050565b8281835e5f83830152505050565b5f61215b8261212f565b6121658185612139565b9350612175818560208601612143565b80840191505092915050565b5f61218c8284612151565b915081905092915050565b7f557365726e616d6520616c72656164792074616b656e000000000000000000005f82015250565b5f6121cb601683611e12565b91506121d682612197565b602082019050919050565b5f6020820190508181035f8301526121f8816121bf565b9050919050565b7f4e487b71000000000000000000000000000000000000000000000000000000005f52601160045260245ffd5b5f612236826118e6565b9150612241836118e6565b9250828201905080821115612259576122586121ff565b5b92915050565b7f50726f66696c6520616c726561647920707269766174650000000000000000005f82015250565b5f612293601783611e12565b915061229e8261225f565b602082019050919050565b5f6020820190508181035f8301526122c081612287565b9050919050565b5f6060820190506122da5f8301866118d7565b6122e760208301856118d7565b6122f460408301846118ef565b949350505050565b7f4e65772070617373776f72642063616e6e6f7420626520656d707479000000005f82015250565b5f612330601c83611e12565b915061233b826122fc565b602082019050919050565b5f6020820190508181035f83015261235d81612324565b9050919050565b7f4f6c642070617373776f726420696e636f7272656374000000000000000000005f82015250565b5f612398601683611e12565b91506123a382612364565b602082019050919050565b5f6020820190508181035f8301526123c58161238c565b9050919050565b5f6123d6826118e6565b91506123e1836118e6565b92508282039050818111156123f9576123f86121ff565b5b9291505056fea2646970667358221220d3b7fb83f849204944edb61f0b6976fc6a0e68cdeeb01e10b325df2c2fd5be8464736f6c634300081e0033",
					"opcodes": "PUSH1 0x80 PUSH1 0x40 MSTORE CALLVALUE DUP1 ISZERO PUSH1 0xE JUMPI PUSH0 PUSH0 REVERT JUMPDEST POP PUSH2 0x2435 DUP1 PUSH2 0x1C PUSH0 CODECOPY PUSH0 RETURN INVALID PUSH1 0x80 PUSH1 0x40 MSTORE CALLVALUE DUP1 ISZERO PUSH2 0xF JUMPI PUSH0 PUSH0 REVERT JUMPDEST POP PUSH1 0x4 CALLDATASIZE LT PUSH2 0x114 JUMPI PUSH0 CALLDATALOAD PUSH1 0xE0 SHR DUP1 PUSH4 0x9BE572F6 GT PUSH2 0xA0 JUMPI DUP1 PUSH4 0xCDFBB351 GT PUSH2 0x6F JUMPI DUP1 PUSH4 0xCDFBB351 EQ PUSH2 0x2E7 JUMPI DUP1 PUSH4 0xE040E9A0 EQ PUSH2 0x303 JUMPI DUP1 PUSH4 0xF5593607 EQ PUSH2 0x30D JUMPI DUP1 PUSH4 0xF69C6DEC EQ PUSH2 0x32B JUMPI DUP1 PUSH4 0xFAB208CA EQ PUSH2 0x35B JUMPI PUSH2 0x114 JUMP JUMPDEST DUP1 PUSH4 0x9BE572F6 EQ PUSH2 0x233 JUMPI DUP1 PUSH4 0x9EE20B15 EQ PUSH2 0x251 JUMPI DUP1 PUSH4 0xA87430BA EQ PUSH2 0x281 JUMPI DUP1 PUSH4 0xA876F952 EQ PUSH2 0x2B7 JUMPI PUSH2 0x114 JUMP JUMPDEST DUP1 PUSH4 0x523435C8 GT PUSH2 0xE7 JUMPI DUP1 PUSH4 0x523435C8 EQ PUSH2 0x1A1 JUMPI DUP1 PUSH4 0x58467DBC EQ PUSH2 0x1AB JUMPI DUP1 PUSH4 0x5D8D1585 EQ PUSH2 0x1DB JUMPI DUP1 PUSH4 0x65171072 EQ PUSH2 0x1FB JUMPI DUP1 PUSH4 0x7E9A1F2C EQ PUSH2 0x217 JUMPI PUSH2 0x114 JUMP JUMPDEST DUP1 PUSH4 0x2FDF15D5 EQ PUSH2 0x118 JUMPI DUP1 PUSH4 0x3265B453 EQ PUSH2 0x148 JUMPI DUP1 PUSH4 0x3DF60461 EQ PUSH2 0x17B JUMPI DUP1 PUSH4 0x3FFBD47F EQ PUSH2 0x185 JUMPI JUMPDEST PUSH0 PUSH0 REVERT JUMPDEST PUSH2 0x132 PUSH1 0x4 DUP1 CALLDATASIZE SUB DUP2 ADD SWAP1 PUSH2 0x12D SWAP2 SWAP1 PUSH2 0x17FF JUMP JUMPDEST PUSH2 0x37E JUMP JUMPDEST PUSH1 0x40 MLOAD PUSH2 0x13F SWAP2 SWAP1 PUSH2 0x1869 JUMP JUMPDEST PUSH1 0x40 MLOAD DUP1 SWAP2 SUB SWAP1 RETURN JUMPDEST PUSH2 0x162 PUSH1 0x4 DUP1 CALLDATASIZE SUB DUP2 ADD SWAP1 PUSH2 0x15D SWAP2 SWAP1 PUSH2 0x18AC JUMP JUMPDEST PUSH2 0x3AE JUMP JUMPDEST PUSH1 0x40 MLOAD PUSH2 0x172 SWAP5 SWAP4 SWAP3 SWAP2 SWAP1 PUSH2 0x18FE JUMP JUMPDEST PUSH1 0x40 MLOAD DUP1 SWAP2 SUB SWAP1 RETURN JUMPDEST PUSH2 0x183 PUSH2 0x4DA JUMP JUMPDEST STOP JUMPDEST PUSH2 0x19F PUSH1 0x4 DUP1 CALLDATASIZE SUB DUP2 ADD SWAP1 PUSH2 0x19A SWAP2 SWAP1 PUSH2 0x1A7D JUMP JUMPDEST PUSH2 0x6B1 JUMP JUMPDEST STOP JUMPDEST PUSH2 0x1A9 PUSH2 0xA94 JUMP JUMPDEST STOP JUMPDEST PUSH2 0x1C5 PUSH1 0x4 DUP1 CALLDATASIZE SUB DUP2 ADD SWAP1 PUSH2 0x1C0 SWAP2 SWAP1 PUSH2 0x1A7D JUMP JUMPDEST PUSH2 0xC69 JUMP JUMPDEST PUSH1 0x40 MLOAD PUSH2 0x1D2 SWAP2 SWAP1 PUSH2 0x1B0D JUMP JUMPDEST PUSH1 0x40 MLOAD DUP1 SWAP2 SUB SWAP1 RETURN JUMPDEST PUSH2 0x1E3 PUSH2 0xDA2 JUMP JUMPDEST PUSH1 0x40 MLOAD PUSH2 0x1F2 SWAP4 SWAP3 SWAP2 SWAP1 PUSH2 0x1B26 JUMP JUMPDEST PUSH1 0x40 MLOAD DUP1 SWAP2 SUB SWAP1 RETURN JUMPDEST PUSH2 0x215 PUSH1 0x4 DUP1 CALLDATASIZE SUB DUP2 ADD SWAP1 PUSH2 0x210 SWAP2 SWAP1 PUSH2 0x1B5B JUMP JUMPDEST PUSH2 0xE95 JUMP JUMPDEST STOP JUMPDEST PUSH2 0x231 PUSH1 0x4 DUP1 CALLDATASIZE SUB DUP2 ADD SWAP1 PUSH2 0x22C SWAP2 SWAP1 PUSH2 0x1BF7 JUMP JUMPDEST PUSH2 0xF7F JUMP JUMPDEST STOP JUMPDEST PUSH2 0x23B PUSH2 0x10E8 JUMP JUMPDEST PUSH1 0x40 MLOAD PUSH2 0x248 SWAP2 SWAP1 PUSH2 0x1C35 JUMP JUMPDEST PUSH1 0x40 MLOAD DUP1 SWAP2 SUB SWAP1 RETURN JUMPDEST PUSH2 0x26B PUSH1 0x4 DUP1 CALLDATASIZE SUB DUP2 ADD SWAP1 PUSH2 0x266 SWAP2 SWAP1 PUSH2 0x18AC JUMP JUMPDEST PUSH2 0x10F1 JUMP JUMPDEST PUSH1 0x40 MLOAD PUSH2 0x278 SWAP2 SWAP1 PUSH2 0x1B0D JUMP JUMPDEST PUSH1 0x40 MLOAD DUP1 SWAP2 SUB SWAP1 RETURN JUMPDEST PUSH2 0x29B PUSH1 0x4 DUP1 CALLDATASIZE SUB DUP2 ADD SWAP1 PUSH2 0x296 SWAP2 SWAP1 PUSH2 0x18AC JUMP JUMPDEST PUSH2 0x1145 JUMP JUMPDEST PUSH1 0x40 MLOAD PUSH2 0x2AE SWAP8 SWAP7 SWAP6 SWAP5 SWAP4 SWAP3 SWAP2 SWAP1 PUSH2 0x1CC1 JUMP JUMPDEST PUSH1 0x40 MLOAD DUP1 SWAP2 SUB SWAP1 RETURN JUMPDEST PUSH2 0x2D1 PUSH1 0x4 DUP1 CALLDATASIZE SUB DUP2 ADD SWAP1 PUSH2 0x2CC SWAP2 SWAP1 PUSH2 0x1D2E JUMP JUMPDEST PUSH2 0x119A JUMP JUMPDEST PUSH1 0x40 MLOAD PUSH2 0x2DE SWAP2 SWAP1 PUSH2 0x1B0D JUMP JUMPDEST PUSH1 0x40 MLOAD DUP1 SWAP2 SUB SWAP1 RETURN JUMPDEST PUSH2 0x301 PUSH1 0x4 DUP1 CALLDATASIZE SUB DUP2 ADD SWAP1 PUSH2 0x2FC SWAP2 SWAP1 PUSH2 0x1A7D JUMP JUMPDEST PUSH2 0x1276 JUMP JUMPDEST STOP JUMPDEST PUSH2 0x30B PUSH2 0x14B1 JUMP JUMPDEST STOP JUMPDEST PUSH2 0x315 PUSH2 0x1606 JUMP JUMPDEST PUSH1 0x40 MLOAD PUSH2 0x322 SWAP2 SWAP1 PUSH2 0x1C35 JUMP JUMPDEST PUSH1 0x40 MLOAD DUP1 SWAP2 SUB SWAP1 RETURN JUMPDEST PUSH2 0x345 PUSH1 0x4 DUP1 CALLDATASIZE SUB DUP2 ADD SWAP1 PUSH2 0x340 SWAP2 SWAP1 PUSH2 0x1D6C JUMP JUMPDEST PUSH2 0x160F JUMP JUMPDEST PUSH1 0x40 MLOAD PUSH2 0x352 SWAP2 SWAP1 PUSH2 0x1B0D JUMP JUMPDEST PUSH1 0x40 MLOAD DUP1 SWAP2 SUB SWAP1 RETURN JUMPDEST PUSH2 0x363 PUSH2 0x16A1 JUMP JUMPDEST PUSH1 0x40 MLOAD PUSH2 0x375 SWAP7 SWAP6 SWAP5 SWAP4 SWAP3 SWAP2 SWAP1 PUSH2 0x1DB3 JUMP JUMPDEST PUSH1 0x40 MLOAD DUP1 SWAP2 SUB SWAP1 RETURN JUMPDEST PUSH1 0x1 PUSH1 0x20 MSTORE DUP1 PUSH0 MSTORE PUSH1 0x40 PUSH0 KECCAK256 PUSH0 SWAP2 POP SLOAD SWAP1 PUSH2 0x100 EXP SWAP1 DIV PUSH20 0xFFFFFFFFFFFFFFFFFFFFFFFFFFFFFFFFFFFFFFFF AND DUP2 JUMP JUMPDEST PUSH0 PUSH0 PUSH0 PUSH0 PUSH0 PUSH0 PUSH0 DUP8 PUSH20 0xFFFFFFFFFFFFFFFFFFFFFFFFFFFFFFFFFFFFFFFF AND PUSH20 0xFFFFFFFFFFFFFFFFFFFFFFFFFFFFFFFFFFFFFFFF AND DUP2 MSTORE PUSH1 0x20 ADD SWAP1 DUP2 MSTORE PUSH1 0x20 ADD PUSH0 KECCAK256 SWAP1 POP DUP1 PUSH1 0x3 ADD PUSH0 SWAP1 SLOAD SWAP1 PUSH2 0x100 EXP SWAP1 DIV PUSH1 0xFF AND PUSH2 0x441 JUMPI PUSH1 0x40 MLOAD PUSH32 0x8C379A000000000000000000000000000000000000000000000000000000000 DUP2 MSTORE PUSH1 0x4 ADD PUSH2 0x438 SWAP1 PUSH2 0x1E6C JUMP JUMPDEST PUSH1 0x40 MLOAD DUP1 SWAP2 SUB SWAP1 REVERT JUMPDEST PUSH1 0x1 DUP1 DUP2 GT ISZERO PUSH2 0x454 JUMPI PUSH2 0x453 PUSH2 0x1C4E JUMP JUMPDEST JUMPDEST DUP2 PUSH1 0x6 ADD PUSH0 SWAP1 SLOAD SWAP1 PUSH2 0x100 EXP SWAP1 DIV PUSH1 0xFF AND PUSH1 0x1 DUP2 GT ISZERO PUSH2 0x477 JUMPI PUSH2 0x476 PUSH2 0x1C4E JUMP JUMPDEST JUMPDEST EQ PUSH2 0x4B7 JUMPI PUSH1 0x40 MLOAD PUSH32 0x8C379A000000000000000000000000000000000000000000000000000000000 DUP2 MSTORE PUSH1 0x4 ADD PUSH2 0x4AE SWAP1 PUSH2 0x1ED4 JUMP JUMPDEST PUSH1 0x40 MLOAD DUP1 SWAP2 SUB SWAP1 REVERT JUMPDEST DUP1 PUSH0 ADD SLOAD DUP2 PUSH1 0x4 ADD SLOAD DUP3 PUSH1 0x5 ADD SLOAD DUP4 PUSH1 0x2 ADD SLOAD SWAP5 POP SWAP5 POP SWAP5 POP SWAP5 POP POP SWAP2 SWAP4 POP SWAP2 SWAP4 JUMP JUMPDEST PUSH0 PUSH0 CALLER PUSH20 0xFFFFFFFFFFFFFFFFFFFFFFFFFFFFFFFFFFFFFFFF AND PUSH20 0xFFFFFFFFFFFFFFFFFFFFFFFFFFFFFFFFFFFFFFFF AND DUP2 MSTORE PUSH1 0x20 ADD SWAP1 DUP2 MSTORE PUSH1 0x20 ADD PUSH0 KECCAK256 PUSH1 0x3 ADD PUSH0 SWAP1 SLOAD SWAP1 PUSH2 0x100 EXP SWAP1 DIV PUSH1 0xFF AND PUSH2 0x565 JUMPI PUSH1 0x40 MLOAD PUSH32 0x8C379A000000000000000000000000000000000000000000000000000000000 DUP2 MSTORE PUSH1 0x4 ADD PUSH2 0x55C SWAP1 PUSH2 0x1F3C JUMP JUMPDEST PUSH1 0x40 MLOAD DUP1 SWAP2 SUB SWAP1 REVERT JUMPDEST PUSH0 PUSH0 PUSH0 CALLER PUSH20 0xFFFFFFFFFFFFFFFFFFFFFFFFFFFFFFFFFFFFFFFF AND PUSH20 0xFFFFFFFFFFFFFFFFFFFFFFFFFFFFFFFFFFFFFFFF AND DUP2 MSTORE PUSH1 0x20 ADD SWAP1 DUP2 MSTORE PUSH1 0x20 ADD PUSH0 KECCAK256 SWAP1 POP PUSH0 PUSH1 0x1 DUP2 GT ISZERO PUSH2 0x5B7 JUMPI PUSH2 0x5B6 PUSH2 0x1C4E JUMP JUMPDEST JUMPDEST DUP2 PUSH1 0x6 ADD PUSH0 SWAP1 SLOAD SWAP1 PUSH2 0x100 EXP SWAP1 DIV PUSH1 0xFF AND PUSH1 0x1 DUP2 GT ISZERO PUSH2 0x5DA JUMPI PUSH2 0x5D9 PUSH2 0x1C4E JUMP JUMPDEST JUMPDEST EQ PUSH2 0x61A JUMPI PUSH1 0x40 MLOAD PUSH32 0x8C379A000000000000000000000000000000000000000000000000000000000 DUP2 MSTORE PUSH1 0x4 ADD PUSH2 0x611 SWAP1 PUSH2 0x1FA4 JUMP JUMPDEST PUSH1 0x40 MLOAD DUP1 SWAP2 SUB SWAP1 REVERT JUMPDEST PUSH0 DUP2 PUSH1 0x6 ADD PUSH0 SWAP1 SLOAD SWAP1 PUSH2 0x100 EXP SWAP1 DIV PUSH1 0xFF AND SWAP1 POP PUSH1 0x1 DUP3 PUSH1 0x6 ADD PUSH0 PUSH2 0x100 EXP DUP2 SLOAD DUP2 PUSH1 0xFF MUL NOT AND SWAP1 DUP4 PUSH1 0x1 DUP2 GT ISZERO PUSH2 0x655 JUMPI PUSH2 0x654 PUSH2 0x1C4E JUMP JUMPDEST JUMPDEST MUL OR SWAP1 SSTORE POP CALLER PUSH20 0xFFFFFFFFFFFFFFFFFFFFFFFFFFFFFFFFFFFFFFFF AND PUSH32 0xE4AF6A8BAF93B009D9448CCA7ED6797E55063D93424CD1FE6568340203E1173D DUP3 PUSH1 0x1 TIMESTAMP PUSH1 0x40 MLOAD PUSH2 0x6A5 SWAP4 SWAP3 SWAP2 SWAP1 PUSH2 0x1FC2 JUMP JUMPDEST PUSH1 0x40 MLOAD DUP1 SWAP2 SUB SWAP1 LOG2 POP POP JUMP JUMPDEST PUSH0 DUP3 MLOAD GT PUSH2 0x6F4 JUMPI PUSH1 0x40 MLOAD PUSH32 0x8C379A000000000000000000000000000000000000000000000000000000000 DUP2 MSTORE PUSH1 0x4 ADD PUSH2 0x6EB SWAP1 PUSH2 0x2041 JUMP JUMPDEST PUSH1 0x40 MLOAD DUP1 SWAP2 SUB SWAP1 REVERT JUMPDEST PUSH0 DUP2 MLOAD GT PUSH2 0x737 JUMPI PUSH1 0x40 MLOAD PUSH32 0x8C379A000000000000000000000000000000000000000000000000000000000 DUP2 MSTORE PUSH1 0x4 ADD PUSH2 0x72E SWAP1 PUSH2 0x20A9 JUMP JUMPDEST PUSH1 0x40 MLOAD DUP1 SWAP2 SUB SWAP1 REVERT JUMPDEST PUSH0 PUSH0 CALLER PUSH20 0xFFFFFFFFFFFFFFFFFFFFFFFFFFFFFFFFFFFFFFFF AND PUSH20 0xFFFFFFFFFFFFFFFFFFFFFFFFFFFFFFFFFFFFFFFF AND DUP2 MSTORE PUSH1 0x20 ADD SWAP1 DUP2 MSTORE PUSH1 0x20 ADD PUSH0 KECCAK256 PUSH1 0x3 ADD PUSH0 SWAP1 SLOAD SWAP1 PUSH2 0x100 EXP SWAP1 DIV PUSH1 0xFF AND ISZERO PUSH2 0x7C3 JUMPI PUSH1 0x40 MLOAD PUSH32 0x8C379A000000000000000000000000000000000000000000000000000000000 DUP2 MSTORE PUSH1 0x4 ADD PUSH2 0x7BA SWAP1 PUSH2 0x2111 JUMP JUMPDEST PUSH1 0x40 MLOAD DUP1 SWAP2 SUB SWAP1 REVERT JUMPDEST PUSH0 DUP3 PUSH1 0x40 MLOAD PUSH1 0x20 ADD PUSH2 0x7D5 SWAP2 SWAP1 PUSH2 0x2181 JUMP JUMPDEST PUSH1 0x40 MLOAD PUSH1 0x20 DUP2 DUP4 SUB SUB DUP2 MSTORE SWAP1 PUSH1 0x40 MSTORE DUP1 MLOAD SWAP1 PUSH1 0x20 ADD KECCAK256 SWAP1 POP PUSH0 DUP3 PUSH1 0x40 MLOAD PUSH1 0x20 ADD PUSH2 0x7FF SWAP2 SWAP1 PUSH2 0x2181 JUMP JUMPDEST PUSH1 0x40 MLOAD PUSH1 0x20 DUP2 DUP4 SUB SUB DUP2 MSTORE SWAP1 PUSH1 0x40 MSTORE DUP1 MLOAD SWAP1 PUSH1 0x20 ADD KECCAK256 SWAP1 POP PUSH0 PUSH20 0xFFFFFFFFFFFFFFFFFFFFFFFFFFFFFFFFFFFFFFFF AND PUSH1 0x1 PUSH0 DUP5 DUP2 MSTORE PUSH1 0x20 ADD SWAP1 DUP2 MSTORE PUSH1 0x20 ADD PUSH0 KECCAK256 PUSH0 SWAP1 SLOAD SWAP1 PUSH2 0x100 EXP SWAP1 DIV PUSH20 0xFFFFFFFFFFFFFFFFFFFFFFFFFFFFFFFFFFFFFFFF AND PUSH20 0xFFFFFFFFFFFFFFFFFFFFFFFFFFFFFFFFFFFFFFFF AND EQ PUSH2 0x8B5 JUMPI PUSH1 0x40 MLOAD PUSH32 0x8C379A000000000000000000000000000000000000000000000000000000000 DUP2 MSTORE PUSH1 0x4 ADD PUSH2 0x8AC SWAP1 PUSH2 0x21E1 JUMP JUMPDEST PUSH1 0x40 MLOAD DUP1 SWAP2 SUB SWAP1 REVERT JUMPDEST PUSH1 0x40 MLOAD DUP1 PUSH1 0xE0 ADD PUSH1 0x40 MSTORE DUP1 DUP4 DUP2 MSTORE PUSH1 0x20 ADD DUP3 DUP2 MSTORE PUSH1 0x20 ADD TIMESTAMP DUP2 MSTORE PUSH1 0x20 ADD PUSH1 0x1 ISZERO ISZERO DUP2 MSTORE PUSH1 0x20 ADD PUSH0 PUSH0 SHL DUP2 MSTORE PUSH1 0x20 ADD PUSH0 PUSH0 SHL DUP2 MSTORE PUSH1 0x20 ADD PUSH0 PUSH1 0x1 DUP2 GT ISZERO PUSH2 0x8FE JUMPI PUSH2 0x8FD PUSH2 0x1C4E JUMP JUMPDEST JUMPDEST DUP2 MSTORE POP PUSH0 PUSH0 CALLER PUSH20 0xFFFFFFFFFFFFFFFFFFFFFFFFFFFFFFFFFFFFFFFF AND PUSH20 0xFFFFFFFFFFFFFFFFFFFFFFFFFFFFFFFFFFFFFFFF AND DUP2 MSTORE PUSH1 0x20 ADD SWAP1 DUP2 MSTORE PUSH1 0x20 ADD PUSH0 KECCAK256 PUSH0 DUP3 ADD MLOAD DUP2 PUSH0 ADD SSTORE PUSH1 0x20 DUP3 ADD MLOAD DUP2 PUSH1 0x1 ADD SSTORE PUSH1 0x40 DUP3 ADD MLOAD DUP2 PUSH1 0x2 ADD SSTORE PUSH1 0x60 DUP3 ADD MLOAD DUP2 PUSH1 0x3 ADD PUSH0 PUSH2 0x100 EXP DUP2 SLOAD DUP2 PUSH1 0xFF MUL NOT AND SWAP1 DUP4 ISZERO ISZERO MUL OR SWAP1 SSTORE POP PUSH1 0x80 DUP3 ADD MLOAD DUP2 PUSH1 0x4 ADD SSTORE PUSH1 0xA0 DUP3 ADD MLOAD DUP2 PUSH1 0x5 ADD SSTORE PUSH1 0xC0 DUP3 ADD MLOAD DUP2 PUSH1 0x6 ADD PUSH0 PUSH2 0x100 EXP DUP2 SLOAD DUP2 PUSH1 0xFF MUL NOT AND SWAP1 DUP4 PUSH1 0x1 DUP2 GT ISZERO PUSH2 0x9B6 JUMPI PUSH2 0x9B5 PUSH2 0x1C4E JUMP JUMPDEST JUMPDEST MUL OR SWAP1 SSTORE POP SWAP1 POP POP CALLER PUSH1 0x1 PUSH0 DUP5 DUP2 MSTORE PUSH1 0x20 ADD SWAP1 DUP2 MSTORE PUSH1 0x20 ADD PUSH0 KECCAK256 PUSH0 PUSH2 0x100 EXP DUP2 SLOAD DUP2 PUSH20 0xFFFFFFFFFFFFFFFFFFFFFFFFFFFFFFFFFFFFFFFF MUL NOT AND SWAP1 DUP4 PUSH20 0xFFFFFFFFFFFFFFFFFFFFFFFFFFFFFFFFFFFFFFFF AND MUL OR SWAP1 SSTORE POP PUSH1 0x1 PUSH1 0x2 PUSH0 DUP3 DUP3 SLOAD PUSH2 0xA1F SWAP2 SWAP1 PUSH2 0x222C JUMP JUMPDEST SWAP3 POP POP DUP2 SWAP1 SSTORE POP PUSH1 0x1 PUSH1 0x3 PUSH0 DUP3 DUP3 SLOAD PUSH2 0xA38 SWAP2 SWAP1 PUSH2 0x222C JUMP JUMPDEST SWAP3 POP POP DUP2 SWAP1 SSTORE POP DUP2 CALLER PUSH20 0xFFFFFFFFFFFFFFFFFFFFFFFFFFFFFFFFFFFFFFFF AND PUSH32 0xE932B8F225535323212B28055402C985D3C06BCA70A0C4AAA52EE2BF155DC2AC TIMESTAMP PUSH1 0x40 MLOAD PUSH2 0xA86 SWAP2 SWAP1 PUSH2 0x1C35 JUMP JUMPDEST PUSH1 0x40 MLOAD DUP1 SWAP2 SUB SWAP1 LOG3 POP POP POP POP JUMP JUMPDEST PUSH0 PUSH0 CALLER PUSH20 0xFFFFFFFFFFFFFFFFFFFFFFFFFFFFFFFFFFFFFFFF AND PUSH20 0xFFFFFFFFFFFFFFFFFFFFFFFFFFFFFFFFFFFFFFFF AND DUP2 MSTORE PUSH1 0x20 ADD SWAP1 DUP2 MSTORE PUSH1 0x20 ADD PUSH0 KECCAK256 PUSH1 0x3 ADD PUSH0 SWAP1 SLOAD SWAP1 PUSH2 0x100 EXP SWAP1 DIV PUSH1 0xFF AND PUSH2 0xB1F JUMPI PUSH1 0x40 MLOAD PUSH32 0x8C379A000000000000000000000000000000000000000000000000000000000 DUP2 MSTORE PUSH1 0x4 ADD PUSH2 0xB16 SWAP1 PUSH2 0x1F3C JUMP JUMPDEST PUSH1 0x40 MLOAD DUP1 SWAP2 SUB SWAP1 REVERT JUMPDEST PUSH0 PUSH0 PUSH0 CALLER PUSH20 0xFFFFFFFFFFFFFFFFFFFFFFFFFFFFFFFFFFFFFFFF AND PUSH20 0xFFFFFFFFFFFFFFFFFFFFFFFFFFFFFFFFFFFFFFFF AND DUP2 MSTORE PUSH1 0x20 ADD SWAP1 DUP2 MSTORE PUSH1 0x20 ADD PUSH0 KECCAK256 SWAP1 POP PUSH1 0x1 DUP1 DUP2 GT ISZERO PUSH2 0xB71 JUMPI PUSH2 0xB70 PUSH2 0x1C4E JUMP JUMPDEST JUMPDEST DUP2 PUSH1 0x6 ADD PUSH0 SWAP1 SLOAD SWAP1 PUSH2 0x100 EXP SWAP1 DIV PUSH1 0xFF AND PUSH1 0x1 DUP2 GT ISZERO PUSH2 0xB94 JUMPI PUSH2 0xB93 PUSH2 0x1C4E JUMP JUMPDEST JUMPDEST EQ PUSH2 0xBD4 JUMPI PUSH1 0x40 MLOAD PUSH32 0x8C379A000000000000000000000000000000000000000000000000000000000 DUP2 MSTORE PUSH1 0x4 ADD PUSH2 0xBCB SWAP1 PUSH2 0x22A9 JUMP JUMPDEST PUSH1 0x40 MLOAD DUP1 SWAP2 SUB SWAP1 REVERT JUMPDEST PUSH0 DUP2 PUSH1 0x6 ADD PUSH0 SWAP1 SLOAD SWAP1 PUSH2 0x100 EXP SWAP1 DIV PUSH1 0xFF AND SWAP1 POP PUSH0 DUP3 PUSH1 0x6 ADD PUSH0 PUSH2 0x100 EXP DUP2 SLOAD DUP2 PUSH1 0xFF MUL NOT AND SWAP1 DUP4 PUSH1 0x1 DUP2 GT ISZERO PUSH2 0xC0E JUMPI PUSH2 0xC0D PUSH2 0x1C4E JUMP JUMPDEST JUMPDEST MUL OR SWAP1 SSTORE POP CALLER PUSH20 0xFFFFFFFFFFFFFFFFFFFFFFFFFFFFFFFFFFFFFFFF AND PUSH32 0xE4AF6A8BAF93B009D9448CCA7ED6797E55063D93424CD1FE6568340203E1173D DUP3 PUSH0 TIMESTAMP PUSH1 0x40 MLOAD PUSH2 0xC5D SWAP4 SWAP3 SWAP2 SWAP1 PUSH2 0x1FC2 JUMP JUMPDEST PUSH1 0x40 MLOAD DUP1 SWAP2 SUB SWAP1 LOG2 POP POP JUMP JUMPDEST PUSH0 PUSH0 DUP4 PUSH1 0x40 MLOAD PUSH1 0x20 ADD PUSH2 0xC7C SWAP2 SWAP1 PUSH2 0x2181 JUMP JUMPDEST PUSH1 0x40 MLOAD PUSH1 0x20 DUP2 DUP4 SUB SUB DUP2 MSTORE SWAP1 PUSH1 0x40 MSTORE DUP1 MLOAD SWAP1 PUSH1 0x20 ADD KECCAK256 SWAP1 POP PUSH0 PUSH1 0x1 PUSH0 DUP4 DUP2 MSTORE PUSH1 0x20 ADD SWAP1 DUP2 MSTORE PUSH1 0x20 ADD PUSH0 KECCAK256 PUSH0 SWAP1 SLOAD SWAP1 PUSH2 0x100 EXP SWAP1 DIV PUSH20 0xFFFFFFFFFFFFFFFFFFFFFFFFFFFFFFFFFFFFFFFF AND SWAP1 POP PUSH0 PUSH20 0xFFFFFFFFFFFFFFFFFFFFFFFFFFFFFFFFFFFFFFFF AND DUP2 PUSH20 0xFFFFFFFFFFFFFFFFFFFFFFFFFFFFFFFFFFFFFFFF AND SUB PUSH2 0xD05 JUMPI PUSH0 SWAP3 POP POP POP PUSH2 0xD9C JUMP JUMPDEST PUSH0 PUSH0 PUSH0 DUP4 PUSH20 0xFFFFFFFFFFFFFFFFFFFFFFFFFFFFFFFFFFFFFFFF AND PUSH20 0xFFFFFFFFFFFFFFFFFFFFFFFFFFFFFFFFFFFFFFFF AND DUP2 MSTORE PUSH1 0x20 ADD SWAP1 DUP2 MSTORE PUSH1 0x20 ADD PUSH0 KECCAK256 SWAP1 POP DUP1 PUSH1 0x3 ADD PUSH0 SWAP1 SLOAD SWAP1 PUSH2 0x100 EXP SWAP1 DIV PUSH1 0xFF AND PUSH2 0xD64 JUMPI PUSH0 SWAP4 POP POP POP POP PUSH2 0xD9C JUMP JUMPDEST PUSH0 DUP6 PUSH1 0x40 MLOAD PUSH1 0x20 ADD PUSH2 0xD76 SWAP2 SWAP1 PUSH2 0x2181 JUMP JUMPDEST PUSH1 0x40 MLOAD PUSH1 0x20 DUP2 DUP4 SUB SUB DUP2 MSTORE SWAP1 PUSH1 0x40 MSTORE DUP1 MLOAD SWAP1 PUSH1 0x20 ADD KECCAK256 SWAP1 POP DUP1 DUP3 PUSH1 0x1 ADD SLOAD EQ SWAP5 POP POP POP POP POP JUMPDEST SWAP3 SWAP2 POP POP JUMP JUMPDEST PUSH0 PUSH0 PUSH0 PUSH0 PUSH0 CALLER PUSH20 0xFFFFFFFFFFFFFFFFFFFFFFFFFFFFFFFFFFFFFFFF AND PUSH20 0xFFFFFFFFFFFFFFFFFFFFFFFFFFFFFFFFFFFFFFFF AND DUP2 MSTORE PUSH1 0x20 ADD SWAP1 DUP2 MSTORE PUSH1 0x20 ADD PUSH0 KECCAK256 PUSH1 0x3 ADD PUSH0 SWAP1 SLOAD SWAP1 PUSH2 0x100 EXP SWAP1 DIV PUSH1 0xFF AND PUSH2 0xE30 JUMPI PUSH1 0x40 MLOAD PUSH32 0x8C379A000000000000000000000000000000000000000000000000000000000 DUP2 MSTORE PUSH1 0x4 ADD PUSH2 0xE27 SWAP1 PUSH2 0x1F3C JUMP JUMPDEST PUSH1 0x40 MLOAD DUP1 SWAP2 SUB SWAP1 REVERT JUMPDEST PUSH0 PUSH0 PUSH0 CALLER PUSH20 0xFFFFFFFFFFFFFFFFFFFFFFFFFFFFFFFFFFFFFFFF AND PUSH20 0xFFFFFFFFFFFFFFFFFFFFFFFFFFFFFFFFFFFFFFFF AND DUP2 MSTORE PUSH1 0x20 ADD SWAP1 DUP2 MSTORE PUSH1 0x20 ADD PUSH0 KECCAK256 SWAP1 POP DUP1 PUSH0 ADD SLOAD DUP2 PUSH1 0x2 ADD SLOAD DUP3 PUSH1 0x3 ADD PUSH0 SWAP1 SLOAD SWAP1 PUSH2 0x100 EXP SWAP1 DIV PUSH1 0xFF AND SWAP4 POP SWAP4 POP SWAP4 POP POP SWAP1 SWAP2 SWAP3 JUMP JUMPDEST PUSH2 0xE9F DUP5 DUP5 PUSH2 0x6B1 JUMP JUMPDEST DUP2 PUSH0 PUSH0 CALLER PUSH20 0xFFFFFFFFFFFFFFFFFFFFFFFFFFFFFFFFFFFFFFFF AND PUSH20 0xFFFFFFFFFFFFFFFFFFFFFFFFFFFFFFFFFFFFFFFF AND DUP2 MSTORE PUSH1 0x20 ADD SWAP1 DUP2 MSTORE PUSH1 0x20 ADD PUSH0 KECCAK256 PUSH1 0x4 ADD DUP2 SWAP1 SSTORE POP DUP1 PUSH0 PUSH0 CALLER PUSH20 0xFFFFFFFFFFFFFFFFFFFFFFFFFFFFFFFFFFFFFFFF AND PUSH20 0xFFFFFFFFFFFFFFFFFFFFFFFFFFFFFFFFFFFFFFFF AND DUP2 MSTORE PUSH1 0x20 ADD SWAP1 DUP2 MSTORE PUSH1 0x20 ADD PUSH0 KECCAK256 PUSH1 0x5 ADD DUP2 SWAP1 SSTORE POP CALLER PUSH20 0xFFFFFFFFFFFFFFFFFFFFFFFFFFFFFFFFFFFFFFFF AND PUSH32 0xFE89EC3AA84BAB96E6D076A5072554CCA1061E5B1D75CE167CF60698B0696B1 DUP4 DUP4 TIMESTAMP PUSH1 0x40 MLOAD PUSH2 0xF71 SWAP4 SWAP3 SWAP2 SWAP1 PUSH2 0x22C7 JUMP JUMPDEST PUSH1 0x40 MLOAD DUP1 SWAP2 SUB SWAP1 LOG2 POP POP POP POP JUMP JUMPDEST PUSH0 PUSH0 CALLER PUSH20 0xFFFFFFFFFFFFFFFFFFFFFFFFFFFFFFFFFFFFFFFF AND PUSH20 0xFFFFFFFFFFFFFFFFFFFFFFFFFFFFFFFFFFFFFFFF AND DUP2 MSTORE PUSH1 0x20 ADD SWAP1 DUP2 MSTORE PUSH1 0x20 ADD PUSH0 KECCAK256 PUSH1 0x3 ADD PUSH0 SWAP1 SLOAD SWAP1 PUSH2 0x100 EXP SWAP1 DIV PUSH1 0xFF AND PUSH2 0x100A JUMPI PUSH1 0x40 MLOAD PUSH32 0x8C379A000000000000000000000000000000000000000000000000000000000 DUP2 MSTORE PUSH1 0x4 ADD PUSH2 0x1001 SWAP1 PUSH2 0x1F3C JUMP JUMPDEST PUSH1 0x40 MLOAD DUP1 SWAP2 SUB SWAP1 REVERT JUMPDEST DUP2 PUSH0 PUSH0 CALLER PUSH20 0xFFFFFFFFFFFFFFFFFFFFFFFFFFFFFFFFFFFFFFFF AND PUSH20 0xFFFFFFFFFFFFFFFFFFFFFFFFFFFFFFFFFFFFFFFF AND DUP2 MSTORE PUSH1 0x20 ADD SWAP1 DUP2 MSTORE PUSH1 0x20 ADD PUSH0 KECCAK256 PUSH1 0x4 ADD DUP2 SWAP1 SSTORE POP DUP1 PUSH0 PUSH0 CALLER PUSH20 0xFFFFFFFFFFFFFFFFFFFFFFFFFFFFFFFFFFFFFFFF AND PUSH20 0xFFFFFFFFFFFFFFFFFFFFFFFFFFFFFFFFFFFFFFFF AND DUP2 MSTORE PUSH1 0x20 ADD SWAP1 DUP2 MSTORE PUSH1 0x20 ADD PUSH0 KECCAK256 PUSH1 0x5 ADD DUP2 SWAP1 SSTORE POP CALLER PUSH20 0xFFFFFFFFFFFFFFFFFFFFFFFFFFFFFFFFFFFFFFFF AND PUSH32 0xFE89EC3AA84BAB96E6D076A5072554CCA1061E5B1D75CE167CF60698B0696B1 DUP4 DUP4 TIMESTAMP PUSH1 0x40 MLOAD PUSH2 0x10DC SWAP4 SWAP3 SWAP2 SWAP1 PUSH2 0x22C7 JUMP JUMPDEST PUSH1 0x40 MLOAD DUP1 SWAP2 SUB SWAP1 LOG2 POP POP JUMP JUMPDEST PUSH0 PUSH1 0x2 SLOAD SWAP1 POP SWAP1 JUMP JUMPDEST PUSH0 PUSH0 PUSH0 DUP4 PUSH20 0xFFFFFFFFFFFFFFFFFFFFFFFFFFFFFFFFFFFFFFFF AND PUSH20 0xFFFFFFFFFFFFFFFFFFFFFFFFFFFFFFFFFFFFFFFF AND DUP2 MSTORE PUSH1 0x20 ADD SWAP1 DUP2 MSTORE PUSH1 0x20 ADD PUSH0 KECCAK256 PUSH1 0x3 ADD PUSH0 SWAP1 SLOAD SWAP1 PUSH2 0x100 EXP SWAP1 DIV PUSH1 0xFF AND SWAP1 POP SWAP2 SWAP1 POP JUMP JUMPDEST PUSH0 PUSH1 0x20 MSTORE DUP1 PUSH0 MSTORE PUSH1 0x40 PUSH0 KECCAK256 PUSH0 SWAP2 POP SWAP1 POP DUP1 PUSH0 ADD SLOAD SWAP1 DUP1 PUSH1 0x1 ADD SLOAD SWAP1 DUP1 PUSH1 0x2 ADD SLOAD SWAP1 DUP1 PUSH1 0x3 ADD PUSH0 SWAP1 SLOAD SWAP1 PUSH2 0x100 EXP SWAP1 DIV PUSH1 0xFF AND SWAP1 DUP1 PUSH1 0x4 ADD SLOAD SWAP1 DUP1 PUSH1 0x5 ADD SLOAD SWAP1 DUP1 PUSH1 0x6 ADD PUSH0 SWAP1 SLOAD SWAP1 PUSH2 0x100 EXP SWAP1 DIV PUSH1 0xFF AND SWAP1 POP DUP8 JUMP JUMPDEST PUSH0 PUSH0 PUSH0 PUSH0 DUP5 PUSH20 0xFFFFFFFFFFFFFFFFFFFFFFFFFFFFFFFFFFFFFFFF AND PUSH20 0xFFFFFFFFFFFFFFFFFFFFFFFFFFFFFFFFFFFFFFFF AND DUP2 MSTORE PUSH1 0x20 ADD SWAP1 DUP2 MSTORE PUSH1 0x20 ADD PUSH0 KECCAK256 SWAP1 POP DUP1 PUSH1 0x3 ADD PUSH0 SWAP1 SLOAD SWAP1 PUSH2 0x100 EXP SWAP1 DIV PUSH1 0xFF AND PUSH2 0x11F8 JUMPI PUSH0 SWAP2 POP POP PUSH2 0x1270 JUMP JUMPDEST DUP3 PUSH20 0xFFFFFFFFFFFFFFFFFFFFFFFFFFFFFFFFFFFFFFFF AND DUP5 PUSH20 0xFFFFFFFFFFFFFFFFFFFFFFFFFFFFFFFFFFFFFFFF AND SUB PUSH2 0x1235 JUMPI PUSH1 0x1 SWAP2 POP POP PUSH2 0x1270 JUMP JUMPDEST PUSH1 0x1 DUP1 DUP2 GT ISZERO PUSH2 0x1248 JUMPI PUSH2 0x1247 PUSH2 0x1C4E JUMP JUMPDEST JUMPDEST DUP2 PUSH1 0x6 ADD PUSH0 SWAP1 SLOAD SWAP1 PUSH2 0x100 EXP SWAP1 DIV PUSH1 0xFF AND PUSH1 0x1 DUP2 GT ISZERO PUSH2 0x126B JUMPI PUSH2 0x126A PUSH2 0x1C4E JUMP JUMPDEST JUMPDEST EQ SWAP2 POP POP JUMPDEST SWAP3 SWAP2 POP POP JUMP JUMPDEST PUSH0 PUSH0 CALLER PUSH20 0xFFFFFFFFFFFFFFFFFFFFFFFFFFFFFFFFFFFFFFFF AND PUSH20 0xFFFFFFFFFFFFFFFFFFFFFFFFFFFFFFFFFFFFFFFF AND DUP2 MSTORE PUSH1 0x20 ADD SWAP1 DUP2 MSTORE PUSH1 0x20 ADD PUSH0 KECCAK256 PUSH1 0x3 ADD PUSH0 SWAP1 SLOAD SWAP1 PUSH2 0x100 EXP SWAP1 DIV PUSH1 0xFF AND PUSH2 0x1301 JUMPI PUSH1 0x40 MLOAD PUSH32 0x8C379A000000000000000000000000000000000000000000000000000000000 DUP2 MSTORE PUSH1 0x4 ADD PUSH2 0x12F8 SWAP1 PUSH2 0x1F3C JUMP JUMPDEST PUSH1 0x40 MLOAD DUP1 SWAP2 SUB SWAP1 REVERT JUMPDEST PUSH0 DUP2 MLOAD GT PUSH2 0x1344 JUMPI PUSH1 0x40 MLOAD PUSH32 0x8C379A000000000000000000000000000000000000000000000000000000000 DUP2 MSTORE PUSH1 0x4 ADD PUSH2 0x133B SWAP1 PUSH2 0x2346 JUMP JUMPDEST PUSH1 0x40 MLOAD DUP1 SWAP2 SUB SWAP1 REVERT JUMPDEST PUSH0 DUP3 PUSH1 0x40 MLOAD PUSH1 0x20 ADD PUSH2 0x1356 SWAP2 SWAP1 PUSH2 0x2181 JUMP JUMPDEST PUSH1 0x40 MLOAD PUSH1 0x20 DUP2 DUP4 SUB SUB DUP2 MSTORE SWAP1 PUSH1 0x40 MSTORE DUP1 MLOAD SWAP1 PUSH1 0x20 ADD KECCAK256 SWAP1 POP DUP1 PUSH0 PUSH0 CALLER PUSH20 0xFFFFFFFFFFFFFFFFFFFFFFFFFFFFFFFFFFFFFFFF AND PUSH20 0xFFFFFFFFFFFFFFFFFFFFFFFFFFFFFFFFFFFFFFFF AND DUP2 MSTORE PUSH1 0x20 ADD SWAP1 DUP2 MSTORE PUSH1 0x20 ADD PUSH0 KECCAK256 PUSH1 0x1 ADD SLOAD EQ PUSH2 0x13EF JUMPI PUSH1 0x40 MLOAD PUSH32 0x8C379A000000000000000000000000000000000000000000000000000000000 DUP2 MSTORE PUSH1 0x4 ADD PUSH2 0x13E6 SWAP1 PUSH2 0x23AE JUMP JUMPDEST PUSH1 0x40 MLOAD DUP1 SWAP2 SUB SWAP1 REVERT JUMPDEST PUSH0 DUP3 PUSH1 0x40 MLOAD PUSH1 0x20 ADD PUSH2 0x1401 SWAP2 SWAP1 PUSH2 0x2181 JUMP JUMPDEST PUSH1 0x40 MLOAD PUSH1 0x20 DUP2 DUP4 SUB SUB DUP2 MSTORE SWAP1 PUSH1 0x40 MSTORE DUP1 MLOAD SWAP1 PUSH1 0x20 ADD KECCAK256 SWAP1 POP DUP1 PUSH0 PUSH0 CALLER PUSH20 0xFFFFFFFFFFFFFFFFFFFFFFFFFFFFFFFFFFFFFFFF AND PUSH20 0xFFFFFFFFFFFFFFFFFFFFFFFFFFFFFFFFFFFFFFFF AND DUP2 MSTORE PUSH1 0x20 ADD SWAP1 DUP2 MSTORE PUSH1 0x20 ADD PUSH0 KECCAK256 PUSH1 0x1 ADD DUP2 SWAP1 SSTORE POP CALLER PUSH20 0xFFFFFFFFFFFFFFFFFFFFFFFFFFFFFFFFFFFFFFFF AND PUSH32 0x6D1969AAB140CCCFFA4FCFA0EB229C78C80C6603B497D441ACA82C6899AF6BE1 TIMESTAMP PUSH1 0x40 MLOAD PUSH2 0x14A3 SWAP2 SWAP1 PUSH2 0x1C35 JUMP JUMPDEST PUSH1 0x40 MLOAD DUP1 SWAP2 SUB SWAP1 LOG2 POP POP POP POP JUMP JUMPDEST PUSH0 PUSH0 CALLER PUSH20 0xFFFFFFFFFFFFFFFFFFFFFFFFFFFFFFFFFFFFFFFF AND PUSH20 0xFFFFFFFFFFFFFFFFFFFFFFFFFFFFFFFFFFFFFFFF AND DUP2 MSTORE PUSH1 0x20 ADD SWAP1 DUP2 MSTORE PUSH1 0x20 ADD PUSH0 KECCAK256 PUSH1 0x3 ADD PUSH0 SWAP1 SLOAD SWAP1 PUSH2 0x100 EXP SWAP1 DIV PUSH1 0xFF AND PUSH2 0x153C JUMPI PUSH1 0x40 MLOAD PUSH32 0x8C379A000000000000000000000000000000000000000000000000000000000 DUP2 MSTORE PUSH1 0x4 ADD PUSH2 0x1533 SWAP1 PUSH2 0x1F3C JUMP JUMPDEST PUSH1 0x40 MLOAD DUP1 SWAP2 SUB SWAP1 REVERT JUMPDEST PUSH0 PUSH0 PUSH0 CALLER PUSH20 0xFFFFFFFFFFFFFFFFFFFFFFFFFFFFFFFFFFFFFFFF AND PUSH20 0xFFFFFFFFFFFFFFFFFFFFFFFFFFFFFFFFFFFFFFFF AND DUP2 MSTORE PUSH1 0x20 ADD SWAP1 DUP2 MSTORE PUSH1 0x20 ADD PUSH0 KECCAK256 PUSH1 0x3 ADD PUSH0 PUSH2 0x100 EXP DUP2 SLOAD DUP2 PUSH1 0xFF MUL NOT AND SWAP1 DUP4 ISZERO ISZERO MUL OR SWAP1 SSTORE POP PUSH0 PUSH1 0x3 SLOAD GT ISZERO PUSH2 0x15B6 JUMPI PUSH1 0x1 PUSH1 0x3 PUSH0 DUP3 DUP3 SLOAD PUSH2 0x15AE SWAP2 SWAP1 PUSH2 0x23CC JUMP JUMPDEST SWAP3 POP POP DUP2 SWAP1 SSTORE POP JUMPDEST CALLER PUSH20 0xFFFFFFFFFFFFFFFFFFFFFFFFFFFFFFFFFFFFFFFF AND PUSH32 0xA3C4DD3EE5277D6EADA470CF9B47A480953120ECAFCBBDC14BDE6F8A6248930 TIMESTAMP PUSH1 0x40 MLOAD PUSH2 0x15FC SWAP2 SWAP1 PUSH2 0x1C35 JUMP JUMPDEST PUSH1 0x40 MLOAD DUP1 SWAP2 SUB SWAP1 LOG2 JUMP JUMPDEST PUSH0 PUSH1 0x3 SLOAD SWAP1 POP SWAP1 JUMP JUMPDEST PUSH0 PUSH0 DUP3 PUSH1 0x40 MLOAD PUSH1 0x20 ADD PUSH2 0x1622 SWAP2 SWAP1 PUSH2 0x2181 JUMP JUMPDEST PUSH1 0x40 MLOAD PUSH1 0x20 DUP2 DUP4 SUB SUB DUP2 MSTORE SWAP1 PUSH1 0x40 MSTORE DUP1 MLOAD SWAP1 PUSH1 0x20 ADD KECCAK256 SWAP1 POP PUSH0 PUSH20 0xFFFFFFFFFFFFFFFFFFFFFFFFFFFFFFFFFFFFFFFF AND PUSH1 0x1 PUSH0 DUP4 DUP2 MSTORE PUSH1 0x20 ADD SWAP1 DUP2 MSTORE PUSH1 0x20 ADD PUSH0 KECCAK256 PUSH0 SWAP1 SLOAD SWAP1 PUSH2 0x100 EXP SWAP1 DIV PUSH20 0xFFFFFFFFFFFFFFFFFFFFFFFFFFFFFFFFFFFFFFFF AND PUSH20 0xFFFFFFFFFFFFFFFFFFFFFFFFFFFFFFFFFFFFFFFF AND EQ SWAP2 POP POP SWAP2 SWAP1 POP JUMP JUMPDEST PUSH0 PUSH0 PUSH0 PUSH0 PUSH0 PUSH0 PUSH0 PUSH0 CALLER PUSH20 0xFFFFFFFFFFFFFFFFFFFFFFFFFFFFFFFFFFFFFFFF AND PUSH20 0xFFFFFFFFFFFFFFFFFFFFFFFFFFFFFFFFFFFFFFFF AND DUP2 MSTORE PUSH1 0x20 ADD SWAP1 DUP2 MSTORE PUSH1 0x20 ADD PUSH0 KECCAK256 PUSH1 0x3 ADD PUSH0 SWAP1 SLOAD SWAP1 PUSH2 0x100 EXP SWAP1 DIV PUSH1 0xFF AND PUSH2 0x1732 JUMPI PUSH1 0x40 MLOAD PUSH32 0x8C379A000000000000000000000000000000000000000000000000000000000 DUP2 MSTORE PUSH1 0x4 ADD PUSH2 0x1729 SWAP1 PUSH2 0x1F3C JUMP JUMPDEST PUSH1 0x40 MLOAD DUP1 SWAP2 SUB SWAP1 REVERT JUMPDEST PUSH0 PUSH0 PUSH0 CALLER PUSH20 0xFFFFFFFFFFFFFFFFFFFFFFFFFFFFFFFFFFFFFFFF AND PUSH20 0xFFFFFFFFFFFFFFFFFFFFFFFFFFFFFFFFFFFFFFFF AND DUP2 MSTORE PUSH1 0x20 ADD SWAP1 DUP2 MSTORE PUSH1 0x20 ADD PUSH0 KECCAK256 SWAP1 POP DUP1 PUSH0 ADD SLOAD DUP2 PUSH1 0x2 ADD SLOAD DUP3 PUSH1 0x3 ADD PUSH0 SWAP1 SLOAD SWAP1 PUSH2 0x100 EXP SWAP1 DIV PUSH1 0xFF AND DUP4 PUSH1 0x4 ADD SLOAD DUP5 PUSH1 0x5 ADD SLOAD DUP6 PUSH1 0x6 ADD PUSH0 SWAP1 SLOAD SWAP1 PUSH2 0x100 EXP SWAP1 DIV PUSH1 0xFF AND SWAP7 POP SWAP7 POP SWAP7 POP SWAP7 POP SWAP7 POP SWAP7 POP POP SWAP1 SWAP2 SWAP3 SWAP4 SWAP5 SWAP6 JUMP JUMPDEST PUSH0 PUSH1 0x40 MLOAD SWAP1 POP SWAP1 JUMP JUMPDEST PUSH0 PUSH0 REVERT JUMPDEST PUSH0 PUSH0 REVERT JUMPDEST PUSH0 DUP2 SWAP1 POP SWAP2 SWAP1 POP JUMP JUMPDEST PUSH2 0x17DE DUP2 PUSH2 0x17CC JUMP JUMPDEST DUP2 EQ PUSH2 0x17E8 JUMPI PUSH0 PUSH0 REVERT JUMPDEST POP JUMP JUMPDEST PUSH0 DUP2 CALLDATALOAD SWAP1 POP PUSH2 0x17F9 DUP2 PUSH2 0x17D5 JUMP JUMPDEST SWAP3 SWAP2 POP POP JUMP JUMPDEST PUSH0 PUSH1 0x20 DUP3 DUP5 SUB SLT ISZERO PUSH2 0x1814 JUMPI PUSH2 0x1813 PUSH2 0x17C4 JUMP JUMPDEST JUMPDEST PUSH0 PUSH2 0x1821 DUP5 DUP3 DUP6 ADD PUSH2 0x17EB JUMP JUMPDEST SWAP2 POP POP SWAP3 SWAP2 POP POP JUMP JUMPDEST PUSH0 PUSH20 0xFFFFFFFFFFFFFFFFFFFFFFFFFFFFFFFFFFFFFFFF DUP3 AND SWAP1 POP SWAP2 SWAP1 POP JUMP JUMPDEST PUSH0 PUSH2 0x1853 DUP3 PUSH2 0x182A JUMP JUMPDEST SWAP1 POP SWAP2 SWAP1 POP JUMP JUMPDEST PUSH2 0x1863 DUP2 PUSH2 0x1849 JUMP JUMPDEST DUP3 MSTORE POP POP JUMP JUMPDEST PUSH0 PUSH1 0x20 DUP3 ADD SWAP1 POP PUSH2 0x187C PUSH0 DUP4 ADD DUP5 PUSH2 0x185A JUMP JUMPDEST SWAP3 SWAP2 POP POP JUMP JUMPDEST PUSH2 0x188B DUP2 PUSH2 0x1849 JUMP JUMPDEST DUP2 EQ PUSH2 0x1895 JUMPI PUSH0 PUSH0 REVERT JUMPDEST POP JUMP JUMPDEST PUSH0 DUP2 CALLDATALOAD SWAP1 POP PUSH2 0x18A6 DUP2 PUSH2 0x1882 JUMP JUMPDEST SWAP3 SWAP2 POP POP JUMP JUMPDEST PUSH0 PUSH1 0x20 DUP3 DUP5 SUB SLT ISZERO PUSH2 0x18C1 JUMPI PUSH2 0x18C0 PUSH2 0x17C4 JUMP JUMPDEST JUMPDEST PUSH0 PUSH2 0x18CE DUP5 DUP3 DUP6 ADD PUSH2 0x1898 JUMP JUMPDEST SWAP2 POP POP SWAP3 SWAP2 POP POP JUMP JUMPDEST PUSH2 0x18E0 DUP2 PUSH2 0x17CC JUMP JUMPDEST DUP3 MSTORE POP POP JUMP JUMPDEST PUSH0 DUP2 SWAP1 POP SWAP2 SWAP1 POP JUMP JUMPDEST PUSH2 0x18F8 DUP2 PUSH2 0x18E6 JUMP JUMPDEST DUP3 MSTORE POP POP JUMP JUMPDEST PUSH0 PUSH1 0x80 DUP3 ADD SWAP1 POP PUSH2 0x1911 PUSH0 DUP4 ADD DUP8 PUSH2 0x18D7 JUMP JUMPDEST PUSH2 0x191E PUSH1 0x20 DUP4 ADD DUP7 PUSH2 0x18D7 JUMP JUMPDEST PUSH2 0x192B PUSH1 0x40 DUP4 ADD DUP6 PUSH2 0x18D7 JUMP JUMPDEST PUSH2 0x1938 PUSH1 0x60 DUP4 ADD DUP5 PUSH2 0x18EF JUMP JUMPDEST SWAP6 SWAP5 POP POP POP POP POP JUMP JUMPDEST PUSH0 PUSH0 REVERT JUMPDEST PUSH0 PUSH0 REVERT JUMPDEST PUSH0 PUSH1 0x1F NOT PUSH1 0x1F DUP4 ADD AND SWAP1 POP SWAP2 SWAP1 POP JUMP JUMPDEST PUSH32 0x4E487B7100000000000000000000000000000000000000000000000000000000 PUSH0 MSTORE PUSH1 0x41 PUSH1 0x4 MSTORE PUSH1 0x24 PUSH0 REVERT JUMPDEST PUSH2 0x198F DUP3 PUSH2 0x1949 JUMP JUMPDEST DUP2 ADD DUP2 DUP2 LT PUSH8 0xFFFFFFFFFFFFFFFF DUP3 GT OR ISZERO PUSH2 0x19AE JUMPI PUSH2 0x19AD PUSH2 0x1959 JUMP JUMPDEST JUMPDEST DUP1 PUSH1 0x40 MSTORE POP POP POP JUMP JUMPDEST PUSH0 PUSH2 0x19C0 PUSH2 0x17BB JUMP JUMPDEST SWAP1 POP PUSH2 0x19CC DUP3 DUP3 PUSH2 0x1986 JUMP JUMPDEST SWAP2 SWAP1 POP JUMP JUMPDEST PUSH0 PUSH8 0xFFFFFFFFFFFFFFFF DUP3 GT ISZERO PUSH2 0x19EB JUMPI PUSH2 0x19EA PUSH2 0x1959 JUMP JUMPDEST JUMPDEST PUSH2 0x19F4 DUP3 PUSH2 0x1949 JUMP JUMPDEST SWAP1 POP PUSH1 0x20 DUP2 ADD SWAP1 POP SWAP2 SWAP1 POP JUMP JUMPDEST DUP3 DUP2 DUP4 CALLDATACOPY PUSH0 DUP4 DUP4 ADD MSTORE POP POP POP JUMP JUMPDEST PUSH0 PUSH2 0x1A21 PUSH2 0x1A1C DUP5 PUSH2 0x19D1 JUMP JUMPDEST PUSH2 0x19B7 JUMP JUMPDEST SWAP1 POP DUP3 DUP2 MSTORE PUSH1 0x20 DUP2 ADD DUP5 DUP5 DUP5 ADD GT ISZERO PUSH2 0x1A3D JUMPI PUSH2 0x1A3C PUSH2 0x1945 JUMP JUMPDEST JUMPDEST PUSH2 0x1A48 DUP5 DUP3 DUP6 PUSH2 0x1A01 JUMP JUMPDEST POP SWAP4 SWAP3 POP POP POP JUMP JUMPDEST PUSH0 DUP3 PUSH1 0x1F DUP4 ADD SLT PUSH2 0x1A64 JUMPI PUSH2 0x1A63 PUSH2 0x1941 JUMP JUMPDEST JUMPDEST DUP2 CALLDATALOAD PUSH2 0x1A74 DUP5 DUP3 PUSH1 0x20 DUP7 ADD PUSH2 0x1A0F JUMP JUMPDEST SWAP2 POP POP SWAP3 SWAP2 POP POP JUMP JUMPDEST PUSH0 PUSH0 PUSH1 0x40 DUP4 DUP6 SUB SLT ISZERO PUSH2 0x1A93 JUMPI PUSH2 0x1A92 PUSH2 0x17C4 JUMP JUMPDEST JUMPDEST PUSH0 DUP4 ADD CALLDATALOAD PUSH8 0xFFFFFFFFFFFFFFFF DUP2 GT ISZERO PUSH2 0x1AB0 JUMPI PUSH2 0x1AAF PUSH2 0x17C8 JUMP JUMPDEST JUMPDEST PUSH2 0x1ABC DUP6 DUP3 DUP7 ADD PUSH2 0x1A50 JUMP JUMPDEST SWAP3 POP POP PUSH1 0x20 DUP4 ADD CALLDATALOAD PUSH8 0xFFFFFFFFFFFFFFFF DUP2 GT ISZERO PUSH2 0x1ADD JUMPI PUSH2 0x1ADC PUSH2 0x17C8 JUMP JUMPDEST JUMPDEST PUSH2 0x1AE9 DUP6 DUP3 DUP7 ADD PUSH2 0x1A50 JUMP JUMPDEST SWAP2 POP POP SWAP3 POP SWAP3 SWAP1 POP JUMP JUMPDEST PUSH0 DUP2 ISZERO ISZERO SWAP1 POP SWAP2 SWAP1 POP JUMP JUMPDEST PUSH2 0x1B07 DUP2 PUSH2 0x1AF3 JUMP JUMPDEST DUP3 MSTORE POP POP JUMP JUMPDEST PUSH0 PUSH1 0x20 DUP3 ADD SWAP1 POP PUSH2 0x1B20 PUSH0 DUP4 ADD DUP5 PUSH2 0x1AFE JUMP JUMPDEST SWAP3 SWAP2 POP POP JUMP JUMPDEST PUSH0 PUSH1 0x60 DUP3 ADD SWAP1 POP PUSH2 0x1B39 PUSH0 DUP4 ADD DUP7 PUSH2 0x18D7 JUMP JUMPDEST PUSH2 0x1B46 PUSH1 0x20 DUP4 ADD DUP6 PUSH2 0x18EF JUMP JUMPDEST PUSH2 0x1B53 PUSH1 0x40 DUP4 ADD DUP5 PUSH2 0x1AFE JUMP JUMPDEST SWAP5 SWAP4 POP POP POP POP JUMP JUMPDEST PUSH0 PUSH0 PUSH0 PUSH0 PUSH1 0x80 DUP6 DUP8 SUB SLT ISZERO PUSH2 0x1B73 JUMPI PUSH2 0x1B72 PUSH2 0x17C4 JUMP JUMPDEST JUMPDEST PUSH0 DUP6 ADD CALLDATALOAD PUSH8 0xFFFFFFFFFFFFFFFF DUP2 GT ISZERO PUSH2 0x1B90 JUMPI PUSH2 0x1B8F PUSH2 0x17C8 JUMP JUMPDEST JUMPDEST PUSH2 0x1B9C DUP8 DUP3 DUP9 ADD PUSH2 0x1A50 JUMP JUMPDEST SWAP5 POP POP PUSH1 0x20 DUP6 ADD CALLDATALOAD PUSH8 0xFFFFFFFFFFFFFFFF DUP2 GT ISZERO PUSH2 0x1BBD JUMPI PUSH2 0x1BBC PUSH2 0x17C8 JUMP JUMPDEST JUMPDEST PUSH2 0x1BC9 DUP8 DUP3 DUP9 ADD PUSH2 0x1A50 JUMP JUMPDEST SWAP4 POP POP PUSH1 0x40 PUSH2 0x1BDA DUP8 DUP3 DUP9 ADD PUSH2 0x17EB JUMP JUMPDEST SWAP3 POP POP PUSH1 0x60 PUSH2 0x1BEB DUP8 DUP3 DUP9 ADD PUSH2 0x17EB JUMP JUMPDEST SWAP2 POP POP SWAP3 SWAP6 SWAP2 SWAP5 POP SWAP3 POP JUMP JUMPDEST PUSH0 PUSH0 PUSH1 0x40 DUP4 DUP6 SUB SLT ISZERO PUSH2 0x1C0D JUMPI PUSH2 0x1C0C PUSH2 0x17C4 JUMP JUMPDEST JUMPDEST PUSH0 PUSH2 0x1C1A DUP6 DUP3 DUP7 ADD PUSH2 0x17EB JUMP JUMPDEST SWAP3 POP POP PUSH1 0x20 PUSH2 0x1C2B DUP6 DUP3 DUP7 ADD PUSH2 0x17EB JUMP JUMPDEST SWAP2 POP POP SWAP3 POP SWAP3 SWAP1 POP JUMP JUMPDEST PUSH0 PUSH1 0x20 DUP3 ADD SWAP1 POP PUSH2 0x1C48 PUSH0 DUP4 ADD DUP5 PUSH2 0x18EF JUMP JUMPDEST SWAP3 SWAP2 POP POP JUMP JUMPDEST PUSH32 0x4E487B7100000000000000000000000000000000000000000000000000000000 PUSH0 MSTORE PUSH1 0x21 PUSH1 0x4 MSTORE PUSH1 0x24 PUSH0 REVERT JUMPDEST PUSH1 0x2 DUP2 LT PUSH2 0x1C8C JUMPI PUSH2 0x1C8B PUSH2 0x1C4E JUMP JUMPDEST JUMPDEST POP JUMP JUMPDEST PUSH0 DUP2 SWAP1 POP PUSH2 0x1C9C DUP3 PUSH2 0x1C7B JUMP JUMPDEST SWAP2 SWAP1 POP JUMP JUMPDEST PUSH0 PUSH2 0x1CAB DUP3 PUSH2 0x1C8F JUMP JUMPDEST SWAP1 POP SWAP2 SWAP1 POP JUMP JUMPDEST PUSH2 0x1CBB DUP2 PUSH2 0x1CA1 JUMP JUMPDEST DUP3 MSTORE POP POP JUMP JUMPDEST PUSH0 PUSH1 0xE0 DUP3 ADD SWAP1 POP PUSH2 0x1CD4 PUSH0 DUP4 ADD DUP11 PUSH2 0x18D7 JUMP JUMPDEST PUSH2 0x1CE1 PUSH1 0x20 DUP4 ADD DUP10 PUSH2 0x18D7 JUMP JUMPDEST PUSH2 0x1CEE PUSH1 0x40 DUP4 ADD DUP9 PUSH2 0x18EF JUMP JUMPDEST PUSH2 0x1CFB PUSH1 0x60 DUP4 ADD DUP8 PUSH2 0x1AFE JUMP JUMPDEST PUSH2 0x1D08 PUSH1 0x80 DUP4 ADD DUP7 PUSH2 0x18D7 JUMP JUMPDEST PUSH2 0x1D15 PUSH1 0xA0 DUP4 ADD DUP6 PUSH2 0x18D7 JUMP JUMPDEST PUSH2 0x1D22 PUSH1 0xC0 DUP4 ADD DUP5 PUSH2 0x1CB2 JUMP JUMPDEST SWAP9 SWAP8 POP POP POP POP POP POP POP POP JUMP JUMPDEST PUSH0 PUSH0 PUSH1 0x40 DUP4 DUP6 SUB SLT ISZERO PUSH2 0x1D44 JUMPI PUSH2 0x1D43 PUSH2 0x17C4 JUMP JUMPDEST JUMPDEST PUSH0 PUSH2 0x1D51 DUP6 DUP3 DUP7 ADD PUSH2 0x1898 JUMP JUMPDEST SWAP3 POP POP PUSH1 0x20 PUSH2 0x1D62 DUP6 DUP3 DUP7 ADD PUSH2 0x1898 JUMP JUMPDEST SWAP2 POP POP SWAP3 POP SWAP3 SWAP1 POP JUMP JUMPDEST PUSH0 PUSH1 0x20 DUP3 DUP5 SUB SLT ISZERO PUSH2 0x1D81 JUMPI PUSH2 0x1D80 PUSH2 0x17C4 JUMP JUMPDEST JUMPDEST PUSH0 DUP3 ADD CALLDATALOAD PUSH8 0xFFFFFFFFFFFFFFFF DUP2 GT ISZERO PUSH2 0x1D9E JUMPI PUSH2 0x1D9D PUSH2 0x17C8 JUMP JUMPDEST JUMPDEST PUSH2 0x1DAA DUP5 DUP3 DUP6 ADD PUSH2 0x1A50 JUMP JUMPDEST SWAP2 POP POP SWAP3 SWAP2 POP POP JUMP JUMPDEST PUSH0 PUSH1 0xC0 DUP3 ADD SWAP1 POP PUSH2 0x1DC6 PUSH0 DUP4 ADD DUP10 PUSH2 0x18D7 JUMP JUMPDEST PUSH2 0x1DD3 PUSH1 0x20 DUP4 ADD DUP9 PUSH2 0x18EF JUMP JUMPDEST PUSH2 0x1DE0 PUSH1 0x40 DUP4 ADD DUP8 PUSH2 0x1AFE JUMP JUMPDEST PUSH2 0x1DED PUSH1 0x60 DUP4 ADD DUP7 PUSH2 0x18D7 JUMP JUMPDEST PUSH2 0x1DFA PUSH1 0x80 DUP4 ADD DUP6 PUSH2 0x18D7 JUMP JUMPDEST PUSH2 0x1E07 PUSH1 0xA0 DUP4 ADD DUP5 PUSH2 0x1CB2 JUMP JUMPDEST SWAP8 SWAP7 POP POP POP POP POP POP POP JUMP JUMPDEST PUSH0 DUP3 DUP3 MSTORE PUSH1 0x20 DUP3 ADD SWAP1 POP SWAP3 SWAP2 POP POP JUMP JUMPDEST PUSH32 0x5573657220696E616374697665206F72206E6F7420666F756E64000000000000 PUSH0 DUP3 ADD MSTORE POP JUMP JUMPDEST PUSH0 PUSH2 0x1E56 PUSH1 0x1A DUP4 PUSH2 0x1E12 JUMP JUMPDEST SWAP2 POP PUSH2 0x1E61 DUP3 PUSH2 0x1E22 JUMP JUMPDEST PUSH1 0x20 DUP3 ADD SWAP1 POP SWAP2 SWAP1 POP JUMP JUMPDEST PUSH0 PUSH1 0x20 DUP3 ADD SWAP1 POP DUP2 DUP2 SUB PUSH0 DUP4 ADD MSTORE PUSH2 0x1E83 DUP2 PUSH2 0x1E4A JUMP JUMPDEST SWAP1 POP SWAP2 SWAP1 POP JUMP JUMPDEST PUSH32 0x50726F66696C6520697320707269766174650000000000000000000000000000 PUSH0 DUP3 ADD MSTORE POP JUMP JUMPDEST PUSH0 PUSH2 0x1EBE PUSH1 0x12 DUP4 PUSH2 0x1E12 JUMP JUMPDEST SWAP2 POP PUSH2 0x1EC9 DUP3 PUSH2 0x1E8A JUMP JUMPDEST PUSH1 0x20 DUP3 ADD SWAP1 POP SWAP2 SWAP1 POP JUMP JUMPDEST PUSH0 PUSH1 0x20 DUP3 ADD SWAP1 POP DUP2 DUP2 SUB PUSH0 DUP4 ADD MSTORE PUSH2 0x1EEB DUP2 PUSH2 0x1EB2 JUMP JUMPDEST SWAP1 POP SWAP2 SWAP1 POP JUMP JUMPDEST PUSH32 0x55736572206E6F742072656769737465726564206F7220696E61637469766500 PUSH0 DUP3 ADD MSTORE POP JUMP JUMPDEST PUSH0 PUSH2 0x1F26 PUSH1 0x1F DUP4 PUSH2 0x1E12 JUMP JUMPDEST SWAP2 POP PUSH2 0x1F31 DUP3 PUSH2 0x1EF2 JUMP JUMPDEST PUSH1 0x20 DUP3 ADD SWAP1 POP SWAP2 SWAP1 POP JUMP JUMPDEST PUSH0 PUSH1 0x20 DUP3 ADD SWAP1 POP DUP2 DUP2 SUB PUSH0 DUP4 ADD MSTORE PUSH2 0x1F53 DUP2 PUSH2 0x1F1A JUMP JUMPDEST SWAP1 POP SWAP2 SWAP1 POP JUMP JUMPDEST PUSH32 0x50726F66696C6520616C7265616479207075626C696300000000000000000000 PUSH0 DUP3 ADD MSTORE POP JUMP JUMPDEST PUSH0 PUSH2 0x1F8E PUSH1 0x16 DUP4 PUSH2 0x1E12 JUMP JUMPDEST SWAP2 POP PUSH2 0x1F99 DUP3 PUSH2 0x1F5A JUMP JUMPDEST PUSH1 0x20 DUP3 ADD SWAP1 POP SWAP2 SWAP1 POP JUMP JUMPDEST PUSH0 PUSH1 0x20 DUP3 ADD SWAP1 POP DUP2 DUP2 SUB PUSH0 DUP4 ADD MSTORE PUSH2 0x1FBB DUP2 PUSH2 0x1F82 JUMP JUMPDEST SWAP1 POP SWAP2 SWAP1 POP JUMP JUMPDEST PUSH0 PUSH1 0x60 DUP3 ADD SWAP1 POP PUSH2 0x1FD5 PUSH0 DUP4 ADD DUP7 PUSH2 0x1CB2 JUMP JUMPDEST PUSH2 0x1FE2 PUSH1 0x20 DUP4 ADD DUP6 PUSH2 0x1CB2 JUMP JUMPDEST PUSH2 0x1FEF PUSH1 0x40 DUP4 ADD DUP5 PUSH2 0x18EF JUMP JUMPDEST SWAP5 SWAP4 POP POP POP POP JUMP JUMPDEST PUSH32 0x557365726E616D652063616E6E6F7420626520656D7074790000000000000000 PUSH0 DUP3 ADD MSTORE POP JUMP JUMPDEST PUSH0 PUSH2 0x202B PUSH1 0x18 DUP4 PUSH2 0x1E12 JUMP JUMPDEST SWAP2 POP PUSH2 0x2036 DUP3 PUSH2 0x1FF7 JUMP JUMPDEST PUSH1 0x20 DUP3 ADD SWAP1 POP SWAP2 SWAP1 POP JUMP JUMPDEST PUSH0 PUSH1 0x20 DUP3 ADD SWAP1 POP DUP2 DUP2 SUB PUSH0 DUP4 ADD MSTORE PUSH2 0x2058 DUP2 PUSH2 0x201F JUMP JUMPDEST SWAP1 POP SWAP2 SWAP1 POP JUMP JUMPDEST PUSH32 0x50617373776F72642063616E6E6F7420626520656D7074790000000000000000 PUSH0 DUP3 ADD MSTORE POP JUMP JUMPDEST PUSH0 PUSH2 0x2093 PUSH1 0x18 DUP4 PUSH2 0x1E12 JUMP JUMPDEST SWAP2 POP PUSH2 0x209E DUP3 PUSH2 0x205F JUMP JUMPDEST PUSH1 0x20 DUP3 ADD SWAP1 POP SWAP2 SWAP1 POP JUMP JUMPDEST PUSH0 PUSH1 0x20 DUP3 ADD SWAP1 POP DUP2 DUP2 SUB PUSH0 DUP4 ADD MSTORE PUSH2 0x20C0 DUP2 PUSH2 0x2087 JUMP JUMPDEST SWAP1 POP SWAP2 SWAP1 POP JUMP JUMPDEST PUSH32 0x5573657220616C72656164792072656769737465726564000000000000000000 PUSH0 DUP3 ADD MSTORE POP JUMP JUMPDEST PUSH0 PUSH2 0x20FB PUSH1 0x17 DUP4 PUSH2 0x1E12 JUMP JUMPDEST SWAP2 POP PUSH2 0x2106 DUP3 PUSH2 0x20C7 JUMP JUMPDEST PUSH1 0x20 DUP3 ADD SWAP1 POP SWAP2 SWAP1 POP JUMP JUMPDEST PUSH0 PUSH1 0x20 DUP3 ADD SWAP1 POP DUP2 DUP2 SUB PUSH0 DUP4 ADD MSTORE PUSH2 0x2128 DUP2 PUSH2 0x20EF JUMP JUMPDEST SWAP1 POP SWAP2 SWAP1 POP JUMP JUMPDEST PUSH0 DUP2 MLOAD SWAP1 POP SWAP2 SWAP1 POP JUMP JUMPDEST PUSH0 DUP2 SWAP1 POP SWAP3 SWAP2 POP POP JUMP JUMPDEST DUP3 DUP2 DUP4 MCOPY PUSH0 DUP4 DUP4 ADD MSTORE POP POP POP JUMP JUMPDEST PUSH0 PUSH2 0x215B DUP3 PUSH2 0x212F JUMP JUMPDEST PUSH2 0x2165 DUP2 DUP6 PUSH2 0x2139 JUMP JUMPDEST SWAP4 POP PUSH2 0x2175 DUP2 DUP6 PUSH1 0x20 DUP7 ADD PUSH2 0x2143 JUMP JUMPDEST DUP1 DUP5 ADD SWAP2 POP POP SWAP3 SWAP2 POP POP JUMP JUMPDEST PUSH0 PUSH2 0x218C DUP3 DUP5 PUSH2 0x2151 JUMP JUMPDEST SWAP2 POP DUP2 SWAP1 POP SWAP3 SWAP2 POP POP JUMP JUMPDEST PUSH32 0x557365726E616D6520616C72656164792074616B656E00000000000000000000 PUSH0 DUP3 ADD MSTORE POP JUMP JUMPDEST PUSH0 PUSH2 0x21CB PUSH1 0x16 DUP4 PUSH2 0x1E12 JUMP JUMPDEST SWAP2 POP PUSH2 0x21D6 DUP3 PUSH2 0x2197 JUMP JUMPDEST PUSH1 0x20 DUP3 ADD SWAP1 POP SWAP2 SWAP1 POP JUMP JUMPDEST PUSH0 PUSH1 0x20 DUP3 ADD SWAP1 POP DUP2 DUP2 SUB PUSH0 DUP4 ADD MSTORE PUSH2 0x21F8 DUP2 PUSH2 0x21BF JUMP JUMPDEST SWAP1 POP SWAP2 SWAP1 POP JUMP JUMPDEST PUSH32 0x4E487B7100000000000000000000000000000000000000000000000000000000 PUSH0 MSTORE PUSH1 0x11 PUSH1 0x4 MSTORE PUSH1 0x24 PUSH0 REVERT JUMPDEST PUSH0 PUSH2 0x2236 DUP3 PUSH2 0x18E6 JUMP JUMPDEST SWAP2 POP PUSH2 0x2241 DUP4 PUSH2 0x18E6 JUMP JUMPDEST SWAP3 POP DUP3 DUP3 ADD SWAP1 POP DUP1 DUP3 GT ISZERO PUSH2 0x2259 JUMPI PUSH2 0x2258 PUSH2 0x21FF JUMP JUMPDEST JUMPDEST SWAP3 SWAP2 POP POP JUMP JUMPDEST PUSH32 0x50726F66696C6520616C72656164792070726976617465000000000000000000 PUSH0 DUP3 ADD MSTORE POP JUMP JUMPDEST PUSH0 PUSH2 0x2293 PUSH1 0x17 DUP4 PUSH2 0x1E12 JUMP JUMPDEST SWAP2 POP PUSH2 0x229E DUP3 PUSH2 0x225F JUMP JUMPDEST PUSH1 0x20 DUP3 ADD SWAP1 POP SWAP2 SWAP1 POP JUMP JUMPDEST PUSH0 PUSH1 0x20 DUP3 ADD SWAP1 POP DUP2 DUP2 SUB PUSH0 DUP4 ADD MSTORE PUSH2 0x22C0 DUP2 PUSH2 0x2287 JUMP JUMPDEST SWAP1 POP SWAP2 SWAP1 POP JUMP JUMPDEST PUSH0 PUSH1 0x60 DUP3 ADD SWAP1 POP PUSH2 0x22DA PUSH0 DUP4 ADD DUP7 PUSH2 0x18D7 JUMP JUMPDEST PUSH2 0x22E7 PUSH1 0x20 DUP4 ADD DUP6 PUSH2 0x18D7 JUMP JUMPDEST PUSH2 0x22F4 PUSH1 0x40 DUP4 ADD DUP5 PUSH2 0x18EF JUMP JUMPDEST SWAP5 SWAP4 POP POP POP POP JUMP JUMPDEST PUSH32 0x4E65772070617373776F72642063616E6E6F7420626520656D70747900000000 PUSH0 DUP3 ADD MSTORE POP JUMP JUMPDEST PUSH0 PUSH2 0x2330 PUSH1 0x1C DUP4 PUSH2 0x1E12 JUMP JUMPDEST SWAP2 POP PUSH2 0x233B DUP3 PUSH2 0x22FC JUMP JUMPDEST PUSH1 0x20 DUP3 ADD SWAP1 POP SWAP2 SWAP1 POP JUMP JUMPDEST PUSH0 PUSH1 0x20 DUP3 ADD SWAP1 POP DUP2 DUP2 SUB PUSH0 DUP4 ADD MSTORE PUSH2 0x235D DUP2 PUSH2 0x2324 JUMP JUMPDEST SWAP1 POP SWAP2 SWAP1 POP JUMP JUMPDEST PUSH32 0x4F6C642070617373776F726420696E636F727265637400000000000000000000 PUSH0 DUP3 ADD MSTORE POP JUMP JUMPDEST PUSH0 PUSH2 0x2398 PUSH1 0x16 DUP4 PUSH2 0x1E12 JUMP JUMPDEST SWAP2 POP PUSH2 0x23A3 DUP3 PUSH2 0x2364 JUMP JUMPDEST PUSH1 0x20 DUP3 ADD SWAP1 POP SWAP2 SWAP1 POP JUMP JUMPDEST PUSH0 PUSH1 0x20 DUP3 ADD SWAP1 POP DUP2 DUP2 SUB PUSH0 DUP4 ADD MSTORE PUSH2 0x23C5 DUP2 PUSH2 0x238C JUMP JUMPDEST SWAP1 POP SWAP2 SWAP1 POP JUMP JUMPDEST PUSH0 PUSH2 0x23D6 DUP3 PUSH2 0x18E6 JUMP JUMPDEST SWAP2 POP PUSH2 0x23E1 DUP4 PUSH2 0x18E6 JUMP JUMPDEST SWAP3 POP DUP3 DUP3 SUB SWAP1 POP DUP2 DUP2 GT ISZERO PUSH2 0x23F9 JUMPI PUSH2 0x23F8 PUSH2 0x21FF JUMP JUMPDEST JUMPDEST SWAP3 SWAP2 POP POP JUMP INVALID LOG2 PUSH5 0x6970667358 0x22 SLT KECCAK256 0xD3 0xB7 EXTSTATICCALL DUP4 EXTCALL BLOBHASH KECCAK256 BLOBHASH PREVRANDAO 0xED 0xB6 0x1F SIGNEXTEND PUSH10 0x76FC6A0E68CDEEB01E10 0xB3 0x25 0xDF 0x2C 0x2F 0xD5 0xBE DUP5 PUSH5 0x736F6C6343 STOP ADDMOD 0x1E STOP CALLER "
				},
				"gasEstimates": {
					"creation": {
						"codeDepositCost": "1853800",
						"executionCost": "1953",
						"totalCost": "1855753"
					},
					"external": {
						"checkUserDataAccess(address,address)": "infinite",
						"deactivateAccount()": "infinite",
						"getActiveUsers()": "2498",
						"getMyProfileInfo()": "infinite",
						"getPublicUserProfile(address)": "infinite",
						"getTotalUsers()": "2455",
						"getUserInfo()": "9323",
						"isUserActive(address)": "2920",
						"isUsernameAvailable(string)": "infinite",
						"login(string,string)": "infinite",
						"makeProfilePrivate()": "infinite",
						"makeProfilePublic()": "infinite",
						"register(string,string)": "infinite",
						"registerWithProfile(string,string,bytes32,bytes32)": "infinite",
						"updatePassword(string,string)": "infinite",
						"updateUserProfile(bytes32,bytes32)": "infinite",
						"usernameToAddress(bytes32)": "2851",
						"users(address)": "infinite"
					}
				},
				"methodIdentifiers": {
					"checkUserDataAccess(address,address)": "a876f952",
					"deactivateAccount()": "e040e9a0",
					"getActiveUsers()": "f5593607",
					"getMyProfileInfo()": "fab208ca",
					"getPublicUserProfile(address)": "3265b453",
					"getTotalUsers()": "9be572f6",
					"getUserInfo()": "5d8d1585",
					"isUserActive(address)": "9ee20b15",
					"isUsernameAvailable(string)": "f69c6dec",
					"login(string,string)": "58467dbc",
					"makeProfilePrivate()": "523435c8",
					"makeProfilePublic()": "3df60461",
					"register(string,string)": "3ffbd47f",
					"registerWithProfile(string,string,bytes32,bytes32)": "65171072",
					"updatePassword(string,string)": "cdfbb351",
					"updateUserProfile(bytes32,bytes32)": "7e9a1f2c",
					"usernameToAddress(bytes32)": "2fdf15d5",
					"users(address)": "a87430ba"
				}
			},
			"storageLayout": {
				"storage": [
					{
						"astId": 26,
						"contract": "UserAuth.sol:UserAuth",
						"label": "users",
						"offset": 0,
						"slot": "0",
						"type": "t_mapping(t_address,t_struct(User)21_storage)"
					},
					{
						"astId": 30,
						"contract": "UserAuth.sol:UserAuth",
						"label": "usernameToAddress",
						"offset": 0,
						"slot": "1",
						"type": "t_mapping(t_bytes32,t_address)"
					},
					{
						"astId": 32,
						"contract": "UserAuth.sol:UserAuth",
						"label": "totalUsers",
						"offset": 0,
						"slot": "2",
						"type": "t_uint256"
					},
					{
						"astId": 34,
						"contract": "UserAuth.sol:UserAuth",
						"label": "activeUsers",
						"offset": 0,
						"slot": "3",
						"type": "t_uint256"
					}
				],
				"types": {
					"t_address": {
						"encoding": "inplace",
						"label": "address",
						"numberOfBytes": "20"
					},
					"t_bool": {
						"encoding": "inplace",
						"label": "bool",
						"numberOfBytes": "1"
					},
					"t_bytes32": {
						"encoding": "inplace",
						"label": "bytes32",
						"numberOfBytes": "32"
					},
					"t_enum(ProfileStatus)5": {
						"encoding": "inplace",
						"label": "enum UserAuth.ProfileStatus",
						"numberOfBytes": "1"
					},
					"t_mapping(t_address,t_struct(User)21_storage)": {
						"encoding": "mapping",
						"key": "t_address",
						"label": "mapping(address => struct UserAuth.User)",
						"numberOfBytes": "32",
						"value": "t_struct(User)21_storage"
					},
					"t_mapping(t_bytes32,t_address)": {
						"encoding": "mapping",
						"key": "t_bytes32",
						"label": "mapping(bytes32 => address)",
						"numberOfBytes": "32",
						"value": "t_address"
					},
					"t_struct(User)21_storage": {
						"encoding": "inplace",
						"label": "struct UserAuth.User",
						"members": [
							{
								"astId": 7,
								"contract": "UserAuth.sol:UserAuth",
								"label": "usernameHash",
								"offset": 0,
								"slot": "0",
								"type": "t_bytes32"
							},
							{
								"astId": 9,
								"contract": "UserAuth.sol:UserAuth",
								"label": "passwordHash",
								"offset": 0,
								"slot": "1",
								"type": "t_bytes32"
							},
							{
								"astId": 11,
								"contract": "UserAuth.sol:UserAuth",
								"label": "createdAt",
								"offset": 0,
								"slot": "2",
								"type": "t_uint256"
							},
							{
								"astId": 13,
								"contract": "UserAuth.sol:UserAuth",
								"label": "isActive",
								"offset": 0,
								"slot": "3",
								"type": "t_bool"
							},
							{
								"astId": 15,
								"contract": "UserAuth.sol:UserAuth",
								"label": "profileDataHash",
								"offset": 0,
								"slot": "4",
								"type": "t_bytes32"
							},
							{
								"astId": 17,
								"contract": "UserAuth.sol:UserAuth",
								"label": "publicKeyHash",
								"offset": 0,
								"slot": "5",
								"type": "t_bytes32"
							},
							{
								"astId": 20,
								"contract": "UserAuth.sol:UserAuth",
								"label": "profileStatus",
								"offset": 0,
								"slot": "6",
								"type": "t_enum(ProfileStatus)5"
							}
						],
						"numberOfBytes": "224"
					},
					"t_uint256": {
						"encoding": "inplace",
						"label": "uint256",
						"numberOfBytes": "32"
					}
				}
			},
			"userdoc": {
				"kind": "user",
				"methods": {},
				"version": 1
			}
		}
	}
}