{
	"data": {
		"bytecode": {
			"linkReferences": {},
			"object": "6080604052348015600e575f5ffd5b506132168061001c5f395ff3fe608060405234801561000f575f5ffd5b5060043610610114575f3560e01c80637cc1f867116100a0578063d63920571161006f578063d63920571461031d578063d7ed69c114610350578063e189c8b81461036c578063e85d28b914610388578063e9021744146103b857610114565b80637cc1f867146102aa57806386911cde146102c957806389c5d346146102e5578063c0e011081461030157610114565b80635b225526116100e75780635b225526146101c8578063647f94a5146101fe57806366792d001461022e578063731251631461025e5780637461f24a1461027a57610114565b806306848dcd146101185780630a519fe114610134578063380b06c01461016857806346e036cf14610198575b5f5ffd5b610132600480360381019061012d9190611edc565b6103ee565b005b61014e60048036038101906101499190611edc565b610601565b60405161015f959493929190611fdd565b60405180910390f35b610182600480360381019061017d9190612161565b6108fb565b60405161018f91906121cd565b60405180910390f35b6101b260048036038101906101ad9190611edc565b610bbf565b6040516101bf9190612259565b60405180910390f35b6101e260048036038101906101dd919061229c565b610c7d565b6040516101f597969594939291906122f4565b60405180910390f35b61021860048036038101906102139190612361565b610d1e565b604051610225919061238c565b60405180910390f35b61024860048036038101906102439190612361565b610d67565b604051610255919061245c565b60405180910390f35b6102786004803603810190610273919061229c565b610dfa565b005b610294600480360381019061028f919061229c565b610fd2565b6040516102a1919061247c565b60405180910390f35b6102b2611124565b6040516102c0929190612495565b60405180910390f35b6102e360048036038101906102de9190611edc565b611130565b005b6102ff60048036038101906102fa9190612510565b61134c565b005b61031b60048036038101906103169190611edc565b611790565b005b6103376004803603810190610332919061229c565b6119a5565b6040516103479493929190612587565b60405180910390f35b61036a600480360381019061036591906125ca565b611a52565b005b610386600480360381019061038191906126de565b611ca8565b005b6103a2600480360381019061039d9190612771565b611d72565b6040516103af91906121cd565b60405180910390f35b6103d260048036038101906103cd9190611edc565b611d9d565b6040516103e597969594939291906127af565b60405180910390f35b803373ffffffffffffffffffffffffffffffffffffffff165f5f8381526020019081526020015f206003015f9054906101000a900473ffffffffffffffffffffffffffffffffffffffff1673ffffffffffffffffffffffffffffffffffffffff161461048f576040517f08c379a00000000000000000000000000000000000000000000000000000000081526004016104869061286d565b60405180910390fd5b5f5f5f8481526020019081526020015f2090508060030160149054906101000a900460ff166104f3576040517f08c379a00000000000000000000000000000000000000000000000000000000081526004016104ea906128d5565b60405180910390fd5b600180811115610506576105056121e6565b5b816005015f9054906101000a900460ff166001811115610529576105286121e6565b5b14610569576040517f08c379a00000000000000000000000000000000000000000000000000000000081526004016105609061293d565b60405180910390fd5b5f816005015f9054906101000a900460ff1690505f826005015f6101000a81548160ff021916908360018111156105a3576105a26121e6565b5b0217905550833373ffffffffffffffffffffffffffffffffffffffff167fd950d63959e5077ffc72c153e9974d7fb3c7b072a0399e683cc9d78f78ec289a835f426040516105f39392919061295b565b60405180910390a350505050565b5f5f5f5f6060855f5f5f8381526020019081526020015f2090503373ffffffffffffffffffffffffffffffffffffffff16816003015f9054906101000a900473ffffffffffffffffffffffffffffffffffffffff1673ffffffffffffffffffffffffffffffffffffffff1614806106c55750600180811115610686576106856121e6565b5b816005015f9054906101000a900460ff1660018111156106a9576106a86121e6565b5b1480156106c457508060030160149054906101000a900460ff165b5b80610782575060015f3373ffffffffffffffffffffffffffffffffffffffff1673ffffffffffffffffffffffffffffffffffffffff1681526020019081526020015f205f8381526020019081526020015f206004015f9054906101000a900460ff168015610781575060015f3373ffffffffffffffffffffffffffffffffffffffff1673ffffffffffffffffffffffffffffffffffffffff1681526020019081526020015f205f8381526020019081526020015f206003015442105b5b6107c1576040517f08c379a00000000000000000000000000000000000000000000000000000000081526004016107b8906129da565b60405180910390fd5b5f5f5f8a81526020019081526020015f2090508060030160149054906101000a900460ff16610825576040517f08c379a000000000000000000000000000000000000000000000000000000000815260040161081c906128d5565b60405180910390fd5b805f015481600101548260020154836003015f9054906101000a900473ffffffffffffffffffffffffffffffffffffffff168460040180805461086790612a25565b80601f016020809104026020016040519081016040528092919081815260200182805461089390612a25565b80156108de5780601f106108b5576101008083540402835291602001916108de565b820191905f5260205f20905b8154815290600101906020018083116108c157829003601f168201915b505050505090509750975097509750975050505091939590929450565b5f5f33854260405160200161091293929190612ada565b6040516020818303038152906040528051906020012090505f73ffffffffffffffffffffffffffffffffffffffff165f5f8381526020019081526020015f206003015f9054906101000a900473ffffffffffffffffffffffffffffffffffffffff1673ffffffffffffffffffffffffffffffffffffffff16146109ca576040517f08c379a00000000000000000000000000000000000000000000000000000000081526004016109c190612b60565b60405180910390fd5b6040518060e001604052808681526020018581526020014281526020013373ffffffffffffffffffffffffffffffffffffffff1681526020016001151581526020018481526020015f6001811115610a2557610a246121e6565b5b8152505f5f8381526020019081526020015f205f820151815f015560208201518160010155604082015181600201556060820151816003015f6101000a81548173ffffffffffffffffffffffffffffffffffffffff021916908373ffffffffffffffffffffffffffffffffffffffff16021790555060808201518160030160146101000a81548160ff02191690831515021790555060a0820151816004019081610acf9190612d1e565b5060c0820151816005015f6101000a81548160ff02191690836001811115610afa57610af96121e6565b5b021790555090505060025f3373ffffffffffffffffffffffffffffffffffffffff1673ffffffffffffffffffffffffffffffffffffffff1681526020019081526020015f2081908060018154018082558091505060019003905f5260205f20015f9091909190915055803373ffffffffffffffffffffffffffffffffffffffff167f0e814d30ec22a2f2c39021b7a479700a1d9456c6b6baacbe6d8129b3106c669a8542604051610bac929190612ded565b60405180910390a3809150509392505050565b5f5f5f5f8481526020019081526020015f2090505f73ffffffffffffffffffffffffffffffffffffffff16816003015f9054906101000a900473ffffffffffffffffffffffffffffffffffffffff1673ffffffffffffffffffffffffffffffffffffffff1603610c64576040517f08c379a0000000000000000000000000000000000000000000000000000000008152600401610c5b90612e65565b60405180910390fd5b806005015f9054906101000a900460ff16915050919050565b6001602052815f5260405f20602052805f5260405f205f9150915050805f015f9054906101000a900473ffffffffffffffffffffffffffffffffffffffff1690806001015490806002015490806003015490806004015f9054906101000a900460ff16908060040160019054906101000a900460ff16908060040160029054906101000a900473ffffffffffffffffffffffffffffffffffffffff16905087565b5f60025f8373ffffffffffffffffffffffffffffffffffffffff1673ffffffffffffffffffffffffffffffffffffffff1681526020019081526020015f20805490509050919050565b606060025f8373ffffffffffffffffffffffffffffffffffffffff1673ffffffffffffffffffffffffffffffffffffffff1681526020019081526020015f20805480602002602001604051908101604052809291908181526020018280548015610dee57602002820191905f5260205f20905b815481526020019060010190808311610dda575b50505050509050919050565b803373ffffffffffffffffffffffffffffffffffffffff165f5f8381526020019081526020015f206003015f9054906101000a900473ffffffffffffffffffffffffffffffffffffffff1673ffffffffffffffffffffffffffffffffffffffff1614610e9b576040517f08c379a0000000000000000000000000000000000000000000000000000000008152600401610e929061286d565b60405180910390fd5b60015f8473ffffffffffffffffffffffffffffffffffffffff1673ffffffffffffffffffffffffffffffffffffffff1681526020019081526020015f205f8381526020019081526020015f205f5f82015f6101000a81549073ffffffffffffffffffffffffffffffffffffffff0219169055600182015f9055600282015f9055600382015f9055600482015f6101000a81549060ff02191690556004820160016101000a81549060ff02191690556004820160026101000a81549073ffffffffffffffffffffffffffffffffffffffff02191690555050818373ffffffffffffffffffffffffffffffffffffffff163373ffffffffffffffffffffffffffffffffffffffff167fb28e9e14a2fbae903397ac018a71f930ae415bcaf8fd57a5c4ea212e4de9daa260405160405180910390a4505050565b5f5f5f5f8481526020019081526020015f2090508060030160149054906101000a900460ff16611005575f91505061111e565b8373ffffffffffffffffffffffffffffffffffffffff16816003015f9054906101000a900473ffffffffffffffffffffffffffffffffffffffff1673ffffffffffffffffffffffffffffffffffffffff160361106557600191505061111e565b600180811115611078576110776121e6565b5b816005015f9054906101000a900460ff16600181111561109b5761109a6121e6565b5b036110aa57600191505061111e565b5f60015f8673ffffffffffffffffffffffffffffffffffffffff1673ffffffffffffffffffffffffffffffffffffffff1681526020019081526020015f205f8581526020019081526020015f209050806004015f9054906101000a900460ff1680156111195750806003015442105b925050505b92915050565b5f5f5f5f915091509091565b803373ffffffffffffffffffffffffffffffffffffffff165f5f8381526020019081526020015f206003015f9054906101000a900473ffffffffffffffffffffffffffffffffffffffff1673ffffffffffffffffffffffffffffffffffffffff16146111d1576040517f08c379a00000000000000000000000000000000000000000000000000000000081526004016111c89061286d565b60405180910390fd5b5f5f5f8481526020019081526020015f2090508060030160149054906101000a900460ff16611235576040517f08c379a000000000000000000000000000000000000000000000000000000000815260040161122c90612ecd565b60405180910390fd5b5f8160030160146101000a81548160ff0219169083151502179055505f60025f3373ffffffffffffffffffffffffffffffffffffffff1673ffffffffffffffffffffffffffffffffffffffff1681526020019081526020015f2090505f5f90505b818054905081101561134557848282815481106112b6576112b5612eeb565b5b905f5260205f200154036113385781600183805490506112d69190612f45565b815481106112e7576112e6612eeb565b5b905f5260205f20015482828154811061130357611302612eeb565b5b905f5260205f200181905550818054806113205761131f612f78565b5b600190038181905f5260205f20015f90559055611345565b8080600101915050611296565b5050505050565b833373ffffffffffffffffffffffffffffffffffffffff165f5f8381526020019081526020015f206003015f9054906101000a900473ffffffffffffffffffffffffffffffffffffffff1673ffffffffffffffffffffffffffffffffffffffff16146113ed576040517f08c379a00000000000000000000000000000000000000000000000000000000081526004016113e49061286d565b60405180910390fd5b5f5f5f8781526020019081526020015f2090505f73ffffffffffffffffffffffffffffffffffffffff168773ffffffffffffffffffffffffffffffffffffffff160361146e576040517f08c379a000000000000000000000000000000000000000000000000000000000815260040161146590612fef565b60405180910390fd5b5f83116114b0576040517f08c379a00000000000000000000000000000000000000000000000000000000081526004016114a790613057565b60405180910390fd5b8060030160149054906101000a900460ff16611501576040517f08c379a00000000000000000000000000000000000000000000000000000000081526004016114f8906128d5565b60405180910390fd5b5f6001811115611514576115136121e6565b5b816005015f9054906101000a900460ff166001811115611537576115366121e6565b5b14611577576040517f08c379a000000000000000000000000000000000000000000000000000000000815260040161156e906130bf565b60405180910390fd5b5f834261158491906130dd565b90506040518060e001604052808973ffffffffffffffffffffffffffffffffffffffff168152602001888152602001428152602001828152602001871515815260200186151581526020013373ffffffffffffffffffffffffffffffffffffffff1681525060015f8a73ffffffffffffffffffffffffffffffffffffffff1673ffffffffffffffffffffffffffffffffffffffff1681526020019081526020015f205f8981526020019081526020015f205f820151815f015f6101000a81548173ffffffffffffffffffffffffffffffffffffffff021916908373ffffffffffffffffffffffffffffffffffffffff1602179055506020820151816001015560408201518160020155606082015181600301556080820151816004015f6101000a81548160ff02191690831515021790555060a08201518160040160016101000a81548160ff02191690831515021790555060c08201518160040160026101000a81548173ffffffffffffffffffffffffffffffffffffffff021916908373ffffffffffffffffffffffffffffffffffffffff160217905550905050868873ffffffffffffffffffffffffffffffffffffffff163373ffffffffffffffffffffffffffffffffffffffff167f34d1ac3ec20b10ecfbb0bf62b7538be273454c43dd4090afd9882b6b32d101428460405161177e919061238c565b60405180910390a45050505050505050565b803373ffffffffffffffffffffffffffffffffffffffff165f5f8381526020019081526020015f206003015f9054906101000a900473ffffffffffffffffffffffffffffffffffffffff1673ffffffffffffffffffffffffffffffffffffffff1614611831576040517f08c379a00000000000000000000000000000000000000000000000000000000081526004016118289061286d565b60405180910390fd5b5f5f5f8481526020019081526020015f2090508060030160149054906101000a900460ff16611895576040517f08c379a000000000000000000000000000000000000000000000000000000000815260040161188c906128d5565b60405180910390fd5b5f60018111156118a8576118a76121e6565b5b816005015f9054906101000a900460ff1660018111156118cb576118ca6121e6565b5b1461190b576040517f08c379a00000000000000000000000000000000000000000000000000000000081526004016119029061315a565b60405180910390fd5b5f816005015f9054906101000a900460ff1690506001826005015f6101000a81548160ff02191690836001811115611946576119456121e6565b5b0217905550833373ffffffffffffffffffffffffffffffffffffffff167fd950d63959e5077ffc72c153e9974d7fb3c7b072a0399e683cc9d78f78ec289a836001426040516119979392919061295b565b60405180910390a350505050565b5f5f5f5f5f60015f8873ffffffffffffffffffffffffffffffffffffffff1673ffffffffffffffffffffffffffffffffffffffff1681526020019081526020015f205f8781526020019081526020015f20905080600301544210611a15575f5f5f5f945094509450945050611a49565b6001816004015f9054906101000a900460ff168260040160019054906101000a900460ff1683600301549450945094509450505b92959194509250565b823373ffffffffffffffffffffffffffffffffffffffff165f5f8381526020019081526020015f206003015f9054906101000a900473ffffffffffffffffffffffffffffffffffffffff1673ffffffffffffffffffffffffffffffffffffffff161480611b72575060015f3373ffffffffffffffffffffffffffffffffffffffff1673ffffffffffffffffffffffffffffffffffffffff1681526020019081526020015f205f8281526020019081526020015f2060040160019054906101000a900460ff168015611b71575060015f3373ffffffffffffffffffffffffffffffffffffffff1673ffffffffffffffffffffffffffffffffffffffff1681526020019081526020015f205f8281526020019081526020015f206003015442105b5b611bb1576040517f08c379a0000000000000000000000000000000000000000000000000000000008152600401611ba8906131c2565b60405180910390fd5b5f5f5f8681526020019081526020015f2090508060030160149054906101000a900460ff16611c15576040517f08c379a0000000000000000000000000000000000000000000000000000000008152600401611c0c906128d5565b60405180910390fd5b83815f018190555082816001018190555042816002018190555084816003015f9054906101000a900473ffffffffffffffffffffffffffffffffffffffff1673ffffffffffffffffffffffffffffffffffffffff167f13f7afaee69a997e8042a73df952599e66eec6f76faa8fe9ed83d73a7727912742604051611c99919061238c565b60405180910390a35050505050565b5f5f90505b8451811015611d6a573373ffffffffffffffffffffffffffffffffffffffff165f5f878481518110611ce257611ce1612eeb565b5b602002602001015181526020019081526020015f206003015f9054906101000a900473ffffffffffffffffffffffffffffffffffffffff1673ffffffffffffffffffffffffffffffffffffffff1603611d5d57611d5c86868381518110611d4c57611d4b612eeb565b5b602002602001015186868661134c565b5b8080600101915050611cad565b505050505050565b6002602052815f5260405f208181548110611d8b575f80fd5b905f5260205f20015f91509150505481565b5f602052805f5260405f205f91509050805f015490806001015490806002015490806003015f9054906101000a900473ffffffffffffffffffffffffffffffffffffffff16908060030160149054906101000a900460ff1690806004018054611e0590612a25565b80601f0160208091040260200160405190810160405280929190818152602001828054611e3190612a25565b8015611e7c5780601f10611e5357610100808354040283529160200191611e7c565b820191905f5260205f20905b815481529060010190602001808311611e5f57829003601f168201915b505050505090806005015f9054906101000a900460ff16905087565b5f604051905090565b5f5ffd5b5f5ffd5b5f819050919050565b611ebb81611ea9565b8114611ec5575f5ffd5b50565b5f81359050611ed681611eb2565b92915050565b5f60208284031215611ef157611ef0611ea1565b5b5f611efe84828501611ec8565b91505092915050565b611f1081611ea9565b82525050565b5f819050919050565b611f2881611f16565b82525050565b5f73ffffffffffffffffffffffffffffffffffffffff82169050919050565b5f611f5782611f2e565b9050919050565b611f6781611f4d565b82525050565b5f81519050919050565b5f82825260208201905092915050565b8281835e5f83830152505050565b5f601f19601f8301169050919050565b5f611faf82611f6d565b611fb98185611f77565b9350611fc9818560208601611f87565b611fd281611f95565b840191505092915050565b5f60a082019050611ff05f830188611f07565b611ffd6020830187611f07565b61200a6040830186611f1f565b6120176060830185611f5e565b81810360808301526120298184611fa5565b90509695505050505050565b5f5ffd5b5f5ffd5b7f4e487b71000000000000000000000000000000000000000000000000000000005f52604160045260245ffd5b61207382611f95565b810181811067ffffffffffffffff821117156120925761209161203d565b5b80604052505050565b5f6120a4611e98565b90506120b0828261206a565b919050565b5f67ffffffffffffffff8211156120cf576120ce61203d565b5b6120d882611f95565b9050602081019050919050565b828183375f83830152505050565b5f612105612100846120b5565b61209b565b90508281526020810184848401111561212157612120612039565b5b61212c8482856120e5565b509392505050565b5f82601f83011261214857612147612035565b5b81356121588482602086016120f3565b91505092915050565b5f5f5f6060848603121561217857612177611ea1565b5b5f61218586828701611ec8565b935050602061219686828701611ec8565b925050604084013567ffffffffffffffff8111156121b7576121b6611ea5565b5b6121c386828701612134565b9150509250925092565b5f6020820190506121e05f830184611f07565b92915050565b7f4e487b71000000000000000000000000000000000000000000000000000000005f52602160045260245ffd5b60028110612224576122236121e6565b5b50565b5f81905061223482612213565b919050565b5f61224382612227565b9050919050565b61225381612239565b82525050565b5f60208201905061226c5f83018461224a565b92915050565b61227b81611f4d565b8114612285575f5ffd5b50565b5f8135905061229681612272565b92915050565b5f5f604083850312156122b2576122b1611ea1565b5b5f6122bf85828601612288565b92505060206122d085828601611ec8565b9150509250929050565b5f8115159050919050565b6122ee816122da565b82525050565b5f60e0820190506123075f83018a611f5e565b6123146020830189611f07565b6123216040830188611f1f565b61232e6060830187611f1f565b61233b60808301866122e5565b61234860a08301856122e5565b61235560c0830184611f5e565b98975050505050505050565b5f6020828403121561237657612375611ea1565b5b5f61238384828501612288565b91505092915050565b5f60208201905061239f5f830184611f1f565b92915050565b5f81519050919050565b5f82825260208201905092915050565b5f819050602082019050919050565b6123d781611ea9565b82525050565b5f6123e883836123ce565b60208301905092915050565b5f602082019050919050565b5f61240a826123a5565b61241481856123af565b935061241f836123bf565b805f5b8381101561244f57815161243688826123dd565b9750612441836123f4565b925050600181019050612422565b5085935050505092915050565b5f6020820190508181035f8301526124748184612400565b905092915050565b5f60208201905061248f5f8301846122e5565b92915050565b5f6040820190506124a85f830185611f1f565b6124b56020830184611f1f565b9392505050565b6124c5816122da565b81146124cf575f5ffd5b50565b5f813590506124e0816124bc565b92915050565b6124ef81611f16565b81146124f9575f5ffd5b50565b5f8135905061250a816124e6565b92915050565b5f5f5f5f5f60a0868803121561252957612528611ea1565b5b5f61253688828901612288565b955050602061254788828901611ec8565b9450506040612558888289016124d2565b9350506060612569888289016124d2565b925050608061257a888289016124fc565b9150509295509295909350565b5f60808201905061259a5f8301876122e5565b6125a760208301866122e5565b6125b460408301856122e5565b6125c16060830184611f1f565b95945050505050565b5f5f5f606084860312156125e1576125e0611ea1565b5b5f6125ee86828701611ec8565b93505060206125ff86828701611ec8565b925050604061261086828701611ec8565b9150509250925092565b5f67ffffffffffffffff8211156126345761263361203d565b5b602082029050602081019050919050565b5f5ffd5b5f61265b6126568461261a565b61209b565b9050808382526020820190506020840283018581111561267e5761267d612645565b5b835b818110156126a757806126938882611ec8565b845260208401935050602081019050612680565b5050509392505050565b5f82601f8301126126c5576126c4612035565b5b81356126d5848260208601612649565b91505092915050565b5f5f5f5f5f60a086880312156126f7576126f6611ea1565b5b5f61270488828901612288565b955050602086013567ffffffffffffffff81111561272557612724611ea5565b5b612731888289016126b1565b9450506040612742888289016124d2565b9350506060612753888289016124d2565b9250506080612764888289016124fc565b9150509295509295909350565b5f5f6040838503121561278757612786611ea1565b5b5f61279485828601612288565b92505060206127a5858286016124fc565b9150509250929050565b5f60e0820190506127c25f83018a611f07565b6127cf6020830189611f07565b6127dc6040830188611f1f565b6127e96060830187611f5e565b6127f660808301866122e5565b81810360a08301526128088185611fa5565b905061281760c083018461224a565b98975050505050505050565b7f4e6f742064617461206f776e65720000000000000000000000000000000000005f82015250565b5f612857600e83611f77565b915061286282612823565b602082019050919050565b5f6020820190508181035f8301526128848161284b565b9050919050565b7f44617461206e6f742061637469766500000000000000000000000000000000005f82015250565b5f6128bf600f83611f77565b91506128ca8261288b565b602082019050919050565b5f6020820190508181035f8301526128ec816128b3565b9050919050565b7f416c7265616479207072697661746500000000000000000000000000000000005f82015250565b5f612927600f83611f77565b9150612932826128f3565b602082019050919050565b5f6020820190508181035f8301526129548161291b565b9050919050565b5f60608201905061296e5f83018661224a565b61297b602083018561224a565b6129886040830184611f1f565b949350505050565b7f4e6f2072656164207065726d697373696f6e00000000000000000000000000005f82015250565b5f6129c4601283611f77565b91506129cf82612990565b602082019050919050565b5f6020820190508181035f8301526129f1816129b8565b9050919050565b7f4e487b71000000000000000000000000000000000000000000000000000000005f52602260045260245ffd5b5f6002820490506001821680612a3c57607f821691505b602082108103612a4f57612a4e6129f8565b5b50919050565b5f8160601b9050919050565b5f612a6b82612a55565b9050919050565b5f612a7c82612a61565b9050919050565b612a94612a8f82611f4d565b612a72565b82525050565b5f819050919050565b612ab4612aaf82611ea9565b612a9a565b82525050565b5f819050919050565b612ad4612acf82611f16565b612aba565b82525050565b5f612ae58286612a83565b601482019150612af58285612aa3565b602082019150612b058284612ac3565b602082019150819050949350505050565b7f4461746120616c726561647920657869737473000000000000000000000000005f82015250565b5f612b4a601383611f77565b9150612b5582612b16565b602082019050919050565b5f6020820190508181035f830152612b7781612b3e565b9050919050565b5f819050815f5260205f209050919050565b5f6020601f8301049050919050565b5f82821b905092915050565b5f60088302612bda7fffffffffffffffffffffffffffffffffffffffffffffffffffffffffffffffff82612b9f565b612be48683612b9f565b95508019841693508086168417925050509392505050565b5f819050919050565b5f612c1f612c1a612c1584611f16565b612bfc565b611f16565b9050919050565b5f819050919050565b612c3883612c05565b612c4c612c4482612c26565b848454612bab565b825550505050565b5f5f905090565b612c63612c54565b612c6e818484612c2f565b505050565b5b81811015612c9157612c865f82612c5b565b600181019050612c74565b5050565b601f821115612cd657612ca781612b7e565b612cb084612b90565b81016020851015612cbf578190505b612cd3612ccb85612b90565b830182612c73565b50505b505050565b5f82821c905092915050565b5f612cf65f1984600802612cdb565b1980831691505092915050565b5f612d0e8383612ce7565b9150826002028217905092915050565b612d2782611f6d565b67ffffffffffffffff811115612d4057612d3f61203d565b5b612d4a8254612a25565b612d55828285612c95565b5f60209050601f831160018114612d86575f8415612d74578287015190505b612d7e8582612d03565b865550612de5565b601f198416612d9486612b7e565b5f5b82811015612dbb57848901518255600182019150602085019450602081019050612d96565b86831015612dd85784890151612dd4601f891682612ce7565b8355505b6001600288020188555050505b505050505050565b5f6040820190508181035f830152612e058185611fa5565b9050612e146020830184611f1f565b9392505050565b7f44617461206e6f7420666f756e640000000000000000000000000000000000005f82015250565b5f612e4f600e83611f77565b9150612e5a82612e1b565b602082019050919050565b5f6020820190508181035f830152612e7c81612e43565b9050919050565b7f4461746120616c726561647920696e61637469766500000000000000000000005f82015250565b5f612eb7601583611f77565b9150612ec282612e83565b602082019050919050565b5f6020820190508181035f830152612ee481612eab565b9050919050565b7f4e487b71000000000000000000000000000000000000000000000000000000005f52603260045260245ffd5b7f4e487b71000000000000000000000000000000000000000000000000000000005f52601160045260245ffd5b5f612f4f82611f16565b9150612f5a83611f16565b9250828203905081811115612f7257612f71612f18565b5b92915050565b7f4e487b71000000000000000000000000000000000000000000000000000000005f52603160045260245ffd5b7f496e76616c6964207265717565737465720000000000000000000000000000005f82015250565b5f612fd9601183611f77565b9150612fe482612fa5565b602082019050919050565b5f6020820190508181035f83015261300681612fcd565b9050919050565b7f496e76616c6964206475726174696f6e000000000000000000000000000000005f82015250565b5f613041601083611f77565b915061304c8261300d565b602082019050919050565b5f6020820190508181035f83015261306e81613035565b9050919050565b7f5075626c6963206461746120646f6573206e6f74206e656564206772616e74005f82015250565b5f6130a9601f83611f77565b91506130b482613075565b602082019050919050565b5f6020820190508181035f8301526130d68161309d565b9050919050565b5f6130e782611f16565b91506130f283611f16565b925082820190508082111561310a57613109612f18565b5b92915050565b7f416c7265616479207075626c69630000000000000000000000000000000000005f82015250565b5f613144600e83611f77565b915061314f82613110565b602082019050919050565b5f6020820190508181035f83015261317181613138565b9050919050565b7f4e6f207772697465207065726d697373696f6e000000000000000000000000005f82015250565b5f6131ac601383611f77565b91506131b782613178565b602082019050919050565b5f6020820190508181035f8301526131d9816131a0565b905091905056fea26469706673582212201da9a2305159d3e5e37fcc3ee2d38266df6bcff645b74aee89ac07b0a0da729a64736f6c634300081e0033",
			"opcodes": "PUSH1 0x80 PUSH1 0x40 MSTORE CALLVALUE DUP1 ISZERO PUSH1 0xE JUMPI PUSH0 PUSH0 REVERT JUMPDEST POP PUSH2 0x3216 DUP1 PUSH2 0x1C PUSH0 CODECOPY PUSH0 RETURN INVALID PUSH1 0x80 PUSH1 0x40 MSTORE CALLVALUE DUP1 ISZERO PUSH2 0xF JUMPI PUSH0 PUSH0 REVERT JUMPDEST POP PUSH1 0x4 CALLDATASIZE LT PUSH2 0x114 JUMPI PUSH0 CALLDATALOAD PUSH1 0xE0 SHR DUP1 PUSH4 0x7CC1F867 GT PUSH2 0xA0 JUMPI DUP1 PUSH4 0xD6392057 GT PUSH2 0x6F JUMPI DUP1 PUSH4 0xD6392057 EQ PUSH2 0x31D JUMPI DUP1 PUSH4 0xD7ED69C1 EQ PUSH2 0x350 JUMPI DUP1 PUSH4 0xE189C8B8 EQ PUSH2 0x36C JUMPI DUP1 PUSH4 0xE85D28B9 EQ PUSH2 0x388 JUMPI DUP1 PUSH4 0xE9021744 EQ PUSH2 0x3B8 JUMPI PUSH2 0x114 JUMP JUMPDEST DUP1 PUSH4 0x7CC1F867 EQ PUSH2 0x2AA JUMPI DUP1 PUSH4 0x86911CDE EQ PUSH2 0x2C9 JUMPI DUP1 PUSH4 0x89C5D346 EQ PUSH2 0x2E5 JUMPI DUP1 PUSH4 0xC0E01108 EQ PUSH2 0x301 JUMPI PUSH2 0x114 JUMP JUMPDEST DUP1 PUSH4 0x5B225526 GT PUSH2 0xE7 JUMPI DUP1 PUSH4 0x5B225526 EQ PUSH2 0x1C8 JUMPI DUP1 PUSH4 0x647F94A5 EQ PUSH2 0x1FE JUMPI DUP1 PUSH4 0x66792D00 EQ PUSH2 0x22E JUMPI DUP1 PUSH4 0x73125163 EQ PUSH2 0x25E JUMPI DUP1 PUSH4 0x7461F24A EQ PUSH2 0x27A JUMPI PUSH2 0x114 JUMP JUMPDEST DUP1 PUSH4 0x6848DCD EQ PUSH2 0x118 JUMPI DUP1 PUSH4 0xA519FE1 EQ PUSH2 0x134 JUMPI DUP1 PUSH4 0x380B06C0 EQ PUSH2 0x168 JUMPI DUP1 PUSH4 0x46E036CF EQ PUSH2 0x198 JUMPI JUMPDEST PUSH0 PUSH0 REVERT JUMPDEST PUSH2 0x132 PUSH1 0x4 DUP1 CALLDATASIZE SUB DUP2 ADD SWAP1 PUSH2 0x12D SWAP2 SWAP1 PUSH2 0x1EDC JUMP JUMPDEST PUSH2 0x3EE JUMP JUMPDEST STOP JUMPDEST PUSH2 0x14E PUSH1 0x4 DUP1 CALLDATASIZE SUB DUP2 ADD SWAP1 PUSH2 0x149 SWAP2 SWAP1 PUSH2 0x1EDC JUMP JUMPDEST PUSH2 0x601 JUMP JUMPDEST PUSH1 0x40 MLOAD PUSH2 0x15F SWAP6 SWAP5 SWAP4 SWAP3 SWAP2 SWAP1 PUSH2 0x1FDD JUMP JUMPDEST PUSH1 0x40 MLOAD DUP1 SWAP2 SUB SWAP1 RETURN JUMPDEST PUSH2 0x182 PUSH1 0x4 DUP1 CALLDATASIZE SUB DUP2 ADD SWAP1 PUSH2 0x17D SWAP2 SWAP1 PUSH2 0x2161 JUMP JUMPDEST PUSH2 0x8FB JUMP JUMPDEST PUSH1 0x40 MLOAD PUSH2 0x18F SWAP2 SWAP1 PUSH2 0x21CD JUMP JUMPDEST PUSH1 0x40 MLOAD DUP1 SWAP2 SUB SWAP1 RETURN JUMPDEST PUSH2 0x1B2 PUSH1 0x4 DUP1 CALLDATASIZE SUB DUP2 ADD SWAP1 PUSH2 0x1AD SWAP2 SWAP1 PUSH2 0x1EDC JUMP JUMPDEST PUSH2 0xBBF JUMP JUMPDEST PUSH1 0x40 MLOAD PUSH2 0x1BF SWAP2 SWAP1 PUSH2 0x2259 JUMP JUMPDEST PUSH1 0x40 MLOAD DUP1 SWAP2 SUB SWAP1 RETURN JUMPDEST PUSH2 0x1E2 PUSH1 0x4 DUP1 CALLDATASIZE SUB DUP2 ADD SWAP1 PUSH2 0x1DD SWAP2 SWAP1 PUSH2 0x229C JUMP JUMPDEST PUSH2 0xC7D JUMP JUMPDEST PUSH1 0x40 MLOAD PUSH2 0x1F5 SWAP8 SWAP7 SWAP6 SWAP5 SWAP4 SWAP3 SWAP2 SWAP1 PUSH2 0x22F4 JUMP JUMPDEST PUSH1 0x40 MLOAD DUP1 SWAP2 SUB SWAP1 RETURN JUMPDEST PUSH2 0x218 PUSH1 0x4 DUP1 CALLDATASIZE SUB DUP2 ADD SWAP1 PUSH2 0x213 SWAP2 SWAP1 PUSH2 0x2361 JUMP JUMPDEST PUSH2 0xD1E JUMP JUMPDEST PUSH1 0x40 MLOAD PUSH2 0x225 SWAP2 SWAP1 PUSH2 0x238C JUMP JUMPDEST PUSH1 0x40 MLOAD DUP1 SWAP2 SUB SWAP1 RETURN JUMPDEST PUSH2 0x248 PUSH1 0x4 DUP1 CALLDATASIZE SUB DUP2 ADD SWAP1 PUSH2 0x243 SWAP2 SWAP1 PUSH2 0x2361 JUMP JUMPDEST PUSH2 0xD67 JUMP JUMPDEST PUSH1 0x40 MLOAD PUSH2 0x255 SWAP2 SWAP1 PUSH2 0x245C JUMP JUMPDEST PUSH1 0x40 MLOAD DUP1 SWAP2 SUB SWAP1 RETURN JUMPDEST PUSH2 0x278 PUSH1 0x4 DUP1 CALLDATASIZE SUB DUP2 ADD SWAP1 PUSH2 0x273 SWAP2 SWAP1 PUSH2 0x229C JUMP JUMPDEST PUSH2 0xDFA JUMP JUMPDEST STOP JUMPDEST PUSH2 0x294 PUSH1 0x4 DUP1 CALLDATASIZE SUB DUP2 ADD SWAP1 PUSH2 0x28F SWAP2 SWAP1 PUSH2 0x229C JUMP JUMPDEST PUSH2 0xFD2 JUMP JUMPDEST PUSH1 0x40 MLOAD PUSH2 0x2A1 SWAP2 SWAP1 PUSH2 0x247C JUMP JUMPDEST PUSH1 0x40 MLOAD DUP1 SWAP2 SUB SWAP1 RETURN JUMPDEST PUSH2 0x2B2 PUSH2 0x1124 JUMP JUMPDEST PUSH1 0x40 MLOAD PUSH2 0x2C0 SWAP3 SWAP2 SWAP1 PUSH2 0x2495 JUMP JUMPDEST PUSH1 0x40 MLOAD DUP1 SWAP2 SUB SWAP1 RETURN JUMPDEST PUSH2 0x2E3 PUSH1 0x4 DUP1 CALLDATASIZE SUB DUP2 ADD SWAP1 PUSH2 0x2DE SWAP2 SWAP1 PUSH2 0x1EDC JUMP JUMPDEST PUSH2 0x1130 JUMP JUMPDEST STOP JUMPDEST PUSH2 0x2FF PUSH1 0x4 DUP1 CALLDATASIZE SUB DUP2 ADD SWAP1 PUSH2 0x2FA SWAP2 SWAP1 PUSH2 0x2510 JUMP JUMPDEST PUSH2 0x134C JUMP JUMPDEST STOP JUMPDEST PUSH2 0x31B PUSH1 0x4 DUP1 CALLDATASIZE SUB DUP2 ADD SWAP1 PUSH2 0x316 SWAP2 SWAP1 PUSH2 0x1EDC JUMP JUMPDEST PUSH2 0x1790 JUMP JUMPDEST STOP JUMPDEST PUSH2 0x337 PUSH1 0x4 DUP1 CALLDATASIZE SUB DUP2 ADD SWAP1 PUSH2 0x332 SWAP2 SWAP1 PUSH2 0x229C JUMP JUMPDEST PUSH2 0x19A5 JUMP JUMPDEST PUSH1 0x40 MLOAD PUSH2 0x347 SWAP5 SWAP4 SWAP3 SWAP2 SWAP1 PUSH2 0x2587 JUMP JUMPDEST PUSH1 0x40 MLOAD DUP1 SWAP2 SUB SWAP1 RETURN JUMPDEST PUSH2 0x36A PUSH1 0x4 DUP1 CALLDATASIZE SUB DUP2 ADD SWAP1 PUSH2 0x365 SWAP2 SWAP1 PUSH2 0x25CA JUMP JUMPDEST PUSH2 0x1A52 JUMP JUMPDEST STOP JUMPDEST PUSH2 0x386 PUSH1 0x4 DUP1 CALLDATASIZE SUB DUP2 ADD SWAP1 PUSH2 0x381 SWAP2 SWAP1 PUSH2 0x26DE JUMP JUMPDEST PUSH2 0x1CA8 JUMP JUMPDEST STOP JUMPDEST PUSH2 0x3A2 PUSH1 0x4 DUP1 CALLDATASIZE SUB DUP2 ADD SWAP1 PUSH2 0x39D SWAP2 SWAP1 PUSH2 0x2771 JUMP JUMPDEST PUSH2 0x1D72 JUMP JUMPDEST PUSH1 0x40 MLOAD PUSH2 0x3AF SWAP2 SWAP1 PUSH2 0x21CD JUMP JUMPDEST PUSH1 0x40 MLOAD DUP1 SWAP2 SUB SWAP1 RETURN JUMPDEST PUSH2 0x3D2 PUSH1 0x4 DUP1 CALLDATASIZE SUB DUP2 ADD SWAP1 PUSH2 0x3CD SWAP2 SWAP1 PUSH2 0x1EDC JUMP JUMPDEST PUSH2 0x1D9D JUMP JUMPDEST PUSH1 0x40 MLOAD PUSH2 0x3E5 SWAP8 SWAP7 SWAP6 SWAP5 SWAP4 SWAP3 SWAP2 SWAP1 PUSH2 0x27AF JUMP JUMPDEST PUSH1 0x40 MLOAD DUP1 SWAP2 SUB SWAP1 RETURN JUMPDEST DUP1 CALLER PUSH20 0xFFFFFFFFFFFFFFFFFFFFFFFFFFFFFFFFFFFFFFFF AND PUSH0 PUSH0 DUP4 DUP2 MSTORE PUSH1 0x20 ADD SWAP1 DUP2 MSTORE PUSH1 0x20 ADD PUSH0 KECCAK256 PUSH1 0x3 ADD PUSH0 SWAP1 SLOAD SWAP1 PUSH2 0x100 EXP SWAP1 DIV PUSH20 0xFFFFFFFFFFFFFFFFFFFFFFFFFFFFFFFFFFFFFFFF AND PUSH20 0xFFFFFFFFFFFFFFFFFFFFFFFFFFFFFFFFFFFFFFFF AND EQ PUSH2 0x48F JUMPI PUSH1 0x40 MLOAD PUSH32 0x8C379A000000000000000000000000000000000000000000000000000000000 DUP2 MSTORE PUSH1 0x4 ADD PUSH2 0x486 SWAP1 PUSH2 0x286D JUMP JUMPDEST PUSH1 0x40 MLOAD DUP1 SWAP2 SUB SWAP1 REVERT JUMPDEST PUSH0 PUSH0 PUSH0 DUP5 DUP2 MSTORE PUSH1 0x20 ADD SWAP1 DUP2 MSTORE PUSH1 0x20 ADD PUSH0 KECCAK256 SWAP1 POP DUP1 PUSH1 0x3 ADD PUSH1 0x14 SWAP1 SLOAD SWAP1 PUSH2 0x100 EXP SWAP1 DIV PUSH1 0xFF AND PUSH2 0x4F3 JUMPI PUSH1 0x40 MLOAD PUSH32 0x8C379A000000000000000000000000000000000000000000000000000000000 DUP2 MSTORE PUSH1 0x4 ADD PUSH2 0x4EA SWAP1 PUSH2 0x28D5 JUMP JUMPDEST PUSH1 0x40 MLOAD DUP1 SWAP2 SUB SWAP1 REVERT JUMPDEST PUSH1 0x1 DUP1 DUP2 GT ISZERO PUSH2 0x506 JUMPI PUSH2 0x505 PUSH2 0x21E6 JUMP JUMPDEST JUMPDEST DUP2 PUSH1 0x5 ADD PUSH0 SWAP1 SLOAD SWAP1 PUSH2 0x100 EXP SWAP1 DIV PUSH1 0xFF AND PUSH1 0x1 DUP2 GT ISZERO PUSH2 0x529 JUMPI PUSH2 0x528 PUSH2 0x21E6 JUMP JUMPDEST JUMPDEST EQ PUSH2 0x569 JUMPI PUSH1 0x40 MLOAD PUSH32 0x8C379A000000000000000000000000000000000000000000000000000000000 DUP2 MSTORE PUSH1 0x4 ADD PUSH2 0x560 SWAP1 PUSH2 0x293D JUMP JUMPDEST PUSH1 0x40 MLOAD DUP1 SWAP2 SUB SWAP1 REVERT JUMPDEST PUSH0 DUP2 PUSH1 0x5 ADD PUSH0 SWAP1 SLOAD SWAP1 PUSH2 0x100 EXP SWAP1 DIV PUSH1 0xFF AND SWAP1 POP PUSH0 DUP3 PUSH1 0x5 ADD PUSH0 PUSH2 0x100 EXP DUP2 SLOAD DUP2 PUSH1 0xFF MUL NOT AND SWAP1 DUP4 PUSH1 0x1 DUP2 GT ISZERO PUSH2 0x5A3 JUMPI PUSH2 0x5A2 PUSH2 0x21E6 JUMP JUMPDEST JUMPDEST MUL OR SWAP1 SSTORE POP DUP4 CALLER PUSH20 0xFFFFFFFFFFFFFFFFFFFFFFFFFFFFFFFFFFFFFFFF AND PUSH32 0xD950D63959E5077FFC72C153E9974D7FB3C7B072A0399E683CC9D78F78EC289A DUP4 PUSH0 TIMESTAMP PUSH1 0x40 MLOAD PUSH2 0x5F3 SWAP4 SWAP3 SWAP2 SWAP1 PUSH2 0x295B JUMP JUMPDEST PUSH1 0x40 MLOAD DUP1 SWAP2 SUB SWAP1 LOG3 POP POP POP POP JUMP JUMPDEST PUSH0 PUSH0 PUSH0 PUSH0 PUSH1 0x60 DUP6 PUSH0 PUSH0 PUSH0 DUP4 DUP2 MSTORE PUSH1 0x20 ADD SWAP1 DUP2 MSTORE PUSH1 0x20 ADD PUSH0 KECCAK256 SWAP1 POP CALLER PUSH20 0xFFFFFFFFFFFFFFFFFFFFFFFFFFFFFFFFFFFFFFFF AND DUP2 PUSH1 0x3 ADD PUSH0 SWAP1 SLOAD SWAP1 PUSH2 0x100 EXP SWAP1 DIV PUSH20 0xFFFFFFFFFFFFFFFFFFFFFFFFFFFFFFFFFFFFFFFF AND PUSH20 0xFFFFFFFFFFFFFFFFFFFFFFFFFFFFFFFFFFFFFFFF AND EQ DUP1 PUSH2 0x6C5 JUMPI POP PUSH1 0x1 DUP1 DUP2 GT ISZERO PUSH2 0x686 JUMPI PUSH2 0x685 PUSH2 0x21E6 JUMP JUMPDEST JUMPDEST DUP2 PUSH1 0x5 ADD PUSH0 SWAP1 SLOAD SWAP1 PUSH2 0x100 EXP SWAP1 DIV PUSH1 0xFF AND PUSH1 0x1 DUP2 GT ISZERO PUSH2 0x6A9 JUMPI PUSH2 0x6A8 PUSH2 0x21E6 JUMP JUMPDEST JUMPDEST EQ DUP1 ISZERO PUSH2 0x6C4 JUMPI POP DUP1 PUSH1 0x3 ADD PUSH1 0x14 SWAP1 SLOAD SWAP1 PUSH2 0x100 EXP SWAP1 DIV PUSH1 0xFF AND JUMPDEST JUMPDEST DUP1 PUSH2 0x782 JUMPI POP PUSH1 0x1 PUSH0 CALLER PUSH20 0xFFFFFFFFFFFFFFFFFFFFFFFFFFFFFFFFFFFFFFFF AND PUSH20 0xFFFFFFFFFFFFFFFFFFFFFFFFFFFFFFFFFFFFFFFF AND DUP2 MSTORE PUSH1 0x20 ADD SWAP1 DUP2 MSTORE PUSH1 0x20 ADD PUSH0 KECCAK256 PUSH0 DUP4 DUP2 MSTORE PUSH1 0x20 ADD SWAP1 DUP2 MSTORE PUSH1 0x20 ADD PUSH0 KECCAK256 PUSH1 0x4 ADD PUSH0 SWAP1 SLOAD SWAP1 PUSH2 0x100 EXP SWAP1 DIV PUSH1 0xFF AND DUP1 ISZERO PUSH2 0x781 JUMPI POP PUSH1 0x1 PUSH0 CALLER PUSH20 0xFFFFFFFFFFFFFFFFFFFFFFFFFFFFFFFFFFFFFFFF AND PUSH20 0xFFFFFFFFFFFFFFFFFFFFFFFFFFFFFFFFFFFFFFFF AND DUP2 MSTORE PUSH1 0x20 ADD SWAP1 DUP2 MSTORE PUSH1 0x20 ADD PUSH0 KECCAK256 PUSH0 DUP4 DUP2 MSTORE PUSH1 0x20 ADD SWAP1 DUP2 MSTORE PUSH1 0x20 ADD PUSH0 KECCAK256 PUSH1 0x3 ADD SLOAD TIMESTAMP LT JUMPDEST JUMPDEST PUSH2 0x7C1 JUMPI PUSH1 0x40 MLOAD PUSH32 0x8C379A000000000000000000000000000000000000000000000000000000000 DUP2 MSTORE PUSH1 0x4 ADD PUSH2 0x7B8 SWAP1 PUSH2 0x29DA JUMP JUMPDEST PUSH1 0x40 MLOAD DUP1 SWAP2 SUB SWAP1 REVERT JUMPDEST PUSH0 PUSH0 PUSH0 DUP11 DUP2 MSTORE PUSH1 0x20 ADD SWAP1 DUP2 MSTORE PUSH1 0x20 ADD PUSH0 KECCAK256 SWAP1 POP DUP1 PUSH1 0x3 ADD PUSH1 0x14 SWAP1 SLOAD SWAP1 PUSH2 0x100 EXP SWAP1 DIV PUSH1 0xFF AND PUSH2 0x825 JUMPI PUSH1 0x40 MLOAD PUSH32 0x8C379A000000000000000000000000000000000000000000000000000000000 DUP2 MSTORE PUSH1 0x4 ADD PUSH2 0x81C SWAP1 PUSH2 0x28D5 JUMP JUMPDEST PUSH1 0x40 MLOAD DUP1 SWAP2 SUB SWAP1 REVERT JUMPDEST DUP1 PUSH0 ADD SLOAD DUP2 PUSH1 0x1 ADD SLOAD DUP3 PUSH1 0x2 ADD SLOAD DUP4 PUSH1 0x3 ADD PUSH0 SWAP1 SLOAD SWAP1 PUSH2 0x100 EXP SWAP1 DIV PUSH20 0xFFFFFFFFFFFFFFFFFFFFFFFFFFFFFFFFFFFFFFFF AND DUP5 PUSH1 0x4 ADD DUP1 DUP1 SLOAD PUSH2 0x867 SWAP1 PUSH2 0x2A25 JUMP JUMPDEST DUP1 PUSH1 0x1F ADD PUSH1 0x20 DUP1 SWAP2 DIV MUL PUSH1 0x20 ADD PUSH1 0x40 MLOAD SWAP1 DUP2 ADD PUSH1 0x40 MSTORE DUP1 SWAP3 SWAP2 SWAP1 DUP2 DUP2 MSTORE PUSH1 0x20 ADD DUP3 DUP1 SLOAD PUSH2 0x893 SWAP1 PUSH2 0x2A25 JUMP JUMPDEST DUP1 ISZERO PUSH2 0x8DE JUMPI DUP1 PUSH1 0x1F LT PUSH2 0x8B5 JUMPI PUSH2 0x100 DUP1 DUP4 SLOAD DIV MUL DUP4 MSTORE SWAP2 PUSH1 0x20 ADD SWAP2 PUSH2 0x8DE JUMP JUMPDEST DUP3 ADD SWAP2 SWAP1 PUSH0 MSTORE PUSH1 0x20 PUSH0 KECCAK256 SWAP1 JUMPDEST DUP2 SLOAD DUP2 MSTORE SWAP1 PUSH1 0x1 ADD SWAP1 PUSH1 0x20 ADD DUP1 DUP4 GT PUSH2 0x8C1 JUMPI DUP3 SWAP1 SUB PUSH1 0x1F AND DUP3 ADD SWAP2 JUMPDEST POP POP POP POP POP SWAP1 POP SWAP8 POP SWAP8 POP SWAP8 POP SWAP8 POP SWAP8 POP POP POP POP SWAP2 SWAP4 SWAP6 SWAP1 SWAP3 SWAP5 POP JUMP JUMPDEST PUSH0 PUSH0 CALLER DUP6 TIMESTAMP PUSH1 0x40 MLOAD PUSH1 0x20 ADD PUSH2 0x912 SWAP4 SWAP3 SWAP2 SWAP1 PUSH2 0x2ADA JUMP JUMPDEST PUSH1 0x40 MLOAD PUSH1 0x20 DUP2 DUP4 SUB SUB DUP2 MSTORE SWAP1 PUSH1 0x40 MSTORE DUP1 MLOAD SWAP1 PUSH1 0x20 ADD KECCAK256 SWAP1 POP PUSH0 PUSH20 0xFFFFFFFFFFFFFFFFFFFFFFFFFFFFFFFFFFFFFFFF AND PUSH0 PUSH0 DUP4 DUP2 MSTORE PUSH1 0x20 ADD SWAP1 DUP2 MSTORE PUSH1 0x20 ADD PUSH0 KECCAK256 PUSH1 0x3 ADD PUSH0 SWAP1 SLOAD SWAP1 PUSH2 0x100 EXP SWAP1 DIV PUSH20 0xFFFFFFFFFFFFFFFFFFFFFFFFFFFFFFFFFFFFFFFF AND PUSH20 0xFFFFFFFFFFFFFFFFFFFFFFFFFFFFFFFFFFFFFFFF AND EQ PUSH2 0x9CA JUMPI PUSH1 0x40 MLOAD PUSH32 0x8C379A000000000000000000000000000000000000000000000000000000000 DUP2 MSTORE PUSH1 0x4 ADD PUSH2 0x9C1 SWAP1 PUSH2 0x2B60 JUMP JUMPDEST PUSH1 0x40 MLOAD DUP1 SWAP2 SUB SWAP1 REVERT JUMPDEST PUSH1 0x40 MLOAD DUP1 PUSH1 0xE0 ADD PUSH1 0x40 MSTORE DUP1 DUP7 DUP2 MSTORE PUSH1 0x20 ADD DUP6 DUP2 MSTORE PUSH1 0x20 ADD TIMESTAMP DUP2 MSTORE PUSH1 0x20 ADD CALLER PUSH20 0xFFFFFFFFFFFFFFFFFFFFFFFFFFFFFFFFFFFFFFFF AND DUP2 MSTORE PUSH1 0x20 ADD PUSH1 0x1 ISZERO ISZERO DUP2 MSTORE PUSH1 0x20 ADD DUP5 DUP2 MSTORE PUSH1 0x20 ADD PUSH0 PUSH1 0x1 DUP2 GT ISZERO PUSH2 0xA25 JUMPI PUSH2 0xA24 PUSH2 0x21E6 JUMP JUMPDEST JUMPDEST DUP2 MSTORE POP PUSH0 PUSH0 DUP4 DUP2 MSTORE PUSH1 0x20 ADD SWAP1 DUP2 MSTORE PUSH1 0x20 ADD PUSH0 KECCAK256 PUSH0 DUP3 ADD MLOAD DUP2 PUSH0 ADD SSTORE PUSH1 0x20 DUP3 ADD MLOAD DUP2 PUSH1 0x1 ADD SSTORE PUSH1 0x40 DUP3 ADD MLOAD DUP2 PUSH1 0x2 ADD SSTORE PUSH1 0x60 DUP3 ADD MLOAD DUP2 PUSH1 0x3 ADD PUSH0 PUSH2 0x100 EXP DUP2 SLOAD DUP2 PUSH20 0xFFFFFFFFFFFFFFFFFFFFFFFFFFFFFFFFFFFFFFFF MUL NOT AND SWAP1 DUP4 PUSH20 0xFFFFFFFFFFFFFFFFFFFFFFFFFFFFFFFFFFFFFFFF AND MUL OR SWAP1 SSTORE POP PUSH1 0x80 DUP3 ADD MLOAD DUP2 PUSH1 0x3 ADD PUSH1 0x14 PUSH2 0x100 EXP DUP2 SLOAD DUP2 PUSH1 0xFF MUL NOT AND SWAP1 DUP4 ISZERO ISZERO MUL OR SWAP1 SSTORE POP PUSH1 0xA0 DUP3 ADD MLOAD DUP2 PUSH1 0x4 ADD SWAP1 DUP2 PUSH2 0xACF SWAP2 SWAP1 PUSH2 0x2D1E JUMP JUMPDEST POP PUSH1 0xC0 DUP3 ADD MLOAD DUP2 PUSH1 0x5 ADD PUSH0 PUSH2 0x100 EXP DUP2 SLOAD DUP2 PUSH1 0xFF MUL NOT AND SWAP1 DUP4 PUSH1 0x1 DUP2 GT ISZERO PUSH2 0xAFA JUMPI PUSH2 0xAF9 PUSH2 0x21E6 JUMP JUMPDEST JUMPDEST MUL OR SWAP1 SSTORE POP SWAP1 POP POP PUSH1 0x2 PUSH0 CALLER PUSH20 0xFFFFFFFFFFFFFFFFFFFFFFFFFFFFFFFFFFFFFFFF AND PUSH20 0xFFFFFFFFFFFFFFFFFFFFFFFFFFFFFFFFFFFFFFFF AND DUP2 MSTORE PUSH1 0x20 ADD SWAP1 DUP2 MSTORE PUSH1 0x20 ADD PUSH0 KECCAK256 DUP2 SWAP1 DUP1 PUSH1 0x1 DUP2 SLOAD ADD DUP1 DUP3 SSTORE DUP1 SWAP2 POP POP PUSH1 0x1 SWAP1 SUB SWAP1 PUSH0 MSTORE PUSH1 0x20 PUSH0 KECCAK256 ADD PUSH0 SWAP1 SWAP2 SWAP1 SWAP2 SWAP1 SWAP2 POP SSTORE DUP1 CALLER PUSH20 0xFFFFFFFFFFFFFFFFFFFFFFFFFFFFFFFFFFFFFFFF AND PUSH32 0xE814D30EC22A2F2C39021B7A479700A1D9456C6B6BAACBE6D8129B3106C669A DUP6 TIMESTAMP PUSH1 0x40 MLOAD PUSH2 0xBAC SWAP3 SWAP2 SWAP1 PUSH2 0x2DED JUMP JUMPDEST PUSH1 0x40 MLOAD DUP1 SWAP2 SUB SWAP1 LOG3 DUP1 SWAP2 POP POP SWAP4 SWAP3 POP POP POP JUMP JUMPDEST PUSH0 PUSH0 PUSH0 PUSH0 DUP5 DUP2 MSTORE PUSH1 0x20 ADD SWAP1 DUP2 MSTORE PUSH1 0x20 ADD PUSH0 KECCAK256 SWAP1 POP PUSH0 PUSH20 0xFFFFFFFFFFFFFFFFFFFFFFFFFFFFFFFFFFFFFFFF AND DUP2 PUSH1 0x3 ADD PUSH0 SWAP1 SLOAD SWAP1 PUSH2 0x100 EXP SWAP1 DIV PUSH20 0xFFFFFFFFFFFFFFFFFFFFFFFFFFFFFFFFFFFFFFFF AND PUSH20 0xFFFFFFFFFFFFFFFFFFFFFFFFFFFFFFFFFFFFFFFF AND SUB PUSH2 0xC64 JUMPI PUSH1 0x40 MLOAD PUSH32 0x8C379A000000000000000000000000000000000000000000000000000000000 DUP2 MSTORE PUSH1 0x4 ADD PUSH2 0xC5B SWAP1 PUSH2 0x2E65 JUMP JUMPDEST PUSH1 0x40 MLOAD DUP1 SWAP2 SUB SWAP1 REVERT JUMPDEST DUP1 PUSH1 0x5 ADD PUSH0 SWAP1 SLOAD SWAP1 PUSH2 0x100 EXP SWAP1 DIV PUSH1 0xFF AND SWAP2 POP POP SWAP2 SWAP1 POP JUMP JUMPDEST PUSH1 0x1 PUSH1 0x20 MSTORE DUP2 PUSH0 MSTORE PUSH1 0x40 PUSH0 KECCAK256 PUSH1 0x20 MSTORE DUP1 PUSH0 MSTORE PUSH1 0x40 PUSH0 KECCAK256 PUSH0 SWAP2 POP SWAP2 POP POP DUP1 PUSH0 ADD PUSH0 SWAP1 SLOAD SWAP1 PUSH2 0x100 EXP SWAP1 DIV PUSH20 0xFFFFFFFFFFFFFFFFFFFFFFFFFFFFFFFFFFFFFFFF AND SWAP1 DUP1 PUSH1 0x1 ADD SLOAD SWAP1 DUP1 PUSH1 0x2 ADD SLOAD SWAP1 DUP1 PUSH1 0x3 ADD SLOAD SWAP1 DUP1 PUSH1 0x4 ADD PUSH0 SWAP1 SLOAD SWAP1 PUSH2 0x100 EXP SWAP1 DIV PUSH1 0xFF AND SWAP1 DUP1 PUSH1 0x4 ADD PUSH1 0x1 SWAP1 SLOAD SWAP1 PUSH2 0x100 EXP SWAP1 DIV PUSH1 0xFF AND SWAP1 DUP1 PUSH1 0x4 ADD PUSH1 0x2 SWAP1 SLOAD SWAP1 PUSH2 0x100 EXP SWAP1 DIV PUSH20 0xFFFFFFFFFFFFFFFFFFFFFFFFFFFFFFFFFFFFFFFF AND SWAP1 POP DUP8 JUMP JUMPDEST PUSH0 PUSH1 0x2 PUSH0 DUP4 PUSH20 0xFFFFFFFFFFFFFFFFFFFFFFFFFFFFFFFFFFFFFFFF AND PUSH20 0xFFFFFFFFFFFFFFFFFFFFFFFFFFFFFFFFFFFFFFFF AND DUP2 MSTORE PUSH1 0x20 ADD SWAP1 DUP2 MSTORE PUSH1 0x20 ADD PUSH0 KECCAK256 DUP1 SLOAD SWAP1 POP SWAP1 POP SWAP2 SWAP1 POP JUMP JUMPDEST PUSH1 0x60 PUSH1 0x2 PUSH0 DUP4 PUSH20 0xFFFFFFFFFFFFFFFFFFFFFFFFFFFFFFFFFFFFFFFF AND PUSH20 0xFFFFFFFFFFFFFFFFFFFFFFFFFFFFFFFFFFFFFFFF AND DUP2 MSTORE PUSH1 0x20 ADD SWAP1 DUP2 MSTORE PUSH1 0x20 ADD PUSH0 KECCAK256 DUP1 SLOAD DUP1 PUSH1 0x20 MUL PUSH1 0x20 ADD PUSH1 0x40 MLOAD SWAP1 DUP2 ADD PUSH1 0x40 MSTORE DUP1 SWAP3 SWAP2 SWAP1 DUP2 DUP2 MSTORE PUSH1 0x20 ADD DUP3 DUP1 SLOAD DUP1 ISZERO PUSH2 0xDEE JUMPI PUSH1 0x20 MUL DUP3 ADD SWAP2 SWAP1 PUSH0 MSTORE PUSH1 0x20 PUSH0 KECCAK256 SWAP1 JUMPDEST DUP2 SLOAD DUP2 MSTORE PUSH1 0x20 ADD SWAP1 PUSH1 0x1 ADD SWAP1 DUP1 DUP4 GT PUSH2 0xDDA JUMPI JUMPDEST POP POP POP POP POP SWAP1 POP SWAP2 SWAP1 POP JUMP JUMPDEST DUP1 CALLER PUSH20 0xFFFFFFFFFFFFFFFFFFFFFFFFFFFFFFFFFFFFFFFF AND PUSH0 PUSH0 DUP4 DUP2 MSTORE PUSH1 0x20 ADD SWAP1 DUP2 MSTORE PUSH1 0x20 ADD PUSH0 KECCAK256 PUSH1 0x3 ADD PUSH0 SWAP1 SLOAD SWAP1 PUSH2 0x100 EXP SWAP1 DIV PUSH20 0xFFFFFFFFFFFFFFFFFFFFFFFFFFFFFFFFFFFFFFFF AND PUSH20 0xFFFFFFFFFFFFFFFFFFFFFFFFFFFFFFFFFFFFFFFF AND EQ PUSH2 0xE9B JUMPI PUSH1 0x40 MLOAD PUSH32 0x8C379A000000000000000000000000000000000000000000000000000000000 DUP2 MSTORE PUSH1 0x4 ADD PUSH2 0xE92 SWAP1 PUSH2 0x286D JUMP JUMPDEST PUSH1 0x40 MLOAD DUP1 SWAP2 SUB SWAP1 REVERT JUMPDEST PUSH1 0x1 PUSH0 DUP5 PUSH20 0xFFFFFFFFFFFFFFFFFFFFFFFFFFFFFFFFFFFFFFFF AND PUSH20 0xFFFFFFFFFFFFFFFFFFFFFFFFFFFFFFFFFFFFFFFF AND DUP2 MSTORE PUSH1 0x20 ADD SWAP1 DUP2 MSTORE PUSH1 0x20 ADD PUSH0 KECCAK256 PUSH0 DUP4 DUP2 MSTORE PUSH1 0x20 ADD SWAP1 DUP2 MSTORE PUSH1 0x20 ADD PUSH0 KECCAK256 PUSH0 PUSH0 DUP3 ADD PUSH0 PUSH2 0x100 EXP DUP2 SLOAD SWAP1 PUSH20 0xFFFFFFFFFFFFFFFFFFFFFFFFFFFFFFFFFFFFFFFF MUL NOT AND SWAP1 SSTORE PUSH1 0x1 DUP3 ADD PUSH0 SWAP1 SSTORE PUSH1 0x2 DUP3 ADD PUSH0 SWAP1 SSTORE PUSH1 0x3 DUP3 ADD PUSH0 SWAP1 SSTORE PUSH1 0x4 DUP3 ADD PUSH0 PUSH2 0x100 EXP DUP2 SLOAD SWAP1 PUSH1 0xFF MUL NOT AND SWAP1 SSTORE PUSH1 0x4 DUP3 ADD PUSH1 0x1 PUSH2 0x100 EXP DUP2 SLOAD SWAP1 PUSH1 0xFF MUL NOT AND SWAP1 SSTORE PUSH1 0x4 DUP3 ADD PUSH1 0x2 PUSH2 0x100 EXP DUP2 SLOAD SWAP1 PUSH20 0xFFFFFFFFFFFFFFFFFFFFFFFFFFFFFFFFFFFFFFFF MUL NOT AND SWAP1 SSTORE POP POP DUP2 DUP4 PUSH20 0xFFFFFFFFFFFFFFFFFFFFFFFFFFFFFFFFFFFFFFFF AND CALLER PUSH20 0xFFFFFFFFFFFFFFFFFFFFFFFFFFFFFFFFFFFFFFFF AND PUSH32 0xB28E9E14A2FBAE903397AC018A71F930AE415BCAF8FD57A5C4EA212E4DE9DAA2 PUSH1 0x40 MLOAD PUSH1 0x40 MLOAD DUP1 SWAP2 SUB SWAP1 LOG4 POP POP POP JUMP JUMPDEST PUSH0 PUSH0 PUSH0 PUSH0 DUP5 DUP2 MSTORE PUSH1 0x20 ADD SWAP1 DUP2 MSTORE PUSH1 0x20 ADD PUSH0 KECCAK256 SWAP1 POP DUP1 PUSH1 0x3 ADD PUSH1 0x14 SWAP1 SLOAD SWAP1 PUSH2 0x100 EXP SWAP1 DIV PUSH1 0xFF AND PUSH2 0x1005 JUMPI PUSH0 SWAP2 POP POP PUSH2 0x111E JUMP JUMPDEST DUP4 PUSH20 0xFFFFFFFFFFFFFFFFFFFFFFFFFFFFFFFFFFFFFFFF AND DUP2 PUSH1 0x3 ADD PUSH0 SWAP1 SLOAD SWAP1 PUSH2 0x100 EXP SWAP1 DIV PUSH20 0xFFFFFFFFFFFFFFFFFFFFFFFFFFFFFFFFFFFFFFFF AND PUSH20 0xFFFFFFFFFFFFFFFFFFFFFFFFFFFFFFFFFFFFFFFF AND SUB PUSH2 0x1065 JUMPI PUSH1 0x1 SWAP2 POP POP PUSH2 0x111E JUMP JUMPDEST PUSH1 0x1 DUP1 DUP2 GT ISZERO PUSH2 0x1078 JUMPI PUSH2 0x1077 PUSH2 0x21E6 JUMP JUMPDEST JUMPDEST DUP2 PUSH1 0x5 ADD PUSH0 SWAP1 SLOAD SWAP1 PUSH2 0x100 EXP SWAP1 DIV PUSH1 0xFF AND PUSH1 0x1 DUP2 GT ISZERO PUSH2 0x109B JUMPI PUSH2 0x109A PUSH2 0x21E6 JUMP JUMPDEST JUMPDEST SUB PUSH2 0x10AA JUMPI PUSH1 0x1 SWAP2 POP POP PUSH2 0x111E JUMP JUMPDEST PUSH0 PUSH1 0x1 PUSH0 DUP7 PUSH20 0xFFFFFFFFFFFFFFFFFFFFFFFFFFFFFFFFFFFFFFFF AND PUSH20 0xFFFFFFFFFFFFFFFFFFFFFFFFFFFFFFFFFFFFFFFF AND DUP2 MSTORE PUSH1 0x20 ADD SWAP1 DUP2 MSTORE PUSH1 0x20 ADD PUSH0 KECCAK256 PUSH0 DUP6 DUP2 MSTORE PUSH1 0x20 ADD SWAP1 DUP2 MSTORE PUSH1 0x20 ADD PUSH0 KECCAK256 SWAP1 POP DUP1 PUSH1 0x4 ADD PUSH0 SWAP1 SLOAD SWAP1 PUSH2 0x100 EXP SWAP1 DIV PUSH1 0xFF AND DUP1 ISZERO PUSH2 0x1119 JUMPI POP DUP1 PUSH1 0x3 ADD SLOAD TIMESTAMP LT JUMPDEST SWAP3 POP POP POP JUMPDEST SWAP3 SWAP2 POP POP JUMP JUMPDEST PUSH0 PUSH0 PUSH0 PUSH0 SWAP2 POP SWAP2 POP SWAP1 SWAP2 JUMP JUMPDEST DUP1 CALLER PUSH20 0xFFFFFFFFFFFFFFFFFFFFFFFFFFFFFFFFFFFFFFFF AND PUSH0 PUSH0 DUP4 DUP2 MSTORE PUSH1 0x20 ADD SWAP1 DUP2 MSTORE PUSH1 0x20 ADD PUSH0 KECCAK256 PUSH1 0x3 ADD PUSH0 SWAP1 SLOAD SWAP1 PUSH2 0x100 EXP SWAP1 DIV PUSH20 0xFFFFFFFFFFFFFFFFFFFFFFFFFFFFFFFFFFFFFFFF AND PUSH20 0xFFFFFFFFFFFFFFFFFFFFFFFFFFFFFFFFFFFFFFFF AND EQ PUSH2 0x11D1 JUMPI PUSH1 0x40 MLOAD PUSH32 0x8C379A000000000000000000000000000000000000000000000000000000000 DUP2 MSTORE PUSH1 0x4 ADD PUSH2 0x11C8 SWAP1 PUSH2 0x286D JUMP JUMPDEST PUSH1 0x40 MLOAD DUP1 SWAP2 SUB SWAP1 REVERT JUMPDEST PUSH0 PUSH0 PUSH0 DUP5 DUP2 MSTORE PUSH1 0x20 ADD SWAP1 DUP2 MSTORE PUSH1 0x20 ADD PUSH0 KECCAK256 SWAP1 POP DUP1 PUSH1 0x3 ADD PUSH1 0x14 SWAP1 SLOAD SWAP1 PUSH2 0x100 EXP SWAP1 DIV PUSH1 0xFF AND PUSH2 0x1235 JUMPI PUSH1 0x40 MLOAD PUSH32 0x8C379A000000000000000000000000000000000000000000000000000000000 DUP2 MSTORE PUSH1 0x4 ADD PUSH2 0x122C SWAP1 PUSH2 0x2ECD JUMP JUMPDEST PUSH1 0x40 MLOAD DUP1 SWAP2 SUB SWAP1 REVERT JUMPDEST PUSH0 DUP2 PUSH1 0x3 ADD PUSH1 0x14 PUSH2 0x100 EXP DUP2 SLOAD DUP2 PUSH1 0xFF MUL NOT AND SWAP1 DUP4 ISZERO ISZERO MUL OR SWAP1 SSTORE POP PUSH0 PUSH1 0x2 PUSH0 CALLER PUSH20 0xFFFFFFFFFFFFFFFFFFFFFFFFFFFFFFFFFFFFFFFF AND PUSH20 0xFFFFFFFFFFFFFFFFFFFFFFFFFFFFFFFFFFFFFFFF AND DUP2 MSTORE PUSH1 0x20 ADD SWAP1 DUP2 MSTORE PUSH1 0x20 ADD PUSH0 KECCAK256 SWAP1 POP PUSH0 PUSH0 SWAP1 POP JUMPDEST DUP2 DUP1 SLOAD SWAP1 POP DUP2 LT ISZERO PUSH2 0x1345 JUMPI DUP5 DUP3 DUP3 DUP2 SLOAD DUP2 LT PUSH2 0x12B6 JUMPI PUSH2 0x12B5 PUSH2 0x2EEB JUMP JUMPDEST JUMPDEST SWAP1 PUSH0 MSTORE PUSH1 0x20 PUSH0 KECCAK256 ADD SLOAD SUB PUSH2 0x1338 JUMPI DUP2 PUSH1 0x1 DUP4 DUP1 SLOAD SWAP1 POP PUSH2 0x12D6 SWAP2 SWAP1 PUSH2 0x2F45 JUMP JUMPDEST DUP2 SLOAD DUP2 LT PUSH2 0x12E7 JUMPI PUSH2 0x12E6 PUSH2 0x2EEB JUMP JUMPDEST JUMPDEST SWAP1 PUSH0 MSTORE PUSH1 0x20 PUSH0 KECCAK256 ADD SLOAD DUP3 DUP3 DUP2 SLOAD DUP2 LT PUSH2 0x1303 JUMPI PUSH2 0x1302 PUSH2 0x2EEB JUMP JUMPDEST JUMPDEST SWAP1 PUSH0 MSTORE PUSH1 0x20 PUSH0 KECCAK256 ADD DUP2 SWAP1 SSTORE POP DUP2 DUP1 SLOAD DUP1 PUSH2 0x1320 JUMPI PUSH2 0x131F PUSH2 0x2F78 JUMP JUMPDEST JUMPDEST PUSH1 0x1 SWAP1 SUB DUP2 DUP2 SWAP1 PUSH0 MSTORE PUSH1 0x20 PUSH0 KECCAK256 ADD PUSH0 SWAP1 SSTORE SWAP1 SSTORE PUSH2 0x1345 JUMP JUMPDEST DUP1 DUP1 PUSH1 0x1 ADD SWAP2 POP POP PUSH2 0x1296 JUMP JUMPDEST POP POP POP POP POP JUMP JUMPDEST DUP4 CALLER PUSH20 0xFFFFFFFFFFFFFFFFFFFFFFFFFFFFFFFFFFFFFFFF AND PUSH0 PUSH0 DUP4 DUP2 MSTORE PUSH1 0x20 ADD SWAP1 DUP2 MSTORE PUSH1 0x20 ADD PUSH0 KECCAK256 PUSH1 0x3 ADD PUSH0 SWAP1 SLOAD SWAP1 PUSH2 0x100 EXP SWAP1 DIV PUSH20 0xFFFFFFFFFFFFFFFFFFFFFFFFFFFFFFFFFFFFFFFF AND PUSH20 0xFFFFFFFFFFFFFFFFFFFFFFFFFFFFFFFFFFFFFFFF AND EQ PUSH2 0x13ED JUMPI PUSH1 0x40 MLOAD PUSH32 0x8C379A000000000000000000000000000000000000000000000000000000000 DUP2 MSTORE PUSH1 0x4 ADD PUSH2 0x13E4 SWAP1 PUSH2 0x286D JUMP JUMPDEST PUSH1 0x40 MLOAD DUP1 SWAP2 SUB SWAP1 REVERT JUMPDEST PUSH0 PUSH0 PUSH0 DUP8 DUP2 MSTORE PUSH1 0x20 ADD SWAP1 DUP2 MSTORE PUSH1 0x20 ADD PUSH0 KECCAK256 SWAP1 POP PUSH0 PUSH20 0xFFFFFFFFFFFFFFFFFFFFFFFFFFFFFFFFFFFFFFFF AND DUP8 PUSH20 0xFFFFFFFFFFFFFFFFFFFFFFFFFFFFFFFFFFFFFFFF AND SUB PUSH2 0x146E JUMPI PUSH1 0x40 MLOAD PUSH32 0x8C379A000000000000000000000000000000000000000000000000000000000 DUP2 MSTORE PUSH1 0x4 ADD PUSH2 0x1465 SWAP1 PUSH2 0x2FEF JUMP JUMPDEST PUSH1 0x40 MLOAD DUP1 SWAP2 SUB SWAP1 REVERT JUMPDEST PUSH0 DUP4 GT PUSH2 0x14B0 JUMPI PUSH1 0x40 MLOAD PUSH32 0x8C379A000000000000000000000000000000000000000000000000000000000 DUP2 MSTORE PUSH1 0x4 ADD PUSH2 0x14A7 SWAP1 PUSH2 0x3057 JUMP JUMPDEST PUSH1 0x40 MLOAD DUP1 SWAP2 SUB SWAP1 REVERT JUMPDEST DUP1 PUSH1 0x3 ADD PUSH1 0x14 SWAP1 SLOAD SWAP1 PUSH2 0x100 EXP SWAP1 DIV PUSH1 0xFF AND PUSH2 0x1501 JUMPI PUSH1 0x40 MLOAD PUSH32 0x8C379A000000000000000000000000000000000000000000000000000000000 DUP2 MSTORE PUSH1 0x4 ADD PUSH2 0x14F8 SWAP1 PUSH2 0x28D5 JUMP JUMPDEST PUSH1 0x40 MLOAD DUP1 SWAP2 SUB SWAP1 REVERT JUMPDEST PUSH0 PUSH1 0x1 DUP2 GT ISZERO PUSH2 0x1514 JUMPI PUSH2 0x1513 PUSH2 0x21E6 JUMP JUMPDEST JUMPDEST DUP2 PUSH1 0x5 ADD PUSH0 SWAP1 SLOAD SWAP1 PUSH2 0x100 EXP SWAP1 DIV PUSH1 0xFF AND PUSH1 0x1 DUP2 GT ISZERO PUSH2 0x1537 JUMPI PUSH2 0x1536 PUSH2 0x21E6 JUMP JUMPDEST JUMPDEST EQ PUSH2 0x1577 JUMPI PUSH1 0x40 MLOAD PUSH32 0x8C379A000000000000000000000000000000000000000000000000000000000 DUP2 MSTORE PUSH1 0x4 ADD PUSH2 0x156E SWAP1 PUSH2 0x30BF JUMP JUMPDEST PUSH1 0x40 MLOAD DUP1 SWAP2 SUB SWAP1 REVERT JUMPDEST PUSH0 DUP4 TIMESTAMP PUSH2 0x1584 SWAP2 SWAP1 PUSH2 0x30DD JUMP JUMPDEST SWAP1 POP PUSH1 0x40 MLOAD DUP1 PUSH1 0xE0 ADD PUSH1 0x40 MSTORE DUP1 DUP10 PUSH20 0xFFFFFFFFFFFFFFFFFFFFFFFFFFFFFFFFFFFFFFFF AND DUP2 MSTORE PUSH1 0x20 ADD DUP9 DUP2 MSTORE PUSH1 0x20 ADD TIMESTAMP DUP2 MSTORE PUSH1 0x20 ADD DUP3 DUP2 MSTORE PUSH1 0x20 ADD DUP8 ISZERO ISZERO DUP2 MSTORE PUSH1 0x20 ADD DUP7 ISZERO ISZERO DUP2 MSTORE PUSH1 0x20 ADD CALLER PUSH20 0xFFFFFFFFFFFFFFFFFFFFFFFFFFFFFFFFFFFFFFFF AND DUP2 MSTORE POP PUSH1 0x1 PUSH0 DUP11 PUSH20 0xFFFFFFFFFFFFFFFFFFFFFFFFFFFFFFFFFFFFFFFF AND PUSH20 0xFFFFFFFFFFFFFFFFFFFFFFFFFFFFFFFFFFFFFFFF AND DUP2 MSTORE PUSH1 0x20 ADD SWAP1 DUP2 MSTORE PUSH1 0x20 ADD PUSH0 KECCAK256 PUSH0 DUP10 DUP2 MSTORE PUSH1 0x20 ADD SWAP1 DUP2 MSTORE PUSH1 0x20 ADD PUSH0 KECCAK256 PUSH0 DUP3 ADD MLOAD DUP2 PUSH0 ADD PUSH0 PUSH2 0x100 EXP DUP2 SLOAD DUP2 PUSH20 0xFFFFFFFFFFFFFFFFFFFFFFFFFFFFFFFFFFFFFFFF MUL NOT AND SWAP1 DUP4 PUSH20 0xFFFFFFFFFFFFFFFFFFFFFFFFFFFFFFFFFFFFFFFF AND MUL OR SWAP1 SSTORE POP PUSH1 0x20 DUP3 ADD MLOAD DUP2 PUSH1 0x1 ADD SSTORE PUSH1 0x40 DUP3 ADD MLOAD DUP2 PUSH1 0x2 ADD SSTORE PUSH1 0x60 DUP3 ADD MLOAD DUP2 PUSH1 0x3 ADD SSTORE PUSH1 0x80 DUP3 ADD MLOAD DUP2 PUSH1 0x4 ADD PUSH0 PUSH2 0x100 EXP DUP2 SLOAD DUP2 PUSH1 0xFF MUL NOT AND SWAP1 DUP4 ISZERO ISZERO MUL OR SWAP1 SSTORE POP PUSH1 0xA0 DUP3 ADD MLOAD DUP2 PUSH1 0x4 ADD PUSH1 0x1 PUSH2 0x100 EXP DUP2 SLOAD DUP2 PUSH1 0xFF MUL NOT AND SWAP1 DUP4 ISZERO ISZERO MUL OR SWAP1 SSTORE POP PUSH1 0xC0 DUP3 ADD MLOAD DUP2 PUSH1 0x4 ADD PUSH1 0x2 PUSH2 0x100 EXP DUP2 SLOAD DUP2 PUSH20 0xFFFFFFFFFFFFFFFFFFFFFFFFFFFFFFFFFFFFFFFF MUL NOT AND SWAP1 DUP4 PUSH20 0xFFFFFFFFFFFFFFFFFFFFFFFFFFFFFFFFFFFFFFFF AND MUL OR SWAP1 SSTORE POP SWAP1 POP POP DUP7 DUP9 PUSH20 0xFFFFFFFFFFFFFFFFFFFFFFFFFFFFFFFFFFFFFFFF AND CALLER PUSH20 0xFFFFFFFFFFFFFFFFFFFFFFFFFFFFFFFFFFFFFFFF AND PUSH32 0x34D1AC3EC20B10ECFBB0BF62B7538BE273454C43DD4090AFD9882B6B32D10142 DUP5 PUSH1 0x40 MLOAD PUSH2 0x177E SWAP2 SWAP1 PUSH2 0x238C JUMP JUMPDEST PUSH1 0x40 MLOAD DUP1 SWAP2 SUB SWAP1 LOG4 POP POP POP POP POP POP POP POP JUMP JUMPDEST DUP1 CALLER PUSH20 0xFFFFFFFFFFFFFFFFFFFFFFFFFFFFFFFFFFFFFFFF AND PUSH0 PUSH0 DUP4 DUP2 MSTORE PUSH1 0x20 ADD SWAP1 DUP2 MSTORE PUSH1 0x20 ADD PUSH0 KECCAK256 PUSH1 0x3 ADD PUSH0 SWAP1 SLOAD SWAP1 PUSH2 0x100 EXP SWAP1 DIV PUSH20 0xFFFFFFFFFFFFFFFFFFFFFFFFFFFFFFFFFFFFFFFF AND PUSH20 0xFFFFFFFFFFFFFFFFFFFFFFFFFFFFFFFFFFFFFFFF AND EQ PUSH2 0x1831 JUMPI PUSH1 0x40 MLOAD PUSH32 0x8C379A000000000000000000000000000000000000000000000000000000000 DUP2 MSTORE PUSH1 0x4 ADD PUSH2 0x1828 SWAP1 PUSH2 0x286D JUMP JUMPDEST PUSH1 0x40 MLOAD DUP1 SWAP2 SUB SWAP1 REVERT JUMPDEST PUSH0 PUSH0 PUSH0 DUP5 DUP2 MSTORE PUSH1 0x20 ADD SWAP1 DUP2 MSTORE PUSH1 0x20 ADD PUSH0 KECCAK256 SWAP1 POP DUP1 PUSH1 0x3 ADD PUSH1 0x14 SWAP1 SLOAD SWAP1 PUSH2 0x100 EXP SWAP1 DIV PUSH1 0xFF AND PUSH2 0x1895 JUMPI PUSH1 0x40 MLOAD PUSH32 0x8C379A000000000000000000000000000000000000000000000000000000000 DUP2 MSTORE PUSH1 0x4 ADD PUSH2 0x188C SWAP1 PUSH2 0x28D5 JUMP JUMPDEST PUSH1 0x40 MLOAD DUP1 SWAP2 SUB SWAP1 REVERT JUMPDEST PUSH0 PUSH1 0x1 DUP2 GT ISZERO PUSH2 0x18A8 JUMPI PUSH2 0x18A7 PUSH2 0x21E6 JUMP JUMPDEST JUMPDEST DUP2 PUSH1 0x5 ADD PUSH0 SWAP1 SLOAD SWAP1 PUSH2 0x100 EXP SWAP1 DIV PUSH1 0xFF AND PUSH1 0x1 DUP2 GT ISZERO PUSH2 0x18CB JUMPI PUSH2 0x18CA PUSH2 0x21E6 JUMP JUMPDEST JUMPDEST EQ PUSH2 0x190B JUMPI PUSH1 0x40 MLOAD PUSH32 0x8C379A000000000000000000000000000000000000000000000000000000000 DUP2 MSTORE PUSH1 0x4 ADD PUSH2 0x1902 SWAP1 PUSH2 0x315A JUMP JUMPDEST PUSH1 0x40 MLOAD DUP1 SWAP2 SUB SWAP1 REVERT JUMPDEST PUSH0 DUP2 PUSH1 0x5 ADD PUSH0 SWAP1 SLOAD SWAP1 PUSH2 0x100 EXP SWAP1 DIV PUSH1 0xFF AND SWAP1 POP PUSH1 0x1 DUP3 PUSH1 0x5 ADD PUSH0 PUSH2 0x100 EXP DUP2 SLOAD DUP2 PUSH1 0xFF MUL NOT AND SWAP1 DUP4 PUSH1 0x1 DUP2 GT ISZERO PUSH2 0x1946 JUMPI PUSH2 0x1945 PUSH2 0x21E6 JUMP JUMPDEST JUMPDEST MUL OR SWAP1 SSTORE POP DUP4 CALLER PUSH20 0xFFFFFFFFFFFFFFFFFFFFFFFFFFFFFFFFFFFFFFFF AND PUSH32 0xD950D63959E5077FFC72C153E9974D7FB3C7B072A0399E683CC9D78F78EC289A DUP4 PUSH1 0x1 TIMESTAMP PUSH1 0x40 MLOAD PUSH2 0x1997 SWAP4 SWAP3 SWAP2 SWAP1 PUSH2 0x295B JUMP JUMPDEST PUSH1 0x40 MLOAD DUP1 SWAP2 SUB SWAP1 LOG3 POP POP POP POP JUMP JUMPDEST PUSH0 PUSH0 PUSH0 PUSH0 PUSH0 PUSH1 0x1 PUSH0 DUP9 PUSH20 0xFFFFFFFFFFFFFFFFFFFFFFFFFFFFFFFFFFFFFFFF AND PUSH20 0xFFFFFFFFFFFFFFFFFFFFFFFFFFFFFFFFFFFFFFFF AND DUP2 MSTORE PUSH1 0x20 ADD SWAP1 DUP2 MSTORE PUSH1 0x20 ADD PUSH0 KECCAK256 PUSH0 DUP8 DUP2 MSTORE PUSH1 0x20 ADD SWAP1 DUP2 MSTORE PUSH1 0x20 ADD PUSH0 KECCAK256 SWAP1 POP DUP1 PUSH1 0x3 ADD SLOAD TIMESTAMP LT PUSH2 0x1A15 JUMPI PUSH0 PUSH0 PUSH0 PUSH0 SWAP5 POP SWAP5 POP SWAP5 POP SWAP5 POP POP PUSH2 0x1A49 JUMP JUMPDEST PUSH1 0x1 DUP2 PUSH1 0x4 ADD PUSH0 SWAP1 SLOAD SWAP1 PUSH2 0x100 EXP SWAP1 DIV PUSH1 0xFF AND DUP3 PUSH1 0x4 ADD PUSH1 0x1 SWAP1 SLOAD SWAP1 PUSH2 0x100 EXP SWAP1 DIV PUSH1 0xFF AND DUP4 PUSH1 0x3 ADD SLOAD SWAP5 POP SWAP5 POP SWAP5 POP SWAP5 POP POP JUMPDEST SWAP3 SWAP6 SWAP2 SWAP5 POP SWAP3 POP JUMP JUMPDEST DUP3 CALLER PUSH20 0xFFFFFFFFFFFFFFFFFFFFFFFFFFFFFFFFFFFFFFFF AND PUSH0 PUSH0 DUP4 DUP2 MSTORE PUSH1 0x20 ADD SWAP1 DUP2 MSTORE PUSH1 0x20 ADD PUSH0 KECCAK256 PUSH1 0x3 ADD PUSH0 SWAP1 SLOAD SWAP1 PUSH2 0x100 EXP SWAP1 DIV PUSH20 0xFFFFFFFFFFFFFFFFFFFFFFFFFFFFFFFFFFFFFFFF AND PUSH20 0xFFFFFFFFFFFFFFFFFFFFFFFFFFFFFFFFFFFFFFFF AND EQ DUP1 PUSH2 0x1B72 JUMPI POP PUSH1 0x1 PUSH0 CALLER PUSH20 0xFFFFFFFFFFFFFFFFFFFFFFFFFFFFFFFFFFFFFFFF AND PUSH20 0xFFFFFFFFFFFFFFFFFFFFFFFFFFFFFFFFFFFFFFFF AND DUP2 MSTORE PUSH1 0x20 ADD SWAP1 DUP2 MSTORE PUSH1 0x20 ADD PUSH0 KECCAK256 PUSH0 DUP3 DUP2 MSTORE PUSH1 0x20 ADD SWAP1 DUP2 MSTORE PUSH1 0x20 ADD PUSH0 KECCAK256 PUSH1 0x4 ADD PUSH1 0x1 SWAP1 SLOAD SWAP1 PUSH2 0x100 EXP SWAP1 DIV PUSH1 0xFF AND DUP1 ISZERO PUSH2 0x1B71 JUMPI POP PUSH1 0x1 PUSH0 CALLER PUSH20 0xFFFFFFFFFFFFFFFFFFFFFFFFFFFFFFFFFFFFFFFF AND PUSH20 0xFFFFFFFFFFFFFFFFFFFFFFFFFFFFFFFFFFFFFFFF AND DUP2 MSTORE PUSH1 0x20 ADD SWAP1 DUP2 MSTORE PUSH1 0x20 ADD PUSH0 KECCAK256 PUSH0 DUP3 DUP2 MSTORE PUSH1 0x20 ADD SWAP1 DUP2 MSTORE PUSH1 0x20 ADD PUSH0 KECCAK256 PUSH1 0x3 ADD SLOAD TIMESTAMP LT JUMPDEST JUMPDEST PUSH2 0x1BB1 JUMPI PUSH1 0x40 MLOAD PUSH32 0x8C379A000000000000000000000000000000000000000000000000000000000 DUP2 MSTORE PUSH1 0x4 ADD PUSH2 0x1BA8 SWAP1 PUSH2 0x31C2 JUMP JUMPDEST PUSH1 0x40 MLOAD DUP1 SWAP2 SUB SWAP1 REVERT JUMPDEST PUSH0 PUSH0 PUSH0 DUP7 DUP2 MSTORE PUSH1 0x20 ADD SWAP1 DUP2 MSTORE PUSH1 0x20 ADD PUSH0 KECCAK256 SWAP1 POP DUP1 PUSH1 0x3 ADD PUSH1 0x14 SWAP1 SLOAD SWAP1 PUSH2 0x100 EXP SWAP1 DIV PUSH1 0xFF AND PUSH2 0x1C15 JUMPI PUSH1 0x40 MLOAD PUSH32 0x8C379A000000000000000000000000000000000000000000000000000000000 DUP2 MSTORE PUSH1 0x4 ADD PUSH2 0x1C0C SWAP1 PUSH2 0x28D5 JUMP JUMPDEST PUSH1 0x40 MLOAD DUP1 SWAP2 SUB SWAP1 REVERT JUMPDEST DUP4 DUP2 PUSH0 ADD DUP2 SWAP1 SSTORE POP DUP3 DUP2 PUSH1 0x1 ADD DUP2 SWAP1 SSTORE POP TIMESTAMP DUP2 PUSH1 0x2 ADD DUP2 SWAP1 SSTORE POP DUP5 DUP2 PUSH1 0x3 ADD PUSH0 SWAP1 SLOAD SWAP1 PUSH2 0x100 EXP SWAP1 DIV PUSH20 0xFFFFFFFFFFFFFFFFFFFFFFFFFFFFFFFFFFFFFFFF AND PUSH20 0xFFFFFFFFFFFFFFFFFFFFFFFFFFFFFFFFFFFFFFFF AND PUSH32 0x13F7AFAEE69A997E8042A73DF952599E66EEC6F76FAA8FE9ED83D73A77279127 TIMESTAMP PUSH1 0x40 MLOAD PUSH2 0x1C99 SWAP2 SWAP1 PUSH2 0x238C JUMP JUMPDEST PUSH1 0x40 MLOAD DUP1 SWAP2 SUB SWAP1 LOG3 POP POP POP POP POP JUMP JUMPDEST PUSH0 PUSH0 SWAP1 POP JUMPDEST DUP5 MLOAD DUP2 LT ISZERO PUSH2 0x1D6A JUMPI CALLER PUSH20 0xFFFFFFFFFFFFFFFFFFFFFFFFFFFFFFFFFFFFFFFF AND PUSH0 PUSH0 DUP8 DUP5 DUP2 MLOAD DUP2 LT PUSH2 0x1CE2 JUMPI PUSH2 0x1CE1 PUSH2 0x2EEB JUMP JUMPDEST JUMPDEST PUSH1 0x20 MUL PUSH1 0x20 ADD ADD MLOAD DUP2 MSTORE PUSH1 0x20 ADD SWAP1 DUP2 MSTORE PUSH1 0x20 ADD PUSH0 KECCAK256 PUSH1 0x3 ADD PUSH0 SWAP1 SLOAD SWAP1 PUSH2 0x100 EXP SWAP1 DIV PUSH20 0xFFFFFFFFFFFFFFFFFFFFFFFFFFFFFFFFFFFFFFFF AND PUSH20 0xFFFFFFFFFFFFFFFFFFFFFFFFFFFFFFFFFFFFFFFF AND SUB PUSH2 0x1D5D JUMPI PUSH2 0x1D5C DUP7 DUP7 DUP4 DUP2 MLOAD DUP2 LT PUSH2 0x1D4C JUMPI PUSH2 0x1D4B PUSH2 0x2EEB JUMP JUMPDEST JUMPDEST PUSH1 0x20 MUL PUSH1 0x20 ADD ADD MLOAD DUP7 DUP7 DUP7 PUSH2 0x134C JUMP JUMPDEST JUMPDEST DUP1 DUP1 PUSH1 0x1 ADD SWAP2 POP POP PUSH2 0x1CAD JUMP JUMPDEST POP POP POP POP POP POP JUMP JUMPDEST PUSH1 0x2 PUSH1 0x20 MSTORE DUP2 PUSH0 MSTORE PUSH1 0x40 PUSH0 KECCAK256 DUP2 DUP2 SLOAD DUP2 LT PUSH2 0x1D8B JUMPI PUSH0 DUP1 REVERT JUMPDEST SWAP1 PUSH0 MSTORE PUSH1 0x20 PUSH0 KECCAK256 ADD PUSH0 SWAP2 POP SWAP2 POP POP SLOAD DUP2 JUMP JUMPDEST PUSH0 PUSH1 0x20 MSTORE DUP1 PUSH0 MSTORE PUSH1 0x40 PUSH0 KECCAK256 PUSH0 SWAP2 POP SWAP1 POP DUP1 PUSH0 ADD SLOAD SWAP1 DUP1 PUSH1 0x1 ADD SLOAD SWAP1 DUP1 PUSH1 0x2 ADD SLOAD SWAP1 DUP1 PUSH1 0x3 ADD PUSH0 SWAP1 SLOAD SWAP1 PUSH2 0x100 EXP SWAP1 DIV PUSH20 0xFFFFFFFFFFFFFFFFFFFFFFFFFFFFFFFFFFFFFFFF AND SWAP1 DUP1 PUSH1 0x3 ADD PUSH1 0x14 SWAP1 SLOAD SWAP1 PUSH2 0x100 EXP SWAP1 DIV PUSH1 0xFF AND SWAP1 DUP1 PUSH1 0x4 ADD DUP1 SLOAD PUSH2 0x1E05 SWAP1 PUSH2 0x2A25 JUMP JUMPDEST DUP1 PUSH1 0x1F ADD PUSH1 0x20 DUP1 SWAP2 DIV MUL PUSH1 0x20 ADD PUSH1 0x40 MLOAD SWAP1 DUP2 ADD PUSH1 0x40 MSTORE DUP1 SWAP3 SWAP2 SWAP1 DUP2 DUP2 MSTORE PUSH1 0x20 ADD DUP3 DUP1 SLOAD PUSH2 0x1E31 SWAP1 PUSH2 0x2A25 JUMP JUMPDEST DUP1 ISZERO PUSH2 0x1E7C JUMPI DUP1 PUSH1 0x1F LT PUSH2 0x1E53 JUMPI PUSH2 0x100 DUP1 DUP4 SLOAD DIV MUL DUP4 MSTORE SWAP2 PUSH1 0x20 ADD SWAP2 PUSH2 0x1E7C JUMP JUMPDEST DUP3 ADD SWAP2 SWAP1 PUSH0 MSTORE PUSH1 0x20 PUSH0 KECCAK256 SWAP1 JUMPDEST DUP2 SLOAD DUP2 MSTORE SWAP1 PUSH1 0x1 ADD SWAP1 PUSH1 0x20 ADD DUP1 DUP4 GT PUSH2 0x1E5F JUMPI DUP3 SWAP1 SUB PUSH1 0x1F AND DUP3 ADD SWAP2 JUMPDEST POP POP POP POP POP SWAP1 DUP1 PUSH1 0x5 ADD PUSH0 SWAP1 SLOAD SWAP1 PUSH2 0x100 EXP SWAP1 DIV PUSH1 0xFF AND SWAP1 POP DUP8 JUMP JUMPDEST PUSH0 PUSH1 0x40 MLOAD SWAP1 POP SWAP1 JUMP JUMPDEST PUSH0 PUSH0 REVERT JUMPDEST PUSH0 PUSH0 REVERT JUMPDEST PUSH0 DUP2 SWAP1 POP SWAP2 SWAP1 POP JUMP JUMPDEST PUSH2 0x1EBB DUP2 PUSH2 0x1EA9 JUMP JUMPDEST DUP2 EQ PUSH2 0x1EC5 JUMPI PUSH0 PUSH0 REVERT JUMPDEST POP JUMP JUMPDEST PUSH0 DUP2 CALLDATALOAD SWAP1 POP PUSH2 0x1ED6 DUP2 PUSH2 0x1EB2 JUMP JUMPDEST SWAP3 SWAP2 POP POP JUMP JUMPDEST PUSH0 PUSH1 0x20 DUP3 DUP5 SUB SLT ISZERO PUSH2 0x1EF1 JUMPI PUSH2 0x1EF0 PUSH2 0x1EA1 JUMP JUMPDEST JUMPDEST PUSH0 PUSH2 0x1EFE DUP5 DUP3 DUP6 ADD PUSH2 0x1EC8 JUMP JUMPDEST SWAP2 POP POP SWAP3 SWAP2 POP POP JUMP JUMPDEST PUSH2 0x1F10 DUP2 PUSH2 0x1EA9 JUMP JUMPDEST DUP3 MSTORE POP POP JUMP JUMPDEST PUSH0 DUP2 SWAP1 POP SWAP2 SWAP1 POP JUMP JUMPDEST PUSH2 0x1F28 DUP2 PUSH2 0x1F16 JUMP JUMPDEST DUP3 MSTORE POP POP JUMP JUMPDEST PUSH0 PUSH20 0xFFFFFFFFFFFFFFFFFFFFFFFFFFFFFFFFFFFFFFFF DUP3 AND SWAP1 POP SWAP2 SWAP1 POP JUMP JUMPDEST PUSH0 PUSH2 0x1F57 DUP3 PUSH2 0x1F2E JUMP JUMPDEST SWAP1 POP SWAP2 SWAP1 POP JUMP JUMPDEST PUSH2 0x1F67 DUP2 PUSH2 0x1F4D JUMP JUMPDEST DUP3 MSTORE POP POP JUMP JUMPDEST PUSH0 DUP2 MLOAD SWAP1 POP SWAP2 SWAP1 POP JUMP JUMPDEST PUSH0 DUP3 DUP3 MSTORE PUSH1 0x20 DUP3 ADD SWAP1 POP SWAP3 SWAP2 POP POP JUMP JUMPDEST DUP3 DUP2 DUP4 MCOPY PUSH0 DUP4 DUP4 ADD MSTORE POP POP POP JUMP JUMPDEST PUSH0 PUSH1 0x1F NOT PUSH1 0x1F DUP4 ADD AND SWAP1 POP SWAP2 SWAP1 POP JUMP JUMPDEST PUSH0 PUSH2 0x1FAF DUP3 PUSH2 0x1F6D JUMP JUMPDEST PUSH2 0x1FB9 DUP2 DUP6 PUSH2 0x1F77 JUMP JUMPDEST SWAP4 POP PUSH2 0x1FC9 DUP2 DUP6 PUSH1 0x20 DUP7 ADD PUSH2 0x1F87 JUMP JUMPDEST PUSH2 0x1FD2 DUP2 PUSH2 0x1F95 JUMP JUMPDEST DUP5 ADD SWAP2 POP POP SWAP3 SWAP2 POP POP JUMP JUMPDEST PUSH0 PUSH1 0xA0 DUP3 ADD SWAP1 POP PUSH2 0x1FF0 PUSH0 DUP4 ADD DUP9 PUSH2 0x1F07 JUMP JUMPDEST PUSH2 0x1FFD PUSH1 0x20 DUP4 ADD DUP8 PUSH2 0x1F07 JUMP JUMPDEST PUSH2 0x200A PUSH1 0x40 DUP4 ADD DUP7 PUSH2 0x1F1F JUMP JUMPDEST PUSH2 0x2017 PUSH1 0x60 DUP4 ADD DUP6 PUSH2 0x1F5E JUMP JUMPDEST DUP2 DUP2 SUB PUSH1 0x80 DUP4 ADD MSTORE PUSH2 0x2029 DUP2 DUP5 PUSH2 0x1FA5 JUMP JUMPDEST SWAP1 POP SWAP7 SWAP6 POP POP POP POP POP POP JUMP JUMPDEST PUSH0 PUSH0 REVERT JUMPDEST PUSH0 PUSH0 REVERT JUMPDEST PUSH32 0x4E487B7100000000000000000000000000000000000000000000000000000000 PUSH0 MSTORE PUSH1 0x41 PUSH1 0x4 MSTORE PUSH1 0x24 PUSH0 REVERT JUMPDEST PUSH2 0x2073 DUP3 PUSH2 0x1F95 JUMP JUMPDEST DUP2 ADD DUP2 DUP2 LT PUSH8 0xFFFFFFFFFFFFFFFF DUP3 GT OR ISZERO PUSH2 0x2092 JUMPI PUSH2 0x2091 PUSH2 0x203D JUMP JUMPDEST JUMPDEST DUP1 PUSH1 0x40 MSTORE POP POP POP JUMP JUMPDEST PUSH0 PUSH2 0x20A4 PUSH2 0x1E98 JUMP JUMPDEST SWAP1 POP PUSH2 0x20B0 DUP3 DUP3 PUSH2 0x206A JUMP JUMPDEST SWAP2 SWAP1 POP JUMP JUMPDEST PUSH0 PUSH8 0xFFFFFFFFFFFFFFFF DUP3 GT ISZERO PUSH2 0x20CF JUMPI PUSH2 0x20CE PUSH2 0x203D JUMP JUMPDEST JUMPDEST PUSH2 0x20D8 DUP3 PUSH2 0x1F95 JUMP JUMPDEST SWAP1 POP PUSH1 0x20 DUP2 ADD SWAP1 POP SWAP2 SWAP1 POP JUMP JUMPDEST DUP3 DUP2 DUP4 CALLDATACOPY PUSH0 DUP4 DUP4 ADD MSTORE POP POP POP JUMP JUMPDEST PUSH0 PUSH2 0x2105 PUSH2 0x2100 DUP5 PUSH2 0x20B5 JUMP JUMPDEST PUSH2 0x209B JUMP JUMPDEST SWAP1 POP DUP3 DUP2 MSTORE PUSH1 0x20 DUP2 ADD DUP5 DUP5 DUP5 ADD GT ISZERO PUSH2 0x2121 JUMPI PUSH2 0x2120 PUSH2 0x2039 JUMP JUMPDEST JUMPDEST PUSH2 0x212C DUP5 DUP3 DUP6 PUSH2 0x20E5 JUMP JUMPDEST POP SWAP4 SWAP3 POP POP POP JUMP JUMPDEST PUSH0 DUP3 PUSH1 0x1F DUP4 ADD SLT PUSH2 0x2148 JUMPI PUSH2 0x2147 PUSH2 0x2035 JUMP JUMPDEST JUMPDEST DUP2 CALLDATALOAD PUSH2 0x2158 DUP5 DUP3 PUSH1 0x20 DUP7 ADD PUSH2 0x20F3 JUMP JUMPDEST SWAP2 POP POP SWAP3 SWAP2 POP POP JUMP JUMPDEST PUSH0 PUSH0 PUSH0 PUSH1 0x60 DUP5 DUP7 SUB SLT ISZERO PUSH2 0x2178 JUMPI PUSH2 0x2177 PUSH2 0x1EA1 JUMP JUMPDEST JUMPDEST PUSH0 PUSH2 0x2185 DUP7 DUP3 DUP8 ADD PUSH2 0x1EC8 JUMP JUMPDEST SWAP4 POP POP PUSH1 0x20 PUSH2 0x2196 DUP7 DUP3 DUP8 ADD PUSH2 0x1EC8 JUMP JUMPDEST SWAP3 POP POP PUSH1 0x40 DUP5 ADD CALLDATALOAD PUSH8 0xFFFFFFFFFFFFFFFF DUP2 GT ISZERO PUSH2 0x21B7 JUMPI PUSH2 0x21B6 PUSH2 0x1EA5 JUMP JUMPDEST JUMPDEST PUSH2 0x21C3 DUP7 DUP3 DUP8 ADD PUSH2 0x2134 JUMP JUMPDEST SWAP2 POP POP SWAP3 POP SWAP3 POP SWAP3 JUMP JUMPDEST PUSH0 PUSH1 0x20 DUP3 ADD SWAP1 POP PUSH2 0x21E0 PUSH0 DUP4 ADD DUP5 PUSH2 0x1F07 JUMP JUMPDEST SWAP3 SWAP2 POP POP JUMP JUMPDEST PUSH32 0x4E487B7100000000000000000000000000000000000000000000000000000000 PUSH0 MSTORE PUSH1 0x21 PUSH1 0x4 MSTORE PUSH1 0x24 PUSH0 REVERT JUMPDEST PUSH1 0x2 DUP2 LT PUSH2 0x2224 JUMPI PUSH2 0x2223 PUSH2 0x21E6 JUMP JUMPDEST JUMPDEST POP JUMP JUMPDEST PUSH0 DUP2 SWAP1 POP PUSH2 0x2234 DUP3 PUSH2 0x2213 JUMP JUMPDEST SWAP2 SWAP1 POP JUMP JUMPDEST PUSH0 PUSH2 0x2243 DUP3 PUSH2 0x2227 JUMP JUMPDEST SWAP1 POP SWAP2 SWAP1 POP JUMP JUMPDEST PUSH2 0x2253 DUP2 PUSH2 0x2239 JUMP JUMPDEST DUP3 MSTORE POP POP JUMP JUMPDEST PUSH0 PUSH1 0x20 DUP3 ADD SWAP1 POP PUSH2 0x226C PUSH0 DUP4 ADD DUP5 PUSH2 0x224A JUMP JUMPDEST SWAP3 SWAP2 POP POP JUMP JUMPDEST PUSH2 0x227B DUP2 PUSH2 0x1F4D JUMP JUMPDEST DUP2 EQ PUSH2 0x2285 JUMPI PUSH0 PUSH0 REVERT JUMPDEST POP JUMP JUMPDEST PUSH0 DUP2 CALLDATALOAD SWAP1 POP PUSH2 0x2296 DUP2 PUSH2 0x2272 JUMP JUMPDEST SWAP3 SWAP2 POP POP JUMP JUMPDEST PUSH0 PUSH0 PUSH1 0x40 DUP4 DUP6 SUB SLT ISZERO PUSH2 0x22B2 JUMPI PUSH2 0x22B1 PUSH2 0x1EA1 JUMP JUMPDEST JUMPDEST PUSH0 PUSH2 0x22BF DUP6 DUP3 DUP7 ADD PUSH2 0x2288 JUMP JUMPDEST SWAP3 POP POP PUSH1 0x20 PUSH2 0x22D0 DUP6 DUP3 DUP7 ADD PUSH2 0x1EC8 JUMP JUMPDEST SWAP2 POP POP SWAP3 POP SWAP3 SWAP1 POP JUMP JUMPDEST PUSH0 DUP2 ISZERO ISZERO SWAP1 POP SWAP2 SWAP1 POP JUMP JUMPDEST PUSH2 0x22EE DUP2 PUSH2 0x22DA JUMP JUMPDEST DUP3 MSTORE POP POP JUMP JUMPDEST PUSH0 PUSH1 0xE0 DUP3 ADD SWAP1 POP PUSH2 0x2307 PUSH0 DUP4 ADD DUP11 PUSH2 0x1F5E JUMP JUMPDEST PUSH2 0x2314 PUSH1 0x20 DUP4 ADD DUP10 PUSH2 0x1F07 JUMP JUMPDEST PUSH2 0x2321 PUSH1 0x40 DUP4 ADD DUP9 PUSH2 0x1F1F JUMP JUMPDEST PUSH2 0x232E PUSH1 0x60 DUP4 ADD DUP8 PUSH2 0x1F1F JUMP JUMPDEST PUSH2 0x233B PUSH1 0x80 DUP4 ADD DUP7 PUSH2 0x22E5 JUMP JUMPDEST PUSH2 0x2348 PUSH1 0xA0 DUP4 ADD DUP6 PUSH2 0x22E5 JUMP JUMPDEST PUSH2 0x2355 PUSH1 0xC0 DUP4 ADD DUP5 PUSH2 0x1F5E JUMP JUMPDEST SWAP9 SWAP8 POP POP POP POP POP POP POP POP JUMP JUMPDEST PUSH0 PUSH1 0x20 DUP3 DUP5 SUB SLT ISZERO PUSH2 0x2376 JUMPI PUSH2 0x2375 PUSH2 0x1EA1 JUMP JUMPDEST JUMPDEST PUSH0 PUSH2 0x2383 DUP5 DUP3 DUP6 ADD PUSH2 0x2288 JUMP JUMPDEST SWAP2 POP POP SWAP3 SWAP2 POP POP JUMP JUMPDEST PUSH0 PUSH1 0x20 DUP3 ADD SWAP1 POP PUSH2 0x239F PUSH0 DUP4 ADD DUP5 PUSH2 0x1F1F JUMP JUMPDEST SWAP3 SWAP2 POP POP JUMP JUMPDEST PUSH0 DUP2 MLOAD SWAP1 POP SWAP2 SWAP1 POP JUMP JUMPDEST PUSH0 DUP3 DUP3 MSTORE PUSH1 0x20 DUP3 ADD SWAP1 POP SWAP3 SWAP2 POP POP JUMP JUMPDEST PUSH0 DUP2 SWAP1 POP PUSH1 0x20 DUP3 ADD SWAP1 POP SWAP2 SWAP1 POP JUMP JUMPDEST PUSH2 0x23D7 DUP2 PUSH2 0x1EA9 JUMP JUMPDEST DUP3 MSTORE POP POP JUMP JUMPDEST PUSH0 PUSH2 0x23E8 DUP4 DUP4 PUSH2 0x23CE JUMP JUMPDEST PUSH1 0x20 DUP4 ADD SWAP1 POP SWAP3 SWAP2 POP POP JUMP JUMPDEST PUSH0 PUSH1 0x20 DUP3 ADD SWAP1 POP SWAP2 SWAP1 POP JUMP JUMPDEST PUSH0 PUSH2 0x240A DUP3 PUSH2 0x23A5 JUMP JUMPDEST PUSH2 0x2414 DUP2 DUP6 PUSH2 0x23AF JUMP JUMPDEST SWAP4 POP PUSH2 0x241F DUP4 PUSH2 0x23BF JUMP JUMPDEST DUP1 PUSH0 JUMPDEST DUP4 DUP2 LT ISZERO PUSH2 0x244F JUMPI DUP2 MLOAD PUSH2 0x2436 DUP9 DUP3 PUSH2 0x23DD JUMP JUMPDEST SWAP8 POP PUSH2 0x2441 DUP4 PUSH2 0x23F4 JUMP JUMPDEST SWAP3 POP POP PUSH1 0x1 DUP2 ADD SWAP1 POP PUSH2 0x2422 JUMP JUMPDEST POP DUP6 SWAP4 POP POP POP POP SWAP3 SWAP2 POP POP JUMP JUMPDEST PUSH0 PUSH1 0x20 DUP3 ADD SWAP1 POP DUP2 DUP2 SUB PUSH0 DUP4 ADD MSTORE PUSH2 0x2474 DUP2 DUP5 PUSH2 0x2400 JUMP JUMPDEST SWAP1 POP SWAP3 SWAP2 POP POP JUMP JUMPDEST PUSH0 PUSH1 0x20 DUP3 ADD SWAP1 POP PUSH2 0x248F PUSH0 DUP4 ADD DUP5 PUSH2 0x22E5 JUMP JUMPDEST SWAP3 SWAP2 POP POP JUMP JUMPDEST PUSH0 PUSH1 0x40 DUP3 ADD SWAP1 POP PUSH2 0x24A8 PUSH0 DUP4 ADD DUP6 PUSH2 0x1F1F JUMP JUMPDEST PUSH2 0x24B5 PUSH1 0x20 DUP4 ADD DUP5 PUSH2 0x1F1F JUMP JUMPDEST SWAP4 SWAP3 POP POP POP JUMP JUMPDEST PUSH2 0x24C5 DUP2 PUSH2 0x22DA JUMP JUMPDEST DUP2 EQ PUSH2 0x24CF JUMPI PUSH0 PUSH0 REVERT JUMPDEST POP JUMP JUMPDEST PUSH0 DUP2 CALLDATALOAD SWAP1 POP PUSH2 0x24E0 DUP2 PUSH2 0x24BC JUMP JUMPDEST SWAP3 SWAP2 POP POP JUMP JUMPDEST PUSH2 0x24EF DUP2 PUSH2 0x1F16 JUMP JUMPDEST DUP2 EQ PUSH2 0x24F9 JUMPI PUSH0 PUSH0 REVERT JUMPDEST POP JUMP JUMPDEST PUSH0 DUP2 CALLDATALOAD SWAP1 POP PUSH2 0x250A DUP2 PUSH2 0x24E6 JUMP JUMPDEST SWAP3 SWAP2 POP POP JUMP JUMPDEST PUSH0 PUSH0 PUSH0 PUSH0 PUSH0 PUSH1 0xA0 DUP7 DUP9 SUB SLT ISZERO PUSH2 0x2529 JUMPI PUSH2 0x2528 PUSH2 0x1EA1 JUMP JUMPDEST JUMPDEST PUSH0 PUSH2 0x2536 DUP9 DUP3 DUP10 ADD PUSH2 0x2288 JUMP JUMPDEST SWAP6 POP POP PUSH1 0x20 PUSH2 0x2547 DUP9 DUP3 DUP10 ADD PUSH2 0x1EC8 JUMP JUMPDEST SWAP5 POP POP PUSH1 0x40 PUSH2 0x2558 DUP9 DUP3 DUP10 ADD PUSH2 0x24D2 JUMP JUMPDEST SWAP4 POP POP PUSH1 0x60 PUSH2 0x2569 DUP9 DUP3 DUP10 ADD PUSH2 0x24D2 JUMP JUMPDEST SWAP3 POP POP PUSH1 0x80 PUSH2 0x257A DUP9 DUP3 DUP10 ADD PUSH2 0x24FC JUMP JUMPDEST SWAP2 POP POP SWAP3 SWAP6 POP SWAP3 SWAP6 SWAP1 SWAP4 POP JUMP JUMPDEST PUSH0 PUSH1 0x80 DUP3 ADD SWAP1 POP PUSH2 0x259A PUSH0 DUP4 ADD DUP8 PUSH2 0x22E5 JUMP JUMPDEST PUSH2 0x25A7 PUSH1 0x20 DUP4 ADD DUP7 PUSH2 0x22E5 JUMP JUMPDEST PUSH2 0x25B4 PUSH1 0x40 DUP4 ADD DUP6 PUSH2 0x22E5 JUMP JUMPDEST PUSH2 0x25C1 PUSH1 0x60 DUP4 ADD DUP5 PUSH2 0x1F1F JUMP JUMPDEST SWAP6 SWAP5 POP POP POP POP POP JUMP JUMPDEST PUSH0 PUSH0 PUSH0 PUSH1 0x60 DUP5 DUP7 SUB SLT ISZERO PUSH2 0x25E1 JUMPI PUSH2 0x25E0 PUSH2 0x1EA1 JUMP JUMPDEST JUMPDEST PUSH0 PUSH2 0x25EE DUP7 DUP3 DUP8 ADD PUSH2 0x1EC8 JUMP JUMPDEST SWAP4 POP POP PUSH1 0x20 PUSH2 0x25FF DUP7 DUP3 DUP8 ADD PUSH2 0x1EC8 JUMP JUMPDEST SWAP3 POP POP PUSH1 0x40 PUSH2 0x2610 DUP7 DUP3 DUP8 ADD PUSH2 0x1EC8 JUMP JUMPDEST SWAP2 POP POP SWAP3 POP SWAP3 POP SWAP3 JUMP JUMPDEST PUSH0 PUSH8 0xFFFFFFFFFFFFFFFF DUP3 GT ISZERO PUSH2 0x2634 JUMPI PUSH2 0x2633 PUSH2 0x203D JUMP JUMPDEST JUMPDEST PUSH1 0x20 DUP3 MUL SWAP1 POP PUSH1 0x20 DUP2 ADD SWAP1 POP SWAP2 SWAP1 POP JUMP JUMPDEST PUSH0 PUSH0 REVERT JUMPDEST PUSH0 PUSH2 0x265B PUSH2 0x2656 DUP5 PUSH2 0x261A JUMP JUMPDEST PUSH2 0x209B JUMP JUMPDEST SWAP1 POP DUP1 DUP4 DUP3 MSTORE PUSH1 0x20 DUP3 ADD SWAP1 POP PUSH1 0x20 DUP5 MUL DUP4 ADD DUP6 DUP2 GT ISZERO PUSH2 0x267E JUMPI PUSH2 0x267D PUSH2 0x2645 JUMP JUMPDEST JUMPDEST DUP4 JUMPDEST DUP2 DUP2 LT ISZERO PUSH2 0x26A7 JUMPI DUP1 PUSH2 0x2693 DUP9 DUP3 PUSH2 0x1EC8 JUMP JUMPDEST DUP5 MSTORE PUSH1 0x20 DUP5 ADD SWAP4 POP POP PUSH1 0x20 DUP2 ADD SWAP1 POP PUSH2 0x2680 JUMP JUMPDEST POP POP POP SWAP4 SWAP3 POP POP POP JUMP JUMPDEST PUSH0 DUP3 PUSH1 0x1F DUP4 ADD SLT PUSH2 0x26C5 JUMPI PUSH2 0x26C4 PUSH2 0x2035 JUMP JUMPDEST JUMPDEST DUP2 CALLDATALOAD PUSH2 0x26D5 DUP5 DUP3 PUSH1 0x20 DUP7 ADD PUSH2 0x2649 JUMP JUMPDEST SWAP2 POP POP SWAP3 SWAP2 POP POP JUMP JUMPDEST PUSH0 PUSH0 PUSH0 PUSH0 PUSH0 PUSH1 0xA0 DUP7 DUP9 SUB SLT ISZERO PUSH2 0x26F7 JUMPI PUSH2 0x26F6 PUSH2 0x1EA1 JUMP JUMPDEST JUMPDEST PUSH0 PUSH2 0x2704 DUP9 DUP3 DUP10 ADD PUSH2 0x2288 JUMP JUMPDEST SWAP6 POP POP PUSH1 0x20 DUP7 ADD CALLDATALOAD PUSH8 0xFFFFFFFFFFFFFFFF DUP2 GT ISZERO PUSH2 0x2725 JUMPI PUSH2 0x2724 PUSH2 0x1EA5 JUMP JUMPDEST JUMPDEST PUSH2 0x2731 DUP9 DUP3 DUP10 ADD PUSH2 0x26B1 JUMP JUMPDEST SWAP5 POP POP PUSH1 0x40 PUSH2 0x2742 DUP9 DUP3 DUP10 ADD PUSH2 0x24D2 JUMP JUMPDEST SWAP4 POP POP PUSH1 0x60 PUSH2 0x2753 DUP9 DUP3 DUP10 ADD PUSH2 0x24D2 JUMP JUMPDEST SWAP3 POP POP PUSH1 0x80 PUSH2 0x2764 DUP9 DUP3 DUP10 ADD PUSH2 0x24FC JUMP JUMPDEST SWAP2 POP POP SWAP3 SWAP6 POP SWAP3 SWAP6 SWAP1 SWAP4 POP JUMP JUMPDEST PUSH0 PUSH0 PUSH1 0x40 DUP4 DUP6 SUB SLT ISZERO PUSH2 0x2787 JUMPI PUSH2 0x2786 PUSH2 0x1EA1 JUMP JUMPDEST JUMPDEST PUSH0 PUSH2 0x2794 DUP6 DUP3 DUP7 ADD PUSH2 0x2288 JUMP JUMPDEST SWAP3 POP POP PUSH1 0x20 PUSH2 0x27A5 DUP6 DUP3 DUP7 ADD PUSH2 0x24FC JUMP JUMPDEST SWAP2 POP POP SWAP3 POP SWAP3 SWAP1 POP JUMP JUMPDEST PUSH0 PUSH1 0xE0 DUP3 ADD SWAP1 POP PUSH2 0x27C2 PUSH0 DUP4 ADD DUP11 PUSH2 0x1F07 JUMP JUMPDEST PUSH2 0x27CF PUSH1 0x20 DUP4 ADD DUP10 PUSH2 0x1F07 JUMP JUMPDEST PUSH2 0x27DC PUSH1 0x40 DUP4 ADD DUP9 PUSH2 0x1F1F JUMP JUMPDEST PUSH2 0x27E9 PUSH1 0x60 DUP4 ADD DUP8 PUSH2 0x1F5E JUMP JUMPDEST PUSH2 0x27F6 PUSH1 0x80 DUP4 ADD DUP7 PUSH2 0x22E5 JUMP JUMPDEST DUP2 DUP2 SUB PUSH1 0xA0 DUP4 ADD MSTORE PUSH2 0x2808 DUP2 DUP6 PUSH2 0x1FA5 JUMP JUMPDEST SWAP1 POP PUSH2 0x2817 PUSH1 0xC0 DUP4 ADD DUP5 PUSH2 0x224A JUMP JUMPDEST SWAP9 SWAP8 POP POP POP POP POP POP POP POP JUMP JUMPDEST PUSH32 0x4E6F742064617461206F776E6572000000000000000000000000000000000000 PUSH0 DUP3 ADD MSTORE POP JUMP JUMPDEST PUSH0 PUSH2 0x2857 PUSH1 0xE DUP4 PUSH2 0x1F77 JUMP JUMPDEST SWAP2 POP PUSH2 0x2862 DUP3 PUSH2 0x2823 JUMP JUMPDEST PUSH1 0x20 DUP3 ADD SWAP1 POP SWAP2 SWAP1 POP JUMP JUMPDEST PUSH0 PUSH1 0x20 DUP3 ADD SWAP1 POP DUP2 DUP2 SUB PUSH0 DUP4 ADD MSTORE PUSH2 0x2884 DUP2 PUSH2 0x284B JUMP JUMPDEST SWAP1 POP SWAP2 SWAP1 POP JUMP JUMPDEST PUSH32 0x44617461206E6F74206163746976650000000000000000000000000000000000 PUSH0 DUP3 ADD MSTORE POP JUMP JUMPDEST PUSH0 PUSH2 0x28BF PUSH1 0xF DUP4 PUSH2 0x1F77 JUMP JUMPDEST SWAP2 POP PUSH2 0x28CA DUP3 PUSH2 0x288B JUMP JUMPDEST PUSH1 0x20 DUP3 ADD SWAP1 POP SWAP2 SWAP1 POP JUMP JUMPDEST PUSH0 PUSH1 0x20 DUP3 ADD SWAP1 POP DUP2 DUP2 SUB PUSH0 DUP4 ADD MSTORE PUSH2 0x28EC DUP2 PUSH2 0x28B3 JUMP JUMPDEST SWAP1 POP SWAP2 SWAP1 POP JUMP JUMPDEST PUSH32 0x416C726561647920707269766174650000000000000000000000000000000000 PUSH0 DUP3 ADD MSTORE POP JUMP JUMPDEST PUSH0 PUSH2 0x2927 PUSH1 0xF DUP4 PUSH2 0x1F77 JUMP JUMPDEST SWAP2 POP PUSH2 0x2932 DUP3 PUSH2 0x28F3 JUMP JUMPDEST PUSH1 0x20 DUP3 ADD SWAP1 POP SWAP2 SWAP1 POP JUMP JUMPDEST PUSH0 PUSH1 0x20 DUP3 ADD SWAP1 POP DUP2 DUP2 SUB PUSH0 DUP4 ADD MSTORE PUSH2 0x2954 DUP2 PUSH2 0x291B JUMP JUMPDEST SWAP1 POP SWAP2 SWAP1 POP JUMP JUMPDEST PUSH0 PUSH1 0x60 DUP3 ADD SWAP1 POP PUSH2 0x296E PUSH0 DUP4 ADD DUP7 PUSH2 0x224A JUMP JUMPDEST PUSH2 0x297B PUSH1 0x20 DUP4 ADD DUP6 PUSH2 0x224A JUMP JUMPDEST PUSH2 0x2988 PUSH1 0x40 DUP4 ADD DUP5 PUSH2 0x1F1F JUMP JUMPDEST SWAP5 SWAP4 POP POP POP POP JUMP JUMPDEST PUSH32 0x4E6F2072656164207065726D697373696F6E0000000000000000000000000000 PUSH0 DUP3 ADD MSTORE POP JUMP JUMPDEST PUSH0 PUSH2 0x29C4 PUSH1 0x12 DUP4 PUSH2 0x1F77 JUMP JUMPDEST SWAP2 POP PUSH2 0x29CF DUP3 PUSH2 0x2990 JUMP JUMPDEST PUSH1 0x20 DUP3 ADD SWAP1 POP SWAP2 SWAP1 POP JUMP JUMPDEST PUSH0 PUSH1 0x20 DUP3 ADD SWAP1 POP DUP2 DUP2 SUB PUSH0 DUP4 ADD MSTORE PUSH2 0x29F1 DUP2 PUSH2 0x29B8 JUMP JUMPDEST SWAP1 POP SWAP2 SWAP1 POP JUMP JUMPDEST PUSH32 0x4E487B7100000000000000000000000000000000000000000000000000000000 PUSH0 MSTORE PUSH1 0x22 PUSH1 0x4 MSTORE PUSH1 0x24 PUSH0 REVERT JUMPDEST PUSH0 PUSH1 0x2 DUP3 DIV SWAP1 POP PUSH1 0x1 DUP3 AND DUP1 PUSH2 0x2A3C JUMPI PUSH1 0x7F DUP3 AND SWAP2 POP JUMPDEST PUSH1 0x20 DUP3 LT DUP2 SUB PUSH2 0x2A4F JUMPI PUSH2 0x2A4E PUSH2 0x29F8 JUMP JUMPDEST JUMPDEST POP SWAP2 SWAP1 POP JUMP JUMPDEST PUSH0 DUP2 PUSH1 0x60 SHL SWAP1 POP SWAP2 SWAP1 POP JUMP JUMPDEST PUSH0 PUSH2 0x2A6B DUP3 PUSH2 0x2A55 JUMP JUMPDEST SWAP1 POP SWAP2 SWAP1 POP JUMP JUMPDEST PUSH0 PUSH2 0x2A7C DUP3 PUSH2 0x2A61 JUMP JUMPDEST SWAP1 POP SWAP2 SWAP1 POP JUMP JUMPDEST PUSH2 0x2A94 PUSH2 0x2A8F DUP3 PUSH2 0x1F4D JUMP JUMPDEST PUSH2 0x2A72 JUMP JUMPDEST DUP3 MSTORE POP POP JUMP JUMPDEST PUSH0 DUP2 SWAP1 POP SWAP2 SWAP1 POP JUMP JUMPDEST PUSH2 0x2AB4 PUSH2 0x2AAF DUP3 PUSH2 0x1EA9 JUMP JUMPDEST PUSH2 0x2A9A JUMP JUMPDEST DUP3 MSTORE POP POP JUMP JUMPDEST PUSH0 DUP2 SWAP1 POP SWAP2 SWAP1 POP JUMP JUMPDEST PUSH2 0x2AD4 PUSH2 0x2ACF DUP3 PUSH2 0x1F16 JUMP JUMPDEST PUSH2 0x2ABA JUMP JUMPDEST DUP3 MSTORE POP POP JUMP JUMPDEST PUSH0 PUSH2 0x2AE5 DUP3 DUP7 PUSH2 0x2A83 JUMP JUMPDEST PUSH1 0x14 DUP3 ADD SWAP2 POP PUSH2 0x2AF5 DUP3 DUP6 PUSH2 0x2AA3 JUMP JUMPDEST PUSH1 0x20 DUP3 ADD SWAP2 POP PUSH2 0x2B05 DUP3 DUP5 PUSH2 0x2AC3 JUMP JUMPDEST PUSH1 0x20 DUP3 ADD SWAP2 POP DUP2 SWAP1 POP SWAP5 SWAP4 POP POP POP POP JUMP JUMPDEST PUSH32 0x4461746120616C72656164792065786973747300000000000000000000000000 PUSH0 DUP3 ADD MSTORE POP JUMP JUMPDEST PUSH0 PUSH2 0x2B4A PUSH1 0x13 DUP4 PUSH2 0x1F77 JUMP JUMPDEST SWAP2 POP PUSH2 0x2B55 DUP3 PUSH2 0x2B16 JUMP JUMPDEST PUSH1 0x20 DUP3 ADD SWAP1 POP SWAP2 SWAP1 POP JUMP JUMPDEST PUSH0 PUSH1 0x20 DUP3 ADD SWAP1 POP DUP2 DUP2 SUB PUSH0 DUP4 ADD MSTORE PUSH2 0x2B77 DUP2 PUSH2 0x2B3E JUMP JUMPDEST SWAP1 POP SWAP2 SWAP1 POP JUMP JUMPDEST PUSH0 DUP2 SWAP1 POP DUP2 PUSH0 MSTORE PUSH1 0x20 PUSH0 KECCAK256 SWAP1 POP SWAP2 SWAP1 POP JUMP JUMPDEST PUSH0 PUSH1 0x20 PUSH1 0x1F DUP4 ADD DIV SWAP1 POP SWAP2 SWAP1 POP JUMP JUMPDEST PUSH0 DUP3 DUP3 SHL SWAP1 POP SWAP3 SWAP2 POP POP JUMP JUMPDEST PUSH0 PUSH1 0x8 DUP4 MUL PUSH2 0x2BDA PUSH32 0xFFFFFFFFFFFFFFFFFFFFFFFFFFFFFFFFFFFFFFFFFFFFFFFFFFFFFFFFFFFFFFFF DUP3 PUSH2 0x2B9F JUMP JUMPDEST PUSH2 0x2BE4 DUP7 DUP4 PUSH2 0x2B9F JUMP JUMPDEST SWAP6 POP DUP1 NOT DUP5 AND SWAP4 POP DUP1 DUP7 AND DUP5 OR SWAP3 POP POP POP SWAP4 SWAP3 POP POP POP JUMP JUMPDEST PUSH0 DUP2 SWAP1 POP SWAP2 SWAP1 POP JUMP JUMPDEST PUSH0 PUSH2 0x2C1F PUSH2 0x2C1A PUSH2 0x2C15 DUP5 PUSH2 0x1F16 JUMP JUMPDEST PUSH2 0x2BFC JUMP JUMPDEST PUSH2 0x1F16 JUMP JUMPDEST SWAP1 POP SWAP2 SWAP1 POP JUMP JUMPDEST PUSH0 DUP2 SWAP1 POP SWAP2 SWAP1 POP JUMP JUMPDEST PUSH2 0x2C38 DUP4 PUSH2 0x2C05 JUMP JUMPDEST PUSH2 0x2C4C PUSH2 0x2C44 DUP3 PUSH2 0x2C26 JUMP JUMPDEST DUP5 DUP5 SLOAD PUSH2 0x2BAB JUMP JUMPDEST DUP3 SSTORE POP POP POP POP JUMP JUMPDEST PUSH0 PUSH0 SWAP1 POP SWAP1 JUMP JUMPDEST PUSH2 0x2C63 PUSH2 0x2C54 JUMP JUMPDEST PUSH2 0x2C6E DUP2 DUP5 DUP5 PUSH2 0x2C2F JUMP JUMPDEST POP POP POP JUMP JUMPDEST JUMPDEST DUP2 DUP2 LT ISZERO PUSH2 0x2C91 JUMPI PUSH2 0x2C86 PUSH0 DUP3 PUSH2 0x2C5B JUMP JUMPDEST PUSH1 0x1 DUP2 ADD SWAP1 POP PUSH2 0x2C74 JUMP JUMPDEST POP POP JUMP JUMPDEST PUSH1 0x1F DUP3 GT ISZERO PUSH2 0x2CD6 JUMPI PUSH2 0x2CA7 DUP2 PUSH2 0x2B7E JUMP JUMPDEST PUSH2 0x2CB0 DUP5 PUSH2 0x2B90 JUMP JUMPDEST DUP2 ADD PUSH1 0x20 DUP6 LT ISZERO PUSH2 0x2CBF JUMPI DUP2 SWAP1 POP JUMPDEST PUSH2 0x2CD3 PUSH2 0x2CCB DUP6 PUSH2 0x2B90 JUMP JUMPDEST DUP4 ADD DUP3 PUSH2 0x2C73 JUMP JUMPDEST POP POP JUMPDEST POP POP POP JUMP JUMPDEST PUSH0 DUP3 DUP3 SHR SWAP1 POP SWAP3 SWAP2 POP POP JUMP JUMPDEST PUSH0 PUSH2 0x2CF6 PUSH0 NOT DUP5 PUSH1 0x8 MUL PUSH2 0x2CDB JUMP JUMPDEST NOT DUP1 DUP4 AND SWAP2 POP POP SWAP3 SWAP2 POP POP JUMP JUMPDEST PUSH0 PUSH2 0x2D0E DUP4 DUP4 PUSH2 0x2CE7 JUMP JUMPDEST SWAP2 POP DUP3 PUSH1 0x2 MUL DUP3 OR SWAP1 POP SWAP3 SWAP2 POP POP JUMP JUMPDEST PUSH2 0x2D27 DUP3 PUSH2 0x1F6D JUMP JUMPDEST PUSH8 0xFFFFFFFFFFFFFFFF DUP2 GT ISZERO PUSH2 0x2D40 JUMPI PUSH2 0x2D3F PUSH2 0x203D JUMP JUMPDEST JUMPDEST PUSH2 0x2D4A DUP3 SLOAD PUSH2 0x2A25 JUMP JUMPDEST PUSH2 0x2D55 DUP3 DUP3 DUP6 PUSH2 0x2C95 JUMP JUMPDEST PUSH0 PUSH1 0x20 SWAP1 POP PUSH1 0x1F DUP4 GT PUSH1 0x1 DUP2 EQ PUSH2 0x2D86 JUMPI PUSH0 DUP5 ISZERO PUSH2 0x2D74 JUMPI DUP3 DUP8 ADD MLOAD SWAP1 POP JUMPDEST PUSH2 0x2D7E DUP6 DUP3 PUSH2 0x2D03 JUMP JUMPDEST DUP7 SSTORE POP PUSH2 0x2DE5 JUMP JUMPDEST PUSH1 0x1F NOT DUP5 AND PUSH2 0x2D94 DUP7 PUSH2 0x2B7E JUMP JUMPDEST PUSH0 JUMPDEST DUP3 DUP2 LT ISZERO PUSH2 0x2DBB JUMPI DUP5 DUP10 ADD MLOAD DUP3 SSTORE PUSH1 0x1 DUP3 ADD SWAP2 POP PUSH1 0x20 DUP6 ADD SWAP5 POP PUSH1 0x20 DUP2 ADD SWAP1 POP PUSH2 0x2D96 JUMP JUMPDEST DUP7 DUP4 LT ISZERO PUSH2 0x2DD8 JUMPI DUP5 DUP10 ADD MLOAD PUSH2 0x2DD4 PUSH1 0x1F DUP10 AND DUP3 PUSH2 0x2CE7 JUMP JUMPDEST DUP4 SSTORE POP JUMPDEST PUSH1 0x1 PUSH1 0x2 DUP9 MUL ADD DUP9 SSTORE POP POP POP JUMPDEST POP POP POP POP POP POP JUMP JUMPDEST PUSH0 PUSH1 0x40 DUP3 ADD SWAP1 POP DUP2 DUP2 SUB PUSH0 DUP4 ADD MSTORE PUSH2 0x2E05 DUP2 DUP6 PUSH2 0x1FA5 JUMP JUMPDEST SWAP1 POP PUSH2 0x2E14 PUSH1 0x20 DUP4 ADD DUP5 PUSH2 0x1F1F JUMP JUMPDEST SWAP4 SWAP3 POP POP POP JUMP JUMPDEST PUSH32 0x44617461206E6F7420666F756E64000000000000000000000000000000000000 PUSH0 DUP3 ADD MSTORE POP JUMP JUMPDEST PUSH0 PUSH2 0x2E4F PUSH1 0xE DUP4 PUSH2 0x1F77 JUMP JUMPDEST SWAP2 POP PUSH2 0x2E5A DUP3 PUSH2 0x2E1B JUMP JUMPDEST PUSH1 0x20 DUP3 ADD SWAP1 POP SWAP2 SWAP1 POP JUMP JUMPDEST PUSH0 PUSH1 0x20 DUP3 ADD SWAP1 POP DUP2 DUP2 SUB PUSH0 DUP4 ADD MSTORE PUSH2 0x2E7C DUP2 PUSH2 0x2E43 JUMP JUMPDEST SWAP1 POP SWAP2 SWAP1 POP JUMP JUMPDEST PUSH32 0x4461746120616C726561647920696E6163746976650000000000000000000000 PUSH0 DUP3 ADD MSTORE POP JUMP JUMPDEST PUSH0 PUSH2 0x2EB7 PUSH1 0x15 DUP4 PUSH2 0x1F77 JUMP JUMPDEST SWAP2 POP PUSH2 0x2EC2 DUP3 PUSH2 0x2E83 JUMP JUMPDEST PUSH1 0x20 DUP3 ADD SWAP1 POP SWAP2 SWAP1 POP JUMP JUMPDEST PUSH0 PUSH1 0x20 DUP3 ADD SWAP1 POP DUP2 DUP2 SUB PUSH0 DUP4 ADD MSTORE PUSH2 0x2EE4 DUP2 PUSH2 0x2EAB JUMP JUMPDEST SWAP1 POP SWAP2 SWAP1 POP JUMP JUMPDEST PUSH32 0x4E487B7100000000000000000000000000000000000000000000000000000000 PUSH0 MSTORE PUSH1 0x32 PUSH1 0x4 MSTORE PUSH1 0x24 PUSH0 REVERT JUMPDEST PUSH32 0x4E487B7100000000000000000000000000000000000000000000000000000000 PUSH0 MSTORE PUSH1 0x11 PUSH1 0x4 MSTORE PUSH1 0x24 PUSH0 REVERT JUMPDEST PUSH0 PUSH2 0x2F4F DUP3 PUSH2 0x1F16 JUMP JUMPDEST SWAP2 POP PUSH2 0x2F5A DUP4 PUSH2 0x1F16 JUMP JUMPDEST SWAP3 POP DUP3 DUP3 SUB SWAP1 POP DUP2 DUP2 GT ISZERO PUSH2 0x2F72 JUMPI PUSH2 0x2F71 PUSH2 0x2F18 JUMP JUMPDEST JUMPDEST SWAP3 SWAP2 POP POP JUMP JUMPDEST PUSH32 0x4E487B7100000000000000000000000000000000000000000000000000000000 PUSH0 MSTORE PUSH1 0x31 PUSH1 0x4 MSTORE PUSH1 0x24 PUSH0 REVERT JUMPDEST PUSH32 0x496E76616C696420726571756573746572000000000000000000000000000000 PUSH0 DUP3 ADD MSTORE POP JUMP JUMPDEST PUSH0 PUSH2 0x2FD9 PUSH1 0x11 DUP4 PUSH2 0x1F77 JUMP JUMPDEST SWAP2 POP PUSH2 0x2FE4 DUP3 PUSH2 0x2FA5 JUMP JUMPDEST PUSH1 0x20 DUP3 ADD SWAP1 POP SWAP2 SWAP1 POP JUMP JUMPDEST PUSH0 PUSH1 0x20 DUP3 ADD SWAP1 POP DUP2 DUP2 SUB PUSH0 DUP4 ADD MSTORE PUSH2 0x3006 DUP2 PUSH2 0x2FCD JUMP JUMPDEST SWAP1 POP SWAP2 SWAP1 POP JUMP JUMPDEST PUSH32 0x496E76616C6964206475726174696F6E00000000000000000000000000000000 PUSH0 DUP3 ADD MSTORE POP JUMP JUMPDEST PUSH0 PUSH2 0x3041 PUSH1 0x10 DUP4 PUSH2 0x1F77 JUMP JUMPDEST SWAP2 POP PUSH2 0x304C DUP3 PUSH2 0x300D JUMP JUMPDEST PUSH1 0x20 DUP3 ADD SWAP1 POP SWAP2 SWAP1 POP JUMP JUMPDEST PUSH0 PUSH1 0x20 DUP3 ADD SWAP1 POP DUP2 DUP2 SUB PUSH0 DUP4 ADD MSTORE PUSH2 0x306E DUP2 PUSH2 0x3035 JUMP JUMPDEST SWAP1 POP SWAP2 SWAP1 POP JUMP JUMPDEST PUSH32 0x5075626C6963206461746120646F6573206E6F74206E656564206772616E7400 PUSH0 DUP3 ADD MSTORE POP JUMP JUMPDEST PUSH0 PUSH2 0x30A9 PUSH1 0x1F DUP4 PUSH2 0x1F77 JUMP JUMPDEST SWAP2 POP PUSH2 0x30B4 DUP3 PUSH2 0x3075 JUMP JUMPDEST PUSH1 0x20 DUP3 ADD SWAP1 POP SWAP2 SWAP1 POP JUMP JUMPDEST PUSH0 PUSH1 0x20 DUP3 ADD SWAP1 POP DUP2 DUP2 SUB PUSH0 DUP4 ADD MSTORE PUSH2 0x30D6 DUP2 PUSH2 0x309D JUMP JUMPDEST SWAP1 POP SWAP2 SWAP1 POP JUMP JUMPDEST PUSH0 PUSH2 0x30E7 DUP3 PUSH2 0x1F16 JUMP JUMPDEST SWAP2 POP PUSH2 0x30F2 DUP4 PUSH2 0x1F16 JUMP JUMPDEST SWAP3 POP DUP3 DUP3 ADD SWAP1 POP DUP1 DUP3 GT ISZERO PUSH2 0x310A JUMPI PUSH2 0x3109 PUSH2 0x2F18 JUMP JUMPDEST JUMPDEST SWAP3 SWAP2 POP POP JUMP JUMPDEST PUSH32 0x416C7265616479207075626C6963000000000000000000000000000000000000 PUSH0 DUP3 ADD MSTORE POP JUMP JUMPDEST PUSH0 PUSH2 0x3144 PUSH1 0xE DUP4 PUSH2 0x1F77 JUMP JUMPDEST SWAP2 POP PUSH2 0x314F DUP3 PUSH2 0x3110 JUMP JUMPDEST PUSH1 0x20 DUP3 ADD SWAP1 POP SWAP2 SWAP1 POP JUMP JUMPDEST PUSH0 PUSH1 0x20 DUP3 ADD SWAP1 POP DUP2 DUP2 SUB PUSH0 DUP4 ADD MSTORE PUSH2 0x3171 DUP2 PUSH2 0x3138 JUMP JUMPDEST SWAP1 POP SWAP2 SWAP1 POP JUMP JUMPDEST PUSH32 0x4E6F207772697465207065726D697373696F6E00000000000000000000000000 PUSH0 DUP3 ADD MSTORE POP JUMP JUMPDEST PUSH0 PUSH2 0x31AC PUSH1 0x13 DUP4 PUSH2 0x1F77 JUMP JUMPDEST SWAP2 POP PUSH2 0x31B7 DUP3 PUSH2 0x3178 JUMP JUMPDEST PUSH1 0x20 DUP3 ADD SWAP1 POP SWAP2 SWAP1 POP JUMP JUMPDEST PUSH0 PUSH1 0x20 DUP3 ADD SWAP1 POP DUP2 DUP2 SUB PUSH0 DUP4 ADD MSTORE PUSH2 0x31D9 DUP2 PUSH2 0x31A0 JUMP JUMPDEST SWAP1 POP SWAP2 SWAP1 POP JUMP INVALID LOG2 PUSH5 0x6970667358 0x22 SLT KECCAK256 SAR 0xA9 LOG2 ADDRESS MLOAD MSIZE 0xD3 JUMPF 0xE37F 0xCC RETURNDATACOPY 0xE2 0xD3 DUP3 PUSH7 0xDF6BCFF645B74A RETURNCONTRACT 0x89 0xAC SMOD 0xB0 LOG0 0xDA PUSH19 0x9A64736F6C634300081E003300000000000000 "
		},
		"gasEstimates": {
			"creation": {
				"codeDepositCost": "2564400",
				"executionCost": "2769",
				"totalCost": "2567169"
			},
			"external": {
				"batchGrantAccess(address,bytes32[],bool,bool,uint256)": "infinite",
				"checkAccess(address,bytes32)": "12070",
				"checkPermission(address,bytes32)": "infinite",
				"deleteData(bytes32)": "infinite",
				"getContractInfo()": "infinite",
				"getDataStatus(bytes32)": "5180",
				"getHealthData(bytes32)": "infinite",
				"getUserDataCount(address)": "2882",
				"getUserDataIds(address)": "infinite",
				"grantAccess(address,bytes32,bool,bool,uint256)": "infinite",
				"healthRecords(bytes32)": "infinite",
				"makeDataPrivate(bytes32)": "infinite",
				"makeDataPublic(bytes32)": "infinite",
				"permissions(address,bytes32)": "infinite",
				"revokeAccess(address,bytes32)": "117189",
				"storeHealthData(bytes32,bytes32,string)": "infinite",
				"updateHealthData(bytes32,bytes32,bytes32)": "infinite",
				"userRecords(address,uint256)": "5238"
			}
		},
		"methodIdentifiers": {
			"batchGrantAccess(address,bytes32[],bool,bool,uint256)": "e189c8b8",
			"checkAccess(address,bytes32)": "7461f24a",
			"checkPermission(address,bytes32)": "d6392057",
			"deleteData(bytes32)": "86911cde",
			"getContractInfo()": "7cc1f867",
			"getDataStatus(bytes32)": "46e036cf",
			"getHealthData(bytes32)": "0a519fe1",
			"getUserDataCount(address)": "647f94a5",
			"getUserDataIds(address)": "66792d00",
			"grantAccess(address,bytes32,bool,bool,uint256)": "89c5d346",
			"healthRecords(bytes32)": "e9021744",
			"makeDataPrivate(bytes32)": "06848dcd",
			"makeDataPublic(bytes32)": "c0e01108",
			"permissions(address,bytes32)": "5b225526",
			"revokeAccess(address,bytes32)": "73125163",
			"storeHealthData(bytes32,bytes32,string)": "380b06c0",
			"updateHealthData(bytes32,bytes32,bytes32)": "d7ed69c1",
			"userRecords(address,uint256)": "e85d28b9"
		}
	},
	"abi": [
		{
			"anonymous": false,
			"inputs": [
				{
					"indexed": true,
					"internalType": "address",
					"name": "granter",
					"type": "address"
				},
				{
					"indexed": true,
					"internalType": "address",
					"name": "requester",
					"type": "address"
				},
				{
					"indexed": true,
					"internalType": "bytes32",
					"name": "dataId",
					"type": "bytes32"
				},
				{
					"indexed": false,
					"internalType": "uint256",
					"name": "expiresAt",
					"type": "uint256"
				}
			],
			"name": "AccessGranted",
			"type": "event"
		},
		{
			"anonymous": false,
			"inputs": [
				{
					"indexed": true,
					"internalType": "address",
					"name": "granter",
					"type": "address"
				},
				{
					"indexed": true,
					"internalType": "address",
					"name": "requester",
					"type": "address"
				},
				{
					"indexed": true,
					"internalType": "bytes32",
					"name": "dataId",
					"type": "bytes32"
				}
			],
			"name": "AccessRevoked",
			"type": "event"
		},
		{
			"anonymous": false,
			"inputs": [
				{
					"indexed": true,
					"internalType": "address",
					"name": "owner",
					"type": "address"
				},
				{
					"indexed": true,
					"internalType": "bytes32",
					"name": "dataId",
					"type": "bytes32"
				},
				{
					"indexed": false,
					"internalType": "enum HealthDataAccess.DataStatus",
					"name": "oldStatus",
					"type": "uint8"
				},
				{
					"indexed": false,
					"internalType": "enum HealthDataAccess.DataStatus",
					"name": "newStatus",
					"type": "uint8"
				},
				{
					"indexed": false,
					"internalType": "uint256",
					"name": "timestamp",
					"type": "uint256"
				}
			],
			"name": "DataStatusChanged",
			"type": "event"
		},
		{
			"anonymous": false,
			"inputs": [
				{
					"indexed": true,
					"internalType": "address",
					"name": "owner",
					"type": "address"
				},
				{
					"indexed": true,
					"internalType": "bytes32",
					"name": "dataId",
					"type": "bytes32"
				},
				{
					"indexed": false,
					"internalType": "string",
					"name": "dataType",
					"type": "string"
				},
				{
					"indexed": false,
					"internalType": "uint256",
					"name": "timestamp",
					"type": "uint256"
				}
			],
			"name": "DataStored",
			"type": "event"
		},
		{
			"anonymous": false,
			"inputs": [
				{
					"indexed": true,
					"internalType": "address",
					"name": "owner",
					"type": "address"
				},
				{
					"indexed": true,
					"internalType": "bytes32",
					"name": "dataId",
					"type": "bytes32"
				},
				{
					"indexed": false,
					"internalType": "uint256",
					"name": "timestamp",
					"type": "uint256"
				}
			],
			"name": "DataUpdated",
			"type": "event"
		},
		{
			"inputs": [
				{
					"internalType": "address",
					"name": "requester",
					"type": "address"
				},
				{
					"internalType": "bytes32[]",
					"name": "dataIds",
					"type": "bytes32[]"
				},
				{
					"internalType": "bool",
					"name": "canRead",
					"type": "bool"
				},
				{
					"internalType": "bool",
					"name": "canWrite",
					"type": "bool"
				},
				{
					"internalType": "uint256",
					"name": "duration",
					"type": "uint256"
				}
			],
			"name": "batchGrantAccess",
			"outputs": [],
			"stateMutability": "nonpayable",
			"type": "function"
		},
		{
			"inputs": [
				{
					"internalType": "address",
					"name": "requester",
					"type": "address"
				},
				{
					"internalType": "bytes32",
					"name": "dataId",
					"type": "bytes32"
				}
			],
			"name": "checkAccess",
			"outputs": [
				{
					"internalType": "bool",
					"name": "",
					"type": "bool"
				}
			],
			"stateMutability": "view",
			"type": "function"
		},
		{
			"inputs": [
				{
					"internalType": "address",
					"name": "requester",
					"type": "address"
				},
				{
					"internalType": "bytes32",
					"name": "dataId",
					"type": "bytes32"
				}
			],
			"name": "checkPermission",
			"outputs": [
				{
					"internalType": "bool",
					"name": "hasPermission",
					"type": "bool"
				},
				{
					"internalType": "bool",
					"name": "canRead",
					"type": "bool"
				},
				{
					"internalType": "bool",
					"name": "canWrite",
					"type": "bool"
				},
				{
					"internalType": "uint256",
					"name": "expiresAt",
					"type": "uint256"
				}
			],
			"stateMutability": "view",
			"type": "function"
		},
		{
			"inputs": [
				{
					"internalType": "bytes32",
					"name": "dataId",
					"type": "bytes32"
				}
			],
			"name": "deleteData",
			"outputs": [],
			"stateMutability": "nonpayable",
			"type": "function"
		},
		{
			"inputs": [],
			"name": "getContractInfo",
			"outputs": [
				{
					"internalType": "uint256",
					"name": "totalRecords",
					"type": "uint256"
				},
				{
					"internalType": "uint256",
					"name": "activeRecords",
					"type": "uint256"
				}
			],
			"stateMutability": "pure",
			"type": "function"
		},
		{
			"inputs": [
				{
					"internalType": "bytes32",
					"name": "dataId",
					"type": "bytes32"
				}
			],
			"name": "getDataStatus",
			"outputs": [
				{
					"internalType": "enum HealthDataAccess.DataStatus",
					"name": "",
					"type": "uint8"
				}
			],
			"stateMutability": "view",
			"type": "function"
		},
		{
			"inputs": [
				{
					"internalType": "bytes32",
					"name": "dataId",
					"type": "bytes32"
				}
			],
			"name": "getHealthData",
			"outputs": [
				{
					"internalType": "bytes32",
					"name": "dataHash",
					"type": "bytes32"
				},
				{
					"internalType": "bytes32",
					"name": "encryptedData",
					"type": "bytes32"
				},
				{
					"internalType": "uint256",
					"name": "timestamp",
					"type": "uint256"
				},
				{
					"internalType": "address",
					"name": "owner",
					"type": "address"
				},
				{
					"internalType": "string",
					"name": "dataType",
					"type": "string"
				}
			],
			"stateMutability": "view",
			"type": "function"
		},
		{
			"inputs": [
				{
					"internalType": "address",
					"name": "user",
					"type": "address"
				}
			],
			"name": "getUserDataCount",
			"outputs": [
				{
					"internalType": "uint256",
					"name": "",
					"type": "uint256"
				}
			],
			"stateMutability": "view",
			"type": "function"
		},
		{
			"inputs": [
				{
					"internalType": "address",
					"name": "user",
					"type": "address"
				}
			],
			"name": "getUserDataIds",
			"outputs": [
				{
					"internalType": "bytes32[]",
					"name": "",
					"type": "bytes32[]"
				}
			],
			"stateMutability": "view",
			"type": "function"
		},
		{
			"inputs": [
				{
					"internalType": "address",
					"name": "requester",
					"type": "address"
				},
				{
					"internalType": "bytes32",
					"name": "dataId",
					"type": "bytes32"
				},
				{
					"internalType": "bool",
					"name": "canRead",
					"type": "bool"
				},
				{
					"internalType": "bool",
					"name": "canWrite",
					"type": "bool"
				},
				{
					"internalType": "uint256",
					"name": "duration",
					"type": "uint256"
				}
			],
			"name": "grantAccess",
			"outputs": [],
			"stateMutability": "nonpayable",
			"type": "function"
		},
		{
			"inputs": [
				{
					"internalType": "bytes32",
					"name": "",
					"type": "bytes32"
				}
			],
			"name": "healthRecords",
			"outputs": [
				{
					"internalType": "bytes32",
					"name": "dataHash",
					"type": "bytes32"
				},
				{
					"internalType": "bytes32",
					"name": "encryptedData",
					"type": "bytes32"
				},
				{
					"internalType": "uint256",
					"name": "timestamp",
					"type": "uint256"
				},
				{
					"internalType": "address",
					"name": "owner",
					"type": "address"
				},
				{
					"internalType": "bool",
					"name": "isActive",
					"type": "bool"
				},
				{
					"internalType": "string",
					"name": "dataType",
					"type": "string"
				},
				{
					"internalType": "enum HealthDataAccess.DataStatus",
					"name": "status",
					"type": "uint8"
				}
			],
			"stateMutability": "view",
			"type": "function"
		},
		{
			"inputs": [
				{
					"internalType": "bytes32",
					"name": "dataId",
					"type": "bytes32"
				}
			],
			"name": "makeDataPrivate",
			"outputs": [],
			"stateMutability": "nonpayable",
			"type": "function"
		},
		{
			"inputs": [
				{
					"internalType": "bytes32",
					"name": "dataId",
					"type": "bytes32"
				}
			],
			"name": "makeDataPublic",
			"outputs": [],
			"stateMutability": "nonpayable",
			"type": "function"
		},
		{
			"inputs": [
				{
					"internalType": "address",
					"name": "",
					"type": "address"
				},
				{
					"internalType": "bytes32",
					"name": "",
					"type": "bytes32"
				}
			],
			"name": "permissions",
			"outputs": [
				{
					"internalType": "address",
					"name": "requester",
					"type": "address"
				},
				{
					"internalType": "bytes32",
					"name": "dataId",
					"type": "bytes32"
				},
				{
					"internalType": "uint256",
					"name": "grantedAt",
					"type": "uint256"
				},
				{
					"internalType": "uint256",
					"name": "expiresAt",
					"type": "uint256"
				},
				{
					"internalType": "bool",
					"name": "canRead",
					"type": "bool"
				},
				{
					"internalType": "bool",
					"name": "canWrite",
					"type": "bool"
				},
				{
					"internalType": "address",
					"name": "granter",
					"type": "address"
				}
			],
			"stateMutability": "view",
			"type": "function"
		},
		{
			"inputs": [
				{
					"internalType": "address",
					"name": "requester",
					"type": "address"
				},
				{
					"internalType": "bytes32",
					"name": "dataId",
					"type": "bytes32"
				}
			],
			"name": "revokeAccess",
			"outputs": [],
			"stateMutability": "nonpayable",
			"type": "function"
		},
		{
			"inputs": [
				{
					"internalType": "bytes32",
					"name": "dataHash",
					"type": "bytes32"
				},
				{
					"internalType": "bytes32",
					"name": "encryptedData",
					"type": "bytes32"
				},
				{
					"internalType": "string",
					"name": "dataType",
					"type": "string"
				}
			],
			"name": "storeHealthData",
			"outputs": [
				{
					"internalType": "bytes32",
					"name": "",
					"type": "bytes32"
				}
			],
			"stateMutability": "nonpayable",
			"type": "function"
		},
		{
			"inputs": [
				{
					"internalType": "bytes32",
					"name": "dataId",
					"type": "bytes32"
				},
				{
					"internalType": "bytes32",
					"name": "newDataHash",
					"type": "bytes32"
				},
				{
					"internalType": "bytes32",
					"name": "newEncryptedData",
					"type": "bytes32"
				}
			],
			"name": "updateHealthData",
			"outputs": [],
			"stateMutability": "nonpayable",
			"type": "function"
		},
		{
			"inputs": [
				{
					"internalType": "address",
					"name": "",
					"type": "address"
				},
				{
					"internalType": "uint256",
					"name": "",
					"type": "uint256"
				}
			],
			"name": "userRecords",
			"outputs": [
				{
					"internalType": "bytes32",
					"name": "",
					"type": "bytes32"
				}
			],
			"stateMutability": "view",
			"type": "function"
		}
	]
}