{
	"data": {
		"bytecode": {
			"linkReferences": {},
			"object": "6080604052348015600e575f5ffd5b506124358061001c5f395ff3fe608060405234801561000f575f5ffd5b5060043610610114575f3560e01c80639be572f6116100a0578063cdfbb3511161006f578063cdfbb351146102e7578063e040e9a014610303578063f55936071461030d578063f69c6dec1461032b578063fab208ca1461035b57610114565b80639be572f6146102335780639ee20b1514610251578063a87430ba14610281578063a876f952146102b757610114565b8063523435c8116100e7578063523435c8146101a157806358467dbc146101ab5780635d8d1585146101db57806365171072146101fb5780637e9a1f2c1461021757610114565b80632fdf15d5146101185780633265b453146101485780633df604611461017b5780633ffbd47f14610185575b5f5ffd5b610132600480360381019061012d91906117ff565b61037e565b60405161013f9190611869565b60405180910390f35b610162600480360381019061015d91906118ac565b6103ae565b60405161017294939291906118fe565b60405180910390f35b6101836104da565b005b61019f600480360381019061019a9190611a7d565b6106b1565b005b6101a9610a94565b005b6101c560048036038101906101c09190611a7d565b610c69565b6040516101d29190611b0d565b60405180910390f35b6101e3610da2565b6040516101f293929190611b26565b60405180910390f35b61021560048036038101906102109190611b5b565b610e95565b005b610231600480360381019061022c9190611bf7565b610f7f565b005b61023b6110e8565b6040516102489190611c35565b60405180910390f35b61026b600480360381019061026691906118ac565b6110f1565b6040516102789190611b0d565b60405180910390f35b61029b600480360381019061029691906118ac565b611145565b6040516102ae9796959493929190611cc1565b60405180910390f35b6102d160048036038101906102cc9190611d2e565b61119a565b6040516102de9190611b0d565b60405180910390f35b61030160048036038101906102fc9190611a7d565b611276565b005b61030b6114b1565b005b610315611606565b6040516103229190611c35565b60405180910390f35b61034560048036038101906103409190611d6c565b61160f565b6040516103529190611b0d565b60405180910390f35b6103636116a1565b60405161037596959493929190611db3565b60405180910390f35b6001602052805f5260405f205f915054906101000a900473ffffffffffffffffffffffffffffffffffffffff1681565b5f5f5f5f5f5f5f8773ffffffffffffffffffffffffffffffffffffffff1673ffffffffffffffffffffffffffffffffffffffff1681526020019081526020015f209050806003015f9054906101000a900460ff16610441576040517f08c379a000000000000000000000000000000000000000000000000000000000815260040161043890611e6c565b60405180910390fd5b60018081111561045457610453611c4e565b5b816006015f9054906101000a900460ff16600181111561047757610476611c4e565b5b146104b7576040517f08c379a00000000000000000000000000000000000000000000000000000000081526004016104ae90611ed4565b60405180910390fd5b805f01548160040154826005015483600201549450945094509450509193509193565b5f5f3373ffffffffffffffffffffffffffffffffffffffff1673ffffffffffffffffffffffffffffffffffffffff1681526020019081526020015f206003015f9054906101000a900460ff16610565576040517f08c379a000000000000000000000000000000000000000000000000000000000815260040161055c90611f3c565b60405180910390fd5b5f5f5f3373ffffffffffffffffffffffffffffffffffffffff1673ffffffffffffffffffffffffffffffffffffffff1681526020019081526020015f2090505f60018111156105b7576105b6611c4e565b5b816006015f9054906101000a900460ff1660018111156105da576105d9611c4e565b5b1461061a576040517f08c379a000000000000000000000000000000000000000000000000000000000815260040161061190611fa4565b60405180910390fd5b5f816006015f9054906101000a900460ff1690506001826006015f6101000a81548160ff0219169083600181111561065557610654611c4e565b5b02179055503373ffffffffffffffffffffffffffffffffffffffff167fe4af6a8baf93b009d9448cca7ed6797e55063d93424cd1fe6568340203e1173d826001426040516106a593929190611fc2565b60405180910390a25050565b5f8251116106f4576040517f08c379a00000000000000000000000000000000000000000000000000000000081526004016106eb90612041565b60405180910390fd5b5f815111610737576040517f08c379a000000000000000000000000000000000000000000000000000000000815260040161072e906120a9565b60405180910390fd5b5f5f3373ffffffffffffffffffffffffffffffffffffffff1673ffffffffffffffffffffffffffffffffffffffff1681526020019081526020015f206003015f9054906101000a900460ff16156107c3576040517f08c379a00000000000000000000000000000000000000000000000000000000081526004016107ba90612111565b60405180910390fd5b5f826040516020016107d59190612181565b6040516020818303038152906040528051906020012090505f826040516020016107ff9190612181565b6040516020818303038152906040528051906020012090505f73ffffffffffffffffffffffffffffffffffffffff1660015f8481526020019081526020015f205f9054906101000a900473ffffffffffffffffffffffffffffffffffffffff1673ffffffffffffffffffffffffffffffffffffffff16146108b5576040517f08c379a00000000000000000000000000000000000000000000000000000000081526004016108ac906121e1565b60405180910390fd5b6040518060e001604052808381526020018281526020014281526020016001151581526020015f5f1b81526020015f5f1b81526020015f60018111156108fe576108fd611c4e565b5b8152505f5f3373ffffffffffffffffffffffffffffffffffffffff1673ffffffffffffffffffffffffffffffffffffffff1681526020019081526020015f205f820151815f015560208201518160010155604082015181600201556060820151816003015f6101000a81548160ff0219169083151502179055506080820151816004015560a0820151816005015560c0820151816006015f6101000a81548160ff021916908360018111156109b6576109b5611c4e565b5b02179055509050503360015f8481526020019081526020015f205f6101000a81548173ffffffffffffffffffffffffffffffffffffffff021916908373ffffffffffffffffffffffffffffffffffffffff160217905550600160025f828254610a1f919061222c565b92505081905550600160035f828254610a38919061222c565b92505081905550813373ffffffffffffffffffffffffffffffffffffffff167fe932b8f225535323212b28055402c985d3c06bca70a0c4aaa52ee2bf155dc2ac42604051610a869190611c35565b60405180910390a350505050565b5f5f3373ffffffffffffffffffffffffffffffffffffffff1673ffffffffffffffffffffffffffffffffffffffff1681526020019081526020015f206003015f9054906101000a900460ff16610b1f576040517f08c379a0000000000000000000000000000000000000000000000000000000008152600401610b1690611f3c565b60405180910390fd5b5f5f5f3373ffffffffffffffffffffffffffffffffffffffff1673ffffffffffffffffffffffffffffffffffffffff1681526020019081526020015f209050600180811115610b7157610b70611c4e565b5b816006015f9054906101000a900460ff166001811115610b9457610b93611c4e565b5b14610bd4576040517f08c379a0000000000000000000000000000000000000000000000000000000008152600401610bcb906122a9565b60405180910390fd5b5f816006015f9054906101000a900460ff1690505f826006015f6101000a81548160ff02191690836001811115610c0e57610c0d611c4e565b5b02179055503373ffffffffffffffffffffffffffffffffffffffff167fe4af6a8baf93b009d9448cca7ed6797e55063d93424cd1fe6568340203e1173d825f42604051610c5d93929190611fc2565b60405180910390a25050565b5f5f83604051602001610c7c9190612181565b6040516020818303038152906040528051906020012090505f60015f8381526020019081526020015f205f9054906101000a900473ffffffffffffffffffffffffffffffffffffffff1690505f73ffffffffffffffffffffffffffffffffffffffff168173ffffffffffffffffffffffffffffffffffffffff1603610d05575f92505050610d9c565b5f5f5f8373ffffffffffffffffffffffffffffffffffffffff1673ffffffffffffffffffffffffffffffffffffffff1681526020019081526020015f209050806003015f9054906101000a900460ff16610d64575f9350505050610d9c565b5f85604051602001610d769190612181565b604051602081830303815290604052805190602001209050808260010154149450505050505b92915050565b5f5f5f5f5f3373ffffffffffffffffffffffffffffffffffffffff1673ffffffffffffffffffffffffffffffffffffffff1681526020019081526020015f206003015f9054906101000a900460ff16610e30576040517f08c379a0000000000000000000000000000000000000000000000000000000008152600401610e2790611f3c565b60405180910390fd5b5f5f5f3373ffffffffffffffffffffffffffffffffffffffff1673ffffffffffffffffffffffffffffffffffffffff1681526020019081526020015f209050805f01548160020154826003015f9054906101000a900460ff1693509350935050909192565b610e9f84846106b1565b815f5f3373ffffffffffffffffffffffffffffffffffffffff1673ffffffffffffffffffffffffffffffffffffffff1681526020019081526020015f2060040181905550805f5f3373ffffffffffffffffffffffffffffffffffffffff1673ffffffffffffffffffffffffffffffffffffffff1681526020019081526020015f20600501819055503373ffffffffffffffffffffffffffffffffffffffff167f0fe89ec3aa84bab96e6d076a5072554cca1061e5b1d75ce167cf60698b0696b1838342604051610f71939291906122c7565b60405180910390a250505050565b5f5f3373ffffffffffffffffffffffffffffffffffffffff1673ffffffffffffffffffffffffffffffffffffffff1681526020019081526020015f206003015f9054906101000a900460ff1661100a576040517f08c379a000000000000000000000000000000000000000000000000000000000815260040161100190611f3c565b60405180910390fd5b815f5f3373ffffffffffffffffffffffffffffffffffffffff1673ffffffffffffffffffffffffffffffffffffffff1681526020019081526020015f2060040181905550805f5f3373ffffffffffffffffffffffffffffffffffffffff1673ffffffffffffffffffffffffffffffffffffffff1681526020019081526020015f20600501819055503373ffffffffffffffffffffffffffffffffffffffff167f0fe89ec3aa84bab96e6d076a5072554cca1061e5b1d75ce167cf60698b0696b18383426040516110dc939291906122c7565b60405180910390a25050565b5f600254905090565b5f5f5f8373ffffffffffffffffffffffffffffffffffffffff1673ffffffffffffffffffffffffffffffffffffffff1681526020019081526020015f206003015f9054906101000a900460ff169050919050565b5f602052805f5260405f205f91509050805f015490806001015490806002015490806003015f9054906101000a900460ff1690806004015490806005015490806006015f9054906101000a900460ff16905087565b5f5f5f5f8473ffffffffffffffffffffffffffffffffffffffff1673ffffffffffffffffffffffffffffffffffffffff1681526020019081526020015f209050806003015f9054906101000a900460ff166111f8575f915050611270565b8273ffffffffffffffffffffffffffffffffffffffff168473ffffffffffffffffffffffffffffffffffffffff1603611235576001915050611270565b60018081111561124857611247611c4e565b5b816006015f9054906101000a900460ff16600181111561126b5761126a611c4e565b5b149150505b92915050565b5f5f3373ffffffffffffffffffffffffffffffffffffffff1673ffffffffffffffffffffffffffffffffffffffff1681526020019081526020015f206003015f9054906101000a900460ff16611301576040517f08c379a00000000000000000000000000000000000000000000000000000000081526004016112f890611f3c565b60405180910390fd5b5f815111611344576040517f08c379a000000000000000000000000000000000000000000000000000000000815260040161133b90612346565b60405180910390fd5b5f826040516020016113569190612181565b604051602081830303815290604052805190602001209050805f5f3373ffffffffffffffffffffffffffffffffffffffff1673ffffffffffffffffffffffffffffffffffffffff1681526020019081526020015f2060010154146113ef576040517f08c379a00000000000000000000000000000000000000000000000000000000081526004016113e6906123ae565b60405180910390fd5b5f826040516020016114019190612181565b604051602081830303815290604052805190602001209050805f5f3373ffffffffffffffffffffffffffffffffffffffff1673ffffffffffffffffffffffffffffffffffffffff1681526020019081526020015f20600101819055503373ffffffffffffffffffffffffffffffffffffffff167f6d1969aab140cccffa4fcfa0eb229c78c80c6603b497d441aca82c6899af6be1426040516114a39190611c35565b60405180910390a250505050565b5f5f3373ffffffffffffffffffffffffffffffffffffffff1673ffffffffffffffffffffffffffffffffffffffff1681526020019081526020015f206003015f9054906101000a900460ff1661153c576040517f08c379a000000000000000000000000000000000000000000000000000000000815260040161153390611f3c565b60405180910390fd5b5f5f5f3373ffffffffffffffffffffffffffffffffffffffff1673ffffffffffffffffffffffffffffffffffffffff1681526020019081526020015f206003015f6101000a81548160ff0219169083151502179055505f60035411156115b657600160035f8282546115ae91906123cc565b925050819055505b3373ffffffffffffffffffffffffffffffffffffffff167f0a3c4dd3ee5277d6eada470cf9b47a480953120ecafcbbdc14bde6f8a6248930426040516115fc9190611c35565b60405180910390a2565b5f600354905090565b5f5f826040516020016116229190612181565b6040516020818303038152906040528051906020012090505f73ffffffffffffffffffffffffffffffffffffffff1660015f8381526020019081526020015f205f9054906101000a900473ffffffffffffffffffffffffffffffffffffffff1673ffffffffffffffffffffffffffffffffffffffff1614915050919050565b5f5f5f5f5f5f5f5f3373ffffffffffffffffffffffffffffffffffffffff1673ffffffffffffffffffffffffffffffffffffffff1681526020019081526020015f206003015f9054906101000a900460ff16611732576040517f08c379a000000000000000000000000000000000000000000000000000000000815260040161172990611f3c565b60405180910390fd5b5f5f5f3373ffffffffffffffffffffffffffffffffffffffff1673ffffffffffffffffffffffffffffffffffffffff1681526020019081526020015f209050805f01548160020154826003015f9054906101000a900460ff1683600401548460050154856006015f9054906101000a900460ff1696509650965096509650965050909192939495565b5f604051905090565b5f5ffd5b5f5ffd5b5f819050919050565b6117de816117cc565b81146117e8575f5ffd5b50565b5f813590506117f9816117d5565b92915050565b5f60208284031215611814576118136117c4565b5b5f611821848285016117eb565b91505092915050565b5f73ffffffffffffffffffffffffffffffffffffffff82169050919050565b5f6118538261182a565b9050919050565b61186381611849565b82525050565b5f60208201905061187c5f83018461185a565b92915050565b61188b81611849565b8114611895575f5ffd5b50565b5f813590506118a681611882565b92915050565b5f602082840312156118c1576118c06117c4565b5b5f6118ce84828501611898565b91505092915050565b6118e0816117cc565b82525050565b5f819050919050565b6118f8816118e6565b82525050565b5f6080820190506119115f8301876118d7565b61191e60208301866118d7565b61192b60408301856118d7565b61193860608301846118ef565b95945050505050565b5f5ffd5b5f5ffd5b5f601f19601f8301169050919050565b7f4e487b71000000000000000000000000000000000000000000000000000000005f52604160045260245ffd5b61198f82611949565b810181811067ffffffffffffffff821117156119ae576119ad611959565b5b80604052505050565b5f6119c06117bb565b90506119cc8282611986565b919050565b5f67ffffffffffffffff8211156119eb576119ea611959565b5b6119f482611949565b9050602081019050919050565b828183375f83830152505050565b5f611a21611a1c846119d1565b6119b7565b905082815260208101848484011115611a3d57611a3c611945565b5b611a48848285611a01565b509392505050565b5f82601f830112611a6457611a63611941565b5b8135611a74848260208601611a0f565b91505092915050565b5f5f60408385031215611a9357611a926117c4565b5b5f83013567ffffffffffffffff811115611ab057611aaf6117c8565b5b611abc85828601611a50565b925050602083013567ffffffffffffffff811115611add57611adc6117c8565b5b611ae985828601611a50565b9150509250929050565b5f8115159050919050565b611b0781611af3565b82525050565b5f602082019050611b205f830184611afe565b92915050565b5f606082019050611b395f8301866118d7565b611b4660208301856118ef565b611b536040830184611afe565b949350505050565b5f5f5f5f60808587031215611b7357611b726117c4565b5b5f85013567ffffffffffffffff811115611b9057611b8f6117c8565b5b611b9c87828801611a50565b945050602085013567ffffffffffffffff811115611bbd57611bbc6117c8565b5b611bc987828801611a50565b9350506040611bda878288016117eb565b9250506060611beb878288016117eb565b91505092959194509250565b5f5f60408385031215611c0d57611c0c6117c4565b5b5f611c1a858286016117eb565b9250506020611c2b858286016117eb565b9150509250929050565b5f602082019050611c485f8301846118ef565b92915050565b7f4e487b71000000000000000000000000000000000000000000000000000000005f52602160045260245ffd5b60028110611c8c57611c8b611c4e565b5b50565b5f819050611c9c82611c7b565b919050565b5f611cab82611c8f565b9050919050565b611cbb81611ca1565b82525050565b5f60e082019050611cd45f83018a6118d7565b611ce160208301896118d7565b611cee60408301886118ef565b611cfb6060830187611afe565b611d0860808301866118d7565b611d1560a08301856118d7565b611d2260c0830184611cb2565b98975050505050505050565b5f5f60408385031215611d4457611d436117c4565b5b5f611d5185828601611898565b9250506020611d6285828601611898565b9150509250929050565b5f60208284031215611d8157611d806117c4565b5b5f82013567ffffffffffffffff811115611d9e57611d9d6117c8565b5b611daa84828501611a50565b91505092915050565b5f60c082019050611dc65f8301896118d7565b611dd360208301886118ef565b611de06040830187611afe565b611ded60608301866118d7565b611dfa60808301856118d7565b611e0760a0830184611cb2565b979650505050505050565b5f82825260208201905092915050565b7f5573657220696e616374697665206f72206e6f7420666f756e640000000000005f82015250565b5f611e56601a83611e12565b9150611e6182611e22565b602082019050919050565b5f6020820190508181035f830152611e8381611e4a565b9050919050565b7f50726f66696c65206973207072697661746500000000000000000000000000005f82015250565b5f611ebe601283611e12565b9150611ec982611e8a565b602082019050919050565b5f6020820190508181035f830152611eeb81611eb2565b9050919050565b7f55736572206e6f742072656769737465726564206f7220696e616374697665005f82015250565b5f611f26601f83611e12565b9150611f3182611ef2565b602082019050919050565b5f6020820190508181035f830152611f5381611f1a565b9050919050565b7f50726f66696c6520616c7265616479207075626c6963000000000000000000005f82015250565b5f611f8e601683611e12565b9150611f9982611f5a565b602082019050919050565b5f6020820190508181035f830152611fbb81611f82565b9050919050565b5f606082019050611fd55f830186611cb2565b611fe26020830185611cb2565b611fef60408301846118ef565b949350505050565b7f557365726e616d652063616e6e6f7420626520656d70747900000000000000005f82015250565b5f61202b601883611e12565b915061203682611ff7565b602082019050919050565b5f6020820190508181035f8301526120588161201f565b9050919050565b7f50617373776f72642063616e6e6f7420626520656d70747900000000000000005f82015250565b5f612093601883611e12565b915061209e8261205f565b602082019050919050565b5f6020820190508181035f8301526120c081612087565b9050919050565b7f5573657220616c726561647920726567697374657265640000000000000000005f82015250565b5f6120fb601783611e12565b9150612106826120c7565b602082019050919050565b5f6020820190508181035f830152612128816120ef565b9050919050565b5f81519050919050565b5f81905092915050565b8281835e5f83830152505050565b5f61215b8261212f565b6121658185612139565b9350612175818560208601612143565b80840191505092915050565b5f61218c8284612151565b915081905092915050565b7f557365726e616d6520616c72656164792074616b656e000000000000000000005f82015250565b5f6121cb601683611e12565b91506121d682612197565b602082019050919050565b5f6020820190508181035f8301526121f8816121bf565b9050919050565b7f4e487b71000000000000000000000000000000000000000000000000000000005f52601160045260245ffd5b5f612236826118e6565b9150612241836118e6565b9250828201905080821115612259576122586121ff565b5b92915050565b7f50726f66696c6520616c726561647920707269766174650000000000000000005f82015250565b5f612293601783611e12565b915061229e8261225f565b602082019050919050565b5f6020820190508181035f8301526122c081612287565b9050919050565b5f6060820190506122da5f8301866118d7565b6122e760208301856118d7565b6122f460408301846118ef565b949350505050565b7f4e65772070617373776f72642063616e6e6f7420626520656d707479000000005f82015250565b5f612330601c83611e12565b915061233b826122fc565b602082019050919050565b5f6020820190508181035f83015261235d81612324565b9050919050565b7f4f6c642070617373776f726420696e636f7272656374000000000000000000005f82015250565b5f612398601683611e12565b91506123a382612364565b602082019050919050565b5f6020820190508181035f8301526123c58161238c565b9050919050565b5f6123d6826118e6565b91506123e1836118e6565b92508282039050818111156123f9576123f86121ff565b5b9291505056fea2646970667358221220d3b7fb83f849204944edb61f0b6976fc6a0e68cdeeb01e10b325df2c2fd5be8464736f6c634300081e0033",
			"opcodes": "PUSH1 0x80 PUSH1 0x40 MSTORE CALLVALUE DUP1 ISZERO PUSH1 0xE JUMPI PUSH0 PUSH0 REVERT JUMPDEST POP PUSH2 0x2435 DUP1 PUSH2 0x1C PUSH0 CODECOPY PUSH0 RETURN INVALID PUSH1 0x80 PUSH1 0x40 MSTORE CALLVALUE DUP1 ISZERO PUSH2 0xF JUMPI PUSH0 PUSH0 REVERT JUMPDEST POP PUSH1 0x4 CALLDATASIZE LT PUSH2 0x114 JUMPI PUSH0 CALLDATALOAD PUSH1 0xE0 SHR DUP1 PUSH4 0x9BE572F6 GT PUSH2 0xA0 JUMPI DUP1 PUSH4 0xCDFBB351 GT PUSH2 0x6F JUMPI DUP1 PUSH4 0xCDFBB351 EQ PUSH2 0x2E7 JUMPI DUP1 PUSH4 0xE040E9A0 EQ PUSH2 0x303 JUMPI DUP1 PUSH4 0xF5593607 EQ PUSH2 0x30D JUMPI DUP1 PUSH4 0xF69C6DEC EQ PUSH2 0x32B JUMPI DUP1 PUSH4 0xFAB208CA EQ PUSH2 0x35B JUMPI PUSH2 0x114 JUMP JUMPDEST DUP1 PUSH4 0x9BE572F6 EQ PUSH2 0x233 JUMPI DUP1 PUSH4 0x9EE20B15 EQ PUSH2 0x251 JUMPI DUP1 PUSH4 0xA87430BA EQ PUSH2 0x281 JUMPI DUP1 PUSH4 0xA876F952 EQ PUSH2 0x2B7 JUMPI PUSH2 0x114 JUMP JUMPDEST DUP1 PUSH4 0x523435C8 GT PUSH2 0xE7 JUMPI DUP1 PUSH4 0x523435C8 EQ PUSH2 0x1A1 JUMPI DUP1 PUSH4 0x58467DBC EQ PUSH2 0x1AB JUMPI DUP1 PUSH4 0x5D8D1585 EQ PUSH2 0x1DB JUMPI DUP1 PUSH4 0x65171072 EQ PUSH2 0x1FB JUMPI DUP1 PUSH4 0x7E9A1F2C EQ PUSH2 0x217 JUMPI PUSH2 0x114 JUMP JUMPDEST DUP1 PUSH4 0x2FDF15D5 EQ PUSH2 0x118 JUMPI DUP1 PUSH4 0x3265B453 EQ PUSH2 0x148 JUMPI DUP1 PUSH4 0x3DF60461 EQ PUSH2 0x17B JUMPI DUP1 PUSH4 0x3FFBD47F EQ PUSH2 0x185 JUMPI JUMPDEST PUSH0 PUSH0 REVERT JUMPDEST PUSH2 0x132 PUSH1 0x4 DUP1 CALLDATASIZE SUB DUP2 ADD SWAP1 PUSH2 0x12D SWAP2 SWAP1 PUSH2 0x17FF JUMP JUMPDEST PUSH2 0x37E JUMP JUMPDEST PUSH1 0x40 MLOAD PUSH2 0x13F SWAP2 SWAP1 PUSH2 0x1869 JUMP JUMPDEST PUSH1 0x40 MLOAD DUP1 SWAP2 SUB SWAP1 RETURN JUMPDEST PUSH2 0x162 PUSH1 0x4 DUP1 CALLDATASIZE SUB DUP2 ADD SWAP1 PUSH2 0x15D SWAP2 SWAP1 PUSH2 0x18AC JUMP JUMPDEST PUSH2 0x3AE JUMP JUMPDEST PUSH1 0x40 MLOAD PUSH2 0x172 SWAP5 SWAP4 SWAP3 SWAP2 SWAP1 PUSH2 0x18FE JUMP JUMPDEST PUSH1 0x40 MLOAD DUP1 SWAP2 SUB SWAP1 RETURN JUMPDEST PUSH2 0x183 PUSH2 0x4DA JUMP JUMPDEST STOP JUMPDEST PUSH2 0x19F PUSH1 0x4 DUP1 CALLDATASIZE SUB DUP2 ADD SWAP1 PUSH2 0x19A SWAP2 SWAP1 PUSH2 0x1A7D JUMP JUMPDEST PUSH2 0x6B1 JUMP JUMPDEST STOP JUMPDEST PUSH2 0x1A9 PUSH2 0xA94 JUMP JUMPDEST STOP JUMPDEST PUSH2 0x1C5 PUSH1 0x4 DUP1 CALLDATASIZE SUB DUP2 ADD SWAP1 PUSH2 0x1C0 SWAP2 SWAP1 PUSH2 0x1A7D JUMP JUMPDEST PUSH2 0xC69 JUMP JUMPDEST PUSH1 0x40 MLOAD PUSH2 0x1D2 SWAP2 SWAP1 PUSH2 0x1B0D JUMP JUMPDEST PUSH1 0x40 MLOAD DUP1 SWAP2 SUB SWAP1 RETURN JUMPDEST PUSH2 0x1E3 PUSH2 0xDA2 JUMP JUMPDEST PUSH1 0x40 MLOAD PUSH2 0x1F2 SWAP4 SWAP3 SWAP2 SWAP1 PUSH2 0x1B26 JUMP JUMPDEST PUSH1 0x40 MLOAD DUP1 SWAP2 SUB SWAP1 RETURN JUMPDEST PUSH2 0x215 PUSH1 0x4 DUP1 CALLDATASIZE SUB DUP2 ADD SWAP1 PUSH2 0x210 SWAP2 SWAP1 PUSH2 0x1B5B JUMP JUMPDEST PUSH2 0xE95 JUMP JUMPDEST STOP JUMPDEST PUSH2 0x231 PUSH1 0x4 DUP1 CALLDATASIZE SUB DUP2 ADD SWAP1 PUSH2 0x22C SWAP2 SWAP1 PUSH2 0x1BF7 JUMP JUMPDEST PUSH2 0xF7F JUMP JUMPDEST STOP JUMPDEST PUSH2 0x23B PUSH2 0x10E8 JUMP JUMPDEST PUSH1 0x40 MLOAD PUSH2 0x248 SWAP2 SWAP1 PUSH2 0x1C35 JUMP JUMPDEST PUSH1 0x40 MLOAD DUP1 SWAP2 SUB SWAP1 RETURN JUMPDEST PUSH2 0x26B PUSH1 0x4 DUP1 CALLDATASIZE SUB DUP2 ADD SWAP1 PUSH2 0x266 SWAP2 SWAP1 PUSH2 0x18AC JUMP JUMPDEST PUSH2 0x10F1 JUMP JUMPDEST PUSH1 0x40 MLOAD PUSH2 0x278 SWAP2 SWAP1 PUSH2 0x1B0D JUMP JUMPDEST PUSH1 0x40 MLOAD DUP1 SWAP2 SUB SWAP1 RETURN JUMPDEST PUSH2 0x29B PUSH1 0x4 DUP1 CALLDATASIZE SUB DUP2 ADD SWAP1 PUSH2 0x296 SWAP2 SWAP1 PUSH2 0x18AC JUMP JUMPDEST PUSH2 0x1145 JUMP JUMPDEST PUSH1 0x40 MLOAD PUSH2 0x2AE SWAP8 SWAP7 SWAP6 SWAP5 SWAP4 SWAP3 SWAP2 SWAP1 PUSH2 0x1CC1 JUMP JUMPDEST PUSH1 0x40 MLOAD DUP1 SWAP2 SUB SWAP1 RETURN JUMPDEST PUSH2 0x2D1 PUSH1 0x4 DUP1 CALLDATASIZE SUB DUP2 ADD SWAP1 PUSH2 0x2CC SWAP2 SWAP1 PUSH2 0x1D2E JUMP JUMPDEST PUSH2 0x119A JUMP JUMPDEST PUSH1 0x40 MLOAD PUSH2 0x2DE SWAP2 SWAP1 PUSH2 0x1B0D JUMP JUMPDEST PUSH1 0x40 MLOAD DUP1 SWAP2 SUB SWAP1 RETURN JUMPDEST PUSH2 0x301 PUSH1 0x4 DUP1 CALLDATASIZE SUB DUP2 ADD SWAP1 PUSH2 0x2FC SWAP2 SWAP1 PUSH2 0x1A7D JUMP JUMPDEST PUSH2 0x1276 JUMP JUMPDEST STOP JUMPDEST PUSH2 0x30B PUSH2 0x14B1 JUMP JUMPDEST STOP JUMPDEST PUSH2 0x315 PUSH2 0x1606 JUMP JUMPDEST PUSH1 0x40 MLOAD PUSH2 0x322 SWAP2 SWAP1 PUSH2 0x1C35 JUMP JUMPDEST PUSH1 0x40 MLOAD DUP1 SWAP2 SUB SWAP1 RETURN JUMPDEST PUSH2 0x345 PUSH1 0x4 DUP1 CALLDATASIZE SUB DUP2 ADD SWAP1 PUSH2 0x340 SWAP2 SWAP1 PUSH2 0x1D6C JUMP JUMPDEST PUSH2 0x160F JUMP JUMPDEST PUSH1 0x40 MLOAD PUSH2 0x352 SWAP2 SWAP1 PUSH2 0x1B0D JUMP JUMPDEST PUSH1 0x40 MLOAD DUP1 SWAP2 SUB SWAP1 RETURN JUMPDEST PUSH2 0x363 PUSH2 0x16A1 JUMP JUMPDEST PUSH1 0x40 MLOAD PUSH2 0x375 SWAP7 SWAP6 SWAP5 SWAP4 SWAP3 SWAP2 SWAP1 PUSH2 0x1DB3 JUMP JUMPDEST PUSH1 0x40 MLOAD DUP1 SWAP2 SUB SWAP1 RETURN JUMPDEST PUSH1 0x1 PUSH1 0x20 MSTORE DUP1 PUSH0 MSTORE PUSH1 0x40 PUSH0 KECCAK256 PUSH0 SWAP2 POP SLOAD SWAP1 PUSH2 0x100 EXP SWAP1 DIV PUSH20 0xFFFFFFFFFFFFFFFFFFFFFFFFFFFFFFFFFFFFFFFF AND DUP2 JUMP JUMPDEST PUSH0 PUSH0 PUSH0 PUSH0 PUSH0 PUSH0 PUSH0 DUP8 PUSH20 0xFFFFFFFFFFFFFFFFFFFFFFFFFFFFFFFFFFFFFFFF AND PUSH20 0xFFFFFFFFFFFFFFFFFFFFFFFFFFFFFFFFFFFFFFFF AND DUP2 MSTORE PUSH1 0x20 ADD SWAP1 DUP2 MSTORE PUSH1 0x20 ADD PUSH0 KECCAK256 SWAP1 POP DUP1 PUSH1 0x3 ADD PUSH0 SWAP1 SLOAD SWAP1 PUSH2 0x100 EXP SWAP1 DIV PUSH1 0xFF AND PUSH2 0x441 JUMPI PUSH1 0x40 MLOAD PUSH32 0x8C379A000000000000000000000000000000000000000000000000000000000 DUP2 MSTORE PUSH1 0x4 ADD PUSH2 0x438 SWAP1 PUSH2 0x1E6C JUMP JUMPDEST PUSH1 0x40 MLOAD DUP1 SWAP2 SUB SWAP1 REVERT JUMPDEST PUSH1 0x1 DUP1 DUP2 GT ISZERO PUSH2 0x454 JUMPI PUSH2 0x453 PUSH2 0x1C4E JUMP JUMPDEST JUMPDEST DUP2 PUSH1 0x6 ADD PUSH0 SWAP1 SLOAD SWAP1 PUSH2 0x100 EXP SWAP1 DIV PUSH1 0xFF AND PUSH1 0x1 DUP2 GT ISZERO PUSH2 0x477 JUMPI PUSH2 0x476 PUSH2 0x1C4E JUMP JUMPDEST JUMPDEST EQ PUSH2 0x4B7 JUMPI PUSH1 0x40 MLOAD PUSH32 0x8C379A000000000000000000000000000000000000000000000000000000000 DUP2 MSTORE PUSH1 0x4 ADD PUSH2 0x4AE SWAP1 PUSH2 0x1ED4 JUMP JUMPDEST PUSH1 0x40 MLOAD DUP1 SWAP2 SUB SWAP1 REVERT JUMPDEST DUP1 PUSH0 ADD SLOAD DUP2 PUSH1 0x4 ADD SLOAD DUP3 PUSH1 0x5 ADD SLOAD DUP4 PUSH1 0x2 ADD SLOAD SWAP5 POP SWAP5 POP SWAP5 POP SWAP5 POP POP SWAP2 SWAP4 POP SWAP2 SWAP4 JUMP JUMPDEST PUSH0 PUSH0 CALLER PUSH20 0xFFFFFFFFFFFFFFFFFFFFFFFFFFFFFFFFFFFFFFFF AND PUSH20 0xFFFFFFFFFFFFFFFFFFFFFFFFFFFFFFFFFFFFFFFF AND DUP2 MSTORE PUSH1 0x20 ADD SWAP1 DUP2 MSTORE PUSH1 0x20 ADD PUSH0 KECCAK256 PUSH1 0x3 ADD PUSH0 SWAP1 SLOAD SWAP1 PUSH2 0x100 EXP SWAP1 DIV PUSH1 0xFF AND PUSH2 0x565 JUMPI PUSH1 0x40 MLOAD PUSH32 0x8C379A000000000000000000000000000000000000000000000000000000000 DUP2 MSTORE PUSH1 0x4 ADD PUSH2 0x55C SWAP1 PUSH2 0x1F3C JUMP JUMPDEST PUSH1 0x40 MLOAD DUP1 SWAP2 SUB SWAP1 REVERT JUMPDEST PUSH0 PUSH0 PUSH0 CALLER PUSH20 0xFFFFFFFFFFFFFFFFFFFFFFFFFFFFFFFFFFFFFFFF AND PUSH20 0xFFFFFFFFFFFFFFFFFFFFFFFFFFFFFFFFFFFFFFFF AND DUP2 MSTORE PUSH1 0x20 ADD SWAP1 DUP2 MSTORE PUSH1 0x20 ADD PUSH0 KECCAK256 SWAP1 POP PUSH0 PUSH1 0x1 DUP2 GT ISZERO PUSH2 0x5B7 JUMPI PUSH2 0x5B6 PUSH2 0x1C4E JUMP JUMPDEST JUMPDEST DUP2 PUSH1 0x6 ADD PUSH0 SWAP1 SLOAD SWAP1 PUSH2 0x100 EXP SWAP1 DIV PUSH1 0xFF AND PUSH1 0x1 DUP2 GT ISZERO PUSH2 0x5DA JUMPI PUSH2 0x5D9 PUSH2 0x1C4E JUMP JUMPDEST JUMPDEST EQ PUSH2 0x61A JUMPI PUSH1 0x40 MLOAD PUSH32 0x8C379A000000000000000000000000000000000000000000000000000000000 DUP2 MSTORE PUSH1 0x4 ADD PUSH2 0x611 SWAP1 PUSH2 0x1FA4 JUMP JUMPDEST PUSH1 0x40 MLOAD DUP1 SWAP2 SUB SWAP1 REVERT JUMPDEST PUSH0 DUP2 PUSH1 0x6 ADD PUSH0 SWAP1 SLOAD SWAP1 PUSH2 0x100 EXP SWAP1 DIV PUSH1 0xFF AND SWAP1 POP PUSH1 0x1 DUP3 PUSH1 0x6 ADD PUSH0 PUSH2 0x100 EXP DUP2 SLOAD DUP2 PUSH1 0xFF MUL NOT AND SWAP1 DUP4 PUSH1 0x1 DUP2 GT ISZERO PUSH2 0x655 JUMPI PUSH2 0x654 PUSH2 0x1C4E JUMP JUMPDEST JUMPDEST MUL OR SWAP1 SSTORE POP CALLER PUSH20 0xFFFFFFFFFFFFFFFFFFFFFFFFFFFFFFFFFFFFFFFF AND PUSH32 0xE4AF6A8BAF93B009D9448CCA7ED6797E55063D93424CD1FE6568340203E1173D DUP3 PUSH1 0x1 TIMESTAMP PUSH1 0x40 MLOAD PUSH2 0x6A5 SWAP4 SWAP3 SWAP2 SWAP1 PUSH2 0x1FC2 JUMP JUMPDEST PUSH1 0x40 MLOAD DUP1 SWAP2 SUB SWAP1 LOG2 POP POP JUMP JUMPDEST PUSH0 DUP3 MLOAD GT PUSH2 0x6F4 JUMPI PUSH1 0x40 MLOAD PUSH32 0x8C379A000000000000000000000000000000000000000000000000000000000 DUP2 MSTORE PUSH1 0x4 ADD PUSH2 0x6EB SWAP1 PUSH2 0x2041 JUMP JUMPDEST PUSH1 0x40 MLOAD DUP1 SWAP2 SUB SWAP1 REVERT JUMPDEST PUSH0 DUP2 MLOAD GT PUSH2 0x737 JUMPI PUSH1 0x40 MLOAD PUSH32 0x8C379A000000000000000000000000000000000000000000000000000000000 DUP2 MSTORE PUSH1 0x4 ADD PUSH2 0x72E SWAP1 PUSH2 0x20A9 JUMP JUMPDEST PUSH1 0x40 MLOAD DUP1 SWAP2 SUB SWAP1 REVERT JUMPDEST PUSH0 PUSH0 CALLER PUSH20 0xFFFFFFFFFFFFFFFFFFFFFFFFFFFFFFFFFFFFFFFF AND PUSH20 0xFFFFFFFFFFFFFFFFFFFFFFFFFFFFFFFFFFFFFFFF AND DUP2 MSTORE PUSH1 0x20 ADD SWAP1 DUP2 MSTORE PUSH1 0x20 ADD PUSH0 KECCAK256 PUSH1 0x3 ADD PUSH0 SWAP1 SLOAD SWAP1 PUSH2 0x100 EXP SWAP1 DIV PUSH1 0xFF AND ISZERO PUSH2 0x7C3 JUMPI PUSH1 0x40 MLOAD PUSH32 0x8C379A000000000000000000000000000000000000000000000000000000000 DUP2 MSTORE PUSH1 0x4 ADD PUSH2 0x7BA SWAP1 PUSH2 0x2111 JUMP JUMPDEST PUSH1 0x40 MLOAD DUP1 SWAP2 SUB SWAP1 REVERT JUMPDEST PUSH0 DUP3 PUSH1 0x40 MLOAD PUSH1 0x20 ADD PUSH2 0x7D5 SWAP2 SWAP1 PUSH2 0x2181 JUMP JUMPDEST PUSH1 0x40 MLOAD PUSH1 0x20 DUP2 DUP4 SUB SUB DUP2 MSTORE SWAP1 PUSH1 0x40 MSTORE DUP1 MLOAD SWAP1 PUSH1 0x20 ADD KECCAK256 SWAP1 POP PUSH0 DUP3 PUSH1 0x40 MLOAD PUSH1 0x20 ADD PUSH2 0x7FF SWAP2 SWAP1 PUSH2 0x2181 JUMP JUMPDEST PUSH1 0x40 MLOAD PUSH1 0x20 DUP2 DUP4 SUB SUB DUP2 MSTORE SWAP1 PUSH1 0x40 MSTORE DUP1 MLOAD SWAP1 PUSH1 0x20 ADD KECCAK256 SWAP1 POP PUSH0 PUSH20 0xFFFFFFFFFFFFFFFFFFFFFFFFFFFFFFFFFFFFFFFF AND PUSH1 0x1 PUSH0 DUP5 DUP2 MSTORE PUSH1 0x20 ADD SWAP1 DUP2 MSTORE PUSH1 0x20 ADD PUSH0 KECCAK256 PUSH0 SWAP1 SLOAD SWAP1 PUSH2 0x100 EXP SWAP1 DIV PUSH20 0xFFFFFFFFFFFFFFFFFFFFFFFFFFFFFFFFFFFFFFFF AND PUSH20 0xFFFFFFFFFFFFFFFFFFFFFFFFFFFFFFFFFFFFFFFF AND EQ PUSH2 0x8B5 JUMPI PUSH1 0x40 MLOAD PUSH32 0x8C379A000000000000000000000000000000000000000000000000000000000 DUP2 MSTORE PUSH1 0x4 ADD PUSH2 0x8AC SWAP1 PUSH2 0x21E1 JUMP JUMPDEST PUSH1 0x40 MLOAD DUP1 SWAP2 SUB SWAP1 REVERT JUMPDEST PUSH1 0x40 MLOAD DUP1 PUSH1 0xE0 ADD PUSH1 0x40 MSTORE DUP1 DUP4 DUP2 MSTORE PUSH1 0x20 ADD DUP3 DUP2 MSTORE PUSH1 0x20 ADD TIMESTAMP DUP2 MSTORE PUSH1 0x20 ADD PUSH1 0x1 ISZERO ISZERO DUP2 MSTORE PUSH1 0x20 ADD PUSH0 PUSH0 SHL DUP2 MSTORE PUSH1 0x20 ADD PUSH0 PUSH0 SHL DUP2 MSTORE PUSH1 0x20 ADD PUSH0 PUSH1 0x1 DUP2 GT ISZERO PUSH2 0x8FE JUMPI PUSH2 0x8FD PUSH2 0x1C4E JUMP JUMPDEST JUMPDEST DUP2 MSTORE POP PUSH0 PUSH0 CALLER PUSH20 0xFFFFFFFFFFFFFFFFFFFFFFFFFFFFFFFFFFFFFFFF AND PUSH20 0xFFFFFFFFFFFFFFFFFFFFFFFFFFFFFFFFFFFFFFFF AND DUP2 MSTORE PUSH1 0x20 ADD SWAP1 DUP2 MSTORE PUSH1 0x20 ADD PUSH0 KECCAK256 PUSH0 DUP3 ADD MLOAD DUP2 PUSH0 ADD SSTORE PUSH1 0x20 DUP3 ADD MLOAD DUP2 PUSH1 0x1 ADD SSTORE PUSH1 0x40 DUP3 ADD MLOAD DUP2 PUSH1 0x2 ADD SSTORE PUSH1 0x60 DUP3 ADD MLOAD DUP2 PUSH1 0x3 ADD PUSH0 PUSH2 0x100 EXP DUP2 SLOAD DUP2 PUSH1 0xFF MUL NOT AND SWAP1 DUP4 ISZERO ISZERO MUL OR SWAP1 SSTORE POP PUSH1 0x80 DUP3 ADD MLOAD DUP2 PUSH1 0x4 ADD SSTORE PUSH1 0xA0 DUP3 ADD MLOAD DUP2 PUSH1 0x5 ADD SSTORE PUSH1 0xC0 DUP3 ADD MLOAD DUP2 PUSH1 0x6 ADD PUSH0 PUSH2 0x100 EXP DUP2 SLOAD DUP2 PUSH1 0xFF MUL NOT AND SWAP1 DUP4 PUSH1 0x1 DUP2 GT ISZERO PUSH2 0x9B6 JUMPI PUSH2 0x9B5 PUSH2 0x1C4E JUMP JUMPDEST JUMPDEST MUL OR SWAP1 SSTORE POP SWAP1 POP POP CALLER PUSH1 0x1 PUSH0 DUP5 DUP2 MSTORE PUSH1 0x20 ADD SWAP1 DUP2 MSTORE PUSH1 0x20 ADD PUSH0 KECCAK256 PUSH0 PUSH2 0x100 EXP DUP2 SLOAD DUP2 PUSH20 0xFFFFFFFFFFFFFFFFFFFFFFFFFFFFFFFFFFFFFFFF MUL NOT AND SWAP1 DUP4 PUSH20 0xFFFFFFFFFFFFFFFFFFFFFFFFFFFFFFFFFFFFFFFF AND MUL OR SWAP1 SSTORE POP PUSH1 0x1 PUSH1 0x2 PUSH0 DUP3 DUP3 SLOAD PUSH2 0xA1F SWAP2 SWAP1 PUSH2 0x222C JUMP JUMPDEST SWAP3 POP POP DUP2 SWAP1 SSTORE POP PUSH1 0x1 PUSH1 0x3 PUSH0 DUP3 DUP3 SLOAD PUSH2 0xA38 SWAP2 SWAP1 PUSH2 0x222C JUMP JUMPDEST SWAP3 POP POP DUP2 SWAP1 SSTORE POP DUP2 CALLER PUSH20 0xFFFFFFFFFFFFFFFFFFFFFFFFFFFFFFFFFFFFFFFF AND PUSH32 0xE932B8F225535323212B28055402C985D3C06BCA70A0C4AAA52EE2BF155DC2AC TIMESTAMP PUSH1 0x40 MLOAD PUSH2 0xA86 SWAP2 SWAP1 PUSH2 0x1C35 JUMP JUMPDEST PUSH1 0x40 MLOAD DUP1 SWAP2 SUB SWAP1 LOG3 POP POP POP POP JUMP JUMPDEST PUSH0 PUSH0 CALLER PUSH20 0xFFFFFFFFFFFFFFFFFFFFFFFFFFFFFFFFFFFFFFFF AND PUSH20 0xFFFFFFFFFFFFFFFFFFFFFFFFFFFFFFFFFFFFFFFF AND DUP2 MSTORE PUSH1 0x20 ADD SWAP1 DUP2 MSTORE PUSH1 0x20 ADD PUSH0 KECCAK256 PUSH1 0x3 ADD PUSH0 SWAP1 SLOAD SWAP1 PUSH2 0x100 EXP SWAP1 DIV PUSH1 0xFF AND PUSH2 0xB1F JUMPI PUSH1 0x40 MLOAD PUSH32 0x8C379A000000000000000000000000000000000000000000000000000000000 DUP2 MSTORE PUSH1 0x4 ADD PUSH2 0xB16 SWAP1 PUSH2 0x1F3C JUMP JUMPDEST PUSH1 0x40 MLOAD DUP1 SWAP2 SUB SWAP1 REVERT JUMPDEST PUSH0 PUSH0 PUSH0 CALLER PUSH20 0xFFFFFFFFFFFFFFFFFFFFFFFFFFFFFFFFFFFFFFFF AND PUSH20 0xFFFFFFFFFFFFFFFFFFFFFFFFFFFFFFFFFFFFFFFF AND DUP2 MSTORE PUSH1 0x20 ADD SWAP1 DUP2 MSTORE PUSH1 0x20 ADD PUSH0 KECCAK256 SWAP1 POP PUSH1 0x1 DUP1 DUP2 GT ISZERO PUSH2 0xB71 JUMPI PUSH2 0xB70 PUSH2 0x1C4E JUMP JUMPDEST JUMPDEST DUP2 PUSH1 0x6 ADD PUSH0 SWAP1 SLOAD SWAP1 PUSH2 0x100 EXP SWAP1 DIV PUSH1 0xFF AND PUSH1 0x1 DUP2 GT ISZERO PUSH2 0xB94 JUMPI PUSH2 0xB93 PUSH2 0x1C4E JUMP JUMPDEST JUMPDEST EQ PUSH2 0xBD4 JUMPI PUSH1 0x40 MLOAD PUSH32 0x8C379A000000000000000000000000000000000000000000000000000000000 DUP2 MSTORE PUSH1 0x4 ADD PUSH2 0xBCB SWAP1 PUSH2 0x22A9 JUMP JUMPDEST PUSH1 0x40 MLOAD DUP1 SWAP2 SUB SWAP1 REVERT JUMPDEST PUSH0 DUP2 PUSH1 0x6 ADD PUSH0 SWAP1 SLOAD SWAP1 PUSH2 0x100 EXP SWAP1 DIV PUSH1 0xFF AND SWAP1 POP PUSH0 DUP3 PUSH1 0x6 ADD PUSH0 PUSH2 0x100 EXP DUP2 SLOAD DUP2 PUSH1 0xFF MUL NOT AND SWAP1 DUP4 PUSH1 0x1 DUP2 GT ISZERO PUSH2 0xC0E JUMPI PUSH2 0xC0D PUSH2 0x1C4E JUMP JUMPDEST JUMPDEST MUL OR SWAP1 SSTORE POP CALLER PUSH20 0xFFFFFFFFFFFFFFFFFFFFFFFFFFFFFFFFFFFFFFFF AND PUSH32 0xE4AF6A8BAF93B009D9448CCA7ED6797E55063D93424CD1FE6568340203E1173D DUP3 PUSH0 TIMESTAMP PUSH1 0x40 MLOAD PUSH2 0xC5D SWAP4 SWAP3 SWAP2 SWAP1 PUSH2 0x1FC2 JUMP JUMPDEST PUSH1 0x40 MLOAD DUP1 SWAP2 SUB SWAP1 LOG2 POP POP JUMP JUMPDEST PUSH0 PUSH0 DUP4 PUSH1 0x40 MLOAD PUSH1 0x20 ADD PUSH2 0xC7C SWAP2 SWAP1 PUSH2 0x2181 JUMP JUMPDEST PUSH1 0x40 MLOAD PUSH1 0x20 DUP2 DUP4 SUB SUB DUP2 MSTORE SWAP1 PUSH1 0x40 MSTORE DUP1 MLOAD SWAP1 PUSH1 0x20 ADD KECCAK256 SWAP1 POP PUSH0 PUSH1 0x1 PUSH0 DUP4 DUP2 MSTORE PUSH1 0x20 ADD SWAP1 DUP2 MSTORE PUSH1 0x20 ADD PUSH0 KECCAK256 PUSH0 SWAP1 SLOAD SWAP1 PUSH2 0x100 EXP SWAP1 DIV PUSH20 0xFFFFFFFFFFFFFFFFFFFFFFFFFFFFFFFFFFFFFFFF AND SWAP1 POP PUSH0 PUSH20 0xFFFFFFFFFFFFFFFFFFFFFFFFFFFFFFFFFFFFFFFF AND DUP2 PUSH20 0xFFFFFFFFFFFFFFFFFFFFFFFFFFFFFFFFFFFFFFFF AND SUB PUSH2 0xD05 JUMPI PUSH0 SWAP3 POP POP POP PUSH2 0xD9C JUMP JUMPDEST PUSH0 PUSH0 PUSH0 DUP4 PUSH20 0xFFFFFFFFFFFFFFFFFFFFFFFFFFFFFFFFFFFFFFFF AND PUSH20 0xFFFFFFFFFFFFFFFFFFFFFFFFFFFFFFFFFFFFFFFF AND DUP2 MSTORE PUSH1 0x20 ADD SWAP1 DUP2 MSTORE PUSH1 0x20 ADD PUSH0 KECCAK256 SWAP1 POP DUP1 PUSH1 0x3 ADD PUSH0 SWAP1 SLOAD SWAP1 PUSH2 0x100 EXP SWAP1 DIV PUSH1 0xFF AND PUSH2 0xD64 JUMPI PUSH0 SWAP4 POP POP POP POP PUSH2 0xD9C JUMP JUMPDEST PUSH0 DUP6 PUSH1 0x40 MLOAD PUSH1 0x20 ADD PUSH2 0xD76 SWAP2 SWAP1 PUSH2 0x2181 JUMP JUMPDEST PUSH1 0x40 MLOAD PUSH1 0x20 DUP2 DUP4 SUB SUB DUP2 MSTORE SWAP1 PUSH1 0x40 MSTORE DUP1 MLOAD SWAP1 PUSH1 0x20 ADD KECCAK256 SWAP1 POP DUP1 DUP3 PUSH1 0x1 ADD SLOAD EQ SWAP5 POP POP POP POP POP JUMPDEST SWAP3 SWAP2 POP POP JUMP JUMPDEST PUSH0 PUSH0 PUSH0 PUSH0 PUSH0 CALLER PUSH20 0xFFFFFFFFFFFFFFFFFFFFFFFFFFFFFFFFFFFFFFFF AND PUSH20 0xFFFFFFFFFFFFFFFFFFFFFFFFFFFFFFFFFFFFFFFF AND DUP2 MSTORE PUSH1 0x20 ADD SWAP1 DUP2 MSTORE PUSH1 0x20 ADD PUSH0 KECCAK256 PUSH1 0x3 ADD PUSH0 SWAP1 SLOAD SWAP1 PUSH2 0x100 EXP SWAP1 DIV PUSH1 0xFF AND PUSH2 0xE30 JUMPI PUSH1 0x40 MLOAD PUSH32 0x8C379A000000000000000000000000000000000000000000000000000000000 DUP2 MSTORE PUSH1 0x4 ADD PUSH2 0xE27 SWAP1 PUSH2 0x1F3C JUMP JUMPDEST PUSH1 0x40 MLOAD DUP1 SWAP2 SUB SWAP1 REVERT JUMPDEST PUSH0 PUSH0 PUSH0 CALLER PUSH20 0xFFFFFFFFFFFFFFFFFFFFFFFFFFFFFFFFFFFFFFFF AND PUSH20 0xFFFFFFFFFFFFFFFFFFFFFFFFFFFFFFFFFFFFFFFF AND DUP2 MSTORE PUSH1 0x20 ADD SWAP1 DUP2 MSTORE PUSH1 0x20 ADD PUSH0 KECCAK256 SWAP1 POP DUP1 PUSH0 ADD SLOAD DUP2 PUSH1 0x2 ADD SLOAD DUP3 PUSH1 0x3 ADD PUSH0 SWAP1 SLOAD SWAP1 PUSH2 0x100 EXP SWAP1 DIV PUSH1 0xFF AND SWAP4 POP SWAP4 POP SWAP4 POP POP SWAP1 SWAP2 SWAP3 JUMP JUMPDEST PUSH2 0xE9F DUP5 DUP5 PUSH2 0x6B1 JUMP JUMPDEST DUP2 PUSH0 PUSH0 CALLER PUSH20 0xFFFFFFFFFFFFFFFFFFFFFFFFFFFFFFFFFFFFFFFF AND PUSH20 0xFFFFFFFFFFFFFFFFFFFFFFFFFFFFFFFFFFFFFFFF AND DUP2 MSTORE PUSH1 0x20 ADD SWAP1 DUP2 MSTORE PUSH1 0x20 ADD PUSH0 KECCAK256 PUSH1 0x4 ADD DUP2 SWAP1 SSTORE POP DUP1 PUSH0 PUSH0 CALLER PUSH20 0xFFFFFFFFFFFFFFFFFFFFFFFFFFFFFFFFFFFFFFFF AND PUSH20 0xFFFFFFFFFFFFFFFFFFFFFFFFFFFFFFFFFFFFFFFF AND DUP2 MSTORE PUSH1 0x20 ADD SWAP1 DUP2 MSTORE PUSH1 0x20 ADD PUSH0 KECCAK256 PUSH1 0x5 ADD DUP2 SWAP1 SSTORE POP CALLER PUSH20 0xFFFFFFFFFFFFFFFFFFFFFFFFFFFFFFFFFFFFFFFF AND PUSH32 0xFE89EC3AA84BAB96E6D076A5072554CCA1061E5B1D75CE167CF60698B0696B1 DUP4 DUP4 TIMESTAMP PUSH1 0x40 MLOAD PUSH2 0xF71 SWAP4 SWAP3 SWAP2 SWAP1 PUSH2 0x22C7 JUMP JUMPDEST PUSH1 0x40 MLOAD DUP1 SWAP2 SUB SWAP1 LOG2 POP POP POP POP JUMP JUMPDEST PUSH0 PUSH0 CALLER PUSH20 0xFFFFFFFFFFFFFFFFFFFFFFFFFFFFFFFFFFFFFFFF AND PUSH20 0xFFFFFFFFFFFFFFFFFFFFFFFFFFFFFFFFFFFFFFFF AND DUP2 MSTORE PUSH1 0x20 ADD SWAP1 DUP2 MSTORE PUSH1 0x20 ADD PUSH0 KECCAK256 PUSH1 0x3 ADD PUSH0 SWAP1 SLOAD SWAP1 PUSH2 0x100 EXP SWAP1 DIV PUSH1 0xFF AND PUSH2 0x100A JUMPI PUSH1 0x40 MLOAD PUSH32 0x8C379A000000000000000000000000000000000000000000000000000000000 DUP2 MSTORE PUSH1 0x4 ADD PUSH2 0x1001 SWAP1 PUSH2 0x1F3C JUMP JUMPDEST PUSH1 0x40 MLOAD DUP1 SWAP2 SUB SWAP1 REVERT JUMPDEST DUP2 PUSH0 PUSH0 CALLER PUSH20 0xFFFFFFFFFFFFFFFFFFFFFFFFFFFFFFFFFFFFFFFF AND PUSH20 0xFFFFFFFFFFFFFFFFFFFFFFFFFFFFFFFFFFFFFFFF AND DUP2 MSTORE PUSH1 0x20 ADD SWAP1 DUP2 MSTORE PUSH1 0x20 ADD PUSH0 KECCAK256 PUSH1 0x4 ADD DUP2 SWAP1 SSTORE POP DUP1 PUSH0 PUSH0 CALLER PUSH20 0xFFFFFFFFFFFFFFFFFFFFFFFFFFFFFFFFFFFFFFFF AND PUSH20 0xFFFFFFFFFFFFFFFFFFFFFFFFFFFFFFFFFFFFFFFF AND DUP2 MSTORE PUSH1 0x20 ADD SWAP1 DUP2 MSTORE PUSH1 0x20 ADD PUSH0 KECCAK256 PUSH1 0x5 ADD DUP2 SWAP1 SSTORE POP CALLER PUSH20 0xFFFFFFFFFFFFFFFFFFFFFFFFFFFFFFFFFFFFFFFF AND PUSH32 0xFE89EC3AA84BAB96E6D076A5072554CCA1061E5B1D75CE167CF60698B0696B1 DUP4 DUP4 TIMESTAMP PUSH1 0x40 MLOAD PUSH2 0x10DC SWAP4 SWAP3 SWAP2 SWAP1 PUSH2 0x22C7 JUMP JUMPDEST PUSH1 0x40 MLOAD DUP1 SWAP2 SUB SWAP1 LOG2 POP POP JUMP JUMPDEST PUSH0 PUSH1 0x2 SLOAD SWAP1 POP SWAP1 JUMP JUMPDEST PUSH0 PUSH0 PUSH0 DUP4 PUSH20 0xFFFFFFFFFFFFFFFFFFFFFFFFFFFFFFFFFFFFFFFF AND PUSH20 0xFFFFFFFFFFFFFFFFFFFFFFFFFFFFFFFFFFFFFFFF AND DUP2 MSTORE PUSH1 0x20 ADD SWAP1 DUP2 MSTORE PUSH1 0x20 ADD PUSH0 KECCAK256 PUSH1 0x3 ADD PUSH0 SWAP1 SLOAD SWAP1 PUSH2 0x100 EXP SWAP1 DIV PUSH1 0xFF AND SWAP1 POP SWAP2 SWAP1 POP JUMP JUMPDEST PUSH0 PUSH1 0x20 MSTORE DUP1 PUSH0 MSTORE PUSH1 0x40 PUSH0 KECCAK256 PUSH0 SWAP2 POP SWAP1 POP DUP1 PUSH0 ADD SLOAD SWAP1 DUP1 PUSH1 0x1 ADD SLOAD SWAP1 DUP1 PUSH1 0x2 ADD SLOAD SWAP1 DUP1 PUSH1 0x3 ADD PUSH0 SWAP1 SLOAD SWAP1 PUSH2 0x100 EXP SWAP1 DIV PUSH1 0xFF AND SWAP1 DUP1 PUSH1 0x4 ADD SLOAD SWAP1 DUP1 PUSH1 0x5 ADD SLOAD SWAP1 DUP1 PUSH1 0x6 ADD PUSH0 SWAP1 SLOAD SWAP1 PUSH2 0x100 EXP SWAP1 DIV PUSH1 0xFF AND SWAP1 POP DUP8 JUMP JUMPDEST PUSH0 PUSH0 PUSH0 PUSH0 DUP5 PUSH20 0xFFFFFFFFFFFFFFFFFFFFFFFFFFFFFFFFFFFFFFFF AND PUSH20 0xFFFFFFFFFFFFFFFFFFFFFFFFFFFFFFFFFFFFFFFF AND DUP2 MSTORE PUSH1 0x20 ADD SWAP1 DUP2 MSTORE PUSH1 0x20 ADD PUSH0 KECCAK256 SWAP1 POP DUP1 PUSH1 0x3 ADD PUSH0 SWAP1 SLOAD SWAP1 PUSH2 0x100 EXP SWAP1 DIV PUSH1 0xFF AND PUSH2 0x11F8 JUMPI PUSH0 SWAP2 POP POP PUSH2 0x1270 JUMP JUMPDEST DUP3 PUSH20 0xFFFFFFFFFFFFFFFFFFFFFFFFFFFFFFFFFFFFFFFF AND DUP5 PUSH20 0xFFFFFFFFFFFFFFFFFFFFFFFFFFFFFFFFFFFFFFFF AND SUB PUSH2 0x1235 JUMPI PUSH1 0x1 SWAP2 POP POP PUSH2 0x1270 JUMP JUMPDEST PUSH1 0x1 DUP1 DUP2 GT ISZERO PUSH2 0x1248 JUMPI PUSH2 0x1247 PUSH2 0x1C4E JUMP JUMPDEST JUMPDEST DUP2 PUSH1 0x6 ADD PUSH0 SWAP1 SLOAD SWAP1 PUSH2 0x100 EXP SWAP1 DIV PUSH1 0xFF AND PUSH1 0x1 DUP2 GT ISZERO PUSH2 0x126B JUMPI PUSH2 0x126A PUSH2 0x1C4E JUMP JUMPDEST JUMPDEST EQ SWAP2 POP POP JUMPDEST SWAP3 SWAP2 POP POP JUMP JUMPDEST PUSH0 PUSH0 CALLER PUSH20 0xFFFFFFFFFFFFFFFFFFFFFFFFFFFFFFFFFFFFFFFF AND PUSH20 0xFFFFFFFFFFFFFFFFFFFFFFFFFFFFFFFFFFFFFFFF AND DUP2 MSTORE PUSH1 0x20 ADD SWAP1 DUP2 MSTORE PUSH1 0x20 ADD PUSH0 KECCAK256 PUSH1 0x3 ADD PUSH0 SWAP1 SLOAD SWAP1 PUSH2 0x100 EXP SWAP1 DIV PUSH1 0xFF AND PUSH2 0x1301 JUMPI PUSH1 0x40 MLOAD PUSH32 0x8C379A000000000000000000000000000000000000000000000000000000000 DUP2 MSTORE PUSH1 0x4 ADD PUSH2 0x12F8 SWAP1 PUSH2 0x1F3C JUMP JUMPDEST PUSH1 0x40 MLOAD DUP1 SWAP2 SUB SWAP1 REVERT JUMPDEST PUSH0 DUP2 MLOAD GT PUSH2 0x1344 JUMPI PUSH1 0x40 MLOAD PUSH32 0x8C379A000000000000000000000000000000000000000000000000000000000 DUP2 MSTORE PUSH1 0x4 ADD PUSH2 0x133B SWAP1 PUSH2 0x2346 JUMP JUMPDEST PUSH1 0x40 MLOAD DUP1 SWAP2 SUB SWAP1 REVERT JUMPDEST PUSH0 DUP3 PUSH1 0x40 MLOAD PUSH1 0x20 ADD PUSH2 0x1356 SWAP2 SWAP1 PUSH2 0x2181 JUMP JUMPDEST PUSH1 0x40 MLOAD PUSH1 0x20 DUP2 DUP4 SUB SUB DUP2 MSTORE SWAP1 PUSH1 0x40 MSTORE DUP1 MLOAD SWAP1 PUSH1 0x20 ADD KECCAK256 SWAP1 POP DUP1 PUSH0 PUSH0 CALLER PUSH20 0xFFFFFFFFFFFFFFFFFFFFFFFFFFFFFFFFFFFFFFFF AND PUSH20 0xFFFFFFFFFFFFFFFFFFFFFFFFFFFFFFFFFFFFFFFF AND DUP2 MSTORE PUSH1 0x20 ADD SWAP1 DUP2 MSTORE PUSH1 0x20 ADD PUSH0 KECCAK256 PUSH1 0x1 ADD SLOAD EQ PUSH2 0x13EF JUMPI PUSH1 0x40 MLOAD PUSH32 0x8C379A000000000000000000000000000000000000000000000000000000000 DUP2 MSTORE PUSH1 0x4 ADD PUSH2 0x13E6 SWAP1 PUSH2 0x23AE JUMP JUMPDEST PUSH1 0x40 MLOAD DUP1 SWAP2 SUB SWAP1 REVERT JUMPDEST PUSH0 DUP3 PUSH1 0x40 MLOAD PUSH1 0x20 ADD PUSH2 0x1401 SWAP2 SWAP1 PUSH2 0x2181 JUMP JUMPDEST PUSH1 0x40 MLOAD PUSH1 0x20 DUP2 DUP4 SUB SUB DUP2 MSTORE SWAP1 PUSH1 0x40 MSTORE DUP1 MLOAD SWAP1 PUSH1 0x20 ADD KECCAK256 SWAP1 POP DUP1 PUSH0 PUSH0 CALLER PUSH20 0xFFFFFFFFFFFFFFFFFFFFFFFFFFFFFFFFFFFFFFFF AND PUSH20 0xFFFFFFFFFFFFFFFFFFFFFFFFFFFFFFFFFFFFFFFF AND DUP2 MSTORE PUSH1 0x20 ADD SWAP1 DUP2 MSTORE PUSH1 0x20 ADD PUSH0 KECCAK256 PUSH1 0x1 ADD DUP2 SWAP1 SSTORE POP CALLER PUSH20 0xFFFFFFFFFFFFFFFFFFFFFFFFFFFFFFFFFFFFFFFF AND PUSH32 0x6D1969AAB140CCCFFA4FCFA0EB229C78C80C6603B497D441ACA82C6899AF6BE1 TIMESTAMP PUSH1 0x40 MLOAD PUSH2 0x14A3 SWAP2 SWAP1 PUSH2 0x1C35 JUMP JUMPDEST PUSH1 0x40 MLOAD DUP1 SWAP2 SUB SWAP1 LOG2 POP POP POP POP JUMP JUMPDEST PUSH0 PUSH0 CALLER PUSH20 0xFFFFFFFFFFFFFFFFFFFFFFFFFFFFFFFFFFFFFFFF AND PUSH20 0xFFFFFFFFFFFFFFFFFFFFFFFFFFFFFFFFFFFFFFFF AND DUP2 MSTORE PUSH1 0x20 ADD SWAP1 DUP2 MSTORE PUSH1 0x20 ADD PUSH0 KECCAK256 PUSH1 0x3 ADD PUSH0 SWAP1 SLOAD SWAP1 PUSH2 0x100 EXP SWAP1 DIV PUSH1 0xFF AND PUSH2 0x153C JUMPI PUSH1 0x40 MLOAD PUSH32 0x8C379A000000000000000000000000000000000000000000000000000000000 DUP2 MSTORE PUSH1 0x4 ADD PUSH2 0x1533 SWAP1 PUSH2 0x1F3C JUMP JUMPDEST PUSH1 0x40 MLOAD DUP1 SWAP2 SUB SWAP1 REVERT JUMPDEST PUSH0 PUSH0 PUSH0 CALLER PUSH20 0xFFFFFFFFFFFFFFFFFFFFFFFFFFFFFFFFFFFFFFFF AND PUSH20 0xFFFFFFFFFFFFFFFFFFFFFFFFFFFFFFFFFFFFFFFF AND DUP2 MSTORE PUSH1 0x20 ADD SWAP1 DUP2 MSTORE PUSH1 0x20 ADD PUSH0 KECCAK256 PUSH1 0x3 ADD PUSH0 PUSH2 0x100 EXP DUP2 SLOAD DUP2 PUSH1 0xFF MUL NOT AND SWAP1 DUP4 ISZERO ISZERO MUL OR SWAP1 SSTORE POP PUSH0 PUSH1 0x3 SLOAD GT ISZERO PUSH2 0x15B6 JUMPI PUSH1 0x1 PUSH1 0x3 PUSH0 DUP3 DUP3 SLOAD PUSH2 0x15AE SWAP2 SWAP1 PUSH2 0x23CC JUMP JUMPDEST SWAP3 POP POP DUP2 SWAP1 SSTORE POP JUMPDEST CALLER PUSH20 0xFFFFFFFFFFFFFFFFFFFFFFFFFFFFFFFFFFFFFFFF AND PUSH32 0xA3C4DD3EE5277D6EADA470CF9B47A480953120ECAFCBBDC14BDE6F8A6248930 TIMESTAMP PUSH1 0x40 MLOAD PUSH2 0x15FC SWAP2 SWAP1 PUSH2 0x1C35 JUMP JUMPDEST PUSH1 0x40 MLOAD DUP1 SWAP2 SUB SWAP1 LOG2 JUMP JUMPDEST PUSH0 PUSH1 0x3 SLOAD SWAP1 POP SWAP1 JUMP JUMPDEST PUSH0 PUSH0 DUP3 PUSH1 0x40 MLOAD PUSH1 0x20 ADD PUSH2 0x1622 SWAP2 SWAP1 PUSH2 0x2181 JUMP JUMPDEST PUSH1 0x40 MLOAD PUSH1 0x20 DUP2 DUP4 SUB SUB DUP2 MSTORE SWAP1 PUSH1 0x40 MSTORE DUP1 MLOAD SWAP1 PUSH1 0x20 ADD KECCAK256 SWAP1 POP PUSH0 PUSH20 0xFFFFFFFFFFFFFFFFFFFFFFFFFFFFFFFFFFFFFFFF AND PUSH1 0x1 PUSH0 DUP4 DUP2 MSTORE PUSH1 0x20 ADD SWAP1 DUP2 MSTORE PUSH1 0x20 ADD PUSH0 KECCAK256 PUSH0 SWAP1 SLOAD SWAP1 PUSH2 0x100 EXP SWAP1 DIV PUSH20 0xFFFFFFFFFFFFFFFFFFFFFFFFFFFFFFFFFFFFFFFF AND PUSH20 0xFFFFFFFFFFFFFFFFFFFFFFFFFFFFFFFFFFFFFFFF AND EQ SWAP2 POP POP SWAP2 SWAP1 POP JUMP JUMPDEST PUSH0 PUSH0 PUSH0 PUSH0 PUSH0 PUSH0 PUSH0 PUSH0 CALLER PUSH20 0xFFFFFFFFFFFFFFFFFFFFFFFFFFFFFFFFFFFFFFFF AND PUSH20 0xFFFFFFFFFFFFFFFFFFFFFFFFFFFFFFFFFFFFFFFF AND DUP2 MSTORE PUSH1 0x20 ADD SWAP1 DUP2 MSTORE PUSH1 0x20 ADD PUSH0 KECCAK256 PUSH1 0x3 ADD PUSH0 SWAP1 SLOAD SWAP1 PUSH2 0x100 EXP SWAP1 DIV PUSH1 0xFF AND PUSH2 0x1732 JUMPI PUSH1 0x40 MLOAD PUSH32 0x8C379A000000000000000000000000000000000000000000000000000000000 DUP2 MSTORE PUSH1 0x4 ADD PUSH2 0x1729 SWAP1 PUSH2 0x1F3C JUMP JUMPDEST PUSH1 0x40 MLOAD DUP1 SWAP2 SUB SWAP1 REVERT JUMPDEST PUSH0 PUSH0 PUSH0 CALLER PUSH20 0xFFFFFFFFFFFFFFFFFFFFFFFFFFFFFFFFFFFFFFFF AND PUSH20 0xFFFFFFFFFFFFFFFFFFFFFFFFFFFFFFFFFFFFFFFF AND DUP2 MSTORE PUSH1 0x20 ADD SWAP1 DUP2 MSTORE PUSH1 0x20 ADD PUSH0 KECCAK256 SWAP1 POP DUP1 PUSH0 ADD SLOAD DUP2 PUSH1 0x2 ADD SLOAD DUP3 PUSH1 0x3 ADD PUSH0 SWAP1 SLOAD SWAP1 PUSH2 0x100 EXP SWAP1 DIV PUSH1 0xFF AND DUP4 PUSH1 0x4 ADD SLOAD DUP5 PUSH1 0x5 ADD SLOAD DUP6 PUSH1 0x6 ADD PUSH0 SWAP1 SLOAD SWAP1 PUSH2 0x100 EXP SWAP1 DIV PUSH1 0xFF AND SWAP7 POP SWAP7 POP SWAP7 POP SWAP7 POP SWAP7 POP SWAP7 POP POP SWAP1 SWAP2 SWAP3 SWAP4 SWAP5 SWAP6 JUMP JUMPDEST PUSH0 PUSH1 0x40 MLOAD SWAP1 POP SWAP1 JUMP JUMPDEST PUSH0 PUSH0 REVERT JUMPDEST PUSH0 PUSH0 REVERT JUMPDEST PUSH0 DUP2 SWAP1 POP SWAP2 SWAP1 POP JUMP JUMPDEST PUSH2 0x17DE DUP2 PUSH2 0x17CC JUMP JUMPDEST DUP2 EQ PUSH2 0x17E8 JUMPI PUSH0 PUSH0 REVERT JUMPDEST POP JUMP JUMPDEST PUSH0 DUP2 CALLDATALOAD SWAP1 POP PUSH2 0x17F9 DUP2 PUSH2 0x17D5 JUMP JUMPDEST SWAP3 SWAP2 POP POP JUMP JUMPDEST PUSH0 PUSH1 0x20 DUP3 DUP5 SUB SLT ISZERO PUSH2 0x1814 JUMPI PUSH2 0x1813 PUSH2 0x17C4 JUMP JUMPDEST JUMPDEST PUSH0 PUSH2 0x1821 DUP5 DUP3 DUP6 ADD PUSH2 0x17EB JUMP JUMPDEST SWAP2 POP POP SWAP3 SWAP2 POP POP JUMP JUMPDEST PUSH0 PUSH20 0xFFFFFFFFFFFFFFFFFFFFFFFFFFFFFFFFFFFFFFFF DUP3 AND SWAP1 POP SWAP2 SWAP1 POP JUMP JUMPDEST PUSH0 PUSH2 0x1853 DUP3 PUSH2 0x182A JUMP JUMPDEST SWAP1 POP SWAP2 SWAP1 POP JUMP JUMPDEST PUSH2 0x1863 DUP2 PUSH2 0x1849 JUMP JUMPDEST DUP3 MSTORE POP POP JUMP JUMPDEST PUSH0 PUSH1 0x20 DUP3 ADD SWAP1 POP PUSH2 0x187C PUSH0 DUP4 ADD DUP5 PUSH2 0x185A JUMP JUMPDEST SWAP3 SWAP2 POP POP JUMP JUMPDEST PUSH2 0x188B DUP2 PUSH2 0x1849 JUMP JUMPDEST DUP2 EQ PUSH2 0x1895 JUMPI PUSH0 PUSH0 REVERT JUMPDEST POP JUMP JUMPDEST PUSH0 DUP2 CALLDATALOAD SWAP1 POP PUSH2 0x18A6 DUP2 PUSH2 0x1882 JUMP JUMPDEST SWAP3 SWAP2 POP POP JUMP JUMPDEST PUSH0 PUSH1 0x20 DUP3 DUP5 SUB SLT ISZERO PUSH2 0x18C1 JUMPI PUSH2 0x18C0 PUSH2 0x17C4 JUMP JUMPDEST JUMPDEST PUSH0 PUSH2 0x18CE DUP5 DUP3 DUP6 ADD PUSH2 0x1898 JUMP JUMPDEST SWAP2 POP POP SWAP3 SWAP2 POP POP JUMP JUMPDEST PUSH2 0x18E0 DUP2 PUSH2 0x17CC JUMP JUMPDEST DUP3 MSTORE POP POP JUMP JUMPDEST PUSH0 DUP2 SWAP1 POP SWAP2 SWAP1 POP JUMP JUMPDEST PUSH2 0x18F8 DUP2 PUSH2 0x18E6 JUMP JUMPDEST DUP3 MSTORE POP POP JUMP JUMPDEST PUSH0 PUSH1 0x80 DUP3 ADD SWAP1 POP PUSH2 0x1911 PUSH0 DUP4 ADD DUP8 PUSH2 0x18D7 JUMP JUMPDEST PUSH2 0x191E PUSH1 0x20 DUP4 ADD DUP7 PUSH2 0x18D7 JUMP JUMPDEST PUSH2 0x192B PUSH1 0x40 DUP4 ADD DUP6 PUSH2 0x18D7 JUMP JUMPDEST PUSH2 0x1938 PUSH1 0x60 DUP4 ADD DUP5 PUSH2 0x18EF JUMP JUMPDEST SWAP6 SWAP5 POP POP POP POP POP JUMP JUMPDEST PUSH0 PUSH0 REVERT JUMPDEST PUSH0 PUSH0 REVERT JUMPDEST PUSH0 PUSH1 0x1F NOT PUSH1 0x1F DUP4 ADD AND SWAP1 POP SWAP2 SWAP1 POP JUMP JUMPDEST PUSH32 0x4E487B7100000000000000000000000000000000000000000000000000000000 PUSH0 MSTORE PUSH1 0x41 PUSH1 0x4 MSTORE PUSH1 0x24 PUSH0 REVERT JUMPDEST PUSH2 0x198F DUP3 PUSH2 0x1949 JUMP JUMPDEST DUP2 ADD DUP2 DUP2 LT PUSH8 0xFFFFFFFFFFFFFFFF DUP3 GT OR ISZERO PUSH2 0x19AE JUMPI PUSH2 0x19AD PUSH2 0x1959 JUMP JUMPDEST JUMPDEST DUP1 PUSH1 0x40 MSTORE POP POP POP JUMP JUMPDEST PUSH0 PUSH2 0x19C0 PUSH2 0x17BB JUMP JUMPDEST SWAP1 POP PUSH2 0x19CC DUP3 DUP3 PUSH2 0x1986 JUMP JUMPDEST SWAP2 SWAP1 POP JUMP JUMPDEST PUSH0 PUSH8 0xFFFFFFFFFFFFFFFF DUP3 GT ISZERO PUSH2 0x19EB JUMPI PUSH2 0x19EA PUSH2 0x1959 JUMP JUMPDEST JUMPDEST PUSH2 0x19F4 DUP3 PUSH2 0x1949 JUMP JUMPDEST SWAP1 POP PUSH1 0x20 DUP2 ADD SWAP1 POP SWAP2 SWAP1 POP JUMP JUMPDEST DUP3 DUP2 DUP4 CALLDATACOPY PUSH0 DUP4 DUP4 ADD MSTORE POP POP POP JUMP JUMPDEST PUSH0 PUSH2 0x1A21 PUSH2 0x1A1C DUP5 PUSH2 0x19D1 JUMP JUMPDEST PUSH2 0x19B7 JUMP JUMPDEST SWAP1 POP DUP3 DUP2 MSTORE PUSH1 0x20 DUP2 ADD DUP5 DUP5 DUP5 ADD GT ISZERO PUSH2 0x1A3D JUMPI PUSH2 0x1A3C PUSH2 0x1945 JUMP JUMPDEST JUMPDEST PUSH2 0x1A48 DUP5 DUP3 DUP6 PUSH2 0x1A01 JUMP JUMPDEST POP SWAP4 SWAP3 POP POP POP JUMP JUMPDEST PUSH0 DUP3 PUSH1 0x1F DUP4 ADD SLT PUSH2 0x1A64 JUMPI PUSH2 0x1A63 PUSH2 0x1941 JUMP JUMPDEST JUMPDEST DUP2 CALLDATALOAD PUSH2 0x1A74 DUP5 DUP3 PUSH1 0x20 DUP7 ADD PUSH2 0x1A0F JUMP JUMPDEST SWAP2 POP POP SWAP3 SWAP2 POP POP JUMP JUMPDEST PUSH0 PUSH0 PUSH1 0x40 DUP4 DUP6 SUB SLT ISZERO PUSH2 0x1A93 JUMPI PUSH2 0x1A92 PUSH2 0x17C4 JUMP JUMPDEST JUMPDEST PUSH0 DUP4 ADD CALLDATALOAD PUSH8 0xFFFFFFFFFFFFFFFF DUP2 GT ISZERO PUSH2 0x1AB0 JUMPI PUSH2 0x1AAF PUSH2 0x17C8 JUMP JUMPDEST JUMPDEST PUSH2 0x1ABC DUP6 DUP3 DUP7 ADD PUSH2 0x1A50 JUMP JUMPDEST SWAP3 POP POP PUSH1 0x20 DUP4 ADD CALLDATALOAD PUSH8 0xFFFFFFFFFFFFFFFF DUP2 GT ISZERO PUSH2 0x1ADD JUMPI PUSH2 0x1ADC PUSH2 0x17C8 JUMP JUMPDEST JUMPDEST PUSH2 0x1AE9 DUP6 DUP3 DUP7 ADD PUSH2 0x1A50 JUMP JUMPDEST SWAP2 POP POP SWAP3 POP SWAP3 SWAP1 POP JUMP JUMPDEST PUSH0 DUP2 ISZERO ISZERO SWAP1 POP SWAP2 SWAP1 POP JUMP JUMPDEST PUSH2 0x1B07 DUP2 PUSH2 0x1AF3 JUMP JUMPDEST DUP3 MSTORE POP POP JUMP JUMPDEST PUSH0 PUSH1 0x20 DUP3 ADD SWAP1 POP PUSH2 0x1B20 PUSH0 DUP4 ADD DUP5 PUSH2 0x1AFE JUMP JUMPDEST SWAP3 SWAP2 POP POP JUMP JUMPDEST PUSH0 PUSH1 0x60 DUP3 ADD SWAP1 POP PUSH2 0x1B39 PUSH0 DUP4 ADD DUP7 PUSH2 0x18D7 JUMP JUMPDEST PUSH2 0x1B46 PUSH1 0x20 DUP4 ADD DUP6 PUSH2 0x18EF JUMP JUMPDEST PUSH2 0x1B53 PUSH1 0x40 DUP4 ADD DUP5 PUSH2 0x1AFE JUMP JUMPDEST SWAP5 SWAP4 POP POP POP POP JUMP JUMPDEST PUSH0 PUSH0 PUSH0 PUSH0 PUSH1 0x80 DUP6 DUP8 SUB SLT ISZERO PUSH2 0x1B73 JUMPI PUSH2 0x1B72 PUSH2 0x17C4 JUMP JUMPDEST JUMPDEST PUSH0 DUP6 ADD CALLDATALOAD PUSH8 0xFFFFFFFFFFFFFFFF DUP2 GT ISZERO PUSH2 0x1B90 JUMPI PUSH2 0x1B8F PUSH2 0x17C8 JUMP JUMPDEST JUMPDEST PUSH2 0x1B9C DUP8 DUP3 DUP9 ADD PUSH2 0x1A50 JUMP JUMPDEST SWAP5 POP POP PUSH1 0x20 DUP6 ADD CALLDATALOAD PUSH8 0xFFFFFFFFFFFFFFFF DUP2 GT ISZERO PUSH2 0x1BBD JUMPI PUSH2 0x1BBC PUSH2 0x17C8 JUMP JUMPDEST JUMPDEST PUSH2 0x1BC9 DUP8 DUP3 DUP9 ADD PUSH2 0x1A50 JUMP JUMPDEST SWAP4 POP POP PUSH1 0x40 PUSH2 0x1BDA DUP8 DUP3 DUP9 ADD PUSH2 0x17EB JUMP JUMPDEST SWAP3 POP POP PUSH1 0x60 PUSH2 0x1BEB DUP8 DUP3 DUP9 ADD PUSH2 0x17EB JUMP JUMPDEST SWAP2 POP POP SWAP3 SWAP6 SWAP2 SWAP5 POP SWAP3 POP JUMP JUMPDEST PUSH0 PUSH0 PUSH1 0x40 DUP4 DUP6 SUB SLT ISZERO PUSH2 0x1C0D JUMPI PUSH2 0x1C0C PUSH2 0x17C4 JUMP JUMPDEST JUMPDEST PUSH0 PUSH2 0x1C1A DUP6 DUP3 DUP7 ADD PUSH2 0x17EB JUMP JUMPDEST SWAP3 POP POP PUSH1 0x20 PUSH2 0x1C2B DUP6 DUP3 DUP7 ADD PUSH2 0x17EB JUMP JUMPDEST SWAP2 POP POP SWAP3 POP SWAP3 SWAP1 POP JUMP JUMPDEST PUSH0 PUSH1 0x20 DUP3 ADD SWAP1 POP PUSH2 0x1C48 PUSH0 DUP4 ADD DUP5 PUSH2 0x18EF JUMP JUMPDEST SWAP3 SWAP2 POP POP JUMP JUMPDEST PUSH32 0x4E487B7100000000000000000000000000000000000000000000000000000000 PUSH0 MSTORE PUSH1 0x21 PUSH1 0x4 MSTORE PUSH1 0x24 PUSH0 REVERT JUMPDEST PUSH1 0x2 DUP2 LT PUSH2 0x1C8C JUMPI PUSH2 0x1C8B PUSH2 0x1C4E JUMP JUMPDEST JUMPDEST POP JUMP JUMPDEST PUSH0 DUP2 SWAP1 POP PUSH2 0x1C9C DUP3 PUSH2 0x1C7B JUMP JUMPDEST SWAP2 SWAP1 POP JUMP JUMPDEST PUSH0 PUSH2 0x1CAB DUP3 PUSH2 0x1C8F JUMP JUMPDEST SWAP1 POP SWAP2 SWAP1 POP JUMP JUMPDEST PUSH2 0x1CBB DUP2 PUSH2 0x1CA1 JUMP JUMPDEST DUP3 MSTORE POP POP JUMP JUMPDEST PUSH0 PUSH1 0xE0 DUP3 ADD SWAP1 POP PUSH2 0x1CD4 PUSH0 DUP4 ADD DUP11 PUSH2 0x18D7 JUMP JUMPDEST PUSH2 0x1CE1 PUSH1 0x20 DUP4 ADD DUP10 PUSH2 0x18D7 JUMP JUMPDEST PUSH2 0x1CEE PUSH1 0x40 DUP4 ADD DUP9 PUSH2 0x18EF JUMP JUMPDEST PUSH2 0x1CFB PUSH1 0x60 DUP4 ADD DUP8 PUSH2 0x1AFE JUMP JUMPDEST PUSH2 0x1D08 PUSH1 0x80 DUP4 ADD DUP7 PUSH2 0x18D7 JUMP JUMPDEST PUSH2 0x1D15 PUSH1 0xA0 DUP4 ADD DUP6 PUSH2 0x18D7 JUMP JUMPDEST PUSH2 0x1D22 PUSH1 0xC0 DUP4 ADD DUP5 PUSH2 0x1CB2 JUMP JUMPDEST SWAP9 SWAP8 POP POP POP POP POP POP POP POP JUMP JUMPDEST PUSH0 PUSH0 PUSH1 0x40 DUP4 DUP6 SUB SLT ISZERO PUSH2 0x1D44 JUMPI PUSH2 0x1D43 PUSH2 0x17C4 JUMP JUMPDEST JUMPDEST PUSH0 PUSH2 0x1D51 DUP6 DUP3 DUP7 ADD PUSH2 0x1898 JUMP JUMPDEST SWAP3 POP POP PUSH1 0x20 PUSH2 0x1D62 DUP6 DUP3 DUP7 ADD PUSH2 0x1898 JUMP JUMPDEST SWAP2 POP POP SWAP3 POP SWAP3 SWAP1 POP JUMP JUMPDEST PUSH0 PUSH1 0x20 DUP3 DUP5 SUB SLT ISZERO PUSH2 0x1D81 JUMPI PUSH2 0x1D80 PUSH2 0x17C4 JUMP JUMPDEST JUMPDEST PUSH0 DUP3 ADD CALLDATALOAD PUSH8 0xFFFFFFFFFFFFFFFF DUP2 GT ISZERO PUSH2 0x1D9E JUMPI PUSH2 0x1D9D PUSH2 0x17C8 JUMP JUMPDEST JUMPDEST PUSH2 0x1DAA DUP5 DUP3 DUP6 ADD PUSH2 0x1A50 JUMP JUMPDEST SWAP2 POP POP SWAP3 SWAP2 POP POP JUMP JUMPDEST PUSH0 PUSH1 0xC0 DUP3 ADD SWAP1 POP PUSH2 0x1DC6 PUSH0 DUP4 ADD DUP10 PUSH2 0x18D7 JUMP JUMPDEST PUSH2 0x1DD3 PUSH1 0x20 DUP4 ADD DUP9 PUSH2 0x18EF JUMP JUMPDEST PUSH2 0x1DE0 PUSH1 0x40 DUP4 ADD DUP8 PUSH2 0x1AFE JUMP JUMPDEST PUSH2 0x1DED PUSH1 0x60 DUP4 ADD DUP7 PUSH2 0x18D7 JUMP JUMPDEST PUSH2 0x1DFA PUSH1 0x80 DUP4 ADD DUP6 PUSH2 0x18D7 JUMP JUMPDEST PUSH2 0x1E07 PUSH1 0xA0 DUP4 ADD DUP5 PUSH2 0x1CB2 JUMP JUMPDEST SWAP8 SWAP7 POP POP POP POP POP POP POP JUMP JUMPDEST PUSH0 DUP3 DUP3 MSTORE PUSH1 0x20 DUP3 ADD SWAP1 POP SWAP3 SWAP2 POP POP JUMP JUMPDEST PUSH32 0x5573657220696E616374697665206F72206E6F7420666F756E64000000000000 PUSH0 DUP3 ADD MSTORE POP JUMP JUMPDEST PUSH0 PUSH2 0x1E56 PUSH1 0x1A DUP4 PUSH2 0x1E12 JUMP JUMPDEST SWAP2 POP PUSH2 0x1E61 DUP3 PUSH2 0x1E22 JUMP JUMPDEST PUSH1 0x20 DUP3 ADD SWAP1 POP SWAP2 SWAP1 POP JUMP JUMPDEST PUSH0 PUSH1 0x20 DUP3 ADD SWAP1 POP DUP2 DUP2 SUB PUSH0 DUP4 ADD MSTORE PUSH2 0x1E83 DUP2 PUSH2 0x1E4A JUMP JUMPDEST SWAP1 POP SWAP2 SWAP1 POP JUMP JUMPDEST PUSH32 0x50726F66696C6520697320707269766174650000000000000000000000000000 PUSH0 DUP3 ADD MSTORE POP JUMP JUMPDEST PUSH0 PUSH2 0x1EBE PUSH1 0x12 DUP4 PUSH2 0x1E12 JUMP JUMPDEST SWAP2 POP PUSH2 0x1EC9 DUP3 PUSH2 0x1E8A JUMP JUMPDEST PUSH1 0x20 DUP3 ADD SWAP1 POP SWAP2 SWAP1 POP JUMP JUMPDEST PUSH0 PUSH1 0x20 DUP3 ADD SWAP1 POP DUP2 DUP2 SUB PUSH0 DUP4 ADD MSTORE PUSH2 0x1EEB DUP2 PUSH2 0x1EB2 JUMP JUMPDEST SWAP1 POP SWAP2 SWAP1 POP JUMP JUMPDEST PUSH32 0x55736572206E6F742072656769737465726564206F7220696E61637469766500 PUSH0 DUP3 ADD MSTORE POP JUMP JUMPDEST PUSH0 PUSH2 0x1F26 PUSH1 0x1F DUP4 PUSH2 0x1E12 JUMP JUMPDEST SWAP2 POP PUSH2 0x1F31 DUP3 PUSH2 0x1EF2 JUMP JUMPDEST PUSH1 0x20 DUP3 ADD SWAP1 POP SWAP2 SWAP1 POP JUMP JUMPDEST PUSH0 PUSH1 0x20 DUP3 ADD SWAP1 POP DUP2 DUP2 SUB PUSH0 DUP4 ADD MSTORE PUSH2 0x1F53 DUP2 PUSH2 0x1F1A JUMP JUMPDEST SWAP1 POP SWAP2 SWAP1 POP JUMP JUMPDEST PUSH32 0x50726F66696C6520616C7265616479207075626C696300000000000000000000 PUSH0 DUP3 ADD MSTORE POP JUMP JUMPDEST PUSH0 PUSH2 0x1F8E PUSH1 0x16 DUP4 PUSH2 0x1E12 JUMP JUMPDEST SWAP2 POP PUSH2 0x1F99 DUP3 PUSH2 0x1F5A JUMP JUMPDEST PUSH1 0x20 DUP3 ADD SWAP1 POP SWAP2 SWAP1 POP JUMP JUMPDEST PUSH0 PUSH1 0x20 DUP3 ADD SWAP1 POP DUP2 DUP2 SUB PUSH0 DUP4 ADD MSTORE PUSH2 0x1FBB DUP2 PUSH2 0x1F82 JUMP JUMPDEST SWAP1 POP SWAP2 SWAP1 POP JUMP JUMPDEST PUSH0 PUSH1 0x60 DUP3 ADD SWAP1 POP PUSH2 0x1FD5 PUSH0 DUP4 ADD DUP7 PUSH2 0x1CB2 JUMP JUMPDEST PUSH2 0x1FE2 PUSH1 0x20 DUP4 ADD DUP6 PUSH2 0x1CB2 JUMP JUMPDEST PUSH2 0x1FEF PUSH1 0x40 DUP4 ADD DUP5 PUSH2 0x18EF JUMP JUMPDEST SWAP5 SWAP4 POP POP POP POP JUMP JUMPDEST PUSH32 0x557365726E616D652063616E6E6F7420626520656D7074790000000000000000 PUSH0 DUP3 ADD MSTORE POP JUMP JUMPDEST PUSH0 PUSH2 0x202B PUSH1 0x18 DUP4 PUSH2 0x1E12 JUMP JUMPDEST SWAP2 POP PUSH2 0x2036 DUP3 PUSH2 0x1FF7 JUMP JUMPDEST PUSH1 0x20 DUP3 ADD SWAP1 POP SWAP2 SWAP1 POP JUMP JUMPDEST PUSH0 PUSH1 0x20 DUP3 ADD SWAP1 POP DUP2 DUP2 SUB PUSH0 DUP4 ADD MSTORE PUSH2 0x2058 DUP2 PUSH2 0x201F JUMP JUMPDEST SWAP1 POP SWAP2 SWAP1 POP JUMP JUMPDEST PUSH32 0x50617373776F72642063616E6E6F7420626520656D7074790000000000000000 PUSH0 DUP3 ADD MSTORE POP JUMP JUMPDEST PUSH0 PUSH2 0x2093 PUSH1 0x18 DUP4 PUSH2 0x1E12 JUMP JUMPDEST SWAP2 POP PUSH2 0x209E DUP3 PUSH2 0x205F JUMP JUMPDEST PUSH1 0x20 DUP3 ADD SWAP1 POP SWAP2 SWAP1 POP JUMP JUMPDEST PUSH0 PUSH1 0x20 DUP3 ADD SWAP1 POP DUP2 DUP2 SUB PUSH0 DUP4 ADD MSTORE PUSH2 0x20C0 DUP2 PUSH2 0x2087 JUMP JUMPDEST SWAP1 POP SWAP2 SWAP1 POP JUMP JUMPDEST PUSH32 0x5573657220616C72656164792072656769737465726564000000000000000000 PUSH0 DUP3 ADD MSTORE POP JUMP JUMPDEST PUSH0 PUSH2 0x20FB PUSH1 0x17 DUP4 PUSH2 0x1E12 JUMP JUMPDEST SWAP2 POP PUSH2 0x2106 DUP3 PUSH2 0x20C7 JUMP JUMPDEST PUSH1 0x20 DUP3 ADD SWAP1 POP SWAP2 SWAP1 POP JUMP JUMPDEST PUSH0 PUSH1 0x20 DUP3 ADD SWAP1 POP DUP2 DUP2 SUB PUSH0 DUP4 ADD MSTORE PUSH2 0x2128 DUP2 PUSH2 0x20EF JUMP JUMPDEST SWAP1 POP SWAP2 SWAP1 POP JUMP JUMPDEST PUSH0 DUP2 MLOAD SWAP1 POP SWAP2 SWAP1 POP JUMP JUMPDEST PUSH0 DUP2 SWAP1 POP SWAP3 SWAP2 POP POP JUMP JUMPDEST DUP3 DUP2 DUP4 MCOPY PUSH0 DUP4 DUP4 ADD MSTORE POP POP POP JUMP JUMPDEST PUSH0 PUSH2 0x215B DUP3 PUSH2 0x212F JUMP JUMPDEST PUSH2 0x2165 DUP2 DUP6 PUSH2 0x2139 JUMP JUMPDEST SWAP4 POP PUSH2 0x2175 DUP2 DUP6 PUSH1 0x20 DUP7 ADD PUSH2 0x2143 JUMP JUMPDEST DUP1 DUP5 ADD SWAP2 POP POP SWAP3 SWAP2 POP POP JUMP JUMPDEST PUSH0 PUSH2 0x218C DUP3 DUP5 PUSH2 0x2151 JUMP JUMPDEST SWAP2 POP DUP2 SWAP1 POP SWAP3 SWAP2 POP POP JUMP JUMPDEST PUSH32 0x557365726E616D6520616C72656164792074616B656E00000000000000000000 PUSH0 DUP3 ADD MSTORE POP JUMP JUMPDEST PUSH0 PUSH2 0x21CB PUSH1 0x16 DUP4 PUSH2 0x1E12 JUMP JUMPDEST SWAP2 POP PUSH2 0x21D6 DUP3 PUSH2 0x2197 JUMP JUMPDEST PUSH1 0x20 DUP3 ADD SWAP1 POP SWAP2 SWAP1 POP JUMP JUMPDEST PUSH0 PUSH1 0x20 DUP3 ADD SWAP1 POP DUP2 DUP2 SUB PUSH0 DUP4 ADD MSTORE PUSH2 0x21F8 DUP2 PUSH2 0x21BF JUMP JUMPDEST SWAP1 POP SWAP2 SWAP1 POP JUMP JUMPDEST PUSH32 0x4E487B7100000000000000000000000000000000000000000000000000000000 PUSH0 MSTORE PUSH1 0x11 PUSH1 0x4 MSTORE PUSH1 0x24 PUSH0 REVERT JUMPDEST PUSH0 PUSH2 0x2236 DUP3 PUSH2 0x18E6 JUMP JUMPDEST SWAP2 POP PUSH2 0x2241 DUP4 PUSH2 0x18E6 JUMP JUMPDEST SWAP3 POP DUP3 DUP3 ADD SWAP1 POP DUP1 DUP3 GT ISZERO PUSH2 0x2259 JUMPI PUSH2 0x2258 PUSH2 0x21FF JUMP JUMPDEST JUMPDEST SWAP3 SWAP2 POP POP JUMP JUMPDEST PUSH32 0x50726F66696C6520616C72656164792070726976617465000000000000000000 PUSH0 DUP3 ADD MSTORE POP JUMP JUMPDEST PUSH0 PUSH2 0x2293 PUSH1 0x17 DUP4 PUSH2 0x1E12 JUMP JUMPDEST SWAP2 POP PUSH2 0x229E DUP3 PUSH2 0x225F JUMP JUMPDEST PUSH1 0x20 DUP3 ADD SWAP1 POP SWAP2 SWAP1 POP JUMP JUMPDEST PUSH0 PUSH1 0x20 DUP3 ADD SWAP1 POP DUP2 DUP2 SUB PUSH0 DUP4 ADD MSTORE PUSH2 0x22C0 DUP2 PUSH2 0x2287 JUMP JUMPDEST SWAP1 POP SWAP2 SWAP1 POP JUMP JUMPDEST PUSH0 PUSH1 0x60 DUP3 ADD SWAP1 POP PUSH2 0x22DA PUSH0 DUP4 ADD DUP7 PUSH2 0x18D7 JUMP JUMPDEST PUSH2 0x22E7 PUSH1 0x20 DUP4 ADD DUP6 PUSH2 0x18D7 JUMP JUMPDEST PUSH2 0x22F4 PUSH1 0x40 DUP4 ADD DUP5 PUSH2 0x18EF JUMP JUMPDEST SWAP5 SWAP4 POP POP POP POP JUMP JUMPDEST PUSH32 0x4E65772070617373776F72642063616E6E6F7420626520656D70747900000000 PUSH0 DUP3 ADD MSTORE POP JUMP JUMPDEST PUSH0 PUSH2 0x2330 PUSH1 0x1C DUP4 PUSH2 0x1E12 JUMP JUMPDEST SWAP2 POP PUSH2 0x233B DUP3 PUSH2 0x22FC JUMP JUMPDEST PUSH1 0x20 DUP3 ADD SWAP1 POP SWAP2 SWAP1 POP JUMP JUMPDEST PUSH0 PUSH1 0x20 DUP3 ADD SWAP1 POP DUP2 DUP2 SUB PUSH0 DUP4 ADD MSTORE PUSH2 0x235D DUP2 PUSH2 0x2324 JUMP JUMPDEST SWAP1 POP SWAP2 SWAP1 POP JUMP JUMPDEST PUSH32 0x4F6C642070617373776F726420696E636F727265637400000000000000000000 PUSH0 DUP3 ADD MSTORE POP JUMP JUMPDEST PUSH0 PUSH2 0x2398 PUSH1 0x16 DUP4 PUSH2 0x1E12 JUMP JUMPDEST SWAP2 POP PUSH2 0x23A3 DUP3 PUSH2 0x2364 JUMP JUMPDEST PUSH1 0x20 DUP3 ADD SWAP1 POP SWAP2 SWAP1 POP JUMP JUMPDEST PUSH0 PUSH1 0x20 DUP3 ADD SWAP1 POP DUP2 DUP2 SUB PUSH0 DUP4 ADD MSTORE PUSH2 0x23C5 DUP2 PUSH2 0x238C JUMP JUMPDEST SWAP1 POP SWAP2 SWAP1 POP JUMP JUMPDEST PUSH0 PUSH2 0x23D6 DUP3 PUSH2 0x18E6 JUMP JUMPDEST SWAP2 POP PUSH2 0x23E1 DUP4 PUSH2 0x18E6 JUMP JUMPDEST SWAP3 POP DUP3 DUP3 SUB SWAP1 POP DUP2 DUP2 GT ISZERO PUSH2 0x23F9 JUMPI PUSH2 0x23F8 PUSH2 0x21FF JUMP JUMPDEST JUMPDEST SWAP3 SWAP2 POP POP JUMP INVALID LOG2 PUSH5 0x6970667358 0x22 SLT KECCAK256 0xD3 0xB7 EXTSTATICCALL DUP4 EXTCALL BLOBHASH KECCAK256 BLOBHASH PREVRANDAO 0xED 0xB6 0x1F SIGNEXTEND PUSH10 0x76FC6A0E68CDEEB01E10 0xB3 0x25 0xDF 0x2C 0x2F 0xD5 0xBE DUP5 PUSH5 0x736F6C6343 STOP ADDMOD 0x1E STOP CALLER "
		},
		"gasEstimates": {
			"creation": {
				"codeDepositCost": "1853800",
				"executionCost": "1953",
				"totalCost": "1855753"
			},
			"external": {
				"checkUserDataAccess(address,address)": "infinite",
				"deactivateAccount()": "infinite",
				"getActiveUsers()": "2498",
				"getMyProfileInfo()": "infinite",
				"getPublicUserProfile(address)": "infinite",
				"getTotalUsers()": "2455",
				"getUserInfo()": "9323",
				"isUserActive(address)": "2920",
				"isUsernameAvailable(string)": "infinite",
				"login(string,string)": "infinite",
				"makeProfilePrivate()": "infinite",
				"makeProfilePublic()": "infinite",
				"register(string,string)": "infinite",
				"registerWithProfile(string,string,bytes32,bytes32)": "infinite",
				"updatePassword(string,string)": "infinite",
				"updateUserProfile(bytes32,bytes32)": "infinite",
				"usernameToAddress(bytes32)": "2851",
				"users(address)": "infinite"
			}
		},
		"methodIdentifiers": {
			"checkUserDataAccess(address,address)": "a876f952",
			"deactivateAccount()": "e040e9a0",
			"getActiveUsers()": "f5593607",
			"getMyProfileInfo()": "fab208ca",
			"getPublicUserProfile(address)": "3265b453",
			"getTotalUsers()": "9be572f6",
			"getUserInfo()": "5d8d1585",
			"isUserActive(address)": "9ee20b15",
			"isUsernameAvailable(string)": "f69c6dec",
			"login(string,string)": "58467dbc",
			"makeProfilePrivate()": "523435c8",
			"makeProfilePublic()": "3df60461",
			"register(string,string)": "3ffbd47f",
			"registerWithProfile(string,string,bytes32,bytes32)": "65171072",
			"updatePassword(string,string)": "cdfbb351",
			"updateUserProfile(bytes32,bytes32)": "7e9a1f2c",
			"usernameToAddress(bytes32)": "2fdf15d5",
			"users(address)": "a87430ba"
		}
	},
	"abi": [
		{
			"anonymous": false,
			"inputs": [
				{
					"indexed": true,
					"internalType": "address",
					"name": "userAddress",
					"type": "address"
				},
				{
					"indexed": false,
					"internalType": "uint256",
					"name": "timestamp",
					"type": "uint256"
				}
			],
			"name": "PasswordUpdated",
			"type": "event"
		},
		{
			"anonymous": false,
			"inputs": [
				{
					"indexed": true,
					"internalType": "address",
					"name": "userAddress",
					"type": "address"
				},
				{
					"indexed": false,
					"internalType": "uint256",
					"name": "timestamp",
					"type": "uint256"
				}
			],
			"name": "UserDeactivated",
			"type": "event"
		},
		{
			"anonymous": false,
			"inputs": [
				{
					"indexed": true,
					"internalType": "address",
					"name": "userAddress",
					"type": "address"
				},
				{
					"indexed": false,
					"internalType": "uint256",
					"name": "timestamp",
					"type": "uint256"
				}
			],
			"name": "UserLoggedIn",
			"type": "event"
		},
		{
			"anonymous": false,
			"inputs": [
				{
					"indexed": true,
					"internalType": "address",
					"name": "userAddress",
					"type": "address"
				},
				{
					"indexed": false,
					"internalType": "enum UserAuth.ProfileStatus",
					"name": "oldStatus",
					"type": "uint8"
				},
				{
					"indexed": false,
					"internalType": "enum UserAuth.ProfileStatus",
					"name": "newStatus",
					"type": "uint8"
				},
				{
					"indexed": false,
					"internalType": "uint256",
					"name": "timestamp",
					"type": "uint256"
				}
			],
			"name": "UserProfileStatusChanged",
			"type": "event"
		},
		{
			"anonymous": false,
			"inputs": [
				{
					"indexed": true,
					"internalType": "address",
					"name": "userAddress",
					"type": "address"
				},
				{
					"indexed": false,
					"internalType": "bytes32",
					"name": "profileDataHash",
					"type": "bytes32"
				},
				{
					"indexed": false,
					"internalType": "bytes32",
					"name": "publicKeyHash",
					"type": "bytes32"
				},
				{
					"indexed": false,
					"internalType": "uint256",
					"name": "timestamp",
					"type": "uint256"
				}
			],
			"name": "UserProfileUpdated",
			"type": "event"
		},
		{
			"anonymous": false,
			"inputs": [
				{
					"indexed": true,
					"internalType": "address",
					"name": "userAddress",
					"type": "address"
				},
				{
					"indexed": true,
					"internalType": "bytes32",
					"name": "usernameHash",
					"type": "bytes32"
				},
				{
					"indexed": false,
					"internalType": "uint256",
					"name": "timestamp",
					"type": "uint256"
				}
			],
			"name": "UserRegistered",
			"type": "event"
		},
		{
			"inputs": [
				{
					"internalType": "address",
					"name": "requester",
					"type": "address"
				},
				{
					"internalType": "address",
					"name": "userAddress",
					"type": "address"
				}
			],
			"name": "checkUserDataAccess",
			"outputs": [
				{
					"internalType": "bool",
					"name": "",
					"type": "bool"
				}
			],
			"stateMutability": "view",
			"type": "function"
		},
		{
			"inputs": [],
			"name": "deactivateAccount",
			"outputs": [],
			"stateMutability": "nonpayable",
			"type": "function"
		},
		{
			"inputs": [],
			"name": "getActiveUsers",
			"outputs": [
				{
					"internalType": "uint256",
					"name": "count",
					"type": "uint256"
				}
			],
			"stateMutability": "view",
			"type": "function"
		},
		{
			"inputs": [],
			"name": "getMyProfileInfo",
			"outputs": [
				{
					"internalType": "bytes32",
					"name": "usernameHash",
					"type": "bytes32"
				},
				{
					"internalType": "uint256",
					"name": "createdAt",
					"type": "uint256"
				},
				{
					"internalType": "bool",
					"name": "isActive",
					"type": "bool"
				},
				{
					"internalType": "bytes32",
					"name": "profileDataHash",
					"type": "bytes32"
				},
				{
					"internalType": "bytes32",
					"name": "publicKeyHash",
					"type": "bytes32"
				},
				{
					"internalType": "enum UserAuth.ProfileStatus",
					"name": "profileStatus",
					"type": "uint8"
				}
			],
			"stateMutability": "view",
			"type": "function"
		},
		{
			"inputs": [
				{
					"internalType": "address",
					"name": "userAddress",
					"type": "address"
				}
			],
			"name": "getPublicUserProfile",
			"outputs": [
				{
					"internalType": "bytes32",
					"name": "usernameHash",
					"type": "bytes32"
				},
				{
					"internalType": "bytes32",
					"name": "profileDataHash",
					"type": "bytes32"
				},
				{
					"internalType": "bytes32",
					"name": "publicKeyHash",
					"type": "bytes32"
				},
				{
					"internalType": "uint256",
					"name": "createdAt",
					"type": "uint256"
				}
			],
			"stateMutability": "view",
			"type": "function"
		},
		{
			"inputs": [],
			"name": "getTotalUsers",
			"outputs": [
				{
					"internalType": "uint256",
					"name": "count",
					"type": "uint256"
				}
			],
			"stateMutability": "view",
			"type": "function"
		},
		{
			"inputs": [],
			"name": "getUserInfo",
			"outputs": [
				{
					"internalType": "bytes32",
					"name": "usernameHash",
					"type": "bytes32"
				},
				{
					"internalType": "uint256",
					"name": "createdAt",
					"type": "uint256"
				},
				{
					"internalType": "bool",
					"name": "isActive",
					"type": "bool"
				}
			],
			"stateMutability": "view",
			"type": "function"
		},
		{
			"inputs": [
				{
					"internalType": "address",
					"name": "userAddress",
					"type": "address"
				}
			],
			"name": "isUserActive",
			"outputs": [
				{
					"internalType": "bool",
					"name": "",
					"type": "bool"
				}
			],
			"stateMutability": "view",
			"type": "function"
		},
		{
			"inputs": [
				{
					"internalType": "string",
					"name": "username",
					"type": "string"
				}
			],
			"name": "isUsernameAvailable",
			"outputs": [
				{
					"internalType": "bool",
					"name": "available",
					"type": "bool"
				}
			],
			"stateMutability": "view",
			"type": "function"
		},
		{
			"inputs": [
				{
					"internalType": "string",
					"name": "username",
					"type": "string"
				},
				{
					"internalType": "string",
					"name": "password",
					"type": "string"
				}
			],
			"name": "login",
			"outputs": [
				{
					"internalType": "bool",
					"name": "success",
					"type": "bool"
				}
			],
			"stateMutability": "view",
			"type": "function"
		},
		{
			"inputs": [],
			"name": "makeProfilePrivate",
			"outputs": [],
			"stateMutability": "nonpayable",
			"type": "function"
		},
		{
			"inputs": [],
			"name": "makeProfilePublic",
			"outputs": [],
			"stateMutability": "nonpayable",
			"type": "function"
		},
		{
			"inputs": [
				{
					"internalType": "string",
					"name": "username",
					"type": "string"
				},
				{
					"internalType": "string",
					"name": "password",
					"type": "string"
				}
			],
			"name": "register",
			"outputs": [],
			"stateMutability": "nonpayable",
			"type": "function"
		},
		{
			"inputs": [
				{
					"internalType": "string",
					"name": "username",
					"type": "string"
				},
				{
					"internalType": "string",
					"name": "password",
					"type": "string"
				},
				{
					"internalType": "bytes32",
					"name": "profileDataHash",
					"type": "bytes32"
				},
				{
					"internalType": "bytes32",
					"name": "publicKeyHash",
					"type": "bytes32"
				}
			],
			"name": "registerWithProfile",
			"outputs": [],
			"stateMutability": "nonpayable",
			"type": "function"
		},
		{
			"inputs": [
				{
					"internalType": "string",
					"name": "oldPassword",
					"type": "string"
				},
				{
					"internalType": "string",
					"name": "newPassword",
					"type": "string"
				}
			],
			"name": "updatePassword",
			"outputs": [],
			"stateMutability": "nonpayable",
			"type": "function"
		},
		{
			"inputs": [
				{
					"internalType": "bytes32",
					"name": "profileDataHash",
					"type": "bytes32"
				},
				{
					"internalType": "bytes32",
					"name": "publicKeyHash",
					"type": "bytes32"
				}
			],
			"name": "updateUserProfile",
			"outputs": [],
			"stateMutability": "nonpayable",
			"type": "function"
		},
		{
			"inputs": [
				{
					"internalType": "bytes32",
					"name": "",
					"type": "bytes32"
				}
			],
			"name": "usernameToAddress",
			"outputs": [
				{
					"internalType": "address",
					"name": "",
					"type": "address"
				}
			],
			"stateMutability": "view",
			"type": "function"
		},
		{
			"inputs": [
				{
					"internalType": "address",
					"name": "",
					"type": "address"
				}
			],
			"name": "users",
			"outputs": [
				{
					"internalType": "bytes32",
					"name": "usernameHash",
					"type": "bytes32"
				},
				{
					"internalType": "bytes32",
					"name": "passwordHash",
					"type": "bytes32"
				},
				{
					"internalType": "uint256",
					"name": "createdAt",
					"type": "uint256"
				},
				{
					"internalType": "bool",
					"name": "isActive",
					"type": "bool"
				},
				{
					"internalType": "bytes32",
					"name": "profileDataHash",
					"type": "bytes32"
				},
				{
					"internalType": "bytes32",
					"name": "publicKeyHash",
					"type": "bytes32"
				},
				{
					"internalType": "enum UserAuth.ProfileStatus",
					"name": "profileStatus",
					"type": "uint8"
				}
			],
			"stateMutability": "view",
			"type": "function"
		}
	]
}